{
  "contractName": "BlockManager",
  "abi": [
    {
      "constant": true,
      "inputs": [
        {
          "name": "account",
          "type": "address"
        }
      ],
      "name": "isWriter",
      "outputs": [
        {
          "name": "",
          "type": "bool"
        }
      ],
      "payable": false,
      "stateMutability": "view",
      "type": "function"
    },
    {
      "constant": true,
      "inputs": [],
      "name": "stateManager",
      "outputs": [
        {
          "name": "",
          "type": "address"
        }
      ],
      "payable": false,
      "stateMutability": "view",
      "type": "function"
    },
    {
      "constant": true,
      "inputs": [],
      "name": "voteManager",
      "outputs": [
        {
          "name": "",
          "type": "address"
        }
      ],
      "payable": false,
      "stateMutability": "view",
      "type": "function"
    },
    {
      "constant": true,
      "inputs": [],
      "name": "stakeManager",
      "outputs": [
        {
          "name": "",
          "type": "address"
        }
      ],
      "payable": false,
      "stateMutability": "view",
      "type": "function"
    },
    {
      "constant": true,
      "inputs": [
        {
          "name": "",
          "type": "uint256"
        },
        {
          "name": "",
          "type": "address"
        }
      ],
      "name": "disputes",
      "outputs": [
        {
          "name": "accWeight",
          "type": "uint256"
        },
        {
          "name": "median",
          "type": "uint256"
        },
        {
          "name": "lastVisited",
          "type": "uint256"
        },
        {
          "name": "assetId",
          "type": "uint256"
        }
      ],
      "payable": false,
      "stateMutability": "view",
      "type": "function"
    },
    {
      "constant": true,
      "inputs": [
        {
          "name": "",
          "type": "uint256"
        },
        {
          "name": "",
          "type": "uint256"
        }
      ],
      "name": "proposedBlocks",
      "outputs": [
        {
          "name": "proposerId",
          "type": "uint256"
        },
        {
          "name": "iteration",
          "type": "uint256"
        },
        {
          "name": "biggestStake",
          "type": "uint256"
        },
        {
          "name": "valid",
          "type": "bool"
        }
      ],
      "payable": false,
      "stateMutability": "view",
      "type": "function"
    },
    {
      "constant": false,
      "inputs": [
        {
          "name": "account",
          "type": "address"
        }
      ],
      "name": "addWriter",
      "outputs": [],
      "payable": false,
      "stateMutability": "nonpayable",
      "type": "function"
    },
    {
      "constant": false,
      "inputs": [],
      "name": "renounceWriter",
      "outputs": [],
      "payable": false,
      "stateMutability": "nonpayable",
      "type": "function"
    },
    {
      "constant": true,
      "inputs": [
        {
          "name": "",
          "type": "uint256"
        }
      ],
      "name": "blocks",
      "outputs": [
        {
          "name": "proposerId",
          "type": "uint256"
        },
        {
          "name": "iteration",
          "type": "uint256"
        },
        {
          "name": "biggestStake",
          "type": "uint256"
        },
        {
          "name": "valid",
          "type": "bool"
        }
      ],
      "payable": false,
      "stateMutability": "view",
      "type": "function"
    },
    {
      "anonymous": false,
      "inputs": [
        {
          "indexed": false,
          "name": "epoch",
          "type": "uint256"
        },
        {
          "indexed": false,
          "name": "stakerId",
          "type": "uint256"
        },
        {
          "indexed": false,
          "name": "medians",
          "type": "uint256[]"
        },
        {
          "indexed": false,
          "name": "iteration",
          "type": "uint256"
        },
        {
          "indexed": false,
          "name": "biggestStakerId",
          "type": "uint256"
        }
      ],
      "name": "Proposed",
      "type": "event"
    },
    {
      "anonymous": false,
      "inputs": [
        {
          "indexed": false,
          "name": "epoch",
          "type": "uint256"
        },
        {
          "indexed": false,
          "name": "stakerId",
          "type": "uint256"
        },
        {
          "indexed": false,
          "name": "medians",
          "type": "uint256[]"
        }
      ],
      "name": "BlockConfirmed",
      "type": "event"
    },
    {
      "anonymous": false,
      "inputs": [
        {
          "indexed": true,
          "name": "account",
          "type": "address"
        }
      ],
      "name": "WriterAdded",
      "type": "event"
    },
    {
      "anonymous": false,
      "inputs": [
        {
          "indexed": true,
          "name": "account",
          "type": "address"
        }
      ],
      "name": "WriterRemoved",
      "type": "event"
    },
    {
      "anonymous": false,
      "inputs": [
        {
          "indexed": false,
          "name": "a",
          "type": "uint256"
        }
      ],
      "name": "DebugUint256",
      "type": "event"
    },
    {
      "constant": true,
      "inputs": [
        {
          "name": "epoch",
          "type": "uint256"
        }
      ],
      "name": "getBlock",
      "outputs": [
        {
          "components": [
            {
              "name": "proposerId",
              "type": "uint256"
            },
            {
              "name": "medians",
              "type": "uint256[]"
            },
            {
              "name": "iteration",
              "type": "uint256"
            },
            {
              "name": "biggestStake",
              "type": "uint256"
            },
            {
              "name": "valid",
              "type": "bool"
            }
          ],
          "name": "_block",
          "type": "tuple"
        }
      ],
      "payable": false,
      "stateMutability": "view",
      "type": "function"
    },
    {
      "constant": true,
      "inputs": [
        {
          "name": "epoch",
          "type": "uint256"
        }
      ],
      "name": "getBlockMedians",
      "outputs": [
        {
          "name": "_blockMedians",
          "type": "uint256[]"
        }
      ],
      "payable": false,
      "stateMutability": "view",
      "type": "function"
    },
    {
      "constant": true,
      "inputs": [
        {
          "name": "epoch",
          "type": "uint256"
        },
        {
          "name": "proposedBlock",
          "type": "uint256"
        }
      ],
      "name": "getProposedBlock",
      "outputs": [
        {
          "components": [
            {
              "name": "proposerId",
              "type": "uint256"
            },
            {
              "name": "medians",
              "type": "uint256[]"
            },
            {
              "name": "iteration",
              "type": "uint256"
            },
            {
              "name": "biggestStake",
              "type": "uint256"
            },
            {
              "name": "valid",
              "type": "bool"
            }
          ],
          "name": "_block",
          "type": "tuple"
        }
      ],
      "payable": false,
      "stateMutability": "view",
      "type": "function"
    },
    {
      "constant": true,
      "inputs": [
        {
          "name": "epoch",
          "type": "uint256"
        },
        {
          "name": "proposedBlock",
          "type": "uint256"
        }
      ],
      "name": "getProposedBlockMedians",
      "outputs": [
        {
          "name": "_blockMedians",
          "type": "uint256[]"
        }
      ],
      "payable": false,
      "stateMutability": "view",
      "type": "function"
    },
    {
      "constant": true,
      "inputs": [
        {
          "name": "epoch",
          "type": "uint256"
        }
      ],
      "name": "getNumProposedBlocks",
      "outputs": [
        {
          "name": "",
          "type": "uint256"
        }
      ],
      "payable": false,
      "stateMutability": "view",
      "type": "function"
    },
    {
      "constant": false,
      "inputs": [
        {
          "name": "_stakeManagerAddress",
          "type": "address"
        },
        {
          "name": "_stateManagerAddress",
          "type": "address"
        },
        {
          "name": "_voteManagerAddress",
          "type": "address"
        }
      ],
      "name": "init",
      "outputs": [],
      "payable": false,
      "stateMutability": "nonpayable",
      "type": "function"
    },
    {
      "constant": false,
      "inputs": [
        {
          "name": "epoch",
          "type": "uint256"
        },
        {
          "name": "medians",
          "type": "uint256[]"
        },
        {
          "name": "iteration",
          "type": "uint256"
        },
        {
          "name": "biggestStakerId",
          "type": "uint256"
        }
      ],
      "name": "propose",
      "outputs": [],
      "payable": false,
      "stateMutability": "nonpayable",
      "type": "function"
    },
    {
      "constant": false,
      "inputs": [
        {
          "name": "epoch",
          "type": "uint256"
        },
        {
          "name": "assetId",
          "type": "uint256"
        },
        {
          "name": "sorted",
          "type": "uint256[]"
        }
      ],
      "name": "giveSorted",
      "outputs": [],
      "payable": false,
      "stateMutability": "nonpayable",
      "type": "function"
    },
    {
      "constant": false,
      "inputs": [
        {
          "name": "epoch",
          "type": "uint256"
        }
      ],
      "name": "resetDispute",
      "outputs": [],
      "payable": false,
      "stateMutability": "nonpayable",
      "type": "function"
    },
    {
      "constant": false,
      "inputs": [
        {
          "name": "epoch",
          "type": "uint256"
        },
        {
          "name": "blockId",
          "type": "uint256"
        }
      ],
      "name": "finalizeDispute",
      "outputs": [],
      "payable": false,
      "stateMutability": "nonpayable",
      "type": "function"
    },
    {
      "constant": true,
      "inputs": [
        {
          "name": "iteration",
          "type": "uint256"
        },
        {
          "name": "biggestStakerId",
          "type": "uint256"
        },
        {
          "name": "stakerId",
          "type": "uint256"
        }
      ],
      "name": "isElectedProposer",
      "outputs": [
        {
          "name": "",
          "type": "bool"
        }
      ],
      "payable": false,
      "stateMutability": "view",
      "type": "function"
    },
    {
      "constant": false,
      "inputs": [],
      "name": "confirmBlock",
      "outputs": [],
      "payable": false,
      "stateMutability": "nonpayable",
      "type": "function"
    }
  ],
  "bytecode": "0x608060405262000015336200001b60201b60201c565b620002f9565b620000368160006200007c60201b62002fb91790919060201c565b8073ffffffffffffffffffffffffffffffffffffffff167f6ff3aa2ea7b53070f6d9d07a445d338d89e8edef44250ffa8be19f53910d4a2e60405160405180910390a250565b6200008e82826200012f60201b60201c565b15620000d1576040517f08c379a0000000000000000000000000000000000000000000000000000000008152600401620000c890620002a4565b60405180910390fd5b60018260000160008373ffffffffffffffffffffffffffffffffffffffff1673ffffffffffffffffffffffffffffffffffffffff16815260200190815260200160002060006101000a81548160ff0219169083151502179055505050565b60008073ffffffffffffffffffffffffffffffffffffffff168273ffffffffffffffffffffffffffffffffffffffff161415620001a3576040517f08c379a00000000000000000000000000000000000000000000000000000000081526004016200019a90620002c6565b60405180910390fd5b8260000160008373ffffffffffffffffffffffffffffffffffffffff1673ffffffffffffffffffffffffffffffffffffffff16815260200190815260200160002060009054906101000a900460ff16905092915050565b600062000209601f83620002e8565b91507f526f6c65733a206163636f756e7420616c72656164792068617320726f6c65006000830152602082019050919050565b60006200024b602283620002e8565b91507f526f6c65733a206163636f756e7420697320746865207a65726f20616464726560008301527f73730000000000000000000000000000000000000000000000000000000000006020830152604082019050919050565b60006020820190508181036000830152620002bf81620001fa565b9050919050565b60006020820190508181036000830152620002e1816200023c565b9050919050565b600082825260208201905092915050565b6145f280620003096000396000f3fe608060405234801561001057600080fd5b50600436106101375760003560e01c80637542ff95116100b8578063a27ce1ef1161007c578063a27ce1ef14610352578063d1a4a43d14610382578063da2824a8146103b2578063df4eb59c146103ce578063e38c7c42146103d8578063f25b3f991461040857610137565b80637542ff95146102a85780637e63809c146102c6578063828496d6146102e257806392b48411146103155780639b87f6441461034857610137565b8063378ab9a9116100ff578063378ab9a9146102065780633cd32fd41461023657806342c1e587146102525780634e6753b7146102705780635ce8772f1461028c57610137565b806304c075691461013c578063184b95591461016c5780631d69ff9b146101885780632b29ba23146101b85780632e716fb1146101e8575b600080fd5b61015660048036036101519190810190613484565b61043b565b604051610163919061410f565b60405180910390f35b610186600480360361018191908101906133e3565b6104f9565b005b6101a2600480360361019d9190810190613630565b6105c1565b6040516101af9190613e43565b60405180910390f35b6101d260048036036101cd91908101906133ba565b6109b8565b6040516101df9190613e43565b60405180910390f35b6101f06109d5565b6040516101fd9190613e79565b60405180910390f35b610220600480360361021b9190810190613484565b6109fb565b60405161022d9190613e21565b60405180910390f35b610250600480360361024b919081019061358d565b610a6c565b005b61025a61104b565b6040516102679190613e94565b60405180910390f35b61028a600480360361028591908101906135c9565b611071565b005b6102a660048036036102a19190810190613484565b611870565b005b6102b0611b57565b6040516102bd9190613e5e565b60405180910390f35b6102e060048036036102db9190810190613512565b611b7d565b005b6102fc60048036036102f791908101906134d6565b612189565b60405161030c94939291906142b2565b60405180910390f35b61032f600480360361032a919081019061358d565b6121c6565b60405161033f949392919061426d565b60405180910390f35b61035061221d565b005b61036c6004803603610367919081019061358d565b6125c3565b604051610379919061410f565b60405180910390f35b61039c6004803603610397919081019061358d565b61269e565b6040516103a99190613e21565b60405180910390f35b6103cc60048036036103c791908101906133ba565b612729565b005b6103d661277d565b005b6103f260048036036103ed9190810190613484565b612788565b6040516103ff9190614131565b60405180910390f35b610422600480360361041d9190810190613484565b6127a8565b604051610432949392919061426d565b60405180910390f35b610443613108565b600360008381526020019081526020016000206040518060a001604052908160008201548152602001600182018054806020026020016040519081016040528092919081815260200182805480156104ba57602002820191906000526020600020905b8154815260200190600101908083116104a6575b5050505050815260200160028201548152602001600382015481526020016004820160009054906101000a900460ff1615151515815250509050919050565b82600460006101000a81548173ffffffffffffffffffffffffffffffffffffffff021916908373ffffffffffffffffffffffffffffffffffffffff16021790555081600560006101000a81548173ffffffffffffffffffffffffffffffffffffffff021916908373ffffffffffffffffffffffffffffffffffffffff16021790555080600660006101000a81548173ffffffffffffffffffffffffffffffffffffffff021916908373ffffffffffffffffffffffffffffffffffffffff160217905550505050565b600081610728600173__Random________________________________635075dbfb600a600460009054906101000a900473ffffffffffffffffffffffffffffffffffffffff1673ffffffffffffffffffffffffffffffffffffffff1663bc788d466040518163ffffffff1660e01b815260040160206040518083038186803b15801561064d57600080fd5b505afa158015610661573d6000803e3d6000fd5b505050506040513d601f19601f8201168201806040525061068591908101906134ad565b8a6040516020016106969190614131565b604051602081830303815290604052805190602001206040518463ffffffff1660e01b81526004016106ca93929190613ed8565b60206040518083038186803b1580156106e257600080fd5b505af41580156106f6573d6000803e3d6000fd5b505050506040513d601f19601f8201168201806040525061071a91908101906134ad565b6127e590919063ffffffff16565b1461073657600090506109b1565b600073__Random________________________________63b07ceab8600a8588604051602001610767929190614175565b604051602081830303815290604052805190602001206040518363ffffffff1660e01b815260040161079a929190613eaf565b60206040518083038186803b1580156107b257600080fd5b505af41580156107c6573d6000803e3d6000fd5b505050506040513d601f19601f820116820180604052506107ea9190810190613432565b905060006108096401000000008360001c61283a90919063ffffffff16565b90506000600460009054906101000a900473ffffffffffffffffffffffffffffffffffffffff1673ffffffffffffffffffffffffffffffffffffffff1663e3c998fe876040518263ffffffff1660e01b81526004016108689190614131565b60e06040518083038186803b15801561088057600080fd5b505afa158015610894573d6000803e3d6000fd5b505050506040513d601f19601f820116820180604052506108b8919081019061345b565b602001519050610984640100000000600460009054906101000a900473ffffffffffffffffffffffffffffffffffffffff1673ffffffffffffffffffffffffffffffffffffffff1663e3c998fe886040518263ffffffff1660e01b81526004016109229190614131565b60e06040518083038186803b15801561093a57600080fd5b505afa15801561094e573d6000803e3d6000fd5b505050506040513d601f19601f82011682018060405250610972919081019061345b565b6020015161289190919063ffffffff16565b610997828461289190919063ffffffff16565b11156109a957600093505050506109b1565b600193505050505b9392505050565b60006109ce82600061290190919063ffffffff16565b9050919050565b600560009054906101000a900473ffffffffffffffffffffffffffffffffffffffff1681565b606060036000838152602001908152602001600020600101805480602002602001604051908101604052809291908181526020018280548015610a5d57602002820191906000526020600020905b815481526020019060010190808311610a49575b50505050509050809050919050565b81600560009054906101000a900473ffffffffffffffffffffffffffffffffffffffff1673ffffffffffffffffffffffffffffffffffffffff1663757991a86040518163ffffffff1660e01b815260040160206040518083038186803b158015610ad557600080fd5b505afa158015610ae9573d6000803e3d6000fd5b505050506040513d601f19601f82011682018060405250610b0d91908101906134ad565b8114610b4e576040517f08c379a0000000000000000000000000000000000000000000000000000000008152600401610b459061400f565b60405180910390fd5b73__Constants_____________________________63f240f7c36040518163ffffffff1660e01b815260040160206040518083038186803b158015610b9257600080fd5b505af4158015610ba6573d6000803e3d6000fd5b505050506040513d601f19601f82011682018060405250610bca919081019061367f565b60ff16600560009054906101000a900473ffffffffffffffffffffffffffffffffffffffff1673ffffffffffffffffffffffffffffffffffffffff16631865c57d6040518163ffffffff1660e01b815260040160206040518083038186803b158015610c3557600080fd5b505afa158015610c49573d6000803e3d6000fd5b505050506040513d601f19601f82011682018060405250610c6d91908101906134ad565b8114610cae576040517f08c379a0000000000000000000000000000000000000000000000000000000008152600401610ca5906140cf565b60405180910390fd5b60006001600086815260200190815260200160002060003373ffffffffffffffffffffffffffffffffffffffff1673ffffffffffffffffffffffffffffffffffffffff168152602001908152602001600020600301549050600660009054906101000a900473ffffffffffffffffffffffffffffffffffffffff1673ffffffffffffffffffffffffffffffffffffffff1663a6a145d986836040518363ffffffff1660e01b8152600401610d63929190614175565b60206040518083038186803b158015610d7b57600080fd5b505afa158015610d8f573d6000803e3d6000fd5b505050506040513d601f19601f82011682018060405250610db391908101906134ad565b6001600087815260200190815260200160002060003373ffffffffffffffffffffffffffffffffffffffff1673ffffffffffffffffffffffffffffffffffffffff1681526020019081526020016000206000015414610e47576040517f08c379a0000000000000000000000000000000000000000000000000000000008152600401610e3e906140af565b60405180910390fd5b60006001600087815260200190815260200160002060003373ffffffffffffffffffffffffffffffffffffffff1673ffffffffffffffffffffffffffffffffffffffff1681526020019081526020016000206001015490506000600260008881526020019081526020016000208681548110610ebf57fe5b906000526020600020906005020160000154905060008211610ee057600080fd5b81600260008981526020019081526020016000208781548110610eff57fe5b90600052602060002090600502016001018481548110610f1b57fe5b906000526020600020015414611007576000600260008981526020019081526020016000208781548110610f4b57fe5b906000526020600020906005020160040160006101000a81548160ff021916908315150217905550600460009054906101000a900473ffffffffffffffffffffffffffffffffffffffff1673ffffffffffffffffffffffffffffffffffffffff16633d82e3c182336040518363ffffffff1660e01b8152600401610fd092919061414c565b600060405180830381600087803b158015610fea57600080fd5b505af1158015610ffe573d6000803e3d6000fd5b50505050611042565b6040517f08c379a00000000000000000000000000000000000000000000000000000000081526004016110399061406f565b60405180910390fd5b50505050505050565b600660009054906101000a900473ffffffffffffffffffffffffffffffffffffffff1681565b82600560009054906101000a900473ffffffffffffffffffffffffffffffffffffffff1673ffffffffffffffffffffffffffffffffffffffff1663757991a86040518163ffffffff1660e01b815260040160206040518083038186803b1580156110da57600080fd5b505afa1580156110ee573d6000803e3d6000fd5b505050506040513d601f19601f8201168201806040525061111291908101906134ad565b8114611153576040517f08c379a000000000000000000000000000000000000000000000000000000000815260040161114a9061400f565b60405180910390fd5b73__Constants_____________________________63f240f7c36040518163ffffffff1660e01b815260040160206040518083038186803b15801561119757600080fd5b505af41580156111ab573d6000803e3d6000fd5b505050506040513d601f19601f820116820180604052506111cf919081019061367f565b60ff16600560009054906101000a900473ffffffffffffffffffffffffffffffffffffffff1673ffffffffffffffffffffffffffffffffffffffff16631865c57d6040518163ffffffff1660e01b815260040160206040518083038186803b15801561123a57600080fd5b505afa15801561124e573d6000803e3d6000fd5b505050506040513d601f19601f8201168201806040525061127291908101906134ad565b81146112b3576040517f08c379a00000000000000000000000000000000000000000000000000000000081526004016112aa906140cf565b60405180910390fd5b60006113756002600660009054906101000a900473ffffffffffffffffffffffffffffffffffffffff1673ffffffffffffffffffffffffffffffffffffffff1663a6a145d989896040518363ffffffff1660e01b8152600401611317929190614175565b60206040518083038186803b15801561132f57600080fd5b505afa158015611343573d6000803e3d6000fd5b505050506040513d601f19601f8201168201806040525061136791908101906134ad565b6129c990919063ffffffff16565b905060006001600088815260200190815260200160002060003373ffffffffffffffffffffffffffffffffffffffff1673ffffffffffffffffffffffffffffffffffffffff16815260200190815260200160002060000154905060006001600089815260200190815260200160002060003373ffffffffffffffffffffffffffffffffffffffff1673ffffffffffffffffffffffffffffffffffffffff1681526020019081526020016000206002015490506000600160008a815260200190815260200160002060003373ffffffffffffffffffffffffffffffffffffffff1673ffffffffffffffffffffffffffffffffffffffff1681526020019081526020016000206000015414156114e05786600160008a815260200190815260200160002060003373ffffffffffffffffffffffffffffffffffffffff1673ffffffffffffffffffffffffffffffffffffffff16815260200190815260200160002060030181905550611576565b86600160008a815260200190815260200160002060003373ffffffffffffffffffffffffffffffffffffffff1673ffffffffffffffffffffffffffffffffffffffff1681526020019081526020016000206003015414611575576040517f08c379a000000000000000000000000000000000000000000000000000000000815260040161156c9061404f565b60405180910390fd5b5b60008090505b86518110156117b5578187828151811061159257fe5b6020026020010151116115da576040517f08c379a00000000000000000000000000000000000000000000000000000000081526004016115d190613f2f565b60405180910390fd5b8681815181106115e657fe5b602002602001015191506116c4600660009054906101000a900473ffffffffffffffffffffffffffffffffffffffff1673ffffffffffffffffffffffffffffffffffffffff16639c66556f8b8b8b868151811061163f57fe5b60200260200101516040518463ffffffff1660e01b815260040161166593929190614236565b60206040518083038186803b15801561167d57600080fd5b505afa158015611691573d6000803e3d6000fd5b505050506040513d601f19601f820116820180604052506116b591908101906134ad565b846127e590919063ffffffff16565b92506000600160008b815260200190815260200160002060003373ffffffffffffffffffffffffffffffffffffffff1673ffffffffffffffffffffffffffffffffffffffff1681526020019081526020016000206001015414801561172857508383115b156117995786818151811061173957fe5b6020026020010151600160008b815260200190815260200160002060003373ffffffffffffffffffffffffffffffffffffffff1673ffffffffffffffffffffffffffffffffffffffff168152602001908152602001600020600101819055505b6127105a10156117a8576117b5565b808060010191505061157c565b5080600160008a815260200190815260200160002060003373ffffffffffffffffffffffffffffffffffffffff1673ffffffffffffffffffffffffffffffffffffffff1681526020019081526020016000206002018190555081600160008a815260200190815260200160002060003373ffffffffffffffffffffffffffffffffffffffff1673ffffffffffffffffffffffffffffffffffffffff168152602001908152602001600020600001819055505050505050505050565b80600560009054906101000a900473ffffffffffffffffffffffffffffffffffffffff1673ffffffffffffffffffffffffffffffffffffffff1663757991a86040518163ffffffff1660e01b815260040160206040518083038186803b1580156118d957600080fd5b505afa1580156118ed573d6000803e3d6000fd5b505050506040513d601f19601f8201168201806040525061191191908101906134ad565b8114611952576040517f08c379a00000000000000000000000000000000000000000000000000000000081526004016119499061400f565b60405180910390fd5b73__Constants_____________________________63f240f7c36040518163ffffffff1660e01b815260040160206040518083038186803b15801561199657600080fd5b505af41580156119aa573d6000803e3d6000fd5b505050506040513d601f19601f820116820180604052506119ce919081019061367f565b60ff16600560009054906101000a900473ffffffffffffffffffffffffffffffffffffffff1673ffffffffffffffffffffffffffffffffffffffff16631865c57d6040518163ffffffff1660e01b815260040160206040518083038186803b158015611a3957600080fd5b505afa158015611a4d573d6000803e3d6000fd5b505050506040513d601f19601f82011682018060405250611a7191908101906134ad565b8114611ab2576040517f08c379a0000000000000000000000000000000000000000000000000000000008152600401611aa9906140cf565b60405180910390fd5b604051806080016040528060008152602001600081526020016000815260200160008152506001600085815260200190815260200160002060003373ffffffffffffffffffffffffffffffffffffffff1673ffffffffffffffffffffffffffffffffffffffff16815260200190815260200160002060008201518160000155602082015181600101556040820151816002015560608201518160030155905050505050565b600460009054906101000a900473ffffffffffffffffffffffffffffffffffffffff1681565b83600560009054906101000a900473ffffffffffffffffffffffffffffffffffffffff1673ffffffffffffffffffffffffffffffffffffffff1663757991a86040518163ffffffff1660e01b815260040160206040518083038186803b158015611be657600080fd5b505afa158015611bfa573d6000803e3d6000fd5b505050506040513d601f19601f82011682018060405250611c1e91908101906134ad565b8114611c5f576040517f08c379a0000000000000000000000000000000000000000000000000000000008152600401611c569061400f565b60405180910390fd5b73__Constants_____________________________63c198f8ba6040518163ffffffff1660e01b815260040160206040518083038186803b158015611ca357600080fd5b505af4158015611cb7573d6000803e3d6000fd5b505050506040513d601f19601f82011682018060405250611cdb919081019061367f565b60ff16600560009054906101000a900473ffffffffffffffffffffffffffffffffffffffff1673ffffffffffffffffffffffffffffffffffffffff16631865c57d6040518163ffffffff1660e01b815260040160206040518083038186803b158015611d4657600080fd5b505afa158015611d5a573d6000803e3d6000fd5b505050506040513d601f19601f82011682018060405250611d7e91908101906134ad565b8114611dbf576040517f08c379a0000000000000000000000000000000000000000000000000000000008152600401611db6906140cf565b60405180910390fd5b6000600460009054906101000a900473ffffffffffffffffffffffffffffffffffffffff1673ffffffffffffffffffffffffffffffffffffffff16636022a485336040518263ffffffff1660e01b8152600401611e1c9190613e06565b60206040518083038186803b158015611e3457600080fd5b505afa158015611e48573d6000803e3d6000fd5b505050506040513d601f19601f82011682018060405250611e6c91908101906134ad565b9050611e798585836105c1565b611eb8576040517f08c379a0000000000000000000000000000000000000000000000000000000008152600401611eaf90613f6f565b60405180910390fd5b73__Constants_____________________________63375b3c0a6040518163ffffffff1660e01b815260040160206040518083038186803b158015611efc57600080fd5b505af4158015611f10573d6000803e3d6000fd5b505050506040513d601f19601f82011682018060405250611f3491908101906134ad565b600460009054906101000a900473ffffffffffffffffffffffffffffffffffffffff1673ffffffffffffffffffffffffffffffffffffffff1663e3c998fe836040518263ffffffff1660e01b8152600401611f8f9190614131565b60e06040518083038186803b158015611fa757600080fd5b505afa158015611fbb573d6000803e3d6000fd5b505050506040513d601f19601f82011682018060405250611fdf919081019061345b565b602001511015612024576040517f08c379a000000000000000000000000000000000000000000000000000000000815260040161201b9061408f565b60405180910390fd5b6000612107886040518060a001604052808581526020018a8152602001898152602001600460009054906101000a900473ffffffffffffffffffffffffffffffffffffffff1673ffffffffffffffffffffffffffffffffffffffff1663e3c998fe8a6040518263ffffffff1660e01b81526004016120a29190614131565b60e06040518083038186803b1580156120ba57600080fd5b505afa1580156120ce573d6000803e3d6000fd5b505050506040513d601f19601f820116820180604052506120f2919081019061345b565b60200151815260200160011515815250612a25565b90507f43d4b4706539f9e22baf8767ebea21ad24f723f14b6981664ac4d0af596dddbe816040516121389190614131565b60405180910390a17ffb750a2a8aed92f932bb76b78077f486a1d583d286b29c3afb9ae793a69c63aa888389898960405161217795949392919061419e565b60405180910390a15050505050505050565b6001602052816000526040600020602052806000526040600020600091509150508060000154908060010154908060020154908060030154905084565b600260205281600052604060002081815481106121df57fe5b9060005260206000209060050201600091509150508060000154908060020154908060030154908060040160009054906101000a900460ff16905084565b612226336109b8565b612265576040517f08c379a000000000000000000000000000000000000000000000000000000000815260040161225c906140ef565b60405180910390fd5b6000600560009054906101000a900473ffffffffffffffffffffffffffffffffffffffff1673ffffffffffffffffffffffffffffffffffffffff1663757991a86040518163ffffffff1660e01b815260040160206040518083038186803b1580156122cf57600080fd5b505afa1580156122e3573d6000803e3d6000fd5b505050506040513d601f19601f8201168201806040525061230791908101906134ad565b90506000600360006001840381526020019081526020016000206000015414801561234b575060006002600060018403815260200190815260200160002080549050115b156125bf5760008090505b60026000600184038152602001908152602001600020805490508160ff1610156125bd57600260006001840381526020019081526020016000208160ff168154811061239e57fe5b906000526020600020906005020160040160009054906101000a900460ff16156125b057600260006001840381526020019081526020016000208160ff16815481106123e657fe5b90600052602060002090600502016003600060018503815260200190815260200160002060008201548160000155600182018160010190805461242a929190613139565b5060028201548160020155600382015481600301556004820160009054906101000a900460ff168160040160006101000a81548160ff0219169083151502179055509050506000600260006001850381526020019081526020016000208260ff168154811061249557fe5b90600052602060002090600502016000015490507f34362c5a7d52d93980abc9694aada3ebfb6831639e62c68549287dd52c4f789f6001840382600260006001880381526020019081526020016000208560ff16815481106124f357fe5b9060005260206000209060050201600101604051612513939291906141f8565b60405180910390a1600460009054906101000a900473ffffffffffffffffffffffffffffffffffffffff1673ffffffffffffffffffffffffffffffffffffffff16636aa46ccd826040518263ffffffff1660e01b81526004016125769190614131565b600060405180830381600087803b15801561259057600080fd5b505af11580156125a4573d6000803e3d6000fd5b505050505050506125c1565b8080600101915050612356565b505b505b565b6125cb613108565b6002600084815260200190815260200160002082815481106125e957fe5b90600052602060002090600502016040518060a0016040529081600082015481526020016001820180548060200260200160405190810160405280929190818152602001828054801561265b57602002820191906000526020600020905b815481526020019060010190808311612647575b5050505050815260200160028201548152602001600382015481526020016004820160009054906101000a900460ff161515151581525050905080905092915050565b60606002600084815260200190815260200160002082815481106126be57fe5b906000526020600020906005020160010180548060200260200160405190810160405280929190818152602001828054801561271957602002820191906000526020600020905b815481526020019060010190808311612705575b5050505050905080905092915050565b612732336109b8565b612771576040517f08c379a0000000000000000000000000000000000000000000000000000000008152600401612768906140ef565b60405180910390fd5b61277a81612f05565b50565b61278633612f5f565b565b600060026000838152602001908152602001600020805490509050919050565b60036020528060005260406000206000915090508060000154908060020154908060030154908060040160009054906101000a900460ff16905084565b600080828401905083811015612830576040517f08c379a000000000000000000000000000000000000000000000000000000000815260040161282790613f4f565b60405180910390fd5b8091505092915050565b60008082141561287f576040517f08c379a000000000000000000000000000000000000000000000000000000000815260040161287690613faf565b60405180910390fd5b81838161288857fe5b06905092915050565b6000808314156128a457600090506128fb565b60008284029050828482816128b557fe5b04146128f6576040517f08c379a00000000000000000000000000000000000000000000000000000000081526004016128ed90613fef565b60405180910390fd5b809150505b92915050565b60008073ffffffffffffffffffffffffffffffffffffffff168273ffffffffffffffffffffffffffffffffffffffff161415612972576040517f08c379a00000000000000000000000000000000000000000000000000000000081526004016129699061402f565b60405180910390fd5b8260000160008373ffffffffffffffffffffffffffffffffffffffff1673ffffffffffffffffffffffffffffffffffffffff16815260200190815260200160002060009054906101000a900460ff16905092915050565b6000808211612a0d576040517f08c379a0000000000000000000000000000000000000000000000000000000008152600401612a0490613f8f565b60405180910390fd5b6000828481612a1857fe5b0490508091505092915050565b60008060026000858152602001908152602001600020805490501415612aeb57600260008481526020019081526020016000208290806001815401808255809150509060018203906000526020600020906005020160009091929091909150600082015181600001556020820151816001019080519060200190612aaa92919061318b565b50604082015181600201556060820151816003015560808201518160040160006101000a81548160ff02191690831515021790555050505060009050612eff565b60006002600085815260200190815260200160002080549050905060008090505b6002600086815260200190815260200160002080549050811015612bbd578360600151600260008781526020019081526020016000208281548110612b4d57fe5b9060005260206000209060050201600301541015612b6d57809150612bbd565b8360400151600260008781526020019081526020016000208281548110612b9057fe5b9060005260206000209060050201600201541115612bb057809150612bbd565b8080600101915050612b0c565b50600260008581526020019081526020016000208390806001815401808255809150509060018203906000526020600020906005020160009091929091909150600082015181600001556020820151816001019080519060200190612c2392919061318b565b50604082015181600201556060820151816003015560808201518160040160006101000a81548160ff0219169083151502179055505050506000600160026000878152602001908152602001600020805490500390505b81811115612d5057600260008681526020019081526020016000206001820381548110612ca357fe5b9060005260206000209060050201600260008781526020019081526020016000208281548110612ccf57fe5b9060005260206000209060050201600082015481600001556001820181600101908054612cfd929190613139565b5060028201548160020155600382015481600301556004820160009054906101000a900460ff168160040160006101000a81548160ff021916908315150217905550905050808060019003915050612c7a565b5082600260008681526020019081526020016000208281548110612d7057fe5b9060005260206000209060050201600082015181600001556020820151816001019080519060200190612da492919061318b565b50604082015181600201556060820151816003015560808201518160040160006101000a81548160ff02191690831515021790555090505073__Constants_____________________________63379597e06040518163ffffffff1660e01b815260040160206040518083038186803b158015612e2057600080fd5b505af4158015612e34573d6000803e3d6000fd5b505050506040513d601f19601f82011682018060405250612e5891908101906134ad565b60026000868152602001908152602001600020805490501115612efa5760026000858152602001908152602001600020600160026000878152602001908152602001600020805490500381548110612eac57fe5b9060005260206000209060050201600080820160009055600182016000612ed391906131d8565b600282016000905560038201600090556004820160006101000a81549060ff021916905550505b809150505b92915050565b612f19816000612fb990919063ffffffff16565b8073ffffffffffffffffffffffffffffffffffffffff167f6ff3aa2ea7b53070f6d9d07a445d338d89e8edef44250ffa8be19f53910d4a2e60405160405180910390a250565b612f7381600061306190919063ffffffff16565b8073ffffffffffffffffffffffffffffffffffffffff167f86e5bbceda94081c32220d685f37cc4e3ea7bb0be2dfbf0cb703579505a5390e60405160405180910390a250565b612fc38282612901565b15613003576040517f08c379a0000000000000000000000000000000000000000000000000000000008152600401612ffa90613f0f565b60405180910390fd5b60018260000160008373ffffffffffffffffffffffffffffffffffffffff1673ffffffffffffffffffffffffffffffffffffffff16815260200190815260200160002060006101000a81548160ff0219169083151502179055505050565b61306b8282612901565b6130aa576040517f08c379a00000000000000000000000000000000000000000000000000000000081526004016130a190613fcf565b60405180910390fd5b60008260000160008373ffffffffffffffffffffffffffffffffffffffff1673ffffffffffffffffffffffffffffffffffffffff16815260200190815260200160002060006101000a81548160ff0219169083151502179055505050565b6040518060a00160405280600081526020016060815260200160008152602001600081526020016000151581525090565b82805482825590600052602060002090810192821561317a5760005260206000209182015b8281111561317957825482559160010191906001019061315e565b5b50905061318791906131f9565b5090565b8280548282559060005260206000209081019282156131c7579160200282015b828111156131c65782518255916020019190600101906131ab565b5b5090506131d491906131f9565b5090565b50805460008255906000526020600020908101906131f691906131f9565b50565b61321b91905b808211156132175760008160009055506001016131ff565b5090565b90565b60008135905061322d81614553565b92915050565b600082601f83011261324457600080fd5b813561325761325282614324565b6142f7565b9150818183526020840193506020810190508385602084028201111561327c57600080fd5b60005b838110156132ac5781613292888261337b565b84526020840193506020830192505060018101905061327f565b5050505092915050565b6000815190506132c58161456a565b92915050565b600060e082840312156132dd57600080fd5b6132e760e06142f7565b905060006132f784828501613390565b600083015250602061330b84828501613390565b602083015250604061331f84828501613390565b604083015250606061333384828501613390565b606083015250608061334784828501613390565b60808301525060a061335b84828501613390565b60a08301525060c061336f84828501613390565b60c08301525092915050565b60008135905061338a81614581565b92915050565b60008151905061339f81614581565b92915050565b6000815190506133b481614598565b92915050565b6000602082840312156133cc57600080fd5b60006133da8482850161321e565b91505092915050565b6000806000606084860312156133f857600080fd5b60006134068682870161321e565b93505060206134178682870161321e565b92505060406134288682870161321e565b9150509250925092565b60006020828403121561344457600080fd5b6000613452848285016132b6565b91505092915050565b600060e0828403121561346d57600080fd5b600061347b848285016132cb565b91505092915050565b60006020828403121561349657600080fd5b60006134a48482850161337b565b91505092915050565b6000602082840312156134bf57600080fd5b60006134cd84828501613390565b91505092915050565b600080604083850312156134e957600080fd5b60006134f78582860161337b565b92505060206135088582860161321e565b9150509250929050565b6000806000806080858703121561352857600080fd5b60006135368782880161337b565b945050602085013567ffffffffffffffff81111561355357600080fd5b61355f87828801613233565b93505060406135708782880161337b565b92505060606135818782880161337b565b91505092959194509250565b600080604083850312156135a057600080fd5b60006135ae8582860161337b565b92505060206135bf8582860161337b565b9150509250929050565b6000806000606084860312156135de57600080fd5b60006135ec8682870161337b565b93505060206135fd8682870161337b565b925050604084013567ffffffffffffffff81111561361a57600080fd5b61362686828701613233565b9150509250925092565b60008060006060848603121561364557600080fd5b60006136538682870161337b565b93505060206136648682870161337b565b92505060406136758682870161337b565b9150509250925092565b60006020828403121561369157600080fd5b600061369f848285016133a5565b91505092915050565b60006136b48383613dd9565b60208301905092915050565b6136c981614465565b82525050565b60006136da8261438c565b6136e481856143da565b93506136ef8361435c565b8060005b8381101561372057815161370788826136a8565b9750613712836143af565b9250506001810190506136f3565b5085935050505092915050565b600061373882614381565b61374281856143c9565b935061374d8361434c565b8060005b8381101561377e57815161376588826136a8565b9750613770836143a2565b925050600181019050613751565b5085935050505092915050565b600061379682614397565b6137a081856143da565b93506137ab8361436c565b8060005b838110156137e3576137c082614533565b6137ca88826136a8565b97506137d5836143bc565b9250506001810190506137af565b5085935050505092915050565b6137f981614418565b82525050565b61380881614418565b82525050565b61381781614424565b82525050565b61382681614477565b82525050565b6138358161449b565b82525050565b613844816144bf565b82525050565b613853816144e3565b82525050565b6000613866601f836143eb565b91507f526f6c65733a206163636f756e7420616c72656164792068617320726f6c65006000830152602082019050919050565b60006138a66029836143eb565b91507f736f727465645b695d206973206e6f742067726561746572207468616e206c6160008301527f73745669736974656400000000000000000000000000000000000000000000006020830152604082019050919050565b600061390c601b836143eb565b91507f536166654d6174683a206164646974696f6e206f766572666c6f7700000000006000830152602082019050919050565b600061394c600b836143eb565b91507f6e6f7420656c65637465640000000000000000000000000000000000000000006000830152602082019050919050565b600061398c601a836143eb565b91507f536166654d6174683a206469766973696f6e206279207a65726f0000000000006000830152602082019050919050565b60006139cc6018836143eb565b91507f536166654d6174683a206d6f64756c6f206279207a65726f00000000000000006000830152602082019050919050565b6000613a0c6021836143eb565b91507f526f6c65733a206163636f756e7420646f6573206e6f74206861766520726f6c60008301527f65000000000000000000000000000000000000000000000000000000000000006020830152604082019050919050565b6000613a726021836143eb565b91507f536166654d6174683a206d756c7469706c69636174696f6e206f766572666c6f60008301527f77000000000000000000000000000000000000000000000000000000000000006020830152604082019050919050565b6000613ad8600f836143eb565b91507f696e636f72726563742065706f636800000000000000000000000000000000006000830152602082019050919050565b6000613b186022836143eb565b91507f526f6c65733a206163636f756e7420697320746865207a65726f20616464726560008301527f73730000000000000000000000000000000000000000000000000000000000006020830152604082019050919050565b6000613b7e6014836143eb565b91507f41737365744964206e6f74206d61746368696e670000000000000000000000006000830152602082019050919050565b6000613bbe6037836143eb565b91507f50726f706f73656420416c7465726e61746520626c6f636b206973206964656e60008301527f746963616c20746f2070726f706f73656420626c6f636b0000000000000000006020830152604082019050919050565b6000613c246019836143eb565b91507f7374616b652062656c6f77206d696e696d756d207374616b65000000000000006000830152602082019050919050565b6000613c646021836143eb565b91507f546f74616c207374616b652072657665616c656420646f65736e74206d61746360008301527f68000000000000000000000000000000000000000000000000000000000000006020830152604082019050919050565b6000613cca600f836143eb565b91507f696e636f727265637420737461746500000000000000000000000000000000006000830152602082019050919050565b6000613d0a6030836143eb565b91507f577269746572526f6c653a2063616c6c657220646f6573206e6f74206861766560008301527f207468652057726974657220726f6c65000000000000000000000000000000006020830152604082019050919050565b600060a083016000830151613d7b6000860182613dd9565b5060208301518482036020860152613d93828261372d565b9150506040830151613da86040860182613dd9565b506060830151613dbb6060860182613dd9565b506080830151613dce60808601826137f0565b508091505092915050565b613de28161444e565b82525050565b613df18161444e565b82525050565b613e008161444e565b82525050565b6000602082019050613e1b60008301846136c0565b92915050565b60006020820190508181036000830152613e3b81846136cf565b905092915050565b6000602082019050613e5860008301846137ff565b92915050565b6000602082019050613e73600083018461381d565b92915050565b6000602082019050613e8e600083018461382c565b92915050565b6000602082019050613ea9600083018461383b565b92915050565b6000604082019050613ec4600083018561384a565b613ed1602083018461380e565b9392505050565b6000606082019050613eed600083018661384a565b613efa6020830185613df7565b613f07604083018461380e565b949350505050565b60006020820190508181036000830152613f2881613859565b9050919050565b60006020820190508181036000830152613f4881613899565b9050919050565b60006020820190508181036000830152613f68816138ff565b9050919050565b60006020820190508181036000830152613f888161393f565b9050919050565b60006020820190508181036000830152613fa88161397f565b9050919050565b60006020820190508181036000830152613fc8816139bf565b9050919050565b60006020820190508181036000830152613fe8816139ff565b9050919050565b6000602082019050818103600083015261400881613a65565b9050919050565b6000602082019050818103600083015261402881613acb565b9050919050565b6000602082019050818103600083015261404881613b0b565b9050919050565b6000602082019050818103600083015261406881613b71565b9050919050565b6000602082019050818103600083015261408881613bb1565b9050919050565b600060208201905081810360008301526140a881613c17565b9050919050565b600060208201905081810360008301526140c881613c57565b9050919050565b600060208201905081810360008301526140e881613cbd565b9050919050565b6000602082019050818103600083015261410881613cfd565b9050919050565b600060208201905081810360008301526141298184613d63565b905092915050565b60006020820190506141466000830184613de8565b92915050565b60006040820190506141616000830185613de8565b61416e60208301846136c0565b9392505050565b600060408201905061418a6000830185613de8565b6141976020830184613de8565b9392505050565b600060a0820190506141b36000830188613de8565b6141c06020830187613de8565b81810360408301526141d281866136cf565b90506141e16060830185613de8565b6141ee6080830184613de8565b9695505050505050565b600060608201905061420d6000830186613de8565b61421a6020830185613de8565b818103604083015261422c818461378b565b9050949350505050565b600060608201905061424b6000830186613de8565b6142586020830185613de8565b6142656040830184613de8565b949350505050565b60006080820190506142826000830187613de8565b61428f6020830186613de8565b61429c6040830185613de8565b6142a960608301846137ff565b95945050505050565b60006080820190506142c76000830187613de8565b6142d46020830186613de8565b6142e16040830185613de8565b6142ee6060830184613de8565b95945050505050565b6000604051905081810181811067ffffffffffffffff8211171561431a57600080fd5b8060405250919050565b600067ffffffffffffffff82111561433b57600080fd5b602082029050602081019050919050565b6000819050602082019050919050565b6000819050602082019050919050565b60008190508160005260206000209050919050565b600081519050919050565b600081519050919050565b600081549050919050565b6000602082019050919050565b6000602082019050919050565b6000600182019050919050565b600082825260208201905092915050565b600082825260208201905092915050565b600082825260208201905092915050565b6000819050919050565b60006144118261442e565b9050919050565b60008115159050919050565b6000819050919050565b600073ffffffffffffffffffffffffffffffffffffffff82169050919050565b6000819050919050565b600060ff82169050919050565b6000614470826144f5565b9050919050565b600061448282614489565b9050919050565b60006144948261442e565b9050919050565b60006144a6826144ad565b9050919050565b60006144b88261442e565b9050919050565b60006144ca826144d1565b9050919050565b60006144dc8261442e565b9050919050565b60006144ee82614458565b9050919050565b600061450082614507565b9050919050565b60006145128261442e565b9050919050565b600061452c61452783614546565b6143fc565b9050919050565b600061453f8254614519565b9050919050565b60008160001c9050919050565b61455c81614406565b811461456757600080fd5b50565b61457381614424565b811461457e57600080fd5b50565b61458a8161444e565b811461459557600080fd5b50565b6145a181614458565b81146145ac57600080fd5b5056fea365627a7a723058208009ac61960ded2c560ce150629a91c79a42ca3c2d4bb5f1330ac2a3d1f35b196c6578706572696d656e74616cf564736f6c634300050a0040",
  "source": "pragma solidity 0.5.10;\npragma experimental ABIEncoderV2;\nimport \"../lib/Random.sol\";\n// import \"../SimpleToken.sol\";\nimport \"./Utils.sol\";\nimport \"./BlockStorage.sol\";\nimport \"./IStakeManager.sol\";\nimport \"./IStateManager.sol\";\nimport \"./IVoteManager.sol\";\nimport \"openzeppelin-solidity/contracts/math/SafeMath.sol\";\nimport \"./WriterRole.sol\";\n\n\ncontract BlockManager is Utils, WriterRole, BlockStorage {\n    using SafeMath for uint256;\n\n    IStakeManager public stakeManager;\n    IStateManager public stateManager;\n    IVoteManager public voteManager;\n\n    modifier checkEpoch (uint256 epoch) {\n        require(epoch == stateManager.getEpoch(), \"incorrect epoch\");\n        _;\n    }\n\n    modifier checkState (uint256 state) {\n        require(state == stateManager.getState(), \"incorrect state\");\n        _;\n    }\n\n    function getBlock(uint256 epoch) external view returns(Structs.Block memory _block) {\n        return(blocks[epoch]);\n    }\n\n    function getBlockMedians(uint256 epoch) external view returns(uint256[] memory _blockMedians) {\n        _blockMedians = blocks[epoch].medians;\n        return(_blockMedians);\n    }\n\n    function getProposedBlock(uint256 epoch, uint256 proposedBlock)\n    external view returns(Structs.Block memory _block) {\n        _block = proposedBlocks[epoch][proposedBlock];\n        return(_block);\n    }\n\n    function getProposedBlockMedians(uint256 epoch, uint256 proposedBlock)\n    external view returns(uint256[] memory _blockMedians) {\n        _blockMedians = proposedBlocks[epoch][proposedBlock].medians;\n        return(_blockMedians);\n    }\n\n    function getNumProposedBlocks(uint256 epoch)\n    external view returns(uint256) {\n        return(proposedBlocks[epoch].length);\n    }\n\n    //disable after init.\n    function init(address _stakeManagerAddress, address _stateManagerAddress, address _voteManagerAddress) public {\n        stakeManager = IStakeManager(_stakeManagerAddress);\n        stateManager = IStateManager(_stateManagerAddress);\n        voteManager = IVoteManager(_voteManagerAddress);\n    }\n\n    event Proposed(uint256 epoch,\n                    uint256 stakerId,\n                    uint256[] medians,\n                    uint256 iteration,\n                    uint256 biggestStakerId);\n\n    // elected proposer proposes block. we use a probabilistic method to elect stakers weighted by stake\n    // protocol works like this. select a staker pseudorandomly (not weighted by anything)\n    // (todo what if it is below min stake)\n    // that staker then tosses a biased coin. bias = hisStake/biggestStake. if its heads, he can propose block\n    // end of iteration. try next iteration\n    // note that only one staker or no stakers selected in each iteration.\n    // stakers elected in higher iterations can also propose hoping that\n    // stakers with lower iteration do not propose for some reason\n    function propose (uint256 epoch,\n                    uint256[] memory medians,\n                    uint256 iteration,\n                    uint256 biggestStakerId) public checkEpoch(epoch) checkState(Constants.propose()) {\n        uint256 proposerId = stakeManager.getStakerId(msg.sender);\n        // SimpleToken sch = SimpleToken(schAddress);\n        require(isElectedProposer(iteration, biggestStakerId, proposerId), \"not elected\");\n        require(stakeManager.getStaker(proposerId).stake >= Constants.minStake(), \"stake below minimum stake\");\n\n        // check if someone already proposed\n        // if (blocks[epoch].proposerId != 0) {\n        //     if (blocks[epoch].proposerId == proposerId) {\n        //         revert(\"Already Proposed\");\n        //     }\n        //     // if (stakers[biggestStakerId].stake == blocks[epoch].biggestStake &&\n        //     //     proposedBlocks[epoch].length >= Constants.maxAltBlocks()) {\n        //     //\n        //     //     require(proposedBlocks[epoch][4].iteration > iteration,\n        //     //             \"iteration not smaller than last elected staker\");\n        //     // } else\n        //     if (stakers[biggestStakerId].stake < blocks[epoch].biggestStake) {\n        //         revert(\"biggest stakers stake not bigger than as proposed by existing elected staker \");\n        //     }\n        // }\n        // blocks[epoch]\n        uint256 pushAt = _insertAppropriately(epoch, Structs.Block(proposerId,\n                                        medians,\n                                        iteration,\n                                        stakeManager.getStaker(biggestStakerId).stake,\n                                        true));\n        emit DebugUint256(pushAt);\n        // mint and give block reward\n        // if (Constants.blockReward() > 0) {\n        //     stakers[proposerId].stake = stakers[proposerId].stake.add(Constants.blockReward());\n        //     totalStake = totalStake.add(Constants.blockReward());\n        //     require(sch.mint(address(this), Constants.blockReward()));\n        // }\n        emit Proposed(epoch, proposerId, medians, iteration, biggestStakerId);\n    }\n\n    //anyone can give sorted votes in batches in dispute state\n    function giveSorted (uint256 epoch, uint256 assetId, uint256[] memory sorted) public\n    checkEpoch(epoch) checkState(Constants.dispute()) {\n        uint256 medianWeight = voteManager.getTotalStakeRevealed(epoch, assetId).div(2);\n        //accWeight = accumulatedWeight\n        uint256 accWeight = disputes[epoch][msg.sender].accWeight;\n        uint256 lastVisited = disputes[epoch][msg.sender].lastVisited;\n        if (disputes[epoch][msg.sender].accWeight == 0) {\n            disputes[epoch][msg.sender].assetId = assetId;\n        } else {\n            require(disputes[epoch][msg.sender].assetId == assetId, \"AssetId not matching\");\n        }\n        for (uint256 i = 0; i < sorted.length; i++) {\n            require(sorted[i] > lastVisited, \"sorted[i] is not greater than lastVisited\");\n            lastVisited = sorted[i];\n            accWeight = accWeight.add(voteManager.getVoteWeight(epoch, assetId, sorted[i]));\n            //set  median, if conditions meet\n            if (disputes[epoch][msg.sender].median == 0 && accWeight > medianWeight) {\n                disputes[epoch][msg.sender].median = sorted[i];\n            }\n            //TODO verify how much gas required for below operations and update this value\n            if (gasleft() < 10000) break;\n        }\n        disputes[epoch][msg.sender].lastVisited = lastVisited;\n        disputes[epoch][msg.sender].accWeight = accWeight;\n    }\n\n    // //todo test\n    // //if any mistake made during giveSorted, resetDispute and start again\n    function resetDispute (uint256 epoch) public checkEpoch(epoch) checkState(Constants.dispute()) {\n        disputes[epoch][msg.sender] = Structs.Dispute(0, 0, 0, 0);\n    }\n\n    function finalizeDispute (uint256 epoch, uint256 blockId)\n    public checkEpoch(epoch) checkState(Constants.dispute()) {\n        uint256 assetId = disputes[epoch][msg.sender].assetId;\n        require(disputes[epoch][msg.sender].accWeight == voteManager.getTotalStakeRevealed(epoch, assetId),\n        \"Total stake revealed doesnt match\");\n        uint256 median = disputes[epoch][msg.sender].median;\n        uint256 proposerId = proposedBlocks[epoch][blockId].proposerId;\n        //\n        require(median > 0);\n        if (proposedBlocks[epoch][blockId].medians[assetId] != median) {\n            proposedBlocks[epoch][blockId].valid = false;\n            stakeManager.slash(proposerId, msg.sender);\n        } else {\n            revert(\"Proposed Alternate block is identical to proposed block\");\n        }\n    }\n\n    function isElectedProposer(uint256 iteration, uint256 biggestStakerId, uint256 stakerId) public view returns(bool) {\n       // rand = 0 -> totalStake-1\n       //add +1 since prng returns 0 to max-1 and staker start from 1\n        if ((Random.prng(10, stakeManager.getNumStakers(), keccak256(abi.encode(iteration))).add(1))\n        != stakerId) {return(false);}\n        bytes32 randHash = Random.prngHash(10, keccak256(abi.encode(stakerId, iteration)));\n        uint256 rand = uint256(randHash).mod(2**32);\n        uint256 biggestStake = stakeManager.getStaker(biggestStakerId).stake;\n        if (rand.mul(biggestStake) > stakeManager.getStaker(stakerId).stake.mul(2**32)) return(false);\n        return(true);\n    }\n\n    event BlockConfirmed(uint256 epoch,\n                    uint256 stakerId,\n                    uint256[] medians);\n\n    function confirmBlock() public onlyWriter {\n        uint256 epoch = stateManager.getEpoch();\n        if (blocks[epoch - 1].proposerId == 0 && proposedBlocks[epoch - 1].length > 0) {\n            for (uint8 i=0; i < proposedBlocks[epoch - 1].length; i++) {\n                if (proposedBlocks[epoch - 1][i].valid) {\n                    blocks[epoch - 1] = proposedBlocks[epoch - 1][i];\n                    uint256 proposerId = proposedBlocks[epoch - 1][i].proposerId;\n                    emit BlockConfirmed(epoch-1, proposerId, proposedBlocks[epoch - 1][i].medians);\n                    stakeManager.giveBlockReward(proposerId);\n                    return;\n                }\n            }\n        }\n    }\n\n    function _insertAppropriately(uint256 epoch, Structs.Block memory _block) internal returns(uint256) {\n       // uint256 iteration = _block.iteration;\n        if (proposedBlocks[epoch].length == 0) {\n            proposedBlocks[epoch].push(_block);\n            return(0);\n        }\n       // Structs.Block[] memory temp = proposedBlocks[epoch];\n       // delete (proposedBlocks[epoch]);\n       // bool pushed = false;\n       // bool empty = true;\n        uint256 pushAt = proposedBlocks[epoch].length;\n        for (uint256 i = 0; i < proposedBlocks[epoch].length; i++) {\n            if (proposedBlocks[epoch][i].biggestStake < _block.biggestStake) {\n                pushAt = i;\n                break;\n            }\n            if (proposedBlocks[epoch][i].iteration > _block.iteration) {\n                pushAt = i;\n                break;\n            }\n        }\n\n        proposedBlocks[epoch].push(_block);\n        for (uint256 j = proposedBlocks[epoch].length - 1; j > (pushAt); j--) {\n            proposedBlocks[epoch][j] = proposedBlocks[epoch][j - 1];\n        }\n        // if (pushAt < proposedBlocks[epoch].length) {\n\n        proposedBlocks[epoch][pushAt] = _block;\n        // }\n        // if (pushed == false && temp.length < Constants.maxAltBlocks()) {\n        //     proposedBlocks[epoch].push(_block);\n        // }\n        if (proposedBlocks[epoch].length > Constants.maxAltBlocks()) {\n            delete (proposedBlocks[epoch][proposedBlocks[epoch].length - 1]);\n        }\n        return(pushAt);\n    }\n\n\n}\n",
  "sourcePath": "/Users/hrishi/contracts/contracts/Schelling4/BlockManager.sol",
  "compiler": {
    "name": "solc",
    "version": "0.5.10+commit.5a6ea5b1.Emscripten.clang"
  },
  "schemaVersion": "3.0.11",
  "updatedAt": "2019-08-15T06:47:07.600Z",
  "devdoc": {
    "methods": {}
  },
  "userdoc": {
    "methods": {}
  }
}