{
  "contractName": "BlockManager",
  "abi": [
    {
      "constant": true,
      "inputs": [
        {
          "name": "account",
          "type": "address"
        }
      ],
      "name": "isWriter",
      "outputs": [
        {
          "name": "",
          "type": "bool"
        }
      ],
      "payable": false,
      "stateMutability": "view",
      "type": "function"
    },
    {
      "constant": true,
      "inputs": [],
      "name": "stateManager",
      "outputs": [
        {
          "name": "",
          "type": "address"
        }
      ],
      "payable": false,
      "stateMutability": "view",
      "type": "function"
    },
    {
      "constant": true,
      "inputs": [],
      "name": "voteManager",
      "outputs": [
        {
          "name": "",
          "type": "address"
        }
      ],
      "payable": false,
      "stateMutability": "view",
      "type": "function"
    },
    {
      "constant": true,
      "inputs": [],
      "name": "stakeManager",
      "outputs": [
        {
          "name": "",
          "type": "address"
        }
      ],
      "payable": false,
      "stateMutability": "view",
      "type": "function"
    },
    {
      "constant": true,
      "inputs": [
        {
          "name": "",
          "type": "uint256"
        },
        {
          "name": "",
          "type": "address"
        }
      ],
      "name": "disputes",
      "outputs": [
        {
          "name": "accWeight",
          "type": "uint256"
        },
        {
          "name": "median",
          "type": "uint256"
        },
        {
          "name": "lastVisited",
          "type": "uint256"
        },
        {
          "name": "assetId",
          "type": "uint256"
        }
      ],
      "payable": false,
      "stateMutability": "view",
      "type": "function"
    },
    {
      "constant": true,
      "inputs": [
        {
          "name": "",
          "type": "uint256"
        },
        {
          "name": "",
          "type": "uint256"
        }
      ],
      "name": "proposedBlocks",
      "outputs": [
        {
          "name": "proposerId",
          "type": "uint256"
        },
        {
          "name": "iteration",
          "type": "uint256"
        },
        {
          "name": "biggestStake",
          "type": "uint256"
        },
        {
          "name": "valid",
          "type": "bool"
        }
      ],
      "payable": false,
      "stateMutability": "view",
      "type": "function"
    },
    {
      "constant": false,
      "inputs": [
        {
          "name": "account",
          "type": "address"
        }
      ],
      "name": "addWriter",
      "outputs": [],
      "payable": false,
      "stateMutability": "nonpayable",
      "type": "function"
    },
    {
      "constant": false,
      "inputs": [],
      "name": "renounceWriter",
      "outputs": [],
      "payable": false,
      "stateMutability": "nonpayable",
      "type": "function"
    },
    {
      "constant": true,
      "inputs": [
        {
          "name": "",
          "type": "uint256"
        }
      ],
      "name": "blocks",
      "outputs": [
        {
          "name": "proposerId",
          "type": "uint256"
        },
        {
          "name": "iteration",
          "type": "uint256"
        },
        {
          "name": "biggestStake",
          "type": "uint256"
        },
        {
          "name": "valid",
          "type": "bool"
        }
      ],
      "payable": false,
      "stateMutability": "view",
      "type": "function"
    },
    {
      "anonymous": false,
      "inputs": [
        {
          "indexed": false,
          "name": "epoch",
          "type": "uint256"
        },
        {
          "indexed": false,
          "name": "stakerId",
          "type": "uint256"
        },
        {
          "indexed": false,
          "name": "medians",
          "type": "uint256[]"
        },
        {
          "indexed": false,
          "name": "iteration",
          "type": "uint256"
        },
        {
          "indexed": false,
          "name": "biggestStakerId",
          "type": "uint256"
        }
      ],
      "name": "Proposed",
      "type": "event"
    },
    {
      "anonymous": false,
      "inputs": [
        {
          "indexed": true,
          "name": "account",
          "type": "address"
        }
      ],
      "name": "WriterAdded",
      "type": "event"
    },
    {
      "anonymous": false,
      "inputs": [
        {
          "indexed": true,
          "name": "account",
          "type": "address"
        }
      ],
      "name": "WriterRemoved",
      "type": "event"
    },
    {
      "anonymous": false,
      "inputs": [
        {
          "indexed": false,
          "name": "a",
          "type": "uint256"
        }
      ],
      "name": "DebugUint256",
      "type": "event"
    },
    {
      "constant": true,
      "inputs": [
        {
          "name": "epoch",
          "type": "uint256"
        }
      ],
      "name": "getBlock",
      "outputs": [
        {
          "components": [
            {
              "name": "proposerId",
              "type": "uint256"
            },
            {
              "name": "medians",
              "type": "uint256[]"
            },
            {
              "name": "iteration",
              "type": "uint256"
            },
            {
              "name": "biggestStake",
              "type": "uint256"
            },
            {
              "name": "valid",
              "type": "bool"
            }
          ],
          "name": "_block",
          "type": "tuple"
        }
      ],
      "payable": false,
      "stateMutability": "view",
      "type": "function"
    },
    {
      "constant": true,
      "inputs": [
        {
          "name": "epoch",
          "type": "uint256"
        }
      ],
      "name": "getBlockMedians",
      "outputs": [
        {
          "name": "_blockMedians",
          "type": "uint256[]"
        }
      ],
      "payable": false,
      "stateMutability": "view",
      "type": "function"
    },
    {
      "constant": false,
      "inputs": [
        {
          "name": "_stakeManagerAddress",
          "type": "address"
        },
        {
          "name": "_stateManagerAddress",
          "type": "address"
        },
        {
          "name": "_voteManagerAddress",
          "type": "address"
        }
      ],
      "name": "init",
      "outputs": [],
      "payable": false,
      "stateMutability": "nonpayable",
      "type": "function"
    },
    {
      "constant": false,
      "inputs": [
        {
          "name": "epoch",
          "type": "uint256"
        },
        {
          "name": "medians",
          "type": "uint256[]"
        },
        {
          "name": "iteration",
          "type": "uint256"
        },
        {
          "name": "biggestStakerId",
          "type": "uint256"
        }
      ],
      "name": "propose",
      "outputs": [],
      "payable": false,
      "stateMutability": "nonpayable",
      "type": "function"
    },
    {
      "constant": false,
      "inputs": [
        {
          "name": "epoch",
          "type": "uint256"
        },
        {
          "name": "assetId",
          "type": "uint256"
        },
        {
          "name": "sorted",
          "type": "uint256[]"
        }
      ],
      "name": "giveSorted",
      "outputs": [],
      "payable": false,
      "stateMutability": "nonpayable",
      "type": "function"
    },
    {
      "constant": false,
      "inputs": [
        {
          "name": "epoch",
          "type": "uint256"
        }
      ],
      "name": "resetDispute",
      "outputs": [],
      "payable": false,
      "stateMutability": "nonpayable",
      "type": "function"
    },
    {
      "constant": false,
      "inputs": [
        {
          "name": "epoch",
          "type": "uint256"
        },
        {
          "name": "blockId",
          "type": "uint256"
        }
      ],
      "name": "finalizeDispute",
      "outputs": [],
      "payable": false,
      "stateMutability": "nonpayable",
      "type": "function"
    },
    {
      "constant": true,
      "inputs": [
        {
          "name": "iteration",
          "type": "uint256"
        },
        {
          "name": "biggestStakerId",
          "type": "uint256"
        },
        {
          "name": "stakerId",
          "type": "uint256"
        }
      ],
      "name": "isElectedProposer",
      "outputs": [
        {
          "name": "",
          "type": "bool"
        }
      ],
      "payable": false,
      "stateMutability": "view",
      "type": "function"
    },
    {
      "constant": false,
      "inputs": [],
      "name": "confirmBlock",
      "outputs": [],
      "payable": false,
      "stateMutability": "nonpayable",
      "type": "function"
    }
  ],
  "bytecode": "0x608060405262000015336200001b60201b60201c565b620002f9565b620000368160006200007c60201b62002d101790919060201c565b8073ffffffffffffffffffffffffffffffffffffffff167f6ff3aa2ea7b53070f6d9d07a445d338d89e8edef44250ffa8be19f53910d4a2e60405160405180910390a250565b6200008e82826200012f60201b60201c565b15620000d1576040517f08c379a0000000000000000000000000000000000000000000000000000000008152600401620000c890620002a4565b60405180910390fd5b60018260000160008373ffffffffffffffffffffffffffffffffffffffff1673ffffffffffffffffffffffffffffffffffffffff16815260200190815260200160002060006101000a81548160ff0219169083151502179055505050565b60008073ffffffffffffffffffffffffffffffffffffffff168273ffffffffffffffffffffffffffffffffffffffff161415620001a3576040517f08c379a00000000000000000000000000000000000000000000000000000000081526004016200019a90620002c6565b60405180910390fd5b8260000160008373ffffffffffffffffffffffffffffffffffffffff1673ffffffffffffffffffffffffffffffffffffffff16815260200190815260200160002060009054906101000a900460ff16905092915050565b600062000209601f83620002e8565b91507f526f6c65733a206163636f756e7420616c72656164792068617320726f6c65006000830152602082019050919050565b60006200024b602283620002e8565b91507f526f6c65733a206163636f756e7420697320746865207a65726f20616464726560008301527f73730000000000000000000000000000000000000000000000000000000000006020830152604082019050919050565b60006020820190508181036000830152620002bf81620001fa565b9050919050565b60006020820190508181036000830152620002e1816200023c565b9050919050565b600082825260208201905092915050565b61423580620003096000396000f3fe608060405234801561001057600080fd5b50600436106101165760003560e01c80635ce8772f116100a257806392b484111161007157806392b48411146102f45780639b87f64414610327578063da2824a814610331578063df4eb59c1461034d578063f25b3f991461035757610116565b80635ce8772f1461026b5780637542ff95146102875780637e63809c146102a5578063828496d6146102c157610116565b80632e716fb1116100e95780632e716fb1146101c7578063378ab9a9146101e55780633cd32fd41461021557806342c1e587146102315780634e6753b71461024f57610116565b806304c075691461011b578063184b95591461014b5780631d69ff9b146101675780632b29ba2314610197575b600080fd5b610135600480360361013091908101906131db565b61038a565b6040516101429190613e01565b60405180910390f35b6101656004803603610160919081019061313a565b610448565b005b610181600480360361017c9190810190613387565b610510565b60405161018e9190613b35565b60405180910390f35b6101b160048036036101ac9190810190613111565b610907565b6040516101be9190613b35565b60405180910390f35b6101cf610924565b6040516101dc9190613b6b565b60405180910390f35b6101ff60048036036101fa91908101906131db565b61094a565b60405161020c9190613b13565b60405180910390f35b61022f600480360361022a91908101906132e4565b6109bb565b005b610239610f9a565b6040516102469190613b86565b60405180910390f35b61026960048036036102649190810190613320565b610fc0565b005b610285600480360361028091908101906131db565b6117bf565b005b61028f611aa6565b60405161029c9190613b50565b60405180910390f35b6102bf60048036036102ba9190810190613269565b611acc565b005b6102db60048036036102d6919081019061322d565b6120d8565b6040516102eb9493929190613f66565b60405180910390f35b61030e600480360361030991908101906132e4565b612115565b60405161031e9493929190613f21565b60405180910390f35b61032f61216c565b005b61034b60048036036103469190810190613111565b6124a0565b005b6103556124f4565b005b610371600480360361036c91908101906131db565b6124ff565b6040516103819493929190613f21565b60405180910390f35b610392612e5f565b600360008381526020019081526020016000206040518060a0016040529081600082015481526020016001820180548060200260200160405190810160405280929190818152602001828054801561040957602002820191906000526020600020905b8154815260200190600101908083116103f5575b5050505050815260200160028201548152602001600382015481526020016004820160009054906101000a900460ff1615151515815250509050919050565b82600460006101000a81548173ffffffffffffffffffffffffffffffffffffffff021916908373ffffffffffffffffffffffffffffffffffffffff16021790555081600560006101000a81548173ffffffffffffffffffffffffffffffffffffffff021916908373ffffffffffffffffffffffffffffffffffffffff16021790555080600660006101000a81548173ffffffffffffffffffffffffffffffffffffffff021916908373ffffffffffffffffffffffffffffffffffffffff160217905550505050565b600081610677600173__Random________________________________635075dbfb600a600460009054906101000a900473ffffffffffffffffffffffffffffffffffffffff1673ffffffffffffffffffffffffffffffffffffffff1663bc788d466040518163ffffffff1660e01b815260040160206040518083038186803b15801561059c57600080fd5b505afa1580156105b0573d6000803e3d6000fd5b505050506040513d601f19601f820116820180604052506105d49190810190613204565b8a6040516020016105e59190613e23565b604051602081830303815290604052805190602001206040518463ffffffff1660e01b815260040161061993929190613bca565b60206040518083038186803b15801561063157600080fd5b505af4158015610645573d6000803e3d6000fd5b505050506040513d601f19601f820116820180604052506106699190810190613204565b61253c90919063ffffffff16565b146106855760009050610900565b600073__Random________________________________63b07ceab8600a85886040516020016106b6929190613e67565b604051602081830303815290604052805190602001206040518363ffffffff1660e01b81526004016106e9929190613ba1565b60206040518083038186803b15801561070157600080fd5b505af4158015610715573d6000803e3d6000fd5b505050506040513d601f19601f820116820180604052506107399190810190613189565b905060006107586401000000008360001c61259190919063ffffffff16565b90506000600460009054906101000a900473ffffffffffffffffffffffffffffffffffffffff1673ffffffffffffffffffffffffffffffffffffffff1663e3c998fe876040518263ffffffff1660e01b81526004016107b79190613e23565b60e06040518083038186803b1580156107cf57600080fd5b505afa1580156107e3573d6000803e3d6000fd5b505050506040513d601f19601f8201168201806040525061080791908101906131b2565b6020015190506108d3640100000000600460009054906101000a900473ffffffffffffffffffffffffffffffffffffffff1673ffffffffffffffffffffffffffffffffffffffff1663e3c998fe886040518263ffffffff1660e01b81526004016108719190613e23565b60e06040518083038186803b15801561088957600080fd5b505afa15801561089d573d6000803e3d6000fd5b505050506040513d601f19601f820116820180604052506108c191908101906131b2565b602001516125e890919063ffffffff16565b6108e682846125e890919063ffffffff16565b11156108f85760009350505050610900565b600193505050505b9392505050565b600061091d82600061265890919063ffffffff16565b9050919050565b600560009054906101000a900473ffffffffffffffffffffffffffffffffffffffff1681565b6060600360008381526020019081526020016000206001018054806020026020016040519081016040528092919081815260200182805480156109ac57602002820191906000526020600020905b815481526020019060010190808311610998575b50505050509050809050919050565b81600560009054906101000a900473ffffffffffffffffffffffffffffffffffffffff1673ffffffffffffffffffffffffffffffffffffffff1663757991a86040518163ffffffff1660e01b815260040160206040518083038186803b158015610a2457600080fd5b505afa158015610a38573d6000803e3d6000fd5b505050506040513d601f19601f82011682018060405250610a5c9190810190613204565b8114610a9d576040517f08c379a0000000000000000000000000000000000000000000000000000000008152600401610a9490613d01565b60405180910390fd5b73__Constants_____________________________63f240f7c36040518163ffffffff1660e01b815260040160206040518083038186803b158015610ae157600080fd5b505af4158015610af5573d6000803e3d6000fd5b505050506040513d601f19601f82011682018060405250610b1991908101906133d6565b60ff16600560009054906101000a900473ffffffffffffffffffffffffffffffffffffffff1673ffffffffffffffffffffffffffffffffffffffff16631865c57d6040518163ffffffff1660e01b815260040160206040518083038186803b158015610b8457600080fd5b505afa158015610b98573d6000803e3d6000fd5b505050506040513d601f19601f82011682018060405250610bbc9190810190613204565b8114610bfd576040517f08c379a0000000000000000000000000000000000000000000000000000000008152600401610bf490613dc1565b60405180910390fd5b60006001600086815260200190815260200160002060003373ffffffffffffffffffffffffffffffffffffffff1673ffffffffffffffffffffffffffffffffffffffff168152602001908152602001600020600301549050600660009054906101000a900473ffffffffffffffffffffffffffffffffffffffff1673ffffffffffffffffffffffffffffffffffffffff1663a6a145d986836040518363ffffffff1660e01b8152600401610cb2929190613e67565b60206040518083038186803b158015610cca57600080fd5b505afa158015610cde573d6000803e3d6000fd5b505050506040513d601f19601f82011682018060405250610d029190810190613204565b6001600087815260200190815260200160002060003373ffffffffffffffffffffffffffffffffffffffff1673ffffffffffffffffffffffffffffffffffffffff1681526020019081526020016000206000015414610d96576040517f08c379a0000000000000000000000000000000000000000000000000000000008152600401610d8d90613da1565b60405180910390fd5b60006001600087815260200190815260200160002060003373ffffffffffffffffffffffffffffffffffffffff1673ffffffffffffffffffffffffffffffffffffffff1681526020019081526020016000206001015490506000600260008881526020019081526020016000208681548110610e0e57fe5b906000526020600020906005020160000154905060008211610e2f57600080fd5b81600260008981526020019081526020016000208781548110610e4e57fe5b90600052602060002090600502016001018481548110610e6a57fe5b906000526020600020015414610f56576000600260008981526020019081526020016000208781548110610e9a57fe5b906000526020600020906005020160040160006101000a81548160ff021916908315150217905550600460009054906101000a900473ffffffffffffffffffffffffffffffffffffffff1673ffffffffffffffffffffffffffffffffffffffff16633d82e3c182336040518363ffffffff1660e01b8152600401610f1f929190613e3e565b600060405180830381600087803b158015610f3957600080fd5b505af1158015610f4d573d6000803e3d6000fd5b50505050610f91565b6040517f08c379a0000000000000000000000000000000000000000000000000000000008152600401610f8890613d61565b60405180910390fd5b50505050505050565b600660009054906101000a900473ffffffffffffffffffffffffffffffffffffffff1681565b82600560009054906101000a900473ffffffffffffffffffffffffffffffffffffffff1673ffffffffffffffffffffffffffffffffffffffff1663757991a86040518163ffffffff1660e01b815260040160206040518083038186803b15801561102957600080fd5b505afa15801561103d573d6000803e3d6000fd5b505050506040513d601f19601f820116820180604052506110619190810190613204565b81146110a2576040517f08c379a000000000000000000000000000000000000000000000000000000000815260040161109990613d01565b60405180910390fd5b73__Constants_____________________________63f240f7c36040518163ffffffff1660e01b815260040160206040518083038186803b1580156110e657600080fd5b505af41580156110fa573d6000803e3d6000fd5b505050506040513d601f19601f8201168201806040525061111e91908101906133d6565b60ff16600560009054906101000a900473ffffffffffffffffffffffffffffffffffffffff1673ffffffffffffffffffffffffffffffffffffffff16631865c57d6040518163ffffffff1660e01b815260040160206040518083038186803b15801561118957600080fd5b505afa15801561119d573d6000803e3d6000fd5b505050506040513d601f19601f820116820180604052506111c19190810190613204565b8114611202576040517f08c379a00000000000000000000000000000000000000000000000000000000081526004016111f990613dc1565b60405180910390fd5b60006112c46002600660009054906101000a900473ffffffffffffffffffffffffffffffffffffffff1673ffffffffffffffffffffffffffffffffffffffff1663a6a145d989896040518363ffffffff1660e01b8152600401611266929190613e67565b60206040518083038186803b15801561127e57600080fd5b505afa158015611292573d6000803e3d6000fd5b505050506040513d601f19601f820116820180604052506112b69190810190613204565b61272090919063ffffffff16565b905060006001600088815260200190815260200160002060003373ffffffffffffffffffffffffffffffffffffffff1673ffffffffffffffffffffffffffffffffffffffff16815260200190815260200160002060000154905060006001600089815260200190815260200160002060003373ffffffffffffffffffffffffffffffffffffffff1673ffffffffffffffffffffffffffffffffffffffff1681526020019081526020016000206002015490506000600160008a815260200190815260200160002060003373ffffffffffffffffffffffffffffffffffffffff1673ffffffffffffffffffffffffffffffffffffffff16815260200190815260200160002060000154141561142f5786600160008a815260200190815260200160002060003373ffffffffffffffffffffffffffffffffffffffff1673ffffffffffffffffffffffffffffffffffffffff168152602001908152602001600020600301819055506114c5565b86600160008a815260200190815260200160002060003373ffffffffffffffffffffffffffffffffffffffff1673ffffffffffffffffffffffffffffffffffffffff16815260200190815260200160002060030154146114c4576040517f08c379a00000000000000000000000000000000000000000000000000000000081526004016114bb90613d41565b60405180910390fd5b5b60008090505b865181101561170457818782815181106114e157fe5b602002602001015111611529576040517f08c379a000000000000000000000000000000000000000000000000000000000815260040161152090613c21565b60405180910390fd5b86818151811061153557fe5b60200260200101519150611613600660009054906101000a900473ffffffffffffffffffffffffffffffffffffffff1673ffffffffffffffffffffffffffffffffffffffff16639c66556f8b8b8b868151811061158e57fe5b60200260200101516040518463ffffffff1660e01b81526004016115b493929190613eea565b60206040518083038186803b1580156115cc57600080fd5b505afa1580156115e0573d6000803e3d6000fd5b505050506040513d601f19601f820116820180604052506116049190810190613204565b8461253c90919063ffffffff16565b92506000600160008b815260200190815260200160002060003373ffffffffffffffffffffffffffffffffffffffff1673ffffffffffffffffffffffffffffffffffffffff1681526020019081526020016000206001015414801561167757508383115b156116e85786818151811061168857fe5b6020026020010151600160008b815260200190815260200160002060003373ffffffffffffffffffffffffffffffffffffffff1673ffffffffffffffffffffffffffffffffffffffff168152602001908152602001600020600101819055505b6127105a10156116f757611704565b80806001019150506114cb565b5080600160008a815260200190815260200160002060003373ffffffffffffffffffffffffffffffffffffffff1673ffffffffffffffffffffffffffffffffffffffff1681526020019081526020016000206002018190555081600160008a815260200190815260200160002060003373ffffffffffffffffffffffffffffffffffffffff1673ffffffffffffffffffffffffffffffffffffffff168152602001908152602001600020600001819055505050505050505050565b80600560009054906101000a900473ffffffffffffffffffffffffffffffffffffffff1673ffffffffffffffffffffffffffffffffffffffff1663757991a86040518163ffffffff1660e01b815260040160206040518083038186803b15801561182857600080fd5b505afa15801561183c573d6000803e3d6000fd5b505050506040513d601f19601f820116820180604052506118609190810190613204565b81146118a1576040517f08c379a000000000000000000000000000000000000000000000000000000000815260040161189890613d01565b60405180910390fd5b73__Constants_____________________________63f240f7c36040518163ffffffff1660e01b815260040160206040518083038186803b1580156118e557600080fd5b505af41580156118f9573d6000803e3d6000fd5b505050506040513d601f19601f8201168201806040525061191d91908101906133d6565b60ff16600560009054906101000a900473ffffffffffffffffffffffffffffffffffffffff1673ffffffffffffffffffffffffffffffffffffffff16631865c57d6040518163ffffffff1660e01b815260040160206040518083038186803b15801561198857600080fd5b505afa15801561199c573d6000803e3d6000fd5b505050506040513d601f19601f820116820180604052506119c09190810190613204565b8114611a01576040517f08c379a00000000000000000000000000000000000000000000000000000000081526004016119f890613dc1565b60405180910390fd5b604051806080016040528060008152602001600081526020016000815260200160008152506001600085815260200190815260200160002060003373ffffffffffffffffffffffffffffffffffffffff1673ffffffffffffffffffffffffffffffffffffffff16815260200190815260200160002060008201518160000155602082015181600101556040820151816002015560608201518160030155905050505050565b600460009054906101000a900473ffffffffffffffffffffffffffffffffffffffff1681565b83600560009054906101000a900473ffffffffffffffffffffffffffffffffffffffff1673ffffffffffffffffffffffffffffffffffffffff1663757991a86040518163ffffffff1660e01b815260040160206040518083038186803b158015611b3557600080fd5b505afa158015611b49573d6000803e3d6000fd5b505050506040513d601f19601f82011682018060405250611b6d9190810190613204565b8114611bae576040517f08c379a0000000000000000000000000000000000000000000000000000000008152600401611ba590613d01565b60405180910390fd5b73__Constants_____________________________63c198f8ba6040518163ffffffff1660e01b815260040160206040518083038186803b158015611bf257600080fd5b505af4158015611c06573d6000803e3d6000fd5b505050506040513d601f19601f82011682018060405250611c2a91908101906133d6565b60ff16600560009054906101000a900473ffffffffffffffffffffffffffffffffffffffff1673ffffffffffffffffffffffffffffffffffffffff16631865c57d6040518163ffffffff1660e01b815260040160206040518083038186803b158015611c9557600080fd5b505afa158015611ca9573d6000803e3d6000fd5b505050506040513d601f19601f82011682018060405250611ccd9190810190613204565b8114611d0e576040517f08c379a0000000000000000000000000000000000000000000000000000000008152600401611d0590613dc1565b60405180910390fd5b6000600460009054906101000a900473ffffffffffffffffffffffffffffffffffffffff1673ffffffffffffffffffffffffffffffffffffffff16636022a485336040518263ffffffff1660e01b8152600401611d6b9190613af8565b60206040518083038186803b158015611d8357600080fd5b505afa158015611d97573d6000803e3d6000fd5b505050506040513d601f19601f82011682018060405250611dbb9190810190613204565b9050611dc8858583610510565b611e07576040517f08c379a0000000000000000000000000000000000000000000000000000000008152600401611dfe90613c61565b60405180910390fd5b73__Constants_____________________________63375b3c0a6040518163ffffffff1660e01b815260040160206040518083038186803b158015611e4b57600080fd5b505af4158015611e5f573d6000803e3d6000fd5b505050506040513d601f19601f82011682018060405250611e839190810190613204565b600460009054906101000a900473ffffffffffffffffffffffffffffffffffffffff1673ffffffffffffffffffffffffffffffffffffffff1663e3c998fe836040518263ffffffff1660e01b8152600401611ede9190613e23565b60e06040518083038186803b158015611ef657600080fd5b505afa158015611f0a573d6000803e3d6000fd5b505050506040513d601f19601f82011682018060405250611f2e91908101906131b2565b602001511015611f73576040517f08c379a0000000000000000000000000000000000000000000000000000000008152600401611f6a90613d81565b60405180910390fd5b6000612056886040518060a001604052808581526020018a8152602001898152602001600460009054906101000a900473ffffffffffffffffffffffffffffffffffffffff1673ffffffffffffffffffffffffffffffffffffffff1663e3c998fe8a6040518263ffffffff1660e01b8152600401611ff19190613e23565b60e06040518083038186803b15801561200957600080fd5b505afa15801561201d573d6000803e3d6000fd5b505050506040513d601f19601f8201168201806040525061204191908101906131b2565b6020015181526020016001151581525061277c565b90507f43d4b4706539f9e22baf8767ebea21ad24f723f14b6981664ac4d0af596dddbe816040516120879190613e23565b60405180910390a17ffb750a2a8aed92f932bb76b78077f486a1d583d286b29c3afb9ae793a69c63aa88838989896040516120c6959493929190613e90565b60405180910390a15050505050505050565b6001602052816000526040600020602052806000526040600020600091509150508060000154908060010154908060020154908060030154905084565b6002602052816000526040600020818154811061212e57fe5b9060005260206000209060050201600091509150508060000154908060020154908060030154908060040160009054906101000a900460ff16905084565b61217533610907565b6121b4576040517f08c379a00000000000000000000000000000000000000000000000000000000081526004016121ab90613de1565b60405180910390fd5b6000600560009054906101000a900473ffffffffffffffffffffffffffffffffffffffff1673ffffffffffffffffffffffffffffffffffffffff1663757991a86040518163ffffffff1660e01b815260040160206040518083038186803b15801561221e57600080fd5b505afa158015612232573d6000803e3d6000fd5b505050506040513d601f19601f820116820180604052506122569190810190613204565b90506000600360006001840381526020019081526020016000206000015414801561229a575060006002600060018403815260200190815260200160002080549050115b1561249c5760008090505b60026000600184038152602001908152602001600020805490508160ff16101561249a57600260006001840381526020019081526020016000208160ff16815481106122ed57fe5b906000526020600020906005020160040160009054906101000a900460ff161561248d57600260006001840381526020019081526020016000208160ff168154811061233557fe5b906000526020600020906005020160036000600185038152602001908152602001600020600082015481600001556001820181600101908054612379929190612e90565b5060028201548160020155600382015481600301556004820160009054906101000a900460ff168160040160006101000a81548160ff0219169083151502179055509050506000600260006001850381526020019081526020016000208260ff16815481106123e457fe5b9060005260206000209060050201600001549050600460009054906101000a900473ffffffffffffffffffffffffffffffffffffffff1673ffffffffffffffffffffffffffffffffffffffff16636aa46ccd826040518263ffffffff1660e01b81526004016124539190613e23565b600060405180830381600087803b15801561246d57600080fd5b505af1158015612481573d6000803e3d6000fd5b5050505050505061249e565b80806001019150506122a5565b505b505b565b6124a933610907565b6124e8576040517f08c379a00000000000000000000000000000000000000000000000000000000081526004016124df90613de1565b60405180910390fd5b6124f181612c5c565b50565b6124fd33612cb6565b565b60036020528060005260406000206000915090508060000154908060020154908060030154908060040160009054906101000a900460ff16905084565b600080828401905083811015612587576040517f08c379a000000000000000000000000000000000000000000000000000000000815260040161257e90613c41565b60405180910390fd5b8091505092915050565b6000808214156125d6576040517f08c379a00000000000000000000000000000000000000000000000000000000081526004016125cd90613ca1565b60405180910390fd5b8183816125df57fe5b06905092915050565b6000808314156125fb5760009050612652565b600082840290508284828161260c57fe5b041461264d576040517f08c379a000000000000000000000000000000000000000000000000000000000815260040161264490613ce1565b60405180910390fd5b809150505b92915050565b60008073ffffffffffffffffffffffffffffffffffffffff168273ffffffffffffffffffffffffffffffffffffffff1614156126c9576040517f08c379a00000000000000000000000000000000000000000000000000000000081526004016126c090613d21565b60405180910390fd5b8260000160008373ffffffffffffffffffffffffffffffffffffffff1673ffffffffffffffffffffffffffffffffffffffff16815260200190815260200160002060009054906101000a900460ff16905092915050565b6000808211612764576040517f08c379a000000000000000000000000000000000000000000000000000000000815260040161275b90613c81565b60405180910390fd5b600082848161276f57fe5b0490508091505092915050565b6000806002600085815260200190815260200160002080549050141561284257600260008481526020019081526020016000208290806001815401808255809150509060018203906000526020600020906005020160009091929091909150600082015181600001556020820151816001019080519060200190612801929190612ee2565b50604082015181600201556060820151816003015560808201518160040160006101000a81548160ff02191690831515021790555050505060009050612c56565b60006002600085815260200190815260200160002080549050905060008090505b60026000868152602001908152602001600020805490508110156129145783606001516002600087815260200190815260200160002082815481106128a457fe5b90600052602060002090600502016003015410156128c457809150612914565b83604001516002600087815260200190815260200160002082815481106128e757fe5b906000526020600020906005020160020154111561290757809150612914565b8080600101915050612863565b5060026000858152602001908152602001600020839080600181540180825580915050906001820390600052602060002090600502016000909192909190915060008201518160000155602082015181600101908051906020019061297a929190612ee2565b50604082015181600201556060820151816003015560808201518160040160006101000a81548160ff0219169083151502179055505050506000600160026000878152602001908152602001600020805490500390505b81811115612aa7576002600086815260200190815260200160002060018203815481106129fa57fe5b9060005260206000209060050201600260008781526020019081526020016000208281548110612a2657fe5b9060005260206000209060050201600082015481600001556001820181600101908054612a54929190612e90565b5060028201548160020155600382015481600301556004820160009054906101000a900460ff168160040160006101000a81548160ff0219169083151502179055509050508080600190039150506129d1565b5082600260008681526020019081526020016000208281548110612ac757fe5b9060005260206000209060050201600082015181600001556020820151816001019080519060200190612afb929190612ee2565b50604082015181600201556060820151816003015560808201518160040160006101000a81548160ff02191690831515021790555090505073__Constants_____________________________63379597e06040518163ffffffff1660e01b815260040160206040518083038186803b158015612b7757600080fd5b505af4158015612b8b573d6000803e3d6000fd5b505050506040513d601f19601f82011682018060405250612baf9190810190613204565b60026000868152602001908152602001600020805490501115612c515760026000858152602001908152602001600020600160026000878152602001908152602001600020805490500381548110612c0357fe5b9060005260206000209060050201600080820160009055600182016000612c2a9190612f2f565b600282016000905560038201600090556004820160006101000a81549060ff021916905550505b809150505b92915050565b612c70816000612d1090919063ffffffff16565b8073ffffffffffffffffffffffffffffffffffffffff167f6ff3aa2ea7b53070f6d9d07a445d338d89e8edef44250ffa8be19f53910d4a2e60405160405180910390a250565b612cca816000612db890919063ffffffff16565b8073ffffffffffffffffffffffffffffffffffffffff167f86e5bbceda94081c32220d685f37cc4e3ea7bb0be2dfbf0cb703579505a5390e60405160405180910390a250565b612d1a8282612658565b15612d5a576040517f08c379a0000000000000000000000000000000000000000000000000000000008152600401612d5190613c01565b60405180910390fd5b60018260000160008373ffffffffffffffffffffffffffffffffffffffff1673ffffffffffffffffffffffffffffffffffffffff16815260200190815260200160002060006101000a81548160ff0219169083151502179055505050565b612dc28282612658565b612e01576040517f08c379a0000000000000000000000000000000000000000000000000000000008152600401612df890613cc1565b60405180910390fd5b60008260000160008373ffffffffffffffffffffffffffffffffffffffff1673ffffffffffffffffffffffffffffffffffffffff16815260200190815260200160002060006101000a81548160ff0219169083151502179055505050565b6040518060a00160405280600081526020016060815260200160008152602001600081526020016000151581525090565b828054828255906000526020600020908101928215612ed15760005260206000209182015b82811115612ed0578254825591600101919060010190612eb5565b5b509050612ede9190612f50565b5090565b828054828255906000526020600020908101928215612f1e579160200282015b82811115612f1d578251825591602001919060010190612f02565b5b509050612f2b9190612f50565b5090565b5080546000825590600052602060002090810190612f4d9190612f50565b50565b612f7291905b80821115612f6e576000816000905550600101612f56565b5090565b90565b600081359050612f8481614196565b92915050565b600082601f830112612f9b57600080fd5b8135612fae612fa982613fd8565b613fab565b91508181835260208401935060208101905083856020840282011115612fd357600080fd5b60005b838110156130035781612fe988826130d2565b845260208401935060208301925050600181019050612fd6565b5050505092915050565b60008151905061301c816141ad565b92915050565b600060e0828403121561303457600080fd5b61303e60e0613fab565b9050600061304e848285016130e7565b6000830152506020613062848285016130e7565b6020830152506040613076848285016130e7565b604083015250606061308a848285016130e7565b606083015250608061309e848285016130e7565b60808301525060a06130b2848285016130e7565b60a08301525060c06130c6848285016130e7565b60c08301525092915050565b6000813590506130e1816141c4565b92915050565b6000815190506130f6816141c4565b92915050565b60008151905061310b816141db565b92915050565b60006020828403121561312357600080fd5b600061313184828501612f75565b91505092915050565b60008060006060848603121561314f57600080fd5b600061315d86828701612f75565b935050602061316e86828701612f75565b925050604061317f86828701612f75565b9150509250925092565b60006020828403121561319b57600080fd5b60006131a98482850161300d565b91505092915050565b600060e082840312156131c457600080fd5b60006131d284828501613022565b91505092915050565b6000602082840312156131ed57600080fd5b60006131fb848285016130d2565b91505092915050565b60006020828403121561321657600080fd5b6000613224848285016130e7565b91505092915050565b6000806040838503121561324057600080fd5b600061324e858286016130d2565b925050602061325f85828601612f75565b9150509250929050565b6000806000806080858703121561327f57600080fd5b600061328d878288016130d2565b945050602085013567ffffffffffffffff8111156132aa57600080fd5b6132b687828801612f8a565b93505060406132c7878288016130d2565b92505060606132d8878288016130d2565b91505092959194509250565b600080604083850312156132f757600080fd5b6000613305858286016130d2565b9250506020613316858286016130d2565b9150509250929050565b60008060006060848603121561333557600080fd5b6000613343868287016130d2565b9350506020613354868287016130d2565b925050604084013567ffffffffffffffff81111561337157600080fd5b61337d86828701612f8a565b9150509250925092565b60008060006060848603121561339c57600080fd5b60006133aa868287016130d2565b93505060206133bb868287016130d2565b92505060406133cc868287016130d2565b9150509250925092565b6000602082840312156133e857600080fd5b60006133f6848285016130fc565b91505092915050565b600061340b8383613acb565b60208301905092915050565b613420816140e2565b82525050565b60006134318261402b565b61343b8185614061565b935061344683614010565b8060005b8381101561347757815161345e88826133ff565b975061346983614043565b92505060018101905061344a565b5085935050505092915050565b600061348f82614020565b6134998185614050565b93506134a483614000565b8060005b838110156134d55781516134bc88826133ff565b97506134c783614036565b9250506001810190506134a8565b5085935050505092915050565b6134eb81614095565b82525050565b6134fa81614095565b82525050565b613509816140a1565b82525050565b613518816140f4565b82525050565b61352781614118565b82525050565b6135368161413c565b82525050565b61354581614160565b82525050565b6000613558601f83614072565b91507f526f6c65733a206163636f756e7420616c72656164792068617320726f6c65006000830152602082019050919050565b6000613598602983614072565b91507f736f727465645b695d206973206e6f742067726561746572207468616e206c6160008301527f73745669736974656400000000000000000000000000000000000000000000006020830152604082019050919050565b60006135fe601b83614072565b91507f536166654d6174683a206164646974696f6e206f766572666c6f7700000000006000830152602082019050919050565b600061363e600b83614072565b91507f6e6f7420656c65637465640000000000000000000000000000000000000000006000830152602082019050919050565b600061367e601a83614072565b91507f536166654d6174683a206469766973696f6e206279207a65726f0000000000006000830152602082019050919050565b60006136be601883614072565b91507f536166654d6174683a206d6f64756c6f206279207a65726f00000000000000006000830152602082019050919050565b60006136fe602183614072565b91507f526f6c65733a206163636f756e7420646f6573206e6f74206861766520726f6c60008301527f65000000000000000000000000000000000000000000000000000000000000006020830152604082019050919050565b6000613764602183614072565b91507f536166654d6174683a206d756c7469706c69636174696f6e206f766572666c6f60008301527f77000000000000000000000000000000000000000000000000000000000000006020830152604082019050919050565b60006137ca600f83614072565b91507f696e636f72726563742065706f636800000000000000000000000000000000006000830152602082019050919050565b600061380a602283614072565b91507f526f6c65733a206163636f756e7420697320746865207a65726f20616464726560008301527f73730000000000000000000000000000000000000000000000000000000000006020830152604082019050919050565b6000613870601483614072565b91507f41737365744964206e6f74206d61746368696e670000000000000000000000006000830152602082019050919050565b60006138b0603783614072565b91507f50726f706f73656420416c7465726e61746520626c6f636b206973206964656e60008301527f746963616c20746f2070726f706f73656420626c6f636b0000000000000000006020830152604082019050919050565b6000613916601983614072565b91507f7374616b652062656c6f77206d696e696d756d207374616b65000000000000006000830152602082019050919050565b6000613956602183614072565b91507f546f74616c207374616b652072657665616c656420646f65736e74206d61746360008301527f68000000000000000000000000000000000000000000000000000000000000006020830152604082019050919050565b60006139bc600f83614072565b91507f696e636f727265637420737461746500000000000000000000000000000000006000830152602082019050919050565b60006139fc603083614072565b91507f577269746572526f6c653a2063616c6c657220646f6573206e6f74206861766560008301527f207468652057726974657220726f6c65000000000000000000000000000000006020830152604082019050919050565b600060a083016000830151613a6d6000860182613acb565b5060208301518482036020860152613a858282613484565b9150506040830151613a9a6040860182613acb565b506060830151613aad6060860182613acb565b506080830151613ac060808601826134e2565b508091505092915050565b613ad4816140cb565b82525050565b613ae3816140cb565b82525050565b613af2816140cb565b82525050565b6000602082019050613b0d6000830184613417565b92915050565b60006020820190508181036000830152613b2d8184613426565b905092915050565b6000602082019050613b4a60008301846134f1565b92915050565b6000602082019050613b65600083018461350f565b92915050565b6000602082019050613b80600083018461351e565b92915050565b6000602082019050613b9b600083018461352d565b92915050565b6000604082019050613bb6600083018561353c565b613bc36020830184613500565b9392505050565b6000606082019050613bdf600083018661353c565b613bec6020830185613ae9565b613bf96040830184613500565b949350505050565b60006020820190508181036000830152613c1a8161354b565b9050919050565b60006020820190508181036000830152613c3a8161358b565b9050919050565b60006020820190508181036000830152613c5a816135f1565b9050919050565b60006020820190508181036000830152613c7a81613631565b9050919050565b60006020820190508181036000830152613c9a81613671565b9050919050565b60006020820190508181036000830152613cba816136b1565b9050919050565b60006020820190508181036000830152613cda816136f1565b9050919050565b60006020820190508181036000830152613cfa81613757565b9050919050565b60006020820190508181036000830152613d1a816137bd565b9050919050565b60006020820190508181036000830152613d3a816137fd565b9050919050565b60006020820190508181036000830152613d5a81613863565b9050919050565b60006020820190508181036000830152613d7a816138a3565b9050919050565b60006020820190508181036000830152613d9a81613909565b9050919050565b60006020820190508181036000830152613dba81613949565b9050919050565b60006020820190508181036000830152613dda816139af565b9050919050565b60006020820190508181036000830152613dfa816139ef565b9050919050565b60006020820190508181036000830152613e1b8184613a55565b905092915050565b6000602082019050613e386000830184613ada565b92915050565b6000604082019050613e536000830185613ada565b613e606020830184613417565b9392505050565b6000604082019050613e7c6000830185613ada565b613e896020830184613ada565b9392505050565b600060a082019050613ea56000830188613ada565b613eb26020830187613ada565b8181036040830152613ec48186613426565b9050613ed36060830185613ada565b613ee06080830184613ada565b9695505050505050565b6000606082019050613eff6000830186613ada565b613f0c6020830185613ada565b613f196040830184613ada565b949350505050565b6000608082019050613f366000830187613ada565b613f436020830186613ada565b613f506040830185613ada565b613f5d60608301846134f1565b95945050505050565b6000608082019050613f7b6000830187613ada565b613f886020830186613ada565b613f956040830185613ada565b613fa26060830184613ada565b95945050505050565b6000604051905081810181811067ffffffffffffffff82111715613fce57600080fd5b8060405250919050565b600067ffffffffffffffff821115613fef57600080fd5b602082029050602081019050919050565b6000819050602082019050919050565b6000819050602082019050919050565b600081519050919050565b600081519050919050565b6000602082019050919050565b6000602082019050919050565b600082825260208201905092915050565b600082825260208201905092915050565b600082825260208201905092915050565b600061408e826140ab565b9050919050565b60008115159050919050565b6000819050919050565b600073ffffffffffffffffffffffffffffffffffffffff82169050919050565b6000819050919050565b600060ff82169050919050565b60006140ed82614172565b9050919050565b60006140ff82614106565b9050919050565b6000614111826140ab565b9050919050565b60006141238261412a565b9050919050565b6000614135826140ab565b9050919050565b60006141478261414e565b9050919050565b6000614159826140ab565b9050919050565b600061416b826140d5565b9050919050565b600061417d82614184565b9050919050565b600061418f826140ab565b9050919050565b61419f81614083565b81146141aa57600080fd5b50565b6141b6816140a1565b81146141c157600080fd5b50565b6141cd816140cb565b81146141d857600080fd5b50565b6141e4816140d5565b81146141ef57600080fd5b5056fea365627a7a723058203711f3046f4c130a0d405c2b14e8b95a2aca9582164493638e0f3bcbc51705856c6578706572696d656e74616cf564736f6c634300050a0040",
  "source": "pragma solidity 0.5.10;\npragma experimental ABIEncoderV2;\nimport \"../lib/Random.sol\";\n// import \"../SimpleToken.sol\";\nimport \"./Utils.sol\";\nimport \"./BlockStorage.sol\";\nimport \"./IStakeManager.sol\";\nimport \"./IStateManager.sol\";\nimport \"./IVoteManager.sol\";\nimport \"openzeppelin-solidity/contracts/math/SafeMath.sol\";\nimport \"./WriterRole.sol\";\n\n\ncontract BlockManager is Utils, WriterRole, BlockStorage {\n    using SafeMath for uint256;\n\n    IStakeManager public stakeManager;\n    IStateManager public stateManager;\n    IVoteManager public voteManager;\n\n    modifier checkEpoch (uint256 epoch) {\n        require(epoch == stateManager.getEpoch(), \"incorrect epoch\");\n        _;\n    }\n\n    modifier checkState (uint256 state) {\n        require(state == stateManager.getState(), \"incorrect state\");\n        _;\n    }\n\n    function getBlock(uint256 epoch) external view returns(Structs.Block memory _block) {\n        return(blocks[epoch]);\n    }\n\n    function getBlockMedians(uint256 epoch) external view returns(uint256[] memory _blockMedians) {\n        _blockMedians = blocks[epoch].medians;\n        return(_blockMedians);\n    }\n\n    //disable after init.\n    function init(address _stakeManagerAddress, address _stateManagerAddress, address _voteManagerAddress) public {\n        stakeManager = IStakeManager(_stakeManagerAddress);\n        stateManager = IStateManager(_stateManagerAddress);\n        voteManager = IVoteManager(_voteManagerAddress);\n    }\n\n    event Proposed(uint256 epoch,\n                    uint256 stakerId,\n                    uint256[] medians,\n                    uint256 iteration,\n                    uint256 biggestStakerId);\n\n    // elected proposer proposes block. we use a probabilistic method to elect stakers weighted by stake\n    // protocol works like this. select a staker pseudorandomly (not weighted by anything)\n    // (todo what if it is below min stake)\n    // that staker then tosses a biased coin. bias = hisStake/biggestStake. if its heads, he can propose block\n    // end of iteration. try next iteration\n    // note that only one staker or no stakers selected in each iteration.\n    // stakers elected in higher iterations can also propose hoping that\n    // stakers with lower iteration do not propose for some reason\n    function propose (uint256 epoch,\n                    uint256[] memory medians,\n                    uint256 iteration,\n                    uint256 biggestStakerId) public checkEpoch(epoch) checkState(Constants.propose()) {\n        uint256 proposerId = stakeManager.getStakerId(msg.sender);\n        // SimpleToken sch = SimpleToken(schAddress);\n        require(isElectedProposer(iteration, biggestStakerId, proposerId), \"not elected\");\n        require(stakeManager.getStaker(proposerId).stake >= Constants.minStake(), \"stake below minimum stake\");\n\n        // check if someone already proposed\n        // if (blocks[epoch].proposerId != 0) {\n        //     if (blocks[epoch].proposerId == proposerId) {\n        //         revert(\"Already Proposed\");\n        //     }\n        //     // if (stakers[biggestStakerId].stake == blocks[epoch].biggestStake &&\n        //     //     proposedBlocks[epoch].length >= Constants.maxAltBlocks()) {\n        //     //\n        //     //     require(proposedBlocks[epoch][4].iteration > iteration,\n        //     //             \"iteration not smaller than last elected staker\");\n        //     // } else\n        //     if (stakers[biggestStakerId].stake < blocks[epoch].biggestStake) {\n        //         revert(\"biggest stakers stake not bigger than as proposed by existing elected staker \");\n        //     }\n        // }\n        // blocks[epoch]\n        uint256 pushAt = _insertAppropriately(epoch, Structs.Block(proposerId,\n                                        medians,\n                                        iteration,\n                                        stakeManager.getStaker(biggestStakerId).stake,\n                                        true));\n        emit DebugUint256(pushAt);\n        // mint and give block reward\n        // if (Constants.blockReward() > 0) {\n        //     stakers[proposerId].stake = stakers[proposerId].stake.add(Constants.blockReward());\n        //     totalStake = totalStake.add(Constants.blockReward());\n        //     require(sch.mint(address(this), Constants.blockReward()));\n        // }\n        emit Proposed(epoch, proposerId, medians, iteration, biggestStakerId);\n    }\n\n    //anyone can give sorted votes in batches in dispute state\n    function giveSorted (uint256 epoch, uint256 assetId, uint256[] memory sorted) public\n    checkEpoch(epoch) checkState(Constants.dispute()) {\n        uint256 medianWeight = voteManager.getTotalStakeRevealed(epoch, assetId).div(2);\n        //accWeight = accumulatedWeight\n        uint256 accWeight = disputes[epoch][msg.sender].accWeight;\n        uint256 lastVisited = disputes[epoch][msg.sender].lastVisited;\n        if (disputes[epoch][msg.sender].accWeight == 0) {\n            disputes[epoch][msg.sender].assetId = assetId;\n        } else {\n            require(disputes[epoch][msg.sender].assetId == assetId, \"AssetId not matching\");\n        }\n        for (uint256 i = 0; i < sorted.length; i++) {\n            require(sorted[i] > lastVisited, \"sorted[i] is not greater than lastVisited\");\n            lastVisited = sorted[i];\n            accWeight = accWeight.add(voteManager.getVoteWeight(epoch, assetId, sorted[i]));\n            //set  median, if conditions meet\n            if (disputes[epoch][msg.sender].median == 0 && accWeight > medianWeight) {\n                disputes[epoch][msg.sender].median = sorted[i];\n            }\n            //TODO verify how much gas required for below operations and update this value\n            if (gasleft() < 10000) break;\n        }\n        disputes[epoch][msg.sender].lastVisited = lastVisited;\n        disputes[epoch][msg.sender].accWeight = accWeight;\n    }\n\n    // //todo test\n    // //if any mistake made during giveSorted, resetDispute and start again\n    function resetDispute (uint256 epoch) public checkEpoch(epoch) checkState(Constants.dispute()) {\n        disputes[epoch][msg.sender] = Structs.Dispute(0, 0, 0, 0);\n    }\n\n    function finalizeDispute (uint256 epoch, uint256 blockId)\n    public checkEpoch(epoch) checkState(Constants.dispute()) {\n        uint256 assetId = disputes[epoch][msg.sender].assetId;\n        require(disputes[epoch][msg.sender].accWeight == voteManager.getTotalStakeRevealed(epoch, assetId),\n        \"Total stake revealed doesnt match\");\n        uint256 median = disputes[epoch][msg.sender].median;\n        uint256 proposerId = proposedBlocks[epoch][blockId].proposerId;\n        //\n        require(median > 0);\n        if (proposedBlocks[epoch][blockId].medians[assetId] != median) {\n            proposedBlocks[epoch][blockId].valid = false;\n            stakeManager.slash(proposerId, msg.sender);\n        } else {\n            revert(\"Proposed Alternate block is identical to proposed block\");\n        }\n    }\n\n    function isElectedProposer(uint256 iteration, uint256 biggestStakerId, uint256 stakerId) public view returns(bool) {\n       // rand = 0 -> totalStake-1\n       //add +1 since prng returns 0 to max-1 and staker start from 1\n        if ((Random.prng(10, stakeManager.getNumStakers(), keccak256(abi.encode(iteration))).add(1))\n        != stakerId) {return(false);}\n        bytes32 randHash = Random.prngHash(10, keccak256(abi.encode(stakerId, iteration)));\n        uint256 rand = uint256(randHash).mod(2**32);\n        uint256 biggestStake = stakeManager.getStaker(biggestStakerId).stake;\n        if (rand.mul(biggestStake) > stakeManager.getStaker(stakerId).stake.mul(2**32)) return(false);\n        return(true);\n    }\n\n    function confirmBlock() public onlyWriter {\n        uint256 epoch = stateManager.getEpoch();\n        if (blocks[epoch - 1].proposerId == 0 && proposedBlocks[epoch - 1].length > 0) {\n            for (uint8 i=0; i < proposedBlocks[epoch - 1].length; i++) {\n                if (proposedBlocks[epoch - 1][i].valid) {\n                    blocks[epoch - 1] = proposedBlocks[epoch - 1][i];\n                    uint256 proposerId = proposedBlocks[epoch - 1][i].proposerId;\n                    stakeManager.giveBlockReward(proposerId);\n                    return;\n                }\n            }\n        }\n    }\n\n    function _insertAppropriately(uint256 epoch, Structs.Block memory _block) internal returns(uint256) {\n       // uint256 iteration = _block.iteration;\n        if (proposedBlocks[epoch].length == 0) {\n            proposedBlocks[epoch].push(_block);\n            return(0);\n        }\n       // Structs.Block[] memory temp = proposedBlocks[epoch];\n       // delete (proposedBlocks[epoch]);\n       // bool pushed = false;\n       // bool empty = true;\n        uint256 pushAt = proposedBlocks[epoch].length;\n        for (uint256 i = 0; i < proposedBlocks[epoch].length; i++) {\n            if (proposedBlocks[epoch][i].biggestStake < _block.biggestStake) {\n                pushAt = i;\n                break;\n            }\n            if (proposedBlocks[epoch][i].iteration > _block.iteration) {\n                pushAt = i;\n                break;\n            }\n        }\n\n        proposedBlocks[epoch].push(_block);\n        for (uint256 j = proposedBlocks[epoch].length - 1; j > (pushAt); j--) {\n            proposedBlocks[epoch][j] = proposedBlocks[epoch][j - 1];\n        }\n        // if (pushAt < proposedBlocks[epoch].length) {\n\n        proposedBlocks[epoch][pushAt] = _block;\n        // }\n        // if (pushed == false && temp.length < Constants.maxAltBlocks()) {\n        //     proposedBlocks[epoch].push(_block);\n        // }\n        if (proposedBlocks[epoch].length > Constants.maxAltBlocks()) {\n            delete (proposedBlocks[epoch][proposedBlocks[epoch].length - 1]);\n        }\n        return(pushAt);\n    }\n\n\n}\n",
  "sourcePath": "/Users/hrishi/contracts/contracts/Schelling4/BlockManager.sol",
  "compiler": {
    "name": "solc",
    "version": "0.5.10+commit.5a6ea5b1.Emscripten.clang"
  },
  "schemaVersion": "3.0.11",
  "updatedAt": "2019-08-13T18:13:36.806Z",
  "devdoc": {
    "methods": {}
  },
  "userdoc": {
    "methods": {}
  }
}