{
  "contractName": "BlockManager",
  "abi": [
    {
      "constant": true,
      "inputs": [
        {
          "name": "account",
          "type": "address"
        }
      ],
      "name": "isWriter",
      "outputs": [
        {
          "name": "",
          "type": "bool"
        }
      ],
      "payable": false,
      "stateMutability": "view",
      "type": "function"
    },
    {
      "constant": true,
      "inputs": [],
      "name": "stateManager",
      "outputs": [
        {
          "name": "",
          "type": "address"
        }
      ],
      "payable": false,
      "stateMutability": "view",
      "type": "function"
    },
    {
      "constant": true,
      "inputs": [],
      "name": "jobManager",
      "outputs": [
        {
          "name": "",
          "type": "address"
        }
      ],
      "payable": false,
      "stateMutability": "view",
      "type": "function"
    },
    {
      "constant": true,
      "inputs": [],
      "name": "voteManager",
      "outputs": [
        {
          "name": "",
          "type": "address"
        }
      ],
      "payable": false,
      "stateMutability": "view",
      "type": "function"
    },
    {
      "constant": true,
      "inputs": [],
      "name": "stakeManager",
      "outputs": [
        {
          "name": "",
          "type": "address"
        }
      ],
      "payable": false,
      "stateMutability": "view",
      "type": "function"
    },
    {
      "constant": true,
      "inputs": [
        {
          "name": "",
          "type": "uint256"
        },
        {
          "name": "",
          "type": "address"
        }
      ],
      "name": "disputes",
      "outputs": [
        {
          "name": "accWeight",
          "type": "uint256"
        },
        {
          "name": "median",
          "type": "uint256"
        },
        {
          "name": "lowerCutoffs",
          "type": "uint256"
        },
        {
          "name": "higherCutoffs",
          "type": "uint256"
        },
        {
          "name": "lastVisited",
          "type": "uint256"
        },
        {
          "name": "assetId",
          "type": "uint256"
        }
      ],
      "payable": false,
      "stateMutability": "view",
      "type": "function"
    },
    {
      "constant": true,
      "inputs": [
        {
          "name": "",
          "type": "uint256"
        },
        {
          "name": "",
          "type": "uint256"
        }
      ],
      "name": "proposedBlocks",
      "outputs": [
        {
          "name": "proposerId",
          "type": "uint256"
        },
        {
          "name": "iteration",
          "type": "uint256"
        },
        {
          "name": "biggestStake",
          "type": "uint256"
        },
        {
          "name": "valid",
          "type": "bool"
        }
      ],
      "payable": false,
      "stateMutability": "view",
      "type": "function"
    },
    {
      "constant": false,
      "inputs": [
        {
          "name": "account",
          "type": "address"
        }
      ],
      "name": "addWriter",
      "outputs": [],
      "payable": false,
      "stateMutability": "nonpayable",
      "type": "function"
    },
    {
      "constant": false,
      "inputs": [],
      "name": "renounceWriter",
      "outputs": [],
      "payable": false,
      "stateMutability": "nonpayable",
      "type": "function"
    },
    {
      "constant": true,
      "inputs": [
        {
          "name": "",
          "type": "uint256"
        }
      ],
      "name": "blocks",
      "outputs": [
        {
          "name": "proposerId",
          "type": "uint256"
        },
        {
          "name": "iteration",
          "type": "uint256"
        },
        {
          "name": "biggestStake",
          "type": "uint256"
        },
        {
          "name": "valid",
          "type": "bool"
        }
      ],
      "payable": false,
      "stateMutability": "view",
      "type": "function"
    },
    {
      "anonymous": false,
      "inputs": [
        {
          "indexed": false,
          "name": "epoch",
          "type": "uint256"
        },
        {
          "indexed": false,
          "name": "stakerId",
          "type": "uint256"
        },
        {
          "indexed": false,
          "name": "jobIds",
          "type": "uint256[]"
        },
        {
          "indexed": false,
          "name": "medians",
          "type": "uint256[]"
        },
        {
          "indexed": false,
          "name": "lowerCutoffs",
          "type": "uint256[]"
        },
        {
          "indexed": false,
          "name": "higherCutoffs",
          "type": "uint256[]"
        },
        {
          "indexed": false,
          "name": "iteration",
          "type": "uint256"
        },
        {
          "indexed": false,
          "name": "biggestStakerId",
          "type": "uint256"
        },
        {
          "indexed": false,
          "name": "timestamp",
          "type": "uint256"
        }
      ],
      "name": "Proposed",
      "type": "event"
    },
    {
      "anonymous": false,
      "inputs": [
        {
          "indexed": false,
          "name": "epoch",
          "type": "uint256"
        },
        {
          "indexed": false,
          "name": "stakerId",
          "type": "uint256"
        },
        {
          "indexed": false,
          "name": "medians",
          "type": "uint256[]"
        },
        {
          "indexed": false,
          "name": "jobIds",
          "type": "uint256[]"
        },
        {
          "indexed": false,
          "name": "timestamp",
          "type": "uint256"
        }
      ],
      "name": "BlockConfirmed",
      "type": "event"
    },
    {
      "anonymous": false,
      "inputs": [
        {
          "indexed": true,
          "name": "account",
          "type": "address"
        }
      ],
      "name": "WriterAdded",
      "type": "event"
    },
    {
      "anonymous": false,
      "inputs": [
        {
          "indexed": true,
          "name": "account",
          "type": "address"
        }
      ],
      "name": "WriterRemoved",
      "type": "event"
    },
    {
      "anonymous": false,
      "inputs": [
        {
          "indexed": false,
          "name": "a",
          "type": "uint256"
        }
      ],
      "name": "DebugUint256",
      "type": "event"
    },
    {
      "constant": true,
      "inputs": [
        {
          "name": "epoch",
          "type": "uint256"
        }
      ],
      "name": "getBlock",
      "outputs": [
        {
          "components": [
            {
              "name": "proposerId",
              "type": "uint256"
            },
            {
              "name": "jobIds",
              "type": "uint256[]"
            },
            {
              "name": "medians",
              "type": "uint256[]"
            },
            {
              "name": "lowerCutoffs",
              "type": "uint256[]"
            },
            {
              "name": "higherCutoffs",
              "type": "uint256[]"
            },
            {
              "name": "iteration",
              "type": "uint256"
            },
            {
              "name": "biggestStake",
              "type": "uint256"
            },
            {
              "name": "valid",
              "type": "bool"
            }
          ],
          "name": "_block",
          "type": "tuple"
        }
      ],
      "payable": false,
      "stateMutability": "view",
      "type": "function"
    },
    {
      "constant": true,
      "inputs": [
        {
          "name": "epoch",
          "type": "uint256"
        }
      ],
      "name": "getBlockMedians",
      "outputs": [
        {
          "name": "_blockMedians",
          "type": "uint256[]"
        }
      ],
      "payable": false,
      "stateMutability": "view",
      "type": "function"
    },
    {
      "constant": true,
      "inputs": [
        {
          "name": "epoch",
          "type": "uint256"
        }
      ],
      "name": "getLowerCutoffs",
      "outputs": [
        {
          "name": "_lowerCutoffs",
          "type": "uint256[]"
        }
      ],
      "payable": false,
      "stateMutability": "view",
      "type": "function"
    },
    {
      "constant": true,
      "inputs": [
        {
          "name": "epoch",
          "type": "uint256"
        }
      ],
      "name": "getHigherCutoffs",
      "outputs": [
        {
          "name": "_higherCutoffs",
          "type": "uint256[]"
        }
      ],
      "payable": false,
      "stateMutability": "view",
      "type": "function"
    },
    {
      "constant": true,
      "inputs": [
        {
          "name": "epoch",
          "type": "uint256"
        },
        {
          "name": "proposedBlock",
          "type": "uint256"
        }
      ],
      "name": "getProposedBlock",
      "outputs": [
        {
          "components": [
            {
              "name": "proposerId",
              "type": "uint256"
            },
            {
              "name": "jobIds",
              "type": "uint256[]"
            },
            {
              "name": "medians",
              "type": "uint256[]"
            },
            {
              "name": "lowerCutoffs",
              "type": "uint256[]"
            },
            {
              "name": "higherCutoffs",
              "type": "uint256[]"
            },
            {
              "name": "iteration",
              "type": "uint256"
            },
            {
              "name": "biggestStake",
              "type": "uint256"
            },
            {
              "name": "valid",
              "type": "bool"
            }
          ],
          "name": "_block",
          "type": "tuple"
        }
      ],
      "payable": false,
      "stateMutability": "view",
      "type": "function"
    },
    {
      "constant": true,
      "inputs": [
        {
          "name": "epoch",
          "type": "uint256"
        },
        {
          "name": "proposedBlock",
          "type": "uint256"
        }
      ],
      "name": "getProposedBlockMedians",
      "outputs": [
        {
          "name": "_blockMedians",
          "type": "uint256[]"
        }
      ],
      "payable": false,
      "stateMutability": "view",
      "type": "function"
    },
    {
      "constant": true,
      "inputs": [
        {
          "name": "epoch",
          "type": "uint256"
        }
      ],
      "name": "getNumProposedBlocks",
      "outputs": [
        {
          "name": "",
          "type": "uint256"
        }
      ],
      "payable": false,
      "stateMutability": "view",
      "type": "function"
    },
    {
      "constant": false,
      "inputs": [
        {
          "name": "_stakeManagerAddress",
          "type": "address"
        },
        {
          "name": "_stateManagerAddress",
          "type": "address"
        },
        {
          "name": "_voteManagerAddress",
          "type": "address"
        },
        {
          "name": "_jobManagerAddress",
          "type": "address"
        }
      ],
      "name": "init",
      "outputs": [],
      "payable": false,
      "stateMutability": "nonpayable",
      "type": "function"
    },
    {
      "constant": false,
      "inputs": [
        {
          "name": "epoch",
          "type": "uint256"
        },
        {
          "name": "jobIds",
          "type": "uint256[]"
        },
        {
          "name": "medians",
          "type": "uint256[]"
        },
        {
          "name": "lowerCutoffs",
          "type": "uint256[]"
        },
        {
          "name": "higherCutoffs",
          "type": "uint256[]"
        },
        {
          "name": "iteration",
          "type": "uint256"
        },
        {
          "name": "biggestStakerId",
          "type": "uint256"
        }
      ],
      "name": "propose",
      "outputs": [],
      "payable": false,
      "stateMutability": "nonpayable",
      "type": "function"
    },
    {
      "constant": false,
      "inputs": [
        {
          "name": "epoch",
          "type": "uint256"
        },
        {
          "name": "assetId",
          "type": "uint256"
        },
        {
          "name": "sorted",
          "type": "uint256[]"
        }
      ],
      "name": "giveSorted",
      "outputs": [],
      "payable": false,
      "stateMutability": "nonpayable",
      "type": "function"
    },
    {
      "constant": false,
      "inputs": [
        {
          "name": "epoch",
          "type": "uint256"
        }
      ],
      "name": "resetDispute",
      "outputs": [],
      "payable": false,
      "stateMutability": "nonpayable",
      "type": "function"
    },
    {
      "constant": false,
      "inputs": [
        {
          "name": "epoch",
          "type": "uint256"
        },
        {
          "name": "blockId",
          "type": "uint256"
        }
      ],
      "name": "finalizeDispute",
      "outputs": [],
      "payable": false,
      "stateMutability": "nonpayable",
      "type": "function"
    },
    {
      "constant": true,
      "inputs": [
        {
          "name": "iteration",
          "type": "uint256"
        },
        {
          "name": "biggestStakerId",
          "type": "uint256"
        },
        {
          "name": "stakerId",
          "type": "uint256"
        }
      ],
      "name": "isElectedProposer",
      "outputs": [
        {
          "name": "",
          "type": "bool"
        }
      ],
      "payable": false,
      "stateMutability": "view",
      "type": "function"
    },
    {
      "constant": false,
      "inputs": [],
      "name": "confirmBlock",
      "outputs": [],
      "payable": false,
      "stateMutability": "nonpayable",
      "type": "function"
    }
  ],
  "bytecode": "0x608060405262000015336200001b60201b60201c565b620002f9565b620000368160006200007c60201b620037811790919060201c565b8073ffffffffffffffffffffffffffffffffffffffff167f6ff3aa2ea7b53070f6d9d07a445d338d89e8edef44250ffa8be19f53910d4a2e60405160405180910390a250565b6200008e82826200012f60201b60201c565b15620000d1576040517f08c379a0000000000000000000000000000000000000000000000000000000008152600401620000c890620002a4565b60405180910390fd5b60018260000160008373ffffffffffffffffffffffffffffffffffffffff1673ffffffffffffffffffffffffffffffffffffffff16815260200190815260200160002060006101000a81548160ff0219169083151502179055505050565b60008073ffffffffffffffffffffffffffffffffffffffff168273ffffffffffffffffffffffffffffffffffffffff161415620001a3576040517f08c379a00000000000000000000000000000000000000000000000000000000081526004016200019a90620002c6565b60405180910390fd5b8260000160008373ffffffffffffffffffffffffffffffffffffffff1673ffffffffffffffffffffffffffffffffffffffff16815260200190815260200160002060009054906101000a900460ff16905092915050565b600062000209601f83620002e8565b91507f526f6c65733a206163636f756e7420616c72656164792068617320726f6c65006000830152602082019050919050565b60006200024b602283620002e8565b91507f526f6c65733a206163636f756e7420697320746865207a65726f20616464726560008301527f73730000000000000000000000000000000000000000000000000000000000006020830152604082019050919050565b60006020820190508181036000830152620002bf81620001fa565b9050919050565b60006020820190508181036000830152620002e1816200023c565b9050919050565b600082825260208201905092915050565b614fcc80620003096000396000f3fe608060405234801561001057600080fd5b50600436106101585760003560e01c80637542ff95116100c3578063d2a4669a1161007c578063d2a4669a146103f3578063da2824a814610423578063df4eb59c1461043f578063e38c7c4214610449578063f25b3f9914610479578063fae4425d146104ac57610158565b80637542ff9514610303578063828496d61461032157806392b48411146103565780639b87f64414610389578063a27ce1ef14610393578063d1a4a43d146103c357610158565b8063378ab9a911610115578063378ab9a9146102435780633cd32fd4146102735780633df395a31461028f57806342c1e587146102ad5780634e6753b7146102cb5780635ce8772f146102e757610158565b806304c075691461015d57806306552ff31461018d57806317d99c04146101a95780631d69ff9b146101c55780632b29ba23146101f55780632e716fb114610225575b600080fd5b61017760048036036101729190810190613ca2565b6104dc565b6040516101849190614a29565b60405180910390f35b6101a760048036036101a29190810190613bec565b6106a3565b005b6101c360048036036101be9190810190613d30565b6107ad565b005b6101df60048036036101da9190810190613ed1565b610dd9565b6040516101ec9190614742565b60405180910390f35b61020f600480360361020a9190810190613bc3565b6111d2565b60405161021c9190614742565b60405180910390f35b61022d6111ef565b60405161023a9190614793565b60405180910390f35b61025d60048036036102589190810190613ca2565b611215565b60405161026a9190614720565b60405180910390f35b61028d60048036036102889190810190613e2e565b611286565b005b610297611867565b6040516102a4919061475d565b60405180910390f35b6102b561188d565b6040516102c291906147ae565b60405180910390f35b6102e560048036036102e09190810190613e6a565b6118b3565b005b61030160048036036102fc9190810190613ca2565b6120b2565b005b61030b6123bb565b6040516103189190614778565b60405180910390f35b61033b60048036036103369190810190613cf4565b6123e1565b60405161034d96959493929190614c4c565b60405180910390f35b610370600480360361036b9190810190613e2e565b61242a565b6040516103809493929190614c07565b60405180910390f35b610391612481565b005b6103ad60048036036103a89190810190613e2e565b612a26565b6040516103ba9190614a29565b60405180910390f35b6103dd60048036036103d89190810190613e2e565b612c0a565b6040516103ea9190614720565b60405180910390f35b61040d60048036036104089190810190613ca2565b612c95565b60405161041a9190614720565b60405180910390f35b61043d60048036036104389190810190613bc3565b612d06565b005b610447612d5a565b005b610463600480360361045e9190810190613ca2565b612d65565b6040516104709190614a4b565b60405180910390f35b610493600480360361048e9190810190613ca2565b612d85565b6040516104a39493929190614c07565b60405180910390f35b6104c660048036036104c19190810190613ca2565b612dc2565b6040516104d39190614720565b60405180910390f35b6104e46138d0565b6003600083815260200190815260200160002060405180610100016040529081600082015481526020016001820180548060200260200160405190810160405280929190818152602001828054801561055c57602002820191906000526020600020905b815481526020019060010190808311610548575b50505050508152602001600282018054806020026020016040519081016040528092919081815260200182805480156105b457602002820191906000526020600020905b8154815260200190600101908083116105a0575b505050505081526020016003820180548060200260200160405190810160405280929190818152602001828054801561060c57602002820191906000526020600020905b8154815260200190600101908083116105f8575b505050505081526020016004820180548060200260200160405190810160405280929190818152602001828054801561066457602002820191906000526020600020905b815481526020019060010190808311610650575b5050505050815260200160058201548152602001600682015481526020016007820160009054906101000a900460ff1615151515815250509050919050565b83600460006101000a81548173ffffffffffffffffffffffffffffffffffffffff021916908373ffffffffffffffffffffffffffffffffffffffff16021790555082600560006101000a81548173ffffffffffffffffffffffffffffffffffffffff021916908373ffffffffffffffffffffffffffffffffffffffff16021790555081600660006101000a81548173ffffffffffffffffffffffffffffffffffffffff021916908373ffffffffffffffffffffffffffffffffffffffff16021790555080600760006101000a81548173ffffffffffffffffffffffffffffffffffffffff021916908373ffffffffffffffffffffffffffffffffffffffff16021790555050505050565b86600560009054906101000a900473ffffffffffffffffffffffffffffffffffffffff1673ffffffffffffffffffffffffffffffffffffffff1663757991a86040518163ffffffff1660e01b815260040160206040518083038186803b15801561081657600080fd5b505afa15801561082a573d6000803e3d6000fd5b505050506040513d601f19601f8201168201806040525061084e9190810190613ccb565b811461088f576040517f08c379a000000000000000000000000000000000000000000000000000000000815260040161088690614929565b60405180910390fd5b73__Constants_____________________________63c198f8ba6040518163ffffffff1660e01b815260040160206040518083038186803b1580156108d357600080fd5b505af41580156108e7573d6000803e3d6000fd5b505050506040513d601f19601f8201168201806040525061090b9190810190613f20565b60ff16600560009054906101000a900473ffffffffffffffffffffffffffffffffffffffff1673ffffffffffffffffffffffffffffffffffffffff16631865c57d6040518163ffffffff1660e01b815260040160206040518083038186803b15801561097657600080fd5b505afa15801561098a573d6000803e3d6000fd5b505050506040513d601f19601f820116820180604052506109ae9190810190613ccb565b81146109ef576040517f08c379a00000000000000000000000000000000000000000000000000000000081526004016109e6906149e9565b60405180910390fd5b6000600460009054906101000a900473ffffffffffffffffffffffffffffffffffffffff1673ffffffffffffffffffffffffffffffffffffffff16636022a485336040518263ffffffff1660e01b8152600401610a4c9190614705565b60206040518083038186803b158015610a6457600080fd5b505afa158015610a78573d6000803e3d6000fd5b505050506040513d601f19601f82011682018060405250610a9c9190810190613ccb565b9050610aa9858583610dd9565b610ae8576040517f08c379a0000000000000000000000000000000000000000000000000000000008152600401610adf90614889565b60405180910390fd5b73__Constants_____________________________63375b3c0a6040518163ffffffff1660e01b815260040160206040518083038186803b158015610b2c57600080fd5b505af4158015610b40573d6000803e3d6000fd5b505050506040513d601f19601f82011682018060405250610b649190810190613ccb565b600460009054906101000a900473ffffffffffffffffffffffffffffffffffffffff1673ffffffffffffffffffffffffffffffffffffffff1663e3c998fe836040518263ffffffff1660e01b8152600401610bbf9190614a4b565b6101006040518083038186803b158015610bd857600080fd5b505afa158015610bec573d6000803e3d6000fd5b505050506040513d601f19601f82011682018060405250610c109190810190613c78565b604001511015610c55576040517f08c379a0000000000000000000000000000000000000000000000000000000008152600401610c4c906149a9565b60405180910390fd5b6000610d4c8b6040518061010001604052808581526020018d81526020018c81526020018b81526020018a8152602001898152602001600460009054906101000a900473ffffffffffffffffffffffffffffffffffffffff1673ffffffffffffffffffffffffffffffffffffffff1663e3c998fe8a6040518263ffffffff1660e01b8152600401610ce69190614a4b565b6101006040518083038186803b158015610cff57600080fd5b505afa158015610d13573d6000803e3d6000fd5b505050506040513d601f19601f82011682018060405250610d379190810190613c78565b60400151815260200160011515815250612e33565b90507f43d4b4706539f9e22baf8767ebea21ad24f723f14b6981664ac4d0af596dddbe81604051610d7d9190614a4b565b60405180910390a17fee036cc96c88163f353feaa4d497e88baaebeb631f40ad9b8a6d51bb6fad40768b838c8c8c8c8c8c42604051610dc499989796959493929190614ac6565b60405180910390a15050505050505050505050565b600081610f40600173__Random________________________________635075dbfb600a600460009054906101000a900473ffffffffffffffffffffffffffffffffffffffff1673ffffffffffffffffffffffffffffffffffffffff1663bc788d466040518163ffffffff1660e01b815260040160206040518083038186803b158015610e6557600080fd5b505afa158015610e79573d6000803e3d6000fd5b505050506040513d601f19601f82011682018060405250610e9d9190810190613ccb565b8a604051602001610eae9190614a4b565b604051602081830303815290604052805190602001206040518463ffffffff1660e01b8152600401610ee2939291906147f2565b60206040518083038186803b158015610efa57600080fd5b505af4158015610f0e573d6000803e3d6000fd5b505050506040513d601f19601f82011682018060405250610f329190810190613ccb565b61348d90919063ffffffff16565b14610f4e57600090506111cb565b600073__Random________________________________63b07ceab8600a8588604051602001610f7f929190614a9d565b604051602081830303815290604052805190602001206040518363ffffffff1660e01b8152600401610fb29291906147c9565b60206040518083038186803b158015610fca57600080fd5b505af4158015610fde573d6000803e3d6000fd5b505050506040513d601f19601f820116820180604052506110029190810190613c4f565b905060006110216401000000008360001c6134e290919063ffffffff16565b90506000600460009054906101000a900473ffffffffffffffffffffffffffffffffffffffff1673ffffffffffffffffffffffffffffffffffffffff1663e3c998fe876040518263ffffffff1660e01b81526004016110809190614a4b565b6101006040518083038186803b15801561109957600080fd5b505afa1580156110ad573d6000803e3d6000fd5b505050506040513d601f19601f820116820180604052506110d19190810190613c78565b60400151905061119e640100000000600460009054906101000a900473ffffffffffffffffffffffffffffffffffffffff1673ffffffffffffffffffffffffffffffffffffffff1663e3c998fe886040518263ffffffff1660e01b815260040161113b9190614a4b565b6101006040518083038186803b15801561115457600080fd5b505afa158015611168573d6000803e3d6000fd5b505050506040513d601f19601f8201168201806040525061118c9190810190613c78565b6040015161353990919063ffffffff16565b6111b1828461353990919063ffffffff16565b11156111c357600093505050506111cb565b600193505050505b9392505050565b60006111e88260006135a990919063ffffffff16565b9050919050565b600560009054906101000a900473ffffffffffffffffffffffffffffffffffffffff1681565b60606003600083815260200190815260200160002060020180548060200260200160405190810160405280929190818152602001828054801561127757602002820191906000526020600020905b815481526020019060010190808311611263575b50505050509050809050919050565b81600560009054906101000a900473ffffffffffffffffffffffffffffffffffffffff1673ffffffffffffffffffffffffffffffffffffffff1663757991a86040518163ffffffff1660e01b815260040160206040518083038186803b1580156112ef57600080fd5b505afa158015611303573d6000803e3d6000fd5b505050506040513d601f19601f820116820180604052506113279190810190613ccb565b8114611368576040517f08c379a000000000000000000000000000000000000000000000000000000000815260040161135f90614929565b60405180910390fd5b73__Constants_____________________________63f240f7c36040518163ffffffff1660e01b815260040160206040518083038186803b1580156113ac57600080fd5b505af41580156113c0573d6000803e3d6000fd5b505050506040513d601f19601f820116820180604052506113e49190810190613f20565b60ff16600560009054906101000a900473ffffffffffffffffffffffffffffffffffffffff1673ffffffffffffffffffffffffffffffffffffffff16631865c57d6040518163ffffffff1660e01b815260040160206040518083038186803b15801561144f57600080fd5b505afa158015611463573d6000803e3d6000fd5b505050506040513d601f19601f820116820180604052506114879190810190613ccb565b81146114c8576040517f08c379a00000000000000000000000000000000000000000000000000000000081526004016114bf906149e9565b60405180910390fd5b60006001600086815260200190815260200160002060003373ffffffffffffffffffffffffffffffffffffffff1673ffffffffffffffffffffffffffffffffffffffff168152602001908152602001600020600501549050600660009054906101000a900473ffffffffffffffffffffffffffffffffffffffff1673ffffffffffffffffffffffffffffffffffffffff1663a6a145d986836040518363ffffffff1660e01b815260040161157d929190614a9d565b60206040518083038186803b15801561159557600080fd5b505afa1580156115a9573d6000803e3d6000fd5b505050506040513d601f19601f820116820180604052506115cd9190810190613ccb565b6001600087815260200190815260200160002060003373ffffffffffffffffffffffffffffffffffffffff1673ffffffffffffffffffffffffffffffffffffffff1681526020019081526020016000206000015414611661576040517f08c379a0000000000000000000000000000000000000000000000000000000008152600401611658906149c9565b60405180910390fd5b60006001600087815260200190815260200160002060003373ffffffffffffffffffffffffffffffffffffffff1673ffffffffffffffffffffffffffffffffffffffff16815260200190815260200160002060010154905060006002600088815260200190815260200160002086815481106116d957fe5b9060005260206000209060080201600001549050600082116116fa57600080fd5b8160026000898152602001908152602001600020878154811061171957fe5b9060005260206000209060080201600201848154811061173557fe5b90600052602060002001541461182357600060026000898152602001908152602001600020878154811061176557fe5b906000526020600020906008020160070160006101000a81548160ff021916908315150217905550600460009054906101000a900473ffffffffffffffffffffffffffffffffffffffff1673ffffffffffffffffffffffffffffffffffffffff16630f91ce1982338a6040518463ffffffff1660e01b81526004016117ec93929190614a66565b600060405180830381600087803b15801561180657600080fd5b505af115801561181a573d6000803e3d6000fd5b5050505061185e565b6040517f08c379a000000000000000000000000000000000000000000000000000000000815260040161185590614989565b60405180910390fd5b50505050505050565b600760009054906101000a900473ffffffffffffffffffffffffffffffffffffffff1681565b600660009054906101000a900473ffffffffffffffffffffffffffffffffffffffff1681565b82600560009054906101000a900473ffffffffffffffffffffffffffffffffffffffff1673ffffffffffffffffffffffffffffffffffffffff1663757991a86040518163ffffffff1660e01b815260040160206040518083038186803b15801561191c57600080fd5b505afa158015611930573d6000803e3d6000fd5b505050506040513d601f19601f820116820180604052506119549190810190613ccb565b8114611995576040517f08c379a000000000000000000000000000000000000000000000000000000000815260040161198c90614929565b60405180910390fd5b73__Constants_____________________________63f240f7c36040518163ffffffff1660e01b815260040160206040518083038186803b1580156119d957600080fd5b505af41580156119ed573d6000803e3d6000fd5b505050506040513d601f19601f82011682018060405250611a119190810190613f20565b60ff16600560009054906101000a900473ffffffffffffffffffffffffffffffffffffffff1673ffffffffffffffffffffffffffffffffffffffff16631865c57d6040518163ffffffff1660e01b815260040160206040518083038186803b158015611a7c57600080fd5b505afa158015611a90573d6000803e3d6000fd5b505050506040513d601f19601f82011682018060405250611ab49190810190613ccb565b8114611af5576040517f08c379a0000000000000000000000000000000000000000000000000000000008152600401611aec906149e9565b60405180910390fd5b6000611bb76002600660009054906101000a900473ffffffffffffffffffffffffffffffffffffffff1673ffffffffffffffffffffffffffffffffffffffff1663a6a145d989896040518363ffffffff1660e01b8152600401611b59929190614a9d565b60206040518083038186803b158015611b7157600080fd5b505afa158015611b85573d6000803e3d6000fd5b505050506040513d601f19601f82011682018060405250611ba99190810190613ccb565b61367190919063ffffffff16565b905060006001600088815260200190815260200160002060003373ffffffffffffffffffffffffffffffffffffffff1673ffffffffffffffffffffffffffffffffffffffff16815260200190815260200160002060000154905060006001600089815260200190815260200160002060003373ffffffffffffffffffffffffffffffffffffffff1673ffffffffffffffffffffffffffffffffffffffff1681526020019081526020016000206004015490506000600160008a815260200190815260200160002060003373ffffffffffffffffffffffffffffffffffffffff1673ffffffffffffffffffffffffffffffffffffffff168152602001908152602001600020600001541415611d225786600160008a815260200190815260200160002060003373ffffffffffffffffffffffffffffffffffffffff1673ffffffffffffffffffffffffffffffffffffffff16815260200190815260200160002060050181905550611db8565b86600160008a815260200190815260200160002060003373ffffffffffffffffffffffffffffffffffffffff1673ffffffffffffffffffffffffffffffffffffffff1681526020019081526020016000206005015414611db7576040517f08c379a0000000000000000000000000000000000000000000000000000000008152600401611dae90614969565b60405180910390fd5b5b60008090505b8651811015611ff75781878281518110611dd457fe5b602002602001015111611e1c576040517f08c379a0000000000000000000000000000000000000000000000000000000008152600401611e1390614849565b60405180910390fd5b868181518110611e2857fe5b60200260200101519150611f06600660009054906101000a900473ffffffffffffffffffffffffffffffffffffffff1673ffffffffffffffffffffffffffffffffffffffff16639c66556f8b8b8b8681518110611e8157fe5b60200260200101516040518463ffffffff1660e01b8152600401611ea793929190614bd0565b60206040518083038186803b158015611ebf57600080fd5b505afa158015611ed3573d6000803e3d6000fd5b505050506040513d601f19601f82011682018060405250611ef79190810190613ccb565b8461348d90919063ffffffff16565b92506000600160008b815260200190815260200160002060003373ffffffffffffffffffffffffffffffffffffffff1673ffffffffffffffffffffffffffffffffffffffff16815260200190815260200160002060010154148015611f6a57508383115b15611fdb57868181518110611f7b57fe5b6020026020010151600160008b815260200190815260200160002060003373ffffffffffffffffffffffffffffffffffffffff1673ffffffffffffffffffffffffffffffffffffffff168152602001908152602001600020600101819055505b6127105a1015611fea57611ff7565b8080600101915050611dbe565b5080600160008a815260200190815260200160002060003373ffffffffffffffffffffffffffffffffffffffff1673ffffffffffffffffffffffffffffffffffffffff1681526020019081526020016000206004018190555081600160008a815260200190815260200160002060003373ffffffffffffffffffffffffffffffffffffffff1673ffffffffffffffffffffffffffffffffffffffff168152602001908152602001600020600001819055505050505050505050565b80600560009054906101000a900473ffffffffffffffffffffffffffffffffffffffff1673ffffffffffffffffffffffffffffffffffffffff1663757991a86040518163ffffffff1660e01b815260040160206040518083038186803b15801561211b57600080fd5b505afa15801561212f573d6000803e3d6000fd5b505050506040513d601f19601f820116820180604052506121539190810190613ccb565b8114612194576040517f08c379a000000000000000000000000000000000000000000000000000000000815260040161218b90614929565b60405180910390fd5b73__Constants_____________________________63f240f7c36040518163ffffffff1660e01b815260040160206040518083038186803b1580156121d857600080fd5b505af41580156121ec573d6000803e3d6000fd5b505050506040513d601f19601f820116820180604052506122109190810190613f20565b60ff16600560009054906101000a900473ffffffffffffffffffffffffffffffffffffffff1673ffffffffffffffffffffffffffffffffffffffff16631865c57d6040518163ffffffff1660e01b815260040160206040518083038186803b15801561227b57600080fd5b505afa15801561228f573d6000803e3d6000fd5b505050506040513d601f19601f820116820180604052506122b39190810190613ccb565b81146122f4576040517f08c379a00000000000000000000000000000000000000000000000000000000081526004016122eb906149e9565b60405180910390fd5b6040518060c00160405280600081526020016000815260200160008152602001600081526020016000815260200160008152506001600085815260200190815260200160002060003373ffffffffffffffffffffffffffffffffffffffff1673ffffffffffffffffffffffffffffffffffffffff168152602001908152602001600020600082015181600001556020820151816001015560408201518160020155606082015181600301556080820151816004015560a08201518160050155905050505050565b600460009054906101000a900473ffffffffffffffffffffffffffffffffffffffff1681565b6001602052816000526040600020602052806000526040600020600091509150508060000154908060010154908060020154908060030154908060040154908060050154905086565b6002602052816000526040600020818154811061244357fe5b9060005260206000209060080201600091509150508060000154908060050154908060060154908060070160009054906101000a900460ff16905084565b61248a336111d2565b6124c9576040517f08c379a00000000000000000000000000000000000000000000000000000000081526004016124c090614a09565b60405180910390fd5b6000600560009054906101000a900473ffffffffffffffffffffffffffffffffffffffff1673ffffffffffffffffffffffffffffffffffffffff1663757991a86040518163ffffffff1660e01b815260040160206040518083038186803b15801561253357600080fd5b505afa158015612547573d6000803e3d6000fd5b505050506040513d601f19601f8201168201806040525061256b9190810190613ccb565b9050600060036000600184038152602001908152602001600020600001541480156125af575060006002600060018403815260200190815260200160002080549050115b15612a225760008090505b60026000600184038152602001908152602001600020805490508160ff161015612a2057600260006001840381526020019081526020016000208160ff168154811061260257fe5b906000526020600020906008020160070160009054906101000a900460ff1615612a1357600260006001840381526020019081526020016000208160ff168154811061264a57fe5b90600052602060002090600802016003600060018503815260200190815260200160002060008201548160000155600182018160010190805461268e929190613917565b5060028201816002019080546126a5929190613917565b5060038201816003019080546126bc929190613917565b5060048201816004019080546126d3929190613917565b5060058201548160050155600682015481600601556007820160009054906101000a900460ff168160070160006101000a81548160ff0219169083151502179055509050506000600260006001850381526020019081526020016000208260ff168154811061273e57fe5b90600052602060002090600802016000015490507fe9c8841ed2456dc770efbf4a9a61103f6f9ebc906085a3614a7e113627b31c9d6001840382600260006001880381526020019081526020016000208560ff168154811061279c57fe5b9060005260206000209060080201600201600260006001890381526020019081526020016000208660ff16815481106127d157fe5b9060005260206000209060080201600101426040516127f4959493929190614b6f565b60405180910390a160008090505b600260006001860381526020019081526020016000208360ff168154811061282657fe5b9060005260206000209060080201600101805490508160ff16101561297b57600760009054906101000a900473ffffffffffffffffffffffffffffffffffffffff1673ffffffffffffffffffffffffffffffffffffffff166356350bdf600260006001880381526020019081526020016000208560ff16815481106128a757fe5b90600052602060002090600802016001018360ff16815481106128c657fe5b9060005260206000200154600260006001890381526020019081526020016000208660ff16815481106128f557fe5b90600052602060002090600802016002018460ff168154811061291457fe5b90600052602060002001546040518363ffffffff1660e01b815260040161293c929190614a9d565b600060405180830381600087803b15801561295657600080fd5b505af115801561296a573d6000803e3d6000fd5b505050508080600101915050612802565b50600460009054906101000a900473ffffffffffffffffffffffffffffffffffffffff1673ffffffffffffffffffffffffffffffffffffffff1663746c8b6582856040518363ffffffff1660e01b81526004016129d9929190614a9d565b600060405180830381600087803b1580156129f357600080fd5b505af1158015612a07573d6000803e3d6000fd5b50505050505050612a24565b80806001019150506125ba565b505b505b565b612a2e6138d0565b600260008481526020019081526020016000208281548110612a4c57fe5b9060005260206000209060080201604051806101000160405290816000820154815260200160018201805480602002602001604051908101604052809291908181526020018280548015612abf57602002820191906000526020600020905b815481526020019060010190808311612aab575b5050505050815260200160028201805480602002602001604051908101604052809291908181526020018280548015612b1757602002820191906000526020600020905b815481526020019060010190808311612b03575b5050505050815260200160038201805480602002602001604051908101604052809291908181526020018280548015612b6f57602002820191906000526020600020905b815481526020019060010190808311612b5b575b5050505050815260200160048201805480602002602001604051908101604052809291908181526020018280548015612bc757602002820191906000526020600020905b815481526020019060010190808311612bb3575b5050505050815260200160058201548152602001600682015481526020016007820160009054906101000a900460ff161515151581525050905080905092915050565b6060600260008481526020019081526020016000208281548110612c2a57fe5b9060005260206000209060080201600201805480602002602001604051908101604052809291908181526020018280548015612c8557602002820191906000526020600020905b815481526020019060010190808311612c71575b5050505050905080905092915050565b606060036000838152602001908152602001600020600301805480602002602001604051908101604052809291908181526020018280548015612cf757602002820191906000526020600020905b815481526020019060010190808311612ce3575b50505050509050809050919050565b612d0f336111d2565b612d4e576040517f08c379a0000000000000000000000000000000000000000000000000000000008152600401612d4590614a09565b60405180910390fd5b612d57816136cd565b50565b612d6333613727565b565b600060026000838152602001908152602001600020805490509050919050565b60036020528060005260406000206000915090508060000154908060050154908060060154908060070160009054906101000a900460ff16905084565b606060036000838152602001908152602001600020600401805480602002602001604051908101604052809291908181526020018280548015612e2457602002820191906000526020600020905b815481526020019060010190808311612e10575b50505050509050809050919050565b60008060026000858152602001908152602001600020805490501415612f5057600260008481526020019081526020016000208290806001815401808255809150509060018203906000526020600020906008020160009091929091909150600082015181600001556020820151816001019080519060200190612eb8929190613969565b506040820151816002019080519060200190612ed5929190613969565b506060820151816003019080519060200190612ef2929190613969565b506080820151816004019080519060200190612f0f929190613969565b5060a0820151816005015560c0820151816006015560e08201518160070160006101000a81548160ff02191690831515021790555050505060009050613487565b60006002600085815260200190815260200160002080549050905060008090505b6002600086815260200190815260200160002080549050811015613022578360c00151600260008781526020019081526020016000208281548110612fb257fe5b9060005260206000209060080201600601541015612fd257809150613022565b8360a00151600260008781526020019081526020016000208281548110612ff557fe5b906000526020600020906008020160050154111561301557809150613022565b8080600101915050612f71565b50600260008581526020019081526020016000208390806001815401808255809150509060018203906000526020600020906008020160009091929091909150600082015181600001556020820151816001019080519060200190613088929190613969565b5060408201518160020190805190602001906130a5929190613969565b5060608201518160030190805190602001906130c2929190613969565b5060808201518160040190805190602001906130df929190613969565b5060a0820151816005015560c0820151816006015560e08201518160070160006101000a81548160ff0219169083151502179055505050506000600160026000878152602001908152602001600020805490500390505b818111156132515760026000868152602001908152602001600020600182038154811061315f57fe5b906000526020600020906008020160026000878152602001908152602001600020828154811061318b57fe5b90600052602060002090600802016000820154816000015560018201816001019080546131b9929190613917565b5060028201816002019080546131d0929190613917565b5060038201816003019080546131e7929190613917565b5060048201816004019080546131fe929190613917565b5060058201548160050155600682015481600601556007820160009054906101000a900460ff168160070160006101000a81548160ff021916908315150217905550905050808060019003915050613136565b508260026000868152602001908152602001600020828154811061327157fe5b90600052602060002090600802016000820151816000015560208201518160010190805190602001906132a5929190613969565b5060408201518160020190805190602001906132c2929190613969565b5060608201518160030190805190602001906132df929190613969565b5060808201518160040190805190602001906132fc929190613969565b5060a0820151816005015560c0820151816006015560e08201518160070160006101000a81548160ff02191690831515021790555090505073__Constants_____________________________63379597e06040518163ffffffff1660e01b815260040160206040518083038186803b15801561337857600080fd5b505af415801561338c573d6000803e3d6000fd5b505050506040513d601f19601f820116820180604052506133b09190810190613ccb565b60026000868152602001908152602001600020805490501115613482576002600085815260200190815260200160002060016002600087815260200190815260200160002080549050038154811061340457fe5b906000526020600020906008020160008082016000905560018201600061342b91906139b6565b60028201600061343b91906139b6565b60038201600061344b91906139b6565b60048201600061345b91906139b6565b600582016000905560068201600090556007820160006101000a81549060ff021916905550505b809150505b92915050565b6000808284019050838110156134d8576040517f08c379a00000000000000000000000000000000000000000000000000000000081526004016134cf90614869565b60405180910390fd5b8091505092915050565b600080821415613527576040517f08c379a000000000000000000000000000000000000000000000000000000000815260040161351e906148c9565b60405180910390fd5b81838161353057fe5b06905092915050565b60008083141561354c57600090506135a3565b600082840290508284828161355d57fe5b041461359e576040517f08c379a000000000000000000000000000000000000000000000000000000000815260040161359590614909565b60405180910390fd5b809150505b92915050565b60008073ffffffffffffffffffffffffffffffffffffffff168273ffffffffffffffffffffffffffffffffffffffff16141561361a576040517f08c379a000000000000000000000000000000000000000000000000000000000815260040161361190614949565b60405180910390fd5b8260000160008373ffffffffffffffffffffffffffffffffffffffff1673ffffffffffffffffffffffffffffffffffffffff16815260200190815260200160002060009054906101000a900460ff16905092915050565b60008082116136b5576040517f08c379a00000000000000000000000000000000000000000000000000000000081526004016136ac906148a9565b60405180910390fd5b60008284816136c057fe5b0490508091505092915050565b6136e181600061378190919063ffffffff16565b8073ffffffffffffffffffffffffffffffffffffffff167f6ff3aa2ea7b53070f6d9d07a445d338d89e8edef44250ffa8be19f53910d4a2e60405160405180910390a250565b61373b81600061382990919063ffffffff16565b8073ffffffffffffffffffffffffffffffffffffffff167f86e5bbceda94081c32220d685f37cc4e3ea7bb0be2dfbf0cb703579505a5390e60405160405180910390a250565b61378b82826135a9565b156137cb576040517f08c379a00000000000000000000000000000000000000000000000000000000081526004016137c290614829565b60405180910390fd5b60018260000160008373ffffffffffffffffffffffffffffffffffffffff1673ffffffffffffffffffffffffffffffffffffffff16815260200190815260200160002060006101000a81548160ff0219169083151502179055505050565b61383382826135a9565b613872576040517f08c379a0000000000000000000000000000000000000000000000000000000008152600401613869906148e9565b60405180910390fd5b60008260000160008373ffffffffffffffffffffffffffffffffffffffff1673ffffffffffffffffffffffffffffffffffffffff16815260200190815260200160002060006101000a81548160ff0219169083151502179055505050565b604051806101000160405280600081526020016060815260200160608152602001606081526020016060815260200160008152602001600081526020016000151581525090565b8280548282559060005260206000209081019282156139585760005260206000209182015b8281111561395757825482559160010191906001019061393c565b5b50905061396591906139d7565b5090565b8280548282559060005260206000209081019282156139a5579160200282015b828111156139a4578251825591602001919060010190613989565b5b5090506139b291906139d7565b5090565b50805460008255906000526020600020908101906139d491906139d7565b50565b6139f991905b808211156139f55760008160009055506001016139dd565b5090565b90565b600081359050613a0b81614f2d565b92915050565b600081519050613a2081614f2d565b92915050565b600082601f830112613a3757600080fd5b8135613a4a613a4582614cda565b614cad565b91508181835260208401935060208101905083856020840282011115613a6f57600080fd5b60005b83811015613a9f5781613a858882613b84565b845260208401935060208301925050600181019050613a72565b5050505092915050565b600081519050613ab881614f44565b92915050565b60006101008284031215613ad157600080fd5b613adc610100614cad565b90506000613aec84828501613b99565b6000830152506020613b0084828501613a11565b6020830152506040613b1484828501613b99565b6040830152506060613b2884828501613b99565b6060830152506080613b3c84828501613b99565b60808301525060a0613b5084828501613b99565b60a08301525060c0613b6484828501613b99565b60c08301525060e0613b7884828501613b99565b60e08301525092915050565b600081359050613b9381614f5b565b92915050565b600081519050613ba881614f5b565b92915050565b600081519050613bbd81614f72565b92915050565b600060208284031215613bd557600080fd5b6000613be3848285016139fc565b91505092915050565b60008060008060808587031215613c0257600080fd5b6000613c10878288016139fc565b9450506020613c21878288016139fc565b9350506040613c32878288016139fc565b9250506060613c43878288016139fc565b91505092959194509250565b600060208284031215613c6157600080fd5b6000613c6f84828501613aa9565b91505092915050565b60006101008284031215613c8b57600080fd5b6000613c9984828501613abe565b91505092915050565b600060208284031215613cb457600080fd5b6000613cc284828501613b84565b91505092915050565b600060208284031215613cdd57600080fd5b6000613ceb84828501613b99565b91505092915050565b60008060408385031215613d0757600080fd5b6000613d1585828601613b84565b9250506020613d26858286016139fc565b9150509250929050565b600080600080600080600060e0888a031215613d4b57600080fd5b6000613d598a828b01613b84565b975050602088013567ffffffffffffffff811115613d7657600080fd5b613d828a828b01613a26565b965050604088013567ffffffffffffffff811115613d9f57600080fd5b613dab8a828b01613a26565b955050606088013567ffffffffffffffff811115613dc857600080fd5b613dd48a828b01613a26565b945050608088013567ffffffffffffffff811115613df157600080fd5b613dfd8a828b01613a26565b93505060a0613e0e8a828b01613b84565b92505060c0613e1f8a828b01613b84565b91505092959891949750929550565b60008060408385031215613e4157600080fd5b6000613e4f85828601613b84565b9250506020613e6085828601613b84565b9150509250929050565b600080600060608486031215613e7f57600080fd5b6000613e8d86828701613b84565b9350506020613e9e86828701613b84565b925050604084013567ffffffffffffffff811115613ebb57600080fd5b613ec786828701613a26565b9150509250925092565b600080600060608486031215613ee657600080fd5b6000613ef486828701613b84565b9350506020613f0586828701613b84565b9250506040613f1686828701613b84565b9150509250925092565b600060208284031215613f3257600080fd5b6000613f4084828501613bae565b91505092915050565b6000613f5583836146d8565b60208301905092915050565b613f6a81614e1b565b82525050565b6000613f7b82614d42565b613f858185614d90565b9350613f9083614d12565b8060005b83811015613fc1578151613fa88882613f49565b9750613fb383614d65565b925050600181019050613f94565b5085935050505092915050565b6000613fd982614d37565b613fe38185614d7f565b9350613fee83614d02565b8060005b8381101561401f5781516140068882613f49565b975061401183614d58565b925050600181019050613ff2565b5085935050505092915050565b600061403782614d4d565b6140418185614d90565b935061404c83614d22565b8060005b838110156140845761406182614f0d565b61406b8882613f49565b975061407683614d72565b925050600181019050614050565b5085935050505092915050565b61409a81614dce565b82525050565b6140a981614dce565b82525050565b6140b881614dda565b82525050565b6140c781614e2d565b82525050565b6140d681614e51565b82525050565b6140e581614e75565b82525050565b6140f481614e99565b82525050565b61410381614ebd565b82525050565b6000614116601f83614da1565b91507f526f6c65733a206163636f756e7420616c72656164792068617320726f6c65006000830152602082019050919050565b6000614156602983614da1565b91507f736f727465645b695d206973206e6f742067726561746572207468616e206c6160008301527f73745669736974656400000000000000000000000000000000000000000000006020830152604082019050919050565b60006141bc601b83614da1565b91507f536166654d6174683a206164646974696f6e206f766572666c6f7700000000006000830152602082019050919050565b60006141fc600b83614da1565b91507f6e6f7420656c65637465640000000000000000000000000000000000000000006000830152602082019050919050565b600061423c601a83614da1565b91507f536166654d6174683a206469766973696f6e206279207a65726f0000000000006000830152602082019050919050565b600061427c601883614da1565b91507f536166654d6174683a206d6f64756c6f206279207a65726f00000000000000006000830152602082019050919050565b60006142bc602183614da1565b91507f526f6c65733a206163636f756e7420646f6573206e6f74206861766520726f6c60008301527f65000000000000000000000000000000000000000000000000000000000000006020830152604082019050919050565b6000614322602183614da1565b91507f536166654d6174683a206d756c7469706c69636174696f6e206f766572666c6f60008301527f77000000000000000000000000000000000000000000000000000000000000006020830152604082019050919050565b6000614388600f83614da1565b91507f696e636f72726563742065706f636800000000000000000000000000000000006000830152602082019050919050565b60006143c8602283614da1565b91507f526f6c65733a206163636f756e7420697320746865207a65726f20616464726560008301527f73730000000000000000000000000000000000000000000000000000000000006020830152604082019050919050565b600061442e601483614da1565b91507f41737365744964206e6f74206d61746368696e670000000000000000000000006000830152602082019050919050565b600061446e603783614da1565b91507f50726f706f73656420416c7465726e61746520626c6f636b206973206964656e60008301527f746963616c20746f2070726f706f73656420626c6f636b0000000000000000006020830152604082019050919050565b60006144d4601983614da1565b91507f7374616b652062656c6f77206d696e696d756d207374616b65000000000000006000830152602082019050919050565b6000614514602183614da1565b91507f546f74616c207374616b652072657665616c656420646f65736e74206d61746360008301527f68000000000000000000000000000000000000000000000000000000000000006020830152604082019050919050565b600061457a600f83614da1565b91507f696e636f727265637420737461746500000000000000000000000000000000006000830152602082019050919050565b60006145ba603083614da1565b91507f577269746572526f6c653a2063616c6c657220646f6573206e6f74206861766560008301527f207468652057726974657220726f6c65000000000000000000000000000000006020830152604082019050919050565b60006101008301600083015161462c60008601826146d8565b50602083015184820360208601526146448282613fce565b9150506040830151848203604086015261465e8282613fce565b915050606083015184820360608601526146788282613fce565b915050608083015184820360808601526146928282613fce565b91505060a08301516146a760a08601826146d8565b5060c08301516146ba60c08601826146d8565b5060e08301516146cd60e0860182614091565b508091505092915050565b6146e181614e04565b82525050565b6146f081614e04565b82525050565b6146ff81614e04565b82525050565b600060208201905061471a6000830184613f61565b92915050565b6000602082019050818103600083015261473a8184613f70565b905092915050565b600060208201905061475760008301846140a0565b92915050565b600060208201905061477260008301846140be565b92915050565b600060208201905061478d60008301846140cd565b92915050565b60006020820190506147a860008301846140dc565b92915050565b60006020820190506147c360008301846140eb565b92915050565b60006040820190506147de60008301856140fa565b6147eb60208301846140af565b9392505050565b600060608201905061480760008301866140fa565b61481460208301856146f6565b61482160408301846140af565b949350505050565b6000602082019050818103600083015261484281614109565b9050919050565b6000602082019050818103600083015261486281614149565b9050919050565b60006020820190508181036000830152614882816141af565b9050919050565b600060208201905081810360008301526148a2816141ef565b9050919050565b600060208201905081810360008301526148c28161422f565b9050919050565b600060208201905081810360008301526148e28161426f565b9050919050565b60006020820190508181036000830152614902816142af565b9050919050565b6000602082019050818103600083015261492281614315565b9050919050565b600060208201905081810360008301526149428161437b565b9050919050565b60006020820190508181036000830152614962816143bb565b9050919050565b6000602082019050818103600083015261498281614421565b9050919050565b600060208201905081810360008301526149a281614461565b9050919050565b600060208201905081810360008301526149c2816144c7565b9050919050565b600060208201905081810360008301526149e281614507565b9050919050565b60006020820190508181036000830152614a028161456d565b9050919050565b60006020820190508181036000830152614a22816145ad565b9050919050565b60006020820190508181036000830152614a438184614613565b905092915050565b6000602082019050614a6060008301846146e7565b92915050565b6000606082019050614a7b60008301866146e7565b614a886020830185613f61565b614a9560408301846146e7565b949350505050565b6000604082019050614ab260008301856146e7565b614abf60208301846146e7565b9392505050565b600061012082019050614adc600083018c6146e7565b614ae9602083018b6146e7565b8181036040830152614afb818a613f70565b90508181036060830152614b0f8189613f70565b90508181036080830152614b238188613f70565b905081810360a0830152614b378187613f70565b9050614b4660c08301866146e7565b614b5360e08301856146e7565b614b616101008301846146e7565b9a9950505050505050505050565b600060a082019050614b8460008301886146e7565b614b9160208301876146e7565b8181036040830152614ba3818661402c565b90508181036060830152614bb7818561402c565b9050614bc660808301846146e7565b9695505050505050565b6000606082019050614be560008301866146e7565b614bf260208301856146e7565b614bff60408301846146e7565b949350505050565b6000608082019050614c1c60008301876146e7565b614c2960208301866146e7565b614c3660408301856146e7565b614c4360608301846140a0565b95945050505050565b600060c082019050614c6160008301896146e7565b614c6e60208301886146e7565b614c7b60408301876146e7565b614c8860608301866146e7565b614c9560808301856146e7565b614ca260a08301846146e7565b979650505050505050565b6000604051905081810181811067ffffffffffffffff82111715614cd057600080fd5b8060405250919050565b600067ffffffffffffffff821115614cf157600080fd5b602082029050602081019050919050565b6000819050602082019050919050565b6000819050602082019050919050565b60008190508160005260206000209050919050565b600081519050919050565b600081519050919050565b600081549050919050565b6000602082019050919050565b6000602082019050919050565b6000600182019050919050565b600082825260208201905092915050565b600082825260208201905092915050565b600082825260208201905092915050565b6000819050919050565b6000614dc782614de4565b9050919050565b60008115159050919050565b6000819050919050565b600073ffffffffffffffffffffffffffffffffffffffff82169050919050565b6000819050919050565b600060ff82169050919050565b6000614e2682614ecf565b9050919050565b6000614e3882614e3f565b9050919050565b6000614e4a82614de4565b9050919050565b6000614e5c82614e63565b9050919050565b6000614e6e82614de4565b9050919050565b6000614e8082614e87565b9050919050565b6000614e9282614de4565b9050919050565b6000614ea482614eab565b9050919050565b6000614eb682614de4565b9050919050565b6000614ec882614e0e565b9050919050565b6000614eda82614ee1565b9050919050565b6000614eec82614de4565b9050919050565b6000614f06614f0183614f20565b614db2565b9050919050565b6000614f198254614ef3565b9050919050565b60008160001c9050919050565b614f3681614dbc565b8114614f4157600080fd5b50565b614f4d81614dda565b8114614f5857600080fd5b50565b614f6481614e04565b8114614f6f57600080fd5b50565b614f7b81614e0e565b8114614f8657600080fd5b5056fea365627a7a72305820df397e6ae3366ae17cd1e877e347f40826b8516006e57033580d58cafe14bd7c6c6578706572696d656e74616cf564736f6c634300050a0040",
  "source": "pragma solidity 0.5.10;\npragma experimental ABIEncoderV2;\nimport \"../lib/Random.sol\";\n// import \"../SimpleToken.sol\";\nimport \"./Utils.sol\";\nimport \"./BlockStorage.sol\";\nimport \"./IStakeManager.sol\";\nimport \"./IStateManager.sol\";\nimport \"./IVoteManager.sol\";\nimport \"./IJobManager.sol\";\nimport \"openzeppelin-solidity/contracts/math/SafeMath.sol\";\nimport \"./WriterRole.sol\";\n\n\ncontract BlockManager is Utils, WriterRole, BlockStorage {\n    using SafeMath for uint256;\n\n    IStakeManager public stakeManager;\n    IStateManager public stateManager;\n    IVoteManager public voteManager;\n    IJobManager public jobManager;\n\n    modifier checkEpoch (uint256 epoch) {\n        require(epoch == stateManager.getEpoch(), \"incorrect epoch\");\n        _;\n    }\n\n    modifier checkState (uint256 state) {\n        require(state == stateManager.getState(), \"incorrect state\");\n        _;\n    }\n\n    function getBlock(uint256 epoch) external view returns(Structs.Block memory _block) {\n        return(blocks[epoch]);\n    }\n\n    function getBlockMedians(uint256 epoch) external view returns(uint256[] memory _blockMedians) {\n        _blockMedians = blocks[epoch].medians;\n        return(_blockMedians);\n    }\n\n    function getLowerCutoffs(uint256 epoch) external view returns(uint256[] memory _lowerCutoffs) {\n        _lowerCutoffs = blocks[epoch].lowerCutoffs;\n        return(_lowerCutoffs);\n    }\n\n    function getHigherCutoffs(uint256 epoch) external view returns(uint256[] memory _higherCutoffs) {\n        _higherCutoffs = blocks[epoch].higherCutoffs;\n        return(_higherCutoffs);\n    }\n\n    function getProposedBlock(uint256 epoch, uint256 proposedBlock)\n    external view returns(Structs.Block memory _block) {\n        _block = proposedBlocks[epoch][proposedBlock];\n        return(_block);\n    }\n\n    function getProposedBlockMedians(uint256 epoch, uint256 proposedBlock)\n    external view returns(uint256[] memory _blockMedians) {\n        _blockMedians = proposedBlocks[epoch][proposedBlock].medians;\n        return(_blockMedians);\n    }\n\n    function getNumProposedBlocks(uint256 epoch)\n    external view returns(uint256) {\n        return(proposedBlocks[epoch].length);\n    }\n\n    //disable after init.\n    function init(address _stakeManagerAddress, address _stateManagerAddress,\n                address _voteManagerAddress, address _jobManagerAddress) public {\n        stakeManager = IStakeManager(_stakeManagerAddress);\n        stateManager = IStateManager(_stateManagerAddress);\n        voteManager = IVoteManager(_voteManagerAddress);\n        jobManager = IJobManager(_jobManagerAddress);\n    }\n\n    event Proposed(uint256 epoch,\n                    uint256 stakerId,\n                    uint256[] jobIds,\n                    uint256[] medians,\n                    uint256[] lowerCutoffs,\n                    uint256[] higherCutoffs,\n                    uint256 iteration,\n                    uint256 biggestStakerId,\n                    uint256 timestamp);\n\n    // elected proposer proposes block. we use a probabilistic method to elect stakers weighted by stake\n    // protocol works like this. select a staker pseudorandomly (not weighted by anything)\n    // (todo what if it is below min stake)\n    // that staker then tosses a biased coin. bias = hisStake/biggestStake. if its heads, he can propose block\n    // end of iteration. try next iteration\n    // note that only one staker or no stakers selected in each iteration.\n    // stakers elected in higher iterations can also propose hoping that\n    // stakers with lower iteration do not propose for some reason\n    function propose (uint256 epoch,\n                    uint256[] memory jobIds,\n                    uint256[] memory medians,\n                    uint256[] memory lowerCutoffs,\n                    uint256[] memory higherCutoffs,\n                    uint256 iteration,\n                    uint256 biggestStakerId) public checkEpoch(epoch) checkState(Constants.propose()) {\n        uint256 proposerId = stakeManager.getStakerId(msg.sender);\n        // SimpleToken sch = SimpleToken(schAddress);\n        require(isElectedProposer(iteration, biggestStakerId, proposerId), \"not elected\");\n        require(stakeManager.getStaker(proposerId).stake >= Constants.minStake(), \"stake below minimum stake\");\n\n        // check if someone already proposed\n        // if (blocks[epoch].proposerId != 0) {\n        //     if (blocks[epoch].proposerId == proposerId) {\n        //         revert(\"Already Proposed\");\n        //     }\n        //     // if (stakers[biggestStakerId].stake == blocks[epoch].biggestStake &&\n        //     //     proposedBlocks[epoch].length >= Constants.maxAltBlocks()) {\n        //     //\n        //     //     require(proposedBlocks[epoch][4].iteration > iteration,\n        //     //             \"iteration not smaller than last elected staker\");\n        //     // } else\n        //     if (stakers[biggestStakerId].stake < blocks[epoch].biggestStake) {\n        //         revert(\"biggest stakers stake not bigger than as proposed by existing elected staker \");\n        //     }\n        // }\n        // blocks[epoch]\n        uint256 pushAt = _insertAppropriately(epoch, Structs.Block(proposerId,\n                                        jobIds,\n                                        medians,\n                                        lowerCutoffs,\n                                        higherCutoffs,\n                                        iteration,\n                                        stakeManager.getStaker(biggestStakerId).stake,\n                                        true));\n        emit DebugUint256(pushAt);\n        // mint and give block reward\n        // if (Constants.blockReward() > 0) {\n        //     stakers[proposerId].stake = stakers[proposerId].stake.add(Constants.blockReward());\n        //     totalStake = totalStake.add(Constants.blockReward());\n        //     require(sch.mint(address(this), Constants.blockReward()));\n        // }\n        emit Proposed(epoch, proposerId, jobIds, medians, lowerCutoffs, higherCutoffs, iteration, biggestStakerId, now);\n    }\n\n    //anyone can give sorted votes in batches in dispute state\n    function giveSorted (uint256 epoch, uint256 assetId, uint256[] memory sorted) public\n    checkEpoch(epoch) checkState(Constants.dispute()) {\n        uint256 medianWeight = voteManager.getTotalStakeRevealed(epoch, assetId).div(2);\n        //accWeight = accumulatedWeight\n        uint256 accWeight = disputes[epoch][msg.sender].accWeight;\n        uint256 lastVisited = disputes[epoch][msg.sender].lastVisited;\n        if (disputes[epoch][msg.sender].accWeight == 0) {\n            disputes[epoch][msg.sender].assetId = assetId;\n        } else {\n            require(disputes[epoch][msg.sender].assetId == assetId, \"AssetId not matching\");\n        }\n        for (uint256 i = 0; i < sorted.length; i++) {\n            require(sorted[i] > lastVisited, \"sorted[i] is not greater than lastVisited\");\n            lastVisited = sorted[i];\n            accWeight = accWeight.add(voteManager.getVoteWeight(epoch, assetId, sorted[i]));\n            //set  median, if conditions meet\n            if (disputes[epoch][msg.sender].median == 0 && accWeight > medianWeight) {\n                disputes[epoch][msg.sender].median = sorted[i];\n            }\n            //TODO verify how much gas required for below operations and update this value\n            if (gasleft() < 10000) break;\n        }\n        disputes[epoch][msg.sender].lastVisited = lastVisited;\n        disputes[epoch][msg.sender].accWeight = accWeight;\n    }\n\n    // //todo test\n    // //if any mistake made during giveSorted, resetDispute and start again\n    function resetDispute (uint256 epoch) public checkEpoch(epoch) checkState(Constants.dispute()) {\n        disputes[epoch][msg.sender] = Structs.Dispute(0, 0, 0, 0, 0 ,0);\n    }\n\n    function finalizeDispute (uint256 epoch, uint256 blockId)\n    public checkEpoch(epoch) checkState(Constants.dispute()) {\n        uint256 assetId = disputes[epoch][msg.sender].assetId;\n        require(disputes[epoch][msg.sender].accWeight == voteManager.getTotalStakeRevealed(epoch, assetId),\n        \"Total stake revealed doesnt match\");\n        uint256 median = disputes[epoch][msg.sender].median;\n        uint256 proposerId = proposedBlocks[epoch][blockId].proposerId;\n        //\n        require(median > 0);\n        if (proposedBlocks[epoch][blockId].medians[assetId] != median) {\n            proposedBlocks[epoch][blockId].valid = false;\n            stakeManager.slash(proposerId, msg.sender, epoch);\n        } else {\n            revert(\"Proposed Alternate block is identical to proposed block\");\n        }\n    }\n\n    function isElectedProposer(uint256 iteration, uint256 biggestStakerId, uint256 stakerId) public view returns(bool) {\n       // rand = 0 -> totalStake-1\n       //add +1 since prng returns 0 to max-1 and staker start from 1\n        if ((Random.prng(10, stakeManager.getNumStakers(), keccak256(abi.encode(iteration))).add(1))\n        != stakerId) {return(false);}\n        bytes32 randHash = Random.prngHash(10, keccak256(abi.encode(stakerId, iteration)));\n        uint256 rand = uint256(randHash).mod(2**32);\n        uint256 biggestStake = stakeManager.getStaker(biggestStakerId).stake;\n        if (rand.mul(biggestStake) > stakeManager.getStaker(stakerId).stake.mul(2**32)) return(false);\n        return(true);\n    }\n\n    event BlockConfirmed(uint256 epoch,\n                    uint256 stakerId,\n                    uint256[] medians,\n                    uint256[] jobIds,\n                    uint256 timestamp);\n\n    function confirmBlock() public onlyWriter {\n        uint256 epoch = stateManager.getEpoch();\n        if (blocks[epoch - 1].proposerId == 0 && proposedBlocks[epoch - 1].length > 0) {\n            for (uint8 i=0; i < proposedBlocks[epoch - 1].length; i++) {\n                if (proposedBlocks[epoch - 1][i].valid) {\n                    blocks[epoch - 1] = proposedBlocks[epoch - 1][i];\n                    uint256 proposerId = proposedBlocks[epoch - 1][i].proposerId;\n                    emit BlockConfirmed(epoch - 1, proposerId, proposedBlocks[epoch - 1][i].medians,\n                    proposedBlocks[epoch - 1][i].jobIds, now);\n                    for (uint8 j = 0; j < proposedBlocks[epoch - 1][i].jobIds.length; j++) {\n                        jobManager.fulfillJob(proposedBlocks[epoch - 1][i].jobIds[j],\n                                            proposedBlocks[epoch - 1][i].medians[j]);\n                    }\n                    stakeManager.giveBlockReward(proposerId, epoch);\n                    return;\n                }\n            }\n        }\n    }\n\n    function _insertAppropriately(uint256 epoch, Structs.Block memory _block) internal returns(uint256) {\n       // uint256 iteration = _block.iteration;\n        if (proposedBlocks[epoch].length == 0) {\n            proposedBlocks[epoch].push(_block);\n            return(0);\n        }\n       // Structs.Block[] memory temp = proposedBlocks[epoch];\n       // delete (proposedBlocks[epoch]);\n       // bool pushed = false;\n       // bool empty = true;\n        uint256 pushAt = proposedBlocks[epoch].length;\n        for (uint256 i = 0; i < proposedBlocks[epoch].length; i++) {\n            if (proposedBlocks[epoch][i].biggestStake < _block.biggestStake) {\n                pushAt = i;\n                break;\n            }\n            if (proposedBlocks[epoch][i].iteration > _block.iteration) {\n                pushAt = i;\n                break;\n            }\n        }\n\n        proposedBlocks[epoch].push(_block);\n        for (uint256 j = proposedBlocks[epoch].length - 1; j > (pushAt); j--) {\n            proposedBlocks[epoch][j] = proposedBlocks[epoch][j - 1];\n        }\n        // if (pushAt < proposedBlocks[epoch].length) {\n\n        proposedBlocks[epoch][pushAt] = _block;\n        // }\n        // if (pushed == false && temp.length < Constants.maxAltBlocks()) {\n        //     proposedBlocks[epoch].push(_block);\n        // }\n        if (proposedBlocks[epoch].length > Constants.maxAltBlocks()) {\n            delete (proposedBlocks[epoch][proposedBlocks[epoch].length - 1]);\n        }\n        return(pushAt);\n    }\n\n\n}\n",
  "sourcePath": "/Users/hrishi/contracts/contracts/Schelling4/BlockManager.sol",
  "compiler": {
    "name": "solc",
    "version": "0.5.10+commit.5a6ea5b1.Emscripten.clang"
  },
  "schemaVersion": "3.0.11",
  "updatedAt": "2019-09-23T10:21:32.266Z",
  "devdoc": {
    "methods": {}
  },
  "userdoc": {
    "methods": {}
  }
}