{
  "contractName": "BlockManager",
  "abi": [
    {
      "constant": true,
      "inputs": [
        {
          "name": "account",
          "type": "address"
        }
      ],
      "name": "isWriter",
      "outputs": [
        {
          "name": "",
          "type": "bool"
        }
      ],
      "payable": false,
      "stateMutability": "view",
      "type": "function"
    },
    {
      "constant": true,
      "inputs": [],
      "name": "stateManager",
      "outputs": [
        {
          "name": "",
          "type": "address"
        }
      ],
      "payable": false,
      "stateMutability": "view",
      "type": "function"
    },
    {
      "constant": true,
      "inputs": [],
      "name": "jobManager",
      "outputs": [
        {
          "name": "",
          "type": "address"
        }
      ],
      "payable": false,
      "stateMutability": "view",
      "type": "function"
    },
    {
      "constant": true,
      "inputs": [],
      "name": "voteManager",
      "outputs": [
        {
          "name": "",
          "type": "address"
        }
      ],
      "payable": false,
      "stateMutability": "view",
      "type": "function"
    },
    {
      "constant": true,
      "inputs": [],
      "name": "stakeManager",
      "outputs": [
        {
          "name": "",
          "type": "address"
        }
      ],
      "payable": false,
      "stateMutability": "view",
      "type": "function"
    },
    {
      "constant": true,
      "inputs": [
        {
          "name": "",
          "type": "uint256"
        },
        {
          "name": "",
          "type": "address"
        }
      ],
      "name": "disputes",
      "outputs": [
        {
          "name": "accWeight",
          "type": "uint256"
        },
        {
          "name": "median",
          "type": "uint256"
        },
        {
          "name": "lastVisited",
          "type": "uint256"
        },
        {
          "name": "assetId",
          "type": "uint256"
        }
      ],
      "payable": false,
      "stateMutability": "view",
      "type": "function"
    },
    {
      "constant": true,
      "inputs": [
        {
          "name": "",
          "type": "uint256"
        },
        {
          "name": "",
          "type": "uint256"
        }
      ],
      "name": "proposedBlocks",
      "outputs": [
        {
          "name": "proposerId",
          "type": "uint256"
        },
        {
          "name": "iteration",
          "type": "uint256"
        },
        {
          "name": "biggestStake",
          "type": "uint256"
        },
        {
          "name": "valid",
          "type": "bool"
        }
      ],
      "payable": false,
      "stateMutability": "view",
      "type": "function"
    },
    {
      "constant": false,
      "inputs": [
        {
          "name": "account",
          "type": "address"
        }
      ],
      "name": "addWriter",
      "outputs": [],
      "payable": false,
      "stateMutability": "nonpayable",
      "type": "function"
    },
    {
      "constant": false,
      "inputs": [],
      "name": "renounceWriter",
      "outputs": [],
      "payable": false,
      "stateMutability": "nonpayable",
      "type": "function"
    },
    {
      "constant": true,
      "inputs": [
        {
          "name": "",
          "type": "uint256"
        }
      ],
      "name": "blocks",
      "outputs": [
        {
          "name": "proposerId",
          "type": "uint256"
        },
        {
          "name": "iteration",
          "type": "uint256"
        },
        {
          "name": "biggestStake",
          "type": "uint256"
        },
        {
          "name": "valid",
          "type": "bool"
        }
      ],
      "payable": false,
      "stateMutability": "view",
      "type": "function"
    },
    {
      "anonymous": false,
      "inputs": [
        {
          "indexed": false,
          "name": "epoch",
          "type": "uint256"
        },
        {
          "indexed": false,
          "name": "stakerId",
          "type": "uint256"
        },
        {
          "indexed": false,
          "name": "medians",
          "type": "uint256[]"
        },
        {
          "indexed": false,
          "name": "jobIds",
          "type": "uint256[]"
        },
        {
          "indexed": false,
          "name": "iteration",
          "type": "uint256"
        },
        {
          "indexed": false,
          "name": "biggestStakerId",
          "type": "uint256"
        }
      ],
      "name": "Proposed",
      "type": "event"
    },
    {
      "anonymous": false,
      "inputs": [
        {
          "indexed": false,
          "name": "epoch",
          "type": "uint256"
        },
        {
          "indexed": false,
          "name": "stakerId",
          "type": "uint256"
        },
        {
          "indexed": false,
          "name": "medians",
          "type": "uint256[]"
        },
        {
          "indexed": false,
          "name": "jobIds",
          "type": "uint256[]"
        }
      ],
      "name": "BlockConfirmed",
      "type": "event"
    },
    {
      "anonymous": false,
      "inputs": [
        {
          "indexed": true,
          "name": "account",
          "type": "address"
        }
      ],
      "name": "WriterAdded",
      "type": "event"
    },
    {
      "anonymous": false,
      "inputs": [
        {
          "indexed": true,
          "name": "account",
          "type": "address"
        }
      ],
      "name": "WriterRemoved",
      "type": "event"
    },
    {
      "anonymous": false,
      "inputs": [
        {
          "indexed": false,
          "name": "a",
          "type": "uint256"
        }
      ],
      "name": "DebugUint256",
      "type": "event"
    },
    {
      "constant": true,
      "inputs": [
        {
          "name": "epoch",
          "type": "uint256"
        }
      ],
      "name": "getBlock",
      "outputs": [
        {
          "components": [
            {
              "name": "proposerId",
              "type": "uint256"
            },
            {
              "name": "medians",
              "type": "uint256[]"
            },
            {
              "name": "jobIds",
              "type": "uint256[]"
            },
            {
              "name": "iteration",
              "type": "uint256"
            },
            {
              "name": "biggestStake",
              "type": "uint256"
            },
            {
              "name": "valid",
              "type": "bool"
            }
          ],
          "name": "_block",
          "type": "tuple"
        }
      ],
      "payable": false,
      "stateMutability": "view",
      "type": "function"
    },
    {
      "constant": true,
      "inputs": [
        {
          "name": "epoch",
          "type": "uint256"
        }
      ],
      "name": "getBlockMedians",
      "outputs": [
        {
          "name": "_blockMedians",
          "type": "uint256[]"
        }
      ],
      "payable": false,
      "stateMutability": "view",
      "type": "function"
    },
    {
      "constant": true,
      "inputs": [
        {
          "name": "epoch",
          "type": "uint256"
        },
        {
          "name": "proposedBlock",
          "type": "uint256"
        }
      ],
      "name": "getProposedBlock",
      "outputs": [
        {
          "components": [
            {
              "name": "proposerId",
              "type": "uint256"
            },
            {
              "name": "medians",
              "type": "uint256[]"
            },
            {
              "name": "jobIds",
              "type": "uint256[]"
            },
            {
              "name": "iteration",
              "type": "uint256"
            },
            {
              "name": "biggestStake",
              "type": "uint256"
            },
            {
              "name": "valid",
              "type": "bool"
            }
          ],
          "name": "_block",
          "type": "tuple"
        }
      ],
      "payable": false,
      "stateMutability": "view",
      "type": "function"
    },
    {
      "constant": true,
      "inputs": [
        {
          "name": "epoch",
          "type": "uint256"
        },
        {
          "name": "proposedBlock",
          "type": "uint256"
        }
      ],
      "name": "getProposedBlockMedians",
      "outputs": [
        {
          "name": "_blockMedians",
          "type": "uint256[]"
        }
      ],
      "payable": false,
      "stateMutability": "view",
      "type": "function"
    },
    {
      "constant": true,
      "inputs": [
        {
          "name": "epoch",
          "type": "uint256"
        }
      ],
      "name": "getNumProposedBlocks",
      "outputs": [
        {
          "name": "",
          "type": "uint256"
        }
      ],
      "payable": false,
      "stateMutability": "view",
      "type": "function"
    },
    {
      "constant": false,
      "inputs": [
        {
          "name": "_stakeManagerAddress",
          "type": "address"
        },
        {
          "name": "_stateManagerAddress",
          "type": "address"
        },
        {
          "name": "_voteManagerAddress",
          "type": "address"
        },
        {
          "name": "_jobManagerAddress",
          "type": "address"
        }
      ],
      "name": "init",
      "outputs": [],
      "payable": false,
      "stateMutability": "nonpayable",
      "type": "function"
    },
    {
      "constant": false,
      "inputs": [
        {
          "name": "epoch",
          "type": "uint256"
        },
        {
          "name": "medians",
          "type": "uint256[]"
        },
        {
          "name": "jobIds",
          "type": "uint256[]"
        },
        {
          "name": "iteration",
          "type": "uint256"
        },
        {
          "name": "biggestStakerId",
          "type": "uint256"
        }
      ],
      "name": "propose",
      "outputs": [],
      "payable": false,
      "stateMutability": "nonpayable",
      "type": "function"
    },
    {
      "constant": false,
      "inputs": [
        {
          "name": "epoch",
          "type": "uint256"
        },
        {
          "name": "assetId",
          "type": "uint256"
        },
        {
          "name": "sorted",
          "type": "uint256[]"
        }
      ],
      "name": "giveSorted",
      "outputs": [],
      "payable": false,
      "stateMutability": "nonpayable",
      "type": "function"
    },
    {
      "constant": false,
      "inputs": [
        {
          "name": "epoch",
          "type": "uint256"
        }
      ],
      "name": "resetDispute",
      "outputs": [],
      "payable": false,
      "stateMutability": "nonpayable",
      "type": "function"
    },
    {
      "constant": false,
      "inputs": [
        {
          "name": "epoch",
          "type": "uint256"
        },
        {
          "name": "blockId",
          "type": "uint256"
        }
      ],
      "name": "finalizeDispute",
      "outputs": [],
      "payable": false,
      "stateMutability": "nonpayable",
      "type": "function"
    },
    {
      "constant": true,
      "inputs": [
        {
          "name": "iteration",
          "type": "uint256"
        },
        {
          "name": "biggestStakerId",
          "type": "uint256"
        },
        {
          "name": "stakerId",
          "type": "uint256"
        }
      ],
      "name": "isElectedProposer",
      "outputs": [
        {
          "name": "",
          "type": "bool"
        }
      ],
      "payable": false,
      "stateMutability": "view",
      "type": "function"
    },
    {
      "constant": false,
      "inputs": [],
      "name": "confirmBlock",
      "outputs": [],
      "payable": false,
      "stateMutability": "nonpayable",
      "type": "function"
    }
  ],
  "bytecode": "0x608060405262000015336200001b60201b60201c565b620002f9565b620000368160006200007c60201b620033511790919060201c565b8073ffffffffffffffffffffffffffffffffffffffff167f6ff3aa2ea7b53070f6d9d07a445d338d89e8edef44250ffa8be19f53910d4a2e60405160405180910390a250565b6200008e82826200012f60201b60201c565b15620000d1576040517f08c379a0000000000000000000000000000000000000000000000000000000008152600401620000c890620002a4565b60405180910390fd5b60018260000160008373ffffffffffffffffffffffffffffffffffffffff1673ffffffffffffffffffffffffffffffffffffffff16815260200190815260200160002060006101000a81548160ff0219169083151502179055505050565b60008073ffffffffffffffffffffffffffffffffffffffff168273ffffffffffffffffffffffffffffffffffffffff161415620001a3576040517f08c379a00000000000000000000000000000000000000000000000000000000081526004016200019a90620002c6565b60405180910390fd5b8260000160008373ffffffffffffffffffffffffffffffffffffffff1673ffffffffffffffffffffffffffffffffffffffff16815260200190815260200160002060009054906101000a900460ff16905092915050565b600062000209601f83620002e8565b91507f526f6c65733a206163636f756e7420616c72656164792068617320726f6c65006000830152602082019050919050565b60006200024b602283620002e8565b91507f526f6c65733a206163636f756e7420697320746865207a65726f20616464726560008301527f73730000000000000000000000000000000000000000000000000000000000006020830152604082019050919050565b60006020820190508181036000830152620002bf81620001fa565b9050919050565b60006020820190508181036000830152620002e1816200023c565b9050919050565b600082825260208201905092915050565b614a8f80620003096000396000f3fe608060405234801561001057600080fd5b50600436106101415760003560e01c80635ce8772f116100b8578063a27ce1ef1161007c578063a27ce1ef1461037a578063d1a4a43d146103aa578063da2824a8146103da578063df4eb59c146103f6578063e38c7c4214610400578063f25b3f991461043057610141565b80635ce8772f146102d05780637542ff95146102ec578063828496d61461030a57806392b484111461033d5780639b87f6441461037057610141565b80632e716fb11161010a5780632e716fb11461020e578063378ab9a91461022c5780633cd32fd41461025c5780633df395a31461027857806342c1e587146102965780634e6753b7146102b457610141565b80629c9f8c1461014657806304c075691461016257806306552ff3146101925780631d69ff9b146101ae5780632b29ba23146101de575b600080fd5b610160600480360361015b91908101906138f1565b610463565b005b61017c60048036036101779190810190613863565b610a7a565b604051610189919061455e565b60405180910390f35b6101ac60048036036101a791908101906137ad565b610b90565b005b6101c860048036036101c39190810190613a3b565b610c9a565b6040516101d59190614277565b60405180910390f35b6101f860048036036101f39190810190613784565b611093565b6040516102059190614277565b60405180910390f35b6102166110b0565b60405161022391906142c8565b60405180910390f35b61024660048036036102419190810190613863565b6110d6565b6040516102539190614255565b60405180910390f35b61027660048036036102719190810190613998565b611147565b005b610280611726565b60405161028d9190614292565b60405180910390f35b61029e61174c565b6040516102ab91906142e3565b60405180910390f35b6102ce60048036036102c991908101906139d4565b611772565b005b6102ea60048036036102e59190810190613863565b611f71565b005b6102f4612258565b60405161030191906142ad565b60405180910390f35b610324600480360361031f91908101906138b5565b61227e565b604051610334949392919061472b565b60405180910390f35b61035760048036036103529190810190613998565b6122bb565b60405161036794939291906146e6565b60405180910390f35b610378612312565b005b610394600480360361038f9190810190613998565b612885565b6040516103a1919061455e565b60405180910390f35b6103c460048036036103bf9190810190613998565b6129b8565b6040516103d19190614255565b60405180910390f35b6103f460048036036103ef9190810190613784565b612a43565b005b6103fe612a97565b005b61041a60048036036104159190810190613863565b612aa2565b6040516104279190614580565b60405180910390f35b61044a60048036036104459190810190613863565b612ac2565b60405161045a94939291906146e6565b60405180910390f35b84600560009054906101000a900473ffffffffffffffffffffffffffffffffffffffff1673ffffffffffffffffffffffffffffffffffffffff1663757991a86040518163ffffffff1660e01b815260040160206040518083038186803b1580156104cc57600080fd5b505afa1580156104e0573d6000803e3d6000fd5b505050506040513d601f19601f82011682018060405250610504919081019061388c565b8114610545576040517f08c379a000000000000000000000000000000000000000000000000000000000815260040161053c9061445e565b60405180910390fd5b73__Constants_____________________________63c198f8ba6040518163ffffffff1660e01b815260040160206040518083038186803b15801561058957600080fd5b505af415801561059d573d6000803e3d6000fd5b505050506040513d601f19601f820116820180604052506105c19190810190613a8a565b60ff16600560009054906101000a900473ffffffffffffffffffffffffffffffffffffffff1673ffffffffffffffffffffffffffffffffffffffff16631865c57d6040518163ffffffff1660e01b815260040160206040518083038186803b15801561062c57600080fd5b505afa158015610640573d6000803e3d6000fd5b505050506040513d601f19601f82011682018060405250610664919081019061388c565b81146106a5576040517f08c379a000000000000000000000000000000000000000000000000000000000815260040161069c9061451e565b60405180910390fd5b6000600460009054906101000a900473ffffffffffffffffffffffffffffffffffffffff1673ffffffffffffffffffffffffffffffffffffffff16636022a485336040518263ffffffff1660e01b8152600401610702919061423a565b60206040518083038186803b15801561071a57600080fd5b505afa15801561072e573d6000803e3d6000fd5b505050506040513d601f19601f82011682018060405250610752919081019061388c565b905061075f858583610c9a565b61079e576040517f08c379a0000000000000000000000000000000000000000000000000000000008152600401610795906143be565b60405180910390fd5b73__Constants_____________________________63375b3c0a6040518163ffffffff1660e01b815260040160206040518083038186803b1580156107e257600080fd5b505af41580156107f6573d6000803e3d6000fd5b505050506040513d601f19601f8201168201806040525061081a919081019061388c565b600460009054906101000a900473ffffffffffffffffffffffffffffffffffffffff1673ffffffffffffffffffffffffffffffffffffffff1663e3c998fe836040518263ffffffff1660e01b81526004016108759190614580565b6101006040518083038186803b15801561088e57600080fd5b505afa1580156108a2573d6000803e3d6000fd5b505050506040513d601f19601f820116820180604052506108c69190810190613839565b60400151101561090b576040517f08c379a0000000000000000000000000000000000000000000000000000000008152600401610902906144de565b60405180910390fd5b60006109f5896040518060c001604052808581526020018b81526020018a8152602001898152602001600460009054906101000a900473ffffffffffffffffffffffffffffffffffffffff1673ffffffffffffffffffffffffffffffffffffffff1663e3c998fe8a6040518263ffffffff1660e01b815260040161098f9190614580565b6101006040518083038186803b1580156109a857600080fd5b505afa1580156109bc573d6000803e3d6000fd5b505050506040513d601f19601f820116820180604052506109e09190810190613839565b60400151815260200160011515815250612aff565b90507f43d4b4706539f9e22baf8767ebea21ad24f723f14b6981664ac4d0af596dddbe81604051610a269190614580565b60405180910390a17f16218ec6520966a37c88eb385ec86ac049ba212e2d3b1cb7f61b91d93356ecce89838a8a8a8a604051610a67969594939291906145ed565b60405180910390a1505050505050505050565b610a826134a0565b600360008381526020019081526020016000206040518060c00160405290816000820154815260200160018201805480602002602001604051908101604052809291908181526020018280548015610af957602002820191906000526020600020905b815481526020019060010190808311610ae5575b5050505050815260200160028201805480602002602001604051908101604052809291908181526020018280548015610b5157602002820191906000526020600020905b815481526020019060010190808311610b3d575b5050505050815260200160038201548152602001600482015481526020016005820160009054906101000a900460ff1615151515815250509050919050565b83600460006101000a81548173ffffffffffffffffffffffffffffffffffffffff021916908373ffffffffffffffffffffffffffffffffffffffff16021790555082600560006101000a81548173ffffffffffffffffffffffffffffffffffffffff021916908373ffffffffffffffffffffffffffffffffffffffff16021790555081600660006101000a81548173ffffffffffffffffffffffffffffffffffffffff021916908373ffffffffffffffffffffffffffffffffffffffff16021790555080600760006101000a81548173ffffffffffffffffffffffffffffffffffffffff021916908373ffffffffffffffffffffffffffffffffffffffff16021790555050505050565b600081610e01600173__Random________________________________635075dbfb600a600460009054906101000a900473ffffffffffffffffffffffffffffffffffffffff1673ffffffffffffffffffffffffffffffffffffffff1663bc788d466040518163ffffffff1660e01b815260040160206040518083038186803b158015610d2657600080fd5b505afa158015610d3a573d6000803e3d6000fd5b505050506040513d601f19601f82011682018060405250610d5e919081019061388c565b8a604051602001610d6f9190614580565b604051602081830303815290604052805190602001206040518463ffffffff1660e01b8152600401610da393929190614327565b60206040518083038186803b158015610dbb57600080fd5b505af4158015610dcf573d6000803e3d6000fd5b505050506040513d601f19601f82011682018060405250610df3919081019061388c565b61305d90919063ffffffff16565b14610e0f576000905061108c565b600073__Random________________________________63b07ceab8600a8588604051602001610e409291906145c4565b604051602081830303815290604052805190602001206040518363ffffffff1660e01b8152600401610e739291906142fe565b60206040518083038186803b158015610e8b57600080fd5b505af4158015610e9f573d6000803e3d6000fd5b505050506040513d601f19601f82011682018060405250610ec39190810190613810565b90506000610ee26401000000008360001c6130b290919063ffffffff16565b90506000600460009054906101000a900473ffffffffffffffffffffffffffffffffffffffff1673ffffffffffffffffffffffffffffffffffffffff1663e3c998fe876040518263ffffffff1660e01b8152600401610f419190614580565b6101006040518083038186803b158015610f5a57600080fd5b505afa158015610f6e573d6000803e3d6000fd5b505050506040513d601f19601f82011682018060405250610f929190810190613839565b60400151905061105f640100000000600460009054906101000a900473ffffffffffffffffffffffffffffffffffffffff1673ffffffffffffffffffffffffffffffffffffffff1663e3c998fe886040518263ffffffff1660e01b8152600401610ffc9190614580565b6101006040518083038186803b15801561101557600080fd5b505afa158015611029573d6000803e3d6000fd5b505050506040513d601f19601f8201168201806040525061104d9190810190613839565b6040015161310990919063ffffffff16565b611072828461310990919063ffffffff16565b1115611084576000935050505061108c565b600193505050505b9392505050565b60006110a982600061317990919063ffffffff16565b9050919050565b600560009054906101000a900473ffffffffffffffffffffffffffffffffffffffff1681565b60606003600083815260200190815260200160002060010180548060200260200160405190810160405280929190818152602001828054801561113857602002820191906000526020600020905b815481526020019060010190808311611124575b50505050509050809050919050565b81600560009054906101000a900473ffffffffffffffffffffffffffffffffffffffff1673ffffffffffffffffffffffffffffffffffffffff1663757991a86040518163ffffffff1660e01b815260040160206040518083038186803b1580156111b057600080fd5b505afa1580156111c4573d6000803e3d6000fd5b505050506040513d601f19601f820116820180604052506111e8919081019061388c565b8114611229576040517f08c379a00000000000000000000000000000000000000000000000000000000081526004016112209061445e565b60405180910390fd5b73__Constants_____________________________63f240f7c36040518163ffffffff1660e01b815260040160206040518083038186803b15801561126d57600080fd5b505af4158015611281573d6000803e3d6000fd5b505050506040513d601f19601f820116820180604052506112a59190810190613a8a565b60ff16600560009054906101000a900473ffffffffffffffffffffffffffffffffffffffff1673ffffffffffffffffffffffffffffffffffffffff16631865c57d6040518163ffffffff1660e01b815260040160206040518083038186803b15801561131057600080fd5b505afa158015611324573d6000803e3d6000fd5b505050506040513d601f19601f82011682018060405250611348919081019061388c565b8114611389576040517f08c379a00000000000000000000000000000000000000000000000000000000081526004016113809061451e565b60405180910390fd5b60006001600086815260200190815260200160002060003373ffffffffffffffffffffffffffffffffffffffff1673ffffffffffffffffffffffffffffffffffffffff168152602001908152602001600020600301549050600660009054906101000a900473ffffffffffffffffffffffffffffffffffffffff1673ffffffffffffffffffffffffffffffffffffffff1663a6a145d986836040518363ffffffff1660e01b815260040161143e9291906145c4565b60206040518083038186803b15801561145657600080fd5b505afa15801561146a573d6000803e3d6000fd5b505050506040513d601f19601f8201168201806040525061148e919081019061388c565b6001600087815260200190815260200160002060003373ffffffffffffffffffffffffffffffffffffffff1673ffffffffffffffffffffffffffffffffffffffff1681526020019081526020016000206000015414611522576040517f08c379a0000000000000000000000000000000000000000000000000000000008152600401611519906144fe565b60405180910390fd5b60006001600087815260200190815260200160002060003373ffffffffffffffffffffffffffffffffffffffff1673ffffffffffffffffffffffffffffffffffffffff168152602001908152602001600020600101549050600060026000888152602001908152602001600020868154811061159a57fe5b9060005260206000209060060201600001549050600082116115bb57600080fd5b816002600089815260200190815260200160002087815481106115da57fe5b906000526020600020906006020160010184815481106115f657fe5b9060005260206000200154146116e257600060026000898152602001908152602001600020878154811061162657fe5b906000526020600020906006020160050160006101000a81548160ff021916908315150217905550600460009054906101000a900473ffffffffffffffffffffffffffffffffffffffff1673ffffffffffffffffffffffffffffffffffffffff16633d82e3c182336040518363ffffffff1660e01b81526004016116ab92919061459b565b600060405180830381600087803b1580156116c557600080fd5b505af11580156116d9573d6000803e3d6000fd5b5050505061171d565b6040517f08c379a0000000000000000000000000000000000000000000000000000000008152600401611714906144be565b60405180910390fd5b50505050505050565b600760009054906101000a900473ffffffffffffffffffffffffffffffffffffffff1681565b600660009054906101000a900473ffffffffffffffffffffffffffffffffffffffff1681565b82600560009054906101000a900473ffffffffffffffffffffffffffffffffffffffff1673ffffffffffffffffffffffffffffffffffffffff1663757991a86040518163ffffffff1660e01b815260040160206040518083038186803b1580156117db57600080fd5b505afa1580156117ef573d6000803e3d6000fd5b505050506040513d601f19601f82011682018060405250611813919081019061388c565b8114611854576040517f08c379a000000000000000000000000000000000000000000000000000000000815260040161184b9061445e565b60405180910390fd5b73__Constants_____________________________63f240f7c36040518163ffffffff1660e01b815260040160206040518083038186803b15801561189857600080fd5b505af41580156118ac573d6000803e3d6000fd5b505050506040513d601f19601f820116820180604052506118d09190810190613a8a565b60ff16600560009054906101000a900473ffffffffffffffffffffffffffffffffffffffff1673ffffffffffffffffffffffffffffffffffffffff16631865c57d6040518163ffffffff1660e01b815260040160206040518083038186803b15801561193b57600080fd5b505afa15801561194f573d6000803e3d6000fd5b505050506040513d601f19601f82011682018060405250611973919081019061388c565b81146119b4576040517f08c379a00000000000000000000000000000000000000000000000000000000081526004016119ab9061451e565b60405180910390fd5b6000611a766002600660009054906101000a900473ffffffffffffffffffffffffffffffffffffffff1673ffffffffffffffffffffffffffffffffffffffff1663a6a145d989896040518363ffffffff1660e01b8152600401611a189291906145c4565b60206040518083038186803b158015611a3057600080fd5b505afa158015611a44573d6000803e3d6000fd5b505050506040513d601f19601f82011682018060405250611a68919081019061388c565b61324190919063ffffffff16565b905060006001600088815260200190815260200160002060003373ffffffffffffffffffffffffffffffffffffffff1673ffffffffffffffffffffffffffffffffffffffff16815260200190815260200160002060000154905060006001600089815260200190815260200160002060003373ffffffffffffffffffffffffffffffffffffffff1673ffffffffffffffffffffffffffffffffffffffff1681526020019081526020016000206002015490506000600160008a815260200190815260200160002060003373ffffffffffffffffffffffffffffffffffffffff1673ffffffffffffffffffffffffffffffffffffffff168152602001908152602001600020600001541415611be15786600160008a815260200190815260200160002060003373ffffffffffffffffffffffffffffffffffffffff1673ffffffffffffffffffffffffffffffffffffffff16815260200190815260200160002060030181905550611c77565b86600160008a815260200190815260200160002060003373ffffffffffffffffffffffffffffffffffffffff1673ffffffffffffffffffffffffffffffffffffffff1681526020019081526020016000206003015414611c76576040517f08c379a0000000000000000000000000000000000000000000000000000000008152600401611c6d9061449e565b60405180910390fd5b5b60008090505b8651811015611eb65781878281518110611c9357fe5b602002602001015111611cdb576040517f08c379a0000000000000000000000000000000000000000000000000000000008152600401611cd29061437e565b60405180910390fd5b868181518110611ce757fe5b60200260200101519150611dc5600660009054906101000a900473ffffffffffffffffffffffffffffffffffffffff1673ffffffffffffffffffffffffffffffffffffffff16639c66556f8b8b8b8681518110611d4057fe5b60200260200101516040518463ffffffff1660e01b8152600401611d66939291906146af565b60206040518083038186803b158015611d7e57600080fd5b505afa158015611d92573d6000803e3d6000fd5b505050506040513d601f19601f82011682018060405250611db6919081019061388c565b8461305d90919063ffffffff16565b92506000600160008b815260200190815260200160002060003373ffffffffffffffffffffffffffffffffffffffff1673ffffffffffffffffffffffffffffffffffffffff16815260200190815260200160002060010154148015611e2957508383115b15611e9a57868181518110611e3a57fe5b6020026020010151600160008b815260200190815260200160002060003373ffffffffffffffffffffffffffffffffffffffff1673ffffffffffffffffffffffffffffffffffffffff168152602001908152602001600020600101819055505b6127105a1015611ea957611eb6565b8080600101915050611c7d565b5080600160008a815260200190815260200160002060003373ffffffffffffffffffffffffffffffffffffffff1673ffffffffffffffffffffffffffffffffffffffff1681526020019081526020016000206002018190555081600160008a815260200190815260200160002060003373ffffffffffffffffffffffffffffffffffffffff1673ffffffffffffffffffffffffffffffffffffffff168152602001908152602001600020600001819055505050505050505050565b80600560009054906101000a900473ffffffffffffffffffffffffffffffffffffffff1673ffffffffffffffffffffffffffffffffffffffff1663757991a86040518163ffffffff1660e01b815260040160206040518083038186803b158015611fda57600080fd5b505afa158015611fee573d6000803e3d6000fd5b505050506040513d601f19601f82011682018060405250612012919081019061388c565b8114612053576040517f08c379a000000000000000000000000000000000000000000000000000000000815260040161204a9061445e565b60405180910390fd5b73__Constants_____________________________63f240f7c36040518163ffffffff1660e01b815260040160206040518083038186803b15801561209757600080fd5b505af41580156120ab573d6000803e3d6000fd5b505050506040513d601f19601f820116820180604052506120cf9190810190613a8a565b60ff16600560009054906101000a900473ffffffffffffffffffffffffffffffffffffffff1673ffffffffffffffffffffffffffffffffffffffff16631865c57d6040518163ffffffff1660e01b815260040160206040518083038186803b15801561213a57600080fd5b505afa15801561214e573d6000803e3d6000fd5b505050506040513d601f19601f82011682018060405250612172919081019061388c565b81146121b3576040517f08c379a00000000000000000000000000000000000000000000000000000000081526004016121aa9061451e565b60405180910390fd5b604051806080016040528060008152602001600081526020016000815260200160008152506001600085815260200190815260200160002060003373ffffffffffffffffffffffffffffffffffffffff1673ffffffffffffffffffffffffffffffffffffffff16815260200190815260200160002060008201518160000155602082015181600101556040820151816002015560608201518160030155905050505050565b600460009054906101000a900473ffffffffffffffffffffffffffffffffffffffff1681565b6001602052816000526040600020602052806000526040600020600091509150508060000154908060010154908060020154908060030154905084565b600260205281600052604060002081815481106122d457fe5b9060005260206000209060060201600091509150508060000154908060030154908060040154908060050160009054906101000a900460ff16905084565b61231b33611093565b61235a576040517f08c379a00000000000000000000000000000000000000000000000000000000081526004016123519061453e565b60405180910390fd5b6000600560009054906101000a900473ffffffffffffffffffffffffffffffffffffffff1673ffffffffffffffffffffffffffffffffffffffff1663757991a86040518163ffffffff1660e01b815260040160206040518083038186803b1580156123c457600080fd5b505afa1580156123d8573d6000803e3d6000fd5b505050506040513d601f19601f820116820180604052506123fc919081019061388c565b905060006003600060018403815260200190815260200160002060000154148015612440575060006002600060018403815260200190815260200160002080549050115b156128815760008090505b60026000600184038152602001908152602001600020805490508160ff16101561287f57600260006001840381526020019081526020016000208160ff168154811061249357fe5b906000526020600020906006020160050160009054906101000a900460ff161561287257600260006001840381526020019081526020016000208160ff16815481106124db57fe5b90600052602060002090600602016003600060018503815260200190815260200160002060008201548160000155600182018160010190805461251f9291906134d8565b5060028201816002019080546125369291906134d8565b5060038201548160030155600482015481600401556005820160009054906101000a900460ff168160050160006101000a81548160ff0219169083151502179055509050506000600260006001850381526020019081526020016000208260ff16815481106125a157fe5b90600052602060002090600602016000015490507f2ec8e0228131f30101c2ac81e975d4af72577450525a891edd394f043f5b999f6001840382600260006001880381526020019081526020016000208560ff16815481106125ff57fe5b9060005260206000209060060201600101600260006001890381526020019081526020016000208660ff168154811061263457fe5b9060005260206000209060060201600201604051612655949392919061465c565b60405180910390a160008090505b600260006001860381526020019081526020016000208360ff168154811061268757fe5b9060005260206000209060060201600201805490508160ff1610156127dc57600760009054906101000a900473ffffffffffffffffffffffffffffffffffffffff1673ffffffffffffffffffffffffffffffffffffffff166356350bdf600260006001880381526020019081526020016000208560ff168154811061270857fe5b90600052602060002090600602016002018360ff168154811061272757fe5b9060005260206000200154600260006001890381526020019081526020016000208660ff168154811061275657fe5b90600052602060002090600602016001018460ff168154811061277557fe5b90600052602060002001546040518363ffffffff1660e01b815260040161279d9291906145c4565b600060405180830381600087803b1580156127b757600080fd5b505af11580156127cb573d6000803e3d6000fd5b505050508080600101915050612663565b50600460009054906101000a900473ffffffffffffffffffffffffffffffffffffffff1673ffffffffffffffffffffffffffffffffffffffff16636aa46ccd826040518263ffffffff1660e01b81526004016128389190614580565b600060405180830381600087803b15801561285257600080fd5b505af1158015612866573d6000803e3d6000fd5b50505050505050612883565b808060010191505061244b565b505b505b565b61288d6134a0565b6002600084815260200190815260200160002082815481106128ab57fe5b90600052602060002090600602016040518060c0016040529081600082015481526020016001820180548060200260200160405190810160405280929190818152602001828054801561291d57602002820191906000526020600020905b815481526020019060010190808311612909575b505050505081526020016002820180548060200260200160405190810160405280929190818152602001828054801561297557602002820191906000526020600020905b815481526020019060010190808311612961575b5050505050815260200160038201548152602001600482015481526020016005820160009054906101000a900460ff161515151581525050905080905092915050565b60606002600084815260200190815260200160002082815481106129d857fe5b9060005260206000209060060201600101805480602002602001604051908101604052809291908181526020018280548015612a3357602002820191906000526020600020905b815481526020019060010190808311612a1f575b5050505050905080905092915050565b612a4c33611093565b612a8b576040517f08c379a0000000000000000000000000000000000000000000000000000000008152600401612a829061453e565b60405180910390fd5b612a948161329d565b50565b612aa0336132f7565b565b600060026000838152602001908152602001600020805490509050919050565b60036020528060005260406000206000915090508060000154908060030154908060040154908060050160009054906101000a900460ff16905084565b60008060026000858152602001908152602001600020805490501415612be257600260008481526020019081526020016000208290806001815401808255809150509060018203906000526020600020906006020160009091929091909150600082015181600001556020820151816001019080519060200190612b8492919061352a565b506040820151816002019080519060200190612ba192919061352a565b50606082015181600301556080820151816004015560a08201518160050160006101000a81548160ff02191690831515021790555050505060009050613057565b60006002600085815260200190815260200160002080549050905060008090505b6002600086815260200190815260200160002080549050811015612cb4578360800151600260008781526020019081526020016000208281548110612c4457fe5b9060005260206000209060060201600401541015612c6457809150612cb4565b8360600151600260008781526020019081526020016000208281548110612c8757fe5b9060005260206000209060060201600301541115612ca757809150612cb4565b8080600101915050612c03565b50600260008581526020019081526020016000208390806001815401808255809150509060018203906000526020600020906006020160009091929091909150600082015181600001556020820151816001019080519060200190612d1a92919061352a565b506040820151816002019080519060200190612d3792919061352a565b50606082015181600301556080820151816004015560a08201518160050160006101000a81548160ff0219169083151502179055505050506000600160026000878152602001908152602001600020805490500390505b81811115612e7b57600260008681526020019081526020016000206001820381548110612db757fe5b9060005260206000209060060201600260008781526020019081526020016000208281548110612de357fe5b9060005260206000209060060201600082015481600001556001820181600101908054612e119291906134d8565b506002820181600201908054612e289291906134d8565b5060038201548160030155600482015481600401556005820160009054906101000a900460ff168160050160006101000a81548160ff021916908315150217905550905050808060019003915050612d8e565b5082600260008681526020019081526020016000208281548110612e9b57fe5b9060005260206000209060060201600082015181600001556020820151816001019080519060200190612ecf92919061352a565b506040820151816002019080519060200190612eec92919061352a565b50606082015181600301556080820151816004015560a08201518160050160006101000a81548160ff02191690831515021790555090505073__Constants_____________________________63379597e06040518163ffffffff1660e01b815260040160206040518083038186803b158015612f6857600080fd5b505af4158015612f7c573d6000803e3d6000fd5b505050506040513d601f19601f82011682018060405250612fa0919081019061388c565b600260008681526020019081526020016000208054905011156130525760026000858152602001908152602001600020600160026000878152602001908152602001600020805490500381548110612ff457fe5b906000526020600020906006020160008082016000905560018201600061301b9190613577565b60028201600061302b9190613577565b600382016000905560048201600090556005820160006101000a81549060ff021916905550505b809150505b92915050565b6000808284019050838110156130a8576040517f08c379a000000000000000000000000000000000000000000000000000000000815260040161309f9061439e565b60405180910390fd5b8091505092915050565b6000808214156130f7576040517f08c379a00000000000000000000000000000000000000000000000000000000081526004016130ee906143fe565b60405180910390fd5b81838161310057fe5b06905092915050565b60008083141561311c5760009050613173565b600082840290508284828161312d57fe5b041461316e576040517f08c379a00000000000000000000000000000000000000000000000000000000081526004016131659061443e565b60405180910390fd5b809150505b92915050565b60008073ffffffffffffffffffffffffffffffffffffffff168273ffffffffffffffffffffffffffffffffffffffff1614156131ea576040517f08c379a00000000000000000000000000000000000000000000000000000000081526004016131e19061447e565b60405180910390fd5b8260000160008373ffffffffffffffffffffffffffffffffffffffff1673ffffffffffffffffffffffffffffffffffffffff16815260200190815260200160002060009054906101000a900460ff16905092915050565b6000808211613285576040517f08c379a000000000000000000000000000000000000000000000000000000000815260040161327c906143de565b60405180910390fd5b600082848161329057fe5b0490508091505092915050565b6132b181600061335190919063ffffffff16565b8073ffffffffffffffffffffffffffffffffffffffff167f6ff3aa2ea7b53070f6d9d07a445d338d89e8edef44250ffa8be19f53910d4a2e60405160405180910390a250565b61330b8160006133f990919063ffffffff16565b8073ffffffffffffffffffffffffffffffffffffffff167f86e5bbceda94081c32220d685f37cc4e3ea7bb0be2dfbf0cb703579505a5390e60405160405180910390a250565b61335b8282613179565b1561339b576040517f08c379a00000000000000000000000000000000000000000000000000000000081526004016133929061435e565b60405180910390fd5b60018260000160008373ffffffffffffffffffffffffffffffffffffffff1673ffffffffffffffffffffffffffffffffffffffff16815260200190815260200160002060006101000a81548160ff0219169083151502179055505050565b6134038282613179565b613442576040517f08c379a00000000000000000000000000000000000000000000000000000000081526004016134399061441e565b60405180910390fd5b60008260000160008373ffffffffffffffffffffffffffffffffffffffff1673ffffffffffffffffffffffffffffffffffffffff16815260200190815260200160002060006101000a81548160ff0219169083151502179055505050565b6040518060c0016040528060008152602001606081526020016060815260200160008152602001600081526020016000151581525090565b8280548282559060005260206000209081019282156135195760005260206000209182015b828111156135185782548255916001019190600101906134fd565b5b5090506135269190613598565b5090565b828054828255906000526020600020908101928215613566579160200282015b8281111561356557825182559160200191906001019061354a565b5b5090506135739190613598565b5090565b50805460008255906000526020600020908101906135959190613598565b50565b6135ba91905b808211156135b657600081600090555060010161359e565b5090565b90565b6000813590506135cc816149f0565b92915050565b6000815190506135e1816149f0565b92915050565b600082601f8301126135f857600080fd5b813561360b6136068261479d565b614770565b9150818183526020840193506020810190508385602084028201111561363057600080fd5b60005b8381101561366057816136468882613745565b845260208401935060208301925050600181019050613633565b5050505092915050565b60008151905061367981614a07565b92915050565b6000610100828403121561369257600080fd5b61369d610100614770565b905060006136ad8482850161375a565b60008301525060206136c1848285016135d2565b60208301525060406136d58482850161375a565b60408301525060606136e98482850161375a565b60608301525060806136fd8482850161375a565b60808301525060a06137118482850161375a565b60a08301525060c06137258482850161375a565b60c08301525060e06137398482850161375a565b60e08301525092915050565b60008135905061375481614a1e565b92915050565b60008151905061376981614a1e565b92915050565b60008151905061377e81614a35565b92915050565b60006020828403121561379657600080fd5b60006137a4848285016135bd565b91505092915050565b600080600080608085870312156137c357600080fd5b60006137d1878288016135bd565b94505060206137e2878288016135bd565b93505060406137f3878288016135bd565b9250506060613804878288016135bd565b91505092959194509250565b60006020828403121561382257600080fd5b60006138308482850161366a565b91505092915050565b6000610100828403121561384c57600080fd5b600061385a8482850161367f565b91505092915050565b60006020828403121561387557600080fd5b600061388384828501613745565b91505092915050565b60006020828403121561389e57600080fd5b60006138ac8482850161375a565b91505092915050565b600080604083850312156138c857600080fd5b60006138d685828601613745565b92505060206138e7858286016135bd565b9150509250929050565b600080600080600060a0868803121561390957600080fd5b600061391788828901613745565b955050602086013567ffffffffffffffff81111561393457600080fd5b613940888289016135e7565b945050604086013567ffffffffffffffff81111561395d57600080fd5b613969888289016135e7565b935050606061397a88828901613745565b925050608061398b88828901613745565b9150509295509295909350565b600080604083850312156139ab57600080fd5b60006139b985828601613745565b92505060206139ca85828601613745565b9150509250929050565b6000806000606084860312156139e957600080fd5b60006139f786828701613745565b9350506020613a0886828701613745565b925050604084013567ffffffffffffffff811115613a2557600080fd5b613a31868287016135e7565b9150509250925092565b600080600060608486031215613a5057600080fd5b6000613a5e86828701613745565b9350506020613a6f86828701613745565b9250506040613a8086828701613745565b9150509250925092565b600060208284031215613a9c57600080fd5b6000613aaa8482850161376f565b91505092915050565b6000613abf838361420d565b60208301905092915050565b613ad4816148de565b82525050565b6000613ae582614805565b613aef8185614853565b9350613afa836147d5565b8060005b83811015613b2b578151613b128882613ab3565b9750613b1d83614828565b925050600181019050613afe565b5085935050505092915050565b6000613b43826147fa565b613b4d8185614842565b9350613b58836147c5565b8060005b83811015613b89578151613b708882613ab3565b9750613b7b8361481b565b925050600181019050613b5c565b5085935050505092915050565b6000613ba182614810565b613bab8185614853565b9350613bb6836147e5565b8060005b83811015613bee57613bcb826149d0565b613bd58882613ab3565b9750613be083614835565b925050600181019050613bba565b5085935050505092915050565b613c0481614891565b82525050565b613c1381614891565b82525050565b613c228161489d565b82525050565b613c31816148f0565b82525050565b613c4081614914565b82525050565b613c4f81614938565b82525050565b613c5e8161495c565b82525050565b613c6d81614980565b82525050565b6000613c80601f83614864565b91507f526f6c65733a206163636f756e7420616c72656164792068617320726f6c65006000830152602082019050919050565b6000613cc0602983614864565b91507f736f727465645b695d206973206e6f742067726561746572207468616e206c6160008301527f73745669736974656400000000000000000000000000000000000000000000006020830152604082019050919050565b6000613d26601b83614864565b91507f536166654d6174683a206164646974696f6e206f766572666c6f7700000000006000830152602082019050919050565b6000613d66600b83614864565b91507f6e6f7420656c65637465640000000000000000000000000000000000000000006000830152602082019050919050565b6000613da6601a83614864565b91507f536166654d6174683a206469766973696f6e206279207a65726f0000000000006000830152602082019050919050565b6000613de6601883614864565b91507f536166654d6174683a206d6f64756c6f206279207a65726f00000000000000006000830152602082019050919050565b6000613e26602183614864565b91507f526f6c65733a206163636f756e7420646f6573206e6f74206861766520726f6c60008301527f65000000000000000000000000000000000000000000000000000000000000006020830152604082019050919050565b6000613e8c602183614864565b91507f536166654d6174683a206d756c7469706c69636174696f6e206f766572666c6f60008301527f77000000000000000000000000000000000000000000000000000000000000006020830152604082019050919050565b6000613ef2600f83614864565b91507f696e636f72726563742065706f636800000000000000000000000000000000006000830152602082019050919050565b6000613f32602283614864565b91507f526f6c65733a206163636f756e7420697320746865207a65726f20616464726560008301527f73730000000000000000000000000000000000000000000000000000000000006020830152604082019050919050565b6000613f98601483614864565b91507f41737365744964206e6f74206d61746368696e670000000000000000000000006000830152602082019050919050565b6000613fd8603783614864565b91507f50726f706f73656420416c7465726e61746520626c6f636b206973206964656e60008301527f746963616c20746f2070726f706f73656420626c6f636b0000000000000000006020830152604082019050919050565b600061403e601983614864565b91507f7374616b652062656c6f77206d696e696d756d207374616b65000000000000006000830152602082019050919050565b600061407e602183614864565b91507f546f74616c207374616b652072657665616c656420646f65736e74206d61746360008301527f68000000000000000000000000000000000000000000000000000000000000006020830152604082019050919050565b60006140e4600f83614864565b91507f696e636f727265637420737461746500000000000000000000000000000000006000830152602082019050919050565b6000614124603083614864565b91507f577269746572526f6c653a2063616c6c657220646f6573206e6f74206861766560008301527f207468652057726974657220726f6c65000000000000000000000000000000006020830152604082019050919050565b600060c083016000830151614195600086018261420d565b50602083015184820360208601526141ad8282613b38565b915050604083015184820360408601526141c78282613b38565b91505060608301516141dc606086018261420d565b5060808301516141ef608086018261420d565b5060a083015161420260a0860182613bfb565b508091505092915050565b614216816148c7565b82525050565b614225816148c7565b82525050565b614234816148c7565b82525050565b600060208201905061424f6000830184613acb565b92915050565b6000602082019050818103600083015261426f8184613ada565b905092915050565b600060208201905061428c6000830184613c0a565b92915050565b60006020820190506142a76000830184613c28565b92915050565b60006020820190506142c26000830184613c37565b92915050565b60006020820190506142dd6000830184613c46565b92915050565b60006020820190506142f86000830184613c55565b92915050565b60006040820190506143136000830185613c64565b6143206020830184613c19565b9392505050565b600060608201905061433c6000830186613c64565b614349602083018561422b565b6143566040830184613c19565b949350505050565b6000602082019050818103600083015261437781613c73565b9050919050565b6000602082019050818103600083015261439781613cb3565b9050919050565b600060208201905081810360008301526143b781613d19565b9050919050565b600060208201905081810360008301526143d781613d59565b9050919050565b600060208201905081810360008301526143f781613d99565b9050919050565b6000602082019050818103600083015261441781613dd9565b9050919050565b6000602082019050818103600083015261443781613e19565b9050919050565b6000602082019050818103600083015261445781613e7f565b9050919050565b6000602082019050818103600083015261447781613ee5565b9050919050565b6000602082019050818103600083015261449781613f25565b9050919050565b600060208201905081810360008301526144b781613f8b565b9050919050565b600060208201905081810360008301526144d781613fcb565b9050919050565b600060208201905081810360008301526144f781614031565b9050919050565b6000602082019050818103600083015261451781614071565b9050919050565b60006020820190508181036000830152614537816140d7565b9050919050565b6000602082019050818103600083015261455781614117565b9050919050565b60006020820190508181036000830152614578818461417d565b905092915050565b6000602082019050614595600083018461421c565b92915050565b60006040820190506145b0600083018561421c565b6145bd6020830184613acb565b9392505050565b60006040820190506145d9600083018561421c565b6145e6602083018461421c565b9392505050565b600060c082019050614602600083018961421c565b61460f602083018861421c565b81810360408301526146218187613ada565b905081810360608301526146358186613ada565b9050614644608083018561421c565b61465160a083018461421c565b979650505050505050565b6000608082019050614671600083018761421c565b61467e602083018661421c565b81810360408301526146908185613b96565b905081810360608301526146a48184613b96565b905095945050505050565b60006060820190506146c4600083018661421c565b6146d1602083018561421c565b6146de604083018461421c565b949350505050565b60006080820190506146fb600083018761421c565b614708602083018661421c565b614715604083018561421c565b6147226060830184613c0a565b95945050505050565b6000608082019050614740600083018761421c565b61474d602083018661421c565b61475a604083018561421c565b614767606083018461421c565b95945050505050565b6000604051905081810181811067ffffffffffffffff8211171561479357600080fd5b8060405250919050565b600067ffffffffffffffff8211156147b457600080fd5b602082029050602081019050919050565b6000819050602082019050919050565b6000819050602082019050919050565b60008190508160005260206000209050919050565b600081519050919050565b600081519050919050565b600081549050919050565b6000602082019050919050565b6000602082019050919050565b6000600182019050919050565b600082825260208201905092915050565b600082825260208201905092915050565b600082825260208201905092915050565b6000819050919050565b600061488a826148a7565b9050919050565b60008115159050919050565b6000819050919050565b600073ffffffffffffffffffffffffffffffffffffffff82169050919050565b6000819050919050565b600060ff82169050919050565b60006148e982614992565b9050919050565b60006148fb82614902565b9050919050565b600061490d826148a7565b9050919050565b600061491f82614926565b9050919050565b6000614931826148a7565b9050919050565b60006149438261494a565b9050919050565b6000614955826148a7565b9050919050565b60006149678261496e565b9050919050565b6000614979826148a7565b9050919050565b600061498b826148d1565b9050919050565b600061499d826149a4565b9050919050565b60006149af826148a7565b9050919050565b60006149c96149c4836149e3565b614875565b9050919050565b60006149dc82546149b6565b9050919050565b60008160001c9050919050565b6149f98161487f565b8114614a0457600080fd5b50565b614a108161489d565b8114614a1b57600080fd5b50565b614a27816148c7565b8114614a3257600080fd5b50565b614a3e816148d1565b8114614a4957600080fd5b5056fea365627a7a7230582032e85106eb5ae25a1cead539b843a390c99d03a15af145c730523448540e36746c6578706572696d656e74616cf564736f6c634300050a0040",
  "source": "pragma solidity 0.5.10;\npragma experimental ABIEncoderV2;\nimport \"../lib/Random.sol\";\n// import \"../SimpleToken.sol\";\nimport \"./Utils.sol\";\nimport \"./BlockStorage.sol\";\nimport \"./IStakeManager.sol\";\nimport \"./IStateManager.sol\";\nimport \"./IVoteManager.sol\";\nimport \"./IJobManager.sol\";\nimport \"openzeppelin-solidity/contracts/math/SafeMath.sol\";\nimport \"./WriterRole.sol\";\n\n\ncontract BlockManager is Utils, WriterRole, BlockStorage {\n    using SafeMath for uint256;\n\n    IStakeManager public stakeManager;\n    IStateManager public stateManager;\n    IVoteManager public voteManager;\n    IJobManager public jobManager;\n\n    modifier checkEpoch (uint256 epoch) {\n        require(epoch == stateManager.getEpoch(), \"incorrect epoch\");\n        _;\n    }\n\n    modifier checkState (uint256 state) {\n        require(state == stateManager.getState(), \"incorrect state\");\n        _;\n    }\n\n    function getBlock(uint256 epoch) external view returns(Structs.Block memory _block) {\n        return(blocks[epoch]);\n    }\n\n    function getBlockMedians(uint256 epoch) external view returns(uint256[] memory _blockMedians) {\n        _blockMedians = blocks[epoch].medians;\n        return(_blockMedians);\n    }\n\n    function getProposedBlock(uint256 epoch, uint256 proposedBlock)\n    external view returns(Structs.Block memory _block) {\n        _block = proposedBlocks[epoch][proposedBlock];\n        return(_block);\n    }\n\n    function getProposedBlockMedians(uint256 epoch, uint256 proposedBlock)\n    external view returns(uint256[] memory _blockMedians) {\n        _blockMedians = proposedBlocks[epoch][proposedBlock].medians;\n        return(_blockMedians);\n    }\n\n    function getNumProposedBlocks(uint256 epoch)\n    external view returns(uint256) {\n        return(proposedBlocks[epoch].length);\n    }\n\n    //disable after init.\n    function init(address _stakeManagerAddress, address _stateManagerAddress,\n                address _voteManagerAddress, address _jobManagerAddress) public {\n        stakeManager = IStakeManager(_stakeManagerAddress);\n        stateManager = IStateManager(_stateManagerAddress);\n        voteManager = IVoteManager(_voteManagerAddress);\n        jobManager = IJobManager(_jobManagerAddress);\n    }\n\n    event Proposed(uint256 epoch,\n                    uint256 stakerId,\n                    uint256[] medians,\n                    uint256[] jobIds,\n                    uint256 iteration,\n                    uint256 biggestStakerId);\n\n    // elected proposer proposes block. we use a probabilistic method to elect stakers weighted by stake\n    // protocol works like this. select a staker pseudorandomly (not weighted by anything)\n    // (todo what if it is below min stake)\n    // that staker then tosses a biased coin. bias = hisStake/biggestStake. if its heads, he can propose block\n    // end of iteration. try next iteration\n    // note that only one staker or no stakers selected in each iteration.\n    // stakers elected in higher iterations can also propose hoping that\n    // stakers with lower iteration do not propose for some reason\n    function propose (uint256 epoch,\n                    uint256[] memory medians,\n                    uint256[] memory jobIds,\n                    uint256 iteration,\n                    uint256 biggestStakerId) public checkEpoch(epoch) checkState(Constants.propose()) {\n        uint256 proposerId = stakeManager.getStakerId(msg.sender);\n        // SimpleToken sch = SimpleToken(schAddress);\n        require(isElectedProposer(iteration, biggestStakerId, proposerId), \"not elected\");\n        require(stakeManager.getStaker(proposerId).stake >= Constants.minStake(), \"stake below minimum stake\");\n\n        // check if someone already proposed\n        // if (blocks[epoch].proposerId != 0) {\n        //     if (blocks[epoch].proposerId == proposerId) {\n        //         revert(\"Already Proposed\");\n        //     }\n        //     // if (stakers[biggestStakerId].stake == blocks[epoch].biggestStake &&\n        //     //     proposedBlocks[epoch].length >= Constants.maxAltBlocks()) {\n        //     //\n        //     //     require(proposedBlocks[epoch][4].iteration > iteration,\n        //     //             \"iteration not smaller than last elected staker\");\n        //     // } else\n        //     if (stakers[biggestStakerId].stake < blocks[epoch].biggestStake) {\n        //         revert(\"biggest stakers stake not bigger than as proposed by existing elected staker \");\n        //     }\n        // }\n        // blocks[epoch]\n        uint256 pushAt = _insertAppropriately(epoch, Structs.Block(proposerId,\n                                        medians,\n                                        jobIds,\n                                        iteration,\n                                        stakeManager.getStaker(biggestStakerId).stake,\n                                        true));\n        emit DebugUint256(pushAt);\n        // mint and give block reward\n        // if (Constants.blockReward() > 0) {\n        //     stakers[proposerId].stake = stakers[proposerId].stake.add(Constants.blockReward());\n        //     totalStake = totalStake.add(Constants.blockReward());\n        //     require(sch.mint(address(this), Constants.blockReward()));\n        // }\n        emit Proposed(epoch, proposerId, medians, jobIds, iteration, biggestStakerId);\n    }\n\n    //anyone can give sorted votes in batches in dispute state\n    function giveSorted (uint256 epoch, uint256 assetId, uint256[] memory sorted) public\n    checkEpoch(epoch) checkState(Constants.dispute()) {\n        uint256 medianWeight = voteManager.getTotalStakeRevealed(epoch, assetId).div(2);\n        //accWeight = accumulatedWeight\n        uint256 accWeight = disputes[epoch][msg.sender].accWeight;\n        uint256 lastVisited = disputes[epoch][msg.sender].lastVisited;\n        if (disputes[epoch][msg.sender].accWeight == 0) {\n            disputes[epoch][msg.sender].assetId = assetId;\n        } else {\n            require(disputes[epoch][msg.sender].assetId == assetId, \"AssetId not matching\");\n        }\n        for (uint256 i = 0; i < sorted.length; i++) {\n            require(sorted[i] > lastVisited, \"sorted[i] is not greater than lastVisited\");\n            lastVisited = sorted[i];\n            accWeight = accWeight.add(voteManager.getVoteWeight(epoch, assetId, sorted[i]));\n            //set  median, if conditions meet\n            if (disputes[epoch][msg.sender].median == 0 && accWeight > medianWeight) {\n                disputes[epoch][msg.sender].median = sorted[i];\n            }\n            //TODO verify how much gas required for below operations and update this value\n            if (gasleft() < 10000) break;\n        }\n        disputes[epoch][msg.sender].lastVisited = lastVisited;\n        disputes[epoch][msg.sender].accWeight = accWeight;\n    }\n\n    // //todo test\n    // //if any mistake made during giveSorted, resetDispute and start again\n    function resetDispute (uint256 epoch) public checkEpoch(epoch) checkState(Constants.dispute()) {\n        disputes[epoch][msg.sender] = Structs.Dispute(0, 0, 0, 0);\n    }\n\n    function finalizeDispute (uint256 epoch, uint256 blockId)\n    public checkEpoch(epoch) checkState(Constants.dispute()) {\n        uint256 assetId = disputes[epoch][msg.sender].assetId;\n        require(disputes[epoch][msg.sender].accWeight == voteManager.getTotalStakeRevealed(epoch, assetId),\n        \"Total stake revealed doesnt match\");\n        uint256 median = disputes[epoch][msg.sender].median;\n        uint256 proposerId = proposedBlocks[epoch][blockId].proposerId;\n        //\n        require(median > 0);\n        if (proposedBlocks[epoch][blockId].medians[assetId] != median) {\n            proposedBlocks[epoch][blockId].valid = false;\n            stakeManager.slash(proposerId, msg.sender);\n        } else {\n            revert(\"Proposed Alternate block is identical to proposed block\");\n        }\n    }\n\n    function isElectedProposer(uint256 iteration, uint256 biggestStakerId, uint256 stakerId) public view returns(bool) {\n       // rand = 0 -> totalStake-1\n       //add +1 since prng returns 0 to max-1 and staker start from 1\n        if ((Random.prng(10, stakeManager.getNumStakers(), keccak256(abi.encode(iteration))).add(1))\n        != stakerId) {return(false);}\n        bytes32 randHash = Random.prngHash(10, keccak256(abi.encode(stakerId, iteration)));\n        uint256 rand = uint256(randHash).mod(2**32);\n        uint256 biggestStake = stakeManager.getStaker(biggestStakerId).stake;\n        if (rand.mul(biggestStake) > stakeManager.getStaker(stakerId).stake.mul(2**32)) return(false);\n        return(true);\n    }\n\n    event BlockConfirmed(uint256 epoch,\n                    uint256 stakerId,\n                    uint256[] medians,\n                    uint256[] jobIds);\n\n    function confirmBlock() public onlyWriter {\n        uint256 epoch = stateManager.getEpoch();\n        if (blocks[epoch - 1].proposerId == 0 && proposedBlocks[epoch - 1].length > 0) {\n            for (uint8 i=0; i < proposedBlocks[epoch - 1].length; i++) {\n                if (proposedBlocks[epoch - 1][i].valid) {\n                    blocks[epoch - 1] = proposedBlocks[epoch - 1][i];\n                    uint256 proposerId = proposedBlocks[epoch - 1][i].proposerId;\n                    emit BlockConfirmed(epoch - 1, proposerId, proposedBlocks[epoch - 1][i].medians,\n                    proposedBlocks[epoch - 1][i].jobIds);\n                    for (uint8 j = 0; j < proposedBlocks[epoch - 1][i].jobIds.length; j++) {\n                        jobManager.fulfillJob(proposedBlocks[epoch - 1][i].jobIds[j],\n                                            proposedBlocks[epoch - 1][i].medians[j]);\n                    }\n                    stakeManager.giveBlockReward(proposerId);\n                    return;\n                }\n            }\n        }\n    }\n\n    function _insertAppropriately(uint256 epoch, Structs.Block memory _block) internal returns(uint256) {\n       // uint256 iteration = _block.iteration;\n        if (proposedBlocks[epoch].length == 0) {\n            proposedBlocks[epoch].push(_block);\n            return(0);\n        }\n       // Structs.Block[] memory temp = proposedBlocks[epoch];\n       // delete (proposedBlocks[epoch]);\n       // bool pushed = false;\n       // bool empty = true;\n        uint256 pushAt = proposedBlocks[epoch].length;\n        for (uint256 i = 0; i < proposedBlocks[epoch].length; i++) {\n            if (proposedBlocks[epoch][i].biggestStake < _block.biggestStake) {\n                pushAt = i;\n                break;\n            }\n            if (proposedBlocks[epoch][i].iteration > _block.iteration) {\n                pushAt = i;\n                break;\n            }\n        }\n\n        proposedBlocks[epoch].push(_block);\n        for (uint256 j = proposedBlocks[epoch].length - 1; j > (pushAt); j--) {\n            proposedBlocks[epoch][j] = proposedBlocks[epoch][j - 1];\n        }\n        // if (pushAt < proposedBlocks[epoch].length) {\n\n        proposedBlocks[epoch][pushAt] = _block;\n        // }\n        // if (pushed == false && temp.length < Constants.maxAltBlocks()) {\n        //     proposedBlocks[epoch].push(_block);\n        // }\n        if (proposedBlocks[epoch].length > Constants.maxAltBlocks()) {\n            delete (proposedBlocks[epoch][proposedBlocks[epoch].length - 1]);\n        }\n        return(pushAt);\n    }\n\n\n}\n",
  "sourcePath": "/Users/hrishi/contracts/contracts/Schelling4/BlockManager.sol",
  "compiler": {
    "name": "solc",
    "version": "0.5.10+commit.5a6ea5b1.Emscripten.clang"
  },
  "schemaVersion": "3.0.11",
  "updatedAt": "2019-09-16T18:27:29.697Z",
  "devdoc": {
    "methods": {}
  },
  "userdoc": {
    "methods": {}
  }
}