{
  "contractName": "BlockManager",
  "abi": [
    {
      "anonymous": false,
      "inputs": [
        {
          "indexed": false,
          "internalType": "uint256",
          "name": "epoch",
          "type": "uint256"
        },
        {
          "indexed": false,
          "internalType": "uint256",
          "name": "stakerId",
          "type": "uint256"
        },
        {
          "indexed": false,
          "internalType": "uint256[]",
          "name": "medians",
          "type": "uint256[]"
        },
        {
          "indexed": false,
          "internalType": "uint256[]",
          "name": "lowerCutoffs",
          "type": "uint256[]"
        },
        {
          "indexed": false,
          "internalType": "uint256[]",
          "name": "higherCutoffs",
          "type": "uint256[]"
        },
        {
          "indexed": false,
          "internalType": "uint256[]",
          "name": "jobIds",
          "type": "uint256[]"
        },
        {
          "indexed": false,
          "internalType": "uint256",
          "name": "timestamp",
          "type": "uint256"
        }
      ],
      "name": "BlockConfirmed",
      "type": "event"
    },
    {
      "anonymous": false,
      "inputs": [
        {
          "indexed": false,
          "internalType": "uint256",
          "name": "a",
          "type": "uint256"
        }
      ],
      "name": "DebugUint256",
      "type": "event"
    },
    {
      "anonymous": false,
      "inputs": [
        {
          "indexed": false,
          "internalType": "uint256",
          "name": "epoch",
          "type": "uint256"
        },
        {
          "indexed": false,
          "internalType": "uint256",
          "name": "stakerId",
          "type": "uint256"
        },
        {
          "indexed": false,
          "internalType": "uint256[]",
          "name": "jobIds",
          "type": "uint256[]"
        },
        {
          "indexed": false,
          "internalType": "uint256[]",
          "name": "medians",
          "type": "uint256[]"
        },
        {
          "indexed": false,
          "internalType": "uint256[]",
          "name": "lowerCutoffs",
          "type": "uint256[]"
        },
        {
          "indexed": false,
          "internalType": "uint256[]",
          "name": "higherCutoffs",
          "type": "uint256[]"
        },
        {
          "indexed": false,
          "internalType": "uint256",
          "name": "iteration",
          "type": "uint256"
        },
        {
          "indexed": false,
          "internalType": "uint256",
          "name": "biggestStakerId",
          "type": "uint256"
        },
        {
          "indexed": false,
          "internalType": "uint256",
          "name": "timestamp",
          "type": "uint256"
        }
      ],
      "name": "Proposed",
      "type": "event"
    },
    {
      "anonymous": false,
      "inputs": [
        {
          "indexed": true,
          "internalType": "bytes32",
          "name": "role",
          "type": "bytes32"
        },
        {
          "indexed": true,
          "internalType": "bytes32",
          "name": "previousAdminRole",
          "type": "bytes32"
        },
        {
          "indexed": true,
          "internalType": "bytes32",
          "name": "newAdminRole",
          "type": "bytes32"
        }
      ],
      "name": "RoleAdminChanged",
      "type": "event"
    },
    {
      "anonymous": false,
      "inputs": [
        {
          "indexed": true,
          "internalType": "bytes32",
          "name": "role",
          "type": "bytes32"
        },
        {
          "indexed": true,
          "internalType": "address",
          "name": "account",
          "type": "address"
        },
        {
          "indexed": true,
          "internalType": "address",
          "name": "sender",
          "type": "address"
        }
      ],
      "name": "RoleGranted",
      "type": "event"
    },
    {
      "anonymous": false,
      "inputs": [
        {
          "indexed": true,
          "internalType": "bytes32",
          "name": "role",
          "type": "bytes32"
        },
        {
          "indexed": true,
          "internalType": "address",
          "name": "account",
          "type": "address"
        },
        {
          "indexed": true,
          "internalType": "address",
          "name": "sender",
          "type": "address"
        }
      ],
      "name": "RoleRevoked",
      "type": "event"
    },
    {
      "inputs": [],
      "name": "DEFAULT_ADMIN_ROLE",
      "outputs": [
        {
          "internalType": "bytes32",
          "name": "",
          "type": "bytes32"
        }
      ],
      "stateMutability": "view",
      "type": "function",
      "constant": true
    },
    {
      "inputs": [
        {
          "internalType": "uint256",
          "name": "",
          "type": "uint256"
        }
      ],
      "name": "blocks",
      "outputs": [
        {
          "internalType": "uint256",
          "name": "proposerId",
          "type": "uint256"
        },
        {
          "internalType": "uint256",
          "name": "iteration",
          "type": "uint256"
        },
        {
          "internalType": "uint256",
          "name": "biggestStake",
          "type": "uint256"
        },
        {
          "internalType": "bool",
          "name": "valid",
          "type": "bool"
        }
      ],
      "stateMutability": "view",
      "type": "function",
      "constant": true
    },
    {
      "inputs": [
        {
          "internalType": "uint256",
          "name": "",
          "type": "uint256"
        },
        {
          "internalType": "address",
          "name": "",
          "type": "address"
        }
      ],
      "name": "disputes",
      "outputs": [
        {
          "internalType": "uint256",
          "name": "accWeight",
          "type": "uint256"
        },
        {
          "internalType": "uint256",
          "name": "median",
          "type": "uint256"
        },
        {
          "internalType": "uint256",
          "name": "lowerCutoff",
          "type": "uint256"
        },
        {
          "internalType": "uint256",
          "name": "higherCutoff",
          "type": "uint256"
        },
        {
          "internalType": "uint256",
          "name": "lastVisited",
          "type": "uint256"
        },
        {
          "internalType": "uint256",
          "name": "assetId",
          "type": "uint256"
        }
      ],
      "stateMutability": "view",
      "type": "function",
      "constant": true
    },
    {
      "inputs": [
        {
          "internalType": "bytes32",
          "name": "role",
          "type": "bytes32"
        }
      ],
      "name": "getRoleAdmin",
      "outputs": [
        {
          "internalType": "bytes32",
          "name": "",
          "type": "bytes32"
        }
      ],
      "stateMutability": "view",
      "type": "function",
      "constant": true
    },
    {
      "inputs": [
        {
          "internalType": "bytes32",
          "name": "role",
          "type": "bytes32"
        },
        {
          "internalType": "uint256",
          "name": "index",
          "type": "uint256"
        }
      ],
      "name": "getRoleMember",
      "outputs": [
        {
          "internalType": "address",
          "name": "",
          "type": "address"
        }
      ],
      "stateMutability": "view",
      "type": "function",
      "constant": true
    },
    {
      "inputs": [
        {
          "internalType": "bytes32",
          "name": "role",
          "type": "bytes32"
        }
      ],
      "name": "getRoleMemberCount",
      "outputs": [
        {
          "internalType": "uint256",
          "name": "",
          "type": "uint256"
        }
      ],
      "stateMutability": "view",
      "type": "function",
      "constant": true
    },
    {
      "inputs": [
        {
          "internalType": "bytes32",
          "name": "role",
          "type": "bytes32"
        },
        {
          "internalType": "address",
          "name": "account",
          "type": "address"
        }
      ],
      "name": "grantRole",
      "outputs": [],
      "stateMutability": "nonpayable",
      "type": "function"
    },
    {
      "inputs": [
        {
          "internalType": "bytes32",
          "name": "role",
          "type": "bytes32"
        },
        {
          "internalType": "address",
          "name": "account",
          "type": "address"
        }
      ],
      "name": "hasRole",
      "outputs": [
        {
          "internalType": "bool",
          "name": "",
          "type": "bool"
        }
      ],
      "stateMutability": "view",
      "type": "function",
      "constant": true
    },
    {
      "inputs": [],
      "name": "jobManager",
      "outputs": [
        {
          "internalType": "contract IJobManager",
          "name": "",
          "type": "address"
        }
      ],
      "stateMutability": "view",
      "type": "function",
      "constant": true
    },
    {
      "inputs": [
        {
          "internalType": "uint256",
          "name": "",
          "type": "uint256"
        },
        {
          "internalType": "uint256",
          "name": "",
          "type": "uint256"
        }
      ],
      "name": "proposedBlocks",
      "outputs": [
        {
          "internalType": "uint256",
          "name": "proposerId",
          "type": "uint256"
        },
        {
          "internalType": "uint256",
          "name": "iteration",
          "type": "uint256"
        },
        {
          "internalType": "uint256",
          "name": "biggestStake",
          "type": "uint256"
        },
        {
          "internalType": "bool",
          "name": "valid",
          "type": "bool"
        }
      ],
      "stateMutability": "view",
      "type": "function",
      "constant": true
    },
    {
      "inputs": [
        {
          "internalType": "bytes32",
          "name": "role",
          "type": "bytes32"
        },
        {
          "internalType": "address",
          "name": "account",
          "type": "address"
        }
      ],
      "name": "renounceRole",
      "outputs": [],
      "stateMutability": "nonpayable",
      "type": "function"
    },
    {
      "inputs": [
        {
          "internalType": "bytes32",
          "name": "role",
          "type": "bytes32"
        },
        {
          "internalType": "address",
          "name": "account",
          "type": "address"
        }
      ],
      "name": "revokeRole",
      "outputs": [],
      "stateMutability": "nonpayable",
      "type": "function"
    },
    {
      "inputs": [],
      "name": "stakeManager",
      "outputs": [
        {
          "internalType": "contract IStakeManager",
          "name": "",
          "type": "address"
        }
      ],
      "stateMutability": "view",
      "type": "function",
      "constant": true
    },
    {
      "inputs": [],
      "name": "stateManager",
      "outputs": [
        {
          "internalType": "contract IStateManager",
          "name": "",
          "type": "address"
        }
      ],
      "stateMutability": "view",
      "type": "function",
      "constant": true
    },
    {
      "inputs": [],
      "name": "voteManager",
      "outputs": [
        {
          "internalType": "contract IVoteManager",
          "name": "",
          "type": "address"
        }
      ],
      "stateMutability": "view",
      "type": "function",
      "constant": true
    },
    {
      "inputs": [
        {
          "internalType": "uint256",
          "name": "epoch",
          "type": "uint256"
        }
      ],
      "name": "getBlock",
      "outputs": [
        {
          "components": [
            {
              "internalType": "uint256",
              "name": "proposerId",
              "type": "uint256"
            },
            {
              "internalType": "uint256[]",
              "name": "jobIds",
              "type": "uint256[]"
            },
            {
              "internalType": "uint256[]",
              "name": "medians",
              "type": "uint256[]"
            },
            {
              "internalType": "uint256[]",
              "name": "lowerCutoffs",
              "type": "uint256[]"
            },
            {
              "internalType": "uint256[]",
              "name": "higherCutoffs",
              "type": "uint256[]"
            },
            {
              "internalType": "uint256",
              "name": "iteration",
              "type": "uint256"
            },
            {
              "internalType": "uint256",
              "name": "biggestStake",
              "type": "uint256"
            },
            {
              "internalType": "bool",
              "name": "valid",
              "type": "bool"
            }
          ],
          "internalType": "struct Structs.Block",
          "name": "_block",
          "type": "tuple"
        }
      ],
      "stateMutability": "view",
      "type": "function",
      "constant": true
    },
    {
      "inputs": [
        {
          "internalType": "uint256",
          "name": "epoch",
          "type": "uint256"
        }
      ],
      "name": "getBlockMedians",
      "outputs": [
        {
          "internalType": "uint256[]",
          "name": "_blockMedians",
          "type": "uint256[]"
        }
      ],
      "stateMutability": "view",
      "type": "function",
      "constant": true
    },
    {
      "inputs": [
        {
          "internalType": "uint256",
          "name": "epoch",
          "type": "uint256"
        }
      ],
      "name": "getLowerCutoffs",
      "outputs": [
        {
          "internalType": "uint256[]",
          "name": "_lowerCutoffs",
          "type": "uint256[]"
        }
      ],
      "stateMutability": "view",
      "type": "function",
      "constant": true
    },
    {
      "inputs": [
        {
          "internalType": "uint256",
          "name": "epoch",
          "type": "uint256"
        }
      ],
      "name": "getHigherCutoffs",
      "outputs": [
        {
          "internalType": "uint256[]",
          "name": "_higherCutoffs",
          "type": "uint256[]"
        }
      ],
      "stateMutability": "view",
      "type": "function",
      "constant": true
    },
    {
      "inputs": [
        {
          "internalType": "uint256",
          "name": "epoch",
          "type": "uint256"
        },
        {
          "internalType": "uint256",
          "name": "proposedBlock",
          "type": "uint256"
        }
      ],
      "name": "getProposedBlock",
      "outputs": [
        {
          "components": [
            {
              "internalType": "uint256",
              "name": "proposerId",
              "type": "uint256"
            },
            {
              "internalType": "uint256[]",
              "name": "jobIds",
              "type": "uint256[]"
            },
            {
              "internalType": "uint256[]",
              "name": "medians",
              "type": "uint256[]"
            },
            {
              "internalType": "uint256[]",
              "name": "lowerCutoffs",
              "type": "uint256[]"
            },
            {
              "internalType": "uint256[]",
              "name": "higherCutoffs",
              "type": "uint256[]"
            },
            {
              "internalType": "uint256",
              "name": "iteration",
              "type": "uint256"
            },
            {
              "internalType": "uint256",
              "name": "biggestStake",
              "type": "uint256"
            },
            {
              "internalType": "bool",
              "name": "valid",
              "type": "bool"
            }
          ],
          "internalType": "struct Structs.Block",
          "name": "_block",
          "type": "tuple"
        },
        {
          "internalType": "uint256[]",
          "name": "_blockMedians",
          "type": "uint256[]"
        },
        {
          "internalType": "uint256[]",
          "name": "_lowerCutoffs",
          "type": "uint256[]"
        },
        {
          "internalType": "uint256[]",
          "name": "_higherCutoffs",
          "type": "uint256[]"
        }
      ],
      "stateMutability": "view",
      "type": "function",
      "constant": true
    },
    {
      "inputs": [
        {
          "internalType": "uint256",
          "name": "epoch",
          "type": "uint256"
        },
        {
          "internalType": "uint256",
          "name": "proposedBlock",
          "type": "uint256"
        }
      ],
      "name": "getProposedBlockMedians",
      "outputs": [
        {
          "internalType": "uint256[]",
          "name": "_blockMedians",
          "type": "uint256[]"
        }
      ],
      "stateMutability": "view",
      "type": "function",
      "constant": true
    },
    {
      "inputs": [
        {
          "internalType": "uint256",
          "name": "epoch",
          "type": "uint256"
        }
      ],
      "name": "getNumProposedBlocks",
      "outputs": [
        {
          "internalType": "uint256",
          "name": "",
          "type": "uint256"
        }
      ],
      "stateMutability": "view",
      "type": "function",
      "constant": true
    },
    {
      "inputs": [
        {
          "internalType": "address",
          "name": "_stakeManagerAddress",
          "type": "address"
        },
        {
          "internalType": "address",
          "name": "_stateManagerAddress",
          "type": "address"
        },
        {
          "internalType": "address",
          "name": "_voteManagerAddress",
          "type": "address"
        },
        {
          "internalType": "address",
          "name": "_jobManagerAddress",
          "type": "address"
        }
      ],
      "name": "init",
      "outputs": [],
      "stateMutability": "nonpayable",
      "type": "function"
    },
    {
      "inputs": [
        {
          "internalType": "uint256",
          "name": "epoch",
          "type": "uint256"
        },
        {
          "internalType": "uint256[]",
          "name": "jobIds",
          "type": "uint256[]"
        },
        {
          "internalType": "uint256[]",
          "name": "medians",
          "type": "uint256[]"
        },
        {
          "internalType": "uint256[]",
          "name": "lowerCutoffs",
          "type": "uint256[]"
        },
        {
          "internalType": "uint256[]",
          "name": "higherCutoffs",
          "type": "uint256[]"
        },
        {
          "internalType": "uint256",
          "name": "iteration",
          "type": "uint256"
        },
        {
          "internalType": "uint256",
          "name": "biggestStakerId",
          "type": "uint256"
        }
      ],
      "name": "propose",
      "outputs": [],
      "stateMutability": "nonpayable",
      "type": "function"
    },
    {
      "inputs": [
        {
          "internalType": "uint256",
          "name": "epoch",
          "type": "uint256"
        },
        {
          "internalType": "uint256",
          "name": "assetId",
          "type": "uint256"
        },
        {
          "internalType": "uint256[]",
          "name": "sorted",
          "type": "uint256[]"
        }
      ],
      "name": "giveSorted",
      "outputs": [],
      "stateMutability": "nonpayable",
      "type": "function"
    },
    {
      "inputs": [
        {
          "internalType": "uint256",
          "name": "epoch",
          "type": "uint256"
        }
      ],
      "name": "resetDispute",
      "outputs": [],
      "stateMutability": "nonpayable",
      "type": "function"
    },
    {
      "inputs": [
        {
          "internalType": "uint256",
          "name": "epoch",
          "type": "uint256"
        },
        {
          "internalType": "uint256",
          "name": "blockId",
          "type": "uint256"
        }
      ],
      "name": "finalizeDispute",
      "outputs": [],
      "stateMutability": "nonpayable",
      "type": "function"
    },
    {
      "inputs": [
        {
          "internalType": "uint256",
          "name": "iteration",
          "type": "uint256"
        },
        {
          "internalType": "uint256",
          "name": "biggestStakerId",
          "type": "uint256"
        },
        {
          "internalType": "uint256",
          "name": "stakerId",
          "type": "uint256"
        }
      ],
      "name": "isElectedProposer",
      "outputs": [
        {
          "internalType": "bool",
          "name": "",
          "type": "bool"
        }
      ],
      "stateMutability": "view",
      "type": "function",
      "constant": true
    },
    {
      "inputs": [],
      "name": "confirmBlock",
      "outputs": [],
      "stateMutability": "nonpayable",
      "type": "function"
    }
  ],
  "bytecode": "0x60806040523480156200001157600080fd5b50620000286000336001600160e01b036200002e16565b62000166565b6200004382826001600160e01b036200004716565b5050565b6000828152602081815260409091206200006c918390620026c2620000c9821b17901c565b156200004357620000856001600160e01b03620000f216565b6001600160a01b0316816001600160a01b0316837f2f8788117e7eff1d82e926ec794901d17c78024a50270940304540a733656f0d60405160405180910390a45050565b6000620000e9836001600160a01b0384166001600160e01b03620000f616565b90505b92915050565b3390565b60006200010d83836001600160e01b036200014e16565b6200014557508154600181810184556000848152602080822090930184905584548482528286019093526040902091909155620000ec565b506000620000ec565b60009081526001919091016020526040902054151590565b613bae80620001766000396000f3fe608060405234801561001057600080fd5b50600436106101cf5760003560e01c80637542ff9511610104578063a27ce1ef116100a2578063d547741f11610071578063d547741f146103eb578063e38c7c42146103fe578063f25b3f9914610411578063fae4425d14610424576101cf565b8063a27ce1ef1461038f578063ca15c873146103b2578063d1a4a43d146103c5578063d2a4669a146103d8576101cf565b806391d14854116100de57806391d148541461034957806392b484111461035c5780639b87f6441461037f578063a217fddf14610387576101cf565b80637542ff9514610309578063828496d6146103115780639010d07c14610336576101cf565b806336568abe116101715780633df395a31161014b5780633df395a3146102d357806342c1e587146102db5780634e6753b7146102e35780635ce8772f146102f6576101cf565b806336568abe1461028d578063378ab9a9146102a05780633cd32fd4146102c0576101cf565b80631d69ff9b116101ad5780631d69ff9b14610225578063248a9ca3146102455780632e716fb1146102655780632f2ff15d1461027a576101cf565b806304c07569146101d457806306552ff3146101fd57806317d99c0414610212575b600080fd5b6101e76101e236600461315d565b610437565b6040516101f49190613960565b60405180910390f35b61021061020b366004613102565b6105e7565b005b61021061022036600461325a565b610637565b61023861023336600461336d565b610af2565b6040516101f491906134f3565b61025861025336600461315d565b610e71565b6040516101f491906134fe565b61026d610e86565b6040516101f491906134cc565b61021061028836600461318d565b610e95565b61021061029b36600461318d565b610edd565b6102b36102ae36600461315d565b610f1f565b6040516101f491906134e0565b6102106102ce3660046131bc565b610f84565b61026d611427565b61026d611436565b6102106102f136600461331f565b611445565b61021061030436600461315d565b611a7e565b61026d611cae565b61032461031f36600461318d565b611cbd565b6040516101f496959493929190613b14565b61026d6103443660046131bc565b611cfb565b61023861035736600461318d565b611d22565b61036f61036a3660046131bc565b611d40565b6040516101f49493929190613af7565b610210611d86565b6102586122f0565b6103a261039d3660046131bc565b6122f5565b6040516101f49493929190613973565b6102586103c036600461315d565b6124e9565b6102b36103d33660046131bc565b612500565b6102b36103e636600461315d565b612586565b6102106103f936600461318d565b6125e9565b61025861040c36600461315d565b612623565b61036f61041f36600461315d565b612635565b6102b361043236600461315d565b61265f565b61043f612f7c565b60008281526003602090815260409182902082516101008101845281548152600182018054855181860281018601909652808652919492938581019392908301828280156104ac57602002820191906000526020600020905b815481526020019060010190808311610498575b505050505081526020016002820180548060200260200160405190810160405280929190818152602001828054801561050457602002820191906000526020600020905b8154815260200190600101908083116104f0575b505050505081526020016003820180548060200260200160405190810160405280929190818152602001828054801561055c57602002820191906000526020600020905b815481526020019060010190808311610548575b50505050508152602001600482018054806020026020016040519081016040528092919081815260200182805480156105b457602002820191906000526020600020905b8154815260200190600101908083116105a0575b5050509183525050600582015460208201526006820154604082015260079091015460ff16151560609091015292915050565b600480546001600160a01b039586166001600160a01b0319918216179091556005805494861694821694909417909355600680549285169284169290921790915560078054919093169116179055565b60055460408051630eaf323560e31b8152905189926001600160a01b03169163757991a8916004808301926020929190829003018186803b15801561067b57600080fd5b505afa15801561068f573d6000803e3d6000fd5b505050506040513d601f19601f820116820180604052508101906106b39190613175565b81146106da5760405162461bcd60e51b81526004016106d1906137bc565b60405180910390fd5b73__Constants_____________________________63c198f8ba6040518163ffffffff1660e01b815260040160206040518083038186803b15801561071e57600080fd5b505af4158015610732573d6000803e3d6000fd5b505050506040513d601f19601f820116820180604052508101906107569190613398565b60ff16600560009054906101000a90046001600160a01b03166001600160a01b0316631865c57d6040518163ffffffff1660e01b815260040160206040518083038186803b1580156107a757600080fd5b505afa1580156107bb573d6000803e3d6000fd5b505050506040513d601f19601f820116820180604052508101906107df9190613175565b81146107fd5760405162461bcd60e51b81526004016106d1906138e8565b60048054604051636022a48560e01b81526000926001600160a01b0390921691636022a4859161082f913391016134cc565b60206040518083038186803b15801561084757600080fd5b505afa15801561085b573d6000803e3d6000fd5b505050506040513d601f19601f8201168201806040525081019061087f9190613175565b905061088c858583610af2565b6108a85760405162461bcd60e51b81526004016106d190613698565b73__Constants_____________________________63375b3c0a6040518163ffffffff1660e01b815260040160206040518083038186803b1580156108ec57600080fd5b505af4158015610900573d6000803e3d6000fd5b505050506040513d601f19601f820116820180604052508101906109249190613175565b600480546040516371e4cc7f60e11b81526001600160a01b039091169163e3c998fe91610953918691016134fe565b6101006040518083038186803b15801561096c57600080fd5b505afa158015610980573d6000803e3d6000fd5b505050506040513d601f19601f820116820180604052508101906109a491906131dd565b6040015110156109c65760405162461bcd60e51b81526004016106d190613870565b610a9f8a6040518061010001604052808481526020018c81526020018b81526020018a8152602001898152602001888152602001600460009054906101000a90046001600160a01b03166001600160a01b031663e3c998fe896040518263ffffffff1660e01b8152600401610a3b91906134fe565b6101006040518083038186803b158015610a5457600080fd5b505afa158015610a68573d6000803e3d6000fd5b505050506040513d601f19601f82011682018060405250810190610a8c91906131dd565b60400151815260016020909101526126d7565b7fee036cc96c88163f353feaa4d497e88baaebeb631f40ad9b8a6d51bb6fad40768a828b8b8b8b8b8b42604051610ade999897969594939291906139f7565b60405180910390a150505050505050505050565b600081610c3d600173__Random________________________________635075dbfb600a600460009054906101000a90046001600160a01b03166001600160a01b031663bc788d466040518163ffffffff1660e01b815260040160206040518083038186803b158015610b6457600080fd5b505afa158015610b78573d6000803e3d6000fd5b505050506040513d601f19601f82011682018060405250810190610b9c9190613175565b8a604051602001610bad91906134fe565b604051602081830303815290604052805190602001206040518463ffffffff1660e01b8152600401610be19392919061351a565b60206040518083038186803b158015610bf957600080fd5b505af4158015610c0d573d6000803e3d6000fd5b505050506040513d601f19601f82011682018060405250810190610c319190613175565b9063ffffffff612c2416565b14610c4a57506000610e6a565b600073__Random________________________________63b07ceab8600a8588604051602001610c7b9291906139e9565b604051602081830303815290604052805190602001206040518363ffffffff1660e01b8152600401610cae929190613507565b60206040518083038186803b158015610cc657600080fd5b505af4158015610cda573d6000803e3d6000fd5b505050506040513d601f19601f82011682018060405250810190610cfe9190613175565b90506000610d178264010000000063ffffffff612c4916565b600480546040516371e4cc7f60e11b81529293506000926001600160a01b039091169163e3c998fe91610d4c918a91016134fe565b6101006040518083038186803b158015610d6557600080fd5b505afa158015610d79573d6000803e3d6000fd5b505050506040513d601f19601f82011682018060405250810190610d9d91906131dd565b6040908101516004805492516371e4cc7f60e11b8152919350610e4092640100000000926001600160a01b039091169163e3c998fe91610ddf918b91016134fe565b6101006040518083038186803b158015610df857600080fd5b505afa158015610e0c573d6000803e3d6000fd5b505050506040513d601f19601f82011682018060405250810190610e3091906131dd565b604001519063ffffffff612c7b16565b610e50838363ffffffff612c7b16565b1115610e625760009350505050610e6a565b600193505050505b9392505050565b60009081526020819052604090206002015490565b6005546001600160a01b031681565b600082815260208190526040902060020154610eb390610357612cb5565b610ecf5760405162461bcd60e51b81526004016106d190613577565b610ed98282612cba565b5050565b610ee5612cb5565b6001600160a01b0316816001600160a01b031614610f155760405162461bcd60e51b81526004016106d190613911565b610ed98282612d29565b600081815260036020908152604091829020600201805483518184028101840190945280845260609392830182828015610f7857602002820191906000526020600020905b815481526020019060010190808311610f64575b50939695505050505050565b60055460408051630eaf323560e31b8152905184926001600160a01b03169163757991a8916004808301926020929190829003018186803b158015610fc857600080fd5b505afa158015610fdc573d6000803e3d6000fd5b505050506040513d601f19601f820116820180604052508101906110009190613175565b811461101e5760405162461bcd60e51b81526004016106d1906137bc565b73__Constants_____________________________63f240f7c36040518163ffffffff1660e01b815260040160206040518083038186803b15801561106257600080fd5b505af4158015611076573d6000803e3d6000fd5b505050506040513d601f19601f8201168201806040525081019061109a9190613398565b60ff16600560009054906101000a90046001600160a01b03166001600160a01b0316631865c57d6040518163ffffffff1660e01b815260040160206040518083038186803b1580156110eb57600080fd5b505afa1580156110ff573d6000803e3d6000fd5b505050506040513d601f19601f820116820180604052508101906111239190613175565b81146111415760405162461bcd60e51b81526004016106d1906138e8565b60008481526001602090815260408083203384529091529081902060050154600654915163a6a145d960e01b815290916001600160a01b03169063a6a145d99061119190889085906004016139e9565b60206040518083038186803b1580156111a957600080fd5b505afa1580156111bd573d6000803e3d6000fd5b505050506040513d601f19601f820116820180604052508101906111e19190613175565b6000868152600160209081526040808320338452909152902054146112185760405162461bcd60e51b81526004016106d1906138a7565b60008581526001602081815260408084203385528252808420928301546002808501546003909501548b8752935290842080549194918990811061125857fe5b90600052602060002090600802016000015490506000841161127957600080fd5b600089815260026020526040902080548591908a90811061129657fe5b906000526020600020906008020160020186815481106112b257fe5b906000526020600020015414158061130c5750600089815260026020526040902080548491908a9081106112e257fe5b906000526020600020906008020160030186815481106112fe57fe5b906000526020600020015414155b806113595750600089815260026020526040902080548391908a90811061132f57fe5b9060005260206000209060080201600401868154811061134b57fe5b906000526020600020015414155b1561140457600089815260026020526040812080548a90811061137857fe5b60009182526020909120600890910201600701805460ff191691151591909117905560048054604051630f91ce1960e01b81526001600160a01b0390911691630f91ce19916113cd91859133918f91016139ca565b600060405180830381600087803b1580156113e757600080fd5b505af11580156113fb573d6000803e3d6000fd5b5050505061141c565b60405162461bcd60e51b81526004016106d190613813565b505050505050505050565b6007546001600160a01b031681565b6006546001600160a01b031681565b60055460408051630eaf323560e31b8152905185926001600160a01b03169163757991a8916004808301926020929190829003018186803b15801561148957600080fd5b505afa15801561149d573d6000803e3d6000fd5b505050506040513d601f19601f820116820180604052508101906114c19190613175565b81146114df5760405162461bcd60e51b81526004016106d1906137bc565b73__Constants_____________________________63f240f7c36040518163ffffffff1660e01b815260040160206040518083038186803b15801561152357600080fd5b505af4158015611537573d6000803e3d6000fd5b505050506040513d601f19601f8201168201806040525081019061155b9190613398565b60ff16600560009054906101000a90046001600160a01b03166001600160a01b0316631865c57d6040518163ffffffff1660e01b815260040160206040518083038186803b1580156115ac57600080fd5b505afa1580156115c0573d6000803e3d6000fd5b505050506040513d601f19601f820116820180604052508101906115e49190613175565b81146116025760405162461bcd60e51b81526004016106d1906138e8565b60065460405163a6a145d960e01b8152600091611698916002916001600160a01b03169063a6a145d99061163c908b908b906004016139e9565b60206040518083038186803b15801561165457600080fd5b505afa158015611668573d6000803e3d6000fd5b505050506040513d601f19601f8201168201806040525081019061168c9190613175565b9063ffffffff612d9816565b60065460405163a6a145d960e01b81529192506000916116d6916004916001600160a01b039091169063a6a145d99061163c908c908c9086016139e9565b60065460405163a6a145d960e01b81529192506000916117779160049161168c916003916001600160a01b039091169063a6a145d99061171b908f908f9088016139e9565b60206040518083038186803b15801561173357600080fd5b505afa158015611747573d6000803e3d6000fd5b505050506040513d601f19601f8201168201806040525081019061176b9190613175565b9063ffffffff612c7b16565b60008981526001602090815260408083203384529091529020805460049091015491925090816117c55760008a81526001602090815260408083203384529091529020600501899055611800565b60008a815260016020908152604080832033845290915290206005015489146118005760405162461bcd60e51b81526004016106d1906137e5565b60005b8851811015611a4f578189828151811061181957fe5b60200260200101511161183e5760405162461bcd60e51b81526004016106d1906135c6565b88818151811061184a57fe5b6020026020010151915061190c600660009054906101000a90046001600160a01b03166001600160a01b0316639c66556f8d8d8d868151811061188957fe5b60200260200101516040518463ffffffff1660e01b81526004016118af93929190613ae1565b60206040518083038186803b1580156118c757600080fd5b505afa1580156118db573d6000803e3d6000fd5b505050506040513d601f19601f820116820180604052508101906118ff9190613175565b849063ffffffff612c2416565b60008c81526001602090815260408083203384529091529020600201549093501580156119395750848310155b156119735788818151811061194a57fe5b60209081029190910181015160008d815260018352604080822033835290935291909120600201555b60008b8152600160208181526040808420338552909152909120015415801561199b57508583115b156119d5578881815181106119ac57fe5b60209081029190910181015160008d815260018084526040808320338452909452929020909101555b60008b81526001602090815260408083203384529091529020600301541580156119fe57508383115b15611a3857888181518110611a0f57fe5b60209081029190910181015160008d815260018352604080822033835290935291909120600301555b6127105a1015611a4757611a4f565b600101611803565b506000998a52600160209081526040808c20338d52909152909920600481019990995590975550505050505050565b60055460408051630eaf323560e31b8152905183926001600160a01b03169163757991a8916004808301926020929190829003018186803b158015611ac257600080fd5b505afa158015611ad6573d6000803e3d6000fd5b505050506040513d601f19601f82011682018060405250810190611afa9190613175565b8114611b185760405162461bcd60e51b81526004016106d1906137bc565b73__Constants_____________________________63f240f7c36040518163ffffffff1660e01b815260040160206040518083038186803b158015611b5c57600080fd5b505af4158015611b70573d6000803e3d6000fd5b505050506040513d601f19601f82011682018060405250810190611b949190613398565b60ff16600560009054906101000a90046001600160a01b03166001600160a01b0316631865c57d6040518163ffffffff1660e01b815260040160206040518083038186803b158015611be557600080fd5b505afa158015611bf9573d6000803e3d6000fd5b505050506040513d601f19601f82011682018060405250810190611c1d9190613175565b8114611c3b5760405162461bcd60e51b81526004016106d1906138e8565b50506040805160c08101825260008082526020808301828152838501838152606085018481526080860185815260a0870186815298865260018086528887203388529095529690942094518555905191840191909155516002830155516003820155905160048201559051600590910155565b6004546001600160a01b031681565b600160208181526000938452604080852090915291835291208054918101546002820154600383015460048401546005909401549293919290919086565b6000828152602081905260408120611d19908363ffffffff612dca16565b90505b92915050565b6000828152602081905260408120611d19908363ffffffff612dd616565b60026020528160005260406000208181548110611d5957fe5b60009182526020909120600890910201805460058201546006830154600790930154919450925060ff1684565b73__Constants_____________________________63d98b3ced6040518163ffffffff1660e01b815260040160206040518083038186803b158015611dca57600080fd5b505af4158015611dde573d6000803e3d6000fd5b505050506040513d601f19601f82011682018060405250810190611e029190613175565b611e0c8133611d22565b611e285760405162461bcd60e51b81526004016106d190613646565b60055460408051630eaf323560e31b815290516000926001600160a01b03169163757991a8916004808301926020929190829003018186803b158015611e6d57600080fd5b505afa158015611e81573d6000803e3d6000fd5b505050506040513d601f19601f82011682018060405250810190611ea59190613175565b905060005b600019820160009081526002602052604090205460ff821610156122ea5760001982016000908152600260205260409020805460ff8316908110611eea57fe5b600091825260209091206007600890920201015460ff16156122e25760001982016000908152600260205260409020805460ff8316908110611f2857fe5b906000526020600020906008020160036000600185038152602001908152602001600020600082015481600001556001820181600101908054611f6c929190612fc3565b5060028281018054611f819284019190612fc3565b5060038281018054611f969284019190612fc3565b5060048281018054611fab9284019190612fc3565b5060058281015490820155600680830154908201556007918201549101805460ff191660ff928316151517905560001983016000908152600260205260408120805491929091908416908110611ffd57fe5b90600052602060002090600802016000015490507f5ef264ae9101b91bd7117350c5e85901297fa0569e7a3e07eb7ec0a6281529f06001840382600260006001880381526020019081526020016000208560ff168154811061205b57fe5b9060005260206000209060080201600201600260006001890381526020019081526020016000208660ff168154811061209057fe5b90600052602060002090600802016003016002600060018a0381526020019081526020016000208760ff16815481106120c557fe5b90600052602060002090600802016004016002600060018b0381526020019081526020016000208860ff16815481106120fa57fe5b90600052602060002090600802016001014260405161211f9796959493929190613a74565b60405180910390a160005b60001984016000908152600260205260409020805460ff851690811061214c57fe5b9060005260206000209060080201600101805490508160ff161015612276576007546000198501600090815260026020526040902080546001600160a01b03909216916356350bdf919060ff87169081106121a357fe5b90600052602060002090600802016001018360ff16815481106121c257fe5b9060005260206000200154600260006001890381526020019081526020016000208660ff16815481106121f157fe5b90600052602060002090600802016002018460ff168154811061221057fe5b90600052602060002001546040518363ffffffff1660e01b81526004016122389291906139e9565b600060405180830381600087803b15801561225257600080fd5b505af1158015612266573d6000803e3d6000fd5b50506001909201915061212a9050565b506004805460405163746c8b6560e01b81526001600160a01b039091169163746c8b65916122a89185918891016139e9565b600060405180830381600087803b1580156122c257600080fd5b505af11580156122d6573d6000803e3d6000fd5b505050505050506122ed565b600101611eaa565b50505b50565b600081565b6122fd612f7c565b606080606060026000878152602001908152602001600020858154811061232057fe5b906000526020600020906008020160405180610100016040529081600082015481526020016001820180548060200260200160405190810160405280929190818152602001828054801561239357602002820191906000526020600020905b81548152602001906001019080831161237f575b50505050508152602001600282018054806020026020016040519081016040528092919081815260200182805480156123eb57602002820191906000526020600020905b8154815260200190600101908083116123d7575b505050505081526020016003820180548060200260200160405190810160405280929190818152602001828054801561244357602002820191906000526020600020905b81548152602001906001019080831161242f575b505050505081526020016004820180548060200260200160405190810160405280929190818152602001828054801561249b57602002820191906000526020600020905b815481526020019060010190808311612487575b505050918352505060058201546020820152600682015460408083019190915260079092015460ff161515606091820152908201519082015160808301519299919850965090945092505050565b6000818152602081905260408120611d1c90612deb565b60008281526002602052604090208054606091908390811061251e57fe5b906000526020600020906008020160020180548060200260200160405190810160405280929190818152602001828054801561257957602002820191906000526020600020905b815481526020019060010190808311612565575b5093979650505050505050565b600081815260036020818152604092839020909101805483518184028101840190945280845260609392830182828015610f785760200282019190600052602060002090815481526020019060010190808311610f645750939695505050505050565b60008281526020819052604090206002015461260790610357612cb5565b610f155760405162461bcd60e51b81526004016106d1906136f4565b60009081526002602052604090205490565b60036020526000908152604090208054600582015460068301546007909301549192909160ff1684565b600081815260036020908152604091829020600401805483518184028101840190945280845260609392830182828015610f785760200282019190600052602060002090815481526020019060010190808311610f645750939695505050505050565b6000611d19836001600160a01b038416612df6565b6000828152600260205260409020546127b4576000828152600260209081526040822080546001818101835591845292829020845160089094020192835583820151805185949361272c938501920190613013565b5060408201518051612748916002840191602090910190613013565b5060608201518051612764916003840191602090910190613013565b5060808201518051612780916004840191602090910190613013565b5060a0820151600582015560c0820151600682015560e0909101516007909101805460ff1916911515919091179055610ed9565b600082815260026020526040812054905b6000848152600260205260409020548110156128615760c083015160008581526002602052604090208054839081106127fa57fe5b906000526020600020906008020160060154101561281a57809150612861565b60a0830151600085815260026020526040902080548390811061283957fe5b906000526020600020906008020160050154111561285957809150612861565b6001016127c5565b50600083815260026020908152604082208054600181810183559184529282902085516008909402019283558482015180518694936128a4938501920190613013565b50604082015180516128c0916002840191602090910190613013565b50606082015180516128dc916003840191602090910190613013565b50608082015180516128f8916004840191602090910190613013565b5060a0820151600582015560c0820151600682015560e0909101516007909101805460ff1916911515919091179055600083815260026020526040902054600019015b81811115612a2e5760008481526002602052604090208054600019830190811061296157fe5b906000526020600020906008020160026000868152602001908152602001600020828154811061298d57fe5b600091825260209091208254600890920201908155600180830180546129b69284019190612fc3565b50600282810180546129cb9284019190612fc3565b50600382810180546129e09284019190612fc3565b50600482810180546129f59284019190612fc3565b5060058281015490820155600680830154908201556007918201549101805460ff191660ff90921615159190911790556000190161293b565b506000838152600260205260409020805483919083908110612a4c57fe5b9060005260206000209060080201600082015181600001556020820151816001019080519060200190612a80929190613013565b5060408201518051612a9c916002840191602090910190613013565b5060608201518051612ab8916003840191602090910190613013565b5060808201518051612ad4916004840191602090910190613013565b5060a0820151816005015560c0820151816006015560e08201518160070160006101000a81548160ff02191690831515021790555090505073__Constants_____________________________63379597e06040518163ffffffff1660e01b815260040160206040518083038186803b158015612b5057600080fd5b505af4158015612b64573d6000803e3d6000fd5b505050506040513d601f19601f82011682018060405250810190612b889190613175565b60008481526002602052604090205411156122ea57600083815260026020526040902080546000198101908110612bbb57fe5b60009182526020822060089091020181815590612bdb600183018261304e565b612be960028301600061304e565b612bf760038301600061304e565b612c0560048301600061304e565b506000600582018190556006820155600701805460ff19169055505050565b600082820183811015611d195760405162461bcd60e51b81526004016106d19061360f565b6000808211612c6a5760405162461bcd60e51b81526004016106d190613744565b818381612c7357fe5b069392505050565b600082612c8a57506000611d1c565b82820282848281612c9757fe5b0414611d195760405162461bcd60e51b81526004016106d19061377b565b335b90565b6000828152602081905260409020612cd8908263ffffffff6126c216565b15610ed957612ce5612cb5565b6001600160a01b0316816001600160a01b0316837f2f8788117e7eff1d82e926ec794901d17c78024a50270940304540a733656f0d60405160405180910390a45050565b6000828152602081905260409020612d47908263ffffffff612e4016565b15610ed957612d54612cb5565b6001600160a01b0316816001600160a01b0316837ff6391f5c32d9c69d2a47ea670b442974b53935d1edc7fd64eb21e047a839171b60405160405180910390a45050565b6000808211612db95760405162461bcd60e51b81526004016106d1906136bd565b818381612dc257fe5b049392505050565b6000611d198383612e55565b6000611d19836001600160a01b038416612e9a565b6000611d1c82612eb2565b6000612e028383612e9a565b612e3857508154600181810184556000848152602080822090930184905584548482528286019093526040902091909155611d1c565b506000611d1c565b6000611d19836001600160a01b038416612eb6565b81546000908210612e785760405162461bcd60e51b81526004016106d190613535565b826000018281548110612e8757fe5b9060005260206000200154905092915050565b60009081526001919091016020526040902054151590565b5490565b60008181526001830160205260408120548015612f725783546000198083019190810190600090879083908110612ee957fe5b9060005260206000200154905080876000018481548110612f0657fe5b600091825260208083209091019290925582815260018981019092526040902090840190558654879080612f3657fe5b60019003818190600052602060002001600090559055866001016000878152602001908152602001600020600090556001945050505050611d1c565b6000915050611d1c565b604051806101000160405280600081526020016060815260200160608152602001606081526020016060815260200160008152602001600081526020016000151581525090565b8280548282559060005260206000209081019282156130035760005260206000209182015b82811115613003578254825591600101919060010190612fe8565b5061300f929150613068565b5090565b828054828255906000526020600020908101928215613003579160200282015b82811115613003578251825591602001919060010190613033565b50805460008255906000526020600020908101906122ed91905b612cb791905b8082111561300f576000815560010161306e565b600082601f830112613092578081fd5b813567ffffffffffffffff8111156130a8578182fd5b60208082026130b8828201613b3c565b838152935081840185830182870184018810156130d457600080fd5b600092505b848310156130f75780358252600192909201919083019083016130d9565b505050505092915050565b60008060008060808587031215613117578384fd5b843561312281613b63565b9350602085013561313281613b63565b9250604085013561314281613b63565b9150606085013561315281613b63565b939692955090935050565b60006020828403121561316e578081fd5b5035919050565b600060208284031215613186578081fd5b5051919050565b6000806040838503121561319f578182fd5b8235915060208301356131b181613b63565b809150509250929050565b600080604083850312156131ce578182fd5b50508035926020909101359150565b60006101008083850312156131f0578182fd5b6131f981613b3c565b835181526020840151915061320d82613b63565b81602082015260408401516040820152606084015160608201526080840151608082015260a084015160a082015260c084015160c082015260e084015160e0820152809250505092915050565b600080600080600080600060e0888a031215613274578283fd5b87359650602088013567ffffffffffffffff80821115613292578485fd5b61329e8b838c01613082565b975060408a01359150808211156132b3578485fd5b6132bf8b838c01613082565b965060608a01359150808211156132d4578485fd5b6132e08b838c01613082565b955060808a01359150808211156132f5578485fd5b506133028a828b01613082565b93505060a0880135915060c0880135905092959891949750929550565b600080600060608486031215613333578283fd5b8335925060208401359150604084013567ffffffffffffffff811115613357578182fd5b61336386828701613082565b9150509250925092565b600080600060608486031215613381578081fd5b505081359360208301359350604090920135919050565b6000602082840312156133a9578081fd5b815160ff81168114611d19578182fd5b6000815180845260208085019450808401835b838110156133e8578151875295820195908201906001016133cc565b509495945050505050565b6000815480845260208085019450838352808320835b838110156133e857815487529582019560019182019101613409565b15159052565b600061010082518452602083015181602086015261344b828601826133b9565b60408501519250858103604087015261346481846133b9565b91505060608401519150848103606086015261348081836133b9565b60808501519250858103608087015261349981846133b9565b91505060a084015160a086015260c084015160c086015260e084015191506134c460e0860183613425565b949350505050565b6001600160a01b0391909116815260200190565b600060208252611d1960208301846133b9565b901515815260200190565b90815260200190565b60ff929092168252602082015260400190565b60ff9390931683526020830191909152604082015260600190565b60208082526022908201527f456e756d657261626c655365743a20696e646578206f7574206f6620626f756e604082015261647360f01b606082015260800190565b6020808252602f908201527f416363657373436f6e74726f6c3a2073656e646572206d75737420626520616e60408201526e0818591b5a5b881d1bc819dc985b9d608a1b606082015260800190565b60208082526029908201527f736f727465645b695d206973206e6f742067726561746572207468616e206c616040820152681cdd159a5cda5d195960ba1b606082015260800190565b6020808252601b908201527f536166654d6174683a206164646974696f6e206f766572666c6f770000000000604082015260600190565b60208082526032908201527f416363657373436f6e74726f6c3a2073656e64657220646f65736e74206861766040820152716520617070726f70726961746520726f6c6560701b606082015260800190565b6020808252600b908201526a1b9bdd08195b1958dd195960aa1b604082015260600190565b6020808252601a908201527f536166654d6174683a206469766973696f6e206279207a65726f000000000000604082015260600190565b60208082526030908201527f416363657373436f6e74726f6c3a2073656e646572206d75737420626520616e60408201526f2061646d696e20746f207265766f6b6560801b606082015260800190565b60208082526018908201527f536166654d6174683a206d6f64756c6f206279207a65726f0000000000000000604082015260600190565b60208082526021908201527f536166654d6174683a206d756c7469706c69636174696f6e206f766572666c6f6040820152607760f81b606082015260800190565b6020808252600f908201526e0d2dcc6dee4e4cac6e840cae0dec6d608b1b604082015260600190565b60208082526014908201527341737365744964206e6f74206d61746368696e6760601b604082015260600190565b60208082526037908201527f50726f706f73656420416c7465726e61746520626c6f636b206973206964656e60408201527f746963616c20746f2070726f706f73656420626c6f636b000000000000000000606082015260800190565b60208082526019908201527f7374616b652062656c6f77206d696e696d756d207374616b6500000000000000604082015260600190565b60208082526021908201527f546f74616c207374616b652072657665616c656420646f65736e74206d6174636040820152600d60fb1b606082015260800190565b6020808252600f908201526e696e636f727265637420737461746560881b604082015260600190565b6020808252602f908201527f416363657373436f6e74726f6c3a2063616e206f6e6c792072656e6f756e636560408201526e103937b632b9903337b91039b2b63360891b606082015260800190565b600060208252611d19602083018461342b565b600060808252613986608083018761342b565b828103602084015261399881876133b9565b83810360408501526139aa81876133b9565b91505082810360608401526139bf81856133b9565b979650505050505050565b9283526001600160a01b03919091166020830152604082015260600190565b918252602082015260400190565b60006101208b83528a6020840152806040840152613a178184018b6133b9565b8381036060850152613a29818b6133b9565b9150508281036080840152613a3e81896133b9565b83810360a0850152613a5081896133b9565b60c085019790975250505060e0810192909252610100909101529695505050505050565b600088825287602083015260e06040830152613a9360e08301886133f3565b8281036060840152613aa581886133f3565b8381036080850152613ab781886133f3565b91505082810360a0840152613acc81866133f3565b9150508260c083015298975050505050505050565b9283526020830191909152604082015260600190565b938452602084019290925260408301521515606082015260800190565b958652602086019490945260408501929092526060840152608083015260a082015260c00190565b60405181810167ffffffffffffffff81118282101715613b5b57600080fd5b604052919050565b6001600160a01b03811681146122ed57600080fdfea26469706673582212209ee0cbdf463787acdfa8da0f129e576e0f307b52018da2a738e477ab57adde3e64736f6c634300060b0033",
  "immutableReferences": {},
  "source": "pragma solidity 0.6.11;\npragma experimental ABIEncoderV2;\nimport \"../lib/Random.sol\";\nimport \"./Utils.sol\";\nimport \"./BlockStorage.sol\";\nimport \"./IStakeManager.sol\";\nimport \"./IStateManager.sol\";\nimport \"./IVoteManager.sol\";\nimport \"./IJobManager.sol\";\nimport \"openzeppelin-solidity/contracts/math/SafeMath.sol\";\nimport \"./ACL.sol\";\nimport \"../lib/Constants.sol\";\n\ncontract BlockManager is Utils, ACL, BlockStorage {\n    using SafeMath for uint256;\n    IStakeManager public stakeManager;\n    IStateManager public stateManager;\n    IVoteManager public voteManager;\n    IJobManager public jobManager;\n\n    modifier checkEpoch (uint256 epoch) {\n        require(epoch == stateManager.getEpoch(), \"incorrect epoch\");\n        _;\n    }\n\n    modifier checkState (uint256 state) {\n        require(state == stateManager.getState(), \"incorrect state\");\n        _;\n    }\n\n    function getBlock(uint256 epoch) external view returns(Structs.Block memory _block) {\n        return(blocks[epoch]);\n    }\n\n    function getBlockMedians(uint256 epoch) external view returns(uint256[] memory _blockMedians) {\n        _blockMedians = blocks[epoch].medians;\n        return(_blockMedians);\n    }\n\n    function getLowerCutoffs(uint256 epoch) external view returns(uint256[] memory _lowerCutoffs) {\n        _lowerCutoffs = blocks[epoch].lowerCutoffs;\n        return(_lowerCutoffs);\n    }\n\n    function getHigherCutoffs(uint256 epoch) external view returns(uint256[] memory _higherCutoffs) {\n        _higherCutoffs = blocks[epoch].higherCutoffs;\n        return(_higherCutoffs);\n    }\n\n    function getProposedBlock(uint256 epoch, uint256 proposedBlock)\n    external view returns(Structs.Block memory _block,\n    uint256[] memory _blockMedians,\n    uint256[] memory _lowerCutoffs,\n    uint256[] memory _higherCutoffs ) {\n        _block = proposedBlocks[epoch][proposedBlock];\n        return(_block, _block.medians, _block.lowerCutoffs, _block.higherCutoffs);\n    }\n\n    function getProposedBlockMedians(uint256 epoch, uint256 proposedBlock)\n    external view returns(uint256[] memory _blockMedians) {\n        _blockMedians = proposedBlocks[epoch][proposedBlock].medians;\n        return(_blockMedians);\n    }\n\n    function getNumProposedBlocks(uint256 epoch)\n    external view returns(uint256) {\n        return(proposedBlocks[epoch].length);\n    }\n\n    //disable after init.\n    function init(address _stakeManagerAddress, address _stateManagerAddress,\n                address _voteManagerAddress, address _jobManagerAddress) public {\n        stakeManager = IStakeManager(_stakeManagerAddress);\n        stateManager = IStateManager(_stateManagerAddress);\n        voteManager = IVoteManager(_voteManagerAddress);\n        jobManager = IJobManager(_jobManagerAddress);\n    }\n\n    event Proposed(uint256 epoch,\n                    uint256 stakerId,\n                    uint256[] jobIds,\n                    uint256[] medians,\n                    uint256[] lowerCutoffs,\n                    uint256[] higherCutoffs,\n                    uint256 iteration,\n                    uint256 biggestStakerId,\n                    uint256 timestamp);\n\n    // elected proposer proposes block. we use a probabilistic method to elect stakers weighted by stake\n    // protocol works like this. select a staker pseudorandomly (not weighted by anything)\n    // (todo what if it is below min stake)\n    // that staker then tosses a biased coin. bias = hisStake/biggestStake. if its heads, he can propose block\n    // end of iteration. try next iteration\n    // note that only one staker or no stakers selected in each iteration.\n    // stakers elected in higher iterations can also propose hoping that\n    // stakers with lower iteration do not propose for some reason\n    function propose (uint256 epoch,\n                    uint256[] memory jobIds,\n                    uint256[] memory medians,\n                    uint256[] memory lowerCutoffs,\n                    uint256[] memory higherCutoffs,\n                    uint256 iteration,\n                    uint256 biggestStakerId) public checkEpoch(epoch) checkState(Constants.propose()) {\n        uint256 proposerId = stakeManager.getStakerId(msg.sender);\n        // SchellingCoin sch = SchellingCoin(schAddress);\n        require(isElectedProposer(iteration, biggestStakerId, proposerId), \"not elected\");\n        require(stakeManager.getStaker(proposerId).stake >= Constants.minStake(), \"stake below minimum stake\");\n\n        // check if someone already proposed\n        // if (blocks[epoch].proposerId != 0) {\n        //     if (blocks[epoch].proposerId == proposerId) {\n        //         revert(\"Already Proposed\");\n        //     }\n        //     // if (stakers[biggestStakerId].stake == blocks[epoch].biggestStake &&\n        //     //     proposedBlocks[epoch].length >= Constants.maxAltBlocks()) {\n        //     //\n        //     //     require(proposedBlocks[epoch][4].iteration > iteration,\n        //     //             \"iteration not smaller than last elected staker\");\n        //     // } else\n        //     if (stakers[biggestStakerId].stake < blocks[epoch].biggestStake) {\n        //         revert(\"biggest stakers stake not bigger than as proposed by existing elected staker \");\n        //     }\n        // }\n        // blocks[epoch]\n        _insertAppropriately(epoch, Structs.Block(proposerId,\n                            jobIds,\n                            medians,\n                            lowerCutoffs,\n                            higherCutoffs,\n                            iteration,\n                            stakeManager.getStaker(biggestStakerId).stake,\n                            true));\n        // emit DebugUint256(pushAt);\n        // mint and give block reward\n        // if (Constants.blockReward() > 0) {\n        //     stakers[proposerId].stake = stakers[proposerId].stake.add(Constants.blockReward());\n        //     totalStake = totalStake.add(Constants.blockReward());\n        //     require(sch.mint(address(this), Constants.blockReward()));\n        // }\n        emit Proposed(epoch, proposerId, jobIds, medians, lowerCutoffs, higherCutoffs, iteration, biggestStakerId, now);\n    }\n\n    //anyone can give sorted votes in batches in dispute state\n    function giveSorted (uint256 epoch, uint256 assetId, uint256[] memory sorted) public\n    checkEpoch(epoch) checkState(Constants.dispute()) {\n        uint256 medianWeight = voteManager.getTotalStakeRevealed(epoch, assetId).div(2);\n        uint256 lowerCutoffWeight = voteManager.getTotalStakeRevealed(epoch, assetId).div(4);\n        uint256 higherCutoffWeight = (voteManager.getTotalStakeRevealed(epoch, assetId).mul(3)).div(4);\n        uint256 accWeight = disputes[epoch][msg.sender].accWeight;\n        uint256 lastVisited = disputes[epoch][msg.sender].lastVisited;\n        if (disputes[epoch][msg.sender].accWeight == 0) {\n            disputes[epoch][msg.sender].assetId = assetId;\n        } else {\n            require(disputes[epoch][msg.sender].assetId == assetId, \"AssetId not matching\");\n        }\n        for (uint256 i = 0; i < sorted.length; i++) {\n            require(sorted[i] > lastVisited, \"sorted[i] is not greater than lastVisited\");\n            lastVisited = sorted[i];\n            accWeight = accWeight.add(voteManager.getVoteWeight(epoch, assetId, sorted[i]));\n            //set  median, if conditions meet\n            if (disputes[epoch][msg.sender].lowerCutoff == 0 && accWeight >= lowerCutoffWeight) {\n                disputes[epoch][msg.sender].lowerCutoff = sorted[i];\n            }\n            if (disputes[epoch][msg.sender].median == 0 && accWeight > medianWeight) {\n                disputes[epoch][msg.sender].median = sorted[i];\n            }\n            if (disputes[epoch][msg.sender].higherCutoff == 0 && accWeight > higherCutoffWeight) {\n                disputes[epoch][msg.sender].higherCutoff = sorted[i];\n            }\n            //TODO verify how much gas required for below operations and update this value\n            if (gasleft() < 10000) break;\n        }\n        disputes[epoch][msg.sender].lastVisited = lastVisited;\n        disputes[epoch][msg.sender].accWeight = accWeight;\n    }\n\n    // //todo test\n    // //if any mistake made during giveSorted, resetDispute and start again\n    function resetDispute (uint256 epoch) public checkEpoch(epoch) checkState(Constants.dispute()) {\n        disputes[epoch][msg.sender] = Structs.Dispute(0, 0, 0, 0, 0, 0);\n    }\n\n    function finalizeDispute (uint256 epoch, uint256 blockId)\n    public checkEpoch(epoch) checkState(Constants.dispute()) {\n        uint256 assetId = disputes[epoch][msg.sender].assetId;\n        require(disputes[epoch][msg.sender].accWeight == voteManager.getTotalStakeRevealed(epoch, assetId),\n        \"Total stake revealed doesnt match\");\n        uint256 median = disputes[epoch][msg.sender].median;\n        uint256 lowerCutoff = disputes[epoch][msg.sender].lowerCutoff;\n        uint256 higherCutoff = disputes[epoch][msg.sender].higherCutoff;\n        uint256 proposerId = proposedBlocks[epoch][blockId].proposerId;\n        //\n        require(median > 0);\n        if (proposedBlocks[epoch][blockId].medians[assetId] != median ||\n            proposedBlocks[epoch][blockId].lowerCutoffs[assetId] != lowerCutoff ||\n            proposedBlocks[epoch][blockId].higherCutoffs[assetId] != higherCutoff) {\n            proposedBlocks[epoch][blockId].valid = false;\n            stakeManager.slash(proposerId, msg.sender, epoch);\n        } else {\n            revert(\"Proposed Alternate block is identical to proposed block\");\n        }\n    }\n\n    function isElectedProposer(uint256 iteration, uint256 biggestStakerId, uint256 stakerId) public view returns(bool) {\n       // rand = 0 -> totalStake-1\n       //add +1 since prng returns 0 to max-1 and staker start from 1\n        if ((Random.prng(10, stakeManager.getNumStakers(), keccak256(abi.encode(iteration))).add(1))\n        != stakerId) {return(false);}\n        bytes32 randHash = Random.prngHash(10, keccak256(abi.encode(stakerId, iteration)));\n        uint256 rand = uint256(randHash).mod(2**32);\n        uint256 biggestStake = stakeManager.getStaker(biggestStakerId).stake;\n        if (rand.mul(biggestStake) > stakeManager.getStaker(stakerId).stake.mul(2**32)) return(false);\n        return(true);\n    }\n\n    event BlockConfirmed(uint256 epoch,\n                    uint256 stakerId,\n                    uint256[] medians,\n                    uint256[] lowerCutoffs,\n                    uint256[] higherCutoffs,\n                    uint256[] jobIds,\n                    uint256 timestamp);\n\n    function confirmBlock() public onlyRole(Constants.getBlockConfirmerHash()) {\n        uint256 epoch = stateManager.getEpoch();\n        \n        for (uint8 i=0; i < proposedBlocks[epoch - 1].length; i++) {\n            if (proposedBlocks[epoch - 1][i].valid) {\n                blocks[epoch - 1] = proposedBlocks[epoch - 1][i];\n                uint256 proposerId = proposedBlocks[epoch - 1][i].proposerId;\n                emit BlockConfirmed(epoch - 1,\n                                    proposerId,\n                                    proposedBlocks[epoch - 1][i].medians,\n                                    proposedBlocks[epoch - 1][i].lowerCutoffs,\n                                    proposedBlocks[epoch - 1][i].higherCutoffs,\n                                    proposedBlocks[epoch - 1][i].jobIds,\n                                    now);\n                for (uint8 j = 0; j < proposedBlocks[epoch - 1][i].jobIds.length; j++) {\n                    jobManager.fulfillJob(proposedBlocks[epoch - 1][i].jobIds[j],\n                                        proposedBlocks[epoch - 1][i].medians[j]);\n                }\n                stakeManager.giveBlockReward(proposerId, epoch);\n                return;\n                }\n        }\n        \n    }\n\n    function _insertAppropriately(uint256 epoch, Structs.Block memory _block) internal {\n       // uint256 iteration = _block.iteration;\n        if (proposedBlocks[epoch].length == 0) {\n            proposedBlocks[epoch].push(_block);\n            return;\n        }\n       // Structs.Block[] memory temp = proposedBlocks[epoch];\n       // delete (proposedBlocks[epoch]);\n       // bool pushed = false;\n       // bool empty = true;\n        uint256 pushAt = proposedBlocks[epoch].length;\n        for (uint256 i = 0; i < proposedBlocks[epoch].length; i++) {\n            if (proposedBlocks[epoch][i].biggestStake < _block.biggestStake) {\n                pushAt = i;\n                break;\n            }\n            if (proposedBlocks[epoch][i].iteration > _block.iteration) {\n                pushAt = i;\n                break;\n            }\n        }\n\n        proposedBlocks[epoch].push(_block);\n        for (uint256 j = proposedBlocks[epoch].length - 1; j > (pushAt); j--) {\n            proposedBlocks[epoch][j] = proposedBlocks[epoch][j - 1];\n        }\n        // if (pushAt < proposedBlocks[epoch].length) {\n\n        proposedBlocks[epoch][pushAt] = _block;\n        // }\n        // if (pushed == false && temp.length < Constants.maxAltBlocks()) {\n        //     proposedBlocks[epoch].push(_block);\n        // }\n        if (proposedBlocks[epoch].length > Constants.maxAltBlocks()) {\n            delete (proposedBlocks[epoch][proposedBlocks[epoch].length - 1]);\n        }\n    }\n\n\n}\n",
  "sourcePath": "/Users/skanda/Projects/contracts/contracts/Core/BlockManager.sol",
  "compiler": {
    "name": "solc",
    "version": "0.6.11+commit.5ef660b1.Emscripten.clang"
  },
  "schemaVersion": "3.3.4",
  "updatedAt": "2021-04-04T21:18:47.121Z",
  "networkType": "ethereum",
  "devdoc": {
    "kind": "dev",
    "methods": {
      "getRoleAdmin(bytes32)": {
        "details": "Returns the admin role that controls `role`. See {grantRole} and {revokeRole}. To change a role's admin, use {_setRoleAdmin}."
      },
      "getRoleMember(bytes32,uint256)": {
        "details": "Returns one of the accounts that have `role`. `index` must be a value between 0 and {getRoleMemberCount}, non-inclusive. Role bearers are not sorted in any particular way, and their ordering may change at any point. WARNING: When using {getRoleMember} and {getRoleMemberCount}, make sure you perform all queries on the same block. See the following https://forum.openzeppelin.com/t/iterating-over-elements-on-enumerableset-in-openzeppelin-contracts/2296[forum post] for more information."
      },
      "getRoleMemberCount(bytes32)": {
        "details": "Returns the number of accounts that have `role`. Can be used together with {getRoleMember} to enumerate all bearers of a role."
      },
      "grantRole(bytes32,address)": {
        "details": "Grants `role` to `account`. If `account` had not been already granted `role`, emits a {RoleGranted} event. Requirements: - the caller must have ``role``'s admin role."
      },
      "hasRole(bytes32,address)": {
        "details": "Returns `true` if `account` has been granted `role`."
      },
      "renounceRole(bytes32,address)": {
        "details": "Revokes `role` from the calling account. Roles are often managed via {grantRole} and {revokeRole}: this function's purpose is to provide a mechanism for accounts to lose their privileges if they are compromised (such as when a trusted device is misplaced). If the calling account had been granted `role`, emits a {RoleRevoked} event. Requirements: - the caller must be `account`."
      },
      "revokeRole(bytes32,address)": {
        "details": "Revokes `role` from `account`. If `account` had been granted `role`, emits a {RoleRevoked} event. Requirements: - the caller must have ``role``'s admin role."
      }
    },
    "version": 1
  },
  "userdoc": {
    "kind": "user",
    "methods": {},
    "version": 1
  }
}