{
  "contractName": "BlockManager",
  "abi": [
    {
      "constant": true,
      "inputs": [
        {
          "name": "account",
          "type": "address"
        }
      ],
      "name": "isWriter",
      "outputs": [
        {
          "name": "",
          "type": "bool"
        }
      ],
      "payable": false,
      "stateMutability": "view",
      "type": "function"
    },
    {
      "constant": true,
      "inputs": [],
      "name": "stateManager",
      "outputs": [
        {
          "name": "",
          "type": "address"
        }
      ],
      "payable": false,
      "stateMutability": "view",
      "type": "function"
    },
    {
      "constant": true,
      "inputs": [],
      "name": "jobManager",
      "outputs": [
        {
          "name": "",
          "type": "address"
        }
      ],
      "payable": false,
      "stateMutability": "view",
      "type": "function"
    },
    {
      "constant": true,
      "inputs": [],
      "name": "voteManager",
      "outputs": [
        {
          "name": "",
          "type": "address"
        }
      ],
      "payable": false,
      "stateMutability": "view",
      "type": "function"
    },
    {
      "constant": true,
      "inputs": [],
      "name": "stakeManager",
      "outputs": [
        {
          "name": "",
          "type": "address"
        }
      ],
      "payable": false,
      "stateMutability": "view",
      "type": "function"
    },
    {
      "constant": true,
      "inputs": [
        {
          "name": "",
          "type": "uint256"
        },
        {
          "name": "",
          "type": "address"
        }
      ],
      "name": "disputes",
      "outputs": [
        {
          "name": "accWeight",
          "type": "uint256"
        },
        {
          "name": "median",
          "type": "uint256"
        },
        {
          "name": "lastVisited",
          "type": "uint256"
        },
        {
          "name": "assetId",
          "type": "uint256"
        }
      ],
      "payable": false,
      "stateMutability": "view",
      "type": "function"
    },
    {
      "constant": true,
      "inputs": [
        {
          "name": "",
          "type": "uint256"
        },
        {
          "name": "",
          "type": "uint256"
        }
      ],
      "name": "proposedBlocks",
      "outputs": [
        {
          "name": "proposerId",
          "type": "uint256"
        },
        {
          "name": "iteration",
          "type": "uint256"
        },
        {
          "name": "biggestStake",
          "type": "uint256"
        },
        {
          "name": "valid",
          "type": "bool"
        }
      ],
      "payable": false,
      "stateMutability": "view",
      "type": "function"
    },
    {
      "constant": false,
      "inputs": [
        {
          "name": "account",
          "type": "address"
        }
      ],
      "name": "addWriter",
      "outputs": [],
      "payable": false,
      "stateMutability": "nonpayable",
      "type": "function"
    },
    {
      "constant": false,
      "inputs": [],
      "name": "renounceWriter",
      "outputs": [],
      "payable": false,
      "stateMutability": "nonpayable",
      "type": "function"
    },
    {
      "constant": true,
      "inputs": [
        {
          "name": "",
          "type": "uint256"
        }
      ],
      "name": "blocks",
      "outputs": [
        {
          "name": "proposerId",
          "type": "uint256"
        },
        {
          "name": "iteration",
          "type": "uint256"
        },
        {
          "name": "biggestStake",
          "type": "uint256"
        },
        {
          "name": "valid",
          "type": "bool"
        }
      ],
      "payable": false,
      "stateMutability": "view",
      "type": "function"
    },
    {
      "anonymous": false,
      "inputs": [
        {
          "indexed": false,
          "name": "epoch",
          "type": "uint256"
        },
        {
          "indexed": false,
          "name": "stakerId",
          "type": "uint256"
        },
        {
          "indexed": false,
          "name": "medians",
          "type": "uint256[]"
        },
        {
          "indexed": false,
          "name": "jobIds",
          "type": "uint256[]"
        },
        {
          "indexed": false,
          "name": "iteration",
          "type": "uint256"
        },
        {
          "indexed": false,
          "name": "biggestStakerId",
          "type": "uint256"
        }
      ],
      "name": "Proposed",
      "type": "event"
    },
    {
      "anonymous": false,
      "inputs": [
        {
          "indexed": false,
          "name": "epoch",
          "type": "uint256"
        },
        {
          "indexed": false,
          "name": "stakerId",
          "type": "uint256"
        },
        {
          "indexed": false,
          "name": "medians",
          "type": "uint256[]"
        },
        {
          "indexed": false,
          "name": "jobIds",
          "type": "uint256[]"
        }
      ],
      "name": "BlockConfirmed",
      "type": "event"
    },
    {
      "anonymous": false,
      "inputs": [
        {
          "indexed": true,
          "name": "account",
          "type": "address"
        }
      ],
      "name": "WriterAdded",
      "type": "event"
    },
    {
      "anonymous": false,
      "inputs": [
        {
          "indexed": true,
          "name": "account",
          "type": "address"
        }
      ],
      "name": "WriterRemoved",
      "type": "event"
    },
    {
      "anonymous": false,
      "inputs": [
        {
          "indexed": false,
          "name": "a",
          "type": "uint256"
        }
      ],
      "name": "DebugUint256",
      "type": "event"
    },
    {
      "constant": true,
      "inputs": [
        {
          "name": "epoch",
          "type": "uint256"
        }
      ],
      "name": "getBlock",
      "outputs": [
        {
          "components": [
            {
              "name": "proposerId",
              "type": "uint256"
            },
            {
              "name": "medians",
              "type": "uint256[]"
            },
            {
              "name": "jobIds",
              "type": "uint256[]"
            },
            {
              "name": "iteration",
              "type": "uint256"
            },
            {
              "name": "biggestStake",
              "type": "uint256"
            },
            {
              "name": "valid",
              "type": "bool"
            }
          ],
          "name": "_block",
          "type": "tuple"
        }
      ],
      "payable": false,
      "stateMutability": "view",
      "type": "function"
    },
    {
      "constant": true,
      "inputs": [
        {
          "name": "epoch",
          "type": "uint256"
        }
      ],
      "name": "getBlockMedians",
      "outputs": [
        {
          "name": "_blockMedians",
          "type": "uint256[]"
        }
      ],
      "payable": false,
      "stateMutability": "view",
      "type": "function"
    },
    {
      "constant": true,
      "inputs": [
        {
          "name": "epoch",
          "type": "uint256"
        },
        {
          "name": "proposedBlock",
          "type": "uint256"
        }
      ],
      "name": "getProposedBlock",
      "outputs": [
        {
          "components": [
            {
              "name": "proposerId",
              "type": "uint256"
            },
            {
              "name": "medians",
              "type": "uint256[]"
            },
            {
              "name": "jobIds",
              "type": "uint256[]"
            },
            {
              "name": "iteration",
              "type": "uint256"
            },
            {
              "name": "biggestStake",
              "type": "uint256"
            },
            {
              "name": "valid",
              "type": "bool"
            }
          ],
          "name": "_block",
          "type": "tuple"
        }
      ],
      "payable": false,
      "stateMutability": "view",
      "type": "function"
    },
    {
      "constant": true,
      "inputs": [
        {
          "name": "epoch",
          "type": "uint256"
        },
        {
          "name": "proposedBlock",
          "type": "uint256"
        }
      ],
      "name": "getProposedBlockMedians",
      "outputs": [
        {
          "name": "_blockMedians",
          "type": "uint256[]"
        }
      ],
      "payable": false,
      "stateMutability": "view",
      "type": "function"
    },
    {
      "constant": true,
      "inputs": [
        {
          "name": "epoch",
          "type": "uint256"
        }
      ],
      "name": "getNumProposedBlocks",
      "outputs": [
        {
          "name": "",
          "type": "uint256"
        }
      ],
      "payable": false,
      "stateMutability": "view",
      "type": "function"
    },
    {
      "constant": false,
      "inputs": [
        {
          "name": "_stakeManagerAddress",
          "type": "address"
        },
        {
          "name": "_stateManagerAddress",
          "type": "address"
        },
        {
          "name": "_voteManagerAddress",
          "type": "address"
        },
        {
          "name": "_jobManagerAddress",
          "type": "address"
        }
      ],
      "name": "init",
      "outputs": [],
      "payable": false,
      "stateMutability": "nonpayable",
      "type": "function"
    },
    {
      "constant": false,
      "inputs": [
        {
          "name": "epoch",
          "type": "uint256"
        },
        {
          "name": "medians",
          "type": "uint256[]"
        },
        {
          "name": "jobIds",
          "type": "uint256[]"
        },
        {
          "name": "iteration",
          "type": "uint256"
        },
        {
          "name": "biggestStakerId",
          "type": "uint256"
        }
      ],
      "name": "propose",
      "outputs": [],
      "payable": false,
      "stateMutability": "nonpayable",
      "type": "function"
    },
    {
      "constant": false,
      "inputs": [
        {
          "name": "epoch",
          "type": "uint256"
        },
        {
          "name": "assetId",
          "type": "uint256"
        },
        {
          "name": "sorted",
          "type": "uint256[]"
        }
      ],
      "name": "giveSorted",
      "outputs": [],
      "payable": false,
      "stateMutability": "nonpayable",
      "type": "function"
    },
    {
      "constant": false,
      "inputs": [
        {
          "name": "epoch",
          "type": "uint256"
        }
      ],
      "name": "resetDispute",
      "outputs": [],
      "payable": false,
      "stateMutability": "nonpayable",
      "type": "function"
    },
    {
      "constant": false,
      "inputs": [
        {
          "name": "epoch",
          "type": "uint256"
        },
        {
          "name": "blockId",
          "type": "uint256"
        }
      ],
      "name": "finalizeDispute",
      "outputs": [],
      "payable": false,
      "stateMutability": "nonpayable",
      "type": "function"
    },
    {
      "constant": true,
      "inputs": [
        {
          "name": "iteration",
          "type": "uint256"
        },
        {
          "name": "biggestStakerId",
          "type": "uint256"
        },
        {
          "name": "stakerId",
          "type": "uint256"
        }
      ],
      "name": "isElectedProposer",
      "outputs": [
        {
          "name": "",
          "type": "bool"
        }
      ],
      "payable": false,
      "stateMutability": "view",
      "type": "function"
    },
    {
      "constant": false,
      "inputs": [],
      "name": "confirmBlock",
      "outputs": [],
      "payable": false,
      "stateMutability": "nonpayable",
      "type": "function"
    }
  ],
  "bytecode": "0x608060405262000015336200001b60201b60201c565b620002f9565b620000368160006200007c60201b620032fe1790919060201c565b8073ffffffffffffffffffffffffffffffffffffffff167f6ff3aa2ea7b53070f6d9d07a445d338d89e8edef44250ffa8be19f53910d4a2e60405160405180910390a250565b6200008e82826200012f60201b60201c565b15620000d1576040517f08c379a0000000000000000000000000000000000000000000000000000000008152600401620000c890620002a4565b60405180910390fd5b60018260000160008373ffffffffffffffffffffffffffffffffffffffff1673ffffffffffffffffffffffffffffffffffffffff16815260200190815260200160002060006101000a81548160ff0219169083151502179055505050565b60008073ffffffffffffffffffffffffffffffffffffffff168273ffffffffffffffffffffffffffffffffffffffff161415620001a3576040517f08c379a00000000000000000000000000000000000000000000000000000000081526004016200019a90620002c6565b60405180910390fd5b8260000160008373ffffffffffffffffffffffffffffffffffffffff1673ffffffffffffffffffffffffffffffffffffffff16815260200190815260200160002060009054906101000a900460ff16905092915050565b600062000209601f83620002e8565b91507f526f6c65733a206163636f756e7420616c72656164792068617320726f6c65006000830152602082019050919050565b60006200024b602283620002e8565b91507f526f6c65733a206163636f756e7420697320746865207a65726f20616464726560008301527f73730000000000000000000000000000000000000000000000000000000000006020830152604082019050919050565b60006020820190508181036000830152620002bf81620001fa565b9050919050565b60006020820190508181036000830152620002e1816200023c565b9050919050565b600082825260208201905092915050565b614a1080620003096000396000f3fe608060405234801561001057600080fd5b50600436106101415760003560e01c80635ce8772f116100b8578063a27ce1ef1161007c578063a27ce1ef1461037a578063d1a4a43d146103aa578063da2824a8146103da578063df4eb59c146103f6578063e38c7c4214610400578063f25b3f991461043057610141565b80635ce8772f146102d05780637542ff95146102ec578063828496d61461030a57806392b484111461033d5780639b87f6441461037057610141565b80632e716fb11161010a5780632e716fb11461020e578063378ab9a91461022c5780633cd32fd41461025c5780633df395a31461027857806342c1e587146102965780634e6753b7146102b457610141565b80629c9f8c1461014657806304c075691461016257806306552ff3146101925780631d69ff9b146101ae5780632b29ba23146101de575b600080fd5b610160600480360361015b9190810190613872565b610463565b005b61017c600480360361017791908101906137e4565b610a78565b60405161018991906144df565b60405180910390f35b6101ac60048036036101a7919081019061372f565b610b8e565b005b6101c860048036036101c391908101906139bc565b610c98565b6040516101d591906141f8565b60405180910390f35b6101f860048036036101f39190810190613706565b61108f565b60405161020591906141f8565b60405180910390f35b6102166110ac565b6040516102239190614249565b60405180910390f35b610246600480360361024191908101906137e4565b6110d2565b60405161025391906141d6565b60405180910390f35b61027660048036036102719190810190613919565b611143565b005b610280611722565b60405161028d9190614213565b60405180910390f35b61029e611748565b6040516102ab9190614264565b60405180910390f35b6102ce60048036036102c99190810190613955565b61176e565b005b6102ea60048036036102e591908101906137e4565b611f6d565b005b6102f4612254565b604051610301919061422e565b60405180910390f35b610324600480360361031f9190810190613836565b61227a565b60405161033494939291906146ac565b60405180910390f35b61035760048036036103529190810190613919565b6122b7565b6040516103679493929190614667565b60405180910390f35b61037861230e565b005b610394600480360361038f9190810190613919565b612832565b6040516103a191906144df565b60405180910390f35b6103c460048036036103bf9190810190613919565b612965565b6040516103d191906141d6565b60405180910390f35b6103f460048036036103ef9190810190613706565b6129f0565b005b6103fe612a44565b005b61041a600480360361041591908101906137e4565b612a4f565b6040516104279190614501565b60405180910390f35b61044a600480360361044591908101906137e4565b612a6f565b60405161045a9493929190614667565b60405180910390f35b84600560009054906101000a900473ffffffffffffffffffffffffffffffffffffffff1673ffffffffffffffffffffffffffffffffffffffff1663757991a86040518163ffffffff1660e01b815260040160206040518083038186803b1580156104cc57600080fd5b505afa1580156104e0573d6000803e3d6000fd5b505050506040513d601f19601f82011682018060405250610504919081019061380d565b8114610545576040517f08c379a000000000000000000000000000000000000000000000000000000000815260040161053c906143df565b60405180910390fd5b73__Constants_____________________________63c198f8ba6040518163ffffffff1660e01b815260040160206040518083038186803b15801561058957600080fd5b505af415801561059d573d6000803e3d6000fd5b505050506040513d601f19601f820116820180604052506105c19190810190613a0b565b60ff16600560009054906101000a900473ffffffffffffffffffffffffffffffffffffffff1673ffffffffffffffffffffffffffffffffffffffff16631865c57d6040518163ffffffff1660e01b815260040160206040518083038186803b15801561062c57600080fd5b505afa158015610640573d6000803e3d6000fd5b505050506040513d601f19601f82011682018060405250610664919081019061380d565b81146106a5576040517f08c379a000000000000000000000000000000000000000000000000000000000815260040161069c9061449f565b60405180910390fd5b6000600460009054906101000a900473ffffffffffffffffffffffffffffffffffffffff1673ffffffffffffffffffffffffffffffffffffffff16636022a485336040518263ffffffff1660e01b815260040161070291906141bb565b60206040518083038186803b15801561071a57600080fd5b505afa15801561072e573d6000803e3d6000fd5b505050506040513d601f19601f82011682018060405250610752919081019061380d565b905061075f858583610c98565b61079e576040517f08c379a00000000000000000000000000000000000000000000000000000000081526004016107959061433f565b60405180910390fd5b73__Constants_____________________________63375b3c0a6040518163ffffffff1660e01b815260040160206040518083038186803b1580156107e257600080fd5b505af41580156107f6573d6000803e3d6000fd5b505050506040513d601f19601f8201168201806040525061081a919081019061380d565b600460009054906101000a900473ffffffffffffffffffffffffffffffffffffffff1673ffffffffffffffffffffffffffffffffffffffff1663e3c998fe836040518263ffffffff1660e01b81526004016108759190614501565b60e06040518083038186803b15801561088d57600080fd5b505afa1580156108a1573d6000803e3d6000fd5b505050506040513d601f19601f820116820180604052506108c591908101906137bb565b60200151101561090a576040517f08c379a00000000000000000000000000000000000000000000000000000000081526004016109019061445f565b60405180910390fd5b60006109f3896040518060c001604052808581526020018b81526020018a8152602001898152602001600460009054906101000a900473ffffffffffffffffffffffffffffffffffffffff1673ffffffffffffffffffffffffffffffffffffffff1663e3c998fe8a6040518263ffffffff1660e01b815260040161098e9190614501565b60e06040518083038186803b1580156109a657600080fd5b505afa1580156109ba573d6000803e3d6000fd5b505050506040513d601f19601f820116820180604052506109de91908101906137bb565b60200151815260200160011515815250612aac565b90507f43d4b4706539f9e22baf8767ebea21ad24f723f14b6981664ac4d0af596dddbe81604051610a249190614501565b60405180910390a17f16218ec6520966a37c88eb385ec86ac049ba212e2d3b1cb7f61b91d93356ecce89838a8a8a8a604051610a659695949392919061456e565b60405180910390a1505050505050505050565b610a8061344d565b600360008381526020019081526020016000206040518060c00160405290816000820154815260200160018201805480602002602001604051908101604052809291908181526020018280548015610af757602002820191906000526020600020905b815481526020019060010190808311610ae3575b5050505050815260200160028201805480602002602001604051908101604052809291908181526020018280548015610b4f57602002820191906000526020600020905b815481526020019060010190808311610b3b575b5050505050815260200160038201548152602001600482015481526020016005820160009054906101000a900460ff1615151515815250509050919050565b83600460006101000a81548173ffffffffffffffffffffffffffffffffffffffff021916908373ffffffffffffffffffffffffffffffffffffffff16021790555082600560006101000a81548173ffffffffffffffffffffffffffffffffffffffff021916908373ffffffffffffffffffffffffffffffffffffffff16021790555081600660006101000a81548173ffffffffffffffffffffffffffffffffffffffff021916908373ffffffffffffffffffffffffffffffffffffffff16021790555080600760006101000a81548173ffffffffffffffffffffffffffffffffffffffff021916908373ffffffffffffffffffffffffffffffffffffffff16021790555050505050565b600081610dff600173__Random________________________________635075dbfb600a600460009054906101000a900473ffffffffffffffffffffffffffffffffffffffff1673ffffffffffffffffffffffffffffffffffffffff1663bc788d466040518163ffffffff1660e01b815260040160206040518083038186803b158015610d2457600080fd5b505afa158015610d38573d6000803e3d6000fd5b505050506040513d601f19601f82011682018060405250610d5c919081019061380d565b8a604051602001610d6d9190614501565b604051602081830303815290604052805190602001206040518463ffffffff1660e01b8152600401610da1939291906142a8565b60206040518083038186803b158015610db957600080fd5b505af4158015610dcd573d6000803e3d6000fd5b505050506040513d601f19601f82011682018060405250610df1919081019061380d565b61300a90919063ffffffff16565b14610e0d5760009050611088565b600073__Random________________________________63b07ceab8600a8588604051602001610e3e929190614545565b604051602081830303815290604052805190602001206040518363ffffffff1660e01b8152600401610e7192919061427f565b60206040518083038186803b158015610e8957600080fd5b505af4158015610e9d573d6000803e3d6000fd5b505050506040513d601f19601f82011682018060405250610ec19190810190613792565b90506000610ee06401000000008360001c61305f90919063ffffffff16565b90506000600460009054906101000a900473ffffffffffffffffffffffffffffffffffffffff1673ffffffffffffffffffffffffffffffffffffffff1663e3c998fe876040518263ffffffff1660e01b8152600401610f3f9190614501565b60e06040518083038186803b158015610f5757600080fd5b505afa158015610f6b573d6000803e3d6000fd5b505050506040513d601f19601f82011682018060405250610f8f91908101906137bb565b60200151905061105b640100000000600460009054906101000a900473ffffffffffffffffffffffffffffffffffffffff1673ffffffffffffffffffffffffffffffffffffffff1663e3c998fe886040518263ffffffff1660e01b8152600401610ff99190614501565b60e06040518083038186803b15801561101157600080fd5b505afa158015611025573d6000803e3d6000fd5b505050506040513d601f19601f8201168201806040525061104991908101906137bb565b602001516130b690919063ffffffff16565b61106e82846130b690919063ffffffff16565b11156110805760009350505050611088565b600193505050505b9392505050565b60006110a582600061312690919063ffffffff16565b9050919050565b600560009054906101000a900473ffffffffffffffffffffffffffffffffffffffff1681565b60606003600083815260200190815260200160002060010180548060200260200160405190810160405280929190818152602001828054801561113457602002820191906000526020600020905b815481526020019060010190808311611120575b50505050509050809050919050565b81600560009054906101000a900473ffffffffffffffffffffffffffffffffffffffff1673ffffffffffffffffffffffffffffffffffffffff1663757991a86040518163ffffffff1660e01b815260040160206040518083038186803b1580156111ac57600080fd5b505afa1580156111c0573d6000803e3d6000fd5b505050506040513d601f19601f820116820180604052506111e4919081019061380d565b8114611225576040517f08c379a000000000000000000000000000000000000000000000000000000000815260040161121c906143df565b60405180910390fd5b73__Constants_____________________________63f240f7c36040518163ffffffff1660e01b815260040160206040518083038186803b15801561126957600080fd5b505af415801561127d573d6000803e3d6000fd5b505050506040513d601f19601f820116820180604052506112a19190810190613a0b565b60ff16600560009054906101000a900473ffffffffffffffffffffffffffffffffffffffff1673ffffffffffffffffffffffffffffffffffffffff16631865c57d6040518163ffffffff1660e01b815260040160206040518083038186803b15801561130c57600080fd5b505afa158015611320573d6000803e3d6000fd5b505050506040513d601f19601f82011682018060405250611344919081019061380d565b8114611385576040517f08c379a000000000000000000000000000000000000000000000000000000000815260040161137c9061449f565b60405180910390fd5b60006001600086815260200190815260200160002060003373ffffffffffffffffffffffffffffffffffffffff1673ffffffffffffffffffffffffffffffffffffffff168152602001908152602001600020600301549050600660009054906101000a900473ffffffffffffffffffffffffffffffffffffffff1673ffffffffffffffffffffffffffffffffffffffff1663a6a145d986836040518363ffffffff1660e01b815260040161143a929190614545565b60206040518083038186803b15801561145257600080fd5b505afa158015611466573d6000803e3d6000fd5b505050506040513d601f19601f8201168201806040525061148a919081019061380d565b6001600087815260200190815260200160002060003373ffffffffffffffffffffffffffffffffffffffff1673ffffffffffffffffffffffffffffffffffffffff168152602001908152602001600020600001541461151e576040517f08c379a00000000000000000000000000000000000000000000000000000000081526004016115159061447f565b60405180910390fd5b60006001600087815260200190815260200160002060003373ffffffffffffffffffffffffffffffffffffffff1673ffffffffffffffffffffffffffffffffffffffff168152602001908152602001600020600101549050600060026000888152602001908152602001600020868154811061159657fe5b9060005260206000209060060201600001549050600082116115b757600080fd5b816002600089815260200190815260200160002087815481106115d657fe5b906000526020600020906006020160010184815481106115f257fe5b9060005260206000200154146116de57600060026000898152602001908152602001600020878154811061162257fe5b906000526020600020906006020160050160006101000a81548160ff021916908315150217905550600460009054906101000a900473ffffffffffffffffffffffffffffffffffffffff1673ffffffffffffffffffffffffffffffffffffffff16633d82e3c182336040518363ffffffff1660e01b81526004016116a792919061451c565b600060405180830381600087803b1580156116c157600080fd5b505af11580156116d5573d6000803e3d6000fd5b50505050611719565b6040517f08c379a00000000000000000000000000000000000000000000000000000000081526004016117109061443f565b60405180910390fd5b50505050505050565b600760009054906101000a900473ffffffffffffffffffffffffffffffffffffffff1681565b600660009054906101000a900473ffffffffffffffffffffffffffffffffffffffff1681565b82600560009054906101000a900473ffffffffffffffffffffffffffffffffffffffff1673ffffffffffffffffffffffffffffffffffffffff1663757991a86040518163ffffffff1660e01b815260040160206040518083038186803b1580156117d757600080fd5b505afa1580156117eb573d6000803e3d6000fd5b505050506040513d601f19601f8201168201806040525061180f919081019061380d565b8114611850576040517f08c379a0000000000000000000000000000000000000000000000000000000008152600401611847906143df565b60405180910390fd5b73__Constants_____________________________63f240f7c36040518163ffffffff1660e01b815260040160206040518083038186803b15801561189457600080fd5b505af41580156118a8573d6000803e3d6000fd5b505050506040513d601f19601f820116820180604052506118cc9190810190613a0b565b60ff16600560009054906101000a900473ffffffffffffffffffffffffffffffffffffffff1673ffffffffffffffffffffffffffffffffffffffff16631865c57d6040518163ffffffff1660e01b815260040160206040518083038186803b15801561193757600080fd5b505afa15801561194b573d6000803e3d6000fd5b505050506040513d601f19601f8201168201806040525061196f919081019061380d565b81146119b0576040517f08c379a00000000000000000000000000000000000000000000000000000000081526004016119a79061449f565b60405180910390fd5b6000611a726002600660009054906101000a900473ffffffffffffffffffffffffffffffffffffffff1673ffffffffffffffffffffffffffffffffffffffff1663a6a145d989896040518363ffffffff1660e01b8152600401611a14929190614545565b60206040518083038186803b158015611a2c57600080fd5b505afa158015611a40573d6000803e3d6000fd5b505050506040513d601f19601f82011682018060405250611a64919081019061380d565b6131ee90919063ffffffff16565b905060006001600088815260200190815260200160002060003373ffffffffffffffffffffffffffffffffffffffff1673ffffffffffffffffffffffffffffffffffffffff16815260200190815260200160002060000154905060006001600089815260200190815260200160002060003373ffffffffffffffffffffffffffffffffffffffff1673ffffffffffffffffffffffffffffffffffffffff1681526020019081526020016000206002015490506000600160008a815260200190815260200160002060003373ffffffffffffffffffffffffffffffffffffffff1673ffffffffffffffffffffffffffffffffffffffff168152602001908152602001600020600001541415611bdd5786600160008a815260200190815260200160002060003373ffffffffffffffffffffffffffffffffffffffff1673ffffffffffffffffffffffffffffffffffffffff16815260200190815260200160002060030181905550611c73565b86600160008a815260200190815260200160002060003373ffffffffffffffffffffffffffffffffffffffff1673ffffffffffffffffffffffffffffffffffffffff1681526020019081526020016000206003015414611c72576040517f08c379a0000000000000000000000000000000000000000000000000000000008152600401611c699061441f565b60405180910390fd5b5b60008090505b8651811015611eb25781878281518110611c8f57fe5b602002602001015111611cd7576040517f08c379a0000000000000000000000000000000000000000000000000000000008152600401611cce906142ff565b60405180910390fd5b868181518110611ce357fe5b60200260200101519150611dc1600660009054906101000a900473ffffffffffffffffffffffffffffffffffffffff1673ffffffffffffffffffffffffffffffffffffffff16639c66556f8b8b8b8681518110611d3c57fe5b60200260200101516040518463ffffffff1660e01b8152600401611d6293929190614630565b60206040518083038186803b158015611d7a57600080fd5b505afa158015611d8e573d6000803e3d6000fd5b505050506040513d601f19601f82011682018060405250611db2919081019061380d565b8461300a90919063ffffffff16565b92506000600160008b815260200190815260200160002060003373ffffffffffffffffffffffffffffffffffffffff1673ffffffffffffffffffffffffffffffffffffffff16815260200190815260200160002060010154148015611e2557508383115b15611e9657868181518110611e3657fe5b6020026020010151600160008b815260200190815260200160002060003373ffffffffffffffffffffffffffffffffffffffff1673ffffffffffffffffffffffffffffffffffffffff168152602001908152602001600020600101819055505b6127105a1015611ea557611eb2565b8080600101915050611c79565b5080600160008a815260200190815260200160002060003373ffffffffffffffffffffffffffffffffffffffff1673ffffffffffffffffffffffffffffffffffffffff1681526020019081526020016000206002018190555081600160008a815260200190815260200160002060003373ffffffffffffffffffffffffffffffffffffffff1673ffffffffffffffffffffffffffffffffffffffff168152602001908152602001600020600001819055505050505050505050565b80600560009054906101000a900473ffffffffffffffffffffffffffffffffffffffff1673ffffffffffffffffffffffffffffffffffffffff1663757991a86040518163ffffffff1660e01b815260040160206040518083038186803b158015611fd657600080fd5b505afa158015611fea573d6000803e3d6000fd5b505050506040513d601f19601f8201168201806040525061200e919081019061380d565b811461204f576040517f08c379a0000000000000000000000000000000000000000000000000000000008152600401612046906143df565b60405180910390fd5b73__Constants_____________________________63f240f7c36040518163ffffffff1660e01b815260040160206040518083038186803b15801561209357600080fd5b505af41580156120a7573d6000803e3d6000fd5b505050506040513d601f19601f820116820180604052506120cb9190810190613a0b565b60ff16600560009054906101000a900473ffffffffffffffffffffffffffffffffffffffff1673ffffffffffffffffffffffffffffffffffffffff16631865c57d6040518163ffffffff1660e01b815260040160206040518083038186803b15801561213657600080fd5b505afa15801561214a573d6000803e3d6000fd5b505050506040513d601f19601f8201168201806040525061216e919081019061380d565b81146121af576040517f08c379a00000000000000000000000000000000000000000000000000000000081526004016121a69061449f565b60405180910390fd5b604051806080016040528060008152602001600081526020016000815260200160008152506001600085815260200190815260200160002060003373ffffffffffffffffffffffffffffffffffffffff1673ffffffffffffffffffffffffffffffffffffffff16815260200190815260200160002060008201518160000155602082015181600101556040820151816002015560608201518160030155905050505050565b600460009054906101000a900473ffffffffffffffffffffffffffffffffffffffff1681565b6001602052816000526040600020602052806000526040600020600091509150508060000154908060010154908060020154908060030154905084565b600260205281600052604060002081815481106122d057fe5b9060005260206000209060060201600091509150508060000154908060030154908060040154908060050160009054906101000a900460ff16905084565b6123173361108f565b612356576040517f08c379a000000000000000000000000000000000000000000000000000000000815260040161234d906144bf565b60405180910390fd5b6000600560009054906101000a900473ffffffffffffffffffffffffffffffffffffffff1673ffffffffffffffffffffffffffffffffffffffff1663757991a86040518163ffffffff1660e01b815260040160206040518083038186803b1580156123c057600080fd5b505afa1580156123d4573d6000803e3d6000fd5b505050506040513d601f19601f820116820180604052506123f8919081019061380d565b90506000600360006001840381526020019081526020016000206000015414801561243c575060006002600060018403815260200190815260200160002080549050115b1561282e5760008090505b60026000600184038152602001908152602001600020805490508160ff16101561282c57600260006001840381526020019081526020016000208160ff168154811061248f57fe5b906000526020600020906006020160050160009054906101000a900460ff161561281f57600260006001840381526020019081526020016000208160ff16815481106124d757fe5b90600052602060002090600602016003600060018503815260200190815260200160002060008201548160000155600182018160010190805461251b929190613485565b506002820181600201908054612532929190613485565b5060038201548160030155600482015481600401556005820160009054906101000a900460ff168160050160006101000a81548160ff0219169083151502179055509050506000600260006001850381526020019081526020016000208260ff168154811061259d57fe5b90600052602060002090600602016000015490507f2ec8e0228131f30101c2ac81e975d4af72577450525a891edd394f043f5b999f6001840382600260006001880381526020019081526020016000208560ff16815481106125fb57fe5b9060005260206000209060060201600101600260006001890381526020019081526020016000208660ff168154811061263057fe5b906000526020600020906006020160020160405161265194939291906145dd565b60405180910390a160008090505b600260006001860381526020019081526020016000208360ff168154811061268357fe5b9060005260206000209060060201600201805490508160ff16101561278957600760009054906101000a900473ffffffffffffffffffffffffffffffffffffffff1673ffffffffffffffffffffffffffffffffffffffff1663cb3a2b28600260006001880381526020019081526020016000208560ff168154811061270457fe5b90600052602060002090600602016002018360ff168154811061272357fe5b90600052602060002001546040518263ffffffff1660e01b815260040161274a9190614501565b600060405180830381600087803b15801561276457600080fd5b505af1158015612778573d6000803e3d6000fd5b50505050808060010191505061265f565b50600460009054906101000a900473ffffffffffffffffffffffffffffffffffffffff1673ffffffffffffffffffffffffffffffffffffffff16636aa46ccd826040518263ffffffff1660e01b81526004016127e59190614501565b600060405180830381600087803b1580156127ff57600080fd5b505af1158015612813573d6000803e3d6000fd5b50505050505050612830565b8080600101915050612447565b505b505b565b61283a61344d565b60026000848152602001908152602001600020828154811061285857fe5b90600052602060002090600602016040518060c001604052908160008201548152602001600182018054806020026020016040519081016040528092919081815260200182805480156128ca57602002820191906000526020600020905b8154815260200190600101908083116128b6575b505050505081526020016002820180548060200260200160405190810160405280929190818152602001828054801561292257602002820191906000526020600020905b81548152602001906001019080831161290e575b5050505050815260200160038201548152602001600482015481526020016005820160009054906101000a900460ff161515151581525050905080905092915050565b606060026000848152602001908152602001600020828154811061298557fe5b90600052602060002090600602016001018054806020026020016040519081016040528092919081815260200182805480156129e057602002820191906000526020600020905b8154815260200190600101908083116129cc575b5050505050905080905092915050565b6129f93361108f565b612a38576040517f08c379a0000000000000000000000000000000000000000000000000000000008152600401612a2f906144bf565b60405180910390fd5b612a418161324a565b50565b612a4d336132a4565b565b600060026000838152602001908152602001600020805490509050919050565b60036020528060005260406000206000915090508060000154908060030154908060040154908060050160009054906101000a900460ff16905084565b60008060026000858152602001908152602001600020805490501415612b8f57600260008481526020019081526020016000208290806001815401808255809150509060018203906000526020600020906006020160009091929091909150600082015181600001556020820151816001019080519060200190612b319291906134d7565b506040820151816002019080519060200190612b4e9291906134d7565b50606082015181600301556080820151816004015560a08201518160050160006101000a81548160ff02191690831515021790555050505060009050613004565b60006002600085815260200190815260200160002080549050905060008090505b6002600086815260200190815260200160002080549050811015612c61578360800151600260008781526020019081526020016000208281548110612bf157fe5b9060005260206000209060060201600401541015612c1157809150612c61565b8360600151600260008781526020019081526020016000208281548110612c3457fe5b9060005260206000209060060201600301541115612c5457809150612c61565b8080600101915050612bb0565b50600260008581526020019081526020016000208390806001815401808255809150509060018203906000526020600020906006020160009091929091909150600082015181600001556020820151816001019080519060200190612cc79291906134d7565b506040820151816002019080519060200190612ce49291906134d7565b50606082015181600301556080820151816004015560a08201518160050160006101000a81548160ff0219169083151502179055505050506000600160026000878152602001908152602001600020805490500390505b81811115612e2857600260008681526020019081526020016000206001820381548110612d6457fe5b9060005260206000209060060201600260008781526020019081526020016000208281548110612d9057fe5b9060005260206000209060060201600082015481600001556001820181600101908054612dbe929190613485565b506002820181600201908054612dd5929190613485565b5060038201548160030155600482015481600401556005820160009054906101000a900460ff168160050160006101000a81548160ff021916908315150217905550905050808060019003915050612d3b565b5082600260008681526020019081526020016000208281548110612e4857fe5b9060005260206000209060060201600082015181600001556020820151816001019080519060200190612e7c9291906134d7565b506040820151816002019080519060200190612e999291906134d7565b50606082015181600301556080820151816004015560a08201518160050160006101000a81548160ff02191690831515021790555090505073__Constants_____________________________63379597e06040518163ffffffff1660e01b815260040160206040518083038186803b158015612f1557600080fd5b505af4158015612f29573d6000803e3d6000fd5b505050506040513d601f19601f82011682018060405250612f4d919081019061380d565b60026000868152602001908152602001600020805490501115612fff5760026000858152602001908152602001600020600160026000878152602001908152602001600020805490500381548110612fa157fe5b9060005260206000209060060201600080820160009055600182016000612fc89190613524565b600282016000612fd89190613524565b600382016000905560048201600090556005820160006101000a81549060ff021916905550505b809150505b92915050565b600080828401905083811015613055576040517f08c379a000000000000000000000000000000000000000000000000000000000815260040161304c9061431f565b60405180910390fd5b8091505092915050565b6000808214156130a4576040517f08c379a000000000000000000000000000000000000000000000000000000000815260040161309b9061437f565b60405180910390fd5b8183816130ad57fe5b06905092915050565b6000808314156130c95760009050613120565b60008284029050828482816130da57fe5b041461311b576040517f08c379a0000000000000000000000000000000000000000000000000000000008152600401613112906143bf565b60405180910390fd5b809150505b92915050565b60008073ffffffffffffffffffffffffffffffffffffffff168273ffffffffffffffffffffffffffffffffffffffff161415613197576040517f08c379a000000000000000000000000000000000000000000000000000000000815260040161318e906143ff565b60405180910390fd5b8260000160008373ffffffffffffffffffffffffffffffffffffffff1673ffffffffffffffffffffffffffffffffffffffff16815260200190815260200160002060009054906101000a900460ff16905092915050565b6000808211613232576040517f08c379a00000000000000000000000000000000000000000000000000000000081526004016132299061435f565b60405180910390fd5b600082848161323d57fe5b0490508091505092915050565b61325e8160006132fe90919063ffffffff16565b8073ffffffffffffffffffffffffffffffffffffffff167f6ff3aa2ea7b53070f6d9d07a445d338d89e8edef44250ffa8be19f53910d4a2e60405160405180910390a250565b6132b88160006133a690919063ffffffff16565b8073ffffffffffffffffffffffffffffffffffffffff167f86e5bbceda94081c32220d685f37cc4e3ea7bb0be2dfbf0cb703579505a5390e60405160405180910390a250565b6133088282613126565b15613348576040517f08c379a000000000000000000000000000000000000000000000000000000000815260040161333f906142df565b60405180910390fd5b60018260000160008373ffffffffffffffffffffffffffffffffffffffff1673ffffffffffffffffffffffffffffffffffffffff16815260200190815260200160002060006101000a81548160ff0219169083151502179055505050565b6133b08282613126565b6133ef576040517f08c379a00000000000000000000000000000000000000000000000000000000081526004016133e69061439f565b60405180910390fd5b60008260000160008373ffffffffffffffffffffffffffffffffffffffff1673ffffffffffffffffffffffffffffffffffffffff16815260200190815260200160002060006101000a81548160ff0219169083151502179055505050565b6040518060c0016040528060008152602001606081526020016060815260200160008152602001600081526020016000151581525090565b8280548282559060005260206000209081019282156134c65760005260206000209182015b828111156134c55782548255916001019190600101906134aa565b5b5090506134d39190613545565b5090565b828054828255906000526020600020908101928215613513579160200282015b828111156135125782518255916020019190600101906134f7565b5b5090506135209190613545565b5090565b50805460008255906000526020600020908101906135429190613545565b50565b61356791905b8082111561356357600081600090555060010161354b565b5090565b90565b60008135905061357981614971565b92915050565b600082601f83011261359057600080fd5b81356135a361359e8261471e565b6146f1565b915081818352602084019350602081019050838560208402820111156135c857600080fd5b60005b838110156135f857816135de88826136c7565b8452602084019350602083019250506001810190506135cb565b5050505092915050565b60008151905061361181614988565b92915050565b600060e0828403121561362957600080fd5b61363360e06146f1565b90506000613643848285016136dc565b6000830152506020613657848285016136dc565b602083015250604061366b848285016136dc565b604083015250606061367f848285016136dc565b6060830152506080613693848285016136dc565b60808301525060a06136a7848285016136dc565b60a08301525060c06136bb848285016136dc565b60c08301525092915050565b6000813590506136d68161499f565b92915050565b6000815190506136eb8161499f565b92915050565b600081519050613700816149b6565b92915050565b60006020828403121561371857600080fd5b60006137268482850161356a565b91505092915050565b6000806000806080858703121561374557600080fd5b60006137538782880161356a565b94505060206137648782880161356a565b93505060406137758782880161356a565b92505060606137868782880161356a565b91505092959194509250565b6000602082840312156137a457600080fd5b60006137b284828501613602565b91505092915050565b600060e082840312156137cd57600080fd5b60006137db84828501613617565b91505092915050565b6000602082840312156137f657600080fd5b6000613804848285016136c7565b91505092915050565b60006020828403121561381f57600080fd5b600061382d848285016136dc565b91505092915050565b6000806040838503121561384957600080fd5b6000613857858286016136c7565b92505060206138688582860161356a565b9150509250929050565b600080600080600060a0868803121561388a57600080fd5b6000613898888289016136c7565b955050602086013567ffffffffffffffff8111156138b557600080fd5b6138c18882890161357f565b945050604086013567ffffffffffffffff8111156138de57600080fd5b6138ea8882890161357f565b93505060606138fb888289016136c7565b925050608061390c888289016136c7565b9150509295509295909350565b6000806040838503121561392c57600080fd5b600061393a858286016136c7565b925050602061394b858286016136c7565b9150509250929050565b60008060006060848603121561396a57600080fd5b6000613978868287016136c7565b9350506020613989868287016136c7565b925050604084013567ffffffffffffffff8111156139a657600080fd5b6139b28682870161357f565b9150509250925092565b6000806000606084860312156139d157600080fd5b60006139df868287016136c7565b93505060206139f0868287016136c7565b9250506040613a01868287016136c7565b9150509250925092565b600060208284031215613a1d57600080fd5b6000613a2b848285016136f1565b91505092915050565b6000613a40838361418e565b60208301905092915050565b613a558161485f565b82525050565b6000613a6682614786565b613a7081856147d4565b9350613a7b83614756565b8060005b83811015613aac578151613a938882613a34565b9750613a9e836147a9565b925050600181019050613a7f565b5085935050505092915050565b6000613ac48261477b565b613ace81856147c3565b9350613ad983614746565b8060005b83811015613b0a578151613af18882613a34565b9750613afc8361479c565b925050600181019050613add565b5085935050505092915050565b6000613b2282614791565b613b2c81856147d4565b9350613b3783614766565b8060005b83811015613b6f57613b4c82614951565b613b568882613a34565b9750613b61836147b6565b925050600181019050613b3b565b5085935050505092915050565b613b8581614812565b82525050565b613b9481614812565b82525050565b613ba38161481e565b82525050565b613bb281614871565b82525050565b613bc181614895565b82525050565b613bd0816148b9565b82525050565b613bdf816148dd565b82525050565b613bee81614901565b82525050565b6000613c01601f836147e5565b91507f526f6c65733a206163636f756e7420616c72656164792068617320726f6c65006000830152602082019050919050565b6000613c416029836147e5565b91507f736f727465645b695d206973206e6f742067726561746572207468616e206c6160008301527f73745669736974656400000000000000000000000000000000000000000000006020830152604082019050919050565b6000613ca7601b836147e5565b91507f536166654d6174683a206164646974696f6e206f766572666c6f7700000000006000830152602082019050919050565b6000613ce7600b836147e5565b91507f6e6f7420656c65637465640000000000000000000000000000000000000000006000830152602082019050919050565b6000613d27601a836147e5565b91507f536166654d6174683a206469766973696f6e206279207a65726f0000000000006000830152602082019050919050565b6000613d676018836147e5565b91507f536166654d6174683a206d6f64756c6f206279207a65726f00000000000000006000830152602082019050919050565b6000613da76021836147e5565b91507f526f6c65733a206163636f756e7420646f6573206e6f74206861766520726f6c60008301527f65000000000000000000000000000000000000000000000000000000000000006020830152604082019050919050565b6000613e0d6021836147e5565b91507f536166654d6174683a206d756c7469706c69636174696f6e206f766572666c6f60008301527f77000000000000000000000000000000000000000000000000000000000000006020830152604082019050919050565b6000613e73600f836147e5565b91507f696e636f72726563742065706f636800000000000000000000000000000000006000830152602082019050919050565b6000613eb36022836147e5565b91507f526f6c65733a206163636f756e7420697320746865207a65726f20616464726560008301527f73730000000000000000000000000000000000000000000000000000000000006020830152604082019050919050565b6000613f196014836147e5565b91507f41737365744964206e6f74206d61746368696e670000000000000000000000006000830152602082019050919050565b6000613f596037836147e5565b91507f50726f706f73656420416c7465726e61746520626c6f636b206973206964656e60008301527f746963616c20746f2070726f706f73656420626c6f636b0000000000000000006020830152604082019050919050565b6000613fbf6019836147e5565b91507f7374616b652062656c6f77206d696e696d756d207374616b65000000000000006000830152602082019050919050565b6000613fff6021836147e5565b91507f546f74616c207374616b652072657665616c656420646f65736e74206d61746360008301527f68000000000000000000000000000000000000000000000000000000000000006020830152604082019050919050565b6000614065600f836147e5565b91507f696e636f727265637420737461746500000000000000000000000000000000006000830152602082019050919050565b60006140a56030836147e5565b91507f577269746572526f6c653a2063616c6c657220646f6573206e6f74206861766560008301527f207468652057726974657220726f6c65000000000000000000000000000000006020830152604082019050919050565b600060c083016000830151614116600086018261418e565b506020830151848203602086015261412e8282613ab9565b915050604083015184820360408601526141488282613ab9565b915050606083015161415d606086018261418e565b506080830151614170608086018261418e565b5060a083015161418360a0860182613b7c565b508091505092915050565b61419781614848565b82525050565b6141a681614848565b82525050565b6141b581614848565b82525050565b60006020820190506141d06000830184613a4c565b92915050565b600060208201905081810360008301526141f08184613a5b565b905092915050565b600060208201905061420d6000830184613b8b565b92915050565b60006020820190506142286000830184613ba9565b92915050565b60006020820190506142436000830184613bb8565b92915050565b600060208201905061425e6000830184613bc7565b92915050565b60006020820190506142796000830184613bd6565b92915050565b60006040820190506142946000830185613be5565b6142a16020830184613b9a565b9392505050565b60006060820190506142bd6000830186613be5565b6142ca60208301856141ac565b6142d76040830184613b9a565b949350505050565b600060208201905081810360008301526142f881613bf4565b9050919050565b6000602082019050818103600083015261431881613c34565b9050919050565b6000602082019050818103600083015261433881613c9a565b9050919050565b6000602082019050818103600083015261435881613cda565b9050919050565b6000602082019050818103600083015261437881613d1a565b9050919050565b6000602082019050818103600083015261439881613d5a565b9050919050565b600060208201905081810360008301526143b881613d9a565b9050919050565b600060208201905081810360008301526143d881613e00565b9050919050565b600060208201905081810360008301526143f881613e66565b9050919050565b6000602082019050818103600083015261441881613ea6565b9050919050565b6000602082019050818103600083015261443881613f0c565b9050919050565b6000602082019050818103600083015261445881613f4c565b9050919050565b6000602082019050818103600083015261447881613fb2565b9050919050565b6000602082019050818103600083015261449881613ff2565b9050919050565b600060208201905081810360008301526144b881614058565b9050919050565b600060208201905081810360008301526144d881614098565b9050919050565b600060208201905081810360008301526144f981846140fe565b905092915050565b6000602082019050614516600083018461419d565b92915050565b6000604082019050614531600083018561419d565b61453e6020830184613a4c565b9392505050565b600060408201905061455a600083018561419d565b614567602083018461419d565b9392505050565b600060c082019050614583600083018961419d565b614590602083018861419d565b81810360408301526145a28187613a5b565b905081810360608301526145b68186613a5b565b90506145c5608083018561419d565b6145d260a083018461419d565b979650505050505050565b60006080820190506145f2600083018761419d565b6145ff602083018661419d565b81810360408301526146118185613b17565b905081810360608301526146258184613b17565b905095945050505050565b6000606082019050614645600083018661419d565b614652602083018561419d565b61465f604083018461419d565b949350505050565b600060808201905061467c600083018761419d565b614689602083018661419d565b614696604083018561419d565b6146a36060830184613b8b565b95945050505050565b60006080820190506146c1600083018761419d565b6146ce602083018661419d565b6146db604083018561419d565b6146e8606083018461419d565b95945050505050565b6000604051905081810181811067ffffffffffffffff8211171561471457600080fd5b8060405250919050565b600067ffffffffffffffff82111561473557600080fd5b602082029050602081019050919050565b6000819050602082019050919050565b6000819050602082019050919050565b60008190508160005260206000209050919050565b600081519050919050565b600081519050919050565b600081549050919050565b6000602082019050919050565b6000602082019050919050565b6000600182019050919050565b600082825260208201905092915050565b600082825260208201905092915050565b600082825260208201905092915050565b6000819050919050565b600061480b82614828565b9050919050565b60008115159050919050565b6000819050919050565b600073ffffffffffffffffffffffffffffffffffffffff82169050919050565b6000819050919050565b600060ff82169050919050565b600061486a82614913565b9050919050565b600061487c82614883565b9050919050565b600061488e82614828565b9050919050565b60006148a0826148a7565b9050919050565b60006148b282614828565b9050919050565b60006148c4826148cb565b9050919050565b60006148d682614828565b9050919050565b60006148e8826148ef565b9050919050565b60006148fa82614828565b9050919050565b600061490c82614852565b9050919050565b600061491e82614925565b9050919050565b600061493082614828565b9050919050565b600061494a61494583614964565b6147f6565b9050919050565b600061495d8254614937565b9050919050565b60008160001c9050919050565b61497a81614800565b811461498557600080fd5b50565b6149918161481e565b811461499c57600080fd5b50565b6149a881614848565b81146149b357600080fd5b50565b6149bf81614852565b81146149ca57600080fd5b5056fea365627a7a7230582092f3f80217608191c7365cab9ceeb5b4847458d6d11db3d63758642d5f43c0556c6578706572696d656e74616cf564736f6c634300050a0040",
  "source": "pragma solidity 0.5.10;\npragma experimental ABIEncoderV2;\nimport \"../lib/Random.sol\";\n// import \"../SimpleToken.sol\";\nimport \"./Utils.sol\";\nimport \"./BlockStorage.sol\";\nimport \"./IStakeManager.sol\";\nimport \"./IStateManager.sol\";\nimport \"./IVoteManager.sol\";\nimport \"./IJobManager.sol\";\nimport \"openzeppelin-solidity/contracts/math/SafeMath.sol\";\nimport \"./WriterRole.sol\";\n\n\ncontract BlockManager is Utils, WriterRole, BlockStorage {\n    using SafeMath for uint256;\n\n    IStakeManager public stakeManager;\n    IStateManager public stateManager;\n    IVoteManager public voteManager;\n    IJobManager public jobManager;\n\n    modifier checkEpoch (uint256 epoch) {\n        require(epoch == stateManager.getEpoch(), \"incorrect epoch\");\n        _;\n    }\n\n    modifier checkState (uint256 state) {\n        require(state == stateManager.getState(), \"incorrect state\");\n        _;\n    }\n\n    function getBlock(uint256 epoch) external view returns(Structs.Block memory _block) {\n        return(blocks[epoch]);\n    }\n\n    function getBlockMedians(uint256 epoch) external view returns(uint256[] memory _blockMedians) {\n        _blockMedians = blocks[epoch].medians;\n        return(_blockMedians);\n    }\n\n    function getProposedBlock(uint256 epoch, uint256 proposedBlock)\n    external view returns(Structs.Block memory _block) {\n        _block = proposedBlocks[epoch][proposedBlock];\n        return(_block);\n    }\n\n    function getProposedBlockMedians(uint256 epoch, uint256 proposedBlock)\n    external view returns(uint256[] memory _blockMedians) {\n        _blockMedians = proposedBlocks[epoch][proposedBlock].medians;\n        return(_blockMedians);\n    }\n\n    function getNumProposedBlocks(uint256 epoch)\n    external view returns(uint256) {\n        return(proposedBlocks[epoch].length);\n    }\n\n    //disable after init.\n    function init(address _stakeManagerAddress, address _stateManagerAddress,\n                address _voteManagerAddress, address _jobManagerAddress) public {\n        stakeManager = IStakeManager(_stakeManagerAddress);\n        stateManager = IStateManager(_stateManagerAddress);\n        voteManager = IVoteManager(_voteManagerAddress);\n        jobManager = IJobManager(_jobManagerAddress);\n    }\n\n    event Proposed(uint256 epoch,\n                    uint256 stakerId,\n                    uint256[] medians,\n                    uint256[] jobIds,\n                    uint256 iteration,\n                    uint256 biggestStakerId);\n\n    // elected proposer proposes block. we use a probabilistic method to elect stakers weighted by stake\n    // protocol works like this. select a staker pseudorandomly (not weighted by anything)\n    // (todo what if it is below min stake)\n    // that staker then tosses a biased coin. bias = hisStake/biggestStake. if its heads, he can propose block\n    // end of iteration. try next iteration\n    // note that only one staker or no stakers selected in each iteration.\n    // stakers elected in higher iterations can also propose hoping that\n    // stakers with lower iteration do not propose for some reason\n    function propose (uint256 epoch,\n                    uint256[] memory medians,\n                    uint256[] memory jobIds,\n                    uint256 iteration,\n                    uint256 biggestStakerId) public checkEpoch(epoch) checkState(Constants.propose()) {\n        uint256 proposerId = stakeManager.getStakerId(msg.sender);\n        // SimpleToken sch = SimpleToken(schAddress);\n        require(isElectedProposer(iteration, biggestStakerId, proposerId), \"not elected\");\n        require(stakeManager.getStaker(proposerId).stake >= Constants.minStake(), \"stake below minimum stake\");\n\n        // check if someone already proposed\n        // if (blocks[epoch].proposerId != 0) {\n        //     if (blocks[epoch].proposerId == proposerId) {\n        //         revert(\"Already Proposed\");\n        //     }\n        //     // if (stakers[biggestStakerId].stake == blocks[epoch].biggestStake &&\n        //     //     proposedBlocks[epoch].length >= Constants.maxAltBlocks()) {\n        //     //\n        //     //     require(proposedBlocks[epoch][4].iteration > iteration,\n        //     //             \"iteration not smaller than last elected staker\");\n        //     // } else\n        //     if (stakers[biggestStakerId].stake < blocks[epoch].biggestStake) {\n        //         revert(\"biggest stakers stake not bigger than as proposed by existing elected staker \");\n        //     }\n        // }\n        // blocks[epoch]\n        uint256 pushAt = _insertAppropriately(epoch, Structs.Block(proposerId,\n                                        medians,\n                                        jobIds,\n                                        iteration,\n                                        stakeManager.getStaker(biggestStakerId).stake,\n                                        true));\n        emit DebugUint256(pushAt);\n        // mint and give block reward\n        // if (Constants.blockReward() > 0) {\n        //     stakers[proposerId].stake = stakers[proposerId].stake.add(Constants.blockReward());\n        //     totalStake = totalStake.add(Constants.blockReward());\n        //     require(sch.mint(address(this), Constants.blockReward()));\n        // }\n        emit Proposed(epoch, proposerId, medians, jobIds, iteration, biggestStakerId);\n    }\n\n    //anyone can give sorted votes in batches in dispute state\n    function giveSorted (uint256 epoch, uint256 assetId, uint256[] memory sorted) public\n    checkEpoch(epoch) checkState(Constants.dispute()) {\n        uint256 medianWeight = voteManager.getTotalStakeRevealed(epoch, assetId).div(2);\n        //accWeight = accumulatedWeight\n        uint256 accWeight = disputes[epoch][msg.sender].accWeight;\n        uint256 lastVisited = disputes[epoch][msg.sender].lastVisited;\n        if (disputes[epoch][msg.sender].accWeight == 0) {\n            disputes[epoch][msg.sender].assetId = assetId;\n        } else {\n            require(disputes[epoch][msg.sender].assetId == assetId, \"AssetId not matching\");\n        }\n        for (uint256 i = 0; i < sorted.length; i++) {\n            require(sorted[i] > lastVisited, \"sorted[i] is not greater than lastVisited\");\n            lastVisited = sorted[i];\n            accWeight = accWeight.add(voteManager.getVoteWeight(epoch, assetId, sorted[i]));\n            //set  median, if conditions meet\n            if (disputes[epoch][msg.sender].median == 0 && accWeight > medianWeight) {\n                disputes[epoch][msg.sender].median = sorted[i];\n            }\n            //TODO verify how much gas required for below operations and update this value\n            if (gasleft() < 10000) break;\n        }\n        disputes[epoch][msg.sender].lastVisited = lastVisited;\n        disputes[epoch][msg.sender].accWeight = accWeight;\n    }\n\n    // //todo test\n    // //if any mistake made during giveSorted, resetDispute and start again\n    function resetDispute (uint256 epoch) public checkEpoch(epoch) checkState(Constants.dispute()) {\n        disputes[epoch][msg.sender] = Structs.Dispute(0, 0, 0, 0);\n    }\n\n    function finalizeDispute (uint256 epoch, uint256 blockId)\n    public checkEpoch(epoch) checkState(Constants.dispute()) {\n        uint256 assetId = disputes[epoch][msg.sender].assetId;\n        require(disputes[epoch][msg.sender].accWeight == voteManager.getTotalStakeRevealed(epoch, assetId),\n        \"Total stake revealed doesnt match\");\n        uint256 median = disputes[epoch][msg.sender].median;\n        uint256 proposerId = proposedBlocks[epoch][blockId].proposerId;\n        //\n        require(median > 0);\n        if (proposedBlocks[epoch][blockId].medians[assetId] != median) {\n            proposedBlocks[epoch][blockId].valid = false;\n            stakeManager.slash(proposerId, msg.sender);\n        } else {\n            revert(\"Proposed Alternate block is identical to proposed block\");\n        }\n    }\n\n    function isElectedProposer(uint256 iteration, uint256 biggestStakerId, uint256 stakerId) public view returns(bool) {\n       // rand = 0 -> totalStake-1\n       //add +1 since prng returns 0 to max-1 and staker start from 1\n        if ((Random.prng(10, stakeManager.getNumStakers(), keccak256(abi.encode(iteration))).add(1))\n        != stakerId) {return(false);}\n        bytes32 randHash = Random.prngHash(10, keccak256(abi.encode(stakerId, iteration)));\n        uint256 rand = uint256(randHash).mod(2**32);\n        uint256 biggestStake = stakeManager.getStaker(biggestStakerId).stake;\n        if (rand.mul(biggestStake) > stakeManager.getStaker(stakerId).stake.mul(2**32)) return(false);\n        return(true);\n    }\n\n    event BlockConfirmed(uint256 epoch,\n                    uint256 stakerId,\n                    uint256[] medians,\n                    uint256[] jobIds);\n\n    function confirmBlock() public onlyWriter {\n        uint256 epoch = stateManager.getEpoch();\n        if (blocks[epoch - 1].proposerId == 0 && proposedBlocks[epoch - 1].length > 0) {\n            for (uint8 i=0; i < proposedBlocks[epoch - 1].length; i++) {\n                if (proposedBlocks[epoch - 1][i].valid) {\n                    blocks[epoch - 1] = proposedBlocks[epoch - 1][i];\n                    uint256 proposerId = proposedBlocks[epoch - 1][i].proposerId;\n                    emit BlockConfirmed(epoch-1, proposerId, proposedBlocks[epoch - 1][i].medians,\n                    proposedBlocks[epoch - 1][i].jobIds);\n                    for (uint8 j = 0; j < proposedBlocks[epoch - 1][i].jobIds.length; j++) {\n                        jobManager.fulfillJob(proposedBlocks[epoch - 1][i].jobIds[j]);\n                    }\n                    stakeManager.giveBlockReward(proposerId);\n                    return;\n                }\n            }\n        }\n    }\n\n    function _insertAppropriately(uint256 epoch, Structs.Block memory _block) internal returns(uint256) {\n       // uint256 iteration = _block.iteration;\n        if (proposedBlocks[epoch].length == 0) {\n            proposedBlocks[epoch].push(_block);\n            return(0);\n        }\n       // Structs.Block[] memory temp = proposedBlocks[epoch];\n       // delete (proposedBlocks[epoch]);\n       // bool pushed = false;\n       // bool empty = true;\n        uint256 pushAt = proposedBlocks[epoch].length;\n        for (uint256 i = 0; i < proposedBlocks[epoch].length; i++) {\n            if (proposedBlocks[epoch][i].biggestStake < _block.biggestStake) {\n                pushAt = i;\n                break;\n            }\n            if (proposedBlocks[epoch][i].iteration > _block.iteration) {\n                pushAt = i;\n                break;\n            }\n        }\n\n        proposedBlocks[epoch].push(_block);\n        for (uint256 j = proposedBlocks[epoch].length - 1; j > (pushAt); j--) {\n            proposedBlocks[epoch][j] = proposedBlocks[epoch][j - 1];\n        }\n        // if (pushAt < proposedBlocks[epoch].length) {\n\n        proposedBlocks[epoch][pushAt] = _block;\n        // }\n        // if (pushed == false && temp.length < Constants.maxAltBlocks()) {\n        //     proposedBlocks[epoch].push(_block);\n        // }\n        if (proposedBlocks[epoch].length > Constants.maxAltBlocks()) {\n            delete (proposedBlocks[epoch][proposedBlocks[epoch].length - 1]);\n        }\n        return(pushAt);\n    }\n\n\n}\n",
  "sourcePath": "/Users/hrishi/contracts/contracts/Schelling4/BlockManager.sol",
  "compiler": {
    "name": "solc",
    "version": "0.5.10+commit.5a6ea5b1.Emscripten.clang"
  },
  "schemaVersion": "3.0.11",
  "updatedAt": "2019-09-11T17:38:26.332Z",
  "devdoc": {
    "methods": {}
  },
  "userdoc": {
    "methods": {}
  }
}