{
  "contractName": "BlockStorage",
  "abi": [
    {
      "constant": true,
      "inputs": [
        {
          "name": "",
          "type": "uint256"
        },
        {
          "name": "",
          "type": "address"
        }
      ],
      "name": "disputes",
      "outputs": [
        {
          "name": "accWeight",
          "type": "uint256"
        },
        {
          "name": "median",
          "type": "uint256"
        },
        {
          "name": "lastVisited",
          "type": "uint256"
        },
        {
          "name": "assetId",
          "type": "uint256"
        }
      ],
      "payable": false,
      "stateMutability": "view",
      "type": "function"
    },
    {
      "constant": true,
      "inputs": [
        {
          "name": "",
          "type": "uint256"
        },
        {
          "name": "",
          "type": "uint256"
        }
      ],
      "name": "proposedBlocks",
      "outputs": [
        {
          "name": "proposerId",
          "type": "uint256"
        },
        {
          "name": "iteration",
          "type": "uint256"
        },
        {
          "name": "biggestStake",
          "type": "uint256"
        },
        {
          "name": "valid",
          "type": "bool"
        }
      ],
      "payable": false,
      "stateMutability": "view",
      "type": "function"
    },
    {
      "constant": true,
      "inputs": [
        {
          "name": "",
          "type": "uint256"
        }
      ],
      "name": "blocks",
      "outputs": [
        {
          "name": "proposerId",
          "type": "uint256"
        },
        {
          "name": "iteration",
          "type": "uint256"
        },
        {
          "name": "biggestStake",
          "type": "uint256"
        },
        {
          "name": "valid",
          "type": "bool"
        }
      ],
      "payable": false,
      "stateMutability": "view",
      "type": "function"
    }
  ],
  "bytecode": "0x608060405234801561001057600080fd5b506103dc806100206000396000f3fe608060405234801561001057600080fd5b50600436106100415760003560e01c8063828496d61461004657806392b4841114610079578063f25b3f99146100ac575b600080fd5b610060600480360361005b9190810190610203565b6100df565b60405161007094939291906102de565b60405180910390f35b610093600480360361008e919081019061023f565b61011c565b6040516100a39493929190610299565b60405180910390f35b6100c660048036036100c191908101906101da565b610173565b6040516100d69493929190610299565b60405180910390f35b6000602052816000526040600020602052806000526040600020600091509150508060000154908060010154908060020154908060030154905084565b6001602052816000526040600020818154811061013557fe5b9060005260206000209060060201600091509150508060000154908060030154908060040154908060050160009054906101000a900460ff16905084565b60026020528060005260406000206000915090508060000154908060030154908060040154908060050160009054906101000a900460ff16905084565b6000813590506101bf8161036b565b92915050565b6000813590506101d481610382565b92915050565b6000602082840312156101ec57600080fd5b60006101fa848285016101c5565b91505092915050565b6000806040838503121561021657600080fd5b6000610224858286016101c5565b9250506020610235858286016101b0565b9150509250929050565b6000806040838503121561025257600080fd5b6000610260858286016101c5565b9250506020610271858286016101c5565b9150509250929050565b61028481610335565b82525050565b61029381610361565b82525050565b60006080820190506102ae600083018761028a565b6102bb602083018661028a565b6102c8604083018561028a565b6102d5606083018461027b565b95945050505050565b60006080820190506102f3600083018761028a565b610300602083018661028a565b61030d604083018561028a565b61031a606083018461028a565b95945050505050565b600061032e82610341565b9050919050565b60008115159050919050565b600073ffffffffffffffffffffffffffffffffffffffff82169050919050565b6000819050919050565b61037481610323565b811461037f57600080fd5b50565b61038b81610361565b811461039657600080fd5b5056fea365627a7a723058203f83e6f30d11a8d422bd96c4d7b2b411abb4e5603926412abcda55166981c3126c6578706572696d656e74616cf564736f6c634300050a0040",
  "source": "pragma solidity 0.5.10;\npragma experimental ABIEncoderV2;\n\nimport \"../lib/Structs.sol\";\n\n\ncontract BlockStorage {\n    //epoch->address->dispute->assetid\n    mapping (uint256 => mapping (address => Structs.Dispute)) public disputes;\n    //epoch -> numProposedBlocks\n    // mapping (uint256 => uint256) public numProposedBlocks;\n    //epoch -> proposalNumber -> block\n    mapping (uint256 => Structs.Block[]) public proposedBlocks;\n    mapping (uint256 => Structs.Block) public blocks;\n\n    // function getBlock(uint256 epoch) public view returns(Structs.Block memory _block) {\n    //     return(blocks[epoch]);\n    // }\n}\n",
  "sourcePath": "/Users/hrishi/contracts/contracts/Schelling4/BlockStorage.sol",
  "compiler": {
    "name": "solc",
    "version": "0.5.10+commit.5a6ea5b1.Emscripten.clang"
  },
  "schemaVersion": "3.0.11",
  "updatedAt": "2019-09-16T14:53:33.754Z",
  "devdoc": {
    "methods": {}
  },
  "userdoc": {
    "methods": {}
  }
}