{
  "contractName": "BlockManager",
  "abi": [
    {
      "constant": true,
      "inputs": [
        {
          "name": "account",
          "type": "address"
        }
      ],
      "name": "isWriter",
      "outputs": [
        {
          "name": "",
          "type": "bool"
        }
      ],
      "payable": false,
      "stateMutability": "view",
      "type": "function"
    },
    {
      "constant": true,
      "inputs": [],
      "name": "stateManager",
      "outputs": [
        {
          "name": "",
          "type": "address"
        }
      ],
      "payable": false,
      "stateMutability": "view",
      "type": "function"
    },
    {
      "constant": true,
      "inputs": [],
      "name": "jobManager",
      "outputs": [
        {
          "name": "",
          "type": "address"
        }
      ],
      "payable": false,
      "stateMutability": "view",
      "type": "function"
    },
    {
      "constant": true,
      "inputs": [],
      "name": "voteManager",
      "outputs": [
        {
          "name": "",
          "type": "address"
        }
      ],
      "payable": false,
      "stateMutability": "view",
      "type": "function"
    },
    {
      "constant": true,
      "inputs": [],
      "name": "stakeManager",
      "outputs": [
        {
          "name": "",
          "type": "address"
        }
      ],
      "payable": false,
      "stateMutability": "view",
      "type": "function"
    },
    {
      "constant": true,
      "inputs": [
        {
          "name": "",
          "type": "uint256"
        },
        {
          "name": "",
          "type": "address"
        }
      ],
      "name": "disputes",
      "outputs": [
        {
          "name": "accWeight",
          "type": "uint256"
        },
        {
          "name": "median",
          "type": "uint256"
        },
        {
          "name": "lowerCutoff",
          "type": "uint256"
        },
        {
          "name": "higherCutoff",
          "type": "uint256"
        },
        {
          "name": "lastVisited",
          "type": "uint256"
        },
        {
          "name": "assetId",
          "type": "uint256"
        }
      ],
      "payable": false,
      "stateMutability": "view",
      "type": "function"
    },
    {
      "constant": true,
      "inputs": [
        {
          "name": "",
          "type": "uint256"
        },
        {
          "name": "",
          "type": "uint256"
        }
      ],
      "name": "proposedBlocks",
      "outputs": [
        {
          "name": "proposerId",
          "type": "uint256"
        },
        {
          "name": "iteration",
          "type": "uint256"
        },
        {
          "name": "biggestStake",
          "type": "uint256"
        },
        {
          "name": "valid",
          "type": "bool"
        }
      ],
      "payable": false,
      "stateMutability": "view",
      "type": "function"
    },
    {
      "constant": false,
      "inputs": [
        {
          "name": "account",
          "type": "address"
        }
      ],
      "name": "addWriter",
      "outputs": [],
      "payable": false,
      "stateMutability": "nonpayable",
      "type": "function"
    },
    {
      "constant": false,
      "inputs": [],
      "name": "renounceWriter",
      "outputs": [],
      "payable": false,
      "stateMutability": "nonpayable",
      "type": "function"
    },
    {
      "constant": true,
      "inputs": [
        {
          "name": "",
          "type": "uint256"
        }
      ],
      "name": "blocks",
      "outputs": [
        {
          "name": "proposerId",
          "type": "uint256"
        },
        {
          "name": "iteration",
          "type": "uint256"
        },
        {
          "name": "biggestStake",
          "type": "uint256"
        },
        {
          "name": "valid",
          "type": "bool"
        }
      ],
      "payable": false,
      "stateMutability": "view",
      "type": "function"
    },
    {
      "anonymous": false,
      "inputs": [
        {
          "indexed": false,
          "name": "epoch",
          "type": "uint256"
        },
        {
          "indexed": false,
          "name": "stakerId",
          "type": "uint256"
        },
        {
          "indexed": false,
          "name": "jobIds",
          "type": "uint256[]"
        },
        {
          "indexed": false,
          "name": "medians",
          "type": "uint256[]"
        },
        {
          "indexed": false,
          "name": "lowerCutoffs",
          "type": "uint256[]"
        },
        {
          "indexed": false,
          "name": "higherCutoffs",
          "type": "uint256[]"
        },
        {
          "indexed": false,
          "name": "iteration",
          "type": "uint256"
        },
        {
          "indexed": false,
          "name": "biggestStakerId",
          "type": "uint256"
        },
        {
          "indexed": false,
          "name": "timestamp",
          "type": "uint256"
        }
      ],
      "name": "Proposed",
      "type": "event"
    },
    {
      "anonymous": false,
      "inputs": [
        {
          "indexed": false,
          "name": "epoch",
          "type": "uint256"
        },
        {
          "indexed": false,
          "name": "stakerId",
          "type": "uint256"
        },
        {
          "indexed": false,
          "name": "medians",
          "type": "uint256[]"
        },
        {
          "indexed": false,
          "name": "lowerCutoffs",
          "type": "uint256[]"
        },
        {
          "indexed": false,
          "name": "higherCutoffs",
          "type": "uint256[]"
        },
        {
          "indexed": false,
          "name": "jobIds",
          "type": "uint256[]"
        },
        {
          "indexed": false,
          "name": "timestamp",
          "type": "uint256"
        }
      ],
      "name": "BlockConfirmed",
      "type": "event"
    },
    {
      "anonymous": false,
      "inputs": [
        {
          "indexed": true,
          "name": "account",
          "type": "address"
        }
      ],
      "name": "WriterAdded",
      "type": "event"
    },
    {
      "anonymous": false,
      "inputs": [
        {
          "indexed": true,
          "name": "account",
          "type": "address"
        }
      ],
      "name": "WriterRemoved",
      "type": "event"
    },
    {
      "anonymous": false,
      "inputs": [
        {
          "indexed": false,
          "name": "a",
          "type": "uint256"
        }
      ],
      "name": "DebugUint256",
      "type": "event"
    },
    {
      "constant": true,
      "inputs": [
        {
          "name": "epoch",
          "type": "uint256"
        }
      ],
      "name": "getBlock",
      "outputs": [
        {
          "components": [
            {
              "name": "proposerId",
              "type": "uint256"
            },
            {
              "name": "jobIds",
              "type": "uint256[]"
            },
            {
              "name": "medians",
              "type": "uint256[]"
            },
            {
              "name": "lowerCutoffs",
              "type": "uint256[]"
            },
            {
              "name": "higherCutoffs",
              "type": "uint256[]"
            },
            {
              "name": "iteration",
              "type": "uint256"
            },
            {
              "name": "biggestStake",
              "type": "uint256"
            },
            {
              "name": "valid",
              "type": "bool"
            }
          ],
          "name": "_block",
          "type": "tuple"
        }
      ],
      "payable": false,
      "stateMutability": "view",
      "type": "function"
    },
    {
      "constant": true,
      "inputs": [
        {
          "name": "epoch",
          "type": "uint256"
        }
      ],
      "name": "getBlockMedians",
      "outputs": [
        {
          "name": "_blockMedians",
          "type": "uint256[]"
        }
      ],
      "payable": false,
      "stateMutability": "view",
      "type": "function"
    },
    {
      "constant": true,
      "inputs": [
        {
          "name": "epoch",
          "type": "uint256"
        }
      ],
      "name": "getLowerCutoffs",
      "outputs": [
        {
          "name": "_lowerCutoffs",
          "type": "uint256[]"
        }
      ],
      "payable": false,
      "stateMutability": "view",
      "type": "function"
    },
    {
      "constant": true,
      "inputs": [
        {
          "name": "epoch",
          "type": "uint256"
        }
      ],
      "name": "getHigherCutoffs",
      "outputs": [
        {
          "name": "_higherCutoffs",
          "type": "uint256[]"
        }
      ],
      "payable": false,
      "stateMutability": "view",
      "type": "function"
    },
    {
      "constant": true,
      "inputs": [
        {
          "name": "epoch",
          "type": "uint256"
        },
        {
          "name": "proposedBlock",
          "type": "uint256"
        }
      ],
      "name": "getProposedBlock",
      "outputs": [
        {
          "components": [
            {
              "name": "proposerId",
              "type": "uint256"
            },
            {
              "name": "jobIds",
              "type": "uint256[]"
            },
            {
              "name": "medians",
              "type": "uint256[]"
            },
            {
              "name": "lowerCutoffs",
              "type": "uint256[]"
            },
            {
              "name": "higherCutoffs",
              "type": "uint256[]"
            },
            {
              "name": "iteration",
              "type": "uint256"
            },
            {
              "name": "biggestStake",
              "type": "uint256"
            },
            {
              "name": "valid",
              "type": "bool"
            }
          ],
          "name": "_block",
          "type": "tuple"
        },
        {
          "name": "_blockMedians",
          "type": "uint256[]"
        },
        {
          "name": "_lowerCutoffs",
          "type": "uint256[]"
        },
        {
          "name": "_higherCutoffs",
          "type": "uint256[]"
        }
      ],
      "payable": false,
      "stateMutability": "view",
      "type": "function"
    },
    {
      "constant": true,
      "inputs": [
        {
          "name": "epoch",
          "type": "uint256"
        },
        {
          "name": "proposedBlock",
          "type": "uint256"
        }
      ],
      "name": "getProposedBlockMedians",
      "outputs": [
        {
          "name": "_blockMedians",
          "type": "uint256[]"
        }
      ],
      "payable": false,
      "stateMutability": "view",
      "type": "function"
    },
    {
      "constant": true,
      "inputs": [
        {
          "name": "epoch",
          "type": "uint256"
        }
      ],
      "name": "getNumProposedBlocks",
      "outputs": [
        {
          "name": "",
          "type": "uint256"
        }
      ],
      "payable": false,
      "stateMutability": "view",
      "type": "function"
    },
    {
      "constant": false,
      "inputs": [
        {
          "name": "_stakeManagerAddress",
          "type": "address"
        },
        {
          "name": "_stateManagerAddress",
          "type": "address"
        },
        {
          "name": "_voteManagerAddress",
          "type": "address"
        },
        {
          "name": "_jobManagerAddress",
          "type": "address"
        }
      ],
      "name": "init",
      "outputs": [],
      "payable": false,
      "stateMutability": "nonpayable",
      "type": "function"
    },
    {
      "constant": false,
      "inputs": [
        {
          "name": "epoch",
          "type": "uint256"
        },
        {
          "name": "jobIds",
          "type": "uint256[]"
        },
        {
          "name": "medians",
          "type": "uint256[]"
        },
        {
          "name": "lowerCutoffs",
          "type": "uint256[]"
        },
        {
          "name": "higherCutoffs",
          "type": "uint256[]"
        },
        {
          "name": "iteration",
          "type": "uint256"
        },
        {
          "name": "biggestStakerId",
          "type": "uint256"
        }
      ],
      "name": "propose",
      "outputs": [],
      "payable": false,
      "stateMutability": "nonpayable",
      "type": "function"
    },
    {
      "constant": false,
      "inputs": [
        {
          "name": "epoch",
          "type": "uint256"
        },
        {
          "name": "assetId",
          "type": "uint256"
        },
        {
          "name": "sorted",
          "type": "uint256[]"
        }
      ],
      "name": "giveSorted",
      "outputs": [],
      "payable": false,
      "stateMutability": "nonpayable",
      "type": "function"
    },
    {
      "constant": false,
      "inputs": [
        {
          "name": "epoch",
          "type": "uint256"
        }
      ],
      "name": "resetDispute",
      "outputs": [],
      "payable": false,
      "stateMutability": "nonpayable",
      "type": "function"
    },
    {
      "constant": false,
      "inputs": [
        {
          "name": "epoch",
          "type": "uint256"
        },
        {
          "name": "blockId",
          "type": "uint256"
        }
      ],
      "name": "finalizeDispute",
      "outputs": [],
      "payable": false,
      "stateMutability": "nonpayable",
      "type": "function"
    },
    {
      "constant": true,
      "inputs": [
        {
          "name": "iteration",
          "type": "uint256"
        },
        {
          "name": "biggestStakerId",
          "type": "uint256"
        },
        {
          "name": "stakerId",
          "type": "uint256"
        }
      ],
      "name": "isElectedProposer",
      "outputs": [
        {
          "name": "",
          "type": "bool"
        }
      ],
      "payable": false,
      "stateMutability": "view",
      "type": "function"
    },
    {
      "constant": false,
      "inputs": [],
      "name": "confirmBlock",
      "outputs": [],
      "payable": false,
      "stateMutability": "nonpayable",
      "type": "function"
    }
  ],
  "bytecode": "0x608060405262000015336200001b60201b60201c565b620002f9565b620000368160006200007c60201b62003c611790919060201c565b8073ffffffffffffffffffffffffffffffffffffffff167f6ff3aa2ea7b53070f6d9d07a445d338d89e8edef44250ffa8be19f53910d4a2e60405160405180910390a250565b6200008e82826200012f60201b60201c565b15620000d1576040517f08c379a0000000000000000000000000000000000000000000000000000000008152600401620000c890620002a4565b60405180910390fd5b60018260000160008373ffffffffffffffffffffffffffffffffffffffff1673ffffffffffffffffffffffffffffffffffffffff16815260200190815260200160002060006101000a81548160ff0219169083151502179055505050565b60008073ffffffffffffffffffffffffffffffffffffffff168273ffffffffffffffffffffffffffffffffffffffff161415620001a3576040517f08c379a00000000000000000000000000000000000000000000000000000000081526004016200019a90620002c6565b60405180910390fd5b8260000160008373ffffffffffffffffffffffffffffffffffffffff1673ffffffffffffffffffffffffffffffffffffffff16815260200190815260200160002060009054906101000a900460ff16905092915050565b600062000209601f83620002e8565b91507f526f6c65733a206163636f756e7420616c72656164792068617320726f6c65006000830152602082019050919050565b60006200024b602283620002e8565b91507f526f6c65733a206163636f756e7420697320746865207a65726f20616464726560008301527f73730000000000000000000000000000000000000000000000000000000000006020830152604082019050919050565b60006020820190508181036000830152620002bf81620001fa565b9050919050565b60006020820190508181036000830152620002e1816200023c565b9050919050565b600082825260208201905092915050565b61553780620003096000396000f3fe608060405234801561001057600080fd5b50600436106101585760003560e01c80637542ff95116100c3578063d2a4669a1161007c578063d2a4669a146103f6578063da2824a814610426578063df4eb59c14610442578063e38c7c421461044c578063f25b3f991461047c578063fae4425d146104af57610158565b80637542ff9514610303578063828496d61461032157806392b48411146103565780639b87f64414610389578063a27ce1ef14610393578063d1a4a43d146103c657610158565b8063378ab9a911610115578063378ab9a9146102435780633cd32fd4146102735780633df395a31461028f57806342c1e587146102ad5780634e6753b7146102cb5780635ce8772f146102e757610158565b806304c075691461015d57806306552ff31461018d57806317d99c04146101a95780631d69ff9b146101c55780632b29ba23146101f55780632e716fb114610225575b600080fd5b61017760048036036101729190810190614182565b6104df565b6040516101849190614f09565b60405180910390f35b6101a760048036036101a291908101906140cc565b6106a6565b005b6101c360048036036101be9190810190614210565b6107b0565b005b6101df60048036036101da91908101906143b1565b610da0565b6040516101ec9190614c22565b60405180910390f35b61020f600480360361020a91908101906140a3565b611199565b60405161021c9190614c22565b60405180910390f35b61022d6111b6565b60405161023a9190614c73565b60405180910390f35b61025d60048036036102589190810190614182565b6111dc565b60405161026a9190614c00565b60405180910390f35b61028d6004803603610288919081019061430e565b61124d565b005b610297611980565b6040516102a49190614c3d565b60405180910390f35b6102b56119a6565b6040516102c29190614c8e565b60405180910390f35b6102e560048036036102e0919081019061434a565b6119cc565b005b61030160048036036102fc9190810190614182565b61250f565b005b61030b612818565b6040516103189190614c58565b60405180910390f35b61033b600480360361033691908101906141d4565b61283e565b60405161034d969594939291906151b7565b60405180910390f35b610370600480360361036b919081019061430e565b612887565b6040516103809493929190615172565b60405180910390f35b6103916128de565b005b6103ad60048036036103a8919081019061430e565b612eef565b6040516103bd9493929190614f2b565b60405180910390f35b6103e060048036036103db919081019061430e565b6130f9565b6040516103ed9190614c00565b60405180910390f35b610410600480360361040b9190810190614182565b613184565b60405161041d9190614c00565b60405180910390f35b610440600480360361043b91908101906140a3565b6131f5565b005b61044a613249565b005b61046660048036036104619190810190614182565b613254565b6040516104739190614f8c565b60405180910390f35b61049660048036036104919190810190614182565b613274565b6040516104a69493929190615172565b60405180910390f35b6104c960048036036104c49190810190614182565b6132b1565b6040516104d69190614c00565b60405180910390f35b6104e7613db0565b6003600083815260200190815260200160002060405180610100016040529081600082015481526020016001820180548060200260200160405190810160405280929190818152602001828054801561055f57602002820191906000526020600020905b81548152602001906001019080831161054b575b50505050508152602001600282018054806020026020016040519081016040528092919081815260200182805480156105b757602002820191906000526020600020905b8154815260200190600101908083116105a3575b505050505081526020016003820180548060200260200160405190810160405280929190818152602001828054801561060f57602002820191906000526020600020905b8154815260200190600101908083116105fb575b505050505081526020016004820180548060200260200160405190810160405280929190818152602001828054801561066757602002820191906000526020600020905b815481526020019060010190808311610653575b5050505050815260200160058201548152602001600682015481526020016007820160009054906101000a900460ff1615151515815250509050919050565b83600460006101000a81548173ffffffffffffffffffffffffffffffffffffffff021916908373ffffffffffffffffffffffffffffffffffffffff16021790555082600560006101000a81548173ffffffffffffffffffffffffffffffffffffffff021916908373ffffffffffffffffffffffffffffffffffffffff16021790555081600660006101000a81548173ffffffffffffffffffffffffffffffffffffffff021916908373ffffffffffffffffffffffffffffffffffffffff16021790555080600760006101000a81548173ffffffffffffffffffffffffffffffffffffffff021916908373ffffffffffffffffffffffffffffffffffffffff16021790555050505050565b86600560009054906101000a900473ffffffffffffffffffffffffffffffffffffffff1673ffffffffffffffffffffffffffffffffffffffff1663757991a86040518163ffffffff1660e01b815260040160206040518083038186803b15801561081957600080fd5b505afa15801561082d573d6000803e3d6000fd5b505050506040513d601f19601f8201168201806040525061085191908101906141ab565b8114610892576040517f08c379a000000000000000000000000000000000000000000000000000000000815260040161088990614e09565b60405180910390fd5b73__Constants_____________________________63c198f8ba6040518163ffffffff1660e01b815260040160206040518083038186803b1580156108d657600080fd5b505af41580156108ea573d6000803e3d6000fd5b505050506040513d601f19601f8201168201806040525061090e9190810190614400565b60ff16600560009054906101000a900473ffffffffffffffffffffffffffffffffffffffff1673ffffffffffffffffffffffffffffffffffffffff16631865c57d6040518163ffffffff1660e01b815260040160206040518083038186803b15801561097957600080fd5b505afa15801561098d573d6000803e3d6000fd5b505050506040513d601f19601f820116820180604052506109b191908101906141ab565b81146109f2576040517f08c379a00000000000000000000000000000000000000000000000000000000081526004016109e990614ec9565b60405180910390fd5b6000600460009054906101000a900473ffffffffffffffffffffffffffffffffffffffff1673ffffffffffffffffffffffffffffffffffffffff16636022a485336040518263ffffffff1660e01b8152600401610a4f9190614be5565b60206040518083038186803b158015610a6757600080fd5b505afa158015610a7b573d6000803e3d6000fd5b505050506040513d601f19601f82011682018060405250610a9f91908101906141ab565b9050610aac858583610da0565b610aeb576040517f08c379a0000000000000000000000000000000000000000000000000000000008152600401610ae290614d69565b60405180910390fd5b73__Constants_____________________________63375b3c0a6040518163ffffffff1660e01b815260040160206040518083038186803b158015610b2f57600080fd5b505af4158015610b43573d6000803e3d6000fd5b505050506040513d601f19601f82011682018060405250610b6791908101906141ab565b600460009054906101000a900473ffffffffffffffffffffffffffffffffffffffff1673ffffffffffffffffffffffffffffffffffffffff1663e3c998fe836040518263ffffffff1660e01b8152600401610bc29190614f8c565b6101006040518083038186803b158015610bdb57600080fd5b505afa158015610bef573d6000803e3d6000fd5b505050506040513d601f19601f82011682018060405250610c139190810190614158565b604001511015610c58576040517f08c379a0000000000000000000000000000000000000000000000000000000008152600401610c4f90614e89565b60405180910390fd5b610d4d8a6040518061010001604052808481526020018c81526020018b81526020018a8152602001898152602001888152602001600460009054906101000a900473ffffffffffffffffffffffffffffffffffffffff1673ffffffffffffffffffffffffffffffffffffffff1663e3c998fe896040518263ffffffff1660e01b8152600401610ce79190614f8c565b6101006040518083038186803b158015610d0057600080fd5b505afa158015610d14573d6000803e3d6000fd5b505050506040513d601f19601f82011682018060405250610d389190810190614158565b60400151815260200160011515815250613322565b7fee036cc96c88163f353feaa4d497e88baaebeb631f40ad9b8a6d51bb6fad40768a828b8b8b8b8b8b42604051610d8c99989796959493929190615007565b60405180910390a150505050505050505050565b600081610f07600173__Random________________________________635075dbfb600a600460009054906101000a900473ffffffffffffffffffffffffffffffffffffffff1673ffffffffffffffffffffffffffffffffffffffff1663bc788d466040518163ffffffff1660e01b815260040160206040518083038186803b158015610e2c57600080fd5b505afa158015610e40573d6000803e3d6000fd5b505050506040513d601f19601f82011682018060405250610e6491908101906141ab565b8a604051602001610e759190614f8c565b604051602081830303815290604052805190602001206040518463ffffffff1660e01b8152600401610ea993929190614cd2565b60206040518083038186803b158015610ec157600080fd5b505af4158015610ed5573d6000803e3d6000fd5b505050506040513d601f19601f82011682018060405250610ef991908101906141ab565b61396d90919063ffffffff16565b14610f155760009050611192565b600073__Random________________________________63b07ceab8600a8588604051602001610f46929190614fde565b604051602081830303815290604052805190602001206040518363ffffffff1660e01b8152600401610f79929190614ca9565b60206040518083038186803b158015610f9157600080fd5b505af4158015610fa5573d6000803e3d6000fd5b505050506040513d601f19601f82011682018060405250610fc9919081019061412f565b90506000610fe86401000000008360001c6139c290919063ffffffff16565b90506000600460009054906101000a900473ffffffffffffffffffffffffffffffffffffffff1673ffffffffffffffffffffffffffffffffffffffff1663e3c998fe876040518263ffffffff1660e01b81526004016110479190614f8c565b6101006040518083038186803b15801561106057600080fd5b505afa158015611074573d6000803e3d6000fd5b505050506040513d601f19601f820116820180604052506110989190810190614158565b604001519050611165640100000000600460009054906101000a900473ffffffffffffffffffffffffffffffffffffffff1673ffffffffffffffffffffffffffffffffffffffff1663e3c998fe886040518263ffffffff1660e01b81526004016111029190614f8c565b6101006040518083038186803b15801561111b57600080fd5b505afa15801561112f573d6000803e3d6000fd5b505050506040513d601f19601f820116820180604052506111539190810190614158565b60400151613a1990919063ffffffff16565b6111788284613a1990919063ffffffff16565b111561118a5760009350505050611192565b600193505050505b9392505050565b60006111af826000613a8990919063ffffffff16565b9050919050565b600560009054906101000a900473ffffffffffffffffffffffffffffffffffffffff1681565b60606003600083815260200190815260200160002060020180548060200260200160405190810160405280929190818152602001828054801561123e57602002820191906000526020600020905b81548152602001906001019080831161122a575b50505050509050809050919050565b81600560009054906101000a900473ffffffffffffffffffffffffffffffffffffffff1673ffffffffffffffffffffffffffffffffffffffff1663757991a86040518163ffffffff1660e01b815260040160206040518083038186803b1580156112b657600080fd5b505afa1580156112ca573d6000803e3d6000fd5b505050506040513d601f19601f820116820180604052506112ee91908101906141ab565b811461132f576040517f08c379a000000000000000000000000000000000000000000000000000000000815260040161132690614e09565b60405180910390fd5b73__Constants_____________________________63f240f7c36040518163ffffffff1660e01b815260040160206040518083038186803b15801561137357600080fd5b505af4158015611387573d6000803e3d6000fd5b505050506040513d601f19601f820116820180604052506113ab9190810190614400565b60ff16600560009054906101000a900473ffffffffffffffffffffffffffffffffffffffff1673ffffffffffffffffffffffffffffffffffffffff16631865c57d6040518163ffffffff1660e01b815260040160206040518083038186803b15801561141657600080fd5b505afa15801561142a573d6000803e3d6000fd5b505050506040513d601f19601f8201168201806040525061144e91908101906141ab565b811461148f576040517f08c379a000000000000000000000000000000000000000000000000000000000815260040161148690614ec9565b60405180910390fd5b60006001600086815260200190815260200160002060003373ffffffffffffffffffffffffffffffffffffffff1673ffffffffffffffffffffffffffffffffffffffff168152602001908152602001600020600501549050600660009054906101000a900473ffffffffffffffffffffffffffffffffffffffff1673ffffffffffffffffffffffffffffffffffffffff1663a6a145d986836040518363ffffffff1660e01b8152600401611544929190614fde565b60206040518083038186803b15801561155c57600080fd5b505afa158015611570573d6000803e3d6000fd5b505050506040513d601f19601f8201168201806040525061159491908101906141ab565b6001600087815260200190815260200160002060003373ffffffffffffffffffffffffffffffffffffffff1673ffffffffffffffffffffffffffffffffffffffff1681526020019081526020016000206000015414611628576040517f08c379a000000000000000000000000000000000000000000000000000000000815260040161161f90614ea9565b60405180910390fd5b60006001600087815260200190815260200160002060003373ffffffffffffffffffffffffffffffffffffffff1673ffffffffffffffffffffffffffffffffffffffff16815260200190815260200160002060010154905060006001600088815260200190815260200160002060003373ffffffffffffffffffffffffffffffffffffffff1673ffffffffffffffffffffffffffffffffffffffff16815260200190815260200160002060020154905060006001600089815260200190815260200160002060003373ffffffffffffffffffffffffffffffffffffffff1673ffffffffffffffffffffffffffffffffffffffff1681526020019081526020016000206003015490506000600260008a8152602001908152602001600020888154811061175057fe5b90600052602060002090600802016000015490506000841161177157600080fd5b83600260008b8152602001908152602001600020898154811061179057fe5b906000526020600020906008020160020186815481106117ac57fe5b9060005260206000200154141580611808575082600260008b815260200190815260200160002089815481106117de57fe5b906000526020600020906008020160030186815481106117fa57fe5b906000526020600020015414155b80611857575081600260008b8152602001908152602001600020898154811061182d57fe5b9060005260206000209060080201600401868154811061184957fe5b906000526020600020015414155b1561193a576000600260008b8152602001908152602001600020898154811061187c57fe5b906000526020600020906008020160070160006101000a81548160ff021916908315150217905550600460009054906101000a900473ffffffffffffffffffffffffffffffffffffffff1673ffffffffffffffffffffffffffffffffffffffff16630f91ce1982338c6040518463ffffffff1660e01b815260040161190393929190614fa7565b600060405180830381600087803b15801561191d57600080fd5b505af1158015611931573d6000803e3d6000fd5b50505050611975565b6040517f08c379a000000000000000000000000000000000000000000000000000000000815260040161196c90614e69565b60405180910390fd5b505050505050505050565b600760009054906101000a900473ffffffffffffffffffffffffffffffffffffffff1681565b600660009054906101000a900473ffffffffffffffffffffffffffffffffffffffff1681565b82600560009054906101000a900473ffffffffffffffffffffffffffffffffffffffff1673ffffffffffffffffffffffffffffffffffffffff1663757991a86040518163ffffffff1660e01b815260040160206040518083038186803b158015611a3557600080fd5b505afa158015611a49573d6000803e3d6000fd5b505050506040513d601f19601f82011682018060405250611a6d91908101906141ab565b8114611aae576040517f08c379a0000000000000000000000000000000000000000000000000000000008152600401611aa590614e09565b60405180910390fd5b73__Constants_____________________________63f240f7c36040518163ffffffff1660e01b815260040160206040518083038186803b158015611af257600080fd5b505af4158015611b06573d6000803e3d6000fd5b505050506040513d601f19601f82011682018060405250611b2a9190810190614400565b60ff16600560009054906101000a900473ffffffffffffffffffffffffffffffffffffffff1673ffffffffffffffffffffffffffffffffffffffff16631865c57d6040518163ffffffff1660e01b815260040160206040518083038186803b158015611b9557600080fd5b505afa158015611ba9573d6000803e3d6000fd5b505050506040513d601f19601f82011682018060405250611bcd91908101906141ab565b8114611c0e576040517f08c379a0000000000000000000000000000000000000000000000000000000008152600401611c0590614ec9565b60405180910390fd5b6000611cd06002600660009054906101000a900473ffffffffffffffffffffffffffffffffffffffff1673ffffffffffffffffffffffffffffffffffffffff1663a6a145d989896040518363ffffffff1660e01b8152600401611c72929190614fde565b60206040518083038186803b158015611c8a57600080fd5b505afa158015611c9e573d6000803e3d6000fd5b505050506040513d601f19601f82011682018060405250611cc291908101906141ab565b613b5190919063ffffffff16565b90506000611d946004600660009054906101000a900473ffffffffffffffffffffffffffffffffffffffff1673ffffffffffffffffffffffffffffffffffffffff1663a6a145d98a8a6040518363ffffffff1660e01b8152600401611d36929190614fde565b60206040518083038186803b158015611d4e57600080fd5b505afa158015611d62573d6000803e3d6000fd5b505050506040513d601f19601f82011682018060405250611d8691908101906141ab565b613b5190919063ffffffff16565b90506000611e6b6004611e5d6003600660009054906101000a900473ffffffffffffffffffffffffffffffffffffffff1673ffffffffffffffffffffffffffffffffffffffff1663a6a145d98d8d6040518363ffffffff1660e01b8152600401611dff929190614fde565b60206040518083038186803b158015611e1757600080fd5b505afa158015611e2b573d6000803e3d6000fd5b505050506040513d601f19601f82011682018060405250611e4f91908101906141ab565b613a1990919063ffffffff16565b613b5190919063ffffffff16565b90506000600160008a815260200190815260200160002060003373ffffffffffffffffffffffffffffffffffffffff1673ffffffffffffffffffffffffffffffffffffffff1681526020019081526020016000206000015490506000600160008b815260200190815260200160002060003373ffffffffffffffffffffffffffffffffffffffff1673ffffffffffffffffffffffffffffffffffffffff1681526020019081526020016000206004015490506000600160008c815260200190815260200160002060003373ffffffffffffffffffffffffffffffffffffffff1673ffffffffffffffffffffffffffffffffffffffff168152602001908152602001600020600001541415611fd65788600160008c815260200190815260200160002060003373ffffffffffffffffffffffffffffffffffffffff1673ffffffffffffffffffffffffffffffffffffffff1681526020019081526020016000206005018190555061206c565b88600160008c815260200190815260200160002060003373ffffffffffffffffffffffffffffffffffffffff1673ffffffffffffffffffffffffffffffffffffffff168152602001908152602001600020600501541461206b576040517f08c379a000000000000000000000000000000000000000000000000000000000815260040161206290614e49565b60405180910390fd5b5b60008090505b8851811015612452578189828151811061208857fe5b6020026020010151116120d0576040517f08c379a00000000000000000000000000000000000000000000000000000000081526004016120c790614d29565b60405180910390fd5b8881815181106120dc57fe5b602002602001015191506121ba600660009054906101000a900473ffffffffffffffffffffffffffffffffffffffff1673ffffffffffffffffffffffffffffffffffffffff16639c66556f8d8d8d868151811061213557fe5b60200260200101516040518463ffffffff1660e01b815260040161215b9392919061513b565b60206040518083038186803b15801561217357600080fd5b505afa158015612187573d6000803e3d6000fd5b505050506040513d601f19601f820116820180604052506121ab91908101906141ab565b8461396d90919063ffffffff16565b92506000600160008d815260200190815260200160002060003373ffffffffffffffffffffffffffffffffffffffff1673ffffffffffffffffffffffffffffffffffffffff1681526020019081526020016000206002015414801561221f5750848310155b156122905788818151811061223057fe5b6020026020010151600160008d815260200190815260200160002060003373ffffffffffffffffffffffffffffffffffffffff1673ffffffffffffffffffffffffffffffffffffffff168152602001908152602001600020600201819055505b6000600160008d815260200190815260200160002060003373ffffffffffffffffffffffffffffffffffffffff1673ffffffffffffffffffffffffffffffffffffffff168152602001908152602001600020600101541480156122f257508583115b156123635788818151811061230357fe5b6020026020010151600160008d815260200190815260200160002060003373ffffffffffffffffffffffffffffffffffffffff1673ffffffffffffffffffffffffffffffffffffffff168152602001908152602001600020600101819055505b6000600160008d815260200190815260200160002060003373ffffffffffffffffffffffffffffffffffffffff1673ffffffffffffffffffffffffffffffffffffffff168152602001908152602001600020600301541480156123c557508383115b15612436578881815181106123d657fe5b6020026020010151600160008d815260200190815260200160002060003373ffffffffffffffffffffffffffffffffffffffff1673ffffffffffffffffffffffffffffffffffffffff168152602001908152602001600020600301819055505b6127105a101561244557612452565b8080600101915050612072565b5080600160008c815260200190815260200160002060003373ffffffffffffffffffffffffffffffffffffffff1673ffffffffffffffffffffffffffffffffffffffff1681526020019081526020016000206004018190555081600160008c815260200190815260200160002060003373ffffffffffffffffffffffffffffffffffffffff1673ffffffffffffffffffffffffffffffffffffffff1681526020019081526020016000206000018190555050505050505050505050565b80600560009054906101000a900473ffffffffffffffffffffffffffffffffffffffff1673ffffffffffffffffffffffffffffffffffffffff1663757991a86040518163ffffffff1660e01b815260040160206040518083038186803b15801561257857600080fd5b505afa15801561258c573d6000803e3d6000fd5b505050506040513d601f19601f820116820180604052506125b091908101906141ab565b81146125f1576040517f08c379a00000000000000000000000000000000000000000000000000000000081526004016125e890614e09565b60405180910390fd5b73__Constants_____________________________63f240f7c36040518163ffffffff1660e01b815260040160206040518083038186803b15801561263557600080fd5b505af4158015612649573d6000803e3d6000fd5b505050506040513d601f19601f8201168201806040525061266d9190810190614400565b60ff16600560009054906101000a900473ffffffffffffffffffffffffffffffffffffffff1673ffffffffffffffffffffffffffffffffffffffff16631865c57d6040518163ffffffff1660e01b815260040160206040518083038186803b1580156126d857600080fd5b505afa1580156126ec573d6000803e3d6000fd5b505050506040513d601f19601f8201168201806040525061271091908101906141ab565b8114612751576040517f08c379a000000000000000000000000000000000000000000000000000000000815260040161274890614ec9565b60405180910390fd5b6040518060c00160405280600081526020016000815260200160008152602001600081526020016000815260200160008152506001600085815260200190815260200160002060003373ffffffffffffffffffffffffffffffffffffffff1673ffffffffffffffffffffffffffffffffffffffff168152602001908152602001600020600082015181600001556020820151816001015560408201518160020155606082015181600301556080820151816004015560a08201518160050155905050505050565b600460009054906101000a900473ffffffffffffffffffffffffffffffffffffffff1681565b6001602052816000526040600020602052806000526040600020600091509150508060000154908060010154908060020154908060030154908060040154908060050154905086565b600260205281600052604060002081815481106128a057fe5b9060005260206000209060080201600091509150508060000154908060050154908060060154908060070160009054906101000a900460ff16905084565b6128e733611199565b612926576040517f08c379a000000000000000000000000000000000000000000000000000000000815260040161291d90614ee9565b60405180910390fd5b6000600560009054906101000a900473ffffffffffffffffffffffffffffffffffffffff1673ffffffffffffffffffffffffffffffffffffffff1663757991a86040518163ffffffff1660e01b815260040160206040518083038186803b15801561299057600080fd5b505afa1580156129a4573d6000803e3d6000fd5b505050506040513d601f19601f820116820180604052506129c891908101906141ab565b905060006003600060018403815260200190815260200160002060000154148015612a0c575060006002600060018403815260200190815260200160002080549050115b15612eeb5760008090505b60026000600184038152602001908152602001600020805490508160ff161015612ee957600260006001840381526020019081526020016000208160ff1681548110612a5f57fe5b906000526020600020906008020160070160009054906101000a900460ff1615612edc57600260006001840381526020019081526020016000208160ff1681548110612aa757fe5b906000526020600020906008020160036000600185038152602001908152602001600020600082015481600001556001820181600101908054612aeb929190613df7565b506002820181600201908054612b02929190613df7565b506003820181600301908054612b19929190613df7565b506004820181600401908054612b30929190613df7565b5060058201548160050155600682015481600601556007820160009054906101000a900460ff168160070160006101000a81548160ff0219169083151502179055509050506000600260006001850381526020019081526020016000208260ff1681548110612b9b57fe5b90600052602060002090600802016000015490507f5ef264ae9101b91bd7117350c5e85901297fa0569e7a3e07eb7ec0a6281529f06001840382600260006001880381526020019081526020016000208560ff1681548110612bf957fe5b9060005260206000209060080201600201600260006001890381526020019081526020016000208660ff1681548110612c2e57fe5b90600052602060002090600802016003016002600060018a0381526020019081526020016000208760ff1681548110612c6357fe5b90600052602060002090600802016004016002600060018b0381526020019081526020016000208860ff1681548110612c9857fe5b906000526020600020906008020160010142604051612cbd97969594939291906150b0565b60405180910390a160008090505b600260006001860381526020019081526020016000208360ff1681548110612cef57fe5b9060005260206000209060080201600101805490508160ff161015612e4457600760009054906101000a900473ffffffffffffffffffffffffffffffffffffffff1673ffffffffffffffffffffffffffffffffffffffff166356350bdf600260006001880381526020019081526020016000208560ff1681548110612d7057fe5b90600052602060002090600802016001018360ff1681548110612d8f57fe5b9060005260206000200154600260006001890381526020019081526020016000208660ff1681548110612dbe57fe5b90600052602060002090600802016002018460ff1681548110612ddd57fe5b90600052602060002001546040518363ffffffff1660e01b8152600401612e05929190614fde565b600060405180830381600087803b158015612e1f57600080fd5b505af1158015612e33573d6000803e3d6000fd5b505050508080600101915050612ccb565b50600460009054906101000a900473ffffffffffffffffffffffffffffffffffffffff1673ffffffffffffffffffffffffffffffffffffffff1663746c8b6582856040518363ffffffff1660e01b8152600401612ea2929190614fde565b600060405180830381600087803b158015612ebc57600080fd5b505af1158015612ed0573d6000803e3d6000fd5b50505050505050612eed565b8080600101915050612a17565b505b505b565b612ef7613db0565b6060806060600260008781526020019081526020016000208581548110612f1a57fe5b9060005260206000209060080201604051806101000160405290816000820154815260200160018201805480602002602001604051908101604052809291908181526020018280548015612f8d57602002820191906000526020600020905b815481526020019060010190808311612f79575b5050505050815260200160028201805480602002602001604051908101604052809291908181526020018280548015612fe557602002820191906000526020600020905b815481526020019060010190808311612fd1575b505050505081526020016003820180548060200260200160405190810160405280929190818152602001828054801561303d57602002820191906000526020600020905b815481526020019060010190808311613029575b505050505081526020016004820180548060200260200160405190810160405280929190818152602001828054801561309557602002820191906000526020600020905b815481526020019060010190808311613081575b5050505050815260200160058201548152602001600682015481526020016007820160009054906101000a900460ff161515151581525050935083846040015185606001518660800151829250819150809050935093509350935092959194509250565b606060026000848152602001908152602001600020828154811061311957fe5b906000526020600020906008020160020180548060200260200160405190810160405280929190818152602001828054801561317457602002820191906000526020600020905b815481526020019060010190808311613160575b5050505050905080905092915050565b6060600360008381526020019081526020016000206003018054806020026020016040519081016040528092919081815260200182805480156131e657602002820191906000526020600020905b8154815260200190600101908083116131d2575b50505050509050809050919050565b6131fe33611199565b61323d576040517f08c379a000000000000000000000000000000000000000000000000000000000815260040161323490614ee9565b60405180910390fd5b61324681613bad565b50565b61325233613c07565b565b600060026000838152602001908152602001600020805490509050919050565b60036020528060005260406000206000915090508060000154908060050154908060060154908060070160009054906101000a900460ff16905084565b60606003600083815260200190815260200160002060040180548060200260200160405190810160405280929190818152602001828054801561331357602002820191906000526020600020905b8154815260200190600101908083116132ff575b50505050509050809050919050565b600060026000848152602001908152602001600020805490501415613436576002600083815260200190815260200160002081908060018154018082558091505090600182039060005260206000209060080201600090919290919091506000820151816000015560208201518160010190805190602001906133a6929190613e49565b5060408201518160020190805190602001906133c3929190613e49565b5060608201518160030190805190602001906133e0929190613e49565b5060808201518160040190805190602001906133fd929190613e49565b5060a0820151816005015560c0820151816006015560e08201518160070160006101000a81548160ff0219169083151502179055505050505b60006002600084815260200190815260200160002080549050905060008090505b6002600085815260200190815260200160002080549050811015613508578260c0015160026000868152602001908152602001600020828154811061349857fe5b90600052602060002090600802016006015410156134b857809150613508565b8260a001516002600086815260200190815260200160002082815481106134db57fe5b90600052602060002090600802016005015411156134fb57809150613508565b8080600101915050613457565b5060026000848152602001908152602001600020829080600181540180825580915050906001820390600052602060002090600802016000909192909190915060008201518160000155602082015181600101908051906020019061356e929190613e49565b50604082015181600201908051906020019061358b929190613e49565b5060608201518160030190805190602001906135a8929190613e49565b5060808201518160040190805190602001906135c5929190613e49565b5060a0820151816005015560c0820151816006015560e08201518160070160006101000a81548160ff0219169083151502179055505050506000600160026000868152602001908152602001600020805490500390505b818111156137375760026000858152602001908152602001600020600182038154811061364557fe5b906000526020600020906008020160026000868152602001908152602001600020828154811061367157fe5b906000526020600020906008020160008201548160000155600182018160010190805461369f929190613df7565b5060028201816002019080546136b6929190613df7565b5060038201816003019080546136cd929190613df7565b5060048201816004019080546136e4929190613df7565b5060058201548160050155600682015481600601556007820160009054906101000a900460ff168160070160006101000a81548160ff02191690831515021790555090505080806001900391505061361c565b508160026000858152602001908152602001600020828154811061375757fe5b906000526020600020906008020160008201518160000155602082015181600101908051906020019061378b929190613e49565b5060408201518160020190805190602001906137a8929190613e49565b5060608201518160030190805190602001906137c5929190613e49565b5060808201518160040190805190602001906137e2929190613e49565b5060a0820151816005015560c0820151816006015560e08201518160070160006101000a81548160ff02191690831515021790555090505073__Constants_____________________________63379597e06040518163ffffffff1660e01b815260040160206040518083038186803b15801561385e57600080fd5b505af4158015613872573d6000803e3d6000fd5b505050506040513d601f19601f8201168201806040525061389691908101906141ab565b6002600085815260200190815260200160002080549050111561396857600260008481526020019081526020016000206001600260008681526020019081526020016000208054905003815481106138ea57fe5b90600052602060002090600802016000808201600090556001820160006139119190613e96565b6002820160006139219190613e96565b6003820160006139319190613e96565b6004820160006139419190613e96565b600582016000905560068201600090556007820160006101000a81549060ff021916905550505b505050565b6000808284019050838110156139b8576040517f08c379a00000000000000000000000000000000000000000000000000000000081526004016139af90614d49565b60405180910390fd5b8091505092915050565b600080821415613a07576040517f08c379a00000000000000000000000000000000000000000000000000000000081526004016139fe90614da9565b60405180910390fd5b818381613a1057fe5b06905092915050565b600080831415613a2c5760009050613a83565b6000828402905082848281613a3d57fe5b0414613a7e576040517f08c379a0000000000000000000000000000000000000000000000000000000008152600401613a7590614de9565b60405180910390fd5b809150505b92915050565b60008073ffffffffffffffffffffffffffffffffffffffff168273ffffffffffffffffffffffffffffffffffffffff161415613afa576040517f08c379a0000000000000000000000000000000000000000000000000000000008152600401613af190614e29565b60405180910390fd5b8260000160008373ffffffffffffffffffffffffffffffffffffffff1673ffffffffffffffffffffffffffffffffffffffff16815260200190815260200160002060009054906101000a900460ff16905092915050565b6000808211613b95576040517f08c379a0000000000000000000000000000000000000000000000000000000008152600401613b8c90614d89565b60405180910390fd5b6000828481613ba057fe5b0490508091505092915050565b613bc1816000613c6190919063ffffffff16565b8073ffffffffffffffffffffffffffffffffffffffff167f6ff3aa2ea7b53070f6d9d07a445d338d89e8edef44250ffa8be19f53910d4a2e60405160405180910390a250565b613c1b816000613d0990919063ffffffff16565b8073ffffffffffffffffffffffffffffffffffffffff167f86e5bbceda94081c32220d685f37cc4e3ea7bb0be2dfbf0cb703579505a5390e60405160405180910390a250565b613c6b8282613a89565b15613cab576040517f08c379a0000000000000000000000000000000000000000000000000000000008152600401613ca290614d09565b60405180910390fd5b60018260000160008373ffffffffffffffffffffffffffffffffffffffff1673ffffffffffffffffffffffffffffffffffffffff16815260200190815260200160002060006101000a81548160ff0219169083151502179055505050565b613d138282613a89565b613d52576040517f08c379a0000000000000000000000000000000000000000000000000000000008152600401613d4990614dc9565b60405180910390fd5b60008260000160008373ffffffffffffffffffffffffffffffffffffffff1673ffffffffffffffffffffffffffffffffffffffff16815260200190815260200160002060006101000a81548160ff0219169083151502179055505050565b604051806101000160405280600081526020016060815260200160608152602001606081526020016060815260200160008152602001600081526020016000151581525090565b828054828255906000526020600020908101928215613e385760005260206000209182015b82811115613e37578254825591600101919060010190613e1c565b5b509050613e459190613eb7565b5090565b828054828255906000526020600020908101928215613e85579160200282015b82811115613e84578251825591602001919060010190613e69565b5b509050613e929190613eb7565b5090565b5080546000825590600052602060002090810190613eb49190613eb7565b50565b613ed991905b80821115613ed5576000816000905550600101613ebd565b5090565b90565b600081359050613eeb81615498565b92915050565b600081519050613f0081615498565b92915050565b600082601f830112613f1757600080fd5b8135613f2a613f2582615245565b615218565b91508181835260208401935060208101905083856020840282011115613f4f57600080fd5b60005b83811015613f7f5781613f658882614064565b845260208401935060208301925050600181019050613f52565b5050505092915050565b600081519050613f98816154af565b92915050565b60006101008284031215613fb157600080fd5b613fbc610100615218565b90506000613fcc84828501614079565b6000830152506020613fe084828501613ef1565b6020830152506040613ff484828501614079565b604083015250606061400884828501614079565b606083015250608061401c84828501614079565b60808301525060a061403084828501614079565b60a08301525060c061404484828501614079565b60c08301525060e061405884828501614079565b60e08301525092915050565b600081359050614073816154c6565b92915050565b600081519050614088816154c6565b92915050565b60008151905061409d816154dd565b92915050565b6000602082840312156140b557600080fd5b60006140c384828501613edc565b91505092915050565b600080600080608085870312156140e257600080fd5b60006140f087828801613edc565b945050602061410187828801613edc565b935050604061411287828801613edc565b925050606061412387828801613edc565b91505092959194509250565b60006020828403121561414157600080fd5b600061414f84828501613f89565b91505092915050565b6000610100828403121561416b57600080fd5b600061417984828501613f9e565b91505092915050565b60006020828403121561419457600080fd5b60006141a284828501614064565b91505092915050565b6000602082840312156141bd57600080fd5b60006141cb84828501614079565b91505092915050565b600080604083850312156141e757600080fd5b60006141f585828601614064565b925050602061420685828601613edc565b9150509250929050565b600080600080600080600060e0888a03121561422b57600080fd5b60006142398a828b01614064565b975050602088013567ffffffffffffffff81111561425657600080fd5b6142628a828b01613f06565b965050604088013567ffffffffffffffff81111561427f57600080fd5b61428b8a828b01613f06565b955050606088013567ffffffffffffffff8111156142a857600080fd5b6142b48a828b01613f06565b945050608088013567ffffffffffffffff8111156142d157600080fd5b6142dd8a828b01613f06565b93505060a06142ee8a828b01614064565b92505060c06142ff8a828b01614064565b91505092959891949750929550565b6000806040838503121561432157600080fd5b600061432f85828601614064565b925050602061434085828601614064565b9150509250929050565b60008060006060848603121561435f57600080fd5b600061436d86828701614064565b935050602061437e86828701614064565b925050604084013567ffffffffffffffff81111561439b57600080fd5b6143a786828701613f06565b9150509250925092565b6000806000606084860312156143c657600080fd5b60006143d486828701614064565b93505060206143e586828701614064565b92505060406143f686828701614064565b9150509250925092565b60006020828403121561441257600080fd5b60006144208482850161408e565b91505092915050565b60006144358383614bb8565b60208301905092915050565b61444a81615386565b82525050565b600061445b826152ad565b61446581856152fb565b93506144708361527d565b8060005b838110156144a15781516144888882614429565b9750614493836152d0565b925050600181019050614474565b5085935050505092915050565b60006144b9826152a2565b6144c381856152ea565b93506144ce8361526d565b8060005b838110156144ff5781516144e68882614429565b97506144f1836152c3565b9250506001810190506144d2565b5085935050505092915050565b6000614517826152b8565b61452181856152fb565b935061452c8361528d565b8060005b838110156145645761454182615478565b61454b8882614429565b9750614556836152dd565b925050600181019050614530565b5085935050505092915050565b61457a81615339565b82525050565b61458981615339565b82525050565b61459881615345565b82525050565b6145a781615398565b82525050565b6145b6816153bc565b82525050565b6145c5816153e0565b82525050565b6145d481615404565b82525050565b6145e381615428565b82525050565b60006145f6601f8361530c565b91507f526f6c65733a206163636f756e7420616c72656164792068617320726f6c65006000830152602082019050919050565b600061463660298361530c565b91507f736f727465645b695d206973206e6f742067726561746572207468616e206c6160008301527f73745669736974656400000000000000000000000000000000000000000000006020830152604082019050919050565b600061469c601b8361530c565b91507f536166654d6174683a206164646974696f6e206f766572666c6f7700000000006000830152602082019050919050565b60006146dc600b8361530c565b91507f6e6f7420656c65637465640000000000000000000000000000000000000000006000830152602082019050919050565b600061471c601a8361530c565b91507f536166654d6174683a206469766973696f6e206279207a65726f0000000000006000830152602082019050919050565b600061475c60188361530c565b91507f536166654d6174683a206d6f64756c6f206279207a65726f00000000000000006000830152602082019050919050565b600061479c60218361530c565b91507f526f6c65733a206163636f756e7420646f6573206e6f74206861766520726f6c60008301527f65000000000000000000000000000000000000000000000000000000000000006020830152604082019050919050565b600061480260218361530c565b91507f536166654d6174683a206d756c7469706c69636174696f6e206f766572666c6f60008301527f77000000000000000000000000000000000000000000000000000000000000006020830152604082019050919050565b6000614868600f8361530c565b91507f696e636f72726563742065706f636800000000000000000000000000000000006000830152602082019050919050565b60006148a860228361530c565b91507f526f6c65733a206163636f756e7420697320746865207a65726f20616464726560008301527f73730000000000000000000000000000000000000000000000000000000000006020830152604082019050919050565b600061490e60148361530c565b91507f41737365744964206e6f74206d61746368696e670000000000000000000000006000830152602082019050919050565b600061494e60378361530c565b91507f50726f706f73656420416c7465726e61746520626c6f636b206973206964656e60008301527f746963616c20746f2070726f706f73656420626c6f636b0000000000000000006020830152604082019050919050565b60006149b460198361530c565b91507f7374616b652062656c6f77206d696e696d756d207374616b65000000000000006000830152602082019050919050565b60006149f460218361530c565b91507f546f74616c207374616b652072657665616c656420646f65736e74206d61746360008301527f68000000000000000000000000000000000000000000000000000000000000006020830152604082019050919050565b6000614a5a600f8361530c565b91507f696e636f727265637420737461746500000000000000000000000000000000006000830152602082019050919050565b6000614a9a60308361530c565b91507f577269746572526f6c653a2063616c6c657220646f6573206e6f74206861766560008301527f207468652057726974657220726f6c65000000000000000000000000000000006020830152604082019050919050565b600061010083016000830151614b0c6000860182614bb8565b5060208301518482036020860152614b2482826144ae565b91505060408301518482036040860152614b3e82826144ae565b91505060608301518482036060860152614b5882826144ae565b91505060808301518482036080860152614b7282826144ae565b91505060a0830151614b8760a0860182614bb8565b5060c0830151614b9a60c0860182614bb8565b5060e0830151614bad60e0860182614571565b508091505092915050565b614bc18161536f565b82525050565b614bd08161536f565b82525050565b614bdf8161536f565b82525050565b6000602082019050614bfa6000830184614441565b92915050565b60006020820190508181036000830152614c1a8184614450565b905092915050565b6000602082019050614c376000830184614580565b92915050565b6000602082019050614c52600083018461459e565b92915050565b6000602082019050614c6d60008301846145ad565b92915050565b6000602082019050614c8860008301846145bc565b92915050565b6000602082019050614ca360008301846145cb565b92915050565b6000604082019050614cbe60008301856145da565b614ccb602083018461458f565b9392505050565b6000606082019050614ce760008301866145da565b614cf46020830185614bd6565b614d01604083018461458f565b949350505050565b60006020820190508181036000830152614d22816145e9565b9050919050565b60006020820190508181036000830152614d4281614629565b9050919050565b60006020820190508181036000830152614d628161468f565b9050919050565b60006020820190508181036000830152614d82816146cf565b9050919050565b60006020820190508181036000830152614da28161470f565b9050919050565b60006020820190508181036000830152614dc28161474f565b9050919050565b60006020820190508181036000830152614de28161478f565b9050919050565b60006020820190508181036000830152614e02816147f5565b9050919050565b60006020820190508181036000830152614e228161485b565b9050919050565b60006020820190508181036000830152614e428161489b565b9050919050565b60006020820190508181036000830152614e6281614901565b9050919050565b60006020820190508181036000830152614e8281614941565b9050919050565b60006020820190508181036000830152614ea2816149a7565b9050919050565b60006020820190508181036000830152614ec2816149e7565b9050919050565b60006020820190508181036000830152614ee281614a4d565b9050919050565b60006020820190508181036000830152614f0281614a8d565b9050919050565b60006020820190508181036000830152614f238184614af3565b905092915050565b60006080820190508181036000830152614f458187614af3565b90508181036020830152614f598186614450565b90508181036040830152614f6d8185614450565b90508181036060830152614f818184614450565b905095945050505050565b6000602082019050614fa16000830184614bc7565b92915050565b6000606082019050614fbc6000830186614bc7565b614fc96020830185614441565b614fd66040830184614bc7565b949350505050565b6000604082019050614ff36000830185614bc7565b6150006020830184614bc7565b9392505050565b60006101208201905061501d600083018c614bc7565b61502a602083018b614bc7565b818103604083015261503c818a614450565b905081810360608301526150508189614450565b905081810360808301526150648188614450565b905081810360a08301526150788187614450565b905061508760c0830186614bc7565b61509460e0830185614bc7565b6150a2610100830184614bc7565b9a9950505050505050505050565b600060e0820190506150c5600083018a614bc7565b6150d26020830189614bc7565b81810360408301526150e4818861450c565b905081810360608301526150f8818761450c565b9050818103608083015261510c818661450c565b905081810360a0830152615120818561450c565b905061512f60c0830184614bc7565b98975050505050505050565b60006060820190506151506000830186614bc7565b61515d6020830185614bc7565b61516a6040830184614bc7565b949350505050565b60006080820190506151876000830187614bc7565b6151946020830186614bc7565b6151a16040830185614bc7565b6151ae6060830184614580565b95945050505050565b600060c0820190506151cc6000830189614bc7565b6151d96020830188614bc7565b6151e66040830187614bc7565b6151f36060830186614bc7565b6152006080830185614bc7565b61520d60a0830184614bc7565b979650505050505050565b6000604051905081810181811067ffffffffffffffff8211171561523b57600080fd5b8060405250919050565b600067ffffffffffffffff82111561525c57600080fd5b602082029050602081019050919050565b6000819050602082019050919050565b6000819050602082019050919050565b60008190508160005260206000209050919050565b600081519050919050565b600081519050919050565b600081549050919050565b6000602082019050919050565b6000602082019050919050565b6000600182019050919050565b600082825260208201905092915050565b600082825260208201905092915050565b600082825260208201905092915050565b6000819050919050565b60006153328261534f565b9050919050565b60008115159050919050565b6000819050919050565b600073ffffffffffffffffffffffffffffffffffffffff82169050919050565b6000819050919050565b600060ff82169050919050565b60006153918261543a565b9050919050565b60006153a3826153aa565b9050919050565b60006153b58261534f565b9050919050565b60006153c7826153ce565b9050919050565b60006153d98261534f565b9050919050565b60006153eb826153f2565b9050919050565b60006153fd8261534f565b9050919050565b600061540f82615416565b9050919050565b60006154218261534f565b9050919050565b600061543382615379565b9050919050565b60006154458261544c565b9050919050565b60006154578261534f565b9050919050565b600061547161546c8361548b565b61531d565b9050919050565b6000615484825461545e565b9050919050565b60008160001c9050919050565b6154a181615327565b81146154ac57600080fd5b50565b6154b881615345565b81146154c357600080fd5b50565b6154cf8161536f565b81146154da57600080fd5b50565b6154e681615379565b81146154f157600080fd5b5056fea365627a7a72305820be17f14d2d9ec2c0d4ace1b310dae62d646645a8866996ddba58e45e44670d116c6578706572696d656e74616cf564736f6c634300050a0040",
  "source": "pragma solidity 0.5.10;\npragma experimental ABIEncoderV2;\nimport \"../lib/Random.sol\";\n// import \"../SimpleToken.sol\";\nimport \"./Utils.sol\";\nimport \"./BlockStorage.sol\";\nimport \"./IStakeManager.sol\";\nimport \"./IStateManager.sol\";\nimport \"./IVoteManager.sol\";\nimport \"./IJobManager.sol\";\nimport \"openzeppelin-solidity/contracts/math/SafeMath.sol\";\nimport \"./WriterRole.sol\";\n\n\ncontract BlockManager is Utils, WriterRole, BlockStorage {\n    using SafeMath for uint256;\n\n    IStakeManager public stakeManager;\n    IStateManager public stateManager;\n    IVoteManager public voteManager;\n    IJobManager public jobManager;\n\n    modifier checkEpoch (uint256 epoch) {\n        require(epoch == stateManager.getEpoch(), \"incorrect epoch\");\n        _;\n    }\n\n    modifier checkState (uint256 state) {\n        require(state == stateManager.getState(), \"incorrect state\");\n        _;\n    }\n\n    function getBlock(uint256 epoch) external view returns(Structs.Block memory _block) {\n        return(blocks[epoch]);\n    }\n\n    function getBlockMedians(uint256 epoch) external view returns(uint256[] memory _blockMedians) {\n        _blockMedians = blocks[epoch].medians;\n        return(_blockMedians);\n    }\n\n    function getLowerCutoffs(uint256 epoch) external view returns(uint256[] memory _lowerCutoffs) {\n        _lowerCutoffs = blocks[epoch].lowerCutoffs;\n        return(_lowerCutoffs);\n    }\n\n    function getHigherCutoffs(uint256 epoch) external view returns(uint256[] memory _higherCutoffs) {\n        _higherCutoffs = blocks[epoch].higherCutoffs;\n        return(_higherCutoffs);\n    }\n\n    function getProposedBlock(uint256 epoch, uint256 proposedBlock)\n    external view returns(Structs.Block memory _block,\n    uint256[] memory _blockMedians,\n    uint256[] memory _lowerCutoffs,\n    uint256[] memory _higherCutoffs ) {\n        _block = proposedBlocks[epoch][proposedBlock];\n        return(_block, _block.medians, _block.lowerCutoffs, _block.higherCutoffs);\n    }\n\n    function getProposedBlockMedians(uint256 epoch, uint256 proposedBlock)\n    external view returns(uint256[] memory _blockMedians) {\n        _blockMedians = proposedBlocks[epoch][proposedBlock].medians;\n        return(_blockMedians);\n    }\n\n    function getNumProposedBlocks(uint256 epoch)\n    external view returns(uint256) {\n        return(proposedBlocks[epoch].length);\n    }\n\n    //disable after init.\n    function init(address _stakeManagerAddress, address _stateManagerAddress,\n                address _voteManagerAddress, address _jobManagerAddress) public {\n        stakeManager = IStakeManager(_stakeManagerAddress);\n        stateManager = IStateManager(_stateManagerAddress);\n        voteManager = IVoteManager(_voteManagerAddress);\n        jobManager = IJobManager(_jobManagerAddress);\n    }\n\n    event Proposed(uint256 epoch,\n                    uint256 stakerId,\n                    uint256[] jobIds,\n                    uint256[] medians,\n                    uint256[] lowerCutoffs,\n                    uint256[] higherCutoffs,\n                    uint256 iteration,\n                    uint256 biggestStakerId,\n                    uint256 timestamp);\n\n    // elected proposer proposes block. we use a probabilistic method to elect stakers weighted by stake\n    // protocol works like this. select a staker pseudorandomly (not weighted by anything)\n    // (todo what if it is below min stake)\n    // that staker then tosses a biased coin. bias = hisStake/biggestStake. if its heads, he can propose block\n    // end of iteration. try next iteration\n    // note that only one staker or no stakers selected in each iteration.\n    // stakers elected in higher iterations can also propose hoping that\n    // stakers with lower iteration do not propose for some reason\n    function propose (uint256 epoch,\n                    uint256[] memory jobIds,\n                    uint256[] memory medians,\n                    uint256[] memory lowerCutoffs,\n                    uint256[] memory higherCutoffs,\n                    uint256 iteration,\n                    uint256 biggestStakerId) public checkEpoch(epoch) checkState(Constants.propose()) {\n        uint256 proposerId = stakeManager.getStakerId(msg.sender);\n        // SimpleToken sch = SimpleToken(schAddress);\n        require(isElectedProposer(iteration, biggestStakerId, proposerId), \"not elected\");\n        require(stakeManager.getStaker(proposerId).stake >= Constants.minStake(), \"stake below minimum stake\");\n\n        // check if someone already proposed\n        // if (blocks[epoch].proposerId != 0) {\n        //     if (blocks[epoch].proposerId == proposerId) {\n        //         revert(\"Already Proposed\");\n        //     }\n        //     // if (stakers[biggestStakerId].stake == blocks[epoch].biggestStake &&\n        //     //     proposedBlocks[epoch].length >= Constants.maxAltBlocks()) {\n        //     //\n        //     //     require(proposedBlocks[epoch][4].iteration > iteration,\n        //     //             \"iteration not smaller than last elected staker\");\n        //     // } else\n        //     if (stakers[biggestStakerId].stake < blocks[epoch].biggestStake) {\n        //         revert(\"biggest stakers stake not bigger than as proposed by existing elected staker \");\n        //     }\n        // }\n        // blocks[epoch]\n        _insertAppropriately(epoch, Structs.Block(proposerId,\n                            jobIds,\n                            medians,\n                            lowerCutoffs,\n                            higherCutoffs,\n                            iteration,\n                            stakeManager.getStaker(biggestStakerId).stake,\n                            true));\n        // emit DebugUint256(pushAt);\n        // mint and give block reward\n        // if (Constants.blockReward() > 0) {\n        //     stakers[proposerId].stake = stakers[proposerId].stake.add(Constants.blockReward());\n        //     totalStake = totalStake.add(Constants.blockReward());\n        //     require(sch.mint(address(this), Constants.blockReward()));\n        // }\n        emit Proposed(epoch, proposerId, jobIds, medians, lowerCutoffs, higherCutoffs, iteration, biggestStakerId, now);\n    }\n\n    //anyone can give sorted votes in batches in dispute state\n    function giveSorted (uint256 epoch, uint256 assetId, uint256[] memory sorted) public\n    checkEpoch(epoch) checkState(Constants.dispute()) {\n        uint256 medianWeight = voteManager.getTotalStakeRevealed(epoch, assetId).div(2);\n        uint256 lowerCutoffWeight = voteManager.getTotalStakeRevealed(epoch, assetId).div(4);\n        uint256 higherCutoffWeight = (voteManager.getTotalStakeRevealed(epoch, assetId).mul(3)).div(4);\n        uint256 accWeight = disputes[epoch][msg.sender].accWeight;\n        uint256 lastVisited = disputes[epoch][msg.sender].lastVisited;\n        if (disputes[epoch][msg.sender].accWeight == 0) {\n            disputes[epoch][msg.sender].assetId = assetId;\n        } else {\n            require(disputes[epoch][msg.sender].assetId == assetId, \"AssetId not matching\");\n        }\n        for (uint256 i = 0; i < sorted.length; i++) {\n            require(sorted[i] > lastVisited, \"sorted[i] is not greater than lastVisited\");\n            lastVisited = sorted[i];\n            accWeight = accWeight.add(voteManager.getVoteWeight(epoch, assetId, sorted[i]));\n            //set  median, if conditions meet\n            if (disputes[epoch][msg.sender].lowerCutoff == 0 && accWeight >= lowerCutoffWeight) {\n                disputes[epoch][msg.sender].lowerCutoff = sorted[i];\n            }\n            if (disputes[epoch][msg.sender].median == 0 && accWeight > medianWeight) {\n                disputes[epoch][msg.sender].median = sorted[i];\n            }\n            if (disputes[epoch][msg.sender].higherCutoff == 0 && accWeight > higherCutoffWeight) {\n                disputes[epoch][msg.sender].higherCutoff = sorted[i];\n            }\n            //TODO verify how much gas required for below operations and update this value\n            if (gasleft() < 10000) break;\n        }\n        disputes[epoch][msg.sender].lastVisited = lastVisited;\n        disputes[epoch][msg.sender].accWeight = accWeight;\n    }\n\n    // //todo test\n    // //if any mistake made during giveSorted, resetDispute and start again\n    function resetDispute (uint256 epoch) public checkEpoch(epoch) checkState(Constants.dispute()) {\n        disputes[epoch][msg.sender] = Structs.Dispute(0, 0, 0, 0, 0, 0);\n    }\n\n    function finalizeDispute (uint256 epoch, uint256 blockId)\n    public checkEpoch(epoch) checkState(Constants.dispute()) {\n        uint256 assetId = disputes[epoch][msg.sender].assetId;\n        require(disputes[epoch][msg.sender].accWeight == voteManager.getTotalStakeRevealed(epoch, assetId),\n        \"Total stake revealed doesnt match\");\n        uint256 median = disputes[epoch][msg.sender].median;\n        uint256 lowerCutoff = disputes[epoch][msg.sender].lowerCutoff;\n        uint256 higherCutoff = disputes[epoch][msg.sender].higherCutoff;\n        uint256 proposerId = proposedBlocks[epoch][blockId].proposerId;\n        //\n        require(median > 0);\n        if (proposedBlocks[epoch][blockId].medians[assetId] != median ||\n            proposedBlocks[epoch][blockId].lowerCutoffs[assetId] != lowerCutoff ||\n            proposedBlocks[epoch][blockId].higherCutoffs[assetId] != higherCutoff) {\n            proposedBlocks[epoch][blockId].valid = false;\n            stakeManager.slash(proposerId, msg.sender, epoch);\n        } else {\n            revert(\"Proposed Alternate block is identical to proposed block\");\n        }\n    }\n\n    function isElectedProposer(uint256 iteration, uint256 biggestStakerId, uint256 stakerId) public view returns(bool) {\n       // rand = 0 -> totalStake-1\n       //add +1 since prng returns 0 to max-1 and staker start from 1\n        if ((Random.prng(10, stakeManager.getNumStakers(), keccak256(abi.encode(iteration))).add(1))\n        != stakerId) {return(false);}\n        bytes32 randHash = Random.prngHash(10, keccak256(abi.encode(stakerId, iteration)));\n        uint256 rand = uint256(randHash).mod(2**32);\n        uint256 biggestStake = stakeManager.getStaker(biggestStakerId).stake;\n        if (rand.mul(biggestStake) > stakeManager.getStaker(stakerId).stake.mul(2**32)) return(false);\n        return(true);\n    }\n\n    event BlockConfirmed(uint256 epoch,\n                    uint256 stakerId,\n                    uint256[] medians,\n                    uint256[] lowerCutoffs,\n                    uint256[] higherCutoffs,\n                    uint256[] jobIds,\n                    uint256 timestamp);\n\n    function confirmBlock() public onlyWriter {\n        uint256 epoch = stateManager.getEpoch();\n        if (blocks[epoch - 1].proposerId == 0 && proposedBlocks[epoch - 1].length > 0) {\n            for (uint8 i=0; i < proposedBlocks[epoch - 1].length; i++) {\n                if (proposedBlocks[epoch - 1][i].valid) {\n                    blocks[epoch - 1] = proposedBlocks[epoch - 1][i];\n                    uint256 proposerId = proposedBlocks[epoch - 1][i].proposerId;\n                    emit BlockConfirmed(epoch - 1,\n                                        proposerId,\n                                        proposedBlocks[epoch - 1][i].medians,\n                                        proposedBlocks[epoch - 1][i].lowerCutoffs,\n                                        proposedBlocks[epoch - 1][i].higherCutoffs,\n                                        proposedBlocks[epoch - 1][i].jobIds,\n                                        now);\n                    for (uint8 j = 0; j < proposedBlocks[epoch - 1][i].jobIds.length; j++) {\n                        jobManager.fulfillJob(proposedBlocks[epoch - 1][i].jobIds[j],\n                                            proposedBlocks[epoch - 1][i].medians[j]);\n                    }\n                    stakeManager.giveBlockReward(proposerId, epoch);\n                    return;\n                }\n            }\n        }\n    }\n\n    function _insertAppropriately(uint256 epoch, Structs.Block memory _block) internal {\n       // uint256 iteration = _block.iteration;\n        if (proposedBlocks[epoch].length == 0) {\n            proposedBlocks[epoch].push(_block);\n            // return(0);\n        }\n       // Structs.Block[] memory temp = proposedBlocks[epoch];\n       // delete (proposedBlocks[epoch]);\n       // bool pushed = false;\n       // bool empty = true;\n        uint256 pushAt = proposedBlocks[epoch].length;\n        for (uint256 i = 0; i < proposedBlocks[epoch].length; i++) {\n            if (proposedBlocks[epoch][i].biggestStake < _block.biggestStake) {\n                pushAt = i;\n                break;\n            }\n            if (proposedBlocks[epoch][i].iteration > _block.iteration) {\n                pushAt = i;\n                break;\n            }\n        }\n\n        proposedBlocks[epoch].push(_block);\n        for (uint256 j = proposedBlocks[epoch].length - 1; j > (pushAt); j--) {\n            proposedBlocks[epoch][j] = proposedBlocks[epoch][j - 1];\n        }\n        // if (pushAt < proposedBlocks[epoch].length) {\n\n        proposedBlocks[epoch][pushAt] = _block;\n        // }\n        // if (pushed == false && temp.length < Constants.maxAltBlocks()) {\n        //     proposedBlocks[epoch].push(_block);\n        // }\n        if (proposedBlocks[epoch].length > Constants.maxAltBlocks()) {\n            delete (proposedBlocks[epoch][proposedBlocks[epoch].length - 1]);\n        }\n        // return(pushAt);\n    }\n\n\n}\n",
  "sourcePath": "/Users/hrishi/contracts/contracts/Schelling4/BlockManager.sol",
  "compiler": {
    "name": "solc",
    "version": "0.5.10+commit.5a6ea5b1.Emscripten.clang"
  },
  "schemaVersion": "3.0.11",
  "updatedAt": "2019-09-30T17:44:28.885Z",
  "devdoc": {
    "methods": {}
  },
  "userdoc": {
    "methods": {}
  }
}