{
  "contractName": "Bridge",
  "abi": [
    {
      "inputs": [
        {
          "internalType": "uint256",
          "name": "",
          "type": "uint256"
        }
      ],
      "name": "jobs",
      "outputs": [
        {
          "internalType": "string",
          "name": "url",
          "type": "string"
        },
        {
          "internalType": "string",
          "name": "selector",
          "type": "string"
        },
        {
          "internalType": "string",
          "name": "name",
          "type": "string"
        },
        {
          "internalType": "uint256",
          "name": "result",
          "type": "uint256"
        }
      ],
      "stateMutability": "view",
      "type": "function",
      "constant": true
    },
    {
      "inputs": [],
      "name": "owner",
      "outputs": [
        {
          "internalType": "address",
          "name": "",
          "type": "address"
        }
      ],
      "stateMutability": "view",
      "type": "function",
      "constant": true
    },
    {
      "inputs": [
        {
          "internalType": "uint256",
          "name": "",
          "type": "uint256"
        }
      ],
      "name": "results",
      "outputs": [
        {
          "internalType": "uint256",
          "name": "",
          "type": "uint256"
        }
      ],
      "stateMutability": "view",
      "type": "function",
      "constant": true
    },
    {
      "inputs": [
        {
          "internalType": "uint256",
          "name": "id",
          "type": "uint256"
        },
        {
          "internalType": "uint256",
          "name": "result",
          "type": "uint256"
        }
      ],
      "name": "setResult",
      "outputs": [],
      "stateMutability": "nonpayable",
      "type": "function"
    },
    {
      "inputs": [
        {
          "internalType": "uint256",
          "name": "id",
          "type": "uint256"
        },
        {
          "internalType": "string",
          "name": "url",
          "type": "string"
        },
        {
          "internalType": "string",
          "name": "selector",
          "type": "string"
        },
        {
          "internalType": "string",
          "name": "name",
          "type": "string"
        },
        {
          "internalType": "uint256",
          "name": "result",
          "type": "uint256"
        }
      ],
      "name": "setJob",
      "outputs": [],
      "stateMutability": "nonpayable",
      "type": "function"
    },
    {
      "inputs": [
        {
          "internalType": "uint256",
          "name": "id",
          "type": "uint256"
        }
      ],
      "name": "getResult",
      "outputs": [
        {
          "internalType": "uint256",
          "name": "",
          "type": "uint256"
        }
      ],
      "stateMutability": "view",
      "type": "function",
      "constant": true
    },
    {
      "inputs": [
        {
          "internalType": "uint256",
          "name": "id",
          "type": "uint256"
        }
      ],
      "name": "getJob",
      "outputs": [
        {
          "internalType": "string",
          "name": "url",
          "type": "string"
        },
        {
          "internalType": "string",
          "name": "selector",
          "type": "string"
        },
        {
          "internalType": "string",
          "name": "name",
          "type": "string"
        },
        {
          "internalType": "uint256",
          "name": "result",
          "type": "uint256"
        }
      ],
      "stateMutability": "view",
      "type": "function",
      "constant": true
    }
  ],
  "bytecode": "0x608060405233600260006101000a81548173ffffffffffffffffffffffffffffffffffffffff021916908373ffffffffffffffffffffffffffffffffffffffff16021790555034801561005157600080fd5b50610bc0806100616000396000f3fe608060405234801561001057600080fd5b506004361061007d5760003560e01c80638da5cb5b1161005b5780638da5cb5b14610101578063995e43391461011f578063a65065d11461014f578063bf22c4571461016b5761007d565b8063180aedf3146100825780631b0c27da146100b5578063310efb48146100e5575b600080fd5b61009c6004803603810190610097919061085e565b61019e565b6040516100ac9493929190610a01565b60405180910390f35b6100cf60048036038101906100ca919061085e565b610366565b6040516100dc9190610a5b565b60405180910390f35b6100ff60048036038101906100fa9190610953565b61037e565b005b610109610399565b60405161011691906109e6565b60405180910390f35b6101396004803603810190610134919061085e565b6103bf565b6040516101469190610a5b565b60405180910390f35b61016960048036038101906101649190610887565b6103db565b005b6101856004803603810190610180919061085e565b610549565b6040516101959493929190610a01565b60405180910390f35b60016020528060005260406000206000915090508060000180546101c190610b01565b80601f01602080910402602001604051908101604052809291908181526020018280546101ed90610b01565b801561023a5780601f1061020f5761010080835404028352916020019161023a565b820191906000526020600020905b81548152906001019060200180831161021d57829003601f168201915b50505050509080600101805461024f90610b01565b80601f016020809104026020016040519081016040528092919081815260200182805461027b90610b01565b80156102c85780601f1061029d576101008083540402835291602001916102c8565b820191906000526020600020905b8154815290600101906020018083116102ab57829003601f168201915b5050505050908060020180546102dd90610b01565b80601f016020809104026020016040519081016040528092919081815260200182805461030990610b01565b80156103565780601f1061032b57610100808354040283529160200191610356565b820191906000526020600020905b81548152906001019060200180831161033957829003601f168201915b5050505050908060030154905084565b60006020528060005260406000206000915090505481565b80600080848152602001908152602001600020819055505050565b600260009054906101000a900473ffffffffffffffffffffffffffffffffffffffff1681565b6000806000838152602001908152602001600020549050919050565b604051806080016040528088888080601f016020809104026020016040519081016040528093929190818152602001838380828437600081840152601f19601f82011690508083019250505050505050815260200186868080601f016020809104026020016040519081016040528093929190818152602001838380828437600081840152601f19601f82011690508083019250505050505050815260200184848080601f016020809104026020016040519081016040528093929190818152602001838380828437600081840152601f19601f82011690508083019250505050505050815260200182815250600160008a815260200190815260200160002060008201518160000190805190602001906104f792919061075c565b50602082015181600101908051906020019061051492919061075c565b50604082015181600201908051906020019061053192919061075c565b50606082015181600301559050505050505050505050565b6060806060600060016000868152602001908152602001600020600001600160008781526020019081526020016000206001016001600088815260200190815260200160002060020160016000898152602001908152602001600020600301548380546105b590610b01565b80601f01602080910402602001604051908101604052809291908181526020018280546105e190610b01565b801561062e5780601f106106035761010080835404028352916020019161062e565b820191906000526020600020905b81548152906001019060200180831161061157829003601f168201915b5050505050935082805461064190610b01565b80601f016020809104026020016040519081016040528092919081815260200182805461066d90610b01565b80156106ba5780601f1061068f576101008083540402835291602001916106ba565b820191906000526020600020905b81548152906001019060200180831161069d57829003601f168201915b505050505092508180546106cd90610b01565b80601f01602080910402602001604051908101604052809291908181526020018280546106f990610b01565b80156107465780601f1061071b57610100808354040283529160200191610746565b820191906000526020600020905b81548152906001019060200180831161072957829003601f168201915b5050505050915093509350935093509193509193565b82805461076890610b01565b90600052602060002090601f01602090048101928261078a57600085556107d1565b82601f106107a357805160ff19168380011785556107d1565b828001600101855582156107d1579182015b828111156107d05782518255916020019190600101906107b5565b5b5090506107de91906107e2565b5090565b5b808211156107fb5760008160009055506001016107e3565b5090565b60008083601f84011261081157600080fd5b8235905067ffffffffffffffff81111561082a57600080fd5b60208301915083600182028301111561084257600080fd5b9250929050565b60008135905061085881610b73565b92915050565b60006020828403121561087057600080fd5b600061087e84828501610849565b91505092915050565b60008060008060008060008060a0898b0312156108a357600080fd5b60006108b18b828c01610849565b985050602089013567ffffffffffffffff8111156108ce57600080fd5b6108da8b828c016107ff565b9750975050604089013567ffffffffffffffff8111156108f957600080fd5b6109058b828c016107ff565b9550955050606089013567ffffffffffffffff81111561092457600080fd5b6109308b828c016107ff565b935093505060806109438b828c01610849565b9150509295985092959890939650565b6000806040838503121561096657600080fd5b600061097485828601610849565b925050602061098585828601610849565b9150509250929050565b61099881610a92565b82525050565b60006109a982610a76565b6109b38185610a81565b93506109c3818560208601610ace565b6109cc81610b62565b840191505092915050565b6109e081610ac4565b82525050565b60006020820190506109fb600083018461098f565b92915050565b60006080820190508181036000830152610a1b818761099e565b90508181036020830152610a2f818661099e565b90508181036040830152610a43818561099e565b9050610a5260608301846109d7565b95945050505050565b6000602082019050610a7060008301846109d7565b92915050565b600081519050919050565b600082825260208201905092915050565b6000610a9d82610aa4565b9050919050565b600073ffffffffffffffffffffffffffffffffffffffff82169050919050565b6000819050919050565b60005b83811015610aec578082015181840152602081019050610ad1565b83811115610afb576000848401525b50505050565b60006002820490506001821680610b1957607f821691505b60208210811415610b2d57610b2c610b33565b5b50919050565b7f4e487b7100000000000000000000000000000000000000000000000000000000600052602260045260246000fd5b6000601f19601f8301169050919050565b610b7c81610ac4565b8114610b8757600080fd5b5056fea26469706673582212204d60a4c19e8b132f36c37ea818ed2fefdfebceceb766d7605d7e6ac85794289764736f6c63430008000033",
  "immutableReferences": {},
  "source": "pragma solidity ^0.8.0;\n\n\ncontract Bridge {\n\n    struct Job {\n        string url;\n        string selector;\n        string name;\n        uint256 result;\n    }\n\n    mapping (uint256 => uint256) public results;\n    mapping (uint256 => Job) public jobs;\n    address public owner = msg.sender;\n\n    function setResult(uint256 id, uint256 result) external {\n        results[id] = result;\n    }\n\n    function setJob(uint256 id, string calldata url, string calldata selector, string calldata name, uint256 result) external {\n        jobs[id] = Job(url, selector, name, result);\n    }\n\n    function getResult(uint256 id) external view returns(uint256) {\n        return results[id];\n    }\n\n    function getJob(uint256 id) external view returns(string memory url, string memory selector, string memory name, uint256 result) {\n        return (jobs[id].url, jobs[id].selector, jobs[id].name, jobs[id].result);\n    }\n\n}\n",
  "sourcePath": "/home/aditya/Desktop/Razor_Network/bridge/contracts/Bridge.sol",
  "compiler": {
    "name": "solc",
    "version": "0.8.0+commit.c7dfd78e.Emscripten.clang"
  },
  "schemaVersion": "3.3.4",
  "updatedAt": "2021-04-14T10:00:56.647Z",
  "networkType": "ethereum",
  "devdoc": {
    "kind": "dev",
    "methods": {},
    "version": 1
  },
  "userdoc": {
    "kind": "user",
    "methods": {},
    "version": 1
  }
}