{
  "contractName": "Bridge",
  "abi": [
    {
      "constant": true,
      "inputs": [],
      "name": "owner",
      "outputs": [
        {
          "name": "",
          "type": "address"
        }
      ],
      "payable": false,
      "stateMutability": "view",
      "type": "function"
    },
    {
      "constant": false,
      "inputs": [
        {
          "name": "id",
          "type": "uint256"
        },
        {
          "name": "result",
          "type": "uint256"
        }
      ],
      "name": "setResult",
      "outputs": [],
      "payable": false,
      "stateMutability": "nonpayable",
      "type": "function"
    },
    {
      "constant": true,
      "inputs": [
        {
          "name": "id",
          "type": "uint256"
        }
      ],
      "name": "getResult",
      "outputs": [
        {
          "name": "",
          "type": "uint256"
        }
      ],
      "payable": false,
      "stateMutability": "view",
      "type": "function"
    }
  ],
  "bytecode": "0x608060405233600160006101000a81548173ffffffffffffffffffffffffffffffffffffffff021916908373ffffffffffffffffffffffffffffffffffffffff16021790555034801561005157600080fd5b506101f6806100616000396000f3fe608060405234801561001057600080fd5b50600436106100415760003560e01c8063310efb48146100465780638da5cb5b1461007e578063995e4339146100c8575b600080fd5b61007c6004803603604081101561005c57600080fd5b81019080803590602001909291908035906020019092919050505061010a565b005b61008661017f565b604051808273ffffffffffffffffffffffffffffffffffffffff1673ffffffffffffffffffffffffffffffffffffffff16815260200191505060405180910390f35b6100f4600480360360208110156100de57600080fd5b81019080803590602001909291905050506101a5565b6040518082815260200191505060405180910390f35b600160009054906101000a900473ffffffffffffffffffffffffffffffffffffffff1673ffffffffffffffffffffffffffffffffffffffff163373ffffffffffffffffffffffffffffffffffffffff161461016457600080fd5b80600080848152602001908152602001600020819055505050565b600160009054906101000a900473ffffffffffffffffffffffffffffffffffffffff1681565b600080600083815260200190815260200160002054905091905056fea265627a7a7230582014a4c06465b65ddeeb3e19e24780d61dfc4597d87b40e61b28aa76dab98a6a6864736f6c634300050a0032",
  "source": "pragma solidity 0.5.10;\n// pragma experimental ABIEncoderV2;\n// import \"../SimpleToken.sol\";\n// import \"./Utils.sol\";\n// import \"./BlockStorage.sol\";\n// import \"./IStakeManager.sol\";\n// import \"./IStateManager.sol\";\n// import \"./IVoteManager.sol\";\n// import \"./JobStorage.sol\";\n// import \"./IStateManager.sol\";\n// import \"openzeppelin-solidity/contracts/math/SafeMath.sol\";\n// import \"./Core/WriterRole.sol\";\n\n\ncontract Bridge {\n\n    mapping (uint256 => uint256) results;\n    address public owner = msg.sender;\n    //disable after init.\n    // function init(address _stateManagerAddress) external {\n    //     stateManager = IStateManager(_stateManagerAddress);\n    // }\n\n    function setResult(uint256 id, uint256 result) external {\n        require(msg.sender == owner);\n        results[id] = result;\n    }\n\n    function getResult(uint256 id) external view returns(uint256) {\n        return results[id];\n    }\n}\n",
  "sourcePath": "/Users/hrishi/contracts/contracts/Bridge.sol",
  "compiler": {
    "name": "solc",
    "version": "0.5.10+commit.5a6ea5b1.Emscripten.clang"
  },
  "schemaVersion": "3.0.11",
  "updatedAt": "2019-10-03T08:14:39.367Z",
  "devdoc": {
    "methods": {}
  },
  "userdoc": {
    "methods": {}
  }
}