{
  "contractName": "Constants",
  "abi": [
    {
      "inputs": [],
      "name": "commit",
      "outputs": [
        {
          "internalType": "uint8",
          "name": "",
          "type": "uint8"
        }
      ],
      "stateMutability": "pure",
      "type": "function",
      "constant": true
    },
    {
      "inputs": [],
      "name": "reveal",
      "outputs": [
        {
          "internalType": "uint8",
          "name": "",
          "type": "uint8"
        }
      ],
      "stateMutability": "pure",
      "type": "function",
      "constant": true
    },
    {
      "inputs": [],
      "name": "propose",
      "outputs": [
        {
          "internalType": "uint8",
          "name": "",
          "type": "uint8"
        }
      ],
      "stateMutability": "pure",
      "type": "function",
      "constant": true
    },
    {
      "inputs": [],
      "name": "dispute",
      "outputs": [
        {
          "internalType": "uint8",
          "name": "",
          "type": "uint8"
        }
      ],
      "stateMutability": "pure",
      "type": "function",
      "constant": true
    },
    {
      "inputs": [],
      "name": "penaltyNotRevealNum",
      "outputs": [
        {
          "internalType": "uint256",
          "name": "",
          "type": "uint256"
        }
      ],
      "stateMutability": "pure",
      "type": "function",
      "constant": true
    },
    {
      "inputs": [],
      "name": "penaltyNotRevealDenom",
      "outputs": [
        {
          "internalType": "uint256",
          "name": "",
          "type": "uint256"
        }
      ],
      "stateMutability": "pure",
      "type": "function",
      "constant": true
    },
    {
      "inputs": [],
      "name": "minStake",
      "outputs": [
        {
          "internalType": "uint256",
          "name": "",
          "type": "uint256"
        }
      ],
      "stateMutability": "pure",
      "type": "function",
      "constant": true
    },
    {
      "inputs": [],
      "name": "unstakeLockPeriod",
      "outputs": [
        {
          "internalType": "uint256",
          "name": "",
          "type": "uint256"
        }
      ],
      "stateMutability": "pure",
      "type": "function",
      "constant": true
    },
    {
      "inputs": [],
      "name": "withdrawLockPeriod",
      "outputs": [
        {
          "internalType": "uint256",
          "name": "",
          "type": "uint256"
        }
      ],
      "stateMutability": "pure",
      "type": "function",
      "constant": true
    },
    {
      "inputs": [],
      "name": "maxAltBlocks",
      "outputs": [
        {
          "internalType": "uint256",
          "name": "",
          "type": "uint256"
        }
      ],
      "stateMutability": "pure",
      "type": "function",
      "constant": true
    },
    {
      "inputs": [],
      "name": "epochLength",
      "outputs": [
        {
          "internalType": "uint256",
          "name": "",
          "type": "uint256"
        }
      ],
      "stateMutability": "pure",
      "type": "function",
      "constant": true
    },
    {
      "inputs": [],
      "name": "numStates",
      "outputs": [
        {
          "internalType": "uint256",
          "name": "",
          "type": "uint256"
        }
      ],
      "stateMutability": "pure",
      "type": "function",
      "constant": true
    },
    {
      "inputs": [],
      "name": "exposureDenominator",
      "outputs": [
        {
          "internalType": "uint256",
          "name": "",
          "type": "uint256"
        }
      ],
      "stateMutability": "pure",
      "type": "function",
      "constant": true
    },
    {
      "inputs": [],
      "name": "getJobConfirmerHash",
      "outputs": [
        {
          "internalType": "bytes32",
          "name": "",
          "type": "bytes32"
        }
      ],
      "stateMutability": "pure",
      "type": "function",
      "constant": true
    },
    {
      "inputs": [],
      "name": "getBlockConfirmerHash",
      "outputs": [
        {
          "internalType": "bytes32",
          "name": "",
          "type": "bytes32"
        }
      ],
      "stateMutability": "pure",
      "type": "function",
      "constant": true
    },
    {
      "inputs": [],
      "name": "getStakeModifierHash",
      "outputs": [
        {
          "internalType": "bytes32",
          "name": "",
          "type": "bytes32"
        }
      ],
      "stateMutability": "pure",
      "type": "function",
      "constant": true
    },
    {
      "inputs": [],
      "name": "getStakerActivityUpdaterHash",
      "outputs": [
        {
          "internalType": "bytes32",
          "name": "",
          "type": "bytes32"
        }
      ],
      "stateMutability": "pure",
      "type": "function",
      "constant": true
    },
    {
      "inputs": [],
      "name": "initialBlockReward",
      "outputs": [
        {
          "internalType": "uint256",
          "name": "",
          "type": "uint256"
        }
      ],
      "stateMutability": "pure",
      "type": "function",
      "constant": true
    },
    {
      "inputs": [],
      "name": "halvingInterval",
      "outputs": [
        {
          "internalType": "uint256",
          "name": "",
          "type": "uint256"
        }
      ],
      "stateMutability": "pure",
      "type": "function",
      "constant": true
    }
  ],
  "bytecode": "0x6102e1610026600b82828239805160001a60731461001957fe5b30600052607381538281f3fe730000000000000000000000000000000000000000301460806040526004361061012b5760003560e01c806380638d42116100b7578063c198f8ba1161007b578063c198f8ba146101b8578063d98b3ced146101c0578063e388a69e14610152578063f240f7c3146101c8578063f4f29c5b146101d05761012b565b806380638d42146101985780639cec6f8a146101a0578063a475b5dd146101a8578063a86f5a3f14610130578063b1cc4500146101b05761012b565b8063379597e0116100fe578063379597e01461015a5780633c7a3aff1461016257806357d775f8146101805780636a47aa06146101885780637f890b11146101905761012b565b80632628490f1461013057806326bf1c03146101305780633002c9ac1461014a578063375b3c0a14610152575b600080fd5b6101386101d8565b60408051918252519081900360200190f35b6101386101dd565b6101386101e3565b6101386101f0565b61016a6101f5565b6040805160ff9092168252519081900360200190f35b6101386101fa565b6101386101ff565b610138610206565b61013861022a565b61013861024e565b61016a6101d8565b610138610272565b61016a610278565b61013861027d565b61016a6102a1565b6101386102a6565b600190565b6103e890565b68056bc75e2d6310000090565b600590565b600090565b602890565b6298968090565b7fbe7b58e17bf6adaa0f209cd0db8b128282fc68a42f2dd649b4d8ea579f1b078f90565b7fdbaaaff2c3744aa215ebd99971829e1c1b728703a0bf252f96685d29011fc80490565b7f4cd3070aaa07d03ab33731cbabd0cb27eb9e074a9430ad006c96941d71b77ece90565b61271090565b600290565b7f18797bc7973e1dadee1895be2f1003818e30eae3b0e7a01eb9b2e66f3ea2771f90565b600390565b60049056fea2646970667358221220f3a4625d5fcc9b0d6c43abbf183304e2d1e11226966741b2a3ca0f1986e557dd64736f6c634300060b0033",
  "immutableReferences": {},
  "source": "pragma solidity 0.6.11;\n\n\nlibrary Constants {\n    function commit() public pure returns(uint8) { return(0);}\n    function reveal() public pure returns(uint8) { return(1);}\n    function propose() public pure returns(uint8) { return(2);}\n    function dispute() public pure returns(uint8) { return(3);}\n    // penalty not reveal = 0.01% per epch\n    function penaltyNotRevealNum() public pure returns(uint256) { return (1);}\n    function penaltyNotRevealDenom() public pure returns(uint256) { return (10000); }\n    // uint256 constant PENALTY_NOT_IN_ZONE_NUM = 99;\n    // uint256 constant PENALTY_NOT_IN_ZONE_DENOM = 100;\n    function minStake() public pure returns(uint256) { return(100*(10**uint256(18))); }\n    // uint256 constant REVEAL_REWARD = 5;\n    // function safetyMarginLower() public pure returns(uint256) { return(99); }\n    function unstakeLockPeriod() public pure returns(uint256) { return(1); }\n    function withdrawLockPeriod() public pure returns(uint256) { return(1); }\n    function maxAltBlocks() public pure returns(uint256) { return(5); }\n    function epochLength() public pure returns(uint256) { return(40); }\n    function numStates() public pure returns(uint256) { return(4); }\n    function exposureDenominator() public pure returns(uint256) { return(1000); }\n\n    function getJobConfirmerHash() public pure returns(bytes32) { return(0xbe7b58e17bf6adaa0f209cd0db8b128282fc68a42f2dd649b4d8ea579f1b078f); /*keccak256(\"JOB_CONFIRMER_ROLE\")*/}\n    function getBlockConfirmerHash() public pure returns(bytes32) { return(0x18797bc7973e1dadee1895be2f1003818e30eae3b0e7a01eb9b2e66f3ea2771f);/*keccak256(\"BLOCK_CONFIRMER_ROLE\"))*/}\n    function getStakeModifierHash() public pure returns(bytes32) { return(0xdbaaaff2c3744aa215ebd99971829e1c1b728703a0bf252f96685d29011fc804);/*keccak256(\"STAKE_MODIFIER_ROLE\"))*/}\n    function getStakerActivityUpdaterHash() public pure returns(bytes32) { return(0x4cd3070aaa07d03ab33731cbabd0cb27eb9e074a9430ad006c96941d71b77ece); /*keccak256(\"STAKER_ACTIVITY_UPDATER_ROLE\"))*/}\n \n    // Constants Concerned With BlockReward\n    // Please note we have to change this values as per tokenomics, they are now added just to have have blockreward function running\n    // We need constants such that we reach total mintable supply on summation\n    function initialBlockReward() public pure returns(uint256) { return(100*(10**uint256(18)));}\n    function halvingInterval() public pure returns(uint256) { return(10000000);}\n\n // Constants(0, 1, 2, 3, 1, 10000, 99, 100, 1000, 5, 5, 99, 1, 1);\n}\n",
  "sourcePath": "/Users/skanda/Projects/contracts/contracts/lib/Constants.sol",
  "compiler": {
    "name": "solc",
    "version": "0.6.11+commit.5ef660b1.Emscripten.clang"
  },
  "schemaVersion": "3.3.4",
  "updatedAt": "2021-04-04T21:18:47.101Z",
  "networkType": "ethereum",
  "devdoc": {
    "kind": "dev",
    "methods": {},
    "version": 1
  },
  "userdoc": {
    "kind": "user",
    "methods": {},
    "version": 1
  }
}