{
  "contractName": "Constants",
  "abi": [
    {
      "constant": true,
      "inputs": [],
      "name": "commit",
      "outputs": [
        {
          "name": "",
          "type": "uint8"
        }
      ],
      "payable": false,
      "stateMutability": "pure",
      "type": "function"
    },
    {
      "constant": true,
      "inputs": [],
      "name": "reveal",
      "outputs": [
        {
          "name": "",
          "type": "uint8"
        }
      ],
      "payable": false,
      "stateMutability": "pure",
      "type": "function"
    },
    {
      "constant": true,
      "inputs": [],
      "name": "propose",
      "outputs": [
        {
          "name": "",
          "type": "uint8"
        }
      ],
      "payable": false,
      "stateMutability": "pure",
      "type": "function"
    },
    {
      "constant": true,
      "inputs": [],
      "name": "dispute",
      "outputs": [
        {
          "name": "",
          "type": "uint8"
        }
      ],
      "payable": false,
      "stateMutability": "pure",
      "type": "function"
    },
    {
      "constant": true,
      "inputs": [],
      "name": "penaltyNotRevealNum",
      "outputs": [
        {
          "name": "",
          "type": "uint256"
        }
      ],
      "payable": false,
      "stateMutability": "pure",
      "type": "function"
    },
    {
      "constant": true,
      "inputs": [],
      "name": "penaltyNotRevealDenom",
      "outputs": [
        {
          "name": "",
          "type": "uint256"
        }
      ],
      "payable": false,
      "stateMutability": "pure",
      "type": "function"
    },
    {
      "constant": true,
      "inputs": [],
      "name": "minStake",
      "outputs": [
        {
          "name": "",
          "type": "uint256"
        }
      ],
      "payable": false,
      "stateMutability": "pure",
      "type": "function"
    },
    {
      "constant": true,
      "inputs": [],
      "name": "blockReward",
      "outputs": [
        {
          "name": "",
          "type": "uint8"
        }
      ],
      "payable": false,
      "stateMutability": "pure",
      "type": "function"
    },
    {
      "constant": true,
      "inputs": [],
      "name": "safetyMarginLower",
      "outputs": [
        {
          "name": "",
          "type": "uint256"
        }
      ],
      "payable": false,
      "stateMutability": "pure",
      "type": "function"
    },
    {
      "constant": true,
      "inputs": [],
      "name": "unstakeLockPeriod",
      "outputs": [
        {
          "name": "",
          "type": "uint256"
        }
      ],
      "payable": false,
      "stateMutability": "pure",
      "type": "function"
    },
    {
      "constant": true,
      "inputs": [],
      "name": "withdrawLockPeriod",
      "outputs": [
        {
          "name": "",
          "type": "uint256"
        }
      ],
      "payable": false,
      "stateMutability": "pure",
      "type": "function"
    },
    {
      "constant": true,
      "inputs": [],
      "name": "maxAltBlocks",
      "outputs": [
        {
          "name": "",
          "type": "uint256"
        }
      ],
      "payable": false,
      "stateMutability": "pure",
      "type": "function"
    },
    {
      "constant": true,
      "inputs": [],
      "name": "epochLength",
      "outputs": [
        {
          "name": "",
          "type": "uint256"
        }
      ],
      "payable": false,
      "stateMutability": "pure",
      "type": "function"
    },
    {
      "constant": true,
      "inputs": [],
      "name": "numStates",
      "outputs": [
        {
          "name": "",
          "type": "uint256"
        }
      ],
      "payable": false,
      "stateMutability": "pure",
      "type": "function"
    },
    {
      "constant": true,
      "inputs": [],
      "name": "exposureDenominator",
      "outputs": [
        {
          "name": "",
          "type": "uint256"
        }
      ],
      "payable": false,
      "stateMutability": "pure",
      "type": "function"
    }
  ],
  "bytecode": "0x6103a2610026600b82828239805160001a60731461001957fe5b30600052607381538281f3fe73000000000000000000000000000000000000000030146080604052600436106100ff5760003560e01c80633c7a3aff116100a1578063b1cc450011610070578063b1cc450014610260578063c198f8ba1461027e578063f240f7c3146102a2578063f4f29c5b146102c6576100ff565b80633c7a3aff146101dc57806357d775f814610200578063a475b5dd1461021e578063a86f5a3f14610242576100ff565b80632e7d6857116100dd5780632e7d6857146101645780633002c9ac14610182578063375b3c0a146101a0578063379597e0146101be576100ff565b80630ac168a1146101045780632628490f1461012857806326bf1c0314610146575b600080fd5b61010c6102e4565b604051808260ff1660ff16815260200191505060405180910390f35b6101306102ed565b6040518082815260200191505060405180910390f35b61014e6102f6565b6040518082815260200191505060405180910390f35b61016c6102ff565b6040518082815260200191505060405180910390f35b61018a610308565b6040518082815260200191505060405180910390f35b6101a8610312565b6040518082815260200191505060405180910390f35b6101c661031c565b6040518082815260200191505060405180910390f35b6101e4610325565b604051808260ff1660ff16815260200191505060405180910390f35b61020861032d565b6040518082815260200191505060405180910390f35b610226610336565b604051808260ff1660ff16815260200191505060405180910390f35b61024a61033f565b6040518082815260200191505060405180910390f35b610268610348565b6040518082815260200191505060405180910390f35b610286610352565b604051808260ff1660ff16815260200191505060405180910390f35b6102aa61035b565b604051808260ff1660ff16815260200191505060405180910390f35b6102ce610364565b6040518082815260200191505060405180910390f35b60006005905090565b60006001905090565b60006001905090565b60006063905090565b60006103e8905090565b60006103e8905090565b60006005905090565b600080905090565b60006028905090565b60006001905090565b60006001905090565b6000612710905090565b60006002905090565b60006003905090565b6000600490509056fea265627a7a7230582049a2b60eafb5090af37c6e86fb497caff047b629c14069243b68ca76ca04400f64736f6c634300050a0032",
  "source": "pragma solidity 0.5.10;\n\n\nlibrary Constants {\n    function commit() public pure returns(uint8) { return(0);}\n    function reveal() public pure returns(uint8) { return(1);}\n    function propose() public pure returns(uint8) { return(2);}\n    function dispute() public pure returns(uint8) { return(3);}\n    function penaltyNotRevealNum() public pure returns(uint256) { return (1);}\n    function penaltyNotRevealDenom() public pure returns(uint256) { return (10000); }\n    // uint256 constant PENALTY_NOT_IN_ZONE_NUM = 99;\n    // uint256 constant PENALTY_NOT_IN_ZONE_DENOM = 100;\n    function minStake() public pure returns(uint256) { return(1000); }\n    function blockReward() public pure returns(uint8) { return(5);}\n    // uint256 constant REVEAL_REWARD = 5;\n    function safetyMarginLower() public pure returns(uint256) { return(99); }\n    function unstakeLockPeriod() public pure returns(uint256) { return(1); }\n    function withdrawLockPeriod() public pure returns(uint256) { return(1); }\n    function maxAltBlocks() public pure returns(uint256) { return(5); }\n    function epochLength() public pure returns(uint256) { return(40); }\n    function numStates() public pure returns(uint256) { return(4); }\n    function exposureDenominator() public pure returns(uint256) { return(1000); }\n\n // Constants(0, 1, 2, 3, 1, 10000, 99, 100, 1000, 5, 5, 99, 1, 1);\n}\n",
  "sourcePath": "/home/hrishi/contracts/contracts/lib/Constants.sol",
  "compiler": {
    "name": "solc",
    "version": "0.5.10+commit.5a6ea5b1.Emscripten.clang"
  },
  "schemaVersion": "3.0.11",
  "updatedAt": "2019-09-25T08:31:55.474Z",
  "devdoc": {
    "methods": {}
  },
  "userdoc": {
    "methods": {}
  }
}