{
  "contractName": "Delegator",
  "abi": [
    {
      "constant": true,
      "inputs": [],
      "name": "jobManager",
      "outputs": [
        {
          "name": "",
          "type": "address"
        }
      ],
      "payable": false,
      "stateMutability": "view",
      "type": "function"
    },
    {
      "constant": true,
      "inputs": [],
      "name": "owner",
      "outputs": [
        {
          "name": "",
          "type": "address"
        }
      ],
      "payable": false,
      "stateMutability": "view",
      "type": "function"
    },
    {
      "constant": true,
      "inputs": [],
      "name": "delegate",
      "outputs": [
        {
          "name": "",
          "type": "address"
        }
      ],
      "payable": false,
      "stateMutability": "view",
      "type": "function"
    },
    {
      "payable": true,
      "stateMutability": "payable",
      "type": "fallback"
    },
    {
      "constant": false,
      "inputs": [
        {
          "name": "newDelegateAddress",
          "type": "address"
        }
      ],
      "name": "upgradeDelegate",
      "outputs": [],
      "payable": false,
      "stateMutability": "nonpayable",
      "type": "function"
    },
    {
      "constant": true,
      "inputs": [
        {
          "name": "id",
          "type": "uint256"
        }
      ],
      "name": "getResult",
      "outputs": [
        {
          "name": "",
          "type": "uint256"
        }
      ],
      "payable": false,
      "stateMutability": "view",
      "type": "function"
    }
  ],
  "bytecode": "0x608060405233600160006101000a81548173ffffffffffffffffffffffffffffffffffffffff021916908373ffffffffffffffffffffffffffffffffffffffff16021790555034801561005157600080fd5b506104eb806100616000396000f3fe60806040526004361061004a5760003560e01c80632da4e75c1461010b5780633df395a31461015c5780638da5cb5b146101b3578063995e43391461020a578063c89e436114610259575b600073ffffffffffffffffffffffffffffffffffffffff166000809054906101000a900473ffffffffffffffffffffffffffffffffffffffff1673ffffffffffffffffffffffffffffffffffffffff1614156100a557610109565b60008060009054906101000a900473ffffffffffffffffffffffffffffffffffffffff169050604051601f19601f36011680820160405236600083376000803684865af48060008114610104576040513d81016040523d6000823e3d81f35b600080fd5b005b34801561011757600080fd5b5061015a6004803603602081101561012e57600080fd5b81019080803573ffffffffffffffffffffffffffffffffffffffff1690602001909291905050506102b0565b005b34801561016857600080fd5b5061017161038e565b604051808273ffffffffffffffffffffffffffffffffffffffff1673ffffffffffffffffffffffffffffffffffffffff16815260200191505060405180910390f35b3480156101bf57600080fd5b506101c86103b4565b604051808273ffffffffffffffffffffffffffffffffffffffff1673ffffffffffffffffffffffffffffffffffffffff16815260200191505060405180910390f35b34801561021657600080fd5b506102436004803603602081101561022d57600080fd5b81019080803590602001909291905050506103da565b6040518082815260200191505060405180910390f35b34801561026557600080fd5b5061026e610491565b604051808273ffffffffffffffffffffffffffffffffffffffff1673ffffffffffffffffffffffffffffffffffffffff16815260200191505060405180910390f35b600160009054906101000a900473ffffffffffffffffffffffffffffffffffffffff1673ffffffffffffffffffffffffffffffffffffffff163373ffffffffffffffffffffffffffffffffffffffff161461030a57600080fd5b806000806101000a81548173ffffffffffffffffffffffffffffffffffffffff021916908373ffffffffffffffffffffffffffffffffffffffff16021790555080600260006101000a81548173ffffffffffffffffffffffffffffffffffffffff021916908373ffffffffffffffffffffffffffffffffffffffff16021790555050565b600260009054906101000a900473ffffffffffffffffffffffffffffffffffffffff1681565b600160009054906101000a900473ffffffffffffffffffffffffffffffffffffffff1681565b6000600260009054906101000a900473ffffffffffffffffffffffffffffffffffffffff1673ffffffffffffffffffffffffffffffffffffffff1663995e4339836040518263ffffffff1660e01b81526004018082815260200191505060206040518083038186803b15801561044f57600080fd5b505afa158015610463573d6000803e3d6000fd5b505050506040513d602081101561047957600080fd5b81019080805190602001909291905050509050919050565b6000809054906101000a900473ffffffffffffffffffffffffffffffffffffffff168156fea265627a7a72305820649b7698b401063b368c85812c9978bbdc37e45f2d893cd2dd7857db9b34097c64736f6c634300050a0032",
  "source": "pragma solidity 0.5.10;\nimport \"./Core/IJobManager.sol\";\n\n\ncontract Delegator {\n    address public delegate;\n    address public owner = msg.sender;\n    IJobManager public jobManager;\n\n\n    // function Delegator(IController _controller, bytes32 _controllerLookupName) public {\n    //     controller = _controller;\n    //     controllerLookupName = _controllerLookupName;\n    // }\n\n    function upgradeDelegate(address newDelegateAddress) public {\n            require(msg.sender == owner);\n            delegate = newDelegateAddress;\n            jobManager = IJobManager(newDelegateAddress);\n    }\n\n    function getResult(uint256 id) public view returns(uint256) {\n        return jobManager.getResult(id);\n    }\n\n    function() external payable {\n        // Do nothing if we haven't properly set up the delegator to delegate calls\n        if (delegate == 0x0000000000000000000000000000000000000000) {\n            return;\n        }\n\n        // Get the delegation target contract\n        address _target = delegate;\n\n        assembly {\n            //0x40 is the address where the next free memory slot is stored in Solidity\n            let _calldataMemoryOffset := mload(0x40)\n            // new \"memory end\" including padding. The bitwise operations here ensure we get rounded up to the nearest 32 byte boundary\n            let _size := and(add(calldatasize, 0x1f), not(0x1f))\n            // Update the pointer at 0x40 to point at new free memory location so any theoretical allocation doesn't stomp our memory in this call\n            mstore(0x40, add(_calldataMemoryOffset, _size))\n            // Copy method signature and parameters of this call into memory\n            calldatacopy(_calldataMemoryOffset, 0x0, calldatasize)\n            // Call the actual method via delegation\n            let _retval := delegatecall(gas, _target, _calldataMemoryOffset, calldatasize, 0, 0)\n            switch _retval\n            case 0 {\n                // 0 == it threw, so we revert\n                revert(0,0)\n            } default {\n                // If the call succeeded return the return data from the delegate call\n                let _returndataMemoryOffset := mload(0x40)\n                // Update the pointer at 0x40 again to point at new free memory location so any theoretical allocation doesn't stomp our memory in this call\n                mstore(0x40, add(_returndataMemoryOffset, returndatasize))\n                returndatacopy(_returndataMemoryOffset, 0x0, returndatasize)\n                return(_returndataMemoryOffset, returndatasize)\n            }\n        }\n    }\n}\n",
  "sourcePath": "/Users/hrishi/contracts/contracts/Delegator.sol",
  "compiler": {
    "name": "solc",
    "version": "0.5.10+commit.5a6ea5b1.Emscripten.clang"
  },
  "schemaVersion": "3.0.11",
  "updatedAt": "2019-10-03T08:32:04.542Z",
  "devdoc": {
    "methods": {}
  },
  "userdoc": {
    "methods": {}
  }
}