{
  "contractName": "Delegator",
  "abi": [
    {
      "constant": true,
      "inputs": [],
      "name": "jobManager",
      "outputs": [
        {
          "name": "",
          "type": "address"
        }
      ],
      "payable": false,
      "stateMutability": "view",
      "type": "function"
    },
    {
      "constant": true,
      "inputs": [],
      "name": "owner",
      "outputs": [
        {
          "name": "",
          "type": "address"
        }
      ],
      "payable": false,
      "stateMutability": "view",
      "type": "function"
    },
    {
      "constant": true,
      "inputs": [],
      "name": "delegate",
      "outputs": [
        {
          "name": "",
          "type": "address"
        }
      ],
      "payable": false,
      "stateMutability": "view",
      "type": "function"
    },
    {
      "constant": false,
      "inputs": [
        {
          "name": "newDelegateAddress",
          "type": "address"
        }
      ],
      "name": "upgradeDelegate",
      "outputs": [],
      "payable": false,
      "stateMutability": "nonpayable",
      "type": "function"
    },
    {
      "constant": true,
      "inputs": [
        {
          "name": "id",
          "type": "uint256"
        }
      ],
      "name": "getResult",
      "outputs": [
        {
          "name": "",
          "type": "uint256"
        }
      ],
      "payable": false,
      "stateMutability": "view",
      "type": "function"
    },
    {
      "constant": true,
      "inputs": [
        {
          "name": "id",
          "type": "uint256"
        }
      ],
      "name": "getJob",
      "outputs": [
        {
          "name": "url",
          "type": "string"
        },
        {
          "name": "selector",
          "type": "string"
        },
        {
          "name": "repeat",
          "type": "bool"
        },
        {
          "name": "result",
          "type": "uint256"
        }
      ],
      "payable": false,
      "stateMutability": "view",
      "type": "function"
    }
  ],
  "bytecode": "0x608060405233600160006101000a81548173ffffffffffffffffffffffffffffffffffffffff021916908373ffffffffffffffffffffffffffffffffffffffff16021790555034801561005157600080fd5b506108d9806100616000396000f3fe608060405234801561001057600080fd5b506004361061007f576000357c0100000000000000000000000000000000000000000000000000000000900480632da4e75c146100845780633df395a3146100a05780638da5cb5b146100be578063995e4339146100dc578063bf22c4571461010c578063c89e43611461013f575b600080fd5b61009e60048036036100999190810190610505565b61015d565b005b6100a861023b565b6040516100b591906106a3565b60405180910390f35b6100c6610261565b6040516100d39190610688565b60405180910390f35b6100f660048036036100f191908101906105c1565b610287565b6040516101039190610711565b60405180910390f35b610126600480360361012191908101906105c1565b610357565b60405161013694939291906106be565b60405180910390f35b610147610438565b6040516101549190610688565b60405180910390f35b600160009054906101000a900473ffffffffffffffffffffffffffffffffffffffff1673ffffffffffffffffffffffffffffffffffffffff163373ffffffffffffffffffffffffffffffffffffffff16146101b757600080fd5b806000806101000a81548173ffffffffffffffffffffffffffffffffffffffff021916908373ffffffffffffffffffffffffffffffffffffffff16021790555080600260006101000a81548173ffffffffffffffffffffffffffffffffffffffff021916908373ffffffffffffffffffffffffffffffffffffffff16021790555050565b600260009054906101000a900473ffffffffffffffffffffffffffffffffffffffff1681565b600160009054906101000a900473ffffffffffffffffffffffffffffffffffffffff1681565b6000600260009054906101000a900473ffffffffffffffffffffffffffffffffffffffff1673ffffffffffffffffffffffffffffffffffffffff1663995e4339836040518263ffffffff167c01000000000000000000000000000000000000000000000000000000000281526004016103009190610711565b60206040518083038186803b15801561031857600080fd5b505afa15801561032c573d6000803e3d6000fd5b505050506040513d601f19601f8201168201806040525061035091908101906105ea565b9050919050565b606080600080600260009054906101000a900473ffffffffffffffffffffffffffffffffffffffff1673ffffffffffffffffffffffffffffffffffffffff1663bf22c457866040518263ffffffff167c01000000000000000000000000000000000000000000000000000000000281526004016103d49190610711565b60006040518083038186803b1580156103ec57600080fd5b505afa158015610400573d6000803e3d6000fd5b505050506040513d6000823e3d601f19601f82011682018060405250610429919081019061052e565b93509350935093509193509193565b6000809054906101000a900473ffffffffffffffffffffffffffffffffffffffff1681565b60008135905061046c81610851565b92915050565b60008151905061048181610868565b92915050565b600082601f83011261049857600080fd5b81516104ab6104a682610759565b61072c565b915080825260208301602083018583830111156104c757600080fd5b6104d283828461080d565b50505092915050565b6000813590506104ea8161087f565b92915050565b6000815190506104ff8161087f565b92915050565b60006020828403121561051757600080fd5b60006105258482850161045d565b91505092915050565b6000806000806080858703121561054457600080fd5b600085015167ffffffffffffffff81111561055e57600080fd5b61056a87828801610487565b945050602085015167ffffffffffffffff81111561058757600080fd5b61059387828801610487565b93505060406105a487828801610472565b92505060606105b5878288016104f0565b91505092959194509250565b6000602082840312156105d357600080fd5b60006105e1848285016104db565b91505092915050565b6000602082840312156105fc57600080fd5b600061060a848285016104f0565b91505092915050565b61061c816107a1565b82525050565b61062b816107b3565b82525050565b61063a816107e9565b82525050565b600061064b82610785565b6106558185610790565b935061066581856020860161080d565b61066e81610840565b840191505092915050565b610682816107df565b82525050565b600060208201905061069d6000830184610613565b92915050565b60006020820190506106b86000830184610631565b92915050565b600060808201905081810360008301526106d88187610640565b905081810360208301526106ec8186610640565b90506106fb6040830185610622565b6107086060830184610679565b95945050505050565b60006020820190506107266000830184610679565b92915050565b6000604051905081810181811067ffffffffffffffff8211171561074f57600080fd5b8060405250919050565b600067ffffffffffffffff82111561077057600080fd5b601f19601f8301169050602081019050919050565b600081519050919050565b600082825260208201905092915050565b60006107ac826107bf565b9050919050565b60008115159050919050565b600073ffffffffffffffffffffffffffffffffffffffff82169050919050565b6000819050919050565b60006107f4826107fb565b9050919050565b6000610806826107bf565b9050919050565b60005b8381101561082b578082015181840152602081019050610810565b8381111561083a576000848401525b50505050565b6000601f19601f8301169050919050565b61085a816107a1565b811461086557600080fd5b50565b610871816107b3565b811461087c57600080fd5b50565b610888816107df565b811461089357600080fd5b5056fea365627a7a7230582098c435ee0cfe15979f577114f91e60e66b1f9f73ae2b90a02fc8835c88c2d0806c6578706572696d656e74616cf564736f6c634300050a0040",
  "source": "pragma solidity 0.5.10;\npragma experimental ABIEncoderV2;\n\nimport \"./Core/IJobManager.sol\";\n\n\ncontract Delegator {\n    address public delegate;\n    address public owner = msg.sender;\n    IJobManager public jobManager;\n\n\n    // function Delegator(IController _controller, bytes32 _controllerLookupName) public {\n    //     controller = _controller;\n    //     controllerLookupName = _controllerLookupName;\n    // }\n\n    function upgradeDelegate(address newDelegateAddress) public {\n            require(msg.sender == owner);\n            delegate = newDelegateAddress;\n            jobManager = IJobManager(newDelegateAddress);\n    }\n\n    function getResult(uint256 id) public view returns(uint256) {\n        return jobManager.getResult(id);\n    }\n\n    function getJob(uint256 id) external view returns(string memory url, string memory selector, bool repeat, uint256 result) {\n            return jobManager.getJob(id);\n    }\n\n\n    //\n    // function() external payable {\n    //     // Do nothing if we haven't properly set up the delegator to delegate calls\n    //     if (delegate == 0x0000000000000000000000000000000000000000) {\n    //         return;\n    //     }\n    //\n    //     // Get the delegation target contract\n    //     address _target = delegate;\n    //\n    //     assembly {\n    //         //0x40 is the address where the next free memory slot is stored in Solidity\n    //         let _calldataMemoryOffset := mload(0x40)\n    //         // new \"memory end\" including padding. The bitwise operations here ensure we get rounded up to the nearest 32 byte boundary\n    //         let _size := and(add(calldatasize, 0x1f), not(0x1f))\n    //         // Update the pointer at 0x40 to point at new free memory location so any theoretical allocation doesn't stomp our memory in this call\n    //         mstore(0x40, add(_calldataMemoryOffset, _size))\n    //         // Copy method signature and parameters of this call into memory\n    //         calldatacopy(_calldataMemoryOffset, 0x0, calldatasize)\n    //         // Call the actual method via delegation\n    //         let _retval := delegatecall(gas, _target, _calldataMemoryOffset, calldatasize, 0, 0)\n    //         switch _retval\n    //         case 0 {\n    //             // 0 == it threw, so we revert\n    //             revert(0,0)\n    //         } default {\n    //             // If the call succeeded return the return data from the delegate call\n    //             let _returndataMemoryOffset := mload(0x40)\n    //             // Update the pointer at 0x40 again to point at new free memory location so any theoretical allocation doesn't stomp our memory in this call\n    //             mstore(0x40, add(_returndataMemoryOffset, returndatasize))\n    //             returndatacopy(_returndataMemoryOffset, 0x0, returndatasize)\n    //             return(_returndataMemoryOffset, returndatasize)\n    //         }\n    //     }\n    // }\n}\n",
  "sourcePath": "/Users/hrishi/contracts/contracts/Delegator.sol",
  "compiler": {
    "name": "solc",
    "version": "0.5.10+commit.5a6ea5b1.Emscripten.clang"
  },
  "schemaVersion": "3.0.16",
  "updatedAt": "2019-10-12T11:21:06.314Z",
  "devdoc": {
    "methods": {}
  },
  "userdoc": {
    "methods": {}
  }
}