{
  "contractName": "JobManager",
  "abi": [
    {
      "constant": true,
      "inputs": [
        {
          "name": "",
          "type": "uint256"
        }
      ],
      "name": "jobs",
      "outputs": [
        {
          "name": "id",
          "type": "uint256"
        },
        {
          "name": "epoch",
          "type": "uint256"
        },
        {
          "name": "url",
          "type": "string"
        },
        {
          "name": "selector",
          "type": "string"
        },
        {
          "name": "name",
          "type": "string"
        },
        {
          "name": "repeat",
          "type": "bool"
        },
        {
          "name": "creator",
          "type": "address"
        },
        {
          "name": "credit",
          "type": "uint256"
        },
        {
          "name": "fulfilled",
          "type": "bool"
        },
        {
          "name": "result",
          "type": "uint256"
        }
      ],
      "payable": false,
      "stateMutability": "view",
      "type": "function"
    },
    {
      "constant": true,
      "inputs": [
        {
          "name": "account",
          "type": "address"
        }
      ],
      "name": "isWriter",
      "outputs": [
        {
          "name": "",
          "type": "bool"
        }
      ],
      "payable": false,
      "stateMutability": "view",
      "type": "function"
    },
    {
      "constant": true,
      "inputs": [],
      "name": "stateManager",
      "outputs": [
        {
          "name": "",
          "type": "address"
        }
      ],
      "payable": false,
      "stateMutability": "view",
      "type": "function"
    },
    {
      "constant": true,
      "inputs": [],
      "name": "numJobs",
      "outputs": [
        {
          "name": "",
          "type": "uint256"
        }
      ],
      "payable": false,
      "stateMutability": "view",
      "type": "function"
    },
    {
      "constant": false,
      "inputs": [
        {
          "name": "account",
          "type": "address"
        }
      ],
      "name": "addWriter",
      "outputs": [],
      "payable": false,
      "stateMutability": "nonpayable",
      "type": "function"
    },
    {
      "constant": false,
      "inputs": [],
      "name": "renounceWriter",
      "outputs": [],
      "payable": false,
      "stateMutability": "nonpayable",
      "type": "function"
    },
    {
      "anonymous": false,
      "inputs": [
        {
          "indexed": false,
          "name": "id",
          "type": "uint256"
        },
        {
          "indexed": false,
          "name": "epoch",
          "type": "uint256"
        },
        {
          "indexed": false,
          "name": "url",
          "type": "string"
        },
        {
          "indexed": false,
          "name": "selector",
          "type": "string"
        },
        {
          "indexed": false,
          "name": "name",
          "type": "string"
        },
        {
          "indexed": false,
          "name": "repeat",
          "type": "bool"
        },
        {
          "indexed": false,
          "name": "creator",
          "type": "address"
        },
        {
          "indexed": false,
          "name": "credit",
          "type": "uint256"
        },
        {
          "indexed": false,
          "name": "timestamp",
          "type": "uint256"
        }
      ],
      "name": "JobCreated",
      "type": "event"
    },
    {
      "anonymous": false,
      "inputs": [
        {
          "indexed": false,
          "name": "id",
          "type": "uint256"
        },
        {
          "indexed": false,
          "name": "value",
          "type": "uint256"
        },
        {
          "indexed": false,
          "name": "epoch",
          "type": "uint256"
        },
        {
          "indexed": false,
          "name": "url",
          "type": "string"
        },
        {
          "indexed": false,
          "name": "selector",
          "type": "string"
        },
        {
          "indexed": false,
          "name": "repeat",
          "type": "bool"
        },
        {
          "indexed": false,
          "name": "creator",
          "type": "address"
        },
        {
          "indexed": false,
          "name": "credit",
          "type": "uint256"
        },
        {
          "indexed": false,
          "name": "fulfilled",
          "type": "bool"
        },
        {
          "indexed": false,
          "name": "timestamp",
          "type": "uint256"
        }
      ],
      "name": "JobReported",
      "type": "event"
    },
    {
      "anonymous": false,
      "inputs": [
        {
          "indexed": true,
          "name": "account",
          "type": "address"
        }
      ],
      "name": "WriterAdded",
      "type": "event"
    },
    {
      "anonymous": false,
      "inputs": [
        {
          "indexed": true,
          "name": "account",
          "type": "address"
        }
      ],
      "name": "WriterRemoved",
      "type": "event"
    },
    {
      "constant": false,
      "inputs": [
        {
          "name": "_stateManagerAddress",
          "type": "address"
        }
      ],
      "name": "init",
      "outputs": [],
      "payable": false,
      "stateMutability": "nonpayable",
      "type": "function"
    },
    {
      "constant": false,
      "inputs": [
        {
          "name": "url",
          "type": "string"
        },
        {
          "name": "selector",
          "type": "string"
        },
        {
          "name": "name",
          "type": "string"
        },
        {
          "name": "repeat",
          "type": "bool"
        }
      ],
      "name": "createJob",
      "outputs": [],
      "payable": true,
      "stateMutability": "payable",
      "type": "function"
    },
    {
      "constant": false,
      "inputs": [
        {
          "name": "jobId",
          "type": "uint256"
        },
        {
          "name": "value",
          "type": "uint256"
        }
      ],
      "name": "fulfillJob",
      "outputs": [],
      "payable": false,
      "stateMutability": "nonpayable",
      "type": "function"
    },
    {
      "constant": true,
      "inputs": [
        {
          "name": "id",
          "type": "uint256"
        }
      ],
      "name": "getResult",
      "outputs": [
        {
          "name": "",
          "type": "uint256"
        }
      ],
      "payable": false,
      "stateMutability": "view",
      "type": "function"
    },
    {
      "constant": true,
      "inputs": [
        {
          "name": "id",
          "type": "uint256"
        }
      ],
      "name": "getJob",
      "outputs": [
        {
          "name": "url",
          "type": "string"
        },
        {
          "name": "selector",
          "type": "string"
        },
        {
          "name": "repeat",
          "type": "bool"
        },
        {
          "name": "result",
          "type": "uint256"
        }
      ],
      "payable": false,
      "stateMutability": "view",
      "type": "function"
    }
  ],
  "bytecode": "0x608060405262000015336200001b60201b60201c565b620002f9565b620000368160006200007c60201b62000fbf1790919060201c565b8073ffffffffffffffffffffffffffffffffffffffff167f6ff3aa2ea7b53070f6d9d07a445d338d89e8edef44250ffa8be19f53910d4a2e60405160405180910390a250565b6200008e82826200012f60201b60201c565b15620000d1576040517f08c379a0000000000000000000000000000000000000000000000000000000008152600401620000c890620002a4565b60405180910390fd5b60018260000160008373ffffffffffffffffffffffffffffffffffffffff1673ffffffffffffffffffffffffffffffffffffffff16815260200190815260200160002060006101000a81548160ff0219169083151502179055505050565b60008073ffffffffffffffffffffffffffffffffffffffff168273ffffffffffffffffffffffffffffffffffffffff161415620001a3576040517f08c379a00000000000000000000000000000000000000000000000000000000081526004016200019a90620002c6565b60405180910390fd5b8260000160008373ffffffffffffffffffffffffffffffffffffffff1673ffffffffffffffffffffffffffffffffffffffff16815260200190815260200160002060009054906101000a900460ff16905092915050565b600062000209601f83620002e8565b91507f526f6c65733a206163636f756e7420616c72656164792068617320726f6c65006000830152602082019050919050565b60006200024b602283620002e8565b91507f526f6c65733a206163636f756e7420697320746865207a65726f20616464726560008301527f73730000000000000000000000000000000000000000000000000000000000006020830152604082019050919050565b60006020820190508181036000830152620002bf81620001fa565b9050919050565b60006020820190508181036000830152620002e1816200023c565b9050919050565b600082825260208201905092915050565b611bf980620003096000396000f3fe60806040526004361061009c5760003560e01c8063628aff1d11610064578063628aff1d146101a15780639212051c146101bd578063995e4339146101e8578063bf22c45714610225578063da2824a814610265578063df4eb59c1461028e5761009c565b8063180aedf3146100a157806319ab453c146100e75780632b29ba23146101105780632e716fb11461014d57806356350bdf14610178575b600080fd5b3480156100ad57600080fd5b506100c860048036036100c391908101906113a0565b6102a5565b6040516100de9a999897969594939291906118e5565b60405180910390f35b3480156100f357600080fd5b5061010e600480360361010991908101906112be565b6104fb565b005b34801561011c57600080fd5b50610137600480360361013291908101906112be565b61053f565b6040516101449190611719565b60405180910390f35b34801561015957600080fd5b5061016261055c565b60405161016f9190611734565b60405180910390f35b34801561018457600080fd5b5061019f600480360361019a91908101906113f2565b610582565b005b6101bb60048036036101b691908101906112e7565b610765565b005b3480156101c957600080fd5b506101d2610aca565b6040516101df9190611822565b60405180910390f35b3480156101f457600080fd5b5061020f600480360361020a91908101906113a0565b610ad0565b60405161021c9190611822565b60405180910390f35b34801561023157600080fd5b5061024c600480360361024791908101906113a0565b610af0565b60405161025c949392919061174f565b60405180910390f35b34801561027157600080fd5b5061028c600480360361028791908101906112be565b610de4565b005b34801561029a57600080fd5b506102a3610e38565b005b6001602052806000526040600020600091509050806000015490806001015490806002018054600181600116156101000203166002900480601f01602080910402602001604051908101604052809291908181526020018280546001816001161561010002031660029004801561035d5780601f106103325761010080835404028352916020019161035d565b820191906000526020600020905b81548152906001019060200180831161034057829003601f168201915b505050505090806003018054600181600116156101000203166002900480601f0160208091040260200160405190810160405280929190818152602001828054600181600116156101000203166002900480156103fb5780601f106103d0576101008083540402835291602001916103fb565b820191906000526020600020905b8154815290600101906020018083116103de57829003601f168201915b505050505090806004018054600181600116156101000203166002900480601f0160208091040260200160405190810160405280929190818152602001828054600181600116156101000203166002900480156104995780601f1061046e57610100808354040283529160200191610499565b820191906000526020600020905b81548152906001019060200180831161047c57829003601f168201915b5050505050908060050160009054906101000a900460ff16908060050160019054906101000a900473ffffffffffffffffffffffffffffffffffffffff16908060060154908060070160009054906101000a900460ff1690806008015490508a565b80600360006101000a81548173ffffffffffffffffffffffffffffffffffffffff021916908373ffffffffffffffffffffffffffffffffffffffff16021790555050565b6000610555826000610e4390919063ffffffff16565b9050919050565b600360009054906101000a900473ffffffffffffffffffffffffffffffffffffffff1681565b61058b3361053f565b6105ca576040517f08c379a00000000000000000000000000000000000000000000000000000000081526004016105c190611802565b60405180910390fd5b60006001600084815260200190815260200160002090506000600360009054906101000a900473ffffffffffffffffffffffffffffffffffffffff1673ffffffffffffffffffffffffffffffffffffffff1663757991a86040518163ffffffff1660e01b815260040160206040518083038186803b15801561064b57600080fd5b505afa15801561065f573d6000803e3d6000fd5b505050506040513d601f19601f8201168201806040525061068391908101906113c9565b90508160050160009054906101000a900460ff166106b95760018260070160006101000a81548160ff0219169083151502179055505b7f445b511765f4a3a4e2341247fec72f6a760afc23b83c59fa5572ae81df3939c88260000154848385600201866003018760050160009054906101000a900460ff168860050160019054906101000a900473ffffffffffffffffffffffffffffffffffffffff1689600601548a60070160009054906101000a900460ff164260405161074e9a99989796959493929190611996565b60405180910390a182826008018190555050505050565b6001600254016002819055506000600360009054906101000a900473ffffffffffffffffffffffffffffffffffffffff1673ffffffffffffffffffffffffffffffffffffffff1663757991a86040518163ffffffff1660e01b815260040160206040518083038186803b1580156107db57600080fd5b505afa1580156107ef573d6000803e3d6000fd5b505050506040513d601f19601f8201168201806040525061081391908101906113c9565b905061081d61110e565b60405180610140016040528060025481526020018381526020018a8a8080601f016020809104026020016040519081016040528093929190818152602001838380828437600081840152601f19601f82011690508083019250505050505050815260200188888080601f016020809104026020016040519081016040528093929190818152602001838380828437600081840152601f19601f82011690508083019250505050505050815260200186868080601f016020809104026020016040519081016040528093929190818152602001838380828437600081840152601f19601f82011690508083019250505050505050815260200184151581526020013373ffffffffffffffffffffffffffffffffffffffff16815260200134815260200160001515815260200160008152509050806001600060025481526020019081526020016000206000820151816000015560208201518160010155604082015181600201908051906020019061099592919061117b565b5060608201518160030190805190602001906109b292919061117b565b5060808201518160040190805190602001906109cf92919061117b565b5060a08201518160050160006101000a81548160ff02191690831515021790555060c08201518160050160016101000a81548173ffffffffffffffffffffffffffffffffffffffff021916908373ffffffffffffffffffffffffffffffffffffffff16021790555060e082015181600601556101008201518160070160006101000a81548160ff02191690831515021790555061012082015181600801559050507fd4ae17fdeb78e69409330361e8f8475f8027928c6f28eae2195e5ae56570aba0600254838b8b8b8b8b8b8b333442604051610ab79c9b9a9998979695949392919061183d565b60405180910390a1505050505050505050565b60025481565b600060016000838152602001908152602001600020600801549050919050565b606080600080610afe61110e565b60016000878152602001908152602001600020604051806101400160405290816000820154815260200160018201548152602001600282018054600181600116156101000203166002900480601f016020809104026020016040519081016040528092919081815260200182805460018160011615610100020316600290048015610bca5780601f10610b9f57610100808354040283529160200191610bca565b820191906000526020600020905b815481529060010190602001808311610bad57829003601f168201915b50505050508152602001600382018054600181600116156101000203166002900480601f016020809104026020016040519081016040528092919081815260200182805460018160011615610100020316600290048015610c6c5780601f10610c4157610100808354040283529160200191610c6c565b820191906000526020600020905b815481529060010190602001808311610c4f57829003601f168201915b50505050508152602001600482018054600181600116156101000203166002900480601f016020809104026020016040519081016040528092919081815260200182805460018160011615610100020316600290048015610d0e5780601f10610ce357610100808354040283529160200191610d0e565b820191906000526020600020905b815481529060010190602001808311610cf157829003601f168201915b505050505081526020016005820160009054906101000a900460ff161515151581526020016005820160019054906101000a900473ffffffffffffffffffffffffffffffffffffffff1673ffffffffffffffffffffffffffffffffffffffff1673ffffffffffffffffffffffffffffffffffffffff168152602001600682015481526020016007820160009054906101000a900460ff161515151581526020016008820154815250509050806040015181606001518260a001518361012001518393508292509450945094509450509193509193565b610ded3361053f565b610e2c576040517f08c379a0000000000000000000000000000000000000000000000000000000008152600401610e2390611802565b60405180910390fd5b610e3581610f0b565b50565b610e4133610f65565b565b60008073ffffffffffffffffffffffffffffffffffffffff168273ffffffffffffffffffffffffffffffffffffffff161415610eb4576040517f08c379a0000000000000000000000000000000000000000000000000000000008152600401610eab906117e2565b60405180910390fd5b8260000160008373ffffffffffffffffffffffffffffffffffffffff1673ffffffffffffffffffffffffffffffffffffffff16815260200190815260200160002060009054906101000a900460ff16905092915050565b610f1f816000610fbf90919063ffffffff16565b8073ffffffffffffffffffffffffffffffffffffffff167f6ff3aa2ea7b53070f6d9d07a445d338d89e8edef44250ffa8be19f53910d4a2e60405160405180910390a250565b610f7981600061106790919063ffffffff16565b8073ffffffffffffffffffffffffffffffffffffffff167f86e5bbceda94081c32220d685f37cc4e3ea7bb0be2dfbf0cb703579505a5390e60405160405180910390a250565b610fc98282610e43565b15611009576040517f08c379a0000000000000000000000000000000000000000000000000000000008152600401611000906117a2565b60405180910390fd5b60018260000160008373ffffffffffffffffffffffffffffffffffffffff1673ffffffffffffffffffffffffffffffffffffffff16815260200190815260200160002060006101000a81548160ff0219169083151502179055505050565b6110718282610e43565b6110b0576040517f08c379a00000000000000000000000000000000000000000000000000000000081526004016110a7906117c2565b60405180910390fd5b60008260000160008373ffffffffffffffffffffffffffffffffffffffff1673ffffffffffffffffffffffffffffffffffffffff16815260200190815260200160002060006101000a81548160ff0219169083151502179055505050565b6040518061014001604052806000815260200160008152602001606081526020016060815260200160608152602001600015158152602001600073ffffffffffffffffffffffffffffffffffffffff16815260200160008152602001600015158152602001600081525090565b828054600181600116156101000203166002900490600052602060002090601f016020900481019282601f106111bc57805160ff19168380011785556111ea565b828001600101855582156111ea579182015b828111156111e95782518255916020019190600101906111ce565b5b5090506111f791906111fb565b5090565b61121d91905b80821115611219576000816000905550600101611201565b5090565b90565b60008135905061122f81611b71565b92915050565b60008135905061124481611b88565b92915050565b60008083601f84011261125c57600080fd5b8235905067ffffffffffffffff81111561127557600080fd5b60208301915083600182028301111561128d57600080fd5b9250929050565b6000813590506112a381611b9f565b92915050565b6000815190506112b881611b9f565b92915050565b6000602082840312156112d057600080fd5b60006112de84828501611220565b91505092915050565b60008060008060008060006080888a03121561130257600080fd5b600088013567ffffffffffffffff81111561131c57600080fd5b6113288a828b0161124a565b9750975050602088013567ffffffffffffffff81111561134757600080fd5b6113538a828b0161124a565b9550955050604088013567ffffffffffffffff81111561137257600080fd5b61137e8a828b0161124a565b935093505060606113918a828b01611235565b91505092959891949750929550565b6000602082840312156113b257600080fd5b60006113c084828501611294565b91505092915050565b6000602082840312156113db57600080fd5b60006113e9848285016112a9565b91505092915050565b6000806040838503121561140557600080fd5b600061141385828601611294565b925050602061142485828601611294565b9150509250929050565b61143781611ac4565b82525050565b61144681611a7c565b82525050565b61145581611a8e565b82525050565b61146481611ad6565b82525050565b60006114768385611a6b565b9350611483838584611b1e565b61148c83611b60565b840190509392505050565b60006114a282611a60565b6114ac8185611a6b565b93506114bc818560208601611b2d565b6114c581611b60565b840191505092915050565b60006114db82611a55565b6114e58185611a6b565b93506114f5818560208601611b2d565b6114fe81611b60565b840191505092915050565b600081546001811660008114611526576001811461154c57611590565b607f60028304166115378187611a6b565b955060ff198316865260208601935050611590565b6002820461155a8187611a6b565b955061156585611a40565b60005b8281101561158757815481890152600182019150602081019050611568565b80880195505050505b505092915050565b60006115a5601f83611a6b565b91507f526f6c65733a206163636f756e7420616c72656164792068617320726f6c65006000830152602082019050919050565b60006115e5602183611a6b565b91507f526f6c65733a206163636f756e7420646f6573206e6f74206861766520726f6c60008301527f65000000000000000000000000000000000000000000000000000000000000006020830152604082019050919050565b600061164b602283611a6b565b91507f526f6c65733a206163636f756e7420697320746865207a65726f20616464726560008301527f73730000000000000000000000000000000000000000000000000000000000006020830152604082019050919050565b60006116b1603083611a6b565b91507f577269746572526f6c653a2063616c6c657220646f6573206e6f74206861766560008301527f207468652057726974657220726f6c65000000000000000000000000000000006020830152604082019050919050565b61171381611aba565b82525050565b600060208201905061172e600083018461144c565b92915050565b6000602082019050611749600083018461145b565b92915050565b600060808201905081810360008301526117698187611497565b9050818103602083015261177d8186611497565b905061178c604083018561144c565b611799606083018461170a565b95945050505050565b600060208201905081810360008301526117bb81611598565b9050919050565b600060208201905081810360008301526117db816115d8565b9050919050565b600060208201905081810360008301526117fb8161163e565b9050919050565b6000602082019050818103600083015261181b816116a4565b9050919050565b6000602082019050611837600083018461170a565b92915050565b600061012082019050611853600083018f61170a565b611860602083018e61170a565b8181036040830152611873818c8e61146a565b90508181036060830152611888818a8c61146a565b9050818103608083015261189d81888a61146a565b90506118ac60a083018761144c565b6118b960c083018661142e565b6118c660e083018561170a565b6118d461010083018461170a565b9d9c50505050505050505050505050565b6000610140820190506118fb600083018d61170a565b611908602083018c61170a565b818103604083015261191a818b6114d0565b9050818103606083015261192e818a6114d0565b9050818103608083015261194281896114d0565b905061195160a083018861144c565b61195e60c083018761143d565b61196b60e083018661170a565b61197961010083018561144c565b61198761012083018461170a565b9b9a5050505050505050505050565b6000610140820190506119ac600083018d61170a565b6119b9602083018c61170a565b6119c6604083018b61170a565b81810360608301526119d8818a611509565b905081810360808301526119ec8189611509565b90506119fb60a083018861144c565b611a0860c083018761143d565b611a1560e083018661170a565b611a2361010083018561144c565b611a3161012083018461170a565b9b9a5050505050505050505050565b60008190508160005260206000209050919050565b600081519050919050565b600081519050919050565b600082825260208201905092915050565b6000611a8782611a9a565b9050919050565b60008115159050919050565b600073ffffffffffffffffffffffffffffffffffffffff82169050919050565b6000819050919050565b6000611acf82611afa565b9050919050565b6000611ae182611ae8565b9050919050565b6000611af382611a9a565b9050919050565b6000611b0582611b0c565b9050919050565b6000611b1782611a9a565b9050919050565b82818337600083830152505050565b60005b83811015611b4b578082015181840152602081019050611b30565b83811115611b5a576000848401525b50505050565b6000601f19601f8301169050919050565b611b7a81611a7c565b8114611b8557600080fd5b50565b611b9181611a8e565b8114611b9c57600080fd5b50565b611ba881611aba565b8114611bb357600080fd5b5056fea365627a7a723058204cdfe6bb73328566a692706d9921f3dba2ab05391e1b9e775e9356c6199239336c6578706572696d656e74616cf564736f6c634300050a0040",
  "source": "pragma solidity 0.5.10;\npragma experimental ABIEncoderV2;\nimport \"./JobStorage.sol\";\nimport \"./IStateManager.sol\";\nimport \"openzeppelin-solidity/contracts/math/SafeMath.sol\";\nimport \"./WriterRole.sol\";\n\n\ncontract JobManager is WriterRole, JobStorage {\n\n    event JobCreated(uint256 id, uint256 epoch, string url, string selector, string name, bool repeat,\n                            address creator, uint256 credit, uint256 timestamp);\n    // event JobFulfilled(uint256 id, uint256 epoch, string url, string selector, bool repeat,\n    //                     address creator, uint256 credit, bool fulfulled);\n\n    event JobReported(uint256 id, uint256 value, uint256 epoch,\n                        string url, string selector, bool repeat,\n                        address creator, uint256 credit, bool fulfilled, uint256 timestamp);\n\n    IStateManager public stateManager;\n\n    //disable after init.\n    function init(address _stateManagerAddress) external {\n        stateManager = IStateManager(_stateManagerAddress);\n    }\n\n    function createJob (string calldata url, string calldata selector, string calldata name, bool repeat) external payable {\n        numJobs = numJobs + 1;\n        uint256 epoch = stateManager.getEpoch();\n        Structs.Job memory job = Structs.Job(numJobs, epoch, url, selector, name, repeat, msg.sender, msg.value, false, 0);\n        jobs[numJobs] = job;\n        emit JobCreated(numJobs, epoch, url, selector, name, repeat, msg.sender, msg.value, now);\n        // jobs.push(job);\n    }\n\n    function fulfillJob(uint256 jobId, uint256 value) external onlyWriter {\n        Structs.Job storage job = jobs[jobId];\n        uint256 epoch = stateManager.getEpoch();\n\n        if (!job.repeat) {\n            job.fulfilled = true;\n            // emit JobFulfilled(job.id, epoch, job.url, job.selector,\n            //job.repeat, job.creator, job.credit, job.fulfilled);\n        }\n        emit JobReported(job.id, value, epoch, job.url, job.selector, job.repeat,\n        job.creator, job.credit, job.fulfilled, now);\n        job.result = value;\n    }\n\n    function getResult(uint256 id) external view returns(uint256) {\n        return jobs[id].result;\n    }\n\n    function getJob(uint256 id) external view returns(string memory url, string memory selector, bool repeat, uint256 result) {\n        Structs.Job memory job = jobs[id];\n        return(job.url, job.selector, job.repeat, job.result);\n    }\n}\n",
  "sourcePath": "/Users/hrishi/contracts/contracts/Core/JobManager.sol",
  "compiler": {
    "name": "solc",
    "version": "0.5.10+commit.5a6ea5b1.Emscripten.clang"
  },
  "schemaVersion": "3.0.16",
  "updatedAt": "2019-10-29T18:41:03.726Z",
  "devdoc": {
    "methods": {}
  },
  "userdoc": {
    "methods": {}
  }
}