{
  "contractName": "JobManager",
  "abi": [
    {
      "constant": true,
      "inputs": [
        {
          "name": "",
          "type": "uint256"
        }
      ],
      "name": "jobs",
      "outputs": [
        {
          "name": "id",
          "type": "uint256"
        },
        {
          "name": "epoch",
          "type": "uint256"
        },
        {
          "name": "url",
          "type": "string"
        },
        {
          "name": "selector",
          "type": "string"
        },
        {
          "name": "repeat",
          "type": "bool"
        },
        {
          "name": "creator",
          "type": "address"
        },
        {
          "name": "credit",
          "type": "uint256"
        },
        {
          "name": "fulfilled",
          "type": "bool"
        },
        {
          "name": "result",
          "type": "uint256"
        }
      ],
      "payable": false,
      "stateMutability": "view",
      "type": "function"
    },
    {
      "constant": true,
      "inputs": [
        {
          "name": "account",
          "type": "address"
        }
      ],
      "name": "isWriter",
      "outputs": [
        {
          "name": "",
          "type": "bool"
        }
      ],
      "payable": false,
      "stateMutability": "view",
      "type": "function"
    },
    {
      "constant": true,
      "inputs": [],
      "name": "stateManager",
      "outputs": [
        {
          "name": "",
          "type": "address"
        }
      ],
      "payable": false,
      "stateMutability": "view",
      "type": "function"
    },
    {
      "constant": true,
      "inputs": [],
      "name": "numJobs",
      "outputs": [
        {
          "name": "",
          "type": "uint256"
        }
      ],
      "payable": false,
      "stateMutability": "view",
      "type": "function"
    },
    {
      "constant": false,
      "inputs": [
        {
          "name": "account",
          "type": "address"
        }
      ],
      "name": "addWriter",
      "outputs": [],
      "payable": false,
      "stateMutability": "nonpayable",
      "type": "function"
    },
    {
      "constant": false,
      "inputs": [],
      "name": "renounceWriter",
      "outputs": [],
      "payable": false,
      "stateMutability": "nonpayable",
      "type": "function"
    },
    {
      "anonymous": false,
      "inputs": [
        {
          "indexed": false,
          "name": "id",
          "type": "uint256"
        },
        {
          "indexed": false,
          "name": "epoch",
          "type": "uint256"
        },
        {
          "indexed": false,
          "name": "url",
          "type": "string"
        },
        {
          "indexed": false,
          "name": "selector",
          "type": "string"
        },
        {
          "indexed": false,
          "name": "repeat",
          "type": "bool"
        },
        {
          "indexed": false,
          "name": "creator",
          "type": "address"
        },
        {
          "indexed": false,
          "name": "credit",
          "type": "uint256"
        },
        {
          "indexed": false,
          "name": "timestamp",
          "type": "uint256"
        }
      ],
      "name": "JobCreated",
      "type": "event"
    },
    {
      "anonymous": false,
      "inputs": [
        {
          "indexed": false,
          "name": "id",
          "type": "uint256"
        },
        {
          "indexed": false,
          "name": "value",
          "type": "uint256"
        },
        {
          "indexed": false,
          "name": "epoch",
          "type": "uint256"
        },
        {
          "indexed": false,
          "name": "url",
          "type": "string"
        },
        {
          "indexed": false,
          "name": "selector",
          "type": "string"
        },
        {
          "indexed": false,
          "name": "repeat",
          "type": "bool"
        },
        {
          "indexed": false,
          "name": "creator",
          "type": "address"
        },
        {
          "indexed": false,
          "name": "credit",
          "type": "uint256"
        },
        {
          "indexed": false,
          "name": "fulfilled",
          "type": "bool"
        },
        {
          "indexed": false,
          "name": "timestamp",
          "type": "uint256"
        }
      ],
      "name": "JobReported",
      "type": "event"
    },
    {
      "anonymous": false,
      "inputs": [
        {
          "indexed": true,
          "name": "account",
          "type": "address"
        }
      ],
      "name": "WriterAdded",
      "type": "event"
    },
    {
      "anonymous": false,
      "inputs": [
        {
          "indexed": true,
          "name": "account",
          "type": "address"
        }
      ],
      "name": "WriterRemoved",
      "type": "event"
    },
    {
      "constant": false,
      "inputs": [
        {
          "name": "_stateManagerAddress",
          "type": "address"
        }
      ],
      "name": "init",
      "outputs": [],
      "payable": false,
      "stateMutability": "nonpayable",
      "type": "function"
    },
    {
      "constant": false,
      "inputs": [
        {
          "name": "url",
          "type": "string"
        },
        {
          "name": "selector",
          "type": "string"
        },
        {
          "name": "repeat",
          "type": "bool"
        }
      ],
      "name": "createJob",
      "outputs": [],
      "payable": true,
      "stateMutability": "payable",
      "type": "function"
    },
    {
      "constant": false,
      "inputs": [
        {
          "name": "jobId",
          "type": "uint256"
        },
        {
          "name": "value",
          "type": "uint256"
        }
      ],
      "name": "fulfillJob",
      "outputs": [],
      "payable": false,
      "stateMutability": "nonpayable",
      "type": "function"
    },
    {
      "constant": true,
      "inputs": [
        {
          "name": "id",
          "type": "uint256"
        }
      ],
      "name": "getResult",
      "outputs": [
        {
          "name": "",
          "type": "uint256"
        }
      ],
      "payable": false,
      "stateMutability": "view",
      "type": "function"
    },
    {
      "constant": true,
      "inputs": [
        {
          "name": "id",
          "type": "uint256"
        }
      ],
      "name": "getJob",
      "outputs": [
        {
          "name": "url",
          "type": "string"
        },
        {
          "name": "selector",
          "type": "string"
        },
        {
          "name": "repeat",
          "type": "bool"
        },
        {
          "name": "result",
          "type": "uint256"
        }
      ],
      "payable": false,
      "stateMutability": "view",
      "type": "function"
    }
  ],
  "bytecode": "0x60806040526200001e3362000024640100000000026401000000009004565b62000314565b620000488160006200008e6401000000000262000e65179091906401000000009004565b8073ffffffffffffffffffffffffffffffffffffffff167f6ff3aa2ea7b53070f6d9d07a445d338d89e8edef44250ffa8be19f53910d4a2e60405160405180910390a250565b620000a982826200014a640100000000026401000000009004565b15620000ec576040517f08c379a0000000000000000000000000000000000000000000000000000000008152600401620000e390620002bf565b60405180910390fd5b60018260000160008373ffffffffffffffffffffffffffffffffffffffff1673ffffffffffffffffffffffffffffffffffffffff16815260200190815260200160002060006101000a81548160ff0219169083151502179055505050565b60008073ffffffffffffffffffffffffffffffffffffffff168273ffffffffffffffffffffffffffffffffffffffff161415620001be576040517f08c379a0000000000000000000000000000000000000000000000000000000008152600401620001b590620002e1565b60405180910390fd5b8260000160008373ffffffffffffffffffffffffffffffffffffffff1673ffffffffffffffffffffffffffffffffffffffff16815260200190815260200160002060009054906101000a900460ff16905092915050565b600062000224601f8362000303565b91507f526f6c65733a206163636f756e7420616c72656164792068617320726f6c65006000830152602082019050919050565b60006200026660228362000303565b91507f526f6c65733a206163636f756e7420697320746865207a65726f20616464726560008301527f73730000000000000000000000000000000000000000000000000000000000006020830152604082019050919050565b60006020820190508181036000830152620002da8162000215565b9050919050565b60006020820190508181036000830152620002fc8162000257565b9050919050565b600082825260208201905092915050565b611a3a80620003246000396000f3fe6080604052600436106100b9576000357c01000000000000000000000000000000000000000000000000000000009004806356350bdf1161008157806356350bdf146101b05780639212051c146101d9578063995e433914610204578063bf22c45714610241578063da2824a814610281578063df4eb59c146102aa576100b9565b8063180aedf3146100be57806319ab453c1461010357806325d10c3f1461012c5780632b29ba23146101485780632e716fb114610185575b600080fd5b3480156100ca57600080fd5b506100e560048036036100e0919081019061120f565b6102c1565b6040516100fa9998979695949392919061173c565b60405180910390f35b34801561010f57600080fd5b5061012a6004803603610125919081019061115d565b610479565b005b61014660048036036101419190810190611186565b6104bd565b005b34801561015457600080fd5b5061016f600480360361016a919081019061115d565b6107d0565b60405161017c9190611588565b60405180910390f35b34801561019157600080fd5b5061019a6107ed565b6040516101a791906115a3565b60405180910390f35b3480156101bc57600080fd5b506101d760048036036101d29190810190611261565b610813565b005b3480156101e557600080fd5b506101ee610a12565b6040516101fb9190611691565b60405180910390f35b34801561021057600080fd5b5061022b6004803603610226919081019061120f565b610a18565b6040516102389190611691565b60405180910390f35b34801561024d57600080fd5b506102686004803603610263919081019061120f565b610a38565b60405161027894939291906115be565b60405180910390f35b34801561028d57600080fd5b506102a860048036036102a3919081019061115d565b610c8a565b005b3480156102b657600080fd5b506102bf610cde565b005b6001602052806000526040600020600091509050806000015490806001015490806002018054600181600116156101000203166002900480601f0160208091040260200160405190810160405280929190818152602001828054600181600116156101000203166002900480156103795780601f1061034e57610100808354040283529160200191610379565b820191906000526020600020905b81548152906001019060200180831161035c57829003601f168201915b505050505090806003018054600181600116156101000203166002900480601f0160208091040260200160405190810160405280929190818152602001828054600181600116156101000203166002900480156104175780601f106103ec57610100808354040283529160200191610417565b820191906000526020600020905b8154815290600101906020018083116103fa57829003601f168201915b5050505050908060040160009054906101000a900460ff16908060040160019054906101000a900473ffffffffffffffffffffffffffffffffffffffff16908060050154908060060160009054906101000a900460ff16908060070154905089565b80600360006101000a81548173ffffffffffffffffffffffffffffffffffffffff021916908373ffffffffffffffffffffffffffffffffffffffff16021790555050565b6001600254016002819055506000600360009054906101000a900473ffffffffffffffffffffffffffffffffffffffff1673ffffffffffffffffffffffffffffffffffffffff1663757991a86040518163ffffffff167c010000000000000000000000000000000000000000000000000000000002815260040160206040518083038186803b15801561054f57600080fd5b505afa158015610563573d6000803e3d6000fd5b505050506040513d601f19601f820116820180604052506105879190810190611238565b9050610591610fb4565b604051806101200160405280600254815260200183815260200188888080601f016020809104026020016040519081016040528093929190818152602001838380828437600081840152601f19601f82011690508083019250505050505050815260200186868080601f016020809104026020016040519081016040528093929190818152602001838380828437600081840152601f19601f82011690508083019250505050505050815260200184151581526020013373ffffffffffffffffffffffffffffffffffffffff1681526020013481526020016000151581526020016000815250905080600160006002548152602001908152602001600020600082015181600001556020820151816001015560408201518160020190805190602001906106bf92919061101a565b5060608201518160030190805190602001906106dc92919061101a565b5060808201518160040160006101000a81548160ff02191690831515021790555060a08201518160040160016101000a81548173ffffffffffffffffffffffffffffffffffffffff021916908373ffffffffffffffffffffffffffffffffffffffff16021790555060c0820151816005015560e08201518160060160006101000a81548160ff02191690831515021790555061010082015181600701559050507fb59e70a4b81df655f645ba254df330f6b7b73ee591d3efe59c87acf4fec21bbe6002548389898989893334426040516107bf9a999897969594939291906116ac565b60405180910390a150505050505050565b60006107e6826000610ce990919063ffffffff16565b9050919050565b600360009054906101000a900473ffffffffffffffffffffffffffffffffffffffff1681565b61081c336107d0565b61085b576040517f08c379a000000000000000000000000000000000000000000000000000000000815260040161085290611671565b60405180910390fd5b60006001600084815260200190815260200160002090506000600360009054906101000a900473ffffffffffffffffffffffffffffffffffffffff1673ffffffffffffffffffffffffffffffffffffffff1663757991a86040518163ffffffff167c010000000000000000000000000000000000000000000000000000000002815260040160206040518083038186803b1580156108f857600080fd5b505afa15801561090c573d6000803e3d6000fd5b505050506040513d601f19601f820116820180604052506109309190810190611238565b90508160040160009054906101000a900460ff166109665760018260060160006101000a81548160ff0219169083151502179055505b7f445b511765f4a3a4e2341247fec72f6a760afc23b83c59fa5572ae81df3939c88260000154848385600201866003018760040160009054906101000a900460ff168860040160019054906101000a900473ffffffffffffffffffffffffffffffffffffffff1689600501548a60060160009054906101000a900460ff16426040516109fb9a999897969594939291906117d7565b60405180910390a182826007018190555050505050565b60025481565b600060016000838152602001908152602001600020600701549050919050565b606080600080610a46610fb4565b60016000878152602001908152602001600020604051806101200160405290816000820154815260200160018201548152602001600282018054600181600116156101000203166002900480601f016020809104026020016040519081016040528092919081815260200182805460018160011615610100020316600290048015610b125780601f10610ae757610100808354040283529160200191610b12565b820191906000526020600020905b815481529060010190602001808311610af557829003601f168201915b50505050508152602001600382018054600181600116156101000203166002900480601f016020809104026020016040519081016040528092919081815260200182805460018160011615610100020316600290048015610bb45780601f10610b8957610100808354040283529160200191610bb4565b820191906000526020600020905b815481529060010190602001808311610b9757829003601f168201915b505050505081526020016004820160009054906101000a900460ff161515151581526020016004820160019054906101000a900473ffffffffffffffffffffffffffffffffffffffff1673ffffffffffffffffffffffffffffffffffffffff1673ffffffffffffffffffffffffffffffffffffffff168152602001600582015481526020016006820160009054906101000a900460ff1615151515815260200160078201548152505090508060400151816060015182608001518361010001518393508292509450945094509450509193509193565b610c93336107d0565b610cd2576040517f08c379a0000000000000000000000000000000000000000000000000000000008152600401610cc990611671565b60405180910390fd5b610cdb81610db1565b50565b610ce733610e0b565b565b60008073ffffffffffffffffffffffffffffffffffffffff168273ffffffffffffffffffffffffffffffffffffffff161415610d5a576040517f08c379a0000000000000000000000000000000000000000000000000000000008152600401610d5190611651565b60405180910390fd5b8260000160008373ffffffffffffffffffffffffffffffffffffffff1673ffffffffffffffffffffffffffffffffffffffff16815260200190815260200160002060009054906101000a900460ff16905092915050565b610dc5816000610e6590919063ffffffff16565b8073ffffffffffffffffffffffffffffffffffffffff167f6ff3aa2ea7b53070f6d9d07a445d338d89e8edef44250ffa8be19f53910d4a2e60405160405180910390a250565b610e1f816000610f0d90919063ffffffff16565b8073ffffffffffffffffffffffffffffffffffffffff167f86e5bbceda94081c32220d685f37cc4e3ea7bb0be2dfbf0cb703579505a5390e60405160405180910390a250565b610e6f8282610ce9565b15610eaf576040517f08c379a0000000000000000000000000000000000000000000000000000000008152600401610ea690611611565b60405180910390fd5b60018260000160008373ffffffffffffffffffffffffffffffffffffffff1673ffffffffffffffffffffffffffffffffffffffff16815260200190815260200160002060006101000a81548160ff0219169083151502179055505050565b610f178282610ce9565b610f56576040517f08c379a0000000000000000000000000000000000000000000000000000000008152600401610f4d90611631565b60405180910390fd5b60008260000160008373ffffffffffffffffffffffffffffffffffffffff1673ffffffffffffffffffffffffffffffffffffffff16815260200190815260200160002060006101000a81548160ff0219169083151502179055505050565b60405180610120016040528060008152602001600081526020016060815260200160608152602001600015158152602001600073ffffffffffffffffffffffffffffffffffffffff16815260200160008152602001600015158152602001600081525090565b828054600181600116156101000203166002900490600052602060002090601f016020900481019282601f1061105b57805160ff1916838001178555611089565b82800160010185558215611089579182015b8281111561108857825182559160200191906001019061106d565b5b509050611096919061109a565b5090565b6110bc91905b808211156110b85760008160009055506001016110a0565b5090565b90565b6000813590506110ce816119b2565b92915050565b6000813590506110e3816119c9565b92915050565b60008083601f8401126110fb57600080fd5b8235905067ffffffffffffffff81111561111457600080fd5b60208301915083600182028301111561112c57600080fd5b9250929050565b600081359050611142816119e0565b92915050565b600081519050611157816119e0565b92915050565b60006020828403121561116f57600080fd5b600061117d848285016110bf565b91505092915050565b60008060008060006060868803121561119e57600080fd5b600086013567ffffffffffffffff8111156111b857600080fd5b6111c4888289016110e9565b9550955050602086013567ffffffffffffffff8111156111e357600080fd5b6111ef888289016110e9565b93509350506040611202888289016110d4565b9150509295509295909350565b60006020828403121561122157600080fd5b600061122f84828501611133565b91505092915050565b60006020828403121561124a57600080fd5b600061125884828501611148565b91505092915050565b6000806040838503121561127457600080fd5b600061128285828601611133565b925050602061129385828601611133565b9150509250929050565b6112a681611905565b82525050565b6112b5816118bd565b82525050565b6112c4816118cf565b82525050565b6112d381611917565b82525050565b60006112e583856118ac565b93506112f283858461195f565b6112fb836119a1565b840190509392505050565b6000611311826118a1565b61131b81856118ac565b935061132b81856020860161196e565b611334816119a1565b840191505092915050565b600061134a82611896565b61135481856118ac565b935061136481856020860161196e565b61136d816119a1565b840191505092915050565b60008154600181166000811461139557600181146113bb576113ff565b607f60028304166113a681876118ac565b955060ff1983168652602086019350506113ff565b600282046113c981876118ac565b95506113d485611881565b60005b828110156113f6578154818901526001820191506020810190506113d7565b80880195505050505b505092915050565b6000611414601f836118ac565b91507f526f6c65733a206163636f756e7420616c72656164792068617320726f6c65006000830152602082019050919050565b60006114546021836118ac565b91507f526f6c65733a206163636f756e7420646f6573206e6f74206861766520726f6c60008301527f65000000000000000000000000000000000000000000000000000000000000006020830152604082019050919050565b60006114ba6022836118ac565b91507f526f6c65733a206163636f756e7420697320746865207a65726f20616464726560008301527f73730000000000000000000000000000000000000000000000000000000000006020830152604082019050919050565b60006115206030836118ac565b91507f577269746572526f6c653a2063616c6c657220646f6573206e6f74206861766560008301527f207468652057726974657220726f6c65000000000000000000000000000000006020830152604082019050919050565b611582816118fb565b82525050565b600060208201905061159d60008301846112bb565b92915050565b60006020820190506115b860008301846112ca565b92915050565b600060808201905081810360008301526115d88187611306565b905081810360208301526115ec8186611306565b90506115fb60408301856112bb565b6116086060830184611579565b95945050505050565b6000602082019050818103600083015261162a81611407565b9050919050565b6000602082019050818103600083015261164a81611447565b9050919050565b6000602082019050818103600083015261166a816114ad565b9050919050565b6000602082019050818103600083015261168a81611513565b9050919050565b60006020820190506116a66000830184611579565b92915050565b6000610100820190506116c2600083018d611579565b6116cf602083018c611579565b81810360408301526116e2818a8c6112d9565b905081810360608301526116f781888a6112d9565b905061170660808301876112bb565b61171360a083018661129d565b61172060c0830185611579565b61172d60e0830184611579565b9b9a5050505050505050505050565b600061012082019050611752600083018c611579565b61175f602083018b611579565b8181036040830152611771818a61133f565b90508181036060830152611785818961133f565b905061179460808301886112bb565b6117a160a08301876112ac565b6117ae60c0830186611579565b6117bb60e08301856112bb565b6117c9610100830184611579565b9a9950505050505050505050565b6000610140820190506117ed600083018d611579565b6117fa602083018c611579565b611807604083018b611579565b8181036060830152611819818a611378565b9050818103608083015261182d8189611378565b905061183c60a08301886112bb565b61184960c08301876112ac565b61185660e0830186611579565b6118646101008301856112bb565b611872610120830184611579565b9b9a5050505050505050505050565b60008190508160005260206000209050919050565b600081519050919050565b600081519050919050565b600082825260208201905092915050565b60006118c8826118db565b9050919050565b60008115159050919050565b600073ffffffffffffffffffffffffffffffffffffffff82169050919050565b6000819050919050565b60006119108261193b565b9050919050565b600061192282611929565b9050919050565b6000611934826118db565b9050919050565b60006119468261194d565b9050919050565b6000611958826118db565b9050919050565b82818337600083830152505050565b60005b8381101561198c578082015181840152602081019050611971565b8381111561199b576000848401525b50505050565b6000601f19601f8301169050919050565b6119bb816118bd565b81146119c657600080fd5b50565b6119d2816118cf565b81146119dd57600080fd5b50565b6119e9816118fb565b81146119f457600080fd5b5056fea365627a7a72305820a01361b424ee8cd5e16676c5b0d571d47ccb7342ff4d65135f7d1c7a724d3f546c6578706572696d656e74616cf564736f6c634300050a0040",
  "source": "pragma solidity 0.5.10;\npragma experimental ABIEncoderV2;\nimport \"./JobStorage.sol\";\nimport \"./IStateManager.sol\";\nimport \"openzeppelin-solidity/contracts/math/SafeMath.sol\";\nimport \"./WriterRole.sol\";\n\n\ncontract JobManager is WriterRole, JobStorage {\n\n    event JobCreated(uint256 id, uint256 epoch, string url, string selector, bool repeat,\n                            address creator, uint256 credit, uint256 timestamp);\n    // event JobFulfilled(uint256 id, uint256 epoch, string url, string selector, bool repeat,\n    //                     address creator, uint256 credit, bool fulfulled);\n\n    event JobReported(uint256 id, uint256 value, uint256 epoch,\n                        string url, string selector, bool repeat,\n                        address creator, uint256 credit, bool fulfilled, uint256 timestamp);\n\n    IStateManager public stateManager;\n\n    //disable after init.\n    function init(address _stateManagerAddress) external {\n        stateManager = IStateManager(_stateManagerAddress);\n    }\n\n    function createJob (string calldata url, string calldata selector, bool repeat) external payable {\n        numJobs = numJobs + 1;\n        uint256 epoch = stateManager.getEpoch();\n        Structs.Job memory job = Structs.Job(numJobs, epoch, url, selector, repeat, msg.sender, msg.value, false,0);\n        jobs[numJobs] = job;\n        emit JobCreated(numJobs, epoch, url, selector, repeat, msg.sender, msg.value, now);\n        // jobs.push(job);\n    }\n\n    function fulfillJob(uint256 jobId, uint256 value) external onlyWriter {\n        Structs.Job storage job = jobs[jobId];\n        uint256 epoch = stateManager.getEpoch();\n\n        if (!job.repeat) {\n            job.fulfilled = true;\n            // emit JobFulfilled(job.id, epoch, job.url, job.selector,\n            //job.repeat, job.creator, job.credit, job.fulfilled);\n        }\n        emit JobReported(job.id, value, epoch, job.url, job.selector, job.repeat,\n        job.creator, job.credit, job.fulfilled, now);\n        job.result = value;\n    }\n\n    function getResult(uint256 id) external view returns(uint256) {\n        return jobs[id].result;\n    }\n\n    function getJob(uint256 id) external view returns(string memory url, string memory selector, bool repeat, uint256 result) {\n        Structs.Job memory job = jobs[id];\n        return(job.url, job.selector, job.repeat, job.result);\n    }\n}\n",
  "sourcePath": "/Users/hrishi/contracts/contracts/Core/JobManager.sol",
  "compiler": {
    "name": "solc",
    "version": "0.5.10+commit.5a6ea5b1.Emscripten.clang"
  },
  "schemaVersion": "3.0.16",
  "updatedAt": "2019-10-12T11:21:06.310Z",
  "devdoc": {
    "methods": {}
  },
  "userdoc": {
    "methods": {}
  }
}