{
  "contractName": "JobManager",
  "abi": [
    {
      "constant": true,
      "inputs": [
        {
          "name": "",
          "type": "uint256"
        }
      ],
      "name": "jobs",
      "outputs": [
        {
          "name": "id",
          "type": "uint256"
        },
        {
          "name": "epoch",
          "type": "uint256"
        },
        {
          "name": "url",
          "type": "string"
        },
        {
          "name": "selector",
          "type": "string"
        },
        {
          "name": "repeat",
          "type": "bool"
        },
        {
          "name": "creator",
          "type": "address"
        },
        {
          "name": "credit",
          "type": "uint256"
        },
        {
          "name": "fulfilled",
          "type": "bool"
        }
      ],
      "payable": false,
      "stateMutability": "view",
      "type": "function"
    },
    {
      "constant": true,
      "inputs": [
        {
          "name": "account",
          "type": "address"
        }
      ],
      "name": "isWriter",
      "outputs": [
        {
          "name": "",
          "type": "bool"
        }
      ],
      "payable": false,
      "stateMutability": "view",
      "type": "function"
    },
    {
      "constant": true,
      "inputs": [],
      "name": "stateManager",
      "outputs": [
        {
          "name": "",
          "type": "address"
        }
      ],
      "payable": false,
      "stateMutability": "view",
      "type": "function"
    },
    {
      "constant": true,
      "inputs": [],
      "name": "numJobs",
      "outputs": [
        {
          "name": "",
          "type": "uint256"
        }
      ],
      "payable": false,
      "stateMutability": "view",
      "type": "function"
    },
    {
      "constant": false,
      "inputs": [
        {
          "name": "account",
          "type": "address"
        }
      ],
      "name": "addWriter",
      "outputs": [],
      "payable": false,
      "stateMutability": "nonpayable",
      "type": "function"
    },
    {
      "constant": false,
      "inputs": [],
      "name": "renounceWriter",
      "outputs": [],
      "payable": false,
      "stateMutability": "nonpayable",
      "type": "function"
    },
    {
      "anonymous": false,
      "inputs": [
        {
          "indexed": false,
          "name": "id",
          "type": "uint256"
        },
        {
          "indexed": false,
          "name": "epoch",
          "type": "uint256"
        },
        {
          "indexed": false,
          "name": "url",
          "type": "string"
        },
        {
          "indexed": false,
          "name": "selector",
          "type": "string"
        },
        {
          "indexed": false,
          "name": "repeat",
          "type": "bool"
        },
        {
          "indexed": false,
          "name": "creator",
          "type": "address"
        },
        {
          "indexed": false,
          "name": "credit",
          "type": "uint256"
        },
        {
          "indexed": false,
          "name": "timestamp",
          "type": "uint256"
        }
      ],
      "name": "JobCreated",
      "type": "event"
    },
    {
      "anonymous": false,
      "inputs": [
        {
          "indexed": false,
          "name": "id",
          "type": "uint256"
        },
        {
          "indexed": false,
          "name": "value",
          "type": "uint256"
        },
        {
          "indexed": false,
          "name": "epoch",
          "type": "uint256"
        },
        {
          "indexed": false,
          "name": "url",
          "type": "string"
        },
        {
          "indexed": false,
          "name": "selector",
          "type": "string"
        },
        {
          "indexed": false,
          "name": "repeat",
          "type": "bool"
        },
        {
          "indexed": false,
          "name": "creator",
          "type": "address"
        },
        {
          "indexed": false,
          "name": "credit",
          "type": "uint256"
        },
        {
          "indexed": false,
          "name": "fulfilled",
          "type": "bool"
        },
        {
          "indexed": false,
          "name": "timestamp",
          "type": "uint256"
        }
      ],
      "name": "JobReported",
      "type": "event"
    },
    {
      "anonymous": false,
      "inputs": [
        {
          "indexed": true,
          "name": "account",
          "type": "address"
        }
      ],
      "name": "WriterAdded",
      "type": "event"
    },
    {
      "anonymous": false,
      "inputs": [
        {
          "indexed": true,
          "name": "account",
          "type": "address"
        }
      ],
      "name": "WriterRemoved",
      "type": "event"
    },
    {
      "constant": false,
      "inputs": [
        {
          "name": "_stateManagerAddress",
          "type": "address"
        }
      ],
      "name": "init",
      "outputs": [],
      "payable": false,
      "stateMutability": "nonpayable",
      "type": "function"
    },
    {
      "constant": false,
      "inputs": [
        {
          "name": "url",
          "type": "string"
        },
        {
          "name": "selector",
          "type": "string"
        },
        {
          "name": "repeat",
          "type": "bool"
        }
      ],
      "name": "createJob",
      "outputs": [],
      "payable": true,
      "stateMutability": "payable",
      "type": "function"
    },
    {
      "constant": false,
      "inputs": [
        {
          "name": "jobId",
          "type": "uint256"
        },
        {
          "name": "value",
          "type": "uint256"
        }
      ],
      "name": "fulfillJob",
      "outputs": [],
      "payable": false,
      "stateMutability": "nonpayable",
      "type": "function"
    }
  ],
  "bytecode": "0x608060405262000015336200001b60201b60201c565b620002f9565b620000368160006200007c60201b62000ae91790919060201c565b8073ffffffffffffffffffffffffffffffffffffffff167f6ff3aa2ea7b53070f6d9d07a445d338d89e8edef44250ffa8be19f53910d4a2e60405160405180910390a250565b6200008e82826200012f60201b60201c565b15620000d1576040517f08c379a0000000000000000000000000000000000000000000000000000000008152600401620000c890620002a4565b60405180910390fd5b60018260000160008373ffffffffffffffffffffffffffffffffffffffff1673ffffffffffffffffffffffffffffffffffffffff16815260200190815260200160002060006101000a81548160ff0219169083151502179055505050565b60008073ffffffffffffffffffffffffffffffffffffffff168273ffffffffffffffffffffffffffffffffffffffff161415620001a3576040517f08c379a00000000000000000000000000000000000000000000000000000000081526004016200019a90620002c6565b60405180910390fd5b8260000160008373ffffffffffffffffffffffffffffffffffffffff1673ffffffffffffffffffffffffffffffffffffffff16815260200190815260200160002060009054906101000a900460ff16905092915050565b600062000209601f83620002e8565b91507f526f6c65733a206163636f756e7420616c72656164792068617320726f6c65006000830152602082019050919050565b60006200024b602283620002e8565b91507f526f6c65733a206163636f756e7420697320746865207a65726f20616464726560008301527f73730000000000000000000000000000000000000000000000000000000000006020830152604082019050919050565b60006020820190508181036000830152620002bf81620001fa565b9050919050565b60006020820190508181036000830152620002e1816200023c565b9050919050565b600082825260208201905092915050565b61161180620003096000396000f3fe6080604052600436106100865760003560e01c80632e716fb1116100595780632e716fb11461015157806356350bdf1461017c5780639212051c146101a5578063da2824a8146101d0578063df4eb59c146101f957610086565b8063180aedf31461008b57806319ab453c146100cf57806325d10c3f146100f85780632b29ba2314610114575b600080fd5b34801561009757600080fd5b506100b260048036036100ad9190810190610e8c565b610210565b6040516100c698979695949392919061132d565b60405180910390f35b3480156100db57600080fd5b506100f660048036036100f19190810190610dda565b6103c2565b005b610112600480360361010d9190810190610e03565b610406565b005b34801561012057600080fd5b5061013b60048036036101369190810190610dda565b6106eb565b60405161014891906111cc565b60405180910390f35b34801561015d57600080fd5b50610166610708565b60405161017391906111e7565b60405180910390f35b34801561018857600080fd5b506101a3600480360361019e9190810190610ede565b61072e565b005b3480156101b157600080fd5b506101ba610908565b6040516101c79190611282565b60405180910390f35b3480156101dc57600080fd5b506101f760048036036101f29190810190610dda565b61090e565b005b34801561020557600080fd5b5061020e610962565b005b6001602052806000526040600020600091509050806000015490806001015490806002018054600181600116156101000203166002900480601f0160208091040260200160405190810160405280929190818152602001828054600181600116156101000203166002900480156102c85780601f1061029d576101008083540402835291602001916102c8565b820191906000526020600020905b8154815290600101906020018083116102ab57829003601f168201915b505050505090806003018054600181600116156101000203166002900480601f0160208091040260200160405190810160405280929190818152602001828054600181600116156101000203166002900480156103665780601f1061033b57610100808354040283529160200191610366565b820191906000526020600020905b81548152906001019060200180831161034957829003601f168201915b5050505050908060040160009054906101000a900460ff16908060040160019054906101000a900473ffffffffffffffffffffffffffffffffffffffff16908060050154908060060160009054906101000a900460ff16905088565b80600360006101000a81548173ffffffffffffffffffffffffffffffffffffffff021916908373ffffffffffffffffffffffffffffffffffffffff16021790555050565b6001600254016002819055506000600360009054906101000a900473ffffffffffffffffffffffffffffffffffffffff1673ffffffffffffffffffffffffffffffffffffffff1663757991a86040518163ffffffff1660e01b815260040160206040518083038186803b15801561047c57600080fd5b505afa158015610490573d6000803e3d6000fd5b505050506040513d601f19601f820116820180604052506104b49190810190610eb5565b90506104be610c38565b604051806101000160405280600254815260200183815260200188888080601f016020809104026020016040519081016040528093929190818152602001838380828437600081840152601f19601f82011690508083019250505050505050815260200186868080601f016020809104026020016040519081016040528093929190818152602001838380828437600081840152601f19601f82011690508083019250505050505050815260200184151581526020013373ffffffffffffffffffffffffffffffffffffffff16815260200134815260200160001515815250905080600160006002548152602001908152602001600020600082015181600001556020820151816001015560408201518160020190805190602001906105e5929190610c97565b506060820151816003019080519060200190610602929190610c97565b5060808201518160040160006101000a81548160ff02191690831515021790555060a08201518160040160016101000a81548173ffffffffffffffffffffffffffffffffffffffff021916908373ffffffffffffffffffffffffffffffffffffffff16021790555060c0820151816005015560e08201518160060160006101000a81548160ff0219169083151502179055509050507fb59e70a4b81df655f645ba254df330f6b7b73ee591d3efe59c87acf4fec21bbe6002548389898989893334426040516106da9a9998979695949392919061129d565b60405180910390a150505050505050565b600061070182600061096d90919063ffffffff16565b9050919050565b600360009054906101000a900473ffffffffffffffffffffffffffffffffffffffff1681565b610737336106eb565b610776576040517f08c379a000000000000000000000000000000000000000000000000000000000815260040161076d90611262565b60405180910390fd5b60006001600084815260200190815260200160002090506000600360009054906101000a900473ffffffffffffffffffffffffffffffffffffffff1673ffffffffffffffffffffffffffffffffffffffff1663757991a86040518163ffffffff1660e01b815260040160206040518083038186803b1580156107f757600080fd5b505afa15801561080b573d6000803e3d6000fd5b505050506040513d601f19601f8201168201806040525061082f9190810190610eb5565b90508160040160009054906101000a900460ff166108655760018260060160006101000a81548160ff0219169083151502179055505b7f445b511765f4a3a4e2341247fec72f6a760afc23b83c59fa5572ae81df3939c88260000154848385600201866003018760040160009054906101000a900460ff168860040160019054906101000a900473ffffffffffffffffffffffffffffffffffffffff1689600501548a60060160009054906101000a900460ff16426040516108fa9a999897969594939291906113b9565b60405180910390a150505050565b60025481565b610917336106eb565b610956576040517f08c379a000000000000000000000000000000000000000000000000000000000815260040161094d90611262565b60405180910390fd5b61095f81610a35565b50565b61096b33610a8f565b565b60008073ffffffffffffffffffffffffffffffffffffffff168273ffffffffffffffffffffffffffffffffffffffff1614156109de576040517f08c379a00000000000000000000000000000000000000000000000000000000081526004016109d590611242565b60405180910390fd5b8260000160008373ffffffffffffffffffffffffffffffffffffffff1673ffffffffffffffffffffffffffffffffffffffff16815260200190815260200160002060009054906101000a900460ff16905092915050565b610a49816000610ae990919063ffffffff16565b8073ffffffffffffffffffffffffffffffffffffffff167f6ff3aa2ea7b53070f6d9d07a445d338d89e8edef44250ffa8be19f53910d4a2e60405160405180910390a250565b610aa3816000610b9190919063ffffffff16565b8073ffffffffffffffffffffffffffffffffffffffff167f86e5bbceda94081c32220d685f37cc4e3ea7bb0be2dfbf0cb703579505a5390e60405160405180910390a250565b610af3828261096d565b15610b33576040517f08c379a0000000000000000000000000000000000000000000000000000000008152600401610b2a90611202565b60405180910390fd5b60018260000160008373ffffffffffffffffffffffffffffffffffffffff1673ffffffffffffffffffffffffffffffffffffffff16815260200190815260200160002060006101000a81548160ff0219169083151502179055505050565b610b9b828261096d565b610bda576040517f08c379a0000000000000000000000000000000000000000000000000000000008152600401610bd190611222565b60405180910390fd5b60008260000160008373ffffffffffffffffffffffffffffffffffffffff1673ffffffffffffffffffffffffffffffffffffffff16815260200190815260200160002060006101000a81548160ff0219169083151502179055505050565b60405180610100016040528060008152602001600081526020016060815260200160608152602001600015158152602001600073ffffffffffffffffffffffffffffffffffffffff168152602001600081526020016000151581525090565b828054600181600116156101000203166002900490600052602060002090601f016020900481019282601f10610cd857805160ff1916838001178555610d06565b82800160010185558215610d06579182015b82811115610d05578251825591602001919060010190610cea565b5b509050610d139190610d17565b5090565b610d3991905b80821115610d35576000816000905550600101610d1d565b5090565b90565b600081359050610d4b81611589565b92915050565b600081359050610d60816115a0565b92915050565b60008083601f840112610d7857600080fd5b8235905067ffffffffffffffff811115610d9157600080fd5b602083019150836001820283011115610da957600080fd5b9250929050565b600081359050610dbf816115b7565b92915050565b600081519050610dd4816115b7565b92915050565b600060208284031215610dec57600080fd5b6000610dfa84828501610d3c565b91505092915050565b600080600080600060608688031215610e1b57600080fd5b600086013567ffffffffffffffff811115610e3557600080fd5b610e4188828901610d66565b9550955050602086013567ffffffffffffffff811115610e6057600080fd5b610e6c88828901610d66565b93509350506040610e7f88828901610d51565b9150509295509295909350565b600060208284031215610e9e57600080fd5b6000610eac84828501610db0565b91505092915050565b600060208284031215610ec757600080fd5b6000610ed584828501610dc5565b91505092915050565b60008060408385031215610ef157600080fd5b6000610eff85828601610db0565b9250506020610f1085828601610db0565b9150509250929050565b610f23816114dc565b82525050565b610f3281611494565b82525050565b610f41816114a6565b82525050565b610f50816114ee565b82525050565b6000610f628385611483565b9350610f6f838584611536565b610f7883611578565b840190509392505050565b6000610f8e82611478565b610f988185611483565b9350610fa8818560208601611545565b610fb181611578565b840191505092915050565b600081546001811660008114610fd95760018114610fff57611043565b607f6002830416610fea8187611483565b955060ff198316865260208601935050611043565b6002820461100d8187611483565b955061101885611463565b60005b8281101561103a5781548189015260018201915060208101905061101b565b80880195505050505b505092915050565b6000611058601f83611483565b91507f526f6c65733a206163636f756e7420616c72656164792068617320726f6c65006000830152602082019050919050565b6000611098602183611483565b91507f526f6c65733a206163636f756e7420646f6573206e6f74206861766520726f6c60008301527f65000000000000000000000000000000000000000000000000000000000000006020830152604082019050919050565b60006110fe602283611483565b91507f526f6c65733a206163636f756e7420697320746865207a65726f20616464726560008301527f73730000000000000000000000000000000000000000000000000000000000006020830152604082019050919050565b6000611164603083611483565b91507f577269746572526f6c653a2063616c6c657220646f6573206e6f74206861766560008301527f207468652057726974657220726f6c65000000000000000000000000000000006020830152604082019050919050565b6111c6816114d2565b82525050565b60006020820190506111e16000830184610f38565b92915050565b60006020820190506111fc6000830184610f47565b92915050565b6000602082019050818103600083015261121b8161104b565b9050919050565b6000602082019050818103600083015261123b8161108b565b9050919050565b6000602082019050818103600083015261125b816110f1565b9050919050565b6000602082019050818103600083015261127b81611157565b9050919050565b600060208201905061129760008301846111bd565b92915050565b6000610100820190506112b3600083018d6111bd565b6112c0602083018c6111bd565b81810360408301526112d3818a8c610f56565b905081810360608301526112e881888a610f56565b90506112f76080830187610f38565b61130460a0830186610f1a565b61131160c08301856111bd565b61131e60e08301846111bd565b9b9a5050505050505050505050565b600061010082019050611343600083018b6111bd565b611350602083018a6111bd565b81810360408301526113628189610f83565b905081810360608301526113768188610f83565b90506113856080830187610f38565b61139260a0830186610f29565b61139f60c08301856111bd565b6113ac60e0830184610f38565b9998505050505050505050565b6000610140820190506113cf600083018d6111bd565b6113dc602083018c6111bd565b6113e9604083018b6111bd565b81810360608301526113fb818a610fbc565b9050818103608083015261140f8189610fbc565b905061141e60a0830188610f38565b61142b60c0830187610f29565b61143860e08301866111bd565b611446610100830185610f38565b6114546101208301846111bd565b9b9a5050505050505050505050565b60008190508160005260206000209050919050565b600081519050919050565b600082825260208201905092915050565b600061149f826114b2565b9050919050565b60008115159050919050565b600073ffffffffffffffffffffffffffffffffffffffff82169050919050565b6000819050919050565b60006114e782611512565b9050919050565b60006114f982611500565b9050919050565b600061150b826114b2565b9050919050565b600061151d82611524565b9050919050565b600061152f826114b2565b9050919050565b82818337600083830152505050565b60005b83811015611563578082015181840152602081019050611548565b83811115611572576000848401525b50505050565b6000601f19601f8301169050919050565b61159281611494565b811461159d57600080fd5b50565b6115a9816114a6565b81146115b457600080fd5b50565b6115c0816114d2565b81146115cb57600080fd5b5056fea365627a7a723058204f1adefaf253f6db47559962c34b71762cab0eac18053f928bfd5d7e832a82d56c6578706572696d656e74616cf564736f6c634300050a0040",
  "source": "pragma solidity 0.5.10;\npragma experimental ABIEncoderV2;\n// import \"../SimpleToken.sol\";\n// import \"./Utils.sol\";\n// import \"./BlockStorage.sol\";\n// import \"./IStakeManager.sol\";\n// import \"./IStateManager.sol\";\n// import \"./IVoteManager.sol\";\nimport \"./JobStorage.sol\";\nimport \"./IStateManager.sol\";\nimport \"openzeppelin-solidity/contracts/math/SafeMath.sol\";\nimport \"./WriterRole.sol\";\n\n\ncontract JobManager is WriterRole, JobStorage {\n\n    event JobCreated(uint256 id, uint256 epoch, string url, string selector, bool repeat,\n                            address creator, uint256 credit, uint256 timestamp);\n    // event JobFulfilled(uint256 id, uint256 epoch, string url, string selector, bool repeat,\n    //                     address creator, uint256 credit, bool fulfulled);\n\n    event JobReported(uint256 id, uint256 value, uint256 epoch,\n                        string url, string selector, bool repeat,\n                        address creator, uint256 credit, bool fulfilled, uint256 timestamp);\n\n    IStateManager public stateManager;\n\n    //disable after init.\n    function init(address _stateManagerAddress) external {\n        stateManager = IStateManager(_stateManagerAddress);\n    }\n\n    function createJob (string calldata url, string calldata selector, bool repeat) external payable {\n        numJobs = numJobs + 1;\n        uint256 epoch = stateManager.getEpoch();\n        Structs.Job memory job = Structs.Job(numJobs, epoch, url, selector, repeat, msg.sender, msg.value, false);\n        jobs[numJobs] = job;\n        emit JobCreated(numJobs, epoch, url, selector, repeat, msg.sender, msg.value, now);\n        // jobs.push(job);\n    }\n\n    function fulfillJob(uint256 jobId, uint256 value) external onlyWriter {\n        Structs.Job storage job = jobs[jobId];\n        uint256 epoch = stateManager.getEpoch();\n\n        if (!job.repeat) {\n            job.fulfilled = true;\n            // emit JobFulfilled(job.id, epoch, job.url, job.selector,\n            //job.repeat, job.creator, job.credit, job.fulfilled);\n        }\n        emit JobReported(job.id, value, epoch, job.url, job.selector, job.repeat,\n        job.creator, job.credit, job.fulfilled, now);\n    }\n}\n",
  "sourcePath": "/Users/hrishi/contracts/contracts/Schelling4/JobManager.sol",
  "compiler": {
    "name": "solc",
    "version": "0.5.10+commit.5a6ea5b1.Emscripten.clang"
  },
  "schemaVersion": "3.0.11",
  "updatedAt": "2019-09-30T17:44:28.977Z",
  "devdoc": {
    "methods": {}
  },
  "userdoc": {
    "methods": {}
  }
}