{
  "contractName": "JobManager",
  "abi": [
    {
      "constant": true,
      "inputs": [
        {
          "name": "",
          "type": "uint256"
        }
      ],
      "name": "jobs",
      "outputs": [
        {
          "name": "id",
          "type": "uint256"
        },
        {
          "name": "epoch",
          "type": "uint256"
        },
        {
          "name": "url",
          "type": "string"
        },
        {
          "name": "selector",
          "type": "string"
        },
        {
          "name": "repeat",
          "type": "bool"
        },
        {
          "name": "creator",
          "type": "address"
        },
        {
          "name": "credit",
          "type": "uint256"
        },
        {
          "name": "fulfilled",
          "type": "bool"
        },
        {
          "name": "result",
          "type": "uint256"
        }
      ],
      "payable": false,
      "stateMutability": "view",
      "type": "function"
    },
    {
      "constant": true,
      "inputs": [
        {
          "name": "account",
          "type": "address"
        }
      ],
      "name": "isWriter",
      "outputs": [
        {
          "name": "",
          "type": "bool"
        }
      ],
      "payable": false,
      "stateMutability": "view",
      "type": "function"
    },
    {
      "constant": true,
      "inputs": [],
      "name": "stateManager",
      "outputs": [
        {
          "name": "",
          "type": "address"
        }
      ],
      "payable": false,
      "stateMutability": "view",
      "type": "function"
    },
    {
      "constant": true,
      "inputs": [],
      "name": "numJobs",
      "outputs": [
        {
          "name": "",
          "type": "uint256"
        }
      ],
      "payable": false,
      "stateMutability": "view",
      "type": "function"
    },
    {
      "constant": false,
      "inputs": [
        {
          "name": "account",
          "type": "address"
        }
      ],
      "name": "addWriter",
      "outputs": [],
      "payable": false,
      "stateMutability": "nonpayable",
      "type": "function"
    },
    {
      "constant": false,
      "inputs": [],
      "name": "renounceWriter",
      "outputs": [],
      "payable": false,
      "stateMutability": "nonpayable",
      "type": "function"
    },
    {
      "anonymous": false,
      "inputs": [
        {
          "indexed": false,
          "name": "id",
          "type": "uint256"
        },
        {
          "indexed": false,
          "name": "epoch",
          "type": "uint256"
        },
        {
          "indexed": false,
          "name": "url",
          "type": "string"
        },
        {
          "indexed": false,
          "name": "selector",
          "type": "string"
        },
        {
          "indexed": false,
          "name": "repeat",
          "type": "bool"
        },
        {
          "indexed": false,
          "name": "creator",
          "type": "address"
        },
        {
          "indexed": false,
          "name": "credit",
          "type": "uint256"
        },
        {
          "indexed": false,
          "name": "timestamp",
          "type": "uint256"
        }
      ],
      "name": "JobCreated",
      "type": "event"
    },
    {
      "anonymous": false,
      "inputs": [
        {
          "indexed": false,
          "name": "id",
          "type": "uint256"
        },
        {
          "indexed": false,
          "name": "value",
          "type": "uint256"
        },
        {
          "indexed": false,
          "name": "epoch",
          "type": "uint256"
        },
        {
          "indexed": false,
          "name": "url",
          "type": "string"
        },
        {
          "indexed": false,
          "name": "selector",
          "type": "string"
        },
        {
          "indexed": false,
          "name": "repeat",
          "type": "bool"
        },
        {
          "indexed": false,
          "name": "creator",
          "type": "address"
        },
        {
          "indexed": false,
          "name": "credit",
          "type": "uint256"
        },
        {
          "indexed": false,
          "name": "fulfilled",
          "type": "bool"
        },
        {
          "indexed": false,
          "name": "timestamp",
          "type": "uint256"
        }
      ],
      "name": "JobReported",
      "type": "event"
    },
    {
      "anonymous": false,
      "inputs": [
        {
          "indexed": true,
          "name": "account",
          "type": "address"
        }
      ],
      "name": "WriterAdded",
      "type": "event"
    },
    {
      "anonymous": false,
      "inputs": [
        {
          "indexed": true,
          "name": "account",
          "type": "address"
        }
      ],
      "name": "WriterRemoved",
      "type": "event"
    },
    {
      "constant": false,
      "inputs": [
        {
          "name": "_stateManagerAddress",
          "type": "address"
        }
      ],
      "name": "init",
      "outputs": [],
      "payable": false,
      "stateMutability": "nonpayable",
      "type": "function"
    },
    {
      "constant": false,
      "inputs": [
        {
          "name": "url",
          "type": "string"
        },
        {
          "name": "selector",
          "type": "string"
        },
        {
          "name": "repeat",
          "type": "bool"
        }
      ],
      "name": "createJob",
      "outputs": [],
      "payable": true,
      "stateMutability": "payable",
      "type": "function"
    },
    {
      "constant": false,
      "inputs": [
        {
          "name": "jobId",
          "type": "uint256"
        },
        {
          "name": "value",
          "type": "uint256"
        }
      ],
      "name": "fulfillJob",
      "outputs": [],
      "payable": false,
      "stateMutability": "nonpayable",
      "type": "function"
    },
    {
      "constant": true,
      "inputs": [
        {
          "name": "id",
          "type": "uint256"
        }
      ],
      "name": "getResult",
      "outputs": [
        {
          "name": "",
          "type": "uint256"
        }
      ],
      "payable": false,
      "stateMutability": "view",
      "type": "function"
    }
  ],
  "bytecode": "0x608060405262000015336200001b60201b60201c565b620002f9565b620000368160006200007c60201b62000b731790919060201c565b8073ffffffffffffffffffffffffffffffffffffffff167f6ff3aa2ea7b53070f6d9d07a445d338d89e8edef44250ffa8be19f53910d4a2e60405160405180910390a250565b6200008e82826200012f60201b60201c565b15620000d1576040517f08c379a0000000000000000000000000000000000000000000000000000000008152600401620000c890620002a4565b60405180910390fd5b60018260000160008373ffffffffffffffffffffffffffffffffffffffff1673ffffffffffffffffffffffffffffffffffffffff16815260200190815260200160002060006101000a81548160ff0219169083151502179055505050565b60008073ffffffffffffffffffffffffffffffffffffffff168273ffffffffffffffffffffffffffffffffffffffff161415620001a3576040517f08c379a00000000000000000000000000000000000000000000000000000000081526004016200019a90620002c6565b60405180910390fd5b8260000160008373ffffffffffffffffffffffffffffffffffffffff1673ffffffffffffffffffffffffffffffffffffffff16815260200190815260200160002060009054906101000a900460ff16905092915050565b600062000209601f83620002e8565b91507f526f6c65733a206163636f756e7420616c72656164792068617320726f6c65006000830152602082019050919050565b60006200024b602283620002e8565b91507f526f6c65733a206163636f756e7420697320746865207a65726f20616464726560008301527f73730000000000000000000000000000000000000000000000000000000000006020830152604082019050919050565b60006020820190508181036000830152620002bf81620001fa565b9050919050565b60006020820190508181036000830152620002e1816200023c565b9050919050565b600082825260208201905092915050565b6116b180620003096000396000f3fe6080604052600436106100915760003560e01c806356350bdf1161005957806356350bdf146101885780639212051c146101b1578063995e4339146101dc578063da2824a814610219578063df4eb59c1461024257610091565b8063180aedf31461009657806319ab453c146100db57806325d10c3f146101045780632b29ba23146101205780632e716fb11461015d575b600080fd5b3480156100a257600080fd5b506100bd60048036036100b89190810190610f1d565b610259565b6040516100d2999897969594939291906113be565b60405180910390f35b3480156100e757600080fd5b5061010260048036036100fd9190810190610e6b565b610411565b005b61011e60048036036101199190810190610e94565b610455565b005b34801561012c57600080fd5b5061014760048036036101429190810190610e6b565b61074c565b604051610154919061125d565b60405180910390f35b34801561016957600080fd5b50610172610769565b60405161017f9190611278565b60405180910390f35b34801561019457600080fd5b506101af60048036036101aa9190810190610f6f565b61078f565b005b3480156101bd57600080fd5b506101c6610972565b6040516101d39190611313565b60405180910390f35b3480156101e857600080fd5b5061020360048036036101fe9190810190610f1d565b610978565b6040516102109190611313565b60405180910390f35b34801561022557600080fd5b50610240600480360361023b9190810190610e6b565b610998565b005b34801561024e57600080fd5b506102576109ec565b005b6001602052806000526040600020600091509050806000015490806001015490806002018054600181600116156101000203166002900480601f0160208091040260200160405190810160405280929190818152602001828054600181600116156101000203166002900480156103115780601f106102e657610100808354040283529160200191610311565b820191906000526020600020905b8154815290600101906020018083116102f457829003601f168201915b505050505090806003018054600181600116156101000203166002900480601f0160208091040260200160405190810160405280929190818152602001828054600181600116156101000203166002900480156103af5780601f10610384576101008083540402835291602001916103af565b820191906000526020600020905b81548152906001019060200180831161039257829003601f168201915b5050505050908060040160009054906101000a900460ff16908060040160019054906101000a900473ffffffffffffffffffffffffffffffffffffffff16908060050154908060060160009054906101000a900460ff16908060070154905089565b80600360006101000a81548173ffffffffffffffffffffffffffffffffffffffff021916908373ffffffffffffffffffffffffffffffffffffffff16021790555050565b6001600254016002819055506000600360009054906101000a900473ffffffffffffffffffffffffffffffffffffffff1673ffffffffffffffffffffffffffffffffffffffff1663757991a86040518163ffffffff1660e01b815260040160206040518083038186803b1580156104cb57600080fd5b505afa1580156104df573d6000803e3d6000fd5b505050506040513d601f19601f820116820180604052506105039190810190610f46565b905061050d610cc2565b604051806101200160405280600254815260200183815260200188888080601f016020809104026020016040519081016040528093929190818152602001838380828437600081840152601f19601f82011690508083019250505050505050815260200186868080601f016020809104026020016040519081016040528093929190818152602001838380828437600081840152601f19601f82011690508083019250505050505050815260200184151581526020013373ffffffffffffffffffffffffffffffffffffffff16815260200134815260200160001515815260200160008152509050806001600060025481526020019081526020016000206000820151816000015560208201518160010155604082015181600201908051906020019061063b929190610d28565b506060820151816003019080519060200190610658929190610d28565b5060808201518160040160006101000a81548160ff02191690831515021790555060a08201518160040160016101000a81548173ffffffffffffffffffffffffffffffffffffffff021916908373ffffffffffffffffffffffffffffffffffffffff16021790555060c0820151816005015560e08201518160060160006101000a81548160ff02191690831515021790555061010082015181600701559050507fb59e70a4b81df655f645ba254df330f6b7b73ee591d3efe59c87acf4fec21bbe60025483898989898933344260405161073b9a9998979695949392919061132e565b60405180910390a150505050505050565b60006107628260006109f790919063ffffffff16565b9050919050565b600360009054906101000a900473ffffffffffffffffffffffffffffffffffffffff1681565b6107983361074c565b6107d7576040517f08c379a00000000000000000000000000000000000000000000000000000000081526004016107ce906112f3565b60405180910390fd5b60006001600084815260200190815260200160002090506000600360009054906101000a900473ffffffffffffffffffffffffffffffffffffffff1673ffffffffffffffffffffffffffffffffffffffff1663757991a86040518163ffffffff1660e01b815260040160206040518083038186803b15801561085857600080fd5b505afa15801561086c573d6000803e3d6000fd5b505050506040513d601f19601f820116820180604052506108909190810190610f46565b90508160040160009054906101000a900460ff166108c65760018260060160006101000a81548160ff0219169083151502179055505b7f445b511765f4a3a4e2341247fec72f6a760afc23b83c59fa5572ae81df3939c88260000154848385600201866003018760040160009054906101000a900460ff168860040160019054906101000a900473ffffffffffffffffffffffffffffffffffffffff1689600501548a60060160009054906101000a900460ff164260405161095b9a99989796959493929190611459565b60405180910390a182826007018190555050505050565b60025481565b600060016000838152602001908152602001600020600701549050919050565b6109a13361074c565b6109e0576040517f08c379a00000000000000000000000000000000000000000000000000000000081526004016109d7906112f3565b60405180910390fd5b6109e981610abf565b50565b6109f533610b19565b565b60008073ffffffffffffffffffffffffffffffffffffffff168273ffffffffffffffffffffffffffffffffffffffff161415610a68576040517f08c379a0000000000000000000000000000000000000000000000000000000008152600401610a5f906112d3565b60405180910390fd5b8260000160008373ffffffffffffffffffffffffffffffffffffffff1673ffffffffffffffffffffffffffffffffffffffff16815260200190815260200160002060009054906101000a900460ff16905092915050565b610ad3816000610b7390919063ffffffff16565b8073ffffffffffffffffffffffffffffffffffffffff167f6ff3aa2ea7b53070f6d9d07a445d338d89e8edef44250ffa8be19f53910d4a2e60405160405180910390a250565b610b2d816000610c1b90919063ffffffff16565b8073ffffffffffffffffffffffffffffffffffffffff167f86e5bbceda94081c32220d685f37cc4e3ea7bb0be2dfbf0cb703579505a5390e60405160405180910390a250565b610b7d82826109f7565b15610bbd576040517f08c379a0000000000000000000000000000000000000000000000000000000008152600401610bb490611293565b60405180910390fd5b60018260000160008373ffffffffffffffffffffffffffffffffffffffff1673ffffffffffffffffffffffffffffffffffffffff16815260200190815260200160002060006101000a81548160ff0219169083151502179055505050565b610c2582826109f7565b610c64576040517f08c379a0000000000000000000000000000000000000000000000000000000008152600401610c5b906112b3565b60405180910390fd5b60008260000160008373ffffffffffffffffffffffffffffffffffffffff1673ffffffffffffffffffffffffffffffffffffffff16815260200190815260200160002060006101000a81548160ff0219169083151502179055505050565b60405180610120016040528060008152602001600081526020016060815260200160608152602001600015158152602001600073ffffffffffffffffffffffffffffffffffffffff16815260200160008152602001600015158152602001600081525090565b828054600181600116156101000203166002900490600052602060002090601f016020900481019282601f10610d6957805160ff1916838001178555610d97565b82800160010185558215610d97579182015b82811115610d96578251825591602001919060010190610d7b565b5b509050610da49190610da8565b5090565b610dca91905b80821115610dc6576000816000905550600101610dae565b5090565b90565b600081359050610ddc81611629565b92915050565b600081359050610df181611640565b92915050565b60008083601f840112610e0957600080fd5b8235905067ffffffffffffffff811115610e2257600080fd5b602083019150836001820283011115610e3a57600080fd5b9250929050565b600081359050610e5081611657565b92915050565b600081519050610e6581611657565b92915050565b600060208284031215610e7d57600080fd5b6000610e8b84828501610dcd565b91505092915050565b600080600080600060608688031215610eac57600080fd5b600086013567ffffffffffffffff811115610ec657600080fd5b610ed288828901610df7565b9550955050602086013567ffffffffffffffff811115610ef157600080fd5b610efd88828901610df7565b93509350506040610f1088828901610de2565b9150509295509295909350565b600060208284031215610f2f57600080fd5b6000610f3d84828501610e41565b91505092915050565b600060208284031215610f5857600080fd5b6000610f6684828501610e56565b91505092915050565b60008060408385031215610f8257600080fd5b6000610f9085828601610e41565b9250506020610fa185828601610e41565b9150509250929050565b610fb48161157c565b82525050565b610fc381611534565b82525050565b610fd281611546565b82525050565b610fe18161158e565b82525050565b6000610ff38385611523565b93506110008385846115d6565b61100983611618565b840190509392505050565b600061101f82611518565b6110298185611523565b93506110398185602086016115e5565b61104281611618565b840191505092915050565b60008154600181166000811461106a5760018114611090576110d4565b607f600283041661107b8187611523565b955060ff1983168652602086019350506110d4565b6002820461109e8187611523565b95506110a985611503565b60005b828110156110cb578154818901526001820191506020810190506110ac565b80880195505050505b505092915050565b60006110e9601f83611523565b91507f526f6c65733a206163636f756e7420616c72656164792068617320726f6c65006000830152602082019050919050565b6000611129602183611523565b91507f526f6c65733a206163636f756e7420646f6573206e6f74206861766520726f6c60008301527f65000000000000000000000000000000000000000000000000000000000000006020830152604082019050919050565b600061118f602283611523565b91507f526f6c65733a206163636f756e7420697320746865207a65726f20616464726560008301527f73730000000000000000000000000000000000000000000000000000000000006020830152604082019050919050565b60006111f5603083611523565b91507f577269746572526f6c653a2063616c6c657220646f6573206e6f74206861766560008301527f207468652057726974657220726f6c65000000000000000000000000000000006020830152604082019050919050565b61125781611572565b82525050565b60006020820190506112726000830184610fc9565b92915050565b600060208201905061128d6000830184610fd8565b92915050565b600060208201905081810360008301526112ac816110dc565b9050919050565b600060208201905081810360008301526112cc8161111c565b9050919050565b600060208201905081810360008301526112ec81611182565b9050919050565b6000602082019050818103600083015261130c816111e8565b9050919050565b6000602082019050611328600083018461124e565b92915050565b600061010082019050611344600083018d61124e565b611351602083018c61124e565b8181036040830152611364818a8c610fe7565b9050818103606083015261137981888a610fe7565b90506113886080830187610fc9565b61139560a0830186610fab565b6113a260c083018561124e565b6113af60e083018461124e565b9b9a5050505050505050505050565b6000610120820190506113d4600083018c61124e565b6113e1602083018b61124e565b81810360408301526113f3818a611014565b905081810360608301526114078189611014565b90506114166080830188610fc9565b61142360a0830187610fba565b61143060c083018661124e565b61143d60e0830185610fc9565b61144b61010083018461124e565b9a9950505050505050505050565b60006101408201905061146f600083018d61124e565b61147c602083018c61124e565b611489604083018b61124e565b818103606083015261149b818a61104d565b905081810360808301526114af818961104d565b90506114be60a0830188610fc9565b6114cb60c0830187610fba565b6114d860e083018661124e565b6114e6610100830185610fc9565b6114f461012083018461124e565b9b9a5050505050505050505050565b60008190508160005260206000209050919050565b600081519050919050565b600082825260208201905092915050565b600061153f82611552565b9050919050565b60008115159050919050565b600073ffffffffffffffffffffffffffffffffffffffff82169050919050565b6000819050919050565b6000611587826115b2565b9050919050565b6000611599826115a0565b9050919050565b60006115ab82611552565b9050919050565b60006115bd826115c4565b9050919050565b60006115cf82611552565b9050919050565b82818337600083830152505050565b60005b838110156116035780820151818401526020810190506115e8565b83811115611612576000848401525b50505050565b6000601f19601f8301169050919050565b61163281611534565b811461163d57600080fd5b50565b61164981611546565b811461165457600080fd5b50565b61166081611572565b811461166b57600080fd5b5056fea365627a7a72305820e76ec9172a3b79a109d54d1a7afb98fe5b89e272a95628c77cf034edba8f634b6c6578706572696d656e74616cf564736f6c634300050a0040",
  "source": "pragma solidity 0.5.10;\npragma experimental ABIEncoderV2;\n// import \"../SimpleToken.sol\";\n// import \"./Utils.sol\";\n// import \"./BlockStorage.sol\";\n// import \"./IStakeManager.sol\";\n// import \"./IStateManager.sol\";\n// import \"./IVoteManager.sol\";\nimport \"./JobStorage.sol\";\nimport \"./IStateManager.sol\";\nimport \"openzeppelin-solidity/contracts/math/SafeMath.sol\";\nimport \"./WriterRole.sol\";\n\n\ncontract JobManager is WriterRole, JobStorage {\n\n    event JobCreated(uint256 id, uint256 epoch, string url, string selector, bool repeat,\n                            address creator, uint256 credit, uint256 timestamp);\n    // event JobFulfilled(uint256 id, uint256 epoch, string url, string selector, bool repeat,\n    //                     address creator, uint256 credit, bool fulfulled);\n\n    event JobReported(uint256 id, uint256 value, uint256 epoch,\n                        string url, string selector, bool repeat,\n                        address creator, uint256 credit, bool fulfilled, uint256 timestamp);\n\n    IStateManager public stateManager;\n\n    //disable after init.\n    function init(address _stateManagerAddress) external {\n        stateManager = IStateManager(_stateManagerAddress);\n    }\n\n    function createJob (string calldata url, string calldata selector, bool repeat) external payable {\n        numJobs = numJobs + 1;\n        uint256 epoch = stateManager.getEpoch();\n        Structs.Job memory job = Structs.Job(numJobs, epoch, url, selector, repeat, msg.sender, msg.value, false,0);\n        jobs[numJobs] = job;\n        emit JobCreated(numJobs, epoch, url, selector, repeat, msg.sender, msg.value, now);\n        // jobs.push(job);\n    }\n\n    function fulfillJob(uint256 jobId, uint256 value) external onlyWriter {\n        Structs.Job storage job = jobs[jobId];\n        uint256 epoch = stateManager.getEpoch();\n\n        if (!job.repeat) {\n            job.fulfilled = true;\n            // emit JobFulfilled(job.id, epoch, job.url, job.selector,\n            //job.repeat, job.creator, job.credit, job.fulfilled);\n        }\n        emit JobReported(job.id, value, epoch, job.url, job.selector, job.repeat,\n        job.creator, job.credit, job.fulfilled, now);\n        job.result = value;\n    }\n\n    function getResult(uint256 id) external view returns(uint256) {\n        return jobs[id].result;\n    }\n}\n",
  "sourcePath": "/Users/hrishi/contracts/contracts/Core/JobManager.sol",
  "compiler": {
    "name": "solc",
    "version": "0.5.10+commit.5a6ea5b1.Emscripten.clang"
  },
  "schemaVersion": "3.0.11",
  "updatedAt": "2019-10-03T08:32:04.536Z",
  "devdoc": {
    "methods": {}
  },
  "userdoc": {
    "methods": {}
  }
}