{
  "contractName": "JobManager",
  "abi": [
    {
      "constant": true,
      "inputs": [
        {
          "name": "",
          "type": "uint256"
        }
      ],
      "name": "jobs",
      "outputs": [
        {
          "name": "id",
          "type": "uint256"
        },
        {
          "name": "epoch",
          "type": "uint256"
        },
        {
          "name": "url",
          "type": "string"
        },
        {
          "name": "selector",
          "type": "string"
        },
        {
          "name": "repeat",
          "type": "bool"
        },
        {
          "name": "creator",
          "type": "address"
        },
        {
          "name": "credit",
          "type": "uint256"
        },
        {
          "name": "fulfilled",
          "type": "bool"
        }
      ],
      "payable": false,
      "stateMutability": "view",
      "type": "function"
    },
    {
      "constant": true,
      "inputs": [
        {
          "name": "account",
          "type": "address"
        }
      ],
      "name": "isWriter",
      "outputs": [
        {
          "name": "",
          "type": "bool"
        }
      ],
      "payable": false,
      "stateMutability": "view",
      "type": "function"
    },
    {
      "constant": true,
      "inputs": [],
      "name": "stateManager",
      "outputs": [
        {
          "name": "",
          "type": "address"
        }
      ],
      "payable": false,
      "stateMutability": "view",
      "type": "function"
    },
    {
      "constant": true,
      "inputs": [],
      "name": "numJobs",
      "outputs": [
        {
          "name": "",
          "type": "uint256"
        }
      ],
      "payable": false,
      "stateMutability": "view",
      "type": "function"
    },
    {
      "constant": false,
      "inputs": [
        {
          "name": "account",
          "type": "address"
        }
      ],
      "name": "addWriter",
      "outputs": [],
      "payable": false,
      "stateMutability": "nonpayable",
      "type": "function"
    },
    {
      "constant": false,
      "inputs": [],
      "name": "renounceWriter",
      "outputs": [],
      "payable": false,
      "stateMutability": "nonpayable",
      "type": "function"
    },
    {
      "anonymous": false,
      "inputs": [
        {
          "indexed": false,
          "name": "id",
          "type": "uint256"
        },
        {
          "indexed": false,
          "name": "epoch",
          "type": "uint256"
        },
        {
          "indexed": false,
          "name": "url",
          "type": "string"
        },
        {
          "indexed": false,
          "name": "selector",
          "type": "string"
        },
        {
          "indexed": false,
          "name": "repeat",
          "type": "bool"
        },
        {
          "indexed": false,
          "name": "creator",
          "type": "address"
        },
        {
          "indexed": false,
          "name": "credit",
          "type": "uint256"
        },
        {
          "indexed": false,
          "name": "fulfulled",
          "type": "bool"
        }
      ],
      "name": "JobFulfilled",
      "type": "event"
    },
    {
      "anonymous": false,
      "inputs": [
        {
          "indexed": false,
          "name": "id",
          "type": "uint256"
        },
        {
          "indexed": false,
          "name": "epoch",
          "type": "uint256"
        },
        {
          "indexed": false,
          "name": "url",
          "type": "string"
        },
        {
          "indexed": false,
          "name": "selector",
          "type": "string"
        },
        {
          "indexed": false,
          "name": "repeat",
          "type": "bool"
        },
        {
          "indexed": false,
          "name": "creator",
          "type": "address"
        },
        {
          "indexed": false,
          "name": "credit",
          "type": "uint256"
        }
      ],
      "name": "JobCreteted",
      "type": "event"
    },
    {
      "anonymous": false,
      "inputs": [
        {
          "indexed": true,
          "name": "account",
          "type": "address"
        }
      ],
      "name": "WriterAdded",
      "type": "event"
    },
    {
      "anonymous": false,
      "inputs": [
        {
          "indexed": true,
          "name": "account",
          "type": "address"
        }
      ],
      "name": "WriterRemoved",
      "type": "event"
    },
    {
      "constant": false,
      "inputs": [
        {
          "name": "_stateManagerAddress",
          "type": "address"
        }
      ],
      "name": "init",
      "outputs": [],
      "payable": false,
      "stateMutability": "nonpayable",
      "type": "function"
    },
    {
      "constant": false,
      "inputs": [
        {
          "name": "url",
          "type": "string"
        },
        {
          "name": "selector",
          "type": "string"
        },
        {
          "name": "repeat",
          "type": "bool"
        }
      ],
      "name": "createJob",
      "outputs": [],
      "payable": true,
      "stateMutability": "payable",
      "type": "function"
    },
    {
      "constant": false,
      "inputs": [
        {
          "name": "jobId",
          "type": "uint256"
        }
      ],
      "name": "fulfillJob",
      "outputs": [],
      "payable": false,
      "stateMutability": "nonpayable",
      "type": "function"
    }
  ],
  "bytecode": "0x608060405262000015336200001b60201b60201c565b620002f9565b620000368160006200007c60201b62000ae21790919060201c565b8073ffffffffffffffffffffffffffffffffffffffff167f6ff3aa2ea7b53070f6d9d07a445d338d89e8edef44250ffa8be19f53910d4a2e60405160405180910390a250565b6200008e82826200012f60201b60201c565b15620000d1576040517f08c379a0000000000000000000000000000000000000000000000000000000008152600401620000c890620002a4565b60405180910390fd5b60018260000160008373ffffffffffffffffffffffffffffffffffffffff1673ffffffffffffffffffffffffffffffffffffffff16815260200190815260200160002060006101000a81548160ff0219169083151502179055505050565b60008073ffffffffffffffffffffffffffffffffffffffff168273ffffffffffffffffffffffffffffffffffffffff161415620001a3576040517f08c379a00000000000000000000000000000000000000000000000000000000081526004016200019a90620002c6565b60405180910390fd5b8260000160008373ffffffffffffffffffffffffffffffffffffffff1673ffffffffffffffffffffffffffffffffffffffff16815260200190815260200160002060009054906101000a900460ff16905092915050565b600062000209601f83620002e8565b91507f526f6c65733a206163636f756e7420616c72656164792068617320726f6c65006000830152602082019050919050565b60006200024b602283620002e8565b91507f526f6c65733a206163636f756e7420697320746865207a65726f20616464726560008301527f73730000000000000000000000000000000000000000000000000000000000006020830152604082019050919050565b60006020820190508181036000830152620002bf81620001fa565b9050919050565b60006020820190508181036000830152620002e1816200023c565b9050919050565b600082825260208201905092915050565b6115a180620003096000396000f3fe6080604052600436106100865760003560e01c80632e716fb1116100595780632e716fb1146101515780639212051c1461017c578063cb3a2b28146101a7578063da2824a8146101d0578063df4eb59c146101f957610086565b8063180aedf31461008b57806319ab453c146100cf57806325d10c3f146100f85780632b29ba2314610114575b600080fd5b34801561009757600080fd5b506100b260048036036100ad9190810190610e85565b610210565b6040516100c69897969594939291906112db565b60405180910390f35b3480156100db57600080fd5b506100f660048036036100f19190810190610dd3565b6103c2565b005b610112600480360361010d9190810190610dfc565b610406565b005b34801561012057600080fd5b5061013b60048036036101369190810190610dd3565b6106e9565b6040516101489190611189565b60405180910390f35b34801561015d57600080fd5b50610166610706565b60405161017391906111a4565b60405180910390f35b34801561018857600080fd5b5061019161072c565b60405161019e919061123f565b60405180910390f35b3480156101b357600080fd5b506101ce60048036036101c99190810190610e85565b610732565b005b3480156101dc57600080fd5b506101f760048036036101f29190810190610dd3565b610907565b005b34801561020557600080fd5b5061020e61095b565b005b6001602052806000526040600020600091509050806000015490806001015490806002018054600181600116156101000203166002900480601f0160208091040260200160405190810160405280929190818152602001828054600181600116156101000203166002900480156102c85780601f1061029d576101008083540402835291602001916102c8565b820191906000526020600020905b8154815290600101906020018083116102ab57829003601f168201915b505050505090806003018054600181600116156101000203166002900480601f0160208091040260200160405190810160405280929190818152602001828054600181600116156101000203166002900480156103665780601f1061033b57610100808354040283529160200191610366565b820191906000526020600020905b81548152906001019060200180831161034957829003601f168201915b5050505050908060040160009054906101000a900460ff16908060040160019054906101000a900473ffffffffffffffffffffffffffffffffffffffff16908060050154908060060160009054906101000a900460ff16905088565b80600360006101000a81548173ffffffffffffffffffffffffffffffffffffffff021916908373ffffffffffffffffffffffffffffffffffffffff16021790555050565b6001600254016002819055506000600360009054906101000a900473ffffffffffffffffffffffffffffffffffffffff1673ffffffffffffffffffffffffffffffffffffffff1663757991a86040518163ffffffff1660e01b815260040160206040518083038186803b15801561047c57600080fd5b505afa158015610490573d6000803e3d6000fd5b505050506040513d601f19601f820116820180604052506104b49190810190610eae565b90506104be610c31565b604051806101000160405280600254815260200183815260200188888080601f016020809104026020016040519081016040528093929190818152602001838380828437600081840152601f19601f82011690508083019250505050505050815260200186868080601f016020809104026020016040519081016040528093929190818152602001838380828437600081840152601f19601f82011690508083019250505050505050815260200184151581526020013373ffffffffffffffffffffffffffffffffffffffff16815260200134815260200160001515815250905080600160006002548152602001908152602001600020600082015181600001556020820151816001015560408201518160020190805190602001906105e5929190610c90565b506060820151816003019080519060200190610602929190610c90565b5060808201518160040160006101000a81548160ff02191690831515021790555060a08201518160040160016101000a81548173ffffffffffffffffffffffffffffffffffffffff021916908373ffffffffffffffffffffffffffffffffffffffff16021790555060c0820151816005015560e08201518160060160006101000a81548160ff0219169083151502179055509050507ff522aae7aa801140c35ce4a026e28ffdfa41b1c07e48474f62fc888cb2a33fa260025483898989898933346040516106d89998979695949392919061125a565b60405180910390a150505050505050565b60006106ff82600061096690919063ffffffff16565b9050919050565b600360009054906101000a900473ffffffffffffffffffffffffffffffffffffffff1681565b60025481565b61073b336106e9565b61077a576040517f08c379a00000000000000000000000000000000000000000000000000000000081526004016107719061121f565b60405180910390fd5b60006001600083815260200190815260200160002090508060040160009054906101000a900460ff166109035760018160060160006101000a81548160ff0219169083151502179055506000600360009054906101000a900473ffffffffffffffffffffffffffffffffffffffff1673ffffffffffffffffffffffffffffffffffffffff1663757991a86040518163ffffffff1660e01b815260040160206040518083038186803b15801561082e57600080fd5b505afa158015610842573d6000803e3d6000fd5b505050506040513d601f19601f820116820180604052506108669190810190610eae565b90507f5d9804030931dee8bd274de1a993bfc49ac59dfdc53182ecbf1d1f9b33aa13ac82600001548284600201856003018660040160009054906101000a900460ff168760040160019054906101000a900473ffffffffffffffffffffffffffffffffffffffff1688600501548960060160009054906101000a900460ff166040516108f9989796959493929190611367565b60405180910390a1505b5050565b610910336106e9565b61094f576040517f08c379a00000000000000000000000000000000000000000000000000000000081526004016109469061121f565b60405180910390fd5b61095881610a2e565b50565b61096433610a88565b565b60008073ffffffffffffffffffffffffffffffffffffffff168273ffffffffffffffffffffffffffffffffffffffff1614156109d7576040517f08c379a00000000000000000000000000000000000000000000000000000000081526004016109ce906111ff565b60405180910390fd5b8260000160008373ffffffffffffffffffffffffffffffffffffffff1673ffffffffffffffffffffffffffffffffffffffff16815260200190815260200160002060009054906101000a900460ff16905092915050565b610a42816000610ae290919063ffffffff16565b8073ffffffffffffffffffffffffffffffffffffffff167f6ff3aa2ea7b53070f6d9d07a445d338d89e8edef44250ffa8be19f53910d4a2e60405160405180910390a250565b610a9c816000610b8a90919063ffffffff16565b8073ffffffffffffffffffffffffffffffffffffffff167f86e5bbceda94081c32220d685f37cc4e3ea7bb0be2dfbf0cb703579505a5390e60405160405180910390a250565b610aec8282610966565b15610b2c576040517f08c379a0000000000000000000000000000000000000000000000000000000008152600401610b23906111bf565b60405180910390fd5b60018260000160008373ffffffffffffffffffffffffffffffffffffffff1673ffffffffffffffffffffffffffffffffffffffff16815260200190815260200160002060006101000a81548160ff0219169083151502179055505050565b610b948282610966565b610bd3576040517f08c379a0000000000000000000000000000000000000000000000000000000008152600401610bca906111df565b60405180910390fd5b60008260000160008373ffffffffffffffffffffffffffffffffffffffff1673ffffffffffffffffffffffffffffffffffffffff16815260200190815260200160002060006101000a81548160ff0219169083151502179055505050565b60405180610100016040528060008152602001600081526020016060815260200160608152602001600015158152602001600073ffffffffffffffffffffffffffffffffffffffff168152602001600081526020016000151581525090565b828054600181600116156101000203166002900490600052602060002090601f016020900481019282601f10610cd157805160ff1916838001178555610cff565b82800160010185558215610cff579182015b82811115610cfe578251825591602001919060010190610ce3565b5b509050610d0c9190610d10565b5090565b610d3291905b80821115610d2e576000816000905550600101610d16565b5090565b90565b600081359050610d4481611519565b92915050565b600081359050610d5981611530565b92915050565b60008083601f840112610d7157600080fd5b8235905067ffffffffffffffff811115610d8a57600080fd5b602083019150836001820283011115610da257600080fd5b9250929050565b600081359050610db881611547565b92915050565b600081519050610dcd81611547565b92915050565b600060208284031215610de557600080fd5b6000610df384828501610d35565b91505092915050565b600080600080600060608688031215610e1457600080fd5b600086013567ffffffffffffffff811115610e2e57600080fd5b610e3a88828901610d5f565b9550955050602086013567ffffffffffffffff811115610e5957600080fd5b610e6588828901610d5f565b93509350506040610e7888828901610d4a565b9150509295509295909350565b600060208284031215610e9757600080fd5b6000610ea584828501610da9565b91505092915050565b600060208284031215610ec057600080fd5b6000610ece84828501610dbe565b91505092915050565b610ee08161146c565b82525050565b610eef81611424565b82525050565b610efe81611436565b82525050565b610f0d8161147e565b82525050565b6000610f1f8385611413565b9350610f2c8385846114c6565b610f3583611508565b840190509392505050565b6000610f4b82611408565b610f558185611413565b9350610f658185602086016114d5565b610f6e81611508565b840191505092915050565b600081546001811660008114610f965760018114610fbc57611000565b607f6002830416610fa78187611413565b955060ff198316865260208601935050611000565b60028204610fca8187611413565b9550610fd5856113f3565b60005b82811015610ff757815481890152600182019150602081019050610fd8565b80880195505050505b505092915050565b6000611015601f83611413565b91507f526f6c65733a206163636f756e7420616c72656164792068617320726f6c65006000830152602082019050919050565b6000611055602183611413565b91507f526f6c65733a206163636f756e7420646f6573206e6f74206861766520726f6c60008301527f65000000000000000000000000000000000000000000000000000000000000006020830152604082019050919050565b60006110bb602283611413565b91507f526f6c65733a206163636f756e7420697320746865207a65726f20616464726560008301527f73730000000000000000000000000000000000000000000000000000000000006020830152604082019050919050565b6000611121603083611413565b91507f577269746572526f6c653a2063616c6c657220646f6573206e6f74206861766560008301527f207468652057726974657220726f6c65000000000000000000000000000000006020830152604082019050919050565b61118381611462565b82525050565b600060208201905061119e6000830184610ef5565b92915050565b60006020820190506111b96000830184610f04565b92915050565b600060208201905081810360008301526111d881611008565b9050919050565b600060208201905081810360008301526111f881611048565b9050919050565b60006020820190508181036000830152611218816110ae565b9050919050565b6000602082019050818103600083015261123881611114565b9050919050565b6000602082019050611254600083018461117a565b92915050565b600060e08201905061126f600083018c61117a565b61127c602083018b61117a565b818103604083015261128f81898b610f13565b905081810360608301526112a4818789610f13565b90506112b36080830186610ef5565b6112c060a0830185610ed7565b6112cd60c083018461117a565b9a9950505050505050505050565b6000610100820190506112f1600083018b61117a565b6112fe602083018a61117a565b81810360408301526113108189610f40565b905081810360608301526113248188610f40565b90506113336080830187610ef5565b61134060a0830186610ee6565b61134d60c083018561117a565b61135a60e0830184610ef5565b9998505050505050505050565b60006101008201905061137d600083018b61117a565b61138a602083018a61117a565b818103604083015261139c8189610f79565b905081810360608301526113b08188610f79565b90506113bf6080830187610ef5565b6113cc60a0830186610ee6565b6113d960c083018561117a565b6113e660e0830184610ef5565b9998505050505050505050565b60008190508160005260206000209050919050565b600081519050919050565b600082825260208201905092915050565b600061142f82611442565b9050919050565b60008115159050919050565b600073ffffffffffffffffffffffffffffffffffffffff82169050919050565b6000819050919050565b6000611477826114a2565b9050919050565b600061148982611490565b9050919050565b600061149b82611442565b9050919050565b60006114ad826114b4565b9050919050565b60006114bf82611442565b9050919050565b82818337600083830152505050565b60005b838110156114f35780820151818401526020810190506114d8565b83811115611502576000848401525b50505050565b6000601f19601f8301169050919050565b61152281611424565b811461152d57600080fd5b50565b61153981611436565b811461154457600080fd5b50565b61155081611462565b811461155b57600080fd5b5056fea365627a7a723058206d98b6e16de7f7dbd3b93aca6f55b6384f3bb63ae22b277320bf0a0e70605c036c6578706572696d656e74616cf564736f6c634300050a0040",
  "source": "pragma solidity 0.5.10;\npragma experimental ABIEncoderV2;\n// import \"../SimpleToken.sol\";\n// import \"./Utils.sol\";\n// import \"./BlockStorage.sol\";\n// import \"./IStakeManager.sol\";\n// import \"./IStateManager.sol\";\n// import \"./IVoteManager.sol\";\nimport \"./JobStorage.sol\";\nimport \"./IStateManager.sol\";\nimport \"openzeppelin-solidity/contracts/math/SafeMath.sol\";\nimport \"./WriterRole.sol\";\n\n\ncontract JobManager is WriterRole, JobStorage {\n    event JobFulfilled(uint256 id, uint256 epoch, string url, string selector, bool repeat,\n                        address creator, uint256 credit, bool fulfulled);\n\n    event JobCreteted(uint256 id, uint256 epoch, string url, string selector, bool repeat,\n                        address creator, uint256 credit);\n\n    IStateManager public stateManager;\n\n    //disable after init.\n    function init(address _stateManagerAddress) external {\n        stateManager = IStateManager(_stateManagerAddress);\n    }\n\n    function createJob (string calldata url, string calldata selector, bool repeat) external payable {\n        numJobs = numJobs + 1;\n        uint256 epoch = stateManager.getEpoch();\n        Structs.Job memory job = Structs.Job(numJobs, epoch, url, selector, repeat, msg.sender, msg.value, false);\n        jobs[numJobs] = job;\n        emit JobCreteted(numJobs, epoch, url, selector, repeat, msg.sender, msg.value);\n        // jobs.push(job);\n    }\n\n    function fulfillJob(uint256 jobId) external onlyWriter {\n        Structs.Job storage job = jobs[jobId];\n        if (!job.repeat) {\n            job.fulfilled = true;\n            uint256 epoch = stateManager.getEpoch();\n            emit JobFulfilled(job.id, epoch, job.url, job.selector, job.repeat, job.creator, job.credit, job.fulfilled);\n        }\n    }\n}\n",
  "sourcePath": "/Users/hrishi/contracts/contracts/Schelling4/JobManager.sol",
  "compiler": {
    "name": "solc",
    "version": "0.5.10+commit.5a6ea5b1.Emscripten.clang"
  },
  "schemaVersion": "3.0.11",
  "updatedAt": "2019-09-11T17:38:26.406Z",
  "devdoc": {
    "methods": {}
  },
  "userdoc": {
    "methods": {}
  }
}