{
  "contractName": "JobManager",
  "abi": [
    {
      "constant": true,
      "inputs": [
        {
          "name": "",
          "type": "uint256"
        }
      ],
      "name": "jobs",
      "outputs": [
        {
          "name": "id",
          "type": "uint256"
        },
        {
          "name": "epoch",
          "type": "uint256"
        },
        {
          "name": "url",
          "type": "string"
        },
        {
          "name": "selector",
          "type": "string"
        },
        {
          "name": "repeat",
          "type": "bool"
        },
        {
          "name": "creator",
          "type": "address"
        },
        {
          "name": "credit",
          "type": "uint256"
        },
        {
          "name": "fulfilled",
          "type": "bool"
        }
      ],
      "payable": false,
      "stateMutability": "view",
      "type": "function"
    },
    {
      "constant": true,
      "inputs": [
        {
          "name": "account",
          "type": "address"
        }
      ],
      "name": "isWriter",
      "outputs": [
        {
          "name": "",
          "type": "bool"
        }
      ],
      "payable": false,
      "stateMutability": "view",
      "type": "function"
    },
    {
      "constant": true,
      "inputs": [],
      "name": "stateManager",
      "outputs": [
        {
          "name": "",
          "type": "address"
        }
      ],
      "payable": false,
      "stateMutability": "view",
      "type": "function"
    },
    {
      "constant": true,
      "inputs": [],
      "name": "numJobs",
      "outputs": [
        {
          "name": "",
          "type": "uint256"
        }
      ],
      "payable": false,
      "stateMutability": "view",
      "type": "function"
    },
    {
      "constant": false,
      "inputs": [
        {
          "name": "account",
          "type": "address"
        }
      ],
      "name": "addWriter",
      "outputs": [],
      "payable": false,
      "stateMutability": "nonpayable",
      "type": "function"
    },
    {
      "constant": false,
      "inputs": [],
      "name": "renounceWriter",
      "outputs": [],
      "payable": false,
      "stateMutability": "nonpayable",
      "type": "function"
    },
    {
      "anonymous": false,
      "inputs": [
        {
          "indexed": false,
          "name": "id",
          "type": "uint256"
        },
        {
          "indexed": false,
          "name": "epoch",
          "type": "uint256"
        },
        {
          "indexed": false,
          "name": "url",
          "type": "string"
        },
        {
          "indexed": false,
          "name": "selector",
          "type": "string"
        },
        {
          "indexed": false,
          "name": "repeat",
          "type": "bool"
        },
        {
          "indexed": false,
          "name": "creator",
          "type": "address"
        },
        {
          "indexed": false,
          "name": "credit",
          "type": "uint256"
        }
      ],
      "name": "JobCreteted",
      "type": "event"
    },
    {
      "anonymous": false,
      "inputs": [
        {
          "indexed": false,
          "name": "id",
          "type": "uint256"
        },
        {
          "indexed": false,
          "name": "value",
          "type": "uint256"
        },
        {
          "indexed": false,
          "name": "epoch",
          "type": "uint256"
        },
        {
          "indexed": false,
          "name": "timestamp",
          "type": "uint256"
        },
        {
          "indexed": false,
          "name": "url",
          "type": "string"
        },
        {
          "indexed": false,
          "name": "selector",
          "type": "string"
        },
        {
          "indexed": false,
          "name": "repeat",
          "type": "bool"
        },
        {
          "indexed": false,
          "name": "creator",
          "type": "address"
        },
        {
          "indexed": false,
          "name": "credit",
          "type": "uint256"
        },
        {
          "indexed": false,
          "name": "fulfilled",
          "type": "bool"
        }
      ],
      "name": "JobReported",
      "type": "event"
    },
    {
      "anonymous": false,
      "inputs": [
        {
          "indexed": true,
          "name": "account",
          "type": "address"
        }
      ],
      "name": "WriterAdded",
      "type": "event"
    },
    {
      "anonymous": false,
      "inputs": [
        {
          "indexed": true,
          "name": "account",
          "type": "address"
        }
      ],
      "name": "WriterRemoved",
      "type": "event"
    },
    {
      "constant": false,
      "inputs": [
        {
          "name": "_stateManagerAddress",
          "type": "address"
        }
      ],
      "name": "init",
      "outputs": [],
      "payable": false,
      "stateMutability": "nonpayable",
      "type": "function"
    },
    {
      "constant": false,
      "inputs": [
        {
          "name": "url",
          "type": "string"
        },
        {
          "name": "selector",
          "type": "string"
        },
        {
          "name": "repeat",
          "type": "bool"
        }
      ],
      "name": "createJob",
      "outputs": [],
      "payable": true,
      "stateMutability": "payable",
      "type": "function"
    },
    {
      "constant": false,
      "inputs": [
        {
          "name": "jobId",
          "type": "uint256"
        },
        {
          "name": "value",
          "type": "uint256"
        }
      ],
      "name": "fulfillJob",
      "outputs": [],
      "payable": false,
      "stateMutability": "nonpayable",
      "type": "function"
    }
  ],
  "bytecode": "0x608060405262000015336200001b60201b60201c565b620002f9565b620000368160006200007c60201b62000ae71790919060201c565b8073ffffffffffffffffffffffffffffffffffffffff167f6ff3aa2ea7b53070f6d9d07a445d338d89e8edef44250ffa8be19f53910d4a2e60405160405180910390a250565b6200008e82826200012f60201b60201c565b15620000d1576040517f08c379a0000000000000000000000000000000000000000000000000000000008152600401620000c890620002a4565b60405180910390fd5b60018260000160008373ffffffffffffffffffffffffffffffffffffffff1673ffffffffffffffffffffffffffffffffffffffff16815260200190815260200160002060006101000a81548160ff0219169083151502179055505050565b60008073ffffffffffffffffffffffffffffffffffffffff168273ffffffffffffffffffffffffffffffffffffffff161415620001a3576040517f08c379a00000000000000000000000000000000000000000000000000000000081526004016200019a90620002c6565b60405180910390fd5b8260000160008373ffffffffffffffffffffffffffffffffffffffff1673ffffffffffffffffffffffffffffffffffffffff16815260200190815260200160002060009054906101000a900460ff16905092915050565b600062000209601f83620002e8565b91507f526f6c65733a206163636f756e7420616c72656164792068617320726f6c65006000830152602082019050919050565b60006200024b602283620002e8565b91507f526f6c65733a206163636f756e7420697320746865207a65726f20616464726560008301527f73730000000000000000000000000000000000000000000000000000000000006020830152604082019050919050565b60006020820190508181036000830152620002bf81620001fa565b9050919050565b60006020820190508181036000830152620002e1816200023c565b9050919050565b600082825260208201905092915050565b61160080620003096000396000f3fe6080604052600436106100865760003560e01c80632e716fb1116100595780632e716fb11461015157806356350bdf1461017c5780639212051c146101a5578063da2824a8146101d0578063df4eb59c146101f957610086565b8063180aedf31461008b57806319ab453c146100cf57806325d10c3f146100f85780632b29ba2314610114575b600080fd5b34801561009757600080fd5b506100b260048036036100ad9190810190610e8a565b610210565b6040516100c698979695949392919061131c565b60405180910390f35b3480156100db57600080fd5b506100f660048036036100f19190810190610dd8565b6103c2565b005b610112600480360361010d9190810190610e01565b610406565b005b34801561012057600080fd5b5061013b60048036036101369190810190610dd8565b6106e9565b60405161014891906111ca565b60405180910390f35b34801561015d57600080fd5b50610166610706565b60405161017391906111e5565b60405180910390f35b34801561018857600080fd5b506101a3600480360361019e9190810190610edc565b61072c565b005b3480156101b157600080fd5b506101ba610906565b6040516101c79190611280565b60405180910390f35b3480156101dc57600080fd5b506101f760048036036101f29190810190610dd8565b61090c565b005b34801561020557600080fd5b5061020e610960565b005b6001602052806000526040600020600091509050806000015490806001015490806002018054600181600116156101000203166002900480601f0160208091040260200160405190810160405280929190818152602001828054600181600116156101000203166002900480156102c85780601f1061029d576101008083540402835291602001916102c8565b820191906000526020600020905b8154815290600101906020018083116102ab57829003601f168201915b505050505090806003018054600181600116156101000203166002900480601f0160208091040260200160405190810160405280929190818152602001828054600181600116156101000203166002900480156103665780601f1061033b57610100808354040283529160200191610366565b820191906000526020600020905b81548152906001019060200180831161034957829003601f168201915b5050505050908060040160009054906101000a900460ff16908060040160019054906101000a900473ffffffffffffffffffffffffffffffffffffffff16908060050154908060060160009054906101000a900460ff16905088565b80600360006101000a81548173ffffffffffffffffffffffffffffffffffffffff021916908373ffffffffffffffffffffffffffffffffffffffff16021790555050565b6001600254016002819055506000600360009054906101000a900473ffffffffffffffffffffffffffffffffffffffff1673ffffffffffffffffffffffffffffffffffffffff1663757991a86040518163ffffffff1660e01b815260040160206040518083038186803b15801561047c57600080fd5b505afa158015610490573d6000803e3d6000fd5b505050506040513d601f19601f820116820180604052506104b49190810190610eb3565b90506104be610c36565b604051806101000160405280600254815260200183815260200188888080601f016020809104026020016040519081016040528093929190818152602001838380828437600081840152601f19601f82011690508083019250505050505050815260200186868080601f016020809104026020016040519081016040528093929190818152602001838380828437600081840152601f19601f82011690508083019250505050505050815260200184151581526020013373ffffffffffffffffffffffffffffffffffffffff16815260200134815260200160001515815250905080600160006002548152602001908152602001600020600082015181600001556020820151816001015560408201518160020190805190602001906105e5929190610c95565b506060820151816003019080519060200190610602929190610c95565b5060808201518160040160006101000a81548160ff02191690831515021790555060a08201518160040160016101000a81548173ffffffffffffffffffffffffffffffffffffffff021916908373ffffffffffffffffffffffffffffffffffffffff16021790555060c0820151816005015560e08201518160060160006101000a81548160ff0219169083151502179055509050507ff522aae7aa801140c35ce4a026e28ffdfa41b1c07e48474f62fc888cb2a33fa260025483898989898933346040516106d89998979695949392919061129b565b60405180910390a150505050505050565b60006106ff82600061096b90919063ffffffff16565b9050919050565b600360009054906101000a900473ffffffffffffffffffffffffffffffffffffffff1681565b610735336106e9565b610774576040517f08c379a000000000000000000000000000000000000000000000000000000000815260040161076b90611260565b60405180910390fd5b60006001600084815260200190815260200160002090506000600360009054906101000a900473ffffffffffffffffffffffffffffffffffffffff1673ffffffffffffffffffffffffffffffffffffffff1663757991a86040518163ffffffff1660e01b815260040160206040518083038186803b1580156107f557600080fd5b505afa158015610809573d6000803e3d6000fd5b505050506040513d601f19601f8201168201806040525061082d9190810190610eb3565b90508160040160009054906101000a900460ff166108635760018260060160006101000a81548160ff0219169083151502179055505b7f8b401a84c3f1336f94f4a545996a2985a77bcf70d2cf6a4e4cf718358b1d04e4826000015484834286600201876003018860040160009054906101000a900460ff168960040160019054906101000a900473ffffffffffffffffffffffffffffffffffffffff168a600501548b60060160009054906101000a900460ff166040516108f89a999897969594939291906113a8565b60405180910390a150505050565b60025481565b610915336106e9565b610954576040517f08c379a000000000000000000000000000000000000000000000000000000000815260040161094b90611260565b60405180910390fd5b61095d81610a33565b50565b61096933610a8d565b565b60008073ffffffffffffffffffffffffffffffffffffffff168273ffffffffffffffffffffffffffffffffffffffff1614156109dc576040517f08c379a00000000000000000000000000000000000000000000000000000000081526004016109d390611240565b60405180910390fd5b8260000160008373ffffffffffffffffffffffffffffffffffffffff1673ffffffffffffffffffffffffffffffffffffffff16815260200190815260200160002060009054906101000a900460ff16905092915050565b610a47816000610ae790919063ffffffff16565b8073ffffffffffffffffffffffffffffffffffffffff167f6ff3aa2ea7b53070f6d9d07a445d338d89e8edef44250ffa8be19f53910d4a2e60405160405180910390a250565b610aa1816000610b8f90919063ffffffff16565b8073ffffffffffffffffffffffffffffffffffffffff167f86e5bbceda94081c32220d685f37cc4e3ea7bb0be2dfbf0cb703579505a5390e60405160405180910390a250565b610af1828261096b565b15610b31576040517f08c379a0000000000000000000000000000000000000000000000000000000008152600401610b2890611200565b60405180910390fd5b60018260000160008373ffffffffffffffffffffffffffffffffffffffff1673ffffffffffffffffffffffffffffffffffffffff16815260200190815260200160002060006101000a81548160ff0219169083151502179055505050565b610b99828261096b565b610bd8576040517f08c379a0000000000000000000000000000000000000000000000000000000008152600401610bcf90611220565b60405180910390fd5b60008260000160008373ffffffffffffffffffffffffffffffffffffffff1673ffffffffffffffffffffffffffffffffffffffff16815260200190815260200160002060006101000a81548160ff0219169083151502179055505050565b60405180610100016040528060008152602001600081526020016060815260200160608152602001600015158152602001600073ffffffffffffffffffffffffffffffffffffffff168152602001600081526020016000151581525090565b828054600181600116156101000203166002900490600052602060002090601f016020900481019282601f10610cd657805160ff1916838001178555610d04565b82800160010185558215610d04579182015b82811115610d03578251825591602001919060010190610ce8565b5b509050610d119190610d15565b5090565b610d3791905b80821115610d33576000816000905550600101610d1b565b5090565b90565b600081359050610d4981611578565b92915050565b600081359050610d5e8161158f565b92915050565b60008083601f840112610d7657600080fd5b8235905067ffffffffffffffff811115610d8f57600080fd5b602083019150836001820283011115610da757600080fd5b9250929050565b600081359050610dbd816115a6565b92915050565b600081519050610dd2816115a6565b92915050565b600060208284031215610dea57600080fd5b6000610df884828501610d3a565b91505092915050565b600080600080600060608688031215610e1957600080fd5b600086013567ffffffffffffffff811115610e3357600080fd5b610e3f88828901610d64565b9550955050602086013567ffffffffffffffff811115610e5e57600080fd5b610e6a88828901610d64565b93509350506040610e7d88828901610d4f565b9150509295509295909350565b600060208284031215610e9c57600080fd5b6000610eaa84828501610dae565b91505092915050565b600060208284031215610ec557600080fd5b6000610ed384828501610dc3565b91505092915050565b60008060408385031215610eef57600080fd5b6000610efd85828601610dae565b9250506020610f0e85828601610dae565b9150509250929050565b610f21816114cb565b82525050565b610f3081611483565b82525050565b610f3f81611495565b82525050565b610f4e816114dd565b82525050565b6000610f608385611472565b9350610f6d838584611525565b610f7683611567565b840190509392505050565b6000610f8c82611467565b610f968185611472565b9350610fa6818560208601611534565b610faf81611567565b840191505092915050565b600081546001811660008114610fd75760018114610ffd57611041565b607f6002830416610fe88187611472565b955060ff198316865260208601935050611041565b6002820461100b8187611472565b955061101685611452565b60005b8281101561103857815481890152600182019150602081019050611019565b80880195505050505b505092915050565b6000611056601f83611472565b91507f526f6c65733a206163636f756e7420616c72656164792068617320726f6c65006000830152602082019050919050565b6000611096602183611472565b91507f526f6c65733a206163636f756e7420646f6573206e6f74206861766520726f6c60008301527f65000000000000000000000000000000000000000000000000000000000000006020830152604082019050919050565b60006110fc602283611472565b91507f526f6c65733a206163636f756e7420697320746865207a65726f20616464726560008301527f73730000000000000000000000000000000000000000000000000000000000006020830152604082019050919050565b6000611162603083611472565b91507f577269746572526f6c653a2063616c6c657220646f6573206e6f74206861766560008301527f207468652057726974657220726f6c65000000000000000000000000000000006020830152604082019050919050565b6111c4816114c1565b82525050565b60006020820190506111df6000830184610f36565b92915050565b60006020820190506111fa6000830184610f45565b92915050565b6000602082019050818103600083015261121981611049565b9050919050565b6000602082019050818103600083015261123981611089565b9050919050565b60006020820190508181036000830152611259816110ef565b9050919050565b6000602082019050818103600083015261127981611155565b9050919050565b600060208201905061129560008301846111bb565b92915050565b600060e0820190506112b0600083018c6111bb565b6112bd602083018b6111bb565b81810360408301526112d081898b610f54565b905081810360608301526112e5818789610f54565b90506112f46080830186610f36565b61130160a0830185610f18565b61130e60c08301846111bb565b9a9950505050505050505050565b600061010082019050611332600083018b6111bb565b61133f602083018a6111bb565b81810360408301526113518189610f81565b905081810360608301526113658188610f81565b90506113746080830187610f36565b61138160a0830186610f27565b61138e60c08301856111bb565b61139b60e0830184610f36565b9998505050505050505050565b6000610140820190506113be600083018d6111bb565b6113cb602083018c6111bb565b6113d8604083018b6111bb565b6113e5606083018a6111bb565b81810360808301526113f78189610fba565b905081810360a083015261140b8188610fba565b905061141a60c0830187610f36565b61142760e0830186610f27565b6114356101008301856111bb565b611443610120830184610f36565b9b9a5050505050505050505050565b60008190508160005260206000209050919050565b600081519050919050565b600082825260208201905092915050565b600061148e826114a1565b9050919050565b60008115159050919050565b600073ffffffffffffffffffffffffffffffffffffffff82169050919050565b6000819050919050565b60006114d682611501565b9050919050565b60006114e8826114ef565b9050919050565b60006114fa826114a1565b9050919050565b600061150c82611513565b9050919050565b600061151e826114a1565b9050919050565b82818337600083830152505050565b60005b83811015611552578082015181840152602081019050611537565b83811115611561576000848401525b50505050565b6000601f19601f8301169050919050565b61158181611483565b811461158c57600080fd5b50565b61159881611495565b81146115a357600080fd5b50565b6115af816114c1565b81146115ba57600080fd5b5056fea365627a7a72305820cfceb1fd459a4bf32fd48c5e67dfeceb2815dbc9fef88de3fb9d47e4edf372226c6578706572696d656e74616cf564736f6c634300050a0040",
  "source": "pragma solidity 0.5.10;\npragma experimental ABIEncoderV2;\n// import \"../SimpleToken.sol\";\n// import \"./Utils.sol\";\n// import \"./BlockStorage.sol\";\n// import \"./IStakeManager.sol\";\n// import \"./IStateManager.sol\";\n// import \"./IVoteManager.sol\";\nimport \"./JobStorage.sol\";\nimport \"./IStateManager.sol\";\nimport \"openzeppelin-solidity/contracts/math/SafeMath.sol\";\nimport \"./WriterRole.sol\";\n\n\ncontract JobManager is WriterRole, JobStorage {\n\n    event JobCreteted(uint256 id, uint256 epoch, string url, string selector, bool repeat,\n                            address creator, uint256 credit);\n\n    // event JobFulfilled(uint256 id, uint256 epoch, string url, string selector, bool repeat,\n    //                     address creator, uint256 credit, bool fulfulled);\n\n    event JobReported(uint256 id, uint256 value, uint256 epoch, uint256 timestamp,\n                        string url, string selector, bool repeat,\n                        address creator, uint256 credit, bool fulfilled);\n\n    IStateManager public stateManager;\n\n    //disable after init.\n    function init(address _stateManagerAddress) external {\n        stateManager = IStateManager(_stateManagerAddress);\n    }\n\n    function createJob (string calldata url, string calldata selector, bool repeat) external payable {\n        numJobs = numJobs + 1;\n        uint256 epoch = stateManager.getEpoch();\n        Structs.Job memory job = Structs.Job(numJobs, epoch, url, selector, repeat, msg.sender, msg.value, false);\n        jobs[numJobs] = job;\n        emit JobCreteted(numJobs, epoch, url, selector, repeat, msg.sender, msg.value);\n        // jobs.push(job);\n    }\n\n    function fulfillJob(uint256 jobId, uint256 value) external onlyWriter {\n        Structs.Job storage job = jobs[jobId];\n        uint256 epoch = stateManager.getEpoch();\n\n        if (!job.repeat) {\n            job.fulfilled = true;\n            // emit JobFulfilled(job.id, epoch, job.url, job.selector,\n            //job.repeat, job.creator, job.credit, job.fulfilled);\n        }\n        emit JobReported(job.id, value, epoch, now, job.url, job.selector, job.repeat,\n        job.creator, job.credit, job.fulfilled);\n    }\n}\n",
  "sourcePath": "/Users/hrishi/contracts/contracts/Schelling4/JobManager.sol",
  "compiler": {
    "name": "solc",
    "version": "0.5.10+commit.5a6ea5b1.Emscripten.clang"
  },
  "schemaVersion": "3.0.11",
  "updatedAt": "2019-09-16T18:27:29.737Z",
  "devdoc": {
    "methods": {}
  },
  "userdoc": {
    "methods": {}
  }
}