{
  "contractName": "JobManager",
  "abi": [
    {
      "constant": true,
      "inputs": [
        {
          "name": "",
          "type": "uint256"
        }
      ],
      "name": "jobs",
      "outputs": [
        {
          "name": "id",
          "type": "uint256"
        },
        {
          "name": "epoch",
          "type": "uint256"
        },
        {
          "name": "url",
          "type": "string"
        },
        {
          "name": "selector",
          "type": "string"
        },
        {
          "name": "repeat",
          "type": "bool"
        },
        {
          "name": "creator",
          "type": "address"
        },
        {
          "name": "credit",
          "type": "uint256"
        },
        {
          "name": "fulfilled",
          "type": "bool"
        },
        {
          "name": "result",
          "type": "uint256"
        }
      ],
      "payable": false,
      "stateMutability": "view",
      "type": "function"
    },
    {
      "constant": true,
      "inputs": [
        {
          "name": "account",
          "type": "address"
        }
      ],
      "name": "isWriter",
      "outputs": [
        {
          "name": "",
          "type": "bool"
        }
      ],
      "payable": false,
      "stateMutability": "view",
      "type": "function"
    },
    {
      "constant": true,
      "inputs": [],
      "name": "stateManager",
      "outputs": [
        {
          "name": "",
          "type": "address"
        }
      ],
      "payable": false,
      "stateMutability": "view",
      "type": "function"
    },
    {
      "constant": true,
      "inputs": [],
      "name": "numJobs",
      "outputs": [
        {
          "name": "",
          "type": "uint256"
        }
      ],
      "payable": false,
      "stateMutability": "view",
      "type": "function"
    },
    {
      "constant": false,
      "inputs": [
        {
          "name": "account",
          "type": "address"
        }
      ],
      "name": "addWriter",
      "outputs": [],
      "payable": false,
      "stateMutability": "nonpayable",
      "type": "function"
    },
    {
      "constant": false,
      "inputs": [],
      "name": "renounceWriter",
      "outputs": [],
      "payable": false,
      "stateMutability": "nonpayable",
      "type": "function"
    },
    {
      "anonymous": false,
      "inputs": [
        {
          "indexed": false,
          "name": "id",
          "type": "uint256"
        },
        {
          "indexed": false,
          "name": "epoch",
          "type": "uint256"
        },
        {
          "indexed": false,
          "name": "url",
          "type": "string"
        },
        {
          "indexed": false,
          "name": "selector",
          "type": "string"
        },
        {
          "indexed": false,
          "name": "repeat",
          "type": "bool"
        },
        {
          "indexed": false,
          "name": "creator",
          "type": "address"
        },
        {
          "indexed": false,
          "name": "credit",
          "type": "uint256"
        },
        {
          "indexed": false,
          "name": "timestamp",
          "type": "uint256"
        }
      ],
      "name": "JobCreated",
      "type": "event"
    },
    {
      "anonymous": false,
      "inputs": [
        {
          "indexed": false,
          "name": "id",
          "type": "uint256"
        },
        {
          "indexed": false,
          "name": "value",
          "type": "uint256"
        },
        {
          "indexed": false,
          "name": "epoch",
          "type": "uint256"
        },
        {
          "indexed": false,
          "name": "url",
          "type": "string"
        },
        {
          "indexed": false,
          "name": "selector",
          "type": "string"
        },
        {
          "indexed": false,
          "name": "repeat",
          "type": "bool"
        },
        {
          "indexed": false,
          "name": "creator",
          "type": "address"
        },
        {
          "indexed": false,
          "name": "credit",
          "type": "uint256"
        },
        {
          "indexed": false,
          "name": "fulfilled",
          "type": "bool"
        },
        {
          "indexed": false,
          "name": "timestamp",
          "type": "uint256"
        }
      ],
      "name": "JobReported",
      "type": "event"
    },
    {
      "anonymous": false,
      "inputs": [
        {
          "indexed": true,
          "name": "account",
          "type": "address"
        }
      ],
      "name": "WriterAdded",
      "type": "event"
    },
    {
      "anonymous": false,
      "inputs": [
        {
          "indexed": true,
          "name": "account",
          "type": "address"
        }
      ],
      "name": "WriterRemoved",
      "type": "event"
    },
    {
      "constant": false,
      "inputs": [
        {
          "name": "_stateManagerAddress",
          "type": "address"
        }
      ],
      "name": "init",
      "outputs": [],
      "payable": false,
      "stateMutability": "nonpayable",
      "type": "function"
    },
    {
      "constant": false,
      "inputs": [
        {
          "name": "url",
          "type": "string"
        },
        {
          "name": "selector",
          "type": "string"
        },
        {
          "name": "repeat",
          "type": "bool"
        }
      ],
      "name": "createJob",
      "outputs": [],
      "payable": true,
      "stateMutability": "payable",
      "type": "function"
    },
    {
      "constant": false,
      "inputs": [
        {
          "name": "jobId",
          "type": "uint256"
        },
        {
          "name": "value",
          "type": "uint256"
        }
      ],
      "name": "fulfillJob",
      "outputs": [],
      "payable": false,
      "stateMutability": "nonpayable",
      "type": "function"
    },
    {
      "constant": true,
      "inputs": [
        {
          "name": "id",
          "type": "uint256"
        }
      ],
      "name": "getResult",
      "outputs": [
        {
          "name": "",
          "type": "uint256"
        }
      ],
      "payable": false,
      "stateMutability": "view",
      "type": "function"
    },
    {
      "constant": true,
      "inputs": [
        {
          "name": "id",
          "type": "uint256"
        }
      ],
      "name": "getJob",
      "outputs": [
        {
          "name": "url",
          "type": "string"
        },
        {
          "name": "selector",
          "type": "string"
        },
        {
          "name": "repeat",
          "type": "bool"
        },
        {
          "name": "result",
          "type": "uint256"
        }
      ],
      "payable": false,
      "stateMutability": "view",
      "type": "function"
    }
  ],
  "bytecode": "0x608060405262000015336200001b60201b60201c565b620002f9565b620000368160006200007c60201b62000e101790919060201c565b8073ffffffffffffffffffffffffffffffffffffffff167f6ff3aa2ea7b53070f6d9d07a445d338d89e8edef44250ffa8be19f53910d4a2e60405160405180910390a250565b6200008e82826200012f60201b60201c565b15620000d1576040517f08c379a0000000000000000000000000000000000000000000000000000000008152600401620000c890620002a4565b60405180910390fd5b60018260000160008373ffffffffffffffffffffffffffffffffffffffff1673ffffffffffffffffffffffffffffffffffffffff16815260200190815260200160002060006101000a81548160ff0219169083151502179055505050565b60008073ffffffffffffffffffffffffffffffffffffffff168273ffffffffffffffffffffffffffffffffffffffff161415620001a3576040517f08c379a00000000000000000000000000000000000000000000000000000000081526004016200019a90620002c6565b60405180910390fd5b8260000160008373ffffffffffffffffffffffffffffffffffffffff1673ffffffffffffffffffffffffffffffffffffffff16815260200190815260200160002060009054906101000a900460ff16905092915050565b600062000209601f83620002e8565b91507f526f6c65733a206163636f756e7420616c72656164792068617320726f6c65006000830152602082019050919050565b60006200024b602283620002e8565b91507f526f6c65733a206163636f756e7420697320746865207a65726f20616464726560008301527f73730000000000000000000000000000000000000000000000000000000000006020830152604082019050919050565b60006020820190508181036000830152620002bf81620001fa565b9050919050565b60006020820190508181036000830152620002e1816200023c565b9050919050565b600082825260208201905092915050565b6119e580620003096000396000f3fe60806040526004361061009c5760003560e01c806356350bdf1161006457806356350bdf146101935780639212051c146101bc578063995e4339146101e7578063bf22c45714610224578063da2824a814610264578063df4eb59c1461028d5761009c565b8063180aedf3146100a157806319ab453c146100e657806325d10c3f1461010f5780632b29ba231461012b5780632e716fb114610168575b600080fd5b3480156100ad57600080fd5b506100c860048036036100c391908101906111ba565b6102a4565b6040516100dd999897969594939291906116e7565b60405180910390f35b3480156100f257600080fd5b5061010d60048036036101089190810190611108565b61045c565b005b61012960048036036101249190810190611131565b6104a0565b005b34801561013757600080fd5b50610152600480360361014d9190810190611108565b610797565b60405161015f9190611533565b60405180910390f35b34801561017457600080fd5b5061017d6107b4565b60405161018a919061154e565b60405180910390f35b34801561019f57600080fd5b506101ba60048036036101b5919081019061120c565b6107da565b005b3480156101c857600080fd5b506101d16109bd565b6040516101de919061163c565b60405180910390f35b3480156101f357600080fd5b5061020e600480360361020991908101906111ba565b6109c3565b60405161021b919061163c565b60405180910390f35b34801561023057600080fd5b5061024b600480360361024691908101906111ba565b6109e3565b60405161025b9493929190611569565b60405180910390f35b34801561027057600080fd5b5061028b60048036036102869190810190611108565b610c35565b005b34801561029957600080fd5b506102a2610c89565b005b6001602052806000526040600020600091509050806000015490806001015490806002018054600181600116156101000203166002900480601f01602080910402602001604051908101604052809291908181526020018280546001816001161561010002031660029004801561035c5780601f106103315761010080835404028352916020019161035c565b820191906000526020600020905b81548152906001019060200180831161033f57829003601f168201915b505050505090806003018054600181600116156101000203166002900480601f0160208091040260200160405190810160405280929190818152602001828054600181600116156101000203166002900480156103fa5780601f106103cf576101008083540402835291602001916103fa565b820191906000526020600020905b8154815290600101906020018083116103dd57829003601f168201915b5050505050908060040160009054906101000a900460ff16908060040160019054906101000a900473ffffffffffffffffffffffffffffffffffffffff16908060050154908060060160009054906101000a900460ff16908060070154905089565b80600360006101000a81548173ffffffffffffffffffffffffffffffffffffffff021916908373ffffffffffffffffffffffffffffffffffffffff16021790555050565b6001600254016002819055506000600360009054906101000a900473ffffffffffffffffffffffffffffffffffffffff1673ffffffffffffffffffffffffffffffffffffffff1663757991a86040518163ffffffff1660e01b815260040160206040518083038186803b15801561051657600080fd5b505afa15801561052a573d6000803e3d6000fd5b505050506040513d601f19601f8201168201806040525061054e91908101906111e3565b9050610558610f5f565b604051806101200160405280600254815260200183815260200188888080601f016020809104026020016040519081016040528093929190818152602001838380828437600081840152601f19601f82011690508083019250505050505050815260200186868080601f016020809104026020016040519081016040528093929190818152602001838380828437600081840152601f19601f82011690508083019250505050505050815260200184151581526020013373ffffffffffffffffffffffffffffffffffffffff168152602001348152602001600015158152602001600081525090508060016000600254815260200190815260200160002060008201518160000155602082015181600101556040820151816002019080519060200190610686929190610fc5565b5060608201518160030190805190602001906106a3929190610fc5565b5060808201518160040160006101000a81548160ff02191690831515021790555060a08201518160040160016101000a81548173ffffffffffffffffffffffffffffffffffffffff021916908373ffffffffffffffffffffffffffffffffffffffff16021790555060c0820151816005015560e08201518160060160006101000a81548160ff02191690831515021790555061010082015181600701559050507fb59e70a4b81df655f645ba254df330f6b7b73ee591d3efe59c87acf4fec21bbe6002548389898989893334426040516107869a99989796959493929190611657565b60405180910390a150505050505050565b60006107ad826000610c9490919063ffffffff16565b9050919050565b600360009054906101000a900473ffffffffffffffffffffffffffffffffffffffff1681565b6107e333610797565b610822576040517f08c379a00000000000000000000000000000000000000000000000000000000081526004016108199061161c565b60405180910390fd5b60006001600084815260200190815260200160002090506000600360009054906101000a900473ffffffffffffffffffffffffffffffffffffffff1673ffffffffffffffffffffffffffffffffffffffff1663757991a86040518163ffffffff1660e01b815260040160206040518083038186803b1580156108a357600080fd5b505afa1580156108b7573d6000803e3d6000fd5b505050506040513d601f19601f820116820180604052506108db91908101906111e3565b90508160040160009054906101000a900460ff166109115760018260060160006101000a81548160ff0219169083151502179055505b7f445b511765f4a3a4e2341247fec72f6a760afc23b83c59fa5572ae81df3939c88260000154848385600201866003018760040160009054906101000a900460ff168860040160019054906101000a900473ffffffffffffffffffffffffffffffffffffffff1689600501548a60060160009054906101000a900460ff16426040516109a69a99989796959493929190611782565b60405180910390a182826007018190555050505050565b60025481565b600060016000838152602001908152602001600020600701549050919050565b6060806000806109f1610f5f565b60016000878152602001908152602001600020604051806101200160405290816000820154815260200160018201548152602001600282018054600181600116156101000203166002900480601f016020809104026020016040519081016040528092919081815260200182805460018160011615610100020316600290048015610abd5780601f10610a9257610100808354040283529160200191610abd565b820191906000526020600020905b815481529060010190602001808311610aa057829003601f168201915b50505050508152602001600382018054600181600116156101000203166002900480601f016020809104026020016040519081016040528092919081815260200182805460018160011615610100020316600290048015610b5f5780601f10610b3457610100808354040283529160200191610b5f565b820191906000526020600020905b815481529060010190602001808311610b4257829003601f168201915b505050505081526020016004820160009054906101000a900460ff161515151581526020016004820160019054906101000a900473ffffffffffffffffffffffffffffffffffffffff1673ffffffffffffffffffffffffffffffffffffffff1673ffffffffffffffffffffffffffffffffffffffff168152602001600582015481526020016006820160009054906101000a900460ff1615151515815260200160078201548152505090508060400151816060015182608001518361010001518393508292509450945094509450509193509193565b610c3e33610797565b610c7d576040517f08c379a0000000000000000000000000000000000000000000000000000000008152600401610c749061161c565b60405180910390fd5b610c8681610d5c565b50565b610c9233610db6565b565b60008073ffffffffffffffffffffffffffffffffffffffff168273ffffffffffffffffffffffffffffffffffffffff161415610d05576040517f08c379a0000000000000000000000000000000000000000000000000000000008152600401610cfc906115fc565b60405180910390fd5b8260000160008373ffffffffffffffffffffffffffffffffffffffff1673ffffffffffffffffffffffffffffffffffffffff16815260200190815260200160002060009054906101000a900460ff16905092915050565b610d70816000610e1090919063ffffffff16565b8073ffffffffffffffffffffffffffffffffffffffff167f6ff3aa2ea7b53070f6d9d07a445d338d89e8edef44250ffa8be19f53910d4a2e60405160405180910390a250565b610dca816000610eb890919063ffffffff16565b8073ffffffffffffffffffffffffffffffffffffffff167f86e5bbceda94081c32220d685f37cc4e3ea7bb0be2dfbf0cb703579505a5390e60405160405180910390a250565b610e1a8282610c94565b15610e5a576040517f08c379a0000000000000000000000000000000000000000000000000000000008152600401610e51906115bc565b60405180910390fd5b60018260000160008373ffffffffffffffffffffffffffffffffffffffff1673ffffffffffffffffffffffffffffffffffffffff16815260200190815260200160002060006101000a81548160ff0219169083151502179055505050565b610ec28282610c94565b610f01576040517f08c379a0000000000000000000000000000000000000000000000000000000008152600401610ef8906115dc565b60405180910390fd5b60008260000160008373ffffffffffffffffffffffffffffffffffffffff1673ffffffffffffffffffffffffffffffffffffffff16815260200190815260200160002060006101000a81548160ff0219169083151502179055505050565b60405180610120016040528060008152602001600081526020016060815260200160608152602001600015158152602001600073ffffffffffffffffffffffffffffffffffffffff16815260200160008152602001600015158152602001600081525090565b828054600181600116156101000203166002900490600052602060002090601f016020900481019282601f1061100657805160ff1916838001178555611034565b82800160010185558215611034579182015b82811115611033578251825591602001919060010190611018565b5b5090506110419190611045565b5090565b61106791905b8082111561106357600081600090555060010161104b565b5090565b90565b6000813590506110798161195d565b92915050565b60008135905061108e81611974565b92915050565b60008083601f8401126110a657600080fd5b8235905067ffffffffffffffff8111156110bf57600080fd5b6020830191508360018202830111156110d757600080fd5b9250929050565b6000813590506110ed8161198b565b92915050565b6000815190506111028161198b565b92915050565b60006020828403121561111a57600080fd5b60006111288482850161106a565b91505092915050565b60008060008060006060868803121561114957600080fd5b600086013567ffffffffffffffff81111561116357600080fd5b61116f88828901611094565b9550955050602086013567ffffffffffffffff81111561118e57600080fd5b61119a88828901611094565b935093505060406111ad8882890161107f565b9150509295509295909350565b6000602082840312156111cc57600080fd5b60006111da848285016110de565b91505092915050565b6000602082840312156111f557600080fd5b6000611203848285016110f3565b91505092915050565b6000806040838503121561121f57600080fd5b600061122d858286016110de565b925050602061123e858286016110de565b9150509250929050565b611251816118b0565b82525050565b61126081611868565b82525050565b61126f8161187a565b82525050565b61127e816118c2565b82525050565b60006112908385611857565b935061129d83858461190a565b6112a68361194c565b840190509392505050565b60006112bc8261184c565b6112c68185611857565b93506112d6818560208601611919565b6112df8161194c565b840191505092915050565b60006112f582611841565b6112ff8185611857565b935061130f818560208601611919565b6113188161194c565b840191505092915050565b6000815460018116600081146113405760018114611366576113aa565b607f60028304166113518187611857565b955060ff1983168652602086019350506113aa565b600282046113748187611857565b955061137f8561182c565b60005b828110156113a157815481890152600182019150602081019050611382565b80880195505050505b505092915050565b60006113bf601f83611857565b91507f526f6c65733a206163636f756e7420616c72656164792068617320726f6c65006000830152602082019050919050565b60006113ff602183611857565b91507f526f6c65733a206163636f756e7420646f6573206e6f74206861766520726f6c60008301527f65000000000000000000000000000000000000000000000000000000000000006020830152604082019050919050565b6000611465602283611857565b91507f526f6c65733a206163636f756e7420697320746865207a65726f20616464726560008301527f73730000000000000000000000000000000000000000000000000000000000006020830152604082019050919050565b60006114cb603083611857565b91507f577269746572526f6c653a2063616c6c657220646f6573206e6f74206861766560008301527f207468652057726974657220726f6c65000000000000000000000000000000006020830152604082019050919050565b61152d816118a6565b82525050565b60006020820190506115486000830184611266565b92915050565b60006020820190506115636000830184611275565b92915050565b6000608082019050818103600083015261158381876112b1565b9050818103602083015261159781866112b1565b90506115a66040830185611266565b6115b36060830184611524565b95945050505050565b600060208201905081810360008301526115d5816113b2565b9050919050565b600060208201905081810360008301526115f5816113f2565b9050919050565b6000602082019050818103600083015261161581611458565b9050919050565b60006020820190508181036000830152611635816114be565b9050919050565b60006020820190506116516000830184611524565b92915050565b60006101008201905061166d600083018d611524565b61167a602083018c611524565b818103604083015261168d818a8c611284565b905081810360608301526116a281888a611284565b90506116b16080830187611266565b6116be60a0830186611248565b6116cb60c0830185611524565b6116d860e0830184611524565b9b9a5050505050505050505050565b6000610120820190506116fd600083018c611524565b61170a602083018b611524565b818103604083015261171c818a6112ea565b9050818103606083015261173081896112ea565b905061173f6080830188611266565b61174c60a0830187611257565b61175960c0830186611524565b61176660e0830185611266565b611774610100830184611524565b9a9950505050505050505050565b600061014082019050611798600083018d611524565b6117a5602083018c611524565b6117b2604083018b611524565b81810360608301526117c4818a611323565b905081810360808301526117d88189611323565b90506117e760a0830188611266565b6117f460c0830187611257565b61180160e0830186611524565b61180f610100830185611266565b61181d610120830184611524565b9b9a5050505050505050505050565b60008190508160005260206000209050919050565b600081519050919050565b600081519050919050565b600082825260208201905092915050565b600061187382611886565b9050919050565b60008115159050919050565b600073ffffffffffffffffffffffffffffffffffffffff82169050919050565b6000819050919050565b60006118bb826118e6565b9050919050565b60006118cd826118d4565b9050919050565b60006118df82611886565b9050919050565b60006118f1826118f8565b9050919050565b600061190382611886565b9050919050565b82818337600083830152505050565b60005b8381101561193757808201518184015260208101905061191c565b83811115611946576000848401525b50505050565b6000601f19601f8301169050919050565b61196681611868565b811461197157600080fd5b50565b61197d8161187a565b811461198857600080fd5b50565b611994816118a6565b811461199f57600080fd5b5056fea365627a7a72305820df92dd029618f32124fe5a6ad685ff03caa2e2fb369e00470f2db3a624eacb986c6578706572696d656e74616cf564736f6c634300050a0040",
  "source": "pragma solidity 0.5.10;\npragma experimental ABIEncoderV2;\n// import \"../SimpleToken.sol\";\n// import \"./Utils.sol\";\n// import \"./BlockStorage.sol\";\n// import \"./IStakeManager.sol\";\n// import \"./IStateManager.sol\";\n// import \"./IVoteManager.sol\";\nimport \"./JobStorage.sol\";\nimport \"./IStateManager.sol\";\nimport \"openzeppelin-solidity/contracts/math/SafeMath.sol\";\nimport \"./WriterRole.sol\";\n\n\ncontract JobManager is WriterRole, JobStorage {\n\n    event JobCreated(uint256 id, uint256 epoch, string url, string selector, bool repeat,\n                            address creator, uint256 credit, uint256 timestamp);\n    // event JobFulfilled(uint256 id, uint256 epoch, string url, string selector, bool repeat,\n    //                     address creator, uint256 credit, bool fulfulled);\n\n    event JobReported(uint256 id, uint256 value, uint256 epoch,\n                        string url, string selector, bool repeat,\n                        address creator, uint256 credit, bool fulfilled, uint256 timestamp);\n\n    IStateManager public stateManager;\n\n    //disable after init.\n    function init(address _stateManagerAddress) external {\n        stateManager = IStateManager(_stateManagerAddress);\n    }\n\n    function createJob (string calldata url, string calldata selector, bool repeat) external payable {\n        numJobs = numJobs + 1;\n        uint256 epoch = stateManager.getEpoch();\n        Structs.Job memory job = Structs.Job(numJobs, epoch, url, selector, repeat, msg.sender, msg.value, false,0);\n        jobs[numJobs] = job;\n        emit JobCreated(numJobs, epoch, url, selector, repeat, msg.sender, msg.value, now);\n        // jobs.push(job);\n    }\n\n    function fulfillJob(uint256 jobId, uint256 value) external onlyWriter {\n        Structs.Job storage job = jobs[jobId];\n        uint256 epoch = stateManager.getEpoch();\n\n        if (!job.repeat) {\n            job.fulfilled = true;\n            // emit JobFulfilled(job.id, epoch, job.url, job.selector,\n            //job.repeat, job.creator, job.credit, job.fulfilled);\n        }\n        emit JobReported(job.id, value, epoch, job.url, job.selector, job.repeat,\n        job.creator, job.credit, job.fulfilled, now);\n        job.result = value;\n    }\n\n    function getResult(uint256 id) external view returns(uint256) {\n        return jobs[id].result;\n    }\n\n    function getJob(uint256 id) external view returns(string memory url, string memory selector, bool repeat, uint256 result) {\n        Structs.Job memory job = jobs[id];\n        return(job.url, job.selector, job.repeat, job.result);\n    }\n}\n",
  "sourcePath": "/Users/hrishi/contracts/contracts/Core/JobManager.sol",
  "compiler": {
    "name": "solc",
    "version": "0.5.10+commit.5a6ea5b1.Emscripten.clang"
  },
  "schemaVersion": "3.0.16",
  "updatedAt": "2019-10-07T07:53:47.637Z",
  "devdoc": {
    "methods": {}
  },
  "userdoc": {
    "methods": {}
  }
}