{
  "contractName": "JobStorage",
  "abi": [
    {
      "constant": true,
      "inputs": [
        {
          "name": "",
          "type": "uint256"
        }
      ],
      "name": "jobs",
      "outputs": [
        {
          "name": "id",
          "type": "uint256"
        },
        {
          "name": "epoch",
          "type": "uint256"
        },
        {
          "name": "url",
          "type": "string"
        },
        {
          "name": "selector",
          "type": "string"
        },
        {
          "name": "repeat",
          "type": "bool"
        },
        {
          "name": "creator",
          "type": "address"
        },
        {
          "name": "credit",
          "type": "uint256"
        },
        {
          "name": "fulfilled",
          "type": "bool"
        },
        {
          "name": "result",
          "type": "uint256"
        }
      ],
      "payable": false,
      "stateMutability": "view",
      "type": "function"
    },
    {
      "constant": true,
      "inputs": [],
      "name": "numJobs",
      "outputs": [
        {
          "name": "",
          "type": "uint256"
        }
      ],
      "payable": false,
      "stateMutability": "view",
      "type": "function"
    }
  ],
  "bytecode": "0x608060405234801561001057600080fd5b506104c8806100206000396000f3fe608060405234801561001057600080fd5b5060043610610053576000357c010000000000000000000000000000000000000000000000000000000090048063180aedf3146100585780639212051c14610090575b600080fd5b610072600480360361006d9190810190610281565b6100ae565b6040516100879998979695949392919061032b565b60405180910390f35b610098610266565b6040516100a59190610310565b60405180910390f35b6000602052806000526040600020600091509050806000015490806001015490806002018054600181600116156101000203166002900480601f0160208091040260200160405190810160405280929190818152602001828054600181600116156101000203166002900480156101665780601f1061013b57610100808354040283529160200191610166565b820191906000526020600020905b81548152906001019060200180831161014957829003601f168201915b505050505090806003018054600181600116156101000203166002900480601f0160208091040260200160405190810160405280929190818152602001828054600181600116156101000203166002900480156102045780601f106101d957610100808354040283529160200191610204565b820191906000526020600020905b8154815290600101906020018083116101e757829003601f168201915b5050505050908060040160009054906101000a900460ff16908060040160019054906101000a900473ffffffffffffffffffffffffffffffffffffffff16908060050154908060060160009054906101000a900460ff16908060070154905089565b60015481565b60008135905061027b8161046e565b92915050565b60006020828403121561029357600080fd5b60006102a18482850161026c565b91505092915050565b6102b3816103e2565b82525050565b6102c2816103f4565b82525050565b60006102d3826103c6565b6102dd81856103d1565b93506102ed81856020860161042a565b6102f68161045d565b840191505092915050565b61030a81610420565b82525050565b60006020820190506103256000830184610301565b92915050565b600061012082019050610341600083018c610301565b61034e602083018b610301565b8181036040830152610360818a6102c8565b9050818103606083015261037481896102c8565b905061038360808301886102b9565b61039060a08301876102aa565b61039d60c0830186610301565b6103aa60e08301856102b9565b6103b8610100830184610301565b9a9950505050505050505050565b600081519050919050565b600082825260208201905092915050565b60006103ed82610400565b9050919050565b60008115159050919050565b600073ffffffffffffffffffffffffffffffffffffffff82169050919050565b6000819050919050565b60005b8381101561044857808201518184015260208101905061042d565b83811115610457576000848401525b50505050565b6000601f19601f8301169050919050565b61047781610420565b811461048257600080fd5b5056fea365627a7a72305820a2dc30a7073a620cced7abfc20b167944652b0c9ca1b34c7965686740c7d72066c6578706572696d656e74616cf564736f6c634300050a0040",
  "source": "pragma solidity 0.5.10;\npragma experimental ABIEncoderV2;\nimport \"../lib/Structs.sol\";\n\n\ncontract JobStorage {\n    mapping (uint256 => Structs.Job) public jobs;\n    uint256 public numJobs;\n}\n",
  "sourcePath": "/Users/hrishi/contracts/contracts/Core/JobStorage.sol",
  "compiler": {
    "name": "solc",
    "version": "0.5.10+commit.5a6ea5b1.Emscripten.clang"
  },
  "schemaVersion": "3.0.2",
  "updatedAt": "2019-10-12T07:16:36.158Z",
  "devdoc": {
    "methods": {}
  },
  "userdoc": {
    "methods": {}
  }
}