{
  "contractName": "JobStorage",
  "abi": [
    {
      "constant": true,
      "inputs": [
        {
          "name": "",
          "type": "uint256"
        }
      ],
      "name": "jobs",
      "outputs": [
        {
          "name": "id",
          "type": "uint256"
        },
        {
          "name": "epoch",
          "type": "uint256"
        },
        {
          "name": "url",
          "type": "string"
        },
        {
          "name": "selector",
          "type": "string"
        },
        {
          "name": "repeat",
          "type": "bool"
        },
        {
          "name": "creator",
          "type": "address"
        },
        {
          "name": "credit",
          "type": "uint256"
        },
        {
          "name": "fulfilled",
          "type": "bool"
        },
        {
          "name": "result",
          "type": "uint256"
        }
      ],
      "payable": false,
      "stateMutability": "view",
      "type": "function"
    },
    {
      "constant": true,
      "inputs": [],
      "name": "numJobs",
      "outputs": [
        {
          "name": "",
          "type": "uint256"
        }
      ],
      "payable": false,
      "stateMutability": "view",
      "type": "function"
    }
  ],
  "bytecode": "0x608060405234801561001057600080fd5b506104ab806100206000396000f3fe608060405234801561001057600080fd5b50600436106100365760003560e01c8063180aedf31461003b5780639212051c14610073575b600080fd5b61005560048036036100509190810190610264565b610091565b60405161006a9998979695949392919061030e565b60405180910390f35b61007b610249565b60405161008891906102f3565b60405180910390f35b6000602052806000526040600020600091509050806000015490806001015490806002018054600181600116156101000203166002900480601f0160208091040260200160405190810160405280929190818152602001828054600181600116156101000203166002900480156101495780601f1061011e57610100808354040283529160200191610149565b820191906000526020600020905b81548152906001019060200180831161012c57829003601f168201915b505050505090806003018054600181600116156101000203166002900480601f0160208091040260200160405190810160405280929190818152602001828054600181600116156101000203166002900480156101e75780601f106101bc576101008083540402835291602001916101e7565b820191906000526020600020905b8154815290600101906020018083116101ca57829003601f168201915b5050505050908060040160009054906101000a900460ff16908060040160019054906101000a900473ffffffffffffffffffffffffffffffffffffffff16908060050154908060060160009054906101000a900460ff16908060070154905089565b60015481565b60008135905061025e81610451565b92915050565b60006020828403121561027657600080fd5b60006102848482850161024f565b91505092915050565b610296816103c5565b82525050565b6102a5816103d7565b82525050565b60006102b6826103a9565b6102c081856103b4565b93506102d081856020860161040d565b6102d981610440565b840191505092915050565b6102ed81610403565b82525050565b600060208201905061030860008301846102e4565b92915050565b600061012082019050610324600083018c6102e4565b610331602083018b6102e4565b8181036040830152610343818a6102ab565b9050818103606083015261035781896102ab565b9050610366608083018861029c565b61037360a083018761028d565b61038060c08301866102e4565b61038d60e083018561029c565b61039b6101008301846102e4565b9a9950505050505050505050565b600081519050919050565b600082825260208201905092915050565b60006103d0826103e3565b9050919050565b60008115159050919050565b600073ffffffffffffffffffffffffffffffffffffffff82169050919050565b6000819050919050565b60005b8381101561042b578082015181840152602081019050610410565b8381111561043a576000848401525b50505050565b6000601f19601f8301169050919050565b61045a81610403565b811461046557600080fd5b5056fea365627a7a72305820d8fe344c8860183d07f14221c15ed16030a814b7ef98729a237c88104d3fc4406c6578706572696d656e74616cf564736f6c634300050a0040",
  "source": "pragma solidity 0.5.10;\npragma experimental ABIEncoderV2;\n// import \"../SimpleToken.sol\";\n// import \"./Utils.sol\";\n// import \"./IStakeManager.sol\";\n// import \"./IStateManager.sol\";\n// import \"./IVoteManager.sol\";\nimport \"../lib/Structs.sol\";\n\n\ncontract JobStorage {\n    mapping (uint256 => Structs.Job) public jobs;\n    uint256 public numJobs;\n}\n",
  "sourcePath": "/Users/hrishi/contracts/contracts/Core/JobStorage.sol",
  "compiler": {
    "name": "solc",
    "version": "0.5.10+commit.5a6ea5b1.Emscripten.clang"
  },
  "schemaVersion": "3.0.11",
  "updatedAt": "2019-10-03T03:32:00.994Z",
  "devdoc": {
    "methods": {}
  },
  "userdoc": {
    "methods": {}
  }
}