{
  "contractName": "Random",
  "abi": [
    {
      "constant": true,
      "inputs": [
        {
          "name": "numBlocks",
          "type": "uint8"
        },
        {
          "name": "max",
          "type": "uint256"
        },
        {
          "name": "seed",
          "type": "bytes32"
        }
      ],
      "name": "prng",
      "outputs": [
        {
          "name": "",
          "type": "uint256"
        }
      ],
      "payable": false,
      "stateMutability": "view",
      "type": "function"
    },
    {
      "constant": true,
      "inputs": [
        {
          "name": "numBlocks",
          "type": "uint8"
        },
        {
          "name": "seed",
          "type": "bytes32"
        }
      ],
      "name": "prngHash",
      "outputs": [
        {
          "name": "",
          "type": "bytes32"
        }
      ],
      "payable": false,
      "stateMutability": "view",
      "type": "function"
    },
    {
      "constant": true,
      "inputs": [
        {
          "name": "numBlocks",
          "type": "uint8"
        }
      ],
      "name": "blockHashes",
      "outputs": [
        {
          "name": "",
          "type": "bytes32"
        }
      ],
      "payable": false,
      "stateMutability": "view",
      "type": "function"
    }
  ],
  "bytecode": "0x6105d4610026600b82828239805160001a60731461001957fe5b30600052607381538281f3fe730000000000000000000000000000000000000000301460806040526004361061004b5760003560e01c80635075dbfb146100505780637fa00da2146100a9578063b07ceab8146100ee575b600080fd5b6100936004803603606081101561006657600080fd5b81019080803560ff169060200190929190803590602001909291908035906020019092919050505061013d565b6040518082815260200191505060405180910390f35b6100d8600480360360208110156100bf57600080fd5b81019080803560ff169060200190929190505050610172565b6040518082815260200191505060405180910390f35b6101276004803603604081101561010457600080fd5b81019080803560ff1690602001909291908035906020019092919050505061030d565b6040518082815260200191505060405180910390f35b60008061014a858461030d565b905060008160001c9050610167858261035690919063ffffffff16565b925050509392505050565b600080600061029873__Constants_____________________________6357d775f86040518163ffffffff1660e01b815260040160206040518083038186803b1580156101be57600080fd5b505af41580156101d2573d6000803e3d6000fd5b505050506040513d60208110156101e857600080fd5b810190808051906020019092919050505061028a73__Constants_____________________________6357d775f86040518163ffffffff1660e01b815260040160206040518083038186803b15801561024057600080fd5b505af4158015610254573d6000803e3d6000fd5b505050506040513d602081101561026a57600080fd5b8101908080519060200190929190505050436103e090919063ffffffff16565b61046f90919063ffffffff16565b90506000600190505b8460ff168160ff161161030257826102c58260ff16846104f590919063ffffffff16565b40604051602001808381526020018281526020019250505060405160208183030381529060405280519060200120925080806001019150506102a1565b508192505050919050565b60008061031984610172565b9050808360405160200180838152602001828152602001925050506040516020818303038152906040528051906020012090508091505092915050565b6000808214156103ce576040517f08c379a00000000000000000000000000000000000000000000000000000000081526004018080602001828103825260188152602001807f536166654d6174683a206d6f64756c6f206279207a65726f000000000000000081525060200191505060405180910390fd5b8183816103d757fe5b06905092915050565b6000808211610457576040517f08c379a000000000000000000000000000000000000000000000000000000000815260040180806020018281038252601a8152602001807f536166654d6174683a206469766973696f6e206279207a65726f00000000000081525060200191505060405180910390fd5b600082848161046257fe5b0490508091505092915050565b60008083141561048257600090506104ef565b600082840290508284828161049357fe5b04146104ea576040517f08c379a000000000000000000000000000000000000000000000000000000000815260040180806020018281038252602181526020018061057f6021913960400191505060405180910390fd5b809150505b92915050565b60008282111561056d576040517f08c379a000000000000000000000000000000000000000000000000000000000815260040180806020018281038252601e8152602001807f536166654d6174683a207375627472616374696f6e206f766572666c6f77000081525060200191505060405180910390fd5b60008284039050809150509291505056fe536166654d6174683a206d756c7469706c69636174696f6e206f766572666c6f77a265627a7a72305820bb51fe55d0e0cd410c2187e6d995882a446228b4a472a5a1a25098f63316e18d64736f6c634300050a0032",
  "source": "pragma solidity 0.5.10;\nimport \"openzeppelin-solidity/contracts/math/SafeMath.sol\";\nimport \"./Constants.sol\";\n\n\nlibrary Random {\n    using SafeMath for uint256;\n\n    // pseudo random number generator based on block hashes. returns 0 -> max-1\n    function prng (uint8 numBlocks, uint256 max, bytes32 seed) public view returns (uint256) {\n        bytes32 hashh = prngHash(numBlocks, seed);\n        uint256 sum = uint256(hashh);\n        return(sum.mod(max));\n    }\n\n    // pseudo random hash generator based on block hashes.\n    function prngHash (uint8 numBlocks, bytes32 seed) public view returns(bytes32) {\n        bytes32 sum = blockHashes(numBlocks);\n        sum = keccak256(abi.encodePacked(sum, seed));\n        return(sum);\n    }\n\n    function blockHashes (uint8 numBlocks) public view returns(bytes32) {\n        bytes32 sum;\n        //lets start from the start of the epoch\n        uint256 blockNumberEpochStart = (block.number.div(Constants.epochLength())).mul(Constants.epochLength());\n        for (uint8 i = 1; i <= numBlocks; i++) {\n            sum = keccak256(abi.encodePacked(sum, blockhash(blockNumberEpochStart.sub(i))));\n        }\n        return(sum);\n    }\n}\n",
  "sourcePath": "/Users/hrishi/contracts/contracts/lib/Random.sol",
  "compiler": {
    "name": "solc",
    "version": "0.5.10+commit.5a6ea5b1.Emscripten.clang"
  },
  "schemaVersion": "3.0.11",
  "updatedAt": "2019-09-30T17:44:28.871Z",
  "devdoc": {
    "methods": {}
  },
  "userdoc": {
    "methods": {}
  }
}