{
  "contractName": "Random",
  "abi": [
    {
      "inputs": [
        {
          "internalType": "uint8",
          "name": "numBlocks",
          "type": "uint8"
        },
        {
          "internalType": "uint256",
          "name": "max",
          "type": "uint256"
        },
        {
          "internalType": "bytes32",
          "name": "seed",
          "type": "bytes32"
        }
      ],
      "name": "prng",
      "outputs": [
        {
          "internalType": "uint256",
          "name": "",
          "type": "uint256"
        }
      ],
      "stateMutability": "view",
      "type": "function",
      "constant": true
    },
    {
      "inputs": [
        {
          "internalType": "uint8",
          "name": "numBlocks",
          "type": "uint8"
        },
        {
          "internalType": "bytes32",
          "name": "seed",
          "type": "bytes32"
        }
      ],
      "name": "prngHash",
      "outputs": [
        {
          "internalType": "bytes32",
          "name": "",
          "type": "bytes32"
        }
      ],
      "stateMutability": "view",
      "type": "function",
      "constant": true
    },
    {
      "inputs": [
        {
          "internalType": "uint8",
          "name": "numBlocks",
          "type": "uint8"
        }
      ],
      "name": "blockHashes",
      "outputs": [
        {
          "internalType": "bytes32",
          "name": "",
          "type": "bytes32"
        }
      ],
      "stateMutability": "view",
      "type": "function",
      "constant": true
    }
  ],
  "bytecode": "0x61048d610026600b82828239805160001a60731461001957fe5b30600052607381538281f3fe730000000000000000000000000000000000000000301460806040526004361061004b5760003560e01c80635075dbfb146100505780637fa00da21461008e578063b07ceab8146100ae575b600080fd5b61007c6004803603606081101561006657600080fd5b5060ff81351690602081013590604001356100d4565b60408051918252519081900360200190f35b61007c600480360360208110156100a457600080fd5b503560ff166100fe565b61007c600480360360408110156100c457600080fd5b5060ff813516906020013561026c565b6000806100e1858461026c565b9050806100f4818663ffffffff6102ab16565b9695505050505050565b600080600061020b73__Constants_____________________________6357d775f86040518163ffffffff1660e01b815260040160206040518083038186803b15801561014a57600080fd5b505af415801561015e573d6000803e3d6000fd5b505050506040513d602081101561017457600080fd5b505160408051630afaeebf60e31b815290516101ff9173__Constants_____________________________916357d775f891600480820192602092909190829003018186803b1580156101c657600080fd5b505af41580156101da573d6000803e3d6000fd5b505050506040513d60208110156101f057600080fd5b5051439063ffffffff61031216565b9063ffffffff61037916565b905060015b8460ff168160ff161161026357826102318360ff841663ffffffff6103d916565b604080516020808201949094529140828201528051808303820181526060909201905280519101209250600101610210565b50909392505050565b600080610278846100fe565b60408051602080820193909352808201869052815180820383018152606090910190915280519101209150505b92915050565b6000808211610301576040805162461bcd60e51b815260206004820152601860248201527f536166654d6174683a206d6f64756c6f206279207a65726f0000000000000000604482015290519081900360640190fd5b81838161030a57fe5b069392505050565b6000808211610368576040805162461bcd60e51b815260206004820152601a60248201527f536166654d6174683a206469766973696f6e206279207a65726f000000000000604482015290519081900360640190fd5b81838161037157fe5b049392505050565b600082610388575060006102a5565b8282028284828161039557fe5b04146103d25760405162461bcd60e51b81526004018080602001828103825260218152602001806104376021913960400191505060405180910390fd5b9392505050565b600082821115610430576040805162461bcd60e51b815260206004820152601e60248201527f536166654d6174683a207375627472616374696f6e206f766572666c6f770000604482015290519081900360640190fd5b5090039056fe536166654d6174683a206d756c7469706c69636174696f6e206f766572666c6f77a2646970667358221220ad898750163ae73c27be92b91e8c10f365f0bd4c7ccc1f673b646d4c0914a7f364736f6c634300060b0033",
  "immutableReferences": {},
  "source": "pragma solidity 0.6.11;\nimport \"openzeppelin-solidity/contracts/math/SafeMath.sol\";\nimport \"./Constants.sol\";\n\n\nlibrary Random {\n    using SafeMath for uint256;\n\n    // pseudo random number generator based on block hashes. returns 0 -> max-1\n    function prng (uint8 numBlocks, uint256 max, bytes32 seed) public view returns (uint256) {\n        bytes32 hashh = prngHash(numBlocks, seed);\n        uint256 sum = uint256(hashh);\n        return(sum.mod(max));\n    }\n\n    // pseudo random hash generator based on block hashes.\n    function prngHash (uint8 numBlocks, bytes32 seed) public view returns(bytes32) {\n        bytes32 sum = blockHashes(numBlocks);\n        sum = keccak256(abi.encodePacked(sum, seed));\n        return(sum);\n    }\n\n    function blockHashes (uint8 numBlocks) public view returns(bytes32) {\n        bytes32 sum;\n        //lets start from the start of the epoch\n        uint256 blockNumberEpochStart = (block.number.div(Constants.epochLength())).mul(Constants.epochLength());\n        for (uint8 i = 1; i <= numBlocks; i++) {\n            sum = keccak256(abi.encodePacked(sum, blockhash(blockNumberEpochStart.sub(i))));\n        }\n        return(sum);\n    }\n}\n",
  "sourcePath": "/Users/skanda/Projects/contracts/contracts/lib/Random.sol",
  "compiler": {
    "name": "solc",
    "version": "0.6.11+commit.5ef660b1.Emscripten.clang"
  },
  "schemaVersion": "3.3.4",
  "updatedAt": "2021-04-04T21:18:47.105Z",
  "networkType": "ethereum",
  "devdoc": {
    "kind": "dev",
    "methods": {},
    "version": 1
  },
  "userdoc": {
    "kind": "user",
    "methods": {},
    "version": 1
  }
}