{
  "contractName": "Schelling2",
  "abi": [
    {
      "constant": true,
      "inputs": [],
      "name": "stakeGettingReward",
      "outputs": [
        {
          "name": "",
          "type": "uint256"
        }
      ],
      "payable": false,
      "stateMutability": "view",
      "type": "function",
      "signature": "0x0ec88d3f"
    },
    {
      "constant": true,
      "inputs": [
        {
          "name": "",
          "type": "uint256"
        }
      ],
      "name": "nodes",
      "outputs": [
        {
          "name": "id",
          "type": "uint256"
        },
        {
          "name": "stake",
          "type": "uint256"
        },
        {
          "name": "epochStaked",
          "type": "uint256"
        },
        {
          "name": "epochLastCommitted",
          "type": "uint256"
        },
        {
          "name": "epochLastRevealed",
          "type": "uint256"
        },
        {
          "name": "unstakeAfter",
          "type": "uint256"
        },
        {
          "name": "withdrawAfter",
          "type": "uint256"
        }
      ],
      "payable": false,
      "stateMutability": "view",
      "type": "function",
      "signature": "0x1c53c280"
    },
    {
      "constant": true,
      "inputs": [
        {
          "name": "",
          "type": "address"
        }
      ],
      "name": "nodeIds",
      "outputs": [
        {
          "name": "",
          "type": "uint256"
        }
      ],
      "payable": false,
      "stateMutability": "view",
      "type": "function",
      "signature": "0x2b3c9efd"
    },
    {
      "constant": true,
      "inputs": [],
      "name": "rewardPool",
      "outputs": [
        {
          "name": "",
          "type": "uint256"
        }
      ],
      "payable": false,
      "stateMutability": "view",
      "type": "function",
      "signature": "0x66666aa9"
    },
    {
      "constant": true,
      "inputs": [
        {
          "name": "",
          "type": "uint256"
        },
        {
          "name": "",
          "type": "address"
        }
      ],
      "name": "disputes",
      "outputs": [
        {
          "name": "accWeight",
          "type": "uint256"
        },
        {
          "name": "median",
          "type": "uint256"
        },
        {
          "name": "lastVisited",
          "type": "uint256"
        }
      ],
      "payable": false,
      "stateMutability": "view",
      "type": "function",
      "signature": "0x828496d6"
    },
    {
      "constant": true,
      "inputs": [],
      "name": "totalStake",
      "outputs": [
        {
          "name": "",
          "type": "uint256"
        }
      ],
      "payable": false,
      "stateMutability": "view",
      "type": "function",
      "signature": "0x8b0e9f3f"
    },
    {
      "constant": true,
      "inputs": [],
      "name": "schAddress",
      "outputs": [
        {
          "name": "",
          "type": "address"
        }
      ],
      "payable": false,
      "stateMutability": "view",
      "type": "function",
      "signature": "0x8d0e52c0"
    },
    {
      "constant": true,
      "inputs": [
        {
          "name": "",
          "type": "uint256"
        },
        {
          "name": "",
          "type": "uint256"
        }
      ],
      "name": "voteWeights",
      "outputs": [
        {
          "name": "",
          "type": "uint256"
        }
      ],
      "payable": false,
      "stateMutability": "view",
      "type": "function",
      "signature": "0x8f37d0b4"
    },
    {
      "constant": true,
      "inputs": [],
      "name": "numNodes",
      "outputs": [
        {
          "name": "",
          "type": "uint256"
        }
      ],
      "payable": false,
      "stateMutability": "view",
      "type": "function",
      "signature": "0x94ca304b"
    },
    {
      "constant": true,
      "inputs": [],
      "name": "EPOCH",
      "outputs": [
        {
          "name": "",
          "type": "uint256"
        }
      ],
      "payable": false,
      "stateMutability": "view",
      "type": "function",
      "signature": "0xa0dc2758"
    },
    {
      "constant": true,
      "inputs": [
        {
          "name": "",
          "type": "uint256"
        }
      ],
      "name": "totalStakeRevealed",
      "outputs": [
        {
          "name": "",
          "type": "uint256"
        }
      ],
      "payable": false,
      "stateMutability": "view",
      "type": "function",
      "signature": "0xab944638"
    },
    {
      "constant": true,
      "inputs": [],
      "name": "c",
      "outputs": [
        {
          "name": "COMMIT",
          "type": "uint8"
        },
        {
          "name": "REVEAL",
          "type": "uint8"
        },
        {
          "name": "PROPOSE",
          "type": "uint8"
        },
        {
          "name": "DISPUTE",
          "type": "uint8"
        },
        {
          "name": "PENALTY_NOT_REVEAL_NUM",
          "type": "uint256"
        },
        {
          "name": "PENALTY_NOT_REVEAL_DENOM",
          "type": "uint256"
        },
        {
          "name": "PENALTY_NOT_IN_ZONE_NUM",
          "type": "uint256"
        },
        {
          "name": "PENALTY_NOT_IN_ZONE_DENOM",
          "type": "uint256"
        },
        {
          "name": "MIN_STAKE",
          "type": "uint256"
        },
        {
          "name": "BLOCK_REWARD",
          "type": "uint256"
        },
        {
          "name": "REVEAL_REWARD",
          "type": "uint256"
        },
        {
          "name": "SAFETY_MARGIN_LOWER",
          "type": "uint256"
        },
        {
          "name": "UNSTAKE_LOCK_PERIOD",
          "type": "uint256"
        },
        {
          "name": "WITHDRAW_LOCK_PERIOD",
          "type": "uint256"
        }
      ],
      "payable": false,
      "stateMutability": "view",
      "type": "function",
      "signature": "0xc3da42b8"
    },
    {
      "constant": true,
      "inputs": [],
      "name": "STATE",
      "outputs": [
        {
          "name": "",
          "type": "uint256"
        }
      ],
      "payable": false,
      "stateMutability": "view",
      "type": "function",
      "signature": "0xc486456c"
    },
    {
      "constant": true,
      "inputs": [
        {
          "name": "",
          "type": "uint256"
        },
        {
          "name": "",
          "type": "uint256"
        }
      ],
      "name": "votes",
      "outputs": [
        {
          "name": "value",
          "type": "uint256"
        },
        {
          "name": "weight",
          "type": "uint256"
        }
      ],
      "payable": false,
      "stateMutability": "view",
      "type": "function",
      "signature": "0xc6e36a32"
    },
    {
      "constant": true,
      "inputs": [
        {
          "name": "",
          "type": "uint256"
        },
        {
          "name": "",
          "type": "uint256"
        }
      ],
      "name": "commitments",
      "outputs": [
        {
          "name": "",
          "type": "bytes32"
        }
      ],
      "payable": false,
      "stateMutability": "view",
      "type": "function",
      "signature": "0xd13e2e60"
    },
    {
      "constant": true,
      "inputs": [
        {
          "name": "",
          "type": "uint256"
        }
      ],
      "name": "blocks",
      "outputs": [
        {
          "name": "proposerId",
          "type": "uint256"
        },
        {
          "name": "median",
          "type": "uint256"
        },
        {
          "name": "iteration",
          "type": "uint256"
        },
        {
          "name": "biggestStake",
          "type": "uint256"
        }
      ],
      "payable": false,
      "stateMutability": "view",
      "type": "function",
      "signature": "0xf25b3f99"
    },
    {
      "inputs": [
        {
          "name": "_schAddress",
          "type": "address"
        }
      ],
      "payable": false,
      "stateMutability": "nonpayable",
      "type": "constructor",
      "signature": "constructor"
    },
    {
      "anonymous": false,
      "inputs": [
        {
          "indexed": false,
          "name": "nodeId",
          "type": "uint256"
        },
        {
          "indexed": false,
          "name": "amount",
          "type": "uint256"
        }
      ],
      "name": "Staked",
      "type": "event",
      "signature": "0x925435fa7e37e5d9555bb18ce0d62bb9627d0846942e58e5291e9a2dded462ed"
    },
    {
      "anonymous": false,
      "inputs": [
        {
          "indexed": false,
          "name": "nodeId",
          "type": "uint256"
        }
      ],
      "name": "Unstaked",
      "type": "event",
      "signature": "0x11725367022c3ff288940f4b5473aa61c2da6a24af7363a1128ee2401e8983b2"
    },
    {
      "anonymous": false,
      "inputs": [
        {
          "indexed": false,
          "name": "nodeId",
          "type": "uint256"
        },
        {
          "indexed": false,
          "name": "amount",
          "type": "uint256"
        }
      ],
      "name": "Withdrew",
      "type": "event",
      "signature": "0xe30055f80fbe7b2543e52870ba638ff9e75c7471da9cb6d9eb5a97379195b1ac"
    },
    {
      "anonymous": false,
      "inputs": [
        {
          "indexed": false,
          "name": "nodeId",
          "type": "uint256"
        },
        {
          "indexed": false,
          "name": "commitment",
          "type": "bytes32"
        }
      ],
      "name": "Committed",
      "type": "event",
      "signature": "0x68e0867601a98978930107aee7f425665e61edd70ca594c68ca5da9e81f84c29"
    },
    {
      "anonymous": false,
      "inputs": [
        {
          "indexed": false,
          "name": "y",
          "type": "uint256"
        }
      ],
      "name": "Y",
      "type": "event",
      "signature": "0xa63f6e5f3b8cca289dfc8649ede8fbf4eeb9991f44d7bc70c3fb53b128521a58"
    },
    {
      "anonymous": false,
      "inputs": [
        {
          "indexed": false,
          "name": "nodeId",
          "type": "uint256"
        },
        {
          "indexed": false,
          "name": "value",
          "type": "uint256"
        }
      ],
      "name": "Revealed",
      "type": "event",
      "signature": "0x9a5a126d5a9736641cc82adfebab5f62e9429e7963b9810cffdc9184c5fda2a7"
    },
    {
      "anonymous": false,
      "inputs": [
        {
          "indexed": false,
          "name": "epoch",
          "type": "uint256"
        },
        {
          "indexed": false,
          "name": "median",
          "type": "uint256"
        },
        {
          "indexed": false,
          "name": "iteration",
          "type": "uint256"
        },
        {
          "indexed": false,
          "name": "biggestStakerId",
          "type": "uint256"
        }
      ],
      "name": "Proposed",
      "type": "event",
      "signature": "0xb298ddd893bd0abdc6d28df66c6d5009cdd112df801fa1b176048bdab1cd5e77"
    },
    {
      "constant": false,
      "inputs": [
        {
          "name": "epoch",
          "type": "uint256"
        },
        {
          "name": "amount",
          "type": "uint256"
        }
      ],
      "name": "stake",
      "outputs": [],
      "payable": false,
      "stateMutability": "nonpayable",
      "type": "function",
      "signature": "0x7b0472f0"
    },
    {
      "constant": false,
      "inputs": [
        {
          "name": "epoch",
          "type": "uint256"
        }
      ],
      "name": "unstake",
      "outputs": [],
      "payable": false,
      "stateMutability": "nonpayable",
      "type": "function",
      "signature": "0x2e17de78"
    },
    {
      "constant": false,
      "inputs": [
        {
          "name": "epoch",
          "type": "uint256"
        }
      ],
      "name": "withdraw",
      "outputs": [],
      "payable": false,
      "stateMutability": "nonpayable",
      "type": "function",
      "signature": "0x2e1a7d4d"
    },
    {
      "constant": false,
      "inputs": [
        {
          "name": "epoch",
          "type": "uint256"
        },
        {
          "name": "commitment",
          "type": "bytes32"
        }
      ],
      "name": "commit",
      "outputs": [],
      "payable": false,
      "stateMutability": "nonpayable",
      "type": "function",
      "signature": "0xf2f03877"
    },
    {
      "constant": false,
      "inputs": [
        {
          "name": "epoch",
          "type": "uint256"
        },
        {
          "name": "value",
          "type": "uint256"
        },
        {
          "name": "secret",
          "type": "bytes32"
        },
        {
          "name": "stakerAddress",
          "type": "address"
        }
      ],
      "name": "reveal",
      "outputs": [],
      "payable": false,
      "stateMutability": "nonpayable",
      "type": "function",
      "signature": "0x6aadffa8"
    },
    {
      "constant": true,
      "inputs": [
        {
          "name": "iteration",
          "type": "uint256"
        },
        {
          "name": "biggestStakerId",
          "type": "uint256"
        },
        {
          "name": "nodeId",
          "type": "uint256"
        }
      ],
      "name": "isElectedProposer",
      "outputs": [
        {
          "name": "",
          "type": "bool"
        }
      ],
      "payable": false,
      "stateMutability": "view",
      "type": "function",
      "signature": "0x1d69ff9b"
    },
    {
      "constant": false,
      "inputs": [
        {
          "name": "epoch",
          "type": "uint256"
        },
        {
          "name": "median",
          "type": "uint256"
        },
        {
          "name": "iteration",
          "type": "uint256"
        },
        {
          "name": "biggestStakerId",
          "type": "uint256"
        }
      ],
      "name": "propose",
      "outputs": [],
      "payable": false,
      "stateMutability": "nonpayable",
      "type": "function",
      "signature": "0x2c3b4f27"
    },
    {
      "constant": false,
      "inputs": [
        {
          "name": "epoch",
          "type": "uint256"
        },
        {
          "name": "sorted",
          "type": "uint256[]"
        }
      ],
      "name": "giveSorted",
      "outputs": [],
      "payable": false,
      "stateMutability": "nonpayable",
      "type": "function",
      "signature": "0xab45c6b5"
    },
    {
      "constant": false,
      "inputs": [
        {
          "name": "epoch",
          "type": "uint256"
        }
      ],
      "name": "resetDispute",
      "outputs": [],
      "payable": false,
      "stateMutability": "nonpayable",
      "type": "function",
      "signature": "0x5ce8772f"
    },
    {
      "constant": false,
      "inputs": [
        {
          "name": "epoch",
          "type": "uint256"
        }
      ],
      "name": "proposeAlt",
      "outputs": [],
      "payable": false,
      "stateMutability": "nonpayable",
      "type": "function",
      "signature": "0x1e8fcfe5"
    },
    {
      "constant": true,
      "inputs": [],
      "name": "getEpoch",
      "outputs": [
        {
          "name": "",
          "type": "uint256"
        }
      ],
      "payable": false,
      "stateMutability": "view",
      "type": "function",
      "signature": "0x757991a8"
    },
    {
      "constant": true,
      "inputs": [],
      "name": "getState",
      "outputs": [
        {
          "name": "",
          "type": "uint256"
        }
      ],
      "payable": false,
      "stateMutability": "view",
      "type": "function",
      "signature": "0x1865c57d"
    },
    {
      "constant": true,
      "inputs": [
        {
          "name": "numBlocks",
          "type": "uint8"
        },
        {
          "name": "max",
          "type": "uint256"
        },
        {
          "name": "seed",
          "type": "bytes32"
        }
      ],
      "name": "prng",
      "outputs": [
        {
          "name": "",
          "type": "uint256"
        }
      ],
      "payable": false,
      "stateMutability": "view",
      "type": "function",
      "signature": "0x5075dbfb"
    },
    {
      "constant": true,
      "inputs": [
        {
          "name": "numBlocks",
          "type": "uint8"
        },
        {
          "name": "seed",
          "type": "bytes32"
        }
      ],
      "name": "prngHash",
      "outputs": [
        {
          "name": "",
          "type": "bytes32"
        }
      ],
      "payable": false,
      "stateMutability": "view",
      "type": "function",
      "signature": "0xb07ceab8"
    },
    {
      "constant": false,
      "inputs": [
        {
          "name": "epoch",
          "type": "uint256"
        }
      ],
      "name": "setEpoch",
      "outputs": [],
      "payable": false,
      "stateMutability": "nonpayable",
      "type": "function",
      "signature": "0x0ceb2cef"
    },
    {
      "constant": false,
      "inputs": [
        {
          "name": "state",
          "type": "uint256"
        }
      ],
      "name": "setState",
      "outputs": [],
      "payable": false,
      "stateMutability": "nonpayable",
      "type": "function",
      "signature": "0xa9e966b7"
    },
    {
      "constant": false,
      "inputs": [],
      "name": "dum",
      "outputs": [],
      "payable": false,
      "stateMutability": "nonpayable",
      "type": "function",
      "signature": "0x6bf844e9"
    }
  ],
  "bytecode": "0x608060405260006009556000600a556000600d556000600e55604051806101c00160405280600060ff168152602001600160ff168152602001600260ff168152602001600360ff168152602001605f81526020016064815260200160638152602001606481526020016103e88152602001600581526020016005815260200160638152602001600181526020016001815250600f60008201518160000160006101000a81548160ff021916908360ff16021790555060208201518160000160016101000a81548160ff021916908360ff16021790555060408201518160000160026101000a81548160ff021916908360ff16021790555060608201518160000160036101000a81548160ff021916908360ff1602179055506080820151816001015560a0820151816002015560c0820151816003015560e08201518160040155610100820151816005015561012082015181600601556101408201518160070155610160820151816008015561018082015181600901556101a082015181600a0155505034801561018f57600080fd5b50604051602080613f3f833981018060405260208110156101af57600080fd5b810190808051906020019092919050505080600860006101000a81548173ffffffffffffffffffffffffffffffffffffffff021916908373ffffffffffffffffffffffffffffffffffffffff16021790555050613d2e806102116000396000f3fe608060405234801561001057600080fd5b5060043610610218576000357c0100000000000000000000000000000000000000000000000000000000900480637b0472f011610137578063ab45c6b5116100ca578063c486456c11610099578063c486456c14610954578063c6e36a3214610972578063d13e2e60146109c5578063f25b3f9914610a11578063f2f0387714610a6857610218565b8063ab45c6b514610770578063ab94463814610832578063b07ceab814610874578063c3da42b8146108c357610218565b80638f37d0b4116101065780638f37d0b4146106ba57806394ca304b14610706578063a0dc275814610724578063a9e966b71461074257610218565b80637b0472f0146105aa578063828496d6146105e25780638b0e9f3f146106525780638d0e52c01461067057610218565b80632e17de78116101af57806366666aa91161017e57806366666aa9146105025780636aadffa8146105205780636bf844e914610582578063757991a81461058c57610218565b80632e17de781461041f5780632e1a7d4d1461044d5780635075dbfb1461047b5780635ce8772f146104d457610218565b80631d69ff9b116101eb5780631d69ff9b146102f35780631e8fcfe51461034d5780632b3c9efd1461037b5780632c3b4f27146103d357610218565b80630ceb2cef1461021d5780630ec88d3f1461024b5780631865c57d146102695780631c53c28014610287575b600080fd5b6102496004803603602081101561023357600080fd5b8101908080359060200190929190505050610aa0565b005b610253610aaa565b6040518082815260200191505060405180910390f35b610271610ab0565b6040518082815260200191505060405180910390f35b6102b36004803603602081101561029d57600080fd5b8101908080359060200190929190505050610ae3565b6040518088815260200187815260200186815260200185815260200184815260200183815260200182815260200197505050505050505060405180910390f35b6103336004803603606081101561030957600080fd5b81019080803590602001909291908035906020019092919080359060200190929190505050610b25565b604051808215151515815260200191505060405180910390f35b6103796004803603602081101561036357600080fd5b8101908080359060200190929190505050610c57565b005b6103bd6004803603602081101561039157600080fd5b81019080803573ffffffffffffffffffffffffffffffffffffffff169060200190929190505050610fd1565b6040518082815260200191505060405180910390f35b61041d600480360360808110156103e957600080fd5b8101908080359060200190929190803590602001909291908035906020019092919080359060200190929190505050610fe9565b005b61044b6004803603602081101561043557600080fd5b81019080803590602001909291905050506115ed565b005b6104796004803603602081101561046357600080fd5b81019080803590602001909291905050506117d9565b005b6104be6004803603606081101561049157600080fd5b81019080803560ff1690602001909291908035906020019092919080359060200190929190505050611e21565b6040518082815260200191505060405180910390f35b610500600480360360208110156104ea57600080fd5b8101908080359060200190929190505050611e57565b005b61050a611ffa565b6040518082815260200191505060405180910390f35b6105806004803603608081101561053657600080fd5b81019080803590602001909291908035906020019092919080359060200190929190803573ffffffffffffffffffffffffffffffffffffffff169060200190929190505050612000565b005b61058a6126bd565b005b6105946126bf565b6040518082815260200191505060405180910390f35b6105e0600480360360408110156105c057600080fd5b8101908080359060200190929190803590602001909291905050506126da565b005b61062e600480360360408110156105f857600080fd5b8101908080359060200190929190803573ffffffffffffffffffffffffffffffffffffffff169060200190929190505050612c69565b60405180848152602001838152602001828152602001935050505060405180910390f35b61065a612ca0565b6040518082815260200191505060405180910390f35b610678612ca6565b604051808273ffffffffffffffffffffffffffffffffffffffff1673ffffffffffffffffffffffffffffffffffffffff16815260200191505060405180910390f35b6106f0600480360360408110156106d057600080fd5b810190808035906020019092919080359060200190929190505050612ccc565b6040518082815260200191505060405180910390f35b61070e612cf1565b6040518082815260200191505060405180910390f35b61072c612cf7565b6040518082815260200191505060405180910390f35b61076e6004803603602081101561075857600080fd5b8101908080359060200190929190505050612cfd565b005b6108306004803603604081101561078657600080fd5b8101908080359060200190929190803590602001906401000000008111156107ad57600080fd5b8201836020820111156107bf57600080fd5b803590602001918460208302840111640100000000831117156107e157600080fd5b919080806020026020016040519081016040528093929190818152602001838360200280828437600081840152601f19601f820116905080830192505050505050509192919290505050612d07565b005b61085e6004803603602081101561084857600080fd5b8101908080359060200190929190505050613176565b6040518082815260200191505060405180910390f35b6108ad6004803603604081101561088a57600080fd5b81019080803560ff1690602001909291908035906020019092919050505061318e565b6040518082815260200191505060405180910390f35b6108cb613261565b604051808f60ff1660ff1681526020018e60ff1660ff1681526020018d60ff1660ff1681526020018c60ff1660ff1681526020018b81526020018a81526020018981526020018881526020018781526020018681526020018581526020018481526020018381526020018281526020019e50505050505050505050505050505060405180910390f35b61095c6132ef565b6040518082815260200191505060405180910390f35b6109a86004803603604081101561098857600080fd5b8101908080359060200190929190803590602001909291905050506132f5565b604051808381526020018281526020019250505060405180910390f35b6109fb600480360360408110156109db57600080fd5b810190808035906020019092919080359060200190929190505050613326565b6040518082815260200191505060405180910390f35b610a3d60048036036020811015610a2757600080fd5b810190808035906020019092919050505061334b565b6040518085815260200184815260200183815260200182815260200194505050505060405180910390f35b610a9e60048036036040811015610a7e57600080fd5b81019080803590602001909291908035906020019092919050505061337b565b005b80600b8190555050565b600e5481565b600080610ac760144361361a90919063ffffffff16565b9050610add60048261364090919063ffffffff16565b91505090565b60016020528060005260406000206000915090508060000154908060010154908060020154908060030154908060040154908060050154908060060154905087565b600081610b6f6001610b61600a600954896040516020018082815260200191505060405160208183030381529060405280519060200120611e21565b61366190919063ffffffff16565b14610b7d5760009050610c50565b6000610bb8600a848760405160200180838152602001828152602001925050506040516020818303038152906040528051906020012061318e565b90506000610bd8640100000000836001900461364090919063ffffffff16565b9050600060016000878152602001908152602001600020600101549050610c23640100000000600160008881526020019081526020016000206001015461368090919063ffffffff16565b610c36828461368090919063ffffffff16565b1115610c485760009350505050610c50565b600193505050505b9392505050565b80610c606126bf565b8114610cd4576040517f08c379a000000000000000000000000000000000000000000000000000000000815260040180806020018281038252600f8152602001807f696e636f72726563742065706f6368000000000000000000000000000000000081525060200191505060405180910390fd5b600f60000160039054906101000a900460ff16610cef610ab0565b8160ff1614610d66576040517f08c379a000000000000000000000000000000000000000000000000000000000815260040180806020018281038252600f8152602001807f696e636f7272656374207374617465000000000000000000000000000000000081525060200191505060405180910390fd5b60046000848152602001908152602001600020546007600085815260200190815260200160002060003373ffffffffffffffffffffffffffffffffffffffff1673ffffffffffffffffffffffffffffffffffffffff1681526020019081526020016000206000015414610dd857600080fd5b60006007600085815260200190815260200160002060003373ffffffffffffffffffffffffffffffffffffffff1673ffffffffffffffffffffffffffffffffffffffff16815260200190815260200160002060010154905060008060003373ffffffffffffffffffffffffffffffffffffffff1673ffffffffffffffffffffffffffffffffffffffff16815260200190815260200160002054905060006005600087815260200190815260200160002060000154905060008311610e9b57600080fd5b82600560008881526020019081526020016000206001015414610f7857604051806080016040528083815260200184815260200160008152602001600081525060056000888152602001908152602001600020600082015181600001556020820151816001015560408201518160020155606082015181600301559050507fb298ddd893bd0abdc6d28df66c6d5009cdd112df801fa1b176048bdab1cd5e7786846000806040518085815260200184815260200183815260200182815260200194505050505060405180910390a1610f7381336136ba565b610fc9565b6040517f08c379a0000000000000000000000000000000000000000000000000000000008152600401808060200182810382526037815260200180613bd76037913960400191505060405180910390fd5b505050505050565b60006020528060005260406000206000915090505481565b83610ff26126bf565b8114611066576040517f08c379a000000000000000000000000000000000000000000000000000000000815260040180806020018281038252600f8152602001807f696e636f72726563742065706f6368000000000000000000000000000000000081525060200191505060405180910390fd5b600f60000160029054906101000a900460ff16611081610ab0565b8160ff16146110f8576040517f08c379a000000000000000000000000000000000000000000000000000000000815260040180806020018281038252600f8152602001807f696e636f7272656374207374617465000000000000000000000000000000000081525060200191505060405180910390fd5b60008060003373ffffffffffffffffffffffffffffffffffffffff1673ffffffffffffffffffffffffffffffffffffffff1681526020019081526020016000205490506000600860009054906101000a900473ffffffffffffffffffffffffffffffffffffffff16905061116d868684610b25565b6111df576040517f08c379a000000000000000000000000000000000000000000000000000000000815260040180806020018281038252600b8152602001807f6e6f7420656c656374656400000000000000000000000000000000000000000081525060200191505060405180910390fd5b600f6005015460016000848152602001908152602001600020600101541015611270576040517f08c379a00000000000000000000000000000000000000000000000000000000081526004018080602001828103825260198152602001807f7374616b652062656c6f77206d696e696d756d207374616b650000000000000081525060200191505060405180910390fd5b6000600560008a815260200190815260200160002060000154146113bc576005600089815260200190815260200160002060030154600160008781526020019081526020016000206001015414156113355785600560008a81526020019081526020016000206002015411611330576040517f08c379a0000000000000000000000000000000000000000000000000000000008152600401808060200182810382526031815260200180613ba66031913960400191505060405180910390fd5b6113bb565b6005600089815260200190815260200160002060030154600160008781526020019081526020016000206001015410156113ba576040517f08c379a000000000000000000000000000000000000000000000000000000000815260040180806020018281038252604d815260200180613c0e604d913960600191505060405180910390fd5b5b5b60405180608001604052808381526020018881526020018781526020016001600088815260200190815260200160002060010154815250600560008a8152602001908152602001600020600082015181600001556020820151816001015560408201518160020155606082015181600301559050506000600f6006015411156115945761146d600f60060154600160008581526020019081526020016000206001015461366190919063ffffffff16565b60016000848152602001908152602001600020600101819055506114a1600f60060154600a5461366190919063ffffffff16565b600a819055508073ffffffffffffffffffffffffffffffffffffffff166340c10f1930600f600601546040518363ffffffff167c0100000000000000000000000000000000000000000000000000000000028152600401808373ffffffffffffffffffffffffffffffffffffffff1673ffffffffffffffffffffffffffffffffffffffff16815260200182815260200192505050602060405180830381600087803b15801561154f57600080fd5b505af1158015611563573d6000803e3d6000fd5b505050506040513d602081101561157957600080fd5b810190808051906020019092919050505061159357600080fd5b5b7fb298ddd893bd0abdc6d28df66c6d5009cdd112df801fa1b176048bdab1cd5e77888888886040518085815260200184815260200183815260200182815260200194505050505060405180910390a15050505050505050565b806115f66126bf565b811461166a576040517f08c379a000000000000000000000000000000000000000000000000000000000815260040180806020018281038252600f8152602001807f696e636f72726563742065706f6368000000000000000000000000000000000081525060200191505060405180910390fd5b60008060003373ffffffffffffffffffffffffffffffffffffffff1673ffffffffffffffffffffffffffffffffffffffff16815260200190815260200160002054905060006001600083815260200190815260200160002090506000816000015414156116d657600080fd5b6000816001015411611750576040517f08c379a00000000000000000000000000000000000000000000000000000000081526004018080602001828103825260118152602001807f4e6f6e706f736974697665207374616b6500000000000000000000000000000081525060200191505060405180910390fd5b8381600501541115801561176957506000816005015414155b61177257600080fd5b60008160050181905550611794600f600a01548561366190919063ffffffff16565b81600601819055507f11725367022c3ff288940f4b5473aa61c2da6a24af7363a1128ee2401e8983b2826040518082815260200191505060405180910390a150505050565b806117e26126bf565b8114611856576040517f08c379a000000000000000000000000000000000000000000000000000000000815260040180806020018281038252600f8152602001807f696e636f72726563742065706f6368000000000000000000000000000000000081525060200191505060405180910390fd5b600f60000160009054906101000a900460ff16611871610ab0565b8160ff16146118e8576040517f08c379a000000000000000000000000000000000000000000000000000000000815260040180806020018281038252600f8152602001807f696e636f7272656374207374617465000000000000000000000000000000000081525060200191505060405180910390fd5b60008060003373ffffffffffffffffffffffffffffffffffffffff1673ffffffffffffffffffffffffffffffffffffffff16815260200190815260200160002054905060006001600083815260200190815260200160002090506000816000015414156119bd576040517f08c379a00000000000000000000000000000000000000000000000000000000081526004018080602001828103825260118152602001807f6e6f646520646f65736e7420657869737400000000000000000000000000000081525060200191505060405180910390fd5b6119d16001866138a690919063ffffffff16565b816004015414611a49576040517f08c379a000000000000000000000000000000000000000000000000000000000815260040180806020018281038252601a8152602001807f4469646e742072657665616c20696e206c6173742065706f636800000000000081525060200191505060405180910390fd5b6000816005015414611ac3576040517f08c379a000000000000000000000000000000000000000000000000000000000815260040180806020018281038252600f8152602001807f446964206e6f7420756e7374616b65000000000000000000000000000000000081525060200191505060405180910390fd5b84816006015411158015611adc57506000816006015414155b611b4e576040517f08c379a000000000000000000000000000000000000000000000000000000000815260040180806020018281038252601a8152602001807f57697468647261772065706f6368206e6f74207265616368656400000000000081525060200191505060405180910390fd5b60006001026002600087815260200190815260200160002060008481526020019081526020016000205414611bce576040517f08c379a000000000000000000000000000000000000000000000000000000000815260040180806020018281038252602a815260200180613c5b602a913960400191505060405180910390fd5b611bd881866138c6565b506000816001015411611c53576040517f08c379a00000000000000000000000000000000000000000000000000000000081526004018080602001828103825260118152602001807f4e6f6e706f736974697665205374616b6500000000000000000000000000000081525060200191505060405180910390fd5b6000600860009054906101000a900473ffffffffffffffffffffffffffffffffffffffff169050611ca56001600085815260200190815260200160002060010154600a546138a690919063ffffffff16565b600a81905550600060016000858152602001908152602001600020600101819055507fe30055f80fbe7b2543e52870ba638ff9e75c7471da9cb6d9eb5a97379195b1ac836001600086815260200190815260200160002060010154604051808381526020018281526020019250505060405180910390a18073ffffffffffffffffffffffffffffffffffffffff1663a9059cbb3360016000878152602001908152602001600020600101546040518363ffffffff167c0100000000000000000000000000000000000000000000000000000000028152600401808373ffffffffffffffffffffffffffffffffffffffff1673ffffffffffffffffffffffffffffffffffffffff16815260200182815260200192505050602060405180830381600087803b158015611dd557600080fd5b505af1158015611de9573d6000803e3d6000fd5b505050506040513d6020811015611dff57600080fd5b8101908080519060200190929190505050611e1957600080fd5b505050505050565b600080611e2e858461318e565b9050600081600190049050611e4c858261364090919063ffffffff16565b925050509392505050565b80611e606126bf565b8114611ed4576040517f08c379a000000000000000000000000000000000000000000000000000000000815260040180806020018281038252600f8152602001807f696e636f72726563742065706f6368000000000000000000000000000000000081525060200191505060405180910390fd5b600f60000160039054906101000a900460ff16611eef610ab0565b8160ff1614611f66576040517f08c379a000000000000000000000000000000000000000000000000000000000815260040180806020018281038252600f8152602001807f696e636f7272656374207374617465000000000000000000000000000000000081525060200191505060405180910390fd5b6040518060600160405280600081526020016000815260200160008152506007600085815260200190815260200160002060003373ffffffffffffffffffffffffffffffffffffffff1673ffffffffffffffffffffffffffffffffffffffff168152602001908152602001600020600082015181600001556020820151816001015560408201518160020155905050505050565b600d5481565b836120096126bf565b811461207d576040517f08c379a000000000000000000000000000000000000000000000000000000000815260040180806020018281038252600f8152602001807f696e636f72726563742065706f6368000000000000000000000000000000000081525060200191505060405180910390fd5b60008060008473ffffffffffffffffffffffffffffffffffffffff1673ffffffffffffffffffffffffffffffffffffffff16815260200190815260200160002054905060008111612136576040517f08c379a00000000000000000000000000000000000000000000000000000000081526004018080602001828103825260138152602001807f4e6f646520646f6573206e6f742065786973740000000000000000000000000081525060200191505060405180910390fd5b600060016000838152602001908152602001600020905060006001026002600089815260200190815260200160002060008481526020019081526020016000205414156121eb576040517f08c379a00000000000000000000000000000000000000000000000000000000081526004018080602001828103825260208152602001807f6e6f7420636f6d6d69746564206f7220616c72656164792072657665616c656481525060200191505060405180910390fd5b60008611612261576040517f08c379a00000000000000000000000000000000000000000000000000000000081526004018080602001828103825260188152602001807f766f746564206e6f6e20706f7369746976652076616c7565000000000000000081525060200191505060405180910390fd5b600260008881526020019081526020016000206000838152602001908152602001600020548787876040516020018084815260200183815260200182815260200193505050506040516020818303038152906040528051906020012014612330576040517f08c379a00000000000000000000000000000000000000000000000000000000081526004018080602001828103825260168152602001807f696e636f7272656374207365637265742f76616c75650000000000000000000081525060200191505060405180910390fd5b7f9a5a126d5a9736641cc82adfebab5f62e9429e7963b9810cffdc9184c5fda2a78287604051808381526020018281526020019250505060405180910390a18373ffffffffffffffffffffffffffffffffffffffff163373ffffffffffffffffffffffffffffffffffffffff1614156125eb57600f60000160019054906101000a900460ff1660ff166123c1610ab0565b14612434576040517f08c379a00000000000000000000000000000000000000000000000000000000081526004018080602001828103825260108152602001807f4e6f742072657665616c2073746174650000000000000000000000000000000081525060200191505060405180910390fd5b60008160010154116124ae576040517f08c379a00000000000000000000000000000000000000000000000000000000081526004018080602001828103825260118152602001807f6e6f6e706f736974697665207374616b6500000000000000000000000000000081525060200191505060405180910390fd5b6124b88188613ae7565b6040518060400160405280878152602001826001015481525060036000898152602001908152602001600020600084815260200190815260200160002060008201518160000155602082015181600101559050506000600102600260008981526020019081526020016000206000848152602001908152602001600020819055506125638160010154600460008a81526020019081526020016000205461366190919063ffffffff16565b60046000898152602001908152602001600020819055506125b58160010154600660008a815260200190815260200160002060008981526020019081526020016000205461366190919063ffffffff16565b600660008981526020019081526020016000206000888152602001908152602001600020819055508681600401819055506126b4565b600f60000160009054906101000a900460ff1660ff16612609610ab0565b1461267c576040517f08c379a00000000000000000000000000000000000000000000000000000000081526004018080602001828103825260108152602001807f4e6f7420636f6d6d69742073746174650000000000000000000000000000000081525060200191505060405180910390fd5b6000600102600260008981526020019081526020016000206000848152602001908152602001600020819055506126b382336136ba565b5b50505050505050565b565b60006126d560504361361a90919063ffffffff16565b905090565b816126e36126bf565b8114612757576040517f08c379a000000000000000000000000000000000000000000000000000000000815260040180806020018281038252600f8152602001807f696e636f72726563742065706f6368000000000000000000000000000000000081525060200191505060405180910390fd5b600f60000160009054906101000a900460ff16612772610ab0565b8160ff16146127e9576040517f08c379a000000000000000000000000000000000000000000000000000000000815260040180806020018281038252600f8152602001807f696e636f7272656374207374617465000000000000000000000000000000000081525060200191505060405180910390fd5b6000600860009054906101000a900473ffffffffffffffffffffffffffffffffffffffff169050600f6005015484101561286e576040517f08c379a0000000000000000000000000000000000000000000000000000000008152600401808060200182810382526031815260200180613cd26031913960400191505060405180910390fd5b8073ffffffffffffffffffffffffffffffffffffffff166323b872dd3330876040518463ffffffff167c0100000000000000000000000000000000000000000000000000000000028152600401808473ffffffffffffffffffffffffffffffffffffffff1673ffffffffffffffffffffffffffffffffffffffff1681526020018373ffffffffffffffffffffffffffffffffffffffff1673ffffffffffffffffffffffffffffffffffffffff1681526020018281526020019350505050602060405180830381600087803b15801561294557600080fd5b505af1158015612959573d6000803e3d6000fd5b505050506040513d602081101561296f57600080fd5b81019080805190602001909291905050506129f2576040517f08c379a00000000000000000000000000000000000000000000000000000000081526004018080602001828103825260138152602001807f736368207472616e73666572206661696c65640000000000000000000000000081525060200191505060405180910390fd5b60008060003373ffffffffffffffffffffffffffffffffffffffff1673ffffffffffffffffffffffffffffffffffffffff1681526020019081526020016000205490506000811415612b5457612a54600160095461366190919063ffffffff16565b6009819055506040518060e0016040528060095481526020018681526020018781526020016000815260200160008152602001612a9f600f600901548961366190919063ffffffff16565b81526020016000815250600160006009548152602001908152602001600020600082015181600001556020820151816001015560408201518160020155606082015181600301556080820151816004015560a0820151816005015560c082015181600601559050506009549050806000803373ffffffffffffffffffffffffffffffffffffffff1673ffffffffffffffffffffffffffffffffffffffff16815260200190815260200160002081905550612c07565b6000600160008381526020019081526020016000206001015411612bc3576040517f08c379a000000000000000000000000000000000000000000000000000000000815260040180806020018281038252604d815260200180613c85604d913960600191505060405180910390fd5b612bec85600160008481526020019081526020016000206001015461366190919063ffffffff16565b60016000838152602001908152602001600020600101819055505b612c1c85600a5461366190919063ffffffff16565b600a819055507f925435fa7e37e5d9555bb18ce0d62bb9627d0846942e58e5291e9a2dded462ed8186604051808381526020018281526020019250505060405180910390a1505050505050565b6007602052816000526040600020602052806000526040600020600091509150508060000154908060010154908060020154905083565b600a5481565b600860009054906101000a900473ffffffffffffffffffffffffffffffffffffffff1681565b6006602052816000526040600020602052806000526040600020600091509150505481565b60095481565b600b5481565b80600c8190555050565b81612d106126bf565b8114612d84576040517f08c379a000000000000000000000000000000000000000000000000000000000815260040180806020018281038252600f8152602001807f696e636f72726563742065706f6368000000000000000000000000000000000081525060200191505060405180910390fd5b600f60000160039054906101000a900460ff16612d9f610ab0565b8160ff1614612e16576040517f08c379a000000000000000000000000000000000000000000000000000000000815260040180806020018281038252600f8152602001807f696e636f7272656374207374617465000000000000000000000000000000000081525060200191505060405180910390fd5b6000612e3f6002600460008881526020019081526020016000205461361a90919063ffffffff16565b905060006007600087815260200190815260200160002060003373ffffffffffffffffffffffffffffffffffffffff1673ffffffffffffffffffffffffffffffffffffffff16815260200190815260200160002060000154905060006007600088815260200190815260200160002060003373ffffffffffffffffffffffffffffffffffffffff1673ffffffffffffffffffffffffffffffffffffffff16815260200190815260200160002060020154905060008090505b86518110156130bc5781878281518110612f0d57fe5b602002602001015111612f6b576040517f08c379a0000000000000000000000000000000000000000000000000000000008152600401808060200182810382526029815260200180613b7d6029913960400191505060405180910390fd5b868181518110612f7757fe5b60200260200101519150612fcb600660008a81526020019081526020016000206000898481518110612fa557fe5b60200260200101518152602001908152602001600020548461366190919063ffffffff16565b92506000600760008a815260200190815260200160002060003373ffffffffffffffffffffffffffffffffffffffff1673ffffffffffffffffffffffffffffffffffffffff1681526020019081526020016000206001015414801561302f57508383115b156130a05786818151811061304057fe5b6020026020010151600760008a815260200190815260200160002060003373ffffffffffffffffffffffffffffffffffffffff1673ffffffffffffffffffffffffffffffffffffffff168152602001908152602001600020600101819055505b6127105a10156130af576130bc565b8080600101915050612ef7565b50806007600089815260200190815260200160002060003373ffffffffffffffffffffffffffffffffffffffff1673ffffffffffffffffffffffffffffffffffffffff16815260200190815260200160002060020181905550816007600089815260200190815260200160002060003373ffffffffffffffffffffffffffffffffffffffff1673ffffffffffffffffffffffffffffffffffffffff1681526020019081526020016000206000018190555050505050505050565b60046020528060005260406000206000915090505481565b60008060006131ba60106131ac60104361361a90919063ffffffff16565b61368090919063ffffffff16565b90506000600190505b8560ff168160ff161161322457826131e78260ff16846138a690919063ffffffff16565b40604051602001808381526020018281526020019250505060405160208183030381529060405280519060200120925080806001019150506131c3565b5081846040516020018083815260200182815260200192505050604051602081830303815290604052805190602001209150819250505092915050565b600f8060000160009054906101000a900460ff16908060000160019054906101000a900460ff16908060000160029054906101000a900460ff16908060000160039054906101000a900460ff169080600101549080600201549080600301549080600401549080600501549080600601549080600701549080600801549080600901549080600a015490508e565b600c5481565b6003602052816000526040600020602052806000526040600020600091509150508060000154908060010154905082565b6002602052816000526040600020602052806000526040600020600091509150505481565b60056020528060005260406000206000915090508060000154908060010154908060020154908060030154905084565b816133846126bf565b81146133f8576040517f08c379a000000000000000000000000000000000000000000000000000000000815260040180806020018281038252600f8152602001807f696e636f72726563742065706f6368000000000000000000000000000000000081525060200191505060405180910390fd5b600f60000160009054906101000a900460ff16613413610ab0565b8160ff161461348a576040517f08c379a000000000000000000000000000000000000000000000000000000000815260040180806020018281038252600f8152602001807f696e636f7272656374207374617465000000000000000000000000000000000081525060200191505060405180910390fd5b60008060003373ffffffffffffffffffffffffffffffffffffffff1673ffffffffffffffffffffffffffffffffffffffff1681526020019081526020016000205490506000600102600260008781526020019081526020016000206000838152602001908152602001600020541461356a576040517f08c379a00000000000000000000000000000000000000000000000000000000081526004018080602001828103825260108152602001807f616c726561647920636f6d6d697465640000000000000000000000000000000081525060200191505060405180910390fd5b6000600160008381526020019081526020016000209050600061358d82886138c6565b9050600f600501548260010154106136115785600260008981526020019081526020016000206000858152602001908152602001600020819055508682600301819055507f68e0867601a98978930107aee7f425665e61edd70ca594c68ca5da9e81f84c298387604051808381526020018281526020019250505060405180910390a15b50505050505050565b600080821161362857600080fd5b600082848161363357fe5b0490508091505092915050565b60008082141561364f57600080fd5b81838161365857fe5b06905092915050565b60008082840190508381101561367657600080fd5b8091505092915050565b60008083141561369357600090506136b4565b60008284029050828482816136a457fe5b04146136af57600080fd5b809150505b92915050565b6000600860009054906101000a900473ffffffffffffffffffffffffffffffffffffffff169050600061370d6002600160008781526020019081526020016000206001015461361a90919063ffffffff16565b90506000600160008681526020019081526020016000206001018190555060018111156138a05761374981600a546138a690919063ffffffff16565b600a819055508173ffffffffffffffffffffffffffffffffffffffff1663a9059cbb84836040518363ffffffff167c0100000000000000000000000000000000000000000000000000000000028152600401808373ffffffffffffffffffffffffffffffffffffffff1673ffffffffffffffffffffffffffffffffffffffff16815260200182815260200192505050602060405180830381600087803b1580156137f257600080fd5b505af1158015613806573d6000803e3d6000fd5b505050506040513d602081101561381c57600080fd5b810190808051906020019092919050505061389f576040517f08c379a00000000000000000000000000000000000000000000000000000000081526004018080602001828103825260198152602001807f6661696c656420746f207472616e7366657220626f756e74790000000000000081525060200191505060405180910390fd5b5b50505050565b6000828211156138b557600080fd5b600082840390508091505092915050565b60006001821115613ae157600083600401548460020154106138ec5783600201546138f2565b83600401545b9050600061391c600161390e84876138a690919063ffffffff16565b6138a690919063ffffffff16565b905060008560040154905060008660010154905060006005600084815260200190815260200160002060010154905060006003600085815260200190815260200160002060008a60000154815260200190815260200160002060000154905060008211801561398b5750600081115b15613ada576000896001015490506000838402838560020202848502868702010361271002816139b757fe5b049050836002028311156139ef5760008b600101819055506139e482600d5461366190919063ffffffff16565b600d81905550613ad7565b600083118015613a6f5750613a256064613a17600f600801548761368090919063ffffffff16565b61361a90919063ffffffff16565b831080613a6e5750613a6b6064613a5d613a4e600f6008015460c86138a690919063ffffffff16565b8761368090919063ffffffff16565b61361a90919063ffffffff16565b83115b5b15613ac55761271082600183030281613a8457fe5b0482038b60010181905550613aba613aa98c60010154876138a690919063ffffffff16565b600d5461366190919063ffffffff16565b600d81905550613ad6565b806001038202600e5401600e819055505b5b50505b5050505050505b92915050565b600181118015613af957506000600e54115b15613b7857600082600401549050600060036000838152602001908152602001600020600085600001548152602001908152602001600020600001549050600060056000848152602001908152602001600020600101549050600e54600d5486600101540281613b6557fe5b0485600101540185600101819055505050505b505056fe736f727465645b695d206973206e6f742067726561746572207468616e206c61737456697369746564697465726174696f6e206e6f7420626967676572207468616e206578697374696e6720656c6563746564207374616b657250726f706f73656420416c7465726e61746520626c6f636b206173206964656e746963616c20746f2070726f706f73656420626c6f636b62696767657374207374616b657273207374616b65206e6f7420626967676572207468616e2061732070726f706f736564206279206578697374696e6720656c6563746564207374616b657220616c726561647920636f6d6d6974656420746869732065706f63682e2043616e74207769746864726177616464696e67207374616b65206973206e6f7420706f737369626c65206166746572207769746864726177616c2f736c6173682e20506c65617365207573652061206e657720616464726573737374616b656420616d6f756e74206973206c657373207468616e206d696e696d756d207374616b65207265717569726564a165627a7a72305820b17756a5de84868d724773d8894d61caa3a989103e0d5a798e7c4fbd6ebf35170029",
  "source": "pragma solidity 0.5.7;\nimport \"./SimpleToken.sol\";\nimport \"openzeppelin-solidity/contracts/math/SafeMath.sol\";\n\n// WARNING IN development\n// Must Vote price rounded to 2 decimals *100 and must be above 0\n// e.g. if ethusd is 169.99 vote 16999\n// invalid vote cannot be revealed and you will get penalty\n// node == staker\n\n// TODO Priority list\n// nobody proposes, nobody disputes, extending dispute period\n// staker wants to vote but cant because below minimum. how to handle? should he be penalized? how much waiting time?\n\n// new algo\n//give reward and penalty in state 1 not state 2. because someone may defect in state 2 and leave in next epoch state 1\n//calculate penalty in state 1 and distribute reward in state 2\n//state 2 divide reward to those who committed in state 1 and distribute. if they dont participate, too bad.\n// newvariables. global rewardpool.\n\ncontract Schelling2 {\n    using SafeMath for uint256;\n\n    struct Vote {\n        uint256 value;\n        uint256 weight;\n    }\n\n    struct Node {\n        uint256 id;\n        uint256 stake;\n        uint256 epochStaked;\n        uint256 epochLastCommitted;\n        uint256 epochLastRevealed;\n        uint256 unstakeAfter;\n        uint256 withdrawAfter;\n    }\n\n    struct Block {\n        uint256 proposerId;\n        uint256 median;\n        uint256 iteration;\n        uint256 biggestStake;\n    }\n\n    struct Dispute {\n        uint256 accWeight;\n        uint256 median;\n        uint256 lastVisited;\n    }\n\n    mapping (address => uint256) public nodeIds;\n    mapping (uint256 => Node) public nodes;\n    mapping (uint256 => mapping (uint256 => bytes32)) public commitments;\n    mapping (uint256 => mapping (uint256 => Vote)) public votes;\n    mapping (uint256 => uint256) public totalStakeRevealed;\n    mapping (uint256 => Block) public blocks;\n\n    mapping (uint256 => mapping (uint256 => uint256)) public voteWeights;\n\n    mapping(uint256 => mapping(address => Dispute)) public disputes;\n    address public schAddress;\n\n    uint256 public numNodes = 0;\n    uint256 public totalStake = 0;\n\n    struct Constants {\n        uint8 COMMIT;\n        uint8 REVEAL;\n        uint8 PROPOSE;\n        uint8 DISPUTE;\n        uint256 PENALTY_NOT_REVEAL_NUM;\n        uint256 PENALTY_NOT_REVEAL_DENOM;\n        uint256 PENALTY_NOT_IN_ZONE_NUM;\n        uint256 PENALTY_NOT_IN_ZONE_DENOM;\n        uint256 MIN_STAKE;\n        uint256 BLOCK_REWARD;\n        uint256 REVEAL_REWARD;\n        uint256 SAFETY_MARGIN_LOWER;\n        // uint256 SAFETY_MARGIN_UPPER;\n        uint256 UNSTAKE_LOCK_PERIOD;\n        uint256 WITHDRAW_LOCK_PERIOD;\n    }\n\n    uint256 public EPOCH;\n    uint256 public STATE;\n    uint256 public rewardPool = 0;\n    uint256 public stakeGettingReward = 0;\n\n    Constants public c = Constants(0, 1, 2, 3, 95, 100, 99, 100, 1000, 5, 5, 99, 1, 1);\n\n    constructor (address _schAddress) public {\n        schAddress = _schAddress;\n    }\n\n    modifier checkEpoch (uint256 epoch) {\n        require(epoch == getEpoch(), \"incorrect epoch\");\n        _;\n    }\n\n    modifier checkState (uint8 state) {\n        require(state == getState(), \"incorrect state\");\n        _;\n    }\n\n    event Staked(uint256 nodeId, uint256 amount);\n\n    // stake during commit state only\n    // we check epoch during every transaction to avoid withholding and rebroadcasting attacks\n    function stake (uint256 epoch, uint256 amount) public checkEpoch(epoch) checkState(c.COMMIT) {\n        SimpleToken sch = SimpleToken(schAddress);\n         //not allowed during reveal period\n        //require(getState() != c.REVEAL);\n        require(amount >= c.MIN_STAKE, \"staked amount is less than minimum stake required\");\n        require(sch.transferFrom(msg.sender, address(this), amount), \"sch transfer failed\");\n        uint256 nodeId = nodeIds[msg.sender];\n        if (nodeId == 0) {\n            numNodes = numNodes.add(1);\n            nodes[numNodes] = Node(numNodes, amount, epoch, 0, 0, epoch.add(c.UNSTAKE_LOCK_PERIOD), 0);\n            nodeId = numNodes;\n            nodeIds[msg.sender] = nodeId;\n        } else {\n            require(nodes[nodeId].stake > 0,\n                    \"adding stake is not possible after withdrawal/slash. Please use a new address\");\n            nodes[nodeId].stake = nodes[nodeId].stake.add(amount);\n        }\n        totalStake = totalStake.add(amount);\n        emit Staked(nodeId, amount);\n    }\n\n    event Unstaked(uint256 nodeId);\n\n    // staker must call unstake() and continue voting for c.WITHDRAW_LOCK_PERIOD\n    //after which she can call withdraw() to finally Withdraw\n    function unstake (uint256 epoch) public checkEpoch(epoch) {\n        // require(getState()!= 1); //not allowed during reveal period\n        uint256 nodeId = nodeIds[msg.sender];\n        Node storage node = nodes[nodeId];\n        require(node.id != 0);\n        require(node.stake > 0, \"Nonpositive stake\");\n        require(node.unstakeAfter <= epoch && node.unstakeAfter != 0);\n        node.unstakeAfter = 0;\n        node.withdrawAfter = epoch.add(c.WITHDRAW_LOCK_PERIOD);\n        emit Unstaked(nodeId);\n    }\n\n    event Withdrew(uint256 nodeId, uint256 amount);\n\n    function withdraw (uint256 epoch) public checkEpoch(epoch) checkState(c.COMMIT) {\n        uint256 nodeId = nodeIds[msg.sender];\n        Node storage node = nodes[nodeId];\n        require(node.id != 0, \"node doesnt exist\");\n        require(node.epochLastRevealed == epoch.sub(1), \"Didnt reveal in last epoch\");\n        require(node.unstakeAfter == 0, \"Did not unstake\");\n        require((node.withdrawAfter <= epoch) && node.withdrawAfter != 0, \"Withdraw epoch not reached\");\n        require(commitments[epoch][nodeId] == 0x0, \"already commited this epoch. Cant withdraw\");\n        givePenalties(node, epoch);\n        require(node.stake > 0, \"Nonpositive Stake\");\n        SimpleToken sch = SimpleToken(schAddress);\n        totalStake = totalStake.sub(nodes[nodeId].stake);\n        nodes[nodeId].stake = 0;\n        emit Withdrew(nodeId, nodes[nodeId].stake);\n        require(sch.transfer(msg.sender, nodes[nodeId].stake));\n    }\n\n    event Committed(uint256 nodeId, bytes32 commitment);\n\n    event Y(uint256 y);\n    // what was the eth/usd rate at the beginning of this epoch?\n    function commit (uint256 epoch, bytes32 commitment) public checkEpoch(epoch) checkState(c.COMMIT) {\n        uint256 nodeId = nodeIds[msg.sender];\n        require(commitments[epoch][nodeId] == 0x0, \"already commited\");\n        Node storage thisStaker = nodes[nodeId];\n        uint256 y = givePenalties(thisStaker, epoch);\n        // emit Y(y);\n        if(thisStaker.stake >= c.MIN_STAKE){\n            commitments[epoch][nodeId] = commitment;\n            thisStaker.epochLastCommitted = epoch;\n            emit Committed(nodeId, commitment);\n      }\n    }\n\n    event Revealed(uint256 nodeId, uint256 value);\n\n    function reveal (uint256 epoch, uint256 value, bytes32 secret, address stakerAddress)\n    public\n    checkEpoch(epoch) {\n        uint256 thisNodeId = nodeIds[stakerAddress];\n        require(thisNodeId > 0, \"Node does not exist\");\n        Node storage thisStaker = nodes[thisNodeId];\n        require(commitments[epoch][thisNodeId] != 0x0, \"not commited or already revealed\");\n        require(value > 0, \"voted non positive value\");\n        require(keccak256(abi.encodePacked(epoch, value, secret)) == commitments[epoch][thisNodeId],\n                \"incorrect secret/value\");\n        emit Revealed(thisNodeId, value);\n        //if revealing self\n        if (msg.sender == stakerAddress) {\n            require(getState() == c.REVEAL, \"Not reveal state\");\n            require(thisStaker.stake > 0, \"nonpositive stake\");\n            giveRewards(thisStaker, epoch);\n            votes[epoch][thisNodeId] = Vote(value, thisStaker.stake);\n            commitments[epoch][thisNodeId] = 0x0;\n            totalStakeRevealed[epoch] = totalStakeRevealed[epoch].add(thisStaker.stake);\n            voteWeights[epoch][value] = voteWeights[epoch][value].add(thisStaker.stake);\n            thisStaker.epochLastRevealed = epoch;\n        } else {\n            //bounty hunter revealing someone else's secret in commit state\n            require(getState() == c.COMMIT, \"Not commit state\");\n            commitments[epoch][thisNodeId] = 0x0;\n            slash(thisNodeId, msg.sender);\n        }\n    }\n\n    function isElectedProposer(uint256 iteration, uint256 biggestStakerId, uint256 nodeId) public view returns(bool) {\n        // rand = 0 -> totalStake-1\n        //add +1 since prng returns 0 to max-1 and node start from 1\n        if ((prng(10, numNodes, keccak256(abi.encode(iteration))).add(1)) != nodeId) return(false);\n        bytes32 randHash = prngHash(10, keccak256(abi.encode(nodeId, iteration)));\n        uint256 rand = uint256(randHash).mod(2**32);\n        uint256 biggestStake = nodes[biggestStakerId].stake;\n        if (rand.mul(biggestStake) > nodes[nodeId].stake.mul(2**32)) return(false);\n        return(true);\n    }\n\n    event Proposed(uint256 epoch,\n                    uint256 median,\n                    uint256 iteration,\n                    uint256 biggestStakerId);\n\n    // elected proposer proposes block. we use a probabilistic method to elect stakers weighted by stake\n    // protocol works like this. select a staker pseudorandomly (not weighted by anything)\n    // (todo what if it is below min stake)\n    // that staker then tosses a biased coin. bias = hisStake/biggestStake. if its heads, he can propose block\n    // end of iteration. try next iteration\n    // note that only one staker or no stakers selected in each iteration.\n    // stakers elected in higher iterations can also propose hoping that\n    // stakers with lower iteration do not propose for some reason\n    function propose (uint256 epoch,\n                    uint256 median,\n                    uint256 iteration,\n                    uint256 biggestStakerId) public checkEpoch(epoch) checkState(c.PROPOSE) {\n        uint256 proposerId = nodeIds[msg.sender];\n        SimpleToken sch = SimpleToken(schAddress);\n        require(isElectedProposer(iteration, biggestStakerId, proposerId), \"not elected\");\n        require(nodes[proposerId].stake >= c.MIN_STAKE, \"stake below minimum stake\");\n\n        //check if someone already proposed\n        if (blocks[epoch].proposerId != 0) {\n            if (nodes[biggestStakerId].stake == blocks[epoch].biggestStake) {\n                require(blocks[epoch].iteration > iteration, \"iteration not bigger than existing elected staker\");\n            } else if (nodes[biggestStakerId].stake < blocks[epoch].biggestStake) {\n                revert(\"biggest stakers stake not bigger than as proposed by existing elected staker \");\n            }\n        }\n        //median can be zero if no one committed\n        // require(median > 0);\n        blocks[epoch] = Block(proposerId,\n                                median,\n                                iteration,\n                                nodes[biggestStakerId].stake);\n        if (c.BLOCK_REWARD > 0) {\n            nodes[proposerId].stake = nodes[proposerId].stake.add(c.BLOCK_REWARD);\n            totalStake = totalStake.add(c.BLOCK_REWARD);\n            require(sch.mint(address(this), c.BLOCK_REWARD));\n        }\n        emit Proposed(epoch, median, iteration, biggestStakerId);\n    }\n\n    //anyone can give sorted votes in batches in dispute state\n    function giveSorted (uint256 epoch, uint256[] memory sorted) public checkEpoch(epoch) checkState(c.DISPUTE) {\n        uint256 medianWeight = totalStakeRevealed[epoch].div(2);\n        //accWeight = accumulatedWeight\n        uint256 accWeight = disputes[epoch][msg.sender].accWeight;\n        uint256 lastVisited = disputes[epoch][msg.sender].lastVisited;\n        for (uint256 i = 0; i < sorted.length; i++) {\n            require(sorted[i] > lastVisited, \"sorted[i] is not greater than lastVisited\");\n            lastVisited = sorted[i];\n            accWeight = accWeight.add(voteWeights[epoch][sorted[i]]);\n            //set  median, if conditions meet\n            if (disputes[epoch][msg.sender].median == 0 && accWeight > medianWeight) {\n                disputes[epoch][msg.sender].median = sorted[i];\n            }\n            //TODO verify how much gas required for below operations and update this value\n            if (gasleft() < 10000) break;\n        }\n        disputes[epoch][msg.sender].lastVisited = lastVisited;\n        disputes[epoch][msg.sender].accWeight = accWeight;\n    }\n\n    //todo test\n    //if any mistake made during giveSorted, resetDispute and start again\n    function resetDispute (uint256 epoch) public checkEpoch(epoch) checkState(c.DISPUTE) {\n        disputes[epoch][msg.sender] = Dispute(0, 0, 0);\n    }\n\n    //propose alternate block in dispute phase\n    //if no one votes, skip giveSorted and proposeAlt directly.\n    function proposeAlt (uint256 epoch) public checkEpoch(epoch) checkState(c.DISPUTE) {\n        require(disputes[epoch][msg.sender].accWeight == totalStakeRevealed[epoch]);\n        uint256 median = disputes[epoch][msg.sender].median;\n        uint256 bountyHunterId = nodeIds[msg.sender];\n        uint256 proposerId = blocks[epoch].proposerId;\n\n        require(median > 0);\n        if (blocks[epoch].median != median) {\n            blocks[epoch] = Block(bountyHunterId, median,\n                                    0, 0);\n            emit Proposed(epoch, median, 0, 0);\n            slash(proposerId, msg.sender);\n        } else {\n            revert(\"Proposed Alternate block as identical to proposed block\");\n        }\n    }\n\n    function getEpoch () public view returns(uint256) {\n        // return(EPOCH);\n        return(block.number.div(80));//.add(1));\n    }\n\n    function getState () public view returns(uint256) {\n        // return (STATE);\n        uint256 state = (block.number.div(20));\n\n        return (state.mod(4));\n    }\n\n    // pseudo random number generator based on block hashes. returns 0 -> max-1\n    function prng (uint8 numBlocks, uint256 max, bytes32 seed) public view returns (uint256) {\n        bytes32 hashh = prngHash(numBlocks, seed);\n        uint256 sum = uint256(hashh);\n        return(sum.mod(max));\n    }\n\n    // pseudo random hash generator based on block hashes.\n    function prngHash (uint8 numBlocks, bytes32 seed) public view returns(bytes32) {\n        bytes32 sum;\n        uint256 blockNumberEpochStart = (block.number.div(16)).mul(16);\n        for (uint8 i = 1; i <= numBlocks; i++) {\n            sum = keccak256(abi.encodePacked(sum, blockhash(blockNumberEpochStart.sub(i))));\n        }\n        sum = keccak256(abi.encodePacked(sum, seed));\n        return(sum);\n    }\n\n    // WARNING TODO FOR TESTING ONLY. REMOVE IN PROD\n    function setEpoch (uint256 epoch) public { EPOCH = epoch;}\n\n    function setState (uint256 state) public { STATE = state;}\n\n    // dummy function to forcibly increase block number in ganache\n    function dum () public {true;}\n    // END TESTING FUNCTIONS\n\n    // internal functions vvvvvvvv\n    //executed in state 0\n    function givePenalties (Node storage thisStaker, uint256 epoch) internal returns(uint256){\n        if (epoch > 1) {\n            uint256 epochLastActive = thisStaker.epochStaked < thisStaker.epochLastRevealed ?\n                                    thisStaker.epochLastRevealed :\n                                    thisStaker.epochStaked;\n            // penalize or reward if last active more than epoch - 1\n            uint256 penalizeEpochs = epoch.sub(epochLastActive).sub(1);\n            uint256 epochLastRevealed = thisStaker.epochLastRevealed;\n            uint256 previousStake = thisStaker.stake;\n            // thisStaker.stake = (thisStaker.stake.mul(c.PENALTY_NOT_REVEAL_NUM**(penalizeEpochs))).div(\n            // c.PENALTY_NOT_REVEAL_DENOM**(penalizeEpochs));\n\n            uint256 medianLastEpoch = blocks[epochLastRevealed].median;\n            uint256 voteLastEpoch = votes[epochLastRevealed][thisStaker.id].value;\n            if(medianLastEpoch > 0 && voteLastEpoch > 0) {\n              // //penalty for out of zone for in zone\n              // // (y= ((M - x)^2/M^2))- 0.0001\n              // // (10000((M-x)(M-x)/M*M) - 1)/10000\n              //for M = 160, x = 10\n              //\n              // uint256 y =  ((((medianLastEpoch.sub(voteLastEpoch)).mul(medianLastEpoch.sub(\n              //             voteLastEpoch))).div(medianLastEpoch.mul(medianLastEpoch))).mul(\n              //             uint256(10000)));\n              uint256 stakeBefore = thisStaker.stake;\n              // should probably simplify this curve to a linear curve\n              // cut stake by 100% if vote is 0 or >2*M where M is weighted median\n              uint256 y = (10000*(medianLastEpoch*medianLastEpoch + voteLastEpoch*voteLastEpoch\n                         -2*medianLastEpoch*voteLastEpoch))/(\n                           medianLastEpoch*medianLastEpoch);\n              if(voteLastEpoch > (2*medianLastEpoch)) {\n                 thisStaker.stake = 0;\n                 rewardPool = rewardPool.add(stakeBefore);\n              } else if (voteLastEpoch > 0 &&\n                  (voteLastEpoch < (medianLastEpoch.mul(c.SAFETY_MARGIN_LOWER)).div(uint256(100)) ||\n                  voteLastEpoch > (medianLastEpoch.mul(uint256(200).sub(\n                                      c.SAFETY_MARGIN_LOWER))).div(uint256(100)))) {\n                                        // return(y);\n                  //stake = y*stake\n                  // thisStaker.stake = ((y.sub(uint256(1))).mul(thisStaker.stake)).div(uint256(10000));\n                  // thisStaker.stake = thisStaker.stake.sub(((y.sub(uint256(1))).mul(thisStaker.stake)).div(uint256(10000)));\n                  // thisStaker.stake = stakeBefore-(((y-1)*stakeBefore)/10000);\n\n                  thisStaker.stake = stakeBefore - (((y-1)*stakeBefore)/10000);\n\n                  rewardPool = rewardPool.add(previousStake.sub(thisStaker.stake));\n              } else {\n                // reward += stake*(0.0001-y)\n                // = stake*(1-10000y)/10000\n                // = stake*()\n                  // stakeGettingReward = stakeGettingReward.add((thisStaker.stake.mul(\n                  //                     uint256(1).sub(uint256(10000).mul(y)))).div(10000));\n                  stakeGettingReward = stakeGettingReward + stakeBefore*(1 - y);\n              }\n          }\n      }\n    }\n\n    //executed in state 1\n    function giveRewards (Node storage thisStaker, uint256 epoch) internal {\n        if (epoch > 1 && stakeGettingReward > 0) {\n          uint256 epochLastRevealed = thisStaker.epochLastRevealed;\n          uint256 voteLastEpoch = votes[epochLastRevealed][thisStaker.id].value;\n          uint256 medianLastEpoch = blocks[epochLastRevealed].median;\n\n        //rewardpool*stake*multiplier/stakeGettingReward\n            // uint256 y =  ((((medianLastEpoch.sub(voteLastEpoch)).mul(medianLastEpoch.sub(\n            //         voteLastEpoch))).div(medianLastEpoch.mul(medianLastEpoch))).mul(\n            //         uint256(10000)));\n            thisStaker.stake = thisStaker.stake + (thisStaker.stake*rewardPool)/stakeGettingReward;\n        }\n    }\n\n    function slash (uint256 id, address bountyHunter) internal {\n        SimpleToken sch = SimpleToken(schAddress);\n        uint256 halfStake = nodes[id].stake.div(2);\n        nodes[id].stake = 0;\n        if (halfStake > 1) {\n            totalStake = totalStake.sub(halfStake);\n            require(sch.transfer(bountyHunter, halfStake), \"failed to transfer bounty\");\n        }\n    }\n    // function stakeTransfer(uint256 fromId, address to, uint256 amount) internal{\n    //     // uint256 fromId = nodeIds[from];\n    //     require(fromId!=0);\n    //     require(nodes[fromId].stake >= amount);\n    //     uint256 toId = nodeIds[to];\n    //     nodes[fromId].stake = nodes[fromId].stake - amount;\n    //     if (toId == 0) {\n    //         numNodes = numNodes + 1;\n    //         nodes[numNodes] = Node(numNodes, amount, 0, 0, 0);\n    //         nodeIds[to] = numNodes;\n    //     } else {\n    //         nodes[toId].stake = nodes[toId].stake + amount;\n    //     }\n    // }\n\n}\n",
  "sourcePath": "/home/hrishi/contracts/contracts/Schelling2.sol",
  "compiler": {
    "name": "solc",
    "version": "0.5.7+commit.6da8b019.Emscripten.clang"
  },
  "schemaVersion": "3.0.6",
  "updatedAt": "2019-06-26T17:45:32.078Z",
  "devdoc": {
    "methods": {}
  },
  "userdoc": {
    "methods": {}
  }
}