{
  "contractName": "Schelling",
  "abi": [
    {
      "constant": true,
      "inputs": [
        {
          "name": "",
          "type": "uint256"
        }
      ],
      "name": "nodes",
      "outputs": [
        {
          "name": "id",
          "type": "uint256"
        },
        {
          "name": "stake",
          "type": "uint256"
        },
        {
          "name": "epochStaked",
          "type": "uint256"
        },
        {
          "name": "epochLastCommitted",
          "type": "uint256"
        },
        {
          "name": "epochLastRevealed",
          "type": "uint256"
        },
        {
          "name": "unstakeAfter",
          "type": "uint256"
        },
        {
          "name": "withdrawAfter",
          "type": "uint256"
        }
      ],
      "payable": false,
      "stateMutability": "view",
      "type": "function"
    },
    {
      "constant": true,
      "inputs": [
        {
          "name": "",
          "type": "address"
        }
      ],
      "name": "nodeIds",
      "outputs": [
        {
          "name": "",
          "type": "uint256"
        }
      ],
      "payable": false,
      "stateMutability": "view",
      "type": "function"
    },
    {
      "constant": true,
      "inputs": [
        {
          "name": "",
          "type": "uint256"
        },
        {
          "name": "",
          "type": "address"
        }
      ],
      "name": "disputes",
      "outputs": [
        {
          "name": "accWeight",
          "type": "uint256"
        },
        {
          "name": "twoFive",
          "type": "uint256"
        },
        {
          "name": "sevenFive",
          "type": "uint256"
        },
        {
          "name": "median",
          "type": "uint256"
        },
        {
          "name": "lastVisited",
          "type": "uint256"
        },
        {
          "name": "stakeGettingReward",
          "type": "uint256"
        },
        {
          "name": "stakeGettingPenalty",
          "type": "uint256"
        }
      ],
      "payable": false,
      "stateMutability": "view",
      "type": "function"
    },
    {
      "constant": true,
      "inputs": [],
      "name": "totalStake",
      "outputs": [
        {
          "name": "",
          "type": "uint256"
        }
      ],
      "payable": false,
      "stateMutability": "view",
      "type": "function"
    },
    {
      "constant": true,
      "inputs": [],
      "name": "schAddress",
      "outputs": [
        {
          "name": "",
          "type": "address"
        }
      ],
      "payable": false,
      "stateMutability": "view",
      "type": "function"
    },
    {
      "constant": true,
      "inputs": [
        {
          "name": "",
          "type": "uint256"
        },
        {
          "name": "",
          "type": "uint256"
        }
      ],
      "name": "voteWeights",
      "outputs": [
        {
          "name": "",
          "type": "uint256"
        }
      ],
      "payable": false,
      "stateMutability": "view",
      "type": "function"
    },
    {
      "constant": true,
      "inputs": [],
      "name": "numNodes",
      "outputs": [
        {
          "name": "",
          "type": "uint256"
        }
      ],
      "payable": false,
      "stateMutability": "view",
      "type": "function"
    },
    {
      "constant": true,
      "inputs": [
        {
          "name": "",
          "type": "uint256"
        }
      ],
      "name": "totalStakeRevealed",
      "outputs": [
        {
          "name": "",
          "type": "uint256"
        }
      ],
      "payable": false,
      "stateMutability": "view",
      "type": "function"
    },
    {
      "constant": true,
      "inputs": [],
      "name": "c",
      "outputs": [
        {
          "name": "COMMIT",
          "type": "uint8"
        },
        {
          "name": "REVEAL",
          "type": "uint8"
        },
        {
          "name": "PROPOSE",
          "type": "uint8"
        },
        {
          "name": "DISPUTE",
          "type": "uint8"
        },
        {
          "name": "PENALTY_NOT_REVEAL_NUM",
          "type": "uint256"
        },
        {
          "name": "PENALTY_NOT_REVEAL_DENOM",
          "type": "uint256"
        },
        {
          "name": "PENALTY_NOT_IN_ZONE_NUM",
          "type": "uint256"
        },
        {
          "name": "PENALTY_NOT_IN_ZONE_DENOM",
          "type": "uint256"
        },
        {
          "name": "MIN_STAKE",
          "type": "uint256"
        },
        {
          "name": "BLOCK_REWARD",
          "type": "uint256"
        },
        {
          "name": "REVEAL_REWARD",
          "type": "uint256"
        },
        {
          "name": "SAFETY_MARGIN_LOWER",
          "type": "uint256"
        },
        {
          "name": "UNSTAKE_LOCK_PERIOD",
          "type": "uint256"
        },
        {
          "name": "WITHDRAW_LOCK_PERIOD",
          "type": "uint256"
        }
      ],
      "payable": false,
      "stateMutability": "view",
      "type": "function"
    },
    {
      "constant": true,
      "inputs": [
        {
          "name": "",
          "type": "uint256"
        },
        {
          "name": "",
          "type": "uint256"
        }
      ],
      "name": "votes",
      "outputs": [
        {
          "name": "value",
          "type": "uint256"
        },
        {
          "name": "weight",
          "type": "uint256"
        }
      ],
      "payable": false,
      "stateMutability": "view",
      "type": "function"
    },
    {
      "constant": true,
      "inputs": [
        {
          "name": "",
          "type": "uint256"
        },
        {
          "name": "",
          "type": "uint256"
        }
      ],
      "name": "commitments",
      "outputs": [
        {
          "name": "",
          "type": "bytes32"
        }
      ],
      "payable": false,
      "stateMutability": "view",
      "type": "function"
    },
    {
      "constant": true,
      "inputs": [
        {
          "name": "",
          "type": "uint256"
        }
      ],
      "name": "blocks",
      "outputs": [
        {
          "name": "proposerId",
          "type": "uint256"
        },
        {
          "name": "median",
          "type": "uint256"
        },
        {
          "name": "twoFive",
          "type": "uint256"
        },
        {
          "name": "sevenFive",
          "type": "uint256"
        },
        {
          "name": "stakeGettingReward",
          "type": "uint256"
        },
        {
          "name": "stakeGettingPenalty",
          "type": "uint256"
        },
        {
          "name": "iteration",
          "type": "uint256"
        },
        {
          "name": "biggestStake",
          "type": "uint256"
        }
      ],
      "payable": false,
      "stateMutability": "view",
      "type": "function"
    },
    {
      "inputs": [
        {
          "name": "_schAddress",
          "type": "address"
        }
      ],
      "payable": false,
      "stateMutability": "nonpayable",
      "type": "constructor"
    },
    {
      "anonymous": false,
      "inputs": [
        {
          "indexed": false,
          "name": "nodeId",
          "type": "uint256"
        },
        {
          "indexed": false,
          "name": "amount",
          "type": "uint256"
        }
      ],
      "name": "Staked",
      "type": "event"
    },
    {
      "anonymous": false,
      "inputs": [
        {
          "indexed": false,
          "name": "nodeId",
          "type": "uint256"
        }
      ],
      "name": "Unstaked",
      "type": "event"
    },
    {
      "anonymous": false,
      "inputs": [
        {
          "indexed": false,
          "name": "nodeId",
          "type": "uint256"
        }
      ],
      "name": "Withdrew",
      "type": "event"
    },
    {
      "anonymous": false,
      "inputs": [
        {
          "indexed": false,
          "name": "nodeId",
          "type": "uint256"
        },
        {
          "indexed": false,
          "name": "commitment",
          "type": "bytes32"
        }
      ],
      "name": "Committed",
      "type": "event"
    },
    {
      "anonymous": false,
      "inputs": [
        {
          "indexed": false,
          "name": "nodeId",
          "type": "uint256"
        },
        {
          "indexed": false,
          "name": "value",
          "type": "uint256"
        }
      ],
      "name": "Revealed",
      "type": "event"
    },
    {
      "anonymous": false,
      "inputs": [
        {
          "indexed": false,
          "name": "epoch",
          "type": "uint256"
        },
        {
          "indexed": false,
          "name": "median",
          "type": "uint256"
        },
        {
          "indexed": false,
          "name": "twoFive",
          "type": "uint256"
        },
        {
          "indexed": false,
          "name": "sevenFive",
          "type": "uint256"
        },
        {
          "indexed": false,
          "name": "stakeGettingPenalty",
          "type": "uint256"
        },
        {
          "indexed": false,
          "name": "stakeGettingReward",
          "type": "uint256"
        },
        {
          "indexed": false,
          "name": "iteration",
          "type": "uint256"
        },
        {
          "indexed": false,
          "name": "biggestStakerId",
          "type": "uint256"
        }
      ],
      "name": "Proposed",
      "type": "event"
    },
    {
      "constant": false,
      "inputs": [
        {
          "name": "epoch",
          "type": "uint256"
        },
        {
          "name": "amount",
          "type": "uint256"
        }
      ],
      "name": "stake",
      "outputs": [],
      "payable": false,
      "stateMutability": "nonpayable",
      "type": "function"
    },
    {
      "constant": false,
      "inputs": [
        {
          "name": "epoch",
          "type": "uint256"
        }
      ],
      "name": "unstake",
      "outputs": [],
      "payable": false,
      "stateMutability": "nonpayable",
      "type": "function"
    },
    {
      "constant": false,
      "inputs": [
        {
          "name": "epoch",
          "type": "uint256"
        }
      ],
      "name": "withdraw",
      "outputs": [],
      "payable": false,
      "stateMutability": "nonpayable",
      "type": "function"
    },
    {
      "constant": false,
      "inputs": [
        {
          "name": "epoch",
          "type": "uint256"
        },
        {
          "name": "commitment",
          "type": "bytes32"
        }
      ],
      "name": "commit",
      "outputs": [],
      "payable": false,
      "stateMutability": "nonpayable",
      "type": "function"
    },
    {
      "constant": false,
      "inputs": [
        {
          "name": "epoch",
          "type": "uint256"
        },
        {
          "name": "value",
          "type": "uint256"
        },
        {
          "name": "secret",
          "type": "bytes32"
        },
        {
          "name": "stakerAddress",
          "type": "address"
        }
      ],
      "name": "reveal",
      "outputs": [],
      "payable": false,
      "stateMutability": "nonpayable",
      "type": "function"
    },
    {
      "constant": true,
      "inputs": [
        {
          "name": "iteration",
          "type": "uint256"
        },
        {
          "name": "biggestStakerId",
          "type": "uint256"
        },
        {
          "name": "nodeId",
          "type": "uint256"
        }
      ],
      "name": "isElectedProposer",
      "outputs": [
        {
          "name": "",
          "type": "bool"
        }
      ],
      "payable": false,
      "stateMutability": "view",
      "type": "function"
    },
    {
      "constant": false,
      "inputs": [
        {
          "name": "epoch",
          "type": "uint256"
        },
        {
          "name": "median",
          "type": "uint256"
        },
        {
          "name": "twoFive",
          "type": "uint256"
        },
        {
          "name": "sevenFive",
          "type": "uint256"
        },
        {
          "name": "stakeGettingPenalty",
          "type": "uint256"
        },
        {
          "name": "stakeGettingReward",
          "type": "uint256"
        },
        {
          "name": "iteration",
          "type": "uint256"
        },
        {
          "name": "biggestStakerId",
          "type": "uint256"
        }
      ],
      "name": "propose",
      "outputs": [],
      "payable": false,
      "stateMutability": "nonpayable",
      "type": "function"
    },
    {
      "constant": false,
      "inputs": [
        {
          "name": "epoch",
          "type": "uint256"
        },
        {
          "name": "sorted",
          "type": "uint256[]"
        }
      ],
      "name": "giveSorted",
      "outputs": [],
      "payable": false,
      "stateMutability": "nonpayable",
      "type": "function"
    },
    {
      "constant": false,
      "inputs": [
        {
          "name": "epoch",
          "type": "uint256"
        }
      ],
      "name": "resetDispute",
      "outputs": [],
      "payable": false,
      "stateMutability": "nonpayable",
      "type": "function"
    },
    {
      "constant": false,
      "inputs": [
        {
          "name": "epoch",
          "type": "uint256"
        }
      ],
      "name": "proposeAlt",
      "outputs": [],
      "payable": false,
      "stateMutability": "nonpayable",
      "type": "function"
    },
    {
      "constant": true,
      "inputs": [],
      "name": "getEpoch",
      "outputs": [
        {
          "name": "",
          "type": "uint256"
        }
      ],
      "payable": false,
      "stateMutability": "view",
      "type": "function"
    },
    {
      "constant": true,
      "inputs": [],
      "name": "getState",
      "outputs": [
        {
          "name": "",
          "type": "uint256"
        }
      ],
      "payable": false,
      "stateMutability": "view",
      "type": "function"
    },
    {
      "constant": true,
      "inputs": [
        {
          "name": "numBlocks",
          "type": "uint8"
        },
        {
          "name": "max",
          "type": "uint256"
        },
        {
          "name": "seed",
          "type": "bytes32"
        }
      ],
      "name": "prng",
      "outputs": [
        {
          "name": "",
          "type": "uint256"
        }
      ],
      "payable": false,
      "stateMutability": "view",
      "type": "function"
    },
    {
      "constant": true,
      "inputs": [
        {
          "name": "numBlocks",
          "type": "uint8"
        },
        {
          "name": "seed",
          "type": "bytes32"
        }
      ],
      "name": "prngHash",
      "outputs": [
        {
          "name": "",
          "type": "bytes32"
        }
      ],
      "payable": false,
      "stateMutability": "view",
      "type": "function"
    },
    {
      "constant": false,
      "inputs": [
        {
          "name": "epoch",
          "type": "uint256"
        }
      ],
      "name": "setEpoch",
      "outputs": [],
      "payable": false,
      "stateMutability": "nonpayable",
      "type": "function"
    },
    {
      "constant": false,
      "inputs": [
        {
          "name": "state",
          "type": "uint256"
        }
      ],
      "name": "setState",
      "outputs": [],
      "payable": false,
      "stateMutability": "nonpayable",
      "type": "function"
    },
    {
      "constant": false,
      "inputs": [],
      "name": "dum",
      "outputs": [],
      "payable": false,
      "stateMutability": "nonpayable",
      "type": "function"
    }
  ],
  "bytecode": "0x608060405260006009556000600a55604051806101c00160405280600060ff168152602001600160ff168152602001600260ff168152602001600360ff168152602001605f81526020016064815260200160638152602001606481526020016103e88152602001600581526020016005815260200160638152602001600181526020016001815250600d60008201518160000160006101000a81548160ff021916908360ff16021790555060208201518160000160016101000a81548160ff021916908360ff16021790555060408201518160000160026101000a81548160ff021916908360ff16021790555060608201518160000160036101000a81548160ff021916908360ff1602179055506080820151816001015560a0820151816002015560c0820151816003015560e08201518160040155610100820151816005015561012082015181600601556101408201518160070155610160820151816008015561018082015181600901556101a082015181600a0155505034801561018557600080fd5b5060405160208062004953833981018060405260208110156101a657600080fd5b810190808051906020019092919050505080600860006101000a81548173ffffffffffffffffffffffffffffffffffffffff021916908373ffffffffffffffffffffffffffffffffffffffff1602179055505061474a80620002096000396000f3fe608060405234801561001057600080fd5b50600436106101cf5760003560e01c80637b0472f011610104578063ab45c6b5116100a2578063c6e36a3211610071578063c6e36a32146108f6578063d13e2e6014610949578063f25b3f9914610995578063f2f0387714610a08576101cf565b8063ab45c6b514610712578063ab944638146107d4578063b07ceab814610816578063c3da42b814610865576101cf565b80638d0e52c0116100de5780638d0e52c0146106305780638f37d0b41461067a57806394ca304b146106c6578063a9e966b7146106e4576101cf565b80637b0472f01461054e578063828496d6146105865780638b0e9f3f14610612576101cf565b80632e1a7d4d116101715780635ce8772f1161014b5780635ce8772f146104965780636aadffa8146104c45780636bf844e914610526578063757991a814610530576101cf565b80632e1a7d4d1461039a5780635075dbfb146103c85780635793f62414610421576101cf565b80631d69ff9b116101ad5780631d69ff9b1461028c5780631e8fcfe5146102e65780632b3c9efd146103145780632e17de781461036c576101cf565b80630ceb2cef146101d45780631865c57d146102025780631c53c28014610220575b600080fd5b610200600480360360208110156101ea57600080fd5b8101908080359060200190929190505050610a40565b005b61020a610a4a565b6040518082815260200191505060405180910390f35b61024c6004803603602081101561023657600080fd5b8101908080359060200190929190505050610a54565b6040518088815260200187815260200186815260200185815260200184815260200183815260200182815260200197505050505050505060405180910390f35b6102cc600480360360608110156102a257600080fd5b81019080803590602001909291908035906020019092919080359060200190929190505050610a96565b604051808215151515815260200191505060405180910390f35b610312600480360360208110156102fc57600080fd5b8101908080359060200190929190505050610bc7565b005b6103566004803603602081101561032a57600080fd5b81019080803573ffffffffffffffffffffffffffffffffffffffff1690602001909291905050506111a7565b6040518082815260200191505060405180910390f35b6103986004803603602081101561038257600080fd5b81019080803590602001909291905050506111bf565b005b6103c6600480360360208110156103b057600080fd5b81019080803590602001909291905050506113ab565b005b61040b600480360360608110156103de57600080fd5b81019080803560ff16906020019092919080359060200190929190803590602001909291905050506119b3565b6040518082815260200191505060405180910390f35b610494600480360361010081101561043857600080fd5b8101908080359060200190929190803590602001909291908035906020019092919080359060200190929190803590602001909291908035906020019092919080359060200190929190803590602001909291905050506119e8565b005b6104c2600480360360208110156104ac57600080fd5b810190808035906020019092919050505061206d565b005b610524600480360360808110156104da57600080fd5b81019080803590602001909291908035906020019092919080359060200190929190803573ffffffffffffffffffffffffffffffffffffffff169060200190929190505050612254565b005b61052e61290e565b005b610538612910565b6040518082815260200191505060405180910390f35b6105846004803603604081101561056457600080fd5b81019080803590602001909291908035906020019092919050505061291a565b005b6105d26004803603604081101561059c57600080fd5b8101908080359060200190929190803573ffffffffffffffffffffffffffffffffffffffff169060200190929190505050612eb6565b6040518088815260200187815260200186815260200185815260200184815260200183815260200182815260200197505050505050505060405180910390f35b61061a612f05565b6040518082815260200191505060405180910390f35b610638612f0b565b604051808273ffffffffffffffffffffffffffffffffffffffff1673ffffffffffffffffffffffffffffffffffffffff16815260200191505060405180910390f35b6106b06004803603604081101561069057600080fd5b810190808035906020019092919080359060200190929190505050612f31565b6040518082815260200191505060405180910390f35b6106ce612f56565b6040518082815260200191505060405180910390f35b610710600480360360208110156106fa57600080fd5b8101908080359060200190929190505050612f5c565b005b6107d26004803603604081101561072857600080fd5b81019080803590602001909291908035906020019064010000000081111561074f57600080fd5b82018360208201111561076157600080fd5b8035906020019184602083028401116401000000008311171561078357600080fd5b919080806020026020016040519081016040528093929190818152602001838360200280828437600081840152601f19601f820116905080830192505050505050509192919290505050612f66565b005b610800600480360360208110156107ea57600080fd5b810190808035906020019092919050505061392d565b6040518082815260200191505060405180910390f35b61084f6004803603604081101561082c57600080fd5b81019080803560ff16906020019092919080359060200190929190505050613945565b6040518082815260200191505060405180910390f35b61086d613a18565b604051808f60ff1660ff1681526020018e60ff1660ff1681526020018d60ff1660ff1681526020018c60ff1660ff1681526020018b81526020018a81526020018981526020018881526020018781526020018681526020018581526020018481526020018381526020018281526020019e50505050505050505050505050505060405180910390f35b61092c6004803603604081101561090c57600080fd5b810190808035906020019092919080359060200190929190505050613aa6565b604051808381526020018281526020019250505060405180910390f35b61097f6004803603604081101561095f57600080fd5b810190808035906020019092919080359060200190929190505050613ad7565b6040518082815260200191505060405180910390f35b6109c1600480360360208110156109ab57600080fd5b8101908080359060200190929190505050613afc565b604051808981526020018881526020018781526020018681526020018581526020018481526020018381526020018281526020019850505050505050505060405180910390f35b610a3e60048036036040811015610a1e57600080fd5b810190808035906020019092919080359060200190929190505050613b44565b005b80600b8190555050565b6000600c54905090565b60016020528060005260406000206000915090508060000154908060010154908060020154908060030154908060040154908060050154908060060154905087565b600081610ae06001610ad2600a6009548960405160200180828152602001915050604051602081830303815290604052805190602001206119b3565b613f5a90919063ffffffff16565b14610aee5760009050610bc0565b6000610b29600a8487604051602001808381526020018281526020019250505060405160208183030381529060405280519060200120613945565b90506000610b486401000000008360001c613ed090919063ffffffff16565b9050600060016000878152602001908152602001600020600101549050610b936401000000006001600088815260200190815260200160002060010154613fe290919063ffffffff16565b610ba68284613fe290919063ffffffff16565b1115610bb85760009350505050610bc0565b600193505050505b9392505050565b80610bd0612910565b8114610c44576040517f08c379a000000000000000000000000000000000000000000000000000000000815260040180806020018281038252600f8152602001807f696e636f72726563742065706f6368000000000000000000000000000000000081525060200191505060405180910390fd5b600d60000160039054906101000a900460ff16610c5f610a4a565b8160ff1614610cd6576040517f08c379a000000000000000000000000000000000000000000000000000000000815260040180806020018281038252600f8152602001807f696e636f7272656374207374617465000000000000000000000000000000000081525060200191505060405180910390fd5b60046000848152602001908152602001600020546007600085815260200190815260200160002060003373ffffffffffffffffffffffffffffffffffffffff1673ffffffffffffffffffffffffffffffffffffffff1681526020019081526020016000206000015414610d4857600080fd5b60006007600085815260200190815260200160002060003373ffffffffffffffffffffffffffffffffffffffff1673ffffffffffffffffffffffffffffffffffffffff16815260200190815260200160002060030154905060006007600086815260200190815260200160002060003373ffffffffffffffffffffffffffffffffffffffff1673ffffffffffffffffffffffffffffffffffffffff16815260200190815260200160002060010154905060006007600087815260200190815260200160002060003373ffffffffffffffffffffffffffffffffffffffff1673ffffffffffffffffffffffffffffffffffffffff16815260200190815260200160002060020154905060006007600088815260200190815260200160002060003373ffffffffffffffffffffffffffffffffffffffff1673ffffffffffffffffffffffffffffffffffffffff16815260200190815260200160002060050154905060006007600089815260200190815260200160002060003373ffffffffffffffffffffffffffffffffffffffff1673ffffffffffffffffffffffffffffffffffffffff16815260200190815260200160002060060154905060008060003373ffffffffffffffffffffffffffffffffffffffff1673ffffffffffffffffffffffffffffffffffffffff1681526020019081526020016000205490506000600560008b81526020019081526020016000206000015490506000861015610f6c57600080fd5b85871015610f7957600080fd5b86851015610f8657600080fd5b84600560008c815260200190815260200160002060030154141580610fc1575086600560008c81526020019081526020016000206001015414155b80610fe2575085600560008c81526020019081526020016000206002015414155b80611003575083600560008c81526020019081526020016000206004015414155b80611024575082600560008c81526020019081526020016000206005015414155b1561114a57604051806101000160405280838152602001888152602001878152602001868152602001858152602001848152602001600081526020016000815250600560008c8152602001908152602001600020600082015181600001556020820151816001015560408201518160020155606082015181600301556080820151816004015560a0820151816005015560c0820151816006015560e082015181600701559050507ffe971c2397930d47889e463ca0a68c8cb95c381f45c8c382463d802cb01fa4388a8888888789600080604051808981526020018881526020018781526020018681526020018581526020018481526020018381526020018281526020019850505050505050505060405180910390a16111458133614068565b61119b565b6040517f08c379a00000000000000000000000000000000000000000000000000000000081526004018080602001828103825260378152602001806145f36037913960400191505060405180910390fd5b50505050505050505050565b60006020528060005260406000206000915090505481565b806111c8612910565b811461123c576040517f08c379a000000000000000000000000000000000000000000000000000000000815260040180806020018281038252600f8152602001807f696e636f72726563742065706f6368000000000000000000000000000000000081525060200191505060405180910390fd5b60008060003373ffffffffffffffffffffffffffffffffffffffff1673ffffffffffffffffffffffffffffffffffffffff16815260200190815260200160002054905060006001600083815260200190815260200160002090506000816000015414156112a857600080fd5b6000816001015411611322576040517f08c379a00000000000000000000000000000000000000000000000000000000081526004018080602001828103825260118152602001807f4e6f6e706f736974697665207374616b6500000000000000000000000000000081525060200191505060405180910390fd5b8381600501541115801561133b57506000816005015414155b61134457600080fd5b60008160050181905550611366600d600a015485613f5a90919063ffffffff16565b81600601819055507f11725367022c3ff288940f4b5473aa61c2da6a24af7363a1128ee2401e8983b2826040518082815260200191505060405180910390a150505050565b806113b4612910565b8114611428576040517f08c379a000000000000000000000000000000000000000000000000000000000815260040180806020018281038252600f8152602001807f696e636f72726563742065706f6368000000000000000000000000000000000081525060200191505060405180910390fd5b600d60000160009054906101000a900460ff16611443610a4a565b8160ff16146114ba576040517f08c379a000000000000000000000000000000000000000000000000000000000815260040180806020018281038252600f8152602001807f696e636f7272656374207374617465000000000000000000000000000000000081525060200191505060405180910390fd5b60008060003373ffffffffffffffffffffffffffffffffffffffff1673ffffffffffffffffffffffffffffffffffffffff168152602001908152602001600020549050600060016000838152602001908152602001600020905060008160000154141561158f576040517f08c379a00000000000000000000000000000000000000000000000000000000081526004018080602001828103825260118152602001807f6e6f646520646f65736e7420657869737400000000000000000000000000000081525060200191505060405180910390fd5b6115a360018661423890919063ffffffff16565b81600401541461161b576040517f08c379a000000000000000000000000000000000000000000000000000000000815260040180806020018281038252601a8152602001807f4469646e742072657665616c20696e206c6173742065706f636800000000000081525060200191505060405180910390fd5b6000816005015414611695576040517f08c379a000000000000000000000000000000000000000000000000000000000815260040180806020018281038252600f8152602001807f446964206e6f7420756e7374616b65000000000000000000000000000000000081525060200191505060405180910390fd5b848160060154111580156116ae57506000816006015414155b611720576040517f08c379a000000000000000000000000000000000000000000000000000000000815260040180806020018281038252601a8152602001807f57697468647261772065706f6368206e6f74207265616368656400000000000081525060200191505060405180910390fd5b600081600101541161179a576040517f08c379a00000000000000000000000000000000000000000000000000000000081526004018080602001828103825260118152602001807f4e6f6e706f736974697665205374616b6500000000000000000000000000000081525060200191505060405180910390fd5b6000801b6002600087815260200190815260200160002060008481526020019081526020016000205414611819576040517f08c379a000000000000000000000000000000000000000000000000000000000815260040180806020018281038252602a815260200180614677602a913960400191505060405180910390fd5b6000600860009054906101000a900473ffffffffffffffffffffffffffffffffffffffff1690506000600160008581526020019081526020016000206001015490506118866001600086815260200190815260200160002060010154600a5461423890919063ffffffff16565b600a81905550600060016000868152602001908152602001600020600101819055507fb6b476da71cea8275cac6b1720c04966afaff5e637472cedb6cbd32c43a23251846040518082815260200191505060405180910390a18173ffffffffffffffffffffffffffffffffffffffff1663a9059cbb33836040518363ffffffff1660e01b8152600401808373ffffffffffffffffffffffffffffffffffffffff1673ffffffffffffffffffffffffffffffffffffffff16815260200182815260200192505050602060405180830381600087803b15801561196657600080fd5b505af115801561197a573d6000803e3d6000fd5b505050506040513d602081101561199057600080fd5b81019080805190602001909291905050506119aa57600080fd5b50505050505050565b6000806119c08584613945565b905060008160001c90506119dd8582613ed090919063ffffffff16565b925050509392505050565b876119f1612910565b8114611a65576040517f08c379a000000000000000000000000000000000000000000000000000000000815260040180806020018281038252600f8152602001807f696e636f72726563742065706f6368000000000000000000000000000000000081525060200191505060405180910390fd5b600d60000160029054906101000a900460ff16611a80610a4a565b8160ff1614611af7576040517f08c379a000000000000000000000000000000000000000000000000000000000815260040180806020018281038252600f8152602001807f696e636f7272656374207374617465000000000000000000000000000000000081525060200191505060405180910390fd5b60008060003373ffffffffffffffffffffffffffffffffffffffff1673ffffffffffffffffffffffffffffffffffffffff1681526020019081526020016000205490506000600860009054906101000a900473ffffffffffffffffffffffffffffffffffffffff169050611b6c868684610a96565b611bde576040517f08c379a000000000000000000000000000000000000000000000000000000000815260040180806020018281038252600b8152602001807f6e6f7420656c656374656400000000000000000000000000000000000000000081525060200191505060405180910390fd5b600d6005015460016000848152602001908152602001600020600101541015611c6f576040517f08c379a00000000000000000000000000000000000000000000000000000000081526004018080602001828103825260198152602001807f7374616b652062656c6f77206d696e696d756d207374616b650000000000000081525060200191505060405180910390fd5b6000600560008e81526020019081526020016000206000015414611dbb57600560008d81526020019081526020016000206007015460016000878152602001908152602001600020600101541415611d345785600560008e81526020019081526020016000206006015411611d2f576040517f08c379a00000000000000000000000000000000000000000000000000000000081526004018080602001828103825260318152602001806145a16031913960400191505060405180910390fd5b611dba565b600560008d81526020019081526020016000206007015460016000878152602001908152602001600020600101541015611db9576040517f08c379a000000000000000000000000000000000000000000000000000000000815260040180806020018281038252604d81526020018061462a604d913960600191505060405180910390fd5b5b5b898b1015611dc857600080fd5b8a891015611dd557600080fd5b600a54871115611de457600080fd5b600a54881115611df357600080fd5b6040518061010001604052808381526020018c81526020018b81526020018a81526020018881526020018981526020018781526020016001600088815260200190815260200160002060010154815250600560008e8152602001908152602001600020600082015181600001556020820151816001015560408201518160020155606082015181600301556080820151816004015560a0820151816005015560c0820151816006015560e082015181600701559050506000600d600601541115611ff057611ee5600d600601546001600085815260200190815260200160002060010154613f5a90919063ffffffff16565b6001600084815260200190815260200160002060010181905550611f19600d60060154600a54613f5a90919063ffffffff16565b600a819055508073ffffffffffffffffffffffffffffffffffffffff166340c10f1930600d600601546040518363ffffffff1660e01b8152600401808373ffffffffffffffffffffffffffffffffffffffff1673ffffffffffffffffffffffffffffffffffffffff16815260200182815260200192505050602060405180830381600087803b158015611fab57600080fd5b505af1158015611fbf573d6000803e3d6000fd5b505050506040513d6020811015611fd557600080fd5b8101908080519060200190929190505050611fef57600080fd5b5b7ffe971c2397930d47889e463ca0a68c8cb95c381f45c8c382463d802cb01fa4388c8c8c8c8c8c8c8c604051808981526020018881526020018781526020018681526020018581526020018481526020018381526020018281526020019850505050505050505060405180910390a1505050505050505050505050565b80612076612910565b81146120ea576040517f08c379a000000000000000000000000000000000000000000000000000000000815260040180806020018281038252600f8152602001807f696e636f72726563742065706f6368000000000000000000000000000000000081525060200191505060405180910390fd5b600d60000160039054906101000a900460ff16612105610a4a565b8160ff161461217c576040517f08c379a000000000000000000000000000000000000000000000000000000000815260040180806020018281038252600f8152602001807f696e636f7272656374207374617465000000000000000000000000000000000081525060200191505060405180910390fd5b6040518060e0016040528060008152602001600081526020016000815260200160008152602001600081526020016000815260200160008152506007600085815260200190815260200160002060003373ffffffffffffffffffffffffffffffffffffffff1673ffffffffffffffffffffffffffffffffffffffff168152602001908152602001600020600082015181600001556020820151816001015560408201518160020155606082015181600301556080820151816004015560a0820151816005015560c08201518160060155905050505050565b8361225d612910565b81146122d1576040517f08c379a000000000000000000000000000000000000000000000000000000000815260040180806020018281038252600f8152602001807f696e636f72726563742065706f6368000000000000000000000000000000000081525060200191505060405180910390fd5b60008060008473ffffffffffffffffffffffffffffffffffffffff1673ffffffffffffffffffffffffffffffffffffffff1681526020019081526020016000205490506000811161238a576040517f08c379a00000000000000000000000000000000000000000000000000000000081526004018080602001828103825260138152602001807f4e6f646520646f6573206e6f742065786973740000000000000000000000000081525060200191505060405180910390fd5b60006001600083815260200190815260200160002090506000801b60026000898152602001908152602001600020600084815260200190815260200160002054141561243e576040517f08c379a00000000000000000000000000000000000000000000000000000000081526004018080602001828103825260208152602001807f6e6f7420636f6d6d69746564206f7220616c72656164792072657665616c656481525060200191505060405180910390fd5b600086116124b4576040517f08c379a00000000000000000000000000000000000000000000000000000000081526004018080602001828103825260188152602001807f766f746564206e6f6e20706f7369746976652076616c7565000000000000000081525060200191505060405180910390fd5b600260008881526020019081526020016000206000838152602001908152602001600020548787876040516020018084815260200183815260200182815260200193505050506040516020818303038152906040528051906020012014612583576040517f08c379a00000000000000000000000000000000000000000000000000000000081526004018080602001828103825260108152602001807f696e636f7272656374207365637265740000000000000000000000000000000081525060200191505060405180910390fd5b7f9a5a126d5a9736641cc82adfebab5f62e9429e7963b9810cffdc9184c5fda2a78287604051808381526020018281526020019250505060405180910390a18373ffffffffffffffffffffffffffffffffffffffff163373ffffffffffffffffffffffffffffffffffffffff16141561283d57600d60000160019054906101000a900460ff1660ff16612614610a4a565b14612687576040517f08c379a00000000000000000000000000000000000000000000000000000000081526004018080602001828103825260108152602001807f4e6f742072657665616c2073746174650000000000000000000000000000000081525060200191505060405180910390fd5b6000816001015411612701576040517f08c379a00000000000000000000000000000000000000000000000000000000081526004018080602001828103825260118152602001807f6e6f6e706f736974697665207374616b6500000000000000000000000000000081525060200191505060405180910390fd5b61270b81886142c1565b6040518060400160405280878152602001826001015481525060036000898152602001908152602001600020600084815260200190815260200160002060008201518160000155602082015181600101559050506000801b600260008981526020019081526020016000206000848152602001908152602001600020819055506127b58160010154600460008a815260200190815260200160002054613f5a90919063ffffffff16565b60046000898152602001908152602001600020819055506128078160010154600660008a8152602001908152602001600020600089815260200190815260200160002054613f5a90919063ffffffff16565b60066000898152602001908152602001600020600088815260200190815260200160002081905550868160040181905550612905565b600d60000160009054906101000a900460ff1660ff1661285b610a4a565b146128ce576040517f08c379a00000000000000000000000000000000000000000000000000000000081526004018080602001828103825260108152602001807f4e6f7420636f6d6d69742073746174650000000000000000000000000000000081525060200191505060405180910390fd5b6000801b600260008981526020019081526020016000206000848152602001908152602001600020819055506129048233614068565b5b50505050505050565b565b6000600b54905090565b81612923612910565b8114612997576040517f08c379a000000000000000000000000000000000000000000000000000000000815260040180806020018281038252600f8152602001807f696e636f72726563742065706f6368000000000000000000000000000000000081525060200191505060405180910390fd5b600d60000160009054906101000a900460ff166129b2610a4a565b8160ff1614612a29576040517f08c379a000000000000000000000000000000000000000000000000000000000815260040180806020018281038252600f8152602001807f696e636f7272656374207374617465000000000000000000000000000000000081525060200191505060405180910390fd5b6000600860009054906101000a900473ffffffffffffffffffffffffffffffffffffffff169050600d60000160019054906101000a900460ff1660ff16612a6e610a4a565b1415612a7957600080fd5b600d60050154841015612ad7576040517f08c379a00000000000000000000000000000000000000000000000000000000081526004018080602001828103825260318152602001806146ee6031913960400191505060405180910390fd5b8073ffffffffffffffffffffffffffffffffffffffff166323b872dd3330876040518463ffffffff1660e01b8152600401808473ffffffffffffffffffffffffffffffffffffffff1673ffffffffffffffffffffffffffffffffffffffff1681526020018373ffffffffffffffffffffffffffffffffffffffff1673ffffffffffffffffffffffffffffffffffffffff1681526020018281526020019350505050602060405180830381600087803b158015612b9257600080fd5b505af1158015612ba6573d6000803e3d6000fd5b505050506040513d6020811015612bbc57600080fd5b8101908080519060200190929190505050612c3f576040517f08c379a00000000000000000000000000000000000000000000000000000000081526004018080602001828103825260138152602001807f736368207472616e73666572206661696c65640000000000000000000000000081525060200191505060405180910390fd5b60008060003373ffffffffffffffffffffffffffffffffffffffff1673ffffffffffffffffffffffffffffffffffffffff1681526020019081526020016000205490506000811415612da157612ca16001600954613f5a90919063ffffffff16565b6009819055506040518060e0016040528060095481526020018681526020018781526020016000815260200160008152602001612cec600d6009015489613f5a90919063ffffffff16565b81526020016000815250600160006009548152602001908152602001600020600082015181600001556020820151816001015560408201518160020155606082015181600301556080820151816004015560a0820151816005015560c082015181600601559050506009549050806000803373ffffffffffffffffffffffffffffffffffffffff1673ffffffffffffffffffffffffffffffffffffffff16815260200190815260200160002081905550612e54565b6000600160008381526020019081526020016000206001015411612e10576040517f08c379a000000000000000000000000000000000000000000000000000000000815260040180806020018281038252604d8152602001806146a1604d913960600191505060405180910390fd5b612e39856001600084815260200190815260200160002060010154613f5a90919063ffffffff16565b60016000838152602001908152602001600020600101819055505b612e6985600a54613f5a90919063ffffffff16565b600a819055507f925435fa7e37e5d9555bb18ce0d62bb9627d0846942e58e5291e9a2dded462ed8186604051808381526020018281526020019250505060405180910390a1505050505050565b6007602052816000526040600020602052806000526040600020600091509150508060000154908060010154908060020154908060030154908060040154908060050154908060060154905087565b600a5481565b600860009054906101000a900473ffffffffffffffffffffffffffffffffffffffff1681565b6006602052816000526040600020602052806000526040600020600091509150505481565b60095481565b80600c8190555050565b81612f6f612910565b8114612fe3576040517f08c379a000000000000000000000000000000000000000000000000000000000815260040180806020018281038252600f8152602001807f696e636f72726563742065706f6368000000000000000000000000000000000081525060200191505060405180910390fd5b600d60000160039054906101000a900460ff16612ffe610a4a565b8160ff1614613075576040517f08c379a000000000000000000000000000000000000000000000000000000000815260040180806020018281038252600f8152602001807f696e636f7272656374207374617465000000000000000000000000000000000081525060200191505060405180910390fd5b600061309d600480600088815260200190815260200160002054613e4190919063ffffffff16565b905060006130c860026004600089815260200190815260200160002054613e4190919063ffffffff16565b9050600061310660046130f86003600460008c815260200190815260200160002054613fe290919063ffffffff16565b613e4190919063ffffffff16565b905060006007600089815260200190815260200160002060003373ffffffffffffffffffffffffffffffffffffffff1673ffffffffffffffffffffffffffffffffffffffff1681526020019081526020016000206000015490506000600760008a815260200190815260200160002060003373ffffffffffffffffffffffffffffffffffffffff1673ffffffffffffffffffffffffffffffffffffffff16815260200190815260200160002060040154905060008060008090505b8a518110156136f557838b82815181106131d757fe5b602002602001015111613235576040517f08c379a00000000000000000000000000000000000000000000000000000000081526004018080602001828103825260298152602001806145786029913960400191505060405180910390fd5b8a818151811061324157fe5b60200260200101519350613295600660008e815260200190815260200160002060008d848151811061326f57fe5b602002602001015181526020019081526020016000205486613f5a90919063ffffffff16565b94506000600760008e815260200190815260200160002060003373ffffffffffffffffffffffffffffffffffffffff1673ffffffffffffffffffffffffffffffffffffffff168152602001908152602001600020600101541480156132fa5750878510155b1561336b578a818151811061330b57fe5b6020026020010151600760008e815260200190815260200160002060003373ffffffffffffffffffffffffffffffffffffffff1673ffffffffffffffffffffffffffffffffffffffff168152602001908152602001600020600101819055505b6000600760008e815260200190815260200160002060003373ffffffffffffffffffffffffffffffffffffffff1673ffffffffffffffffffffffffffffffffffffffff168152602001908152602001600020600301541480156133cd57508685115b1561343e578a81815181106133de57fe5b6020026020010151600760008e815260200190815260200160002060003373ffffffffffffffffffffffffffffffffffffffff1673ffffffffffffffffffffffffffffffffffffffff168152602001908152602001600020600301819055505b6000600760008e815260200190815260200160002060003373ffffffffffffffffffffffffffffffffffffffff1673ffffffffffffffffffffffffffffffffffffffff168152602001908152602001600020600201541480156134a057508585115b15613511578a81815181106134b157fe5b6020026020010151600760008e815260200190815260200160002060003373ffffffffffffffffffffffffffffffffffffffff1673ffffffffffffffffffffffffffffffffffffffff168152602001908152602001600020600201819055505b600760008d815260200190815260200160002060003373ffffffffffffffffffffffffffffffffffffffff1673ffffffffffffffffffffffffffffffffffffffff168152602001908152602001600020600101548b828151811061357157fe5b602002602001015114806135d857506000600760008e815260200190815260200160002060003373ffffffffffffffffffffffffffffffffffffffff1673ffffffffffffffffffffffffffffffffffffffff16815260200190815260200160002060010154145b8061363657506000600760008e815260200190815260200160002060003373ffffffffffffffffffffffffffffffffffffffff1673ffffffffffffffffffffffffffffffffffffffff16815260200190815260200160002060020154115b1561368c57613685600660008e815260200190815260200160002060008d848151811061365f57fe5b602002602001015181526020019081526020016000205483613f5a90919063ffffffff16565b91506136d9565b6136d6600660008e815260200190815260200160002060008d84815181106136b057fe5b602002602001015181526020019081526020016000205484613f5a90919063ffffffff16565b92505b6127105a10156136e8576136f5565b80806001019150506131c1565b5082600760008d815260200190815260200160002060003373ffffffffffffffffffffffffffffffffffffffff1673ffffffffffffffffffffffffffffffffffffffff1681526020019081526020016000206004018190555083600760008d815260200190815260200160002060003373ffffffffffffffffffffffffffffffffffffffff1673ffffffffffffffffffffffffffffffffffffffff1681526020019081526020016000206000018190555061380c81600760008e815260200190815260200160002060003373ffffffffffffffffffffffffffffffffffffffff1673ffffffffffffffffffffffffffffffffffffffff16815260200190815260200160002060060154613f5a90919063ffffffff16565b600760008d815260200190815260200160002060003373ffffffffffffffffffffffffffffffffffffffff1673ffffffffffffffffffffffffffffffffffffffff168152602001908152602001600020600601819055506138c982600760008e815260200190815260200160002060003373ffffffffffffffffffffffffffffffffffffffff1673ffffffffffffffffffffffffffffffffffffffff16815260200190815260200160002060050154613f5a90919063ffffffff16565b600760008d815260200190815260200160002060003373ffffffffffffffffffffffffffffffffffffffff1673ffffffffffffffffffffffffffffffffffffffff168152602001908152602001600020600501819055505050505050505050505050565b60046020528060005260406000206000915090505481565b60008060006139716010613963601043613e4190919063ffffffff16565b613fe290919063ffffffff16565b90506000600190505b8560ff168160ff16116139db578261399e8260ff168461423890919063ffffffff16565b406040516020018083815260200182815260200192505050604051602081830303815290604052805190602001209250808060010191505061397a565b5081846040516020018083815260200182815260200192505050604051602081830303815290604052805190602001209150819250505092915050565b600d8060000160009054906101000a900460ff16908060000160019054906101000a900460ff16908060000160029054906101000a900460ff16908060000160039054906101000a900460ff169080600101549080600201549080600301549080600401549080600501549080600601549080600701549080600801549080600901549080600a015490508e565b6003602052816000526040600020602052806000526040600020600091509150508060000154908060010154905082565b6002602052816000526040600020602052806000526040600020600091509150505481565b60056020528060005260406000206000915090508060000154908060010154908060020154908060030154908060040154908060050154908060060154908060070154905088565b81613b4d612910565b8114613bc1576040517f08c379a000000000000000000000000000000000000000000000000000000000815260040180806020018281038252600f8152602001807f696e636f72726563742065706f6368000000000000000000000000000000000081525060200191505060405180910390fd5b600d60000160009054906101000a900460ff16613bdc610a4a565b8160ff1614613c53576040517f08c379a000000000000000000000000000000000000000000000000000000000815260040180806020018281038252600f8152602001807f696e636f7272656374207374617465000000000000000000000000000000000081525060200191505060405180910390fd5b60008060003373ffffffffffffffffffffffffffffffffffffffff1673ffffffffffffffffffffffffffffffffffffffff1681526020019081526020016000205490506000600160008381526020019081526020016000209050600d6005015481600101541015613d2c576040517f08c379a000000000000000000000000000000000000000000000000000000000815260040180806020018281038252601c8152602001807f7374616b652069732062656c6f77206d696e696d756d207374616b650000000081525060200191505060405180910390fd5b6000801b6002600088815260200190815260200160002060008481526020019081526020016000205414613dc8576040517f08c379a00000000000000000000000000000000000000000000000000000000081526004018080602001828103825260108152602001807f616c726561647920636f6d6d697465640000000000000000000000000000000081525060200191505060405180910390fd5b84600260008881526020019081526020016000206000848152602001908152602001600020819055508581600301819055507f68e0867601a98978930107aee7f425665e61edd70ca594c68ca5da9e81f84c298286604051808381526020018281526020019250505060405180910390a1505050505050565b6000808211613eb8576040517f08c379a000000000000000000000000000000000000000000000000000000000815260040180806020018281038252601a8152602001807f536166654d6174683a206469766973696f6e206279207a65726f00000000000081525060200191505060405180910390fd5b6000828481613ec357fe5b0490508091505092915050565b600080821415613f48576040517f08c379a00000000000000000000000000000000000000000000000000000000081526004018080602001828103825260188152602001807f536166654d6174683a206d6f64756c6f206279207a65726f000000000000000081525060200191505060405180910390fd5b818381613f5157fe5b06905092915050565b600080828401905083811015613fd8576040517f08c379a000000000000000000000000000000000000000000000000000000000815260040180806020018281038252601b8152602001807f536166654d6174683a206164646974696f6e206f766572666c6f77000000000081525060200191505060405180910390fd5b8091505092915050565b600080831415613ff55760009050614062565b600082840290508284828161400657fe5b041461405d576040517f08c379a00000000000000000000000000000000000000000000000000000000081526004018080602001828103825260218152602001806145d26021913960400191505060405180910390fd5b809150505b92915050565b6000600860009054906101000a900473ffffffffffffffffffffffffffffffffffffffff16905060006140bb60026001600087815260200190815260200160002060010154613e4190919063ffffffff16565b9050600060016000868152602001908152602001600020600101819055506001811115614232576140f781600a5461423890919063ffffffff16565b600a819055508173ffffffffffffffffffffffffffffffffffffffff1663a9059cbb84836040518363ffffffff1660e01b8152600401808373ffffffffffffffffffffffffffffffffffffffff1673ffffffffffffffffffffffffffffffffffffffff16815260200182815260200192505050602060405180830381600087803b15801561418457600080fd5b505af1158015614198573d6000803e3d6000fd5b505050506040513d60208110156141ae57600080fd5b8101908080519060200190929190505050614231576040517f08c379a00000000000000000000000000000000000000000000000000000000081526004018080602001828103825260198152602001807f6661696c656420746f207472616e7366657220626f756e74790000000000000081525060200191505060405180910390fd5b5b50505050565b6000828211156142b0576040517f08c379a000000000000000000000000000000000000000000000000000000000815260040180806020018281038252601e8152602001807f536166654d6174683a207375627472616374696f6e206f766572666c6f77000081525060200191505060405180910390fd5b600082840390508091505092915050565b600181111561457357600082600401548360020154106142e55782600201546142eb565b82600401545b905060006143156001614307848661423890919063ffffffff16565b61423890919063ffffffff16565b905060008460040154905061435782600d600201540a61434984600d600101540a8860010154613fe290919063ffffffff16565b613e4190919063ffffffff16565b85600101819055506000600360008381526020019081526020016000206000876000015481526020019081526020016000206000015490506000811180156143b5575060006005600084815260200190815260200160002060040154115b801561440157506143fd60646143ef600d600801546005600087815260200190815260200160002060010154613fe290919063ffffffff16565b613e4190919063ffffffff16565b8110155b8015614460575061445c606461444e614429600d6008015460c861423890919063ffffffff16565b6005600087815260200190815260200160002060010154613fe290919063ffffffff16565b613e4190919063ffffffff16565b8111155b1561456e57600560008381526020019081526020016000206002015481101580156144a1575060056000838152602001908152602001600020600301548111155b15614531576145246145116144d660646005600087815260200190815260200160002060040154613fe290919063ffffffff16565b61450360056000878152602001908152602001600020600501548a60010154613fe290919063ffffffff16565b613e4190919063ffffffff16565b8760010154613f5a90919063ffffffff16565b866001018190555061456d565b614564600d60040154614556600d600301548960010154613fe290919063ffffffff16565b613e4190919063ffffffff16565b86600101819055505b5b505050505b505056fe736f727465645b695d206973206e6f742067726561746572207468616e206c61737456697369746564697465726174696f6e206e6f7420626967676572207468616e206578697374696e6720656c6563746564207374616b6572536166654d6174683a206d756c7469706c69636174696f6e206f766572666c6f7750726f706f73656420416c7465726e61746520626c6f636b206173206964656e746963616c20746f2070726f706f73656420626c6f636b62696767657374207374616b657273207374616b65206e6f7420626967676572207468616e2061732070726f706f736564206279206578697374696e6720656c6563746564207374616b657220616c726561647920636f6d6d6974656420746869732065706f63682e2043616e74207769746864726177616464696e67207374616b65206973206e6f7420706f737369626c65206166746572207769746864726177616c2f736c6173682e20506c65617365207573652061206e657720616464726573737374616b656420616d6f756e74206973206c657373207468616e206d696e696d756d207374616b65207265717569726564a165627a7a72305820d3c4dd9d1925815e03c15e2f62ec2f522654f8d26e8307b852ddd52cfaec8e5e0029",
  "source": "pragma solidity 0.5.7;\nimport \"./SimpleToken.sol\";\nimport \"openzeppelin-solidity/contracts/math/SafeMath.sol\";\n\n// WARNING IN development\n// Must Vote price rounded to 2 decimals *100 and must be above 0\n// e.g. if ethusd is 169.99 vote 16999\n// invalid vote cannot be revealed and you will get penalty\n// node == staker\n\n// TODO Priority list\n// test unstake and withdraw\n// cases where nobody votes, too low stake (1-4)\n// nobody proposes, nobody disputes, extending dispute period\n// staker wants to vote but cant because below minimum. how to handle? should he be penalized? how much waiting time?\n// use openzeppelin math to avoid under and overflows\n\ncontract Schelling {\n    using SafeMath for uint256;\n\n    struct Vote {\n        uint256 value;\n        uint256 weight;\n    }\n\n    struct Node {\n        uint256 id;\n        uint256 stake;\n        uint256 epochStaked;\n        uint256 epochLastCommitted;\n        uint256 epochLastRevealed;\n        uint256 unstakeAfter;\n        uint256 withdrawAfter;\n    }\n\n    // twoFive = twentyFive percentile value\n    // sevenFive = seventyFive percentile value\n    struct Block {\n        uint256 proposerId;\n        uint256 median;\n        uint256 twoFive;\n        uint256 sevenFive;\n        uint256 stakeGettingReward;\n        uint256 stakeGettingPenalty;\n        uint256 iteration;\n        uint256 biggestStake;\n    }\n\n    struct Dispute {\n        uint256 accWeight;\n        uint256 twoFive;\n        uint256 sevenFive;\n        uint256 median;\n        uint256 lastVisited;\n        uint256 stakeGettingReward;\n        uint256 stakeGettingPenalty;\n    }\n\n    mapping (address => uint256) public nodeIds;\n    mapping (uint256 => Node) public nodes;\n    mapping (uint256 => mapping (uint256 => bytes32)) public commitments;\n    mapping (uint256 => mapping (uint256 => Vote)) public votes;\n    mapping(uint256 => uint256) public totalStakeRevealed;\n    mapping (uint256 => Block) public blocks;\n\n    mapping (uint256 => mapping (uint256 => uint256)) public voteWeights;\n\n    mapping(uint256 => mapping(address => Dispute)) public disputes;\n    address public schAddress;\n\n    uint256 public numNodes = 0;\n    uint256 public totalStake = 0;\n\n    struct Constants {\n        uint8 COMMIT;\n        uint8 REVEAL;\n        uint8 PROPOSE;\n        uint8 DISPUTE;\n        uint256 PENALTY_NOT_REVEAL_NUM;\n        uint256 PENALTY_NOT_REVEAL_DENOM;\n        uint256 PENALTY_NOT_IN_ZONE_NUM;\n        uint256 PENALTY_NOT_IN_ZONE_DENOM;\n        uint256 MIN_STAKE;\n        uint256 BLOCK_REWARD;\n        uint256 REVEAL_REWARD;\n        uint256 SAFETY_MARGIN_LOWER;\n        // uint256 SAFETY_MARGIN_UPPER;\n        uint256 UNSTAKE_LOCK_PERIOD;\n        uint256 WITHDRAW_LOCK_PERIOD;\n    }\n\n    uint256 EPOCH;\n    uint256 STATE;\n\n    Constants public c = Constants(0, 1, 2, 3, 95, 100, 99, 100, 1000, 5, 5, 99, 1, 1);\n\n    constructor (address _schAddress) public {\n        schAddress = _schAddress;\n    }\n\n    modifier checkEpoch (uint256 epoch) {\n        require(epoch == getEpoch(), \"incorrect epoch\");\n        _;\n    }\n\n    modifier checkState (uint8 state) {\n        require(state == getState(), \"incorrect state\");\n        _;\n    }\n\n    event Staked(uint256 nodeId, uint256 amount);\n\n    // stake during commit state only\n    // we check epoch during every transaction to avoid withholding and rebroadcasting attacks\n    function stake (uint256 epoch, uint256 amount) public checkEpoch(epoch) checkState(c.COMMIT) {\n        SimpleToken sch = SimpleToken(schAddress);\n         //not allowed during reveal period\n        require(getState() != c.REVEAL);\n        require(amount >= c.MIN_STAKE, \"staked amount is less than minimum stake required\");\n        require(sch.transferFrom(msg.sender, address(this), amount), \"sch transfer failed\");\n        uint256 nodeId = nodeIds[msg.sender];\n        if (nodeId == 0) {\n            numNodes = numNodes.add(1);\n            nodes[numNodes] = Node(numNodes, amount, epoch, 0, 0, epoch.add(c.UNSTAKE_LOCK_PERIOD), 0);\n            nodeId = numNodes;\n            nodeIds[msg.sender] = nodeId;\n        } else {\n            require(nodes[nodeId].stake > 0,\n                    \"adding stake is not possible after withdrawal/slash. Please use a new address\");\n            nodes[nodeId].stake = nodes[nodeId].stake.add(amount);\n        }\n        totalStake = totalStake.add(amount);\n        emit Staked(nodeId, amount);\n    }\n\n    event Unstaked(uint256 nodeId);\n\n    // staker must call unstake() and continue voting for c.WITHDRAW_LOCK_PERIOD\n    //after which she can call withdraw() to finally Withdraw\n    function unstake (uint256 epoch) public checkEpoch(epoch) {\n        // require(getState()!= 1); //not allowed during reveal period\n        uint256 nodeId = nodeIds[msg.sender];\n        Node storage node = nodes[nodeId];\n        require(node.id != 0);\n        require(node.stake > 0, \"Nonpositive stake\");\n        require(node.unstakeAfter <= epoch && node.unstakeAfter != 0);\n        node.unstakeAfter = 0;\n        node.withdrawAfter = epoch.add(c.WITHDRAW_LOCK_PERIOD);\n        emit Unstaked(nodeId);\n    }\n\n    event Withdrew(uint256 nodeId);\n\n    function withdraw (uint256 epoch) public checkEpoch(epoch) checkState(c.COMMIT) {\n        uint256 nodeId = nodeIds[msg.sender];\n        Node storage node = nodes[nodeId];\n        require(node.id != 0, \"node doesnt exist\");\n        require(node.epochLastRevealed == epoch.sub(1), \"Didnt reveal in last epoch\");\n        require(node.unstakeAfter == 0, \"Did not unstake\");\n        require((node.withdrawAfter <= epoch) && node.withdrawAfter != 0, \"Withdraw epoch not reached\");\n        require(node.stake > 0, \"Nonpositive Stake\");\n        require(commitments[epoch][nodeId] == 0x0, \"already commited this epoch. Cant withdraw\");\n        SimpleToken sch = SimpleToken(schAddress);\n        uint256 toSend = nodes[nodeId].stake;\n        totalStake = totalStake.sub(nodes[nodeId].stake);\n        nodes[nodeId].stake = 0;\n        emit Withdrew(nodeId);\n        require(sch.transfer(msg.sender, toSend));\n    }\n\n    event Committed(uint256 nodeId, bytes32 commitment);\n\n    // what was the eth/usd rate at the beginning of this epoch?\n    function commit (uint256 epoch, bytes32 commitment) public checkEpoch(epoch) checkState(c.COMMIT) {\n        uint256 nodeId = nodeIds[msg.sender];\n        Node storage thisStaker = nodes[nodeId];\n        require(thisStaker.stake >= c.MIN_STAKE, \"stake is below minimum stake\");\n        require(commitments[epoch][nodeId] == 0x0, \"already commited\");\n        commitments[epoch][nodeId] = commitment;\n        thisStaker.epochLastCommitted = epoch;\n        emit Committed(nodeId, commitment);\n    }\n\n    event Revealed(uint256 nodeId, uint256 value);\n\n    function reveal (uint256 epoch, uint256 value, bytes32 secret, address stakerAddress)\n    public\n    checkEpoch(epoch) {\n        uint256 thisNodeId = nodeIds[stakerAddress];\n        require(thisNodeId > 0, \"Node does not exist\");\n        Node storage thisStaker = nodes[thisNodeId];\n        require(commitments[epoch][thisNodeId] != 0x0, \"not commited or already revealed\");\n        require(value > 0, \"voted non positive value\");\n        require(keccak256(abi.encodePacked(epoch, value, secret)) == commitments[epoch][thisNodeId],\n                \"incorrect secret\");\n        emit Revealed(thisNodeId, value);\n        //if revealing self\n        if (msg.sender == stakerAddress) {\n            require(getState() == c.REVEAL, \"Not reveal state\");\n            require(thisStaker.stake > 0, \"nonpositive stake\");\n            givePenaltiesAndRewards(thisStaker, epoch);\n            votes[epoch][thisNodeId] = Vote(value, thisStaker.stake);\n            commitments[epoch][thisNodeId] = 0x0;\n            totalStakeRevealed[epoch] = totalStakeRevealed[epoch].add(thisStaker.stake);\n            voteWeights[epoch][value] = voteWeights[epoch][value].add(thisStaker.stake);\n            thisStaker.epochLastRevealed = epoch;\n        } else {\n            //bounty hunter revealing someone else's secret in commit state\n            require(getState() == c.COMMIT, \"Not commit state\");\n            commitments[epoch][thisNodeId] = 0x0;\n            slash(thisNodeId, msg.sender);\n        }\n    }\n\n    function isElectedProposer(uint256 iteration, uint256 biggestStakerId, uint256 nodeId) public view returns(bool) {\n        // rand = 0 -> totalStake-1\n        //add +1 since prng returns 0 to max-1 and node start from 1\n        if ((prng(10, numNodes, keccak256(abi.encode(iteration))).add(1)) != nodeId) return(false);\n        bytes32 randHash = prngHash(10, keccak256(abi.encode(nodeId, iteration)));\n        uint256 rand = uint256(randHash).mod(2**32);\n        uint256 biggestStake = nodes[biggestStakerId].stake;\n        if (rand.mul(biggestStake) > nodes[nodeId].stake.mul(2**32)) return(false);\n        return(true);\n    }\n\n    event Proposed(uint256 epoch,\n                    uint256 median,\n                    uint256 twoFive,\n                    uint256 sevenFive,\n                    uint256 stakeGettingPenalty,\n                    uint256 stakeGettingReward,\n                    uint256 iteration,\n                    uint256 biggestStakerId);\n\n    // elected proposer proposes block. we use a probabilistic method to elect stakers weighted by stake\n    // protocol works like this. select a staker pseudorandomly (not weighted by anything)\n    // (todo what if it is below min stake)\n    // that staker then tosses a biased coin. bias = hisStake/biggestStake. if its heads, he can propose block\n    // end of iteration. try next iteration\n    // note that only one staker or no stakers selected in each iteration.\n    // stakers elected in higher iterations can also propose hoping that\n    // stakers with lower iteration do not propose for some reason\n    function propose (uint256 epoch,\n                    uint256 median,\n                    uint256 twoFive,\n                    uint256 sevenFive,\n                    uint256 stakeGettingPenalty,\n                    uint256 stakeGettingReward,\n                    uint256 iteration,\n                    uint256 biggestStakerId) public checkEpoch(epoch) checkState(c.PROPOSE) {\n        uint256 proposerId = nodeIds[msg.sender];\n        SimpleToken sch = SimpleToken(schAddress);\n        require(isElectedProposer(iteration, biggestStakerId, proposerId), \"not elected\");\n        require(nodes[proposerId].stake >= c.MIN_STAKE, \"stake below minimum stake\");\n\n        //check if someone already proposed\n        if (blocks[epoch].proposerId != 0) {\n            if (nodes[biggestStakerId].stake == blocks[epoch].biggestStake) {\n                require(blocks[epoch].iteration > iteration, \"iteration not bigger than existing elected staker\");\n            } else if (nodes[biggestStakerId].stake < blocks[epoch].biggestStake) {\n                revert(\"biggest stakers stake not bigger than as proposed by existing elected staker \");\n            }\n        }\n        // twoFive == 0 if no one votes\n        // require(twoFive > 0);\n        require(median >= twoFive);\n        require(sevenFive >= median);\n        require(stakeGettingReward <= totalStake);\n        require(stakeGettingPenalty <= totalStake);\n        blocks[epoch] = Block(proposerId,\n                                median,\n                                twoFive,\n                                sevenFive,\n                                stakeGettingReward,\n                                stakeGettingPenalty,\n                                iteration,\n                                nodes[biggestStakerId].stake);\n        if (c.BLOCK_REWARD > 0) {\n            nodes[proposerId].stake = nodes[proposerId].stake.add(c.BLOCK_REWARD);\n            totalStake = totalStake.add(c.BLOCK_REWARD);\n            require(sch.mint(address(this), c.BLOCK_REWARD));\n        }\n        emit Proposed(epoch, median, twoFive, sevenFive, stakeGettingPenalty,\n                    stakeGettingReward, iteration, biggestStakerId);\n    }\n\n    //anyone can give sorted votes in batches in dispute state\n    function giveSorted (uint256 epoch, uint256[] memory sorted) public checkEpoch(epoch) checkState(c.DISPUTE) {\n        uint256 twoFiveWeight = totalStakeRevealed[epoch].div(4);\n        uint256 medianWeight = totalStakeRevealed[epoch].div(2);\n        uint256 sevenFiveWeight = (totalStakeRevealed[epoch].mul(3)).div(4);\n        //accumulatedWeight\n        uint256 accWeight = disputes[epoch][msg.sender].accWeight;\n        uint256 lastVisited = disputes[epoch][msg.sender].lastVisited;\n\n        uint256 stakeGettingReward;\n        uint256 stakeGettingPenalty;\n\n        for (uint256 i = 0; i < sorted.length; i++) {\n            require(sorted[i] > lastVisited, \"sorted[i] is not greater than lastVisited\");\n            lastVisited = sorted[i];\n            accWeight = accWeight.add(voteWeights[epoch][sorted[i]]);\n\n            //set twofive, median, sevenFive if conditions meet\n            if (disputes[epoch][msg.sender].twoFive == 0 && accWeight >= twoFiveWeight) {\n                disputes[epoch][msg.sender].twoFive = sorted[i];\n            }\n            if (disputes[epoch][msg.sender].median == 0 && accWeight > medianWeight) {\n                disputes[epoch][msg.sender].median = sorted[i];\n            }\n            if (disputes[epoch][msg.sender].sevenFive == 0 && accWeight > sevenFiveWeight) {\n                disputes[epoch][msg.sender].sevenFive = sorted[i];\n            }\n\n            if ((sorted[i] == disputes[epoch][msg.sender].twoFive) ||\n                (disputes[epoch][msg.sender].twoFive == 0) ||\n                disputes[epoch][msg.sender].sevenFive > 0) {\n                // (sorted[i] > disputes[epoch][msg.sender].sevenFive && disputes[epoch][msg.sender].sevenFive > 0)) {\n                stakeGettingPenalty = stakeGettingPenalty.add(voteWeights[epoch][sorted[i]]);\n            } else {\n                stakeGettingReward = stakeGettingReward.add(voteWeights[epoch][sorted[i]]);\n            }\n            //TODO verify how much gas required for below operations and update this value\n            if (gasleft() < 10000) break;\n        }\n\n        disputes[epoch][msg.sender].lastVisited = lastVisited;\n        disputes[epoch][msg.sender].accWeight = accWeight;\n        disputes[epoch][msg.sender].stakeGettingPenalty = disputes[epoch][msg.sender].stakeGettingPenalty.add(\n                                                        stakeGettingPenalty);\n        disputes[epoch][msg.sender].stakeGettingReward = disputes[epoch][msg.sender].stakeGettingReward.add(\n                                                        stakeGettingReward);\n    }\n\n    //todo test\n    //if any mistake made during giveSorted, resetDispute and start again\n    function resetDispute (uint256 epoch) public checkEpoch(epoch) checkState(c.DISPUTE) {\n        disputes[epoch][msg.sender] = Dispute(0, 0, 0, 0, 0, 0, 0);\n    }\n\n    //propose alternate block in dispute phase\n    //if no one votes, skip giveSorted and proposeAlt directly.\n    function proposeAlt (uint256 epoch) public checkEpoch(epoch) checkState(c.DISPUTE) {\n        require(disputes[epoch][msg.sender].accWeight == totalStakeRevealed[epoch]);\n        uint256 median = disputes[epoch][msg.sender].median;\n        uint256 twoFive = disputes[epoch][msg.sender].twoFive;\n        uint256 sevenFive = disputes[epoch][msg.sender].sevenFive;\n        uint256 stakeGettingReward = disputes[epoch][msg.sender].stakeGettingReward;\n        uint256 stakeGettingPenalty = disputes[epoch][msg.sender].stakeGettingPenalty;\n        uint256 bountyHunterId = nodeIds[msg.sender];\n        uint256 proposerId = blocks[epoch].proposerId;\n\n        require(twoFive >= 0);\n        require(median >= twoFive);\n        require(sevenFive >= median);\n        if (blocks[epoch].sevenFive != sevenFive ||\n            blocks[epoch].median != median ||\n            blocks[epoch].twoFive != twoFive ||\n            blocks[epoch].stakeGettingReward != stakeGettingReward ||\n            blocks[epoch].stakeGettingPenalty != stakeGettingPenalty) {\n            blocks[epoch] = Block(bountyHunterId, median, twoFive, sevenFive,\n                                    stakeGettingReward, stakeGettingPenalty, 0, 0);\n            emit Proposed(epoch, median, twoFive, sevenFive, stakeGettingPenalty, stakeGettingReward, 0, 0);\n            slash(proposerId, msg.sender);\n        } else {\n            revert(\"Proposed Alternate block as identical to proposed block\");\n        }\n    }\n\n    function getEpoch () public view returns(uint256) {\n        return(EPOCH);\n        return((block.number.div(16)).add(1));\n    }\n\n    function getState() public view returns(uint256) {\n        return (STATE);\n        uint256 state = (block.number.div(4));\n\n        return (state.mod(4));\n    }\n\n    // pseudo random number generator based on block hashes. returns 0 -> max-1\n    function prng (uint8 numBlocks, uint256 max, bytes32 seed) public view returns (uint256) {\n        bytes32 hashh = prngHash(numBlocks, seed);\n        uint256 sum = uint256(hashh);\n        return(sum.mod(max));\n    }\n\n    // pseudo random hash generator based on block hashes.\n    function prngHash(uint8 numBlocks, bytes32 seed) public view returns(bytes32) {\n        bytes32 sum;\n        uint256 blockNumberEpochStart = (block.number.div(16)).mul(16);\n        for (uint8 i = 1; i <= numBlocks; i++) {\n            sum = keccak256(abi.encodePacked(sum, blockhash(blockNumberEpochStart.sub(i))));\n        }\n        sum = keccak256(abi.encodePacked(sum, seed));\n        return(sum);\n    }\n\n    // WARNING TODO FOR TESTING ONLY. REMOVE IN PROD\n    function setEpoch (uint256 epoch) public { EPOCH = epoch;}\n\n    function setState (uint256 state) public { STATE = state;}\n\n    // dummy function to forcibly increase block number in ganache\n    function dum () public {true;}\n    // END TESTING FUNCTIONS\n\n    // internal functions vvvvvvvv\n    function givePenaltiesAndRewards(Node storage thisStaker, uint256 epoch) internal {\n        if (epoch > 1) {\n            uint256 epochLastActive = thisStaker.epochStaked < thisStaker.epochLastRevealed ?\n                                    thisStaker.epochLastRevealed :\n                                    thisStaker.epochStaked;\n            // penalize or reward if last active more than epoch - 1\n            uint256 penalizeEpochs = epoch.sub(epochLastActive).sub(1);\n            uint256 epochLastRevealed = thisStaker.epochLastRevealed;\n            thisStaker.stake = (thisStaker.stake.mul(c.PENALTY_NOT_REVEAL_NUM**(penalizeEpochs))).div(\n            c.PENALTY_NOT_REVEAL_DENOM**(penalizeEpochs));\n\n            uint256 voteLastEpoch = votes[epochLastRevealed][thisStaker.id].value;\n\n            //reward for in zone\n            if (voteLastEpoch > 0 &&\n                blocks[epochLastRevealed].stakeGettingReward > 0 &&\n                voteLastEpoch >= (blocks[epochLastRevealed].median.mul(c.SAFETY_MARGIN_LOWER)).div(100) &&\n                voteLastEpoch <= (blocks[epochLastRevealed].median.mul(uint256(200).sub(\n                                    c.SAFETY_MARGIN_LOWER))).div(100)) {\n                if (voteLastEpoch >= blocks[epochLastRevealed].twoFive &&\n                voteLastEpoch <= blocks[epochLastRevealed].sevenFive) {\n                    thisStaker.stake = thisStaker.stake.add(\n                                    (thisStaker.stake.mul(\n                                    blocks[epochLastRevealed].stakeGettingPenalty)).div(\n                                    ((blocks[epochLastRevealed].stakeGettingReward).mul(100))));\n                } else {\n                    // penalty for outside zone\n                    thisStaker.stake = (thisStaker.stake.mul(c.PENALTY_NOT_IN_ZONE_NUM)).div(\n                                        c.PENALTY_NOT_IN_ZONE_DENOM);\n                }\n            }\n        }\n    }\n\n    function slash (uint256 id, address bountyHunter) internal {\n        SimpleToken sch = SimpleToken(schAddress);\n        uint256 halfStake = nodes[id].stake.div(2);\n        nodes[id].stake = 0;\n        if (halfStake > 1) {\n            totalStake = totalStake.sub(halfStake);\n            require(sch.transfer(bountyHunter, halfStake), \"failed to transfer bounty\");\n        }\n    }\n    // function stakeTransfer(uint256 fromId, address to, uint256 amount) internal{\n    //     // uint256 fromId = nodeIds[from];\n    //     require(fromId!=0);\n    //     require(nodes[fromId].stake >= amount);\n    //     uint256 toId = nodeIds[to];\n    //     nodes[fromId].stake = nodes[fromId].stake - amount;\n    //     if (toId == 0) {\n    //         numNodes = numNodes + 1;\n    //         nodes[numNodes] = Node(numNodes, amount, 0, 0, 0);\n    //         nodeIds[to] = numNodes;\n    //     } else {\n    //         nodes[toId].stake = nodes[toId].stake + amount;\n    //     }\n    // }\n\n}\n",
  "sourcePath": "/home/hrishi/contracts/contracts/Schelling.sol",
  "compiler": {
    "name": "solc",
    "version": "0.5.7+commit.6da8b019.Emscripten.clang"
  },
  "schemaVersion": "3.0.11",
  "updatedAt": "2019-07-02T15:57:17.056Z",
  "devdoc": {
    "methods": {}
  },
  "userdoc": {
    "methods": {}
  }
}