{
  "contractName": "Schelling3",
  "abi": [
    {
      "constant": true,
      "inputs": [],
      "name": "stakeGettingReward",
      "outputs": [
        {
          "name": "",
          "type": "uint256"
        }
      ],
      "payable": false,
      "stateMutability": "view",
      "type": "function"
    },
    {
      "constant": true,
      "inputs": [
        {
          "name": "",
          "type": "uint256"
        }
      ],
      "name": "nodes",
      "outputs": [
        {
          "name": "id",
          "type": "uint256"
        },
        {
          "name": "stake",
          "type": "uint256"
        },
        {
          "name": "epochStaked",
          "type": "uint256"
        },
        {
          "name": "epochLastCommitted",
          "type": "uint256"
        },
        {
          "name": "epochLastRevealed",
          "type": "uint256"
        },
        {
          "name": "unstakeAfter",
          "type": "uint256"
        },
        {
          "name": "withdrawAfter",
          "type": "uint256"
        }
      ],
      "payable": false,
      "stateMutability": "view",
      "type": "function"
    },
    {
      "constant": true,
      "inputs": [
        {
          "name": "",
          "type": "uint256"
        },
        {
          "name": "",
          "type": "uint256"
        },
        {
          "name": "",
          "type": "uint256"
        }
      ],
      "name": "votes",
      "outputs": [
        {
          "name": "value",
          "type": "uint256"
        },
        {
          "name": "weight",
          "type": "uint256"
        }
      ],
      "payable": false,
      "stateMutability": "view",
      "type": "function"
    },
    {
      "constant": true,
      "inputs": [
        {
          "name": "",
          "type": "address"
        }
      ],
      "name": "nodeIds",
      "outputs": [
        {
          "name": "",
          "type": "uint256"
        }
      ],
      "payable": false,
      "stateMutability": "view",
      "type": "function"
    },
    {
      "constant": true,
      "inputs": [],
      "name": "rewardPool",
      "outputs": [
        {
          "name": "",
          "type": "uint256"
        }
      ],
      "payable": false,
      "stateMutability": "view",
      "type": "function"
    },
    {
      "constant": true,
      "inputs": [
        {
          "name": "",
          "type": "uint256"
        },
        {
          "name": "",
          "type": "address"
        }
      ],
      "name": "disputes",
      "outputs": [
        {
          "name": "accWeight",
          "type": "uint256"
        },
        {
          "name": "median",
          "type": "uint256"
        },
        {
          "name": "lastVisited",
          "type": "uint256"
        },
        {
          "name": "assetId",
          "type": "uint256"
        }
      ],
      "payable": false,
      "stateMutability": "view",
      "type": "function"
    },
    {
      "constant": true,
      "inputs": [
        {
          "name": "",
          "type": "uint256"
        },
        {
          "name": "",
          "type": "uint256"
        }
      ],
      "name": "totalStakeRevealed",
      "outputs": [
        {
          "name": "",
          "type": "uint256"
        }
      ],
      "payable": false,
      "stateMutability": "view",
      "type": "function"
    },
    {
      "constant": true,
      "inputs": [],
      "name": "totalStake",
      "outputs": [
        {
          "name": "",
          "type": "uint256"
        }
      ],
      "payable": false,
      "stateMutability": "view",
      "type": "function"
    },
    {
      "constant": true,
      "inputs": [],
      "name": "schAddress",
      "outputs": [
        {
          "name": "",
          "type": "address"
        }
      ],
      "payable": false,
      "stateMutability": "view",
      "type": "function"
    },
    {
      "constant": true,
      "inputs": [
        {
          "name": "",
          "type": "uint256"
        },
        {
          "name": "",
          "type": "uint256"
        },
        {
          "name": "",
          "type": "uint256"
        }
      ],
      "name": "voteWeights",
      "outputs": [
        {
          "name": "",
          "type": "uint256"
        }
      ],
      "payable": false,
      "stateMutability": "view",
      "type": "function"
    },
    {
      "constant": true,
      "inputs": [
        {
          "name": "",
          "type": "uint256"
        },
        {
          "name": "",
          "type": "uint256"
        }
      ],
      "name": "proposedBlocks",
      "outputs": [
        {
          "name": "proposerId",
          "type": "uint256"
        },
        {
          "name": "iteration",
          "type": "uint256"
        },
        {
          "name": "biggestStake",
          "type": "uint256"
        },
        {
          "name": "valid",
          "type": "bool"
        }
      ],
      "payable": false,
      "stateMutability": "view",
      "type": "function"
    },
    {
      "constant": true,
      "inputs": [],
      "name": "numNodes",
      "outputs": [
        {
          "name": "",
          "type": "uint256"
        }
      ],
      "payable": false,
      "stateMutability": "view",
      "type": "function"
    },
    {
      "constant": true,
      "inputs": [],
      "name": "EPOCH",
      "outputs": [
        {
          "name": "",
          "type": "uint256"
        }
      ],
      "payable": false,
      "stateMutability": "view",
      "type": "function"
    },
    {
      "constant": true,
      "inputs": [],
      "name": "STATE",
      "outputs": [
        {
          "name": "",
          "type": "uint256"
        }
      ],
      "payable": false,
      "stateMutability": "view",
      "type": "function"
    },
    {
      "constant": true,
      "inputs": [
        {
          "name": "",
          "type": "uint256"
        },
        {
          "name": "",
          "type": "uint256"
        }
      ],
      "name": "commitments",
      "outputs": [
        {
          "name": "",
          "type": "bytes32"
        }
      ],
      "payable": false,
      "stateMutability": "view",
      "type": "function"
    },
    {
      "constant": true,
      "inputs": [
        {
          "name": "",
          "type": "uint256"
        }
      ],
      "name": "blocks",
      "outputs": [
        {
          "name": "proposerId",
          "type": "uint256"
        },
        {
          "name": "iteration",
          "type": "uint256"
        },
        {
          "name": "biggestStake",
          "type": "uint256"
        },
        {
          "name": "valid",
          "type": "bool"
        }
      ],
      "payable": false,
      "stateMutability": "view",
      "type": "function"
    },
    {
      "inputs": [
        {
          "name": "_schAddress",
          "type": "address"
        }
      ],
      "payable": false,
      "stateMutability": "nonpayable",
      "type": "constructor"
    },
    {
      "anonymous": false,
      "inputs": [
        {
          "indexed": false,
          "name": "nodeId",
          "type": "uint256"
        },
        {
          "indexed": false,
          "name": "amount",
          "type": "uint256"
        }
      ],
      "name": "Staked",
      "type": "event"
    },
    {
      "anonymous": false,
      "inputs": [
        {
          "indexed": false,
          "name": "nodeId",
          "type": "uint256"
        }
      ],
      "name": "Unstaked",
      "type": "event"
    },
    {
      "anonymous": false,
      "inputs": [
        {
          "indexed": false,
          "name": "nodeId",
          "type": "uint256"
        },
        {
          "indexed": false,
          "name": "amount",
          "type": "uint256"
        }
      ],
      "name": "Withdrew",
      "type": "event"
    },
    {
      "anonymous": false,
      "inputs": [
        {
          "indexed": false,
          "name": "epoch",
          "type": "uint256"
        },
        {
          "indexed": false,
          "name": "nodeId",
          "type": "uint256"
        },
        {
          "indexed": false,
          "name": "commitment",
          "type": "bytes32"
        }
      ],
      "name": "Committed",
      "type": "event"
    },
    {
      "anonymous": false,
      "inputs": [
        {
          "indexed": false,
          "name": "y",
          "type": "uint256"
        }
      ],
      "name": "Y",
      "type": "event"
    },
    {
      "anonymous": false,
      "inputs": [
        {
          "indexed": false,
          "name": "epoch",
          "type": "uint256"
        },
        {
          "indexed": false,
          "name": "nodeId",
          "type": "uint256"
        },
        {
          "indexed": false,
          "name": "value",
          "type": "uint256"
        },
        {
          "indexed": false,
          "name": "stake",
          "type": "uint256"
        }
      ],
      "name": "Revealed",
      "type": "event"
    },
    {
      "anonymous": false,
      "inputs": [
        {
          "indexed": false,
          "name": "epoch",
          "type": "uint256"
        },
        {
          "indexed": false,
          "name": "nodeId",
          "type": "uint256"
        },
        {
          "indexed": false,
          "name": "medians",
          "type": "uint256[]"
        },
        {
          "indexed": false,
          "name": "iteration",
          "type": "uint256"
        },
        {
          "indexed": false,
          "name": "biggestStakerId",
          "type": "uint256"
        }
      ],
      "name": "Proposed",
      "type": "event"
    },
    {
      "constant": true,
      "inputs": [
        {
          "name": "epoch",
          "type": "uint256"
        },
        {
          "name": "proposalIndex",
          "type": "uint256"
        }
      ],
      "name": "getBlock",
      "outputs": [
        {
          "name": "",
          "type": "uint256"
        },
        {
          "name": "medians",
          "type": "uint256[]"
        },
        {
          "name": "",
          "type": "uint256"
        },
        {
          "name": "",
          "type": "uint256"
        }
      ],
      "payable": false,
      "stateMutability": "view",
      "type": "function"
    },
    {
      "constant": false,
      "inputs": [
        {
          "name": "epoch",
          "type": "uint256"
        },
        {
          "name": "amount",
          "type": "uint256"
        }
      ],
      "name": "stake",
      "outputs": [],
      "payable": false,
      "stateMutability": "nonpayable",
      "type": "function"
    },
    {
      "constant": false,
      "inputs": [
        {
          "name": "epoch",
          "type": "uint256"
        }
      ],
      "name": "unstake",
      "outputs": [],
      "payable": false,
      "stateMutability": "nonpayable",
      "type": "function"
    },
    {
      "constant": false,
      "inputs": [
        {
          "name": "epoch",
          "type": "uint256"
        }
      ],
      "name": "withdraw",
      "outputs": [],
      "payable": false,
      "stateMutability": "nonpayable",
      "type": "function"
    },
    {
      "constant": false,
      "inputs": [
        {
          "name": "epoch",
          "type": "uint256"
        },
        {
          "name": "commitment",
          "type": "bytes32"
        }
      ],
      "name": "commit",
      "outputs": [],
      "payable": false,
      "stateMutability": "nonpayable",
      "type": "function"
    },
    {
      "constant": false,
      "inputs": [
        {
          "name": "epoch",
          "type": "uint256"
        },
        {
          "name": "root",
          "type": "bytes32"
        },
        {
          "name": "values",
          "type": "uint256[]"
        },
        {
          "name": "proofs",
          "type": "bytes32[][]"
        },
        {
          "name": "secret",
          "type": "bytes32"
        },
        {
          "name": "stakerAddress",
          "type": "address"
        }
      ],
      "name": "reveal",
      "outputs": [],
      "payable": false,
      "stateMutability": "nonpayable",
      "type": "function"
    },
    {
      "constant": true,
      "inputs": [
        {
          "name": "iteration",
          "type": "uint256"
        },
        {
          "name": "biggestStakerId",
          "type": "uint256"
        },
        {
          "name": "nodeId",
          "type": "uint256"
        }
      ],
      "name": "isElectedProposer",
      "outputs": [
        {
          "name": "",
          "type": "bool"
        }
      ],
      "payable": false,
      "stateMutability": "view",
      "type": "function"
    },
    {
      "constant": false,
      "inputs": [
        {
          "name": "epoch",
          "type": "uint256"
        },
        {
          "name": "medians",
          "type": "uint256[]"
        },
        {
          "name": "iteration",
          "type": "uint256"
        },
        {
          "name": "biggestStakerId",
          "type": "uint256"
        }
      ],
      "name": "propose",
      "outputs": [],
      "payable": false,
      "stateMutability": "nonpayable",
      "type": "function"
    },
    {
      "constant": false,
      "inputs": [
        {
          "name": "epoch",
          "type": "uint256"
        },
        {
          "name": "assetId",
          "type": "uint256"
        },
        {
          "name": "sorted",
          "type": "uint256[]"
        }
      ],
      "name": "giveSorted",
      "outputs": [],
      "payable": false,
      "stateMutability": "nonpayable",
      "type": "function"
    },
    {
      "constant": false,
      "inputs": [
        {
          "name": "epoch",
          "type": "uint256"
        }
      ],
      "name": "resetDispute",
      "outputs": [],
      "payable": false,
      "stateMutability": "nonpayable",
      "type": "function"
    },
    {
      "constant": false,
      "inputs": [
        {
          "name": "epoch",
          "type": "uint256"
        },
        {
          "name": "blockId",
          "type": "uint256"
        }
      ],
      "name": "finalizeDispute",
      "outputs": [],
      "payable": false,
      "stateMutability": "nonpayable",
      "type": "function"
    },
    {
      "constant": false,
      "inputs": [
        {
          "name": "epoch",
          "type": "uint256"
        }
      ],
      "name": "setEpoch",
      "outputs": [],
      "payable": false,
      "stateMutability": "nonpayable",
      "type": "function"
    },
    {
      "constant": false,
      "inputs": [
        {
          "name": "state",
          "type": "uint256"
        }
      ],
      "name": "setState",
      "outputs": [],
      "payable": false,
      "stateMutability": "nonpayable",
      "type": "function"
    },
    {
      "constant": false,
      "inputs": [],
      "name": "dum",
      "outputs": [],
      "payable": false,
      "stateMutability": "nonpayable",
      "type": "function"
    },
    {
      "constant": true,
      "inputs": [],
      "name": "getEpoch",
      "outputs": [
        {
          "name": "",
          "type": "uint256"
        }
      ],
      "payable": false,
      "stateMutability": "view",
      "type": "function"
    },
    {
      "constant": true,
      "inputs": [],
      "name": "getState",
      "outputs": [
        {
          "name": "",
          "type": "uint256"
        }
      ],
      "payable": false,
      "stateMutability": "view",
      "type": "function"
    },
    {
      "constant": true,
      "inputs": [
        {
          "name": "assetId",
          "type": "uint256"
        }
      ],
      "name": "getPrice",
      "outputs": [
        {
          "name": "",
          "type": "uint256"
        }
      ],
      "payable": false,
      "stateMutability": "view",
      "type": "function"
    },
    {
      "constant": true,
      "inputs": [
        {
          "name": "epochs",
          "type": "uint256"
        },
        {
          "name": "stakeValue",
          "type": "uint256"
        }
      ],
      "name": "calculateInactivityPenalties",
      "outputs": [
        {
          "name": "",
          "type": "uint256"
        }
      ],
      "payable": false,
      "stateMutability": "view",
      "type": "function"
    }
  ],
  "bytecode": "0x60806040526000600a556000600b556000600e556000600f553480156200002557600080fd5b5060405162005d9538038062005d9583398181016040526200004b9190810190620000aa565b80600960006101000a81548173ffffffffffffffffffffffffffffffffffffffff021916908373ffffffffffffffffffffffffffffffffffffffff1602179055505062000124565b600081519050620000a4816200010a565b92915050565b600060208284031215620000bd57600080fd5b6000620000cd8482850162000093565b91505092915050565b6000620000e382620000ea565b9050919050565b600073ffffffffffffffffffffffffffffffffffffffff82169050919050565b6200011581620000d6565b81146200012157600080fd5b50565b615c6180620001346000396000f3fe608060405234801561001057600080fd5b50600436106102065760003560e01c8063757991a81161011a57806392b48411116100ad578063c486456c1161007c578063c486456c1461060d578063d13e2e601461062b578063e75722301461065b578063f25b3f991461068b578063f2f03877146106be57610206565b806392b484111461058257806394ca304b146105b5578063a0dc2758146105d3578063a9e966b7146105f157610206565b80638a757ecc116100e95780638a757ecc146104e65780638b0e9f3f146105165780638d0e52c0146105345780638fd5ff001461055257610206565b8063757991a81461045d5780637b0472f01461047b5780637e63809c14610497578063828496d6146104b357610206565b80632b3c9efd1161019d5780634a44bdb81161016c5780634a44bdb8146103ca5780634e6753b7146103fd5780635ce8772f1461041957806366666aa9146104355780636bf844e91461045357610206565b80632b3c9efd146103465780632e17de78146103765780632e1a7d4d146103925780633cd32fd4146103ae57610206565b80631a69f008116101d95780631a69f0081461027f5780631c53c280146102af5780631d69ff9b146102e5578063283e29051461031557610206565b80630ceb2cef1461020b5780630ec88d3f14610227578063125f68f1146102455780631865c57d14610261575b600080fd5b6102256004803603610220919081019061459b565b6106da565b005b61022f6106e4565b60405161023c91906157e7565b60405180910390f35b61025f600480360361025a91908101906146e0565b6106ea565b005b610269610d53565b60405161027691906157e7565b60405180910390f35b61029960048036036102949190810190614799565b610d5d565b6040516102a691906157e7565b60405180910390f35b6102c960048036036102c4919081019061459b565b610ee3565b6040516102dc9796959493929190615992565b60405180910390f35b6102ff60048036036102fa919081019061483c565b610f25565b60405161030c9190615391565b60405180910390f35b61032f600480360361032a919081019061483c565b61114e565b60405161033d92919061584e565b60405180910390f35b610360600480360361035b9190810190614520565b61118c565b60405161036d91906157e7565b60405180910390f35b610390600480360361038b919081019061459b565b6111a4565b005b6103ac60048036036103a7919081019061459b565b6113b5565b005b6103c860048036036103c39190810190614799565b611893565b005b6103e460048036036103df9190810190614799565b611bff565b6040516103f49493929190615802565b60405180910390f35b610417600480360361041291908101906147d5565b611dc4565b005b610433600480360361042e919081019061459b565b612392565b005b61043d612549565b60405161044a91906157e7565b60405180910390f35b61045b61254f565b005b610465612551565b60405161047291906157e7565b60405180910390f35b61049560048036036104909190810190614799565b61255b565b005b6104b160048036036104ac9190810190614629565b612b83565b005b6104cd60048036036104c891908101906145ed565b612ec3565b6040516104dd949392919061594d565b60405180910390f35b61050060048036036104fb9190810190614799565b612f00565b60405161050d91906157e7565b60405180910390f35b61051e612f25565b60405161052b91906157e7565b60405180910390f35b61053c612f2b565b60405161054991906152ed565b60405180910390f35b61056c6004803603610567919081019061483c565b612f51565b60405161057991906157e7565b60405180910390f35b61059c60048036036105979190810190614799565b612f83565b6040516105ac9493929190615908565b60405180910390f35b6105bd612fda565b6040516105ca91906157e7565b60405180910390f35b6105db612fe0565b6040516105e891906157e7565b60405180910390f35b61060b6004803603610606919081019061459b565b612fe6565b005b610615612ff0565b60405161062291906157e7565b60405180910390f35b61064560048036036106409190810190614799565b612ff6565b60405161065291906153ac565b60405180910390f35b6106756004803603610670919081019061459b565b61301b565b60405161068291906157e7565b60405180910390f35b6106a560048036036106a0919081019061459b565b61305f565b6040516106b59493929190615908565b60405180910390f35b6106d860048036036106d391908101906146a4565b61309c565b005b80600c8190555050565b600f5481565b856106f3612551565b8114610734576040517f08c379a000000000000000000000000000000000000000000000000000000000815260040161072b90615647565b60405180910390fd5b60008060008473ffffffffffffffffffffffffffffffffffffffff1673ffffffffffffffffffffffffffffffffffffffff168152602001908152602001600020549050600081116107ba576040517f08c379a00000000000000000000000000000000000000000000000000000000081526004016107b190615447565b60405180910390fd5b60006001600083815260200190815260200160002090506000801b600260008b8152602001908152602001600020600084815260200190815260200160002054141561083b576040517f08c379a000000000000000000000000000000000000000000000000000000000815260040161083290615687565b60405180910390fd5b600260008a8152602001908152602001600020600083815260200190815260200160002054898987604051602001610875939291906152b0565b60405160208183030381529060405280519060200120146108cb576040517f08c379a00000000000000000000000000000000000000000000000000000000081526004016108c290615427565b60405180910390fd5b8373ffffffffffffffffffffffffffffffffffffffff163373ffffffffffffffffffffffffffffffffffffffff161415610c4a5760008090505b8751811015610b015761096587828151811061091d57fe5b60200260200101518a8a848151811061093257fe5b602002602001015160405160200161094a9190615295565b60405160208183030381529060405280519060200120613529565b61096e57600080fd5b604051806040016040528089838151811061098557fe5b602002602001015181526020018360010154815250600360008c8152602001908152602001600020600085815260200190815260200160002060008381526020019081526020016000206000820151816000015560208201518160010155905050610a458260010154600660008d8152602001908152602001600020600084815260200190815260200160002060008b8581518110610a2057fe5b60200260200101518152602001908152602001600020546135d690919063ffffffff16565b600660008c8152602001908152602001600020600083815260200190815260200160002060008a8481518110610a7757fe5b6020026020010151815260200190815260200160002081905550610acc8260010154600460008d81526020019081526020016000206000848152602001908152602001600020546135d690919063ffffffff16565b600460008c81526020019081526020016000206000838152602001908152602001600020819055508080600101915050610905565b5073__Constants_____________________________63a475b5dd6040518163ffffffff1660e01b815260040160206040518083038186803b158015610b4657600080fd5b505af4158015610b5a573d6000803e3d6000fd5b505050506040513d601f19601f82011682018060405250610b7e919081019061488b565b60ff16610b89610d53565b14610bc9576040517f08c379a0000000000000000000000000000000000000000000000000000000008152600401610bc0906154c7565b60405180910390fd5b6000816001015411610c10576040517f08c379a0000000000000000000000000000000000000000000000000000000008152600401610c0790615467565b60405180910390fd5b6000801b600260008b8152602001908152602001600020600084815260200190815260200160002081905550888160040181905550610d48565b73__Constants_____________________________633c7a3aff6040518163ffffffff1660e01b815260040160206040518083038186803b158015610c8e57600080fd5b505af4158015610ca2573d6000803e3d6000fd5b505050506040513d601f19601f82011682018060405250610cc6919081019061488b565b60ff16610cd1610d53565b14610d11576040517f08c379a0000000000000000000000000000000000000000000000000000000008152600401610d08906155c7565b60405180910390fd5b6000801b600260008b8152602001908152602001600020600084815260200190815260200160002081905550610d47823361362b565b5b505050505050505050565b6000600d54905090565b60006002831015610d7057819050610edd565b6000610eb2610e9073__Constants_____________________________63b1cc45006040518163ffffffff1660e01b815260040160206040518083038186803b158015610dbc57600080fd5b505af4158015610dd0573d6000803e3d6000fd5b505050506040513d601f19601f82011682018060405250610df491908101906145c4565b610e8273__Constants_____________________________63a86f5a3f6040518163ffffffff1660e01b815260040160206040518083038186803b158015610e3b57600080fd5b505af4158015610e4f573d6000803e3d6000fd5b505050506040513d601f19601f82011682018060405250610e7391908101906145c4565b8761384690919063ffffffff16565b61379390919063ffffffff16565b610ea46001876138b690919063ffffffff16565b61384690919063ffffffff16565b905082811015610ed757610ecf81846138b690919063ffffffff16565b915050610edd565b60009150505b92915050565b60016020528060005260406000206000915090508060000154908060010154908060020154908060030154908060040154908060050154908060060154905087565b600081610fee600173__Random________________________________635075dbfb600a80548a604051602001610f5c91906157e7565b604051602081830303815290604052805190602001206040518463ffffffff1660e01b8152600401610f90939291906153f0565b60206040518083038186803b158015610fa857600080fd5b505af4158015610fbc573d6000803e3d6000fd5b505050506040513d601f19601f82011682018060405250610fe091908101906145c4565b6135d690919063ffffffff16565b14610ffc5760009050611147565b600073__Random________________________________63b07ceab8600a858860405160200161102d92919061584e565b604051602081830303815290604052805190602001206040518363ffffffff1660e01b81526004016110609291906153c7565b60206040518083038186803b15801561107857600080fd5b505af415801561108c573d6000803e3d6000fd5b505050506040513d601f19601f820116820180604052506110b09190810190614572565b905060006110cf6401000000008360001c6137ef90919063ffffffff16565b905060006001600087815260200190815260200160002060010154905061111a640100000000600160008881526020019081526020016000206001015461384690919063ffffffff16565b61112d828461384690919063ffffffff16565b111561113f5760009350505050611147565b600193505050505b9392505050565b600360205282600052604060002060205281600052604060002060205280600052604060002060009250925050508060000154908060010154905082565b60006020528060005260406000206000915090505481565b806111ad612551565b81146111ee576040517f08c379a00000000000000000000000000000000000000000000000000000000081526004016111e590615647565b60405180910390fd5b60016111f8610d53565b141561120357600080fd5b60008060003373ffffffffffffffffffffffffffffffffffffffff1673ffffffffffffffffffffffffffffffffffffffff168152602001908152602001600020549050600060016000838152602001908152602001600020905060008160000154141561126f57600080fd5b60008160010154116112b6576040517f08c379a00000000000000000000000000000000000000000000000000000000081526004016112ad906155a7565b60405180910390fd5b838160050154111580156112cf57506000816005015414155b6112d857600080fd5b6000816005018190555061137073__Constants_____________________________632628490f6040518163ffffffff1660e01b815260040160206040518083038186803b15801561132957600080fd5b505af415801561133d573d6000803e3d6000fd5b505050506040513d601f19601f8201168201806040525061136191908101906145c4565b856135d690919063ffffffff16565b81600601819055507f11725367022c3ff288940f4b5473aa61c2da6a24af7363a1128ee2401e8983b2826040516113a791906157e7565b60405180910390a150505050565b806113be612551565b81146113ff576040517f08c379a00000000000000000000000000000000000000000000000000000000081526004016113f690615647565b60405180910390fd5b73__Constants_____________________________633c7a3aff6040518163ffffffff1660e01b815260040160206040518083038186803b15801561144357600080fd5b505af4158015611457573d6000803e3d6000fd5b505050506040513d601f19601f8201168201806040525061147b919081019061488b565b60ff16611486610d53565b81146114c7576040517f08c379a00000000000000000000000000000000000000000000000000000000081526004016114be90615747565b60405180910390fd5b60008060003373ffffffffffffffffffffffffffffffffffffffff1673ffffffffffffffffffffffffffffffffffffffff1681526020019081526020016000205490506000600160008381526020019081526020016000209050600081600001541415611569576040517f08c379a0000000000000000000000000000000000000000000000000000000008152600401611560906154e7565b60405180910390fd5b61157d6001866138b690919063ffffffff16565b8160040154146115c2576040517f08c379a00000000000000000000000000000000000000000000000000000000081526004016115b990615667565b60405180910390fd5b6000816005015414611609576040517f08c379a000000000000000000000000000000000000000000000000000000000815260040161160090615727565b60405180910390fd5b8481600601541115801561162257506000816006015414155b611661576040517f08c379a0000000000000000000000000000000000000000000000000000000008152600401611658906154a7565b60405180910390fd5b6000801b60026000878152602001908152602001600020600084815260200190815260200160002054146116ca576040517f08c379a00000000000000000000000000000000000000000000000000000000081526004016116c190615707565b60405180910390fd5b6116d4818661390c565b50600081600101541161171c576040517f08c379a000000000000000000000000000000000000000000000000000000000815260040161171390615787565b60405180910390fd5b6000600960009054906101000a900473ffffffffffffffffffffffffffffffffffffffff16905061176e6001600085815260200190815260200160002060010154600b546138b690919063ffffffff16565b600b81905550600060016000858152602001908152602001600020600101819055507fe30055f80fbe7b2543e52870ba638ff9e75c7471da9cb6d9eb5a97379195b1ac8360016000868152602001908152602001600020600101546040516117d792919061584e565b60405180910390a18073ffffffffffffffffffffffffffffffffffffffff1663a9059cbb3360016000878152602001908152602001600020600101546040518363ffffffff1660e01b815260040161183092919061533f565b602060405180830381600087803b15801561184a57600080fd5b505af115801561185e573d6000803e3d6000fd5b505050506040513d601f19601f820116820180604052506118829190810190614549565b61188b57600080fd5b505050505050565b8161189c612551565b81146118dd576040517f08c379a00000000000000000000000000000000000000000000000000000000081526004016118d490615647565b60405180910390fd5b73__Constants_____________________________63f240f7c36040518163ffffffff1660e01b815260040160206040518083038186803b15801561192157600080fd5b505af4158015611935573d6000803e3d6000fd5b505050506040513d601f19601f82011682018060405250611959919081019061488b565b60ff16611964610d53565b81146119a5576040517f08c379a000000000000000000000000000000000000000000000000000000000815260040161199c90615747565b60405180910390fd5b60006007600086815260200190815260200160002060003373ffffffffffffffffffffffffffffffffffffffff1673ffffffffffffffffffffffffffffffffffffffff168152602001908152602001600020600301549050600460008681526020019081526020016000206000828152602001908152602001600020546007600087815260200190815260200160002060003373ffffffffffffffffffffffffffffffffffffffff1673ffffffffffffffffffffffffffffffffffffffff1681526020019081526020016000206000015414611a8057600080fd5b60006007600087815260200190815260200160002060003373ffffffffffffffffffffffffffffffffffffffff1673ffffffffffffffffffffffffffffffffffffffff1681526020019081526020016000206001015490506000600860008881526020019081526020016000208681548110611af857fe5b906000526020600020906005020160000154905060008211611b1957600080fd5b81600860008981526020019081526020016000208781548110611b3857fe5b90600052602060002090600502016001018481548110611b5457fe5b906000526020600020015414611bbb576000600860008981526020019081526020016000208781548110611b8457fe5b906000526020600020906005020160040160006101000a81548160ff021916908315150217905550611bb6813361362b565b611bf6565b6040517f08c379a0000000000000000000000000000000000000000000000000000000008152600401611bed906156c7565b60405180910390fd5b50505050505050565b60006060600080611c0e6141fd565b6000861115611ce957600860008881526020019081526020016000206001870381548110611c3857fe5b90600052602060002090600502016040518060a00160405290816000820154815260200160018201805480602002602001604051908101604052809291908181526020018280548015611caa57602002820191906000526020600020905b815481526020019060010190808311611c96575b5050505050815260200160028201548152602001600382015481526020016004820160009054906101000a900460ff1615151515815250509050611d9b565b600560008881526020019081526020016000206040518060a00160405290816000820154815260200160018201805480602002602001604051908101604052809291908181526020018280548015611d6057602002820191906000526020600020905b815481526020019060010190808311611d4c575b5050505050815260200160028201548152602001600382015481526020016004820160009054906101000a900460ff16151515158152505090505b806020015193508060000151848260400151836060015194509450945094505092959194509250565b82611dcd612551565b8114611e0e576040517f08c379a0000000000000000000000000000000000000000000000000000000008152600401611e0590615647565b60405180910390fd5b73__Constants_____________________________63f240f7c36040518163ffffffff1660e01b815260040160206040518083038186803b158015611e5257600080fd5b505af4158015611e66573d6000803e3d6000fd5b505050506040513d601f19601f82011682018060405250611e8a919081019061488b565b60ff16611e95610d53565b8114611ed6576040517f08c379a0000000000000000000000000000000000000000000000000000000008152600401611ecd90615747565b60405180910390fd5b6000611f1060026004600089815260200190815260200160002060008881526020019081526020016000205461379390919063ffffffff16565b905060006007600088815260200190815260200160002060003373ffffffffffffffffffffffffffffffffffffffff1673ffffffffffffffffffffffffffffffffffffffff16815260200190815260200160002060000154905060006007600089815260200190815260200160002060003373ffffffffffffffffffffffffffffffffffffffff1673ffffffffffffffffffffffffffffffffffffffff1681526020019081526020016000206002015490506000600760008a815260200190815260200160002060003373ffffffffffffffffffffffffffffffffffffffff1673ffffffffffffffffffffffffffffffffffffffff16815260200190815260200160002060000154141561207b5786600760008a815260200190815260200160002060003373ffffffffffffffffffffffffffffffffffffffff1673ffffffffffffffffffffffffffffffffffffffff16815260200190815260200160002060030181905550612111565b86600760008a815260200190815260200160002060003373ffffffffffffffffffffffffffffffffffffffff1673ffffffffffffffffffffffffffffffffffffffff1681526020019081526020016000206003015414612110576040517f08c379a0000000000000000000000000000000000000000000000000000000008152600401612107906156a7565b60405180910390fd5b5b60008090505b86518110156122d7578187828151811061212d57fe5b602002602001015111612175576040517f08c379a000000000000000000000000000000000000000000000000000000000815260040161216c90615487565b60405180910390fd5b86818151811061218157fe5b602002602001015191506121e6600660008b815260200190815260200160002060008a815260200190815260200160002060008984815181106121c057fe5b6020026020010151815260200190815260200160002054846135d690919063ffffffff16565b92506000600760008b815260200190815260200160002060003373ffffffffffffffffffffffffffffffffffffffff1673ffffffffffffffffffffffffffffffffffffffff1681526020019081526020016000206001015414801561224a57508383115b156122bb5786818151811061225b57fe5b6020026020010151600760008b815260200190815260200160002060003373ffffffffffffffffffffffffffffffffffffffff1673ffffffffffffffffffffffffffffffffffffffff168152602001908152602001600020600101819055505b6127105a10156122ca576122d7565b8080600101915050612117565b5080600760008a815260200190815260200160002060003373ffffffffffffffffffffffffffffffffffffffff1673ffffffffffffffffffffffffffffffffffffffff1681526020019081526020016000206002018190555081600760008a815260200190815260200160002060003373ffffffffffffffffffffffffffffffffffffffff1673ffffffffffffffffffffffffffffffffffffffff168152602001908152602001600020600001819055505050505050505050565b8061239b612551565b81146123dc576040517f08c379a00000000000000000000000000000000000000000000000000000000081526004016123d390615647565b60405180910390fd5b73__Constants_____________________________63f240f7c36040518163ffffffff1660e01b815260040160206040518083038186803b15801561242057600080fd5b505af4158015612434573d6000803e3d6000fd5b505050506040513d601f19601f82011682018060405250612458919081019061488b565b60ff16612463610d53565b81146124a4576040517f08c379a000000000000000000000000000000000000000000000000000000000815260040161249b90615747565b60405180910390fd5b604051806080016040528060008152602001600081526020016000815260200160008152506007600085815260200190815260200160002060003373ffffffffffffffffffffffffffffffffffffffff1673ffffffffffffffffffffffffffffffffffffffff16815260200190815260200160002060008201518160000155602082015181600101556040820151816002015560608201518160030155905050505050565b600e5481565b565b6000600c54905090565b81612564612551565b81146125a5576040517f08c379a000000000000000000000000000000000000000000000000000000000815260040161259c90615647565b60405180910390fd5b73__Constants_____________________________633c7a3aff6040518163ffffffff1660e01b815260040160206040518083038186803b1580156125e957600080fd5b505af41580156125fd573d6000803e3d6000fd5b505050506040513d601f19601f82011682018060405250612621919081019061488b565b60ff1661262c610d53565b811461266d576040517f08c379a000000000000000000000000000000000000000000000000000000000815260040161266490615747565b60405180910390fd5b6000600960009054906101000a900473ffffffffffffffffffffffffffffffffffffffff16905073__Constants_____________________________63a475b5dd6040518163ffffffff1660e01b815260040160206040518083038186803b1580156126d857600080fd5b505af41580156126ec573d6000803e3d6000fd5b505050506040513d601f19601f82011682018060405250612710919081019061488b565b60ff1661271b610d53565b141561272657600080fd5b73__Constants_____________________________63375b3c0a6040518163ffffffff1660e01b815260040160206040518083038186803b15801561276a57600080fd5b505af415801561277e573d6000803e3d6000fd5b505050506040513d601f19601f820116820180604052506127a291908101906145c4565b8410156127e4576040517f08c379a00000000000000000000000000000000000000000000000000000000081526004016127db906157a7565b60405180910390fd5b8073ffffffffffffffffffffffffffffffffffffffff166323b872dd3330876040518463ffffffff1660e01b815260040161282193929190615308565b602060405180830381600087803b15801561283b57600080fd5b505af115801561284f573d6000803e3d6000fd5b505050506040513d601f19601f820116820180604052506128739190810190614549565b6128b2576040517f08c379a00000000000000000000000000000000000000000000000000000000081526004016128a990615607565b60405180910390fd5b60008060003373ffffffffffffffffffffffffffffffffffffffff1673ffffffffffffffffffffffffffffffffffffffff1681526020019081526020016000205490506000811415612a8a576129146001600a546135d690919063ffffffff16565b600a819055506040518060e00160405280600a54815260200186815260200187815260200160008152602001600081526020016129d573__Constants_____________________________6326bf1c036040518163ffffffff1660e01b815260040160206040518083038186803b15801561298e57600080fd5b505af41580156129a2573d6000803e3d6000fd5b505050506040513d601f19601f820116820180604052506129c691908101906145c4565b896135d690919063ffffffff16565b8152602001600081525060016000600a548152602001908152602001600020600082015181600001556020820151816001015560408201518160020155606082015181600301556080820151816004015560a0820151816005015560c08201518160060155905050600a549050806000803373ffffffffffffffffffffffffffffffffffffffff1673ffffffffffffffffffffffffffffffffffffffff16815260200190815260200160002081905550612b27565b6000600160008381526020019081526020016000206001015411612ae3576040517f08c379a0000000000000000000000000000000000000000000000000000000008152600401612ada90615767565b60405180910390fd5b612b0c8560016000848152602001908152602001600020600101546135d690919063ffffffff16565b60016000838152602001908152602001600020600101819055505b612b3c85600b546135d690919063ffffffff16565b600b819055507f925435fa7e37e5d9555bb18ce0d62bb9627d0846942e58e5291e9a2dded462ed8186604051612b7392919061584e565b60405180910390a1505050505050565b83612b8c612551565b8114612bcd576040517f08c379a0000000000000000000000000000000000000000000000000000000008152600401612bc490615647565b60405180910390fd5b73__Constants_____________________________63c198f8ba6040518163ffffffff1660e01b815260040160206040518083038186803b158015612c1157600080fd5b505af4158015612c25573d6000803e3d6000fd5b505050506040513d601f19601f82011682018060405250612c49919081019061488b565b60ff16612c54610d53565b8114612c95576040517f08c379a0000000000000000000000000000000000000000000000000000000008152600401612c8c90615747565b60405180910390fd5b60008060003373ffffffffffffffffffffffffffffffffffffffff1673ffffffffffffffffffffffffffffffffffffffff168152602001908152602001600020549050612ce3858583610f25565b612d22576040517f08c379a0000000000000000000000000000000000000000000000000000000008152600401612d1990615527565b60405180910390fd5b73__Constants_____________________________63375b3c0a6040518163ffffffff1660e01b815260040160206040518083038186803b158015612d6657600080fd5b505af4158015612d7a573d6000803e3d6000fd5b505050506040513d601f19601f82011682018060405250612d9e91908101906145c4565b60016000838152602001908152602001600020600101541015612df6576040517f08c379a0000000000000000000000000000000000000000000000000000000008152600401612ded906156e7565b60405180910390fd5b6000612e41886040518060a001604052808581526020018a8152602001898152602001600160008a815260200190815260200160002060010154815260200160011515815250613d1d565b90507fa63f6e5f3b8cca289dfc8649ede8fbf4eeb9991f44d7bc70c3fb53b128521a5881604051612e7291906157e7565b60405180910390a17ffb750a2a8aed92f932bb76b78077f486a1d583d286b29c3afb9ae793a69c63aa8883898989604051612eb1959493929190615877565b60405180910390a15050505050505050565b6007602052816000526040600020602052806000526040600020600091509150508060000154908060010154908060020154908060030154905084565b6004602052816000526040600020602052806000526040600020600091509150505481565b600b5481565b600960009054906101000a900473ffffffffffffffffffffffffffffffffffffffff1681565b600660205282600052604060002060205281600052604060002060205280600052604060002060009250925050505481565b60086020528160005260406000208181548110612f9c57fe5b9060005260206000209060050201600091509150508060000154908060020154908060030154908060040160009054906101000a900460ff16905084565b600a5481565b600c5481565b80600d8190555050565b600d5481565b6002602052816000526040600020602052806000526040600020600091509150505481565b600080613026612551565b905060056000600183038152602001908152602001600020600101838154811061304c57fe5b9060005260206000200154915050919050565b60056020528060005260406000206000915090508060000154908060020154908060030154908060040160009054906101000a900460ff16905084565b816130a5612551565b81146130e6576040517f08c379a00000000000000000000000000000000000000000000000000000000081526004016130dd90615647565b60405180910390fd5b73__Constants_____________________________633c7a3aff6040518163ffffffff1660e01b815260040160206040518083038186803b15801561312a57600080fd5b505af415801561313e573d6000803e3d6000fd5b505050506040513d601f19601f82011682018060405250613162919081019061488b565b60ff1661316d610d53565b81146131ae576040517f08c379a00000000000000000000000000000000000000000000000000000000081526004016131a590615747565b60405180910390fd5b60008060003373ffffffffffffffffffffffffffffffffffffffff1673ffffffffffffffffffffffffffffffffffffffff1681526020019081526020016000205490506000801b600260008781526020019081526020016000206000838152602001908152602001600020541461325a576040517f08c379a0000000000000000000000000000000000000000000000000000000008152600401613251906157c7565b60405180910390fd5b6000600160008381526020019081526020016000209050600060056000600189038152602001908152602001600020600001541480156132b3575060006008600060018903815260200190815260200160002080549050115b156133e75760008090505b60086000600189038152602001908152602001600020805490508160ff1610156133e557600860006001890381526020019081526020016000208160ff168154811061330657fe5b906000526020600020906005020160040160009054906101000a900460ff16156133d857600860006001890381526020019081526020016000208160ff168154811061334e57fe5b90600052602060002090600502016005600060018a03815260200190815260200160002060008201548160000155600182018160010190805461339292919061422e565b5060028201548160020155600382015481600301556004820160009054906101000a900460ff168160040160006101000a81548160ff0219169083151502179055509050505b80806001019150506132be565b505b60006133f3828861390c565b90507fa63f6e5f3b8cca289dfc8649ede8fbf4eeb9991f44d7bc70c3fb53b128521a588160405161342491906157e7565b60405180910390a173__Constants_____________________________63375b3c0a6040518163ffffffff1660e01b815260040160206040518083038186803b15801561347057600080fd5b505af4158015613484573d6000803e3d6000fd5b505050506040513d601f19601f820116820180604052506134a891908101906145c4565b8260010154106135205785600260008981526020019081526020016000206000858152602001908152602001600020819055508682600301819055507fdad4a6987898eb6021100d7006409b112ed5ba7b73761d6867ea5d02cd85c499878488604051613517939291906158d1565b60405180910390a15b50505050505050565b60008082905060008090505b85518110156135c857600086828151811061354c57fe5b602002602001015190508083101561358e578281604051602001613571929190615269565b6040516020818303038152906040528051906020012092506135ba565b80836040516020016135a1929190615269565b6040516020818303038152906040528051906020012092505b508080600101915050613535565b508381149150509392505050565b600080828401905083811015613621576040517f08c379a000000000000000000000000000000000000000000000000000000000815260040161361890615507565b60405180910390fd5b8091505092915050565b6000600960009054906101000a900473ffffffffffffffffffffffffffffffffffffffff169050600061367e6002600160008781526020019081526020016000206001015461379390919063ffffffff16565b905060006001600086815260200190815260200160002060010181905550600181111561378d576136ba81600b546138b690919063ffffffff16565b600b819055508173ffffffffffffffffffffffffffffffffffffffff1663a9059cbb84836040518363ffffffff1660e01b81526004016136fb929190615368565b602060405180830381600087803b15801561371557600080fd5b505af1158015613729573d6000803e3d6000fd5b505050506040513d601f19601f8201168201806040525061374d9190810190614549565b61378c576040517f08c379a000000000000000000000000000000000000000000000000000000000815260040161378390615547565b60405180910390fd5b5b50505050565b60008082116137d7576040517f08c379a00000000000000000000000000000000000000000000000000000000081526004016137ce90615587565b60405180910390fd5b60008284816137e257fe5b0490508091505092915050565b600080821415613834576040517f08c379a000000000000000000000000000000000000000000000000000000000815260040161382b906155e7565b60405180910390fd5b81838161383d57fe5b06905092915050565b60008083141561385957600090506138b0565b600082840290508284828161386a57fe5b04146138ab576040517f08c379a00000000000000000000000000000000000000000000000000000000081526004016138a290615627565b60405180910390fd5b809150505b92915050565b6000828211156138fb576040517f08c379a00000000000000000000000000000000000000000000000000000000081526004016138f290615567565b60405180910390fd5b600082840390508091505092915050565b600080836004015490506001831180156139265750600081115b15613d15576000846004015485600201541061394657846002015461394c565b84600401545b9050600061396382866138b690919063ffffffff16565b90506000866001015490506139788282610d5d565b87600101819055506060600560008681526020019081526020016000206001018054806020026020016040519081016040528092919081815260200182805480156139e257602002820191906000526020600020905b8154815260200190600101908083116139ce575b50505050509050600081511115613d1057600080600090505b8251811015613c645760006003600089815260200190815260200160002060008c60000154815260200190815260200160002060008381526020019081526020016000206000015490506000848381518110613a5357fe5b60200260200101519050613a7160028261384690919063ffffffff16565b821115613aaf5760008c60010181905550613a9786600e546135d690919063ffffffff16565b600e8190555060009950505050505050505050613d17565b600082118015613c1b5750613b5b6064613b4d73__Constants_____________________________632e7d68576040518163ffffffff1660e01b815260040160206040518083038186803b158015613b0657600080fd5b505af4158015613b1a573d6000803e3d6000fd5b505050506040513d601f19601f82011682018060405250613b3e91908101906145c4565b8461384690919063ffffffff16565b61379390919063ffffffff16565b821080613c1a5750613c176064613c09613bfa73__Constants_____________________________632e7d68576040518163ffffffff1660e01b815260040160206040518083038186803b158015613bb257600080fd5b505af4158015613bc6573d6000803e3d6000fd5b505050506040513d601f19601f82011682018060405250613bea91908101906145c4565b60c86138b690919063ffffffff16565b8461384690919063ffffffff16565b61379390919063ffffffff16565b82115b5b15613c555781811115613c40578082820360640281613c3657fe5b0484019350613c54565b8081830360640281613c4e57fe5b04840193505b5b505080806001019150506139fb565b506000811115613cf357613cac613c9d8351606402613c8f866001860361384690919063ffffffff16565b61379390919063ffffffff16565b846138b690919063ffffffff16565b8960010181905550613cdf613cce8a60010154856138b690919063ffffffff16565b600e546135d690919063ffffffff16565b600e81905550809650505050505050613d17565b613d0883600f546135d690919063ffffffff16565b600f81905550505b505050505b505b92915050565b60008060086000858152602001908152602001600020805490501415613de357600860008481526020019081526020016000208290806001815401808255809150509060018203906000526020600020906005020160009091929091909150600082015181600001556020820151816001019080519060200190613da2929190614280565b50604082015181600201556060820151816003015560808201518160040160006101000a81548160ff021916908315150217905550505050600090506141f7565b60006008600085815260200190815260200160002080549050905060008090505b6008600086815260200190815260200160002080549050811015613eb5578360600151600860008781526020019081526020016000208281548110613e4557fe5b9060005260206000209060050201600301541015613e6557809150613eb5565b8360400151600860008781526020019081526020016000208281548110613e8857fe5b9060005260206000209060050201600201541115613ea857809150613eb5565b8080600101915050613e04565b50600860008581526020019081526020016000208390806001815401808255809150509060018203906000526020600020906005020160009091929091909150600082015181600001556020820151816001019080519060200190613f1b929190614280565b50604082015181600201556060820151816003015560808201518160040160006101000a81548160ff0219169083151502179055505050506000600160086000878152602001908152602001600020805490500390505b8181111561404857600860008681526020019081526020016000206001820381548110613f9b57fe5b9060005260206000209060050201600860008781526020019081526020016000208281548110613fc757fe5b9060005260206000209060050201600082015481600001556001820181600101908054613ff592919061422e565b5060028201548160020155600382015481600301556004820160009054906101000a900460ff168160040160006101000a81548160ff021916908315150217905550905050808060019003915050613f72565b508260086000868152602001908152602001600020828154811061406857fe5b906000526020600020906005020160008201518160000155602082015181600101908051906020019061409c929190614280565b50604082015181600201556060820151816003015560808201518160040160006101000a81548160ff02191690831515021790555090505073__Constants_____________________________63379597e06040518163ffffffff1660e01b815260040160206040518083038186803b15801561411857600080fd5b505af415801561412c573d6000803e3d6000fd5b505050506040513d601f19601f8201168201806040525061415091908101906145c4565b600860008681526020019081526020016000208054905011156141f257600860008581526020019081526020016000206001600860008781526020019081526020016000208054905003815481106141a457fe5b90600052602060002090600502016000808201600090556001820160006141cb91906142cd565b600282016000905560038201600090556004820160006101000a81549060ff021916905550505b809150505b92915050565b6040518060a00160405280600081526020016060815260200160008152602001600081526020016000151581525090565b82805482825590600052602060002090810192821561426f5760005260206000209182015b8281111561426e578254825591600101919060010190614253565b5b50905061427c91906142ee565b5090565b8280548282559060005260206000209081019282156142bc579160200282015b828111156142bb5782518255916020019190600101906142a0565b5b5090506142c991906142ee565b5090565b50805460008255906000526020600020908101906142eb91906142ee565b50565b61431091905b8082111561430c5760008160009055506001016142f4565b5090565b90565b60008135905061432281615bab565b92915050565b600082601f83011261433957600080fd5b813561434c61434782615a2e565b615a01565b9150818183526020840193506020810190508360005b838110156143925781358601614378888261439c565b845260208401935060208301925050600181019050614362565b5050505092915050565b600082601f8301126143ad57600080fd5b81356143c06143bb82615a56565b615a01565b915081818352602084019350602081019050838560208402820111156143e557600080fd5b60005b8381101561441557816143fb88826144b7565b8452602084019350602083019250506001810190506143e8565b5050505092915050565b600082601f83011261443057600080fd5b813561444361443e82615a7e565b615a01565b9150818183526020840193506020810190508385602084028201111561446857600080fd5b60005b83811015614498578161447e88826144e1565b84526020840193506020830192505060018101905061446b565b5050505092915050565b6000815190506144b181615bc2565b92915050565b6000813590506144c681615bd9565b92915050565b6000815190506144db81615bd9565b92915050565b6000813590506144f081615bf0565b92915050565b60008151905061450581615bf0565b92915050565b60008151905061451a81615c07565b92915050565b60006020828403121561453257600080fd5b600061454084828501614313565b91505092915050565b60006020828403121561455b57600080fd5b6000614569848285016144a2565b91505092915050565b60006020828403121561458457600080fd5b6000614592848285016144cc565b91505092915050565b6000602082840312156145ad57600080fd5b60006145bb848285016144e1565b91505092915050565b6000602082840312156145d657600080fd5b60006145e4848285016144f6565b91505092915050565b6000806040838503121561460057600080fd5b600061460e858286016144e1565b925050602061461f85828601614313565b9150509250929050565b6000806000806080858703121561463f57600080fd5b600061464d878288016144e1565b945050602085013567ffffffffffffffff81111561466a57600080fd5b6146768782880161441f565b9350506040614687878288016144e1565b9250506060614698878288016144e1565b91505092959194509250565b600080604083850312156146b757600080fd5b60006146c5858286016144e1565b92505060206146d6858286016144b7565b9150509250929050565b60008060008060008060c087890312156146f957600080fd5b600061470789828a016144e1565b965050602061471889828a016144b7565b955050604087013567ffffffffffffffff81111561473557600080fd5b61474189828a0161441f565b945050606087013567ffffffffffffffff81111561475e57600080fd5b61476a89828a01614328565b935050608061477b89828a016144b7565b92505060a061478c89828a01614313565b9150509295509295509295565b600080604083850312156147ac57600080fd5b60006147ba858286016144e1565b92505060206147cb858286016144e1565b9150509250929050565b6000806000606084860312156147ea57600080fd5b60006147f8868287016144e1565b9350506020614809868287016144e1565b925050604084013567ffffffffffffffff81111561482657600080fd5b6148328682870161441f565b9150509250925092565b60008060006060848603121561485157600080fd5b600061485f868287016144e1565b9350506020614870868287016144e1565b9250506040614881868287016144e1565b9150509250925092565b60006020828403121561489d57600080fd5b60006148ab8482850161450b565b91505092915050565b60006148c08383615225565b60208301905092915050565b6148d581615b4f565b82525050565b6148e481615af0565b82525050565b60006148f582615ab6565b6148ff8185615ace565b935061490a83615aa6565b8060005b8381101561493b57815161492288826148b4565b975061492d83615ac1565b92505060018101905061490e565b5085935050505092915050565b61495181615b02565b82525050565b61496081615b0e565b82525050565b61496f81615b0e565b82525050565b61498661498182615b0e565b615b97565b82525050565b61499581615b61565b82525050565b60006149a8601683615adf565b91507f696e636f7272656374207365637265742f76616c7565000000000000000000006000830152602082019050919050565b60006149e8601383615adf565b91507f4e6f646520646f6573206e6f74206578697374000000000000000000000000006000830152602082019050919050565b6000614a28601183615adf565b91507f6e6f6e706f736974697665207374616b650000000000000000000000000000006000830152602082019050919050565b6000614a68602983615adf565b91507f736f727465645b695d206973206e6f742067726561746572207468616e206c6160008301527f73745669736974656400000000000000000000000000000000000000000000006020830152604082019050919050565b6000614ace601a83615adf565b91507f57697468647261772065706f6368206e6f7420726561636865640000000000006000830152602082019050919050565b6000614b0e601083615adf565b91507f4e6f742072657665616c207374617465000000000000000000000000000000006000830152602082019050919050565b6000614b4e601183615adf565b91507f6e6f646520646f65736e742065786973740000000000000000000000000000006000830152602082019050919050565b6000614b8e601b83615adf565b91507f536166654d6174683a206164646974696f6e206f766572666c6f7700000000006000830152602082019050919050565b6000614bce600b83615adf565b91507f6e6f7420656c65637465640000000000000000000000000000000000000000006000830152602082019050919050565b6000614c0e601983615adf565b91507f6661696c656420746f207472616e7366657220626f756e7479000000000000006000830152602082019050919050565b6000614c4e601e83615adf565b91507f536166654d6174683a207375627472616374696f6e206f766572666c6f7700006000830152602082019050919050565b6000614c8e601a83615adf565b91507f536166654d6174683a206469766973696f6e206279207a65726f0000000000006000830152602082019050919050565b6000614cce601183615adf565b91507f4e6f6e706f736974697665207374616b650000000000000000000000000000006000830152602082019050919050565b6000614d0e601083615adf565b91507f4e6f7420636f6d6d6974207374617465000000000000000000000000000000006000830152602082019050919050565b6000614d4e601883615adf565b91507f536166654d6174683a206d6f64756c6f206279207a65726f00000000000000006000830152602082019050919050565b6000614d8e601383615adf565b91507f736368207472616e73666572206661696c6564000000000000000000000000006000830152602082019050919050565b6000614dce602183615adf565b91507f536166654d6174683a206d756c7469706c69636174696f6e206f766572666c6f60008301527f77000000000000000000000000000000000000000000000000000000000000006020830152604082019050919050565b6000614e34600f83615adf565b91507f696e636f72726563742065706f636800000000000000000000000000000000006000830152602082019050919050565b6000614e74601a83615adf565b91507f4469646e742072657665616c20696e206c6173742065706f63680000000000006000830152602082019050919050565b6000614eb4602083615adf565b91507f6e6f7420636f6d6d69746564206f7220616c72656164792072657665616c65646000830152602082019050919050565b6000614ef4601483615adf565b91507f41737365744964206e6f74206d61746368696e670000000000000000000000006000830152602082019050919050565b6000614f34603783615adf565b91507f50726f706f73656420416c7465726e61746520626c6f636b206973206964656e60008301527f746963616c20746f2070726f706f73656420626c6f636b0000000000000000006020830152604082019050919050565b6000614f9a601983615adf565b91507f7374616b652062656c6f77206d696e696d756d207374616b65000000000000006000830152602082019050919050565b6000614fda602a83615adf565b91507f616c726561647920636f6d6d6974656420746869732065706f63682e2043616e60008301527f74207769746864726177000000000000000000000000000000000000000000006020830152604082019050919050565b6000615040600f83615adf565b91507f446964206e6f7420756e7374616b6500000000000000000000000000000000006000830152602082019050919050565b6000615080600f83615adf565b91507f696e636f727265637420737461746500000000000000000000000000000000006000830152602082019050919050565b60006150c0604d83615adf565b91507f616464696e67207374616b65206973206e6f7420706f737369626c652061667460008301527f6572207769746864726177616c2f736c6173682e20506c65617365207573652060208301527f61206e65772061646472657373000000000000000000000000000000000000006040830152606082019050919050565b600061514c601183615adf565b91507f4e6f6e706f736974697665205374616b650000000000000000000000000000006000830152602082019050919050565b600061518c603183615adf565b91507f7374616b656420616d6f756e74206973206c657373207468616e206d696e696d60008301527f756d207374616b652072657175697265640000000000000000000000000000006020830152604082019050919050565b60006151f2601083615adf565b91507f616c726561647920636f6d6d69746564000000000000000000000000000000006000830152602082019050919050565b61522e81615b38565b82525050565b61523d81615b38565b82525050565b61524c81615b38565b82525050565b61526361525e82615b38565b615ba1565b82525050565b60006152758285614975565b6020820191506152858284614975565b6020820191508190509392505050565b60006152a18284615252565b60208201915081905092915050565b60006152bc8286615252565b6020820191506152cc8285614975565b6020820191506152dc8284614975565b602082019150819050949350505050565b600060208201905061530260008301846148db565b92915050565b600060608201905061531d60008301866148cc565b61532a60208301856148db565b6153376040830184615234565b949350505050565b600060408201905061535460008301856148cc565b6153616020830184615234565b9392505050565b600060408201905061537d60008301856148db565b61538a6020830184615234565b9392505050565b60006020820190506153a66000830184614948565b92915050565b60006020820190506153c16000830184614957565b92915050565b60006040820190506153dc600083018561498c565b6153e96020830184614966565b9392505050565b6000606082019050615405600083018661498c565b6154126020830185615243565b61541f6040830184614966565b949350505050565b600060208201905081810360008301526154408161499b565b9050919050565b60006020820190508181036000830152615460816149db565b9050919050565b6000602082019050818103600083015261548081614a1b565b9050919050565b600060208201905081810360008301526154a081614a5b565b9050919050565b600060208201905081810360008301526154c081614ac1565b9050919050565b600060208201905081810360008301526154e081614b01565b9050919050565b6000602082019050818103600083015261550081614b41565b9050919050565b6000602082019050818103600083015261552081614b81565b9050919050565b6000602082019050818103600083015261554081614bc1565b9050919050565b6000602082019050818103600083015261556081614c01565b9050919050565b6000602082019050818103600083015261558081614c41565b9050919050565b600060208201905081810360008301526155a081614c81565b9050919050565b600060208201905081810360008301526155c081614cc1565b9050919050565b600060208201905081810360008301526155e081614d01565b9050919050565b6000602082019050818103600083015261560081614d41565b9050919050565b6000602082019050818103600083015261562081614d81565b9050919050565b6000602082019050818103600083015261564081614dc1565b9050919050565b6000602082019050818103600083015261566081614e27565b9050919050565b6000602082019050818103600083015261568081614e67565b9050919050565b600060208201905081810360008301526156a081614ea7565b9050919050565b600060208201905081810360008301526156c081614ee7565b9050919050565b600060208201905081810360008301526156e081614f27565b9050919050565b6000602082019050818103600083015261570081614f8d565b9050919050565b6000602082019050818103600083015261572081614fcd565b9050919050565b6000602082019050818103600083015261574081615033565b9050919050565b6000602082019050818103600083015261576081615073565b9050919050565b60006020820190508181036000830152615780816150b3565b9050919050565b600060208201905081810360008301526157a08161513f565b9050919050565b600060208201905081810360008301526157c08161517f565b9050919050565b600060208201905081810360008301526157e0816151e5565b9050919050565b60006020820190506157fc6000830184615234565b92915050565b60006080820190506158176000830187615234565b818103602083015261582981866148ea565b90506158386040830185615234565b6158456060830184615234565b95945050505050565b60006040820190506158636000830185615234565b6158706020830184615234565b9392505050565b600060a08201905061588c6000830188615234565b6158996020830187615234565b81810360408301526158ab81866148ea565b90506158ba6060830185615234565b6158c76080830184615234565b9695505050505050565b60006060820190506158e66000830186615234565b6158f36020830185615234565b6159006040830184614957565b949350505050565b600060808201905061591d6000830187615234565b61592a6020830186615234565b6159376040830185615234565b6159446060830184614948565b95945050505050565b60006080820190506159626000830187615234565b61596f6020830186615234565b61597c6040830185615234565b6159896060830184615234565b95945050505050565b600060e0820190506159a7600083018a615234565b6159b46020830189615234565b6159c16040830188615234565b6159ce6060830187615234565b6159db6080830186615234565b6159e860a0830185615234565b6159f560c0830184615234565b98975050505050505050565b6000604051905081810181811067ffffffffffffffff82111715615a2457600080fd5b8060405250919050565b600067ffffffffffffffff821115615a4557600080fd5b602082029050602081019050919050565b600067ffffffffffffffff821115615a6d57600080fd5b602082029050602081019050919050565b600067ffffffffffffffff821115615a9557600080fd5b602082029050602081019050919050565b6000819050602082019050919050565b600081519050919050565b6000602082019050919050565b600082825260208201905092915050565b600082825260208201905092915050565b6000615afb82615b18565b9050919050565b60008115159050919050565b6000819050919050565b600073ffffffffffffffffffffffffffffffffffffffff82169050919050565b6000819050919050565b600060ff82169050919050565b6000615b5a82615b73565b9050919050565b6000615b6c82615b42565b9050919050565b6000615b7e82615b85565b9050919050565b6000615b9082615b18565b9050919050565b6000819050919050565b6000819050919050565b615bb481615af0565b8114615bbf57600080fd5b50565b615bcb81615b02565b8114615bd657600080fd5b50565b615be281615b0e565b8114615bed57600080fd5b50565b615bf981615b38565b8114615c0457600080fd5b50565b615c1081615b42565b8114615c1b57600080fd5b5056fea365627a7a7230582033f112563341a9e6c739d7b19c43ddf31702bd9b394f71fe93552fa456593cf66c6578706572696d656e74616cf564736f6c634300050a0040",
  "source": "pragma solidity 0.5.10;\npragma experimental ABIEncoderV2;\nimport \"./SimpleToken.sol\";\nimport \"openzeppelin-solidity/contracts/math/SafeMath.sol\";\nimport \"./lib/Random.sol\";\nimport \"./lib/Constants.sol\";\nimport \"openzeppelin-solidity/contracts/cryptography/MerkleProof.sol\";\n\n// WARNING IN development\n// Must Vote price rounded to 2 decimals *100 and must be above 0\n// e.g. if ethusd is 169.99 vote 16999\n// invalid vote cannot be revealed and you will get penalty\n// node == staker\n// TODO Priority list\n// nobody proposes, nobody disputes, extending dispute period\n// staker wants to vote but cant because below minimum. how to handle? should he be penalized? how much waiting time?\n\n// new algo\n//give reward and penalty in state 1 not state 2. because someone may defect in state 2 and leave in next epoch state 1\n//calculate penalty in state 1 and distribute reward in state 2\n//state 2 divide reward to those who committed in state 1 and distribute. if they dont participate, too bad.\n// newvariables. global rewardpool.\ncontract Schelling3 {\n    using SafeMath for uint256;\n\n    struct Vote {\n        uint256 value;\n        uint256 weight;\n    }\n\n    struct Node {\n        uint256 id;\n        uint256 stake;\n        uint256 epochStaked;\n        uint256 epochLastCommitted;\n        uint256 epochLastRevealed;\n        uint256 unstakeAfter;\n        uint256 withdrawAfter;\n    }\n\n    struct Block {\n        uint256 proposerId;\n        uint256[] medians;\n        uint256 iteration;\n        uint256 biggestStake;\n        bool valid;\n    }\n\n    struct Dispute {\n        uint256 accWeight;\n        uint256 median;\n        uint256 lastVisited;\n        uint256 assetId;\n    }\n\n    mapping (address => uint256) public nodeIds;\n    mapping (uint256 => Node) public nodes;\n    //epoch->stakerid->commitment\n    mapping (uint256 => mapping (uint256 => bytes32)) public commitments;\n    //epoch->stakerid->assetid->vote\n    mapping (uint256 => mapping (uint256 =>  mapping (uint256 => Vote))) public votes;\n    // epoch -> asset -> stakeWeight\n    mapping (uint256 =>  mapping (uint256 => uint256)) public totalStakeRevealed;\n    mapping (uint256 => Block) public blocks;\n    //epoch->assetid->voteValue->weight\n    mapping (uint256 => mapping (uint256 =>  mapping (uint256 => uint256))) public voteWeights;\n    //epoch->address->dispute->assetid\n    mapping (uint256 => mapping (address => Dispute)) public disputes;\n    //epoch -> numProposedBlocks\n    // mapping (uint256 => uint256) public numProposedBlocks;\n    //epoch -> proposalNumber -> block\n    mapping (uint256 => Block[]) public proposedBlocks;\n    address public schAddress;\n\n    uint256 public numNodes = 0;\n    uint256 public totalStake = 0;\n\n    uint256 public EPOCH;\n    uint256 public STATE;\n    uint256 public rewardPool = 0;\n    uint256 public stakeGettingReward = 0;\n\n    // Constants public c = Constants(0, 1, 2, 3, 1, 10000, 99, 100, 1000, 5, 5, 99, 1, 1);\n//\n    constructor (address _schAddress) public {\n        schAddress = _schAddress;\n    }\n\n    modifier checkEpoch (uint256 epoch) {\n        require(epoch == getEpoch(), \"incorrect epoch\");\n        _;\n    }\n\n    modifier checkState (uint256 state) {\n        require(state == getState(), \"incorrect state\");\n        _;\n    }\n\n    //for some reasom, getter for block doesnt return medians array. so using this for now\n    function getBlock (uint256 epoch, uint256 proposalIndex) public view\n    returns(uint256, uint256[] memory medians, uint256, uint256) {\n        // uint256 proposerId;\n        // uint256[] medians;\n        // uint256 iteration;\n        // uint256 biggestStake;\n        Block memory _block;\n        if (proposalIndex > 0) {\n            _block = proposedBlocks[epoch][proposalIndex - 1];\n        } else {\n            _block = blocks[epoch];\n        }\n        medians = _block.medians;\n        return(_block.proposerId, medians, _block.iteration, _block.biggestStake);\n    }\n\n    event Staked(uint256 nodeId, uint256 amount);\n\n    // stake during commit state only\n    // we check epoch during every transaction to avoid withholding and rebroadcasting attacks\n    function stake (uint256 epoch, uint256 amount) public checkEpoch(epoch) checkState(Constants.commit()) {\n        SimpleToken sch = SimpleToken(schAddress);\n         //not allowed during reveal period\n        require(getState() != Constants.reveal());\n        require(amount >= Constants.minStake(), \"staked amount is less than minimum stake required\");\n        require(sch.transferFrom(msg.sender, address(this), amount), \"sch transfer failed\");\n        uint256 nodeId = nodeIds[msg.sender];\n        if (nodeId == 0) {\n            numNodes = numNodes.add(1);\n            nodes[numNodes] = Node(numNodes, amount, epoch, 0, 0, epoch.add(Constants.unstakeLockPeriod()), 0);\n            nodeId = numNodes;\n            nodeIds[msg.sender] = nodeId;\n        } else {\n            require(nodes[nodeId].stake > 0,\n                    \"adding stake is not possible after withdrawal/slash. Please use a new address\");\n            nodes[nodeId].stake = nodes[nodeId].stake.add(amount);\n        }\n        totalStake = totalStake.add(amount);\n        emit Staked(nodeId, amount);\n    }\n\n    event Unstaked(uint256 nodeId);\n\n    // staker must call unstake() and continue voting for Constants.WITHDRAW_LOCK_PERIOD\n    //after which she can call withdraw() to finally Withdraw\n    function unstake (uint256 epoch) public checkEpoch(epoch) {\n        require(getState() != 1); //not allowed during reveal period\n        uint256 nodeId = nodeIds[msg.sender];\n        Node storage node = nodes[nodeId];\n        require(node.id != 0);\n        require(node.stake > 0, \"Nonpositive stake\");\n        require(node.unstakeAfter <= epoch && node.unstakeAfter != 0);\n        node.unstakeAfter = 0;\n        node.withdrawAfter = epoch.add(Constants.withdrawLockPeriod());\n        emit Unstaked(nodeId);\n    }\n\n    event Withdrew(uint256 nodeId, uint256 amount);\n\n    function withdraw (uint256 epoch) public checkEpoch(epoch) checkState(Constants.commit()) {\n        uint256 nodeId = nodeIds[msg.sender];\n        Node storage node = nodes[nodeId];\n        require(node.id != 0, \"node doesnt exist\");\n        require(node.epochLastRevealed == epoch.sub(1), \"Didnt reveal in last epoch\");\n        require(node.unstakeAfter == 0, \"Did not unstake\");\n        require((node.withdrawAfter <= epoch) && node.withdrawAfter != 0, \"Withdraw epoch not reached\");\n        require(commitments[epoch][nodeId] == 0x0, \"already commited this epoch. Cant withdraw\");\n        givePenalties(node, epoch);\n        require(node.stake > 0, \"Nonpositive Stake\");\n        SimpleToken sch = SimpleToken(schAddress);\n        totalStake = totalStake.sub(nodes[nodeId].stake);\n        nodes[nodeId].stake = 0;\n        emit Withdrew(nodeId, nodes[nodeId].stake);\n        require(sch.transfer(msg.sender, nodes[nodeId].stake));\n    }\n\n    event Committed(uint256 epoch, uint256 nodeId, bytes32 commitment);\n    //\n    event Y(uint256 y);\n    //\n    // // what was the eth/usd rate at the beginning of this epoch?\n\n    function commit (uint256 epoch, bytes32 commitment) public checkEpoch(epoch) checkState(Constants.commit()) {\n        uint256 nodeId = nodeIds[msg.sender];\n        require(commitments[epoch][nodeId] == 0x0, \"already commited\");\n        Node storage thisStaker = nodes[nodeId];\n        if (blocks[epoch - 1].proposerId == 0 && proposedBlocks[epoch - 1].length > 0) {\n            for (uint8 i=0; i < proposedBlocks[epoch - 1].length; i++) {\n                if (proposedBlocks[epoch - 1][i].valid) {\n                    blocks[epoch - 1] = proposedBlocks[epoch - 1][i];\n                }\n            }\n        }\n        uint256 y = givePenalties(thisStaker, epoch);\n        emit Y(y);\n        if (thisStaker.stake >= Constants.minStake()) {\n            commitments[epoch][nodeId] = commitment;\n            thisStaker.epochLastCommitted = epoch;\n            emit Committed(epoch, nodeId, commitment);\n        }\n    }\n\n    event Revealed(uint256 epoch, uint256 nodeId, uint256 value, uint256 stake);\n\n    function reveal (uint256 epoch, bytes32 root, uint256[] memory values,\n                    bytes32[][] memory proofs, bytes32 secret, address stakerAddress)\n    public\n    checkEpoch(epoch) {\n        uint256 thisNodeId = nodeIds[stakerAddress];\n        require(thisNodeId > 0, \"Node does not exist\");\n        Node storage thisStaker = nodes[thisNodeId];\n        require(commitments[epoch][thisNodeId] != 0x0, \"not commited or already revealed\");\n        // require(value > 0, \"voted non positive value\");\n        require(keccak256(abi.encodePacked(epoch, root, secret)) == commitments[epoch][thisNodeId],\n                \"incorrect secret/value\");\n        //if revealing self\n        if (msg.sender == stakerAddress) {\n            for (uint256 i = 0; i < values.length; i++) {\n                require(MerkleProof.verify(proofs[i], root, keccak256(abi.encodePacked(values[i]))));\n                votes[epoch][thisNodeId][i] = Vote(values[i], thisStaker.stake);\n                voteWeights[epoch][i][values[i]] = voteWeights[epoch][i][values[i]].add(thisStaker.stake);\n                totalStakeRevealed[epoch][i] = totalStakeRevealed[epoch][i].add(thisStaker.stake);\n\n            }\n\n            require(getState() == Constants.reveal(), \"Not reveal state\");\n            require(thisStaker.stake > 0, \"nonpositive stake\");\n            // giveRewards(thisStaker, epoch);\n\n            commitments[epoch][thisNodeId] = 0x0;\n            thisStaker.epochLastRevealed = epoch;\n            // emit Revealed(epoch, thisNodeId, value, thisStaker.stake);\n        } else {\n            //bounty hunter revealing someone else's secret in commit state\n            require(getState() == Constants.commit(), \"Not commit state\");\n            commitments[epoch][thisNodeId] = 0x0;\n            slash(thisNodeId, msg.sender);\n        }\n    }\n\n    function isElectedProposer(uint256 iteration, uint256 biggestStakerId, uint256 nodeId) public view returns(bool) {\n        // rand = 0 -> totalStake-1\n        //add +1 since prng returns 0 to max-1 and node start from 1\n        if ((Random.prng(10, numNodes, keccak256(abi.encode(iteration))).add(1)) != nodeId) return(false);\n        bytes32 randHash = Random.prngHash(10, keccak256(abi.encode(nodeId, iteration)));\n        uint256 rand = uint256(randHash).mod(2**32);\n        uint256 biggestStake = nodes[biggestStakerId].stake;\n        if (rand.mul(biggestStake) > nodes[nodeId].stake.mul(2**32)) return(false);\n        return(true);\n    }\n\n    event Proposed(uint256 epoch,\n                    uint256 nodeId,\n                    uint256[] medians,\n                    uint256 iteration,\n                    uint256 biggestStakerId);\n\n    // elected proposer proposes block. we use a probabilistic method to elect stakers weighted by stake\n    // protocol works like this. select a staker pseudorandomly (not weighted by anything)\n    // (todo what if it is below min stake)\n    // that staker then tosses a biased coin. bias = hisStake/biggestStake. if its heads, he can propose block\n    // end of iteration. try next iteration\n    // note that only one staker or no stakers selected in each iteration.\n    // stakers elected in higher iterations can also propose hoping that\n    // stakers with lower iteration do not propose for some reason\n    function propose (uint256 epoch,\n                    uint256[] memory medians,\n                    uint256 iteration,\n                    uint256 biggestStakerId) public checkEpoch(epoch) checkState(Constants.propose()) {\n        uint256 proposerId = nodeIds[msg.sender];\n        // SimpleToken sch = SimpleToken(schAddress);\n        require(isElectedProposer(iteration, biggestStakerId, proposerId), \"not elected\");\n        require(nodes[proposerId].stake >= Constants.minStake(), \"stake below minimum stake\");\n\n        // check if someone already proposed\n        // if (blocks[epoch].proposerId != 0) {\n        //     if (blocks[epoch].proposerId == proposerId) {\n        //         revert(\"Already Proposed\");\n        //     }\n        //     // if (nodes[biggestStakerId].stake == blocks[epoch].biggestStake &&\n        //     //     proposedBlocks[epoch].length >= Constants.maxAltBlocks()) {\n        //     //\n        //     //     require(proposedBlocks[epoch][4].iteration > iteration,\n        //     //             \"iteration not smaller than last elected staker\");\n        //     // } else\n        //     if (nodes[biggestStakerId].stake < blocks[epoch].biggestStake) {\n        //         revert(\"biggest stakers stake not bigger than as proposed by existing elected staker \");\n        //     }\n        // }\n        // blocks[epoch]\n        uint256 pushAt = insertAppropriately(epoch, Block(proposerId,\n                                        medians,\n                                        iteration,\n                                        nodes[biggestStakerId].stake,\n                                        true));\n        emit Y(pushAt);\n        // mint and give block reward\n        // if (Constants.blockReward() > 0) {\n        //     nodes[proposerId].stake = nodes[proposerId].stake.add(Constants.blockReward());\n        //     totalStake = totalStake.add(Constants.blockReward());\n        //     require(sch.mint(address(this), Constants.blockReward()));\n        // }\n        emit Proposed(epoch, proposerId, medians, iteration, biggestStakerId);\n    }\n\n    //anyone can give sorted votes in batches in dispute state\n    function giveSorted (uint256 epoch, uint256 assetId, uint256[] memory sorted) public\n    checkEpoch(epoch) checkState(Constants.dispute()) {\n        uint256 medianWeight = totalStakeRevealed[epoch][assetId].div(2);\n        //accWeight = accumulatedWeight\n        uint256 accWeight = disputes[epoch][msg.sender].accWeight;\n        uint256 lastVisited = disputes[epoch][msg.sender].lastVisited;\n        if (disputes[epoch][msg.sender].accWeight == 0) {\n            disputes[epoch][msg.sender].assetId = assetId;\n        } else {\n            require(disputes[epoch][msg.sender].assetId == assetId, \"AssetId not matching\");\n        }\n        for (uint256 i = 0; i < sorted.length; i++) {\n            require(sorted[i] > lastVisited, \"sorted[i] is not greater than lastVisited\");\n            lastVisited = sorted[i];\n            accWeight = accWeight.add(voteWeights[epoch][assetId][sorted[i]]);\n            //set  median, if conditions meet\n            if (disputes[epoch][msg.sender].median == 0 && accWeight > medianWeight) {\n                disputes[epoch][msg.sender].median = sorted[i];\n            }\n            //TODO verify how much gas required for below operations and update this value\n            if (gasleft() < 10000) break;\n        }\n        disputes[epoch][msg.sender].lastVisited = lastVisited;\n        disputes[epoch][msg.sender].accWeight = accWeight;\n    }\n\n    // //todo test\n    // //if any mistake made during giveSorted, resetDispute and start again\n    function resetDispute (uint256 epoch) public checkEpoch(epoch) checkState(Constants.dispute()) {\n        disputes[epoch][msg.sender] = Dispute(0, 0, 0, 0);\n    }\n\n    function finalizeDispute (uint256 epoch, uint256 blockId)\n    public checkEpoch(epoch) checkState(Constants.dispute()) {\n        uint256 assetId = disputes[epoch][msg.sender].assetId;\n        require(disputes[epoch][msg.sender].accWeight == totalStakeRevealed[epoch][assetId]);\n        uint256 median = disputes[epoch][msg.sender].median;\n        // uint256 bountyHunterId = nodeIds[msg.sender];\n        uint256 proposerId = proposedBlocks[epoch][blockId].proposerId;\n\n        require(median > 0);\n        if (proposedBlocks[epoch][blockId].medians[assetId] != median) {\n            // blocks[epoch] = Block(bountyHunterId, median,\n                                    // 0, 0);\n            // emit Proposed(epoch, proposerId, median, 0, 0);\n            proposedBlocks[epoch][blockId].valid = false;\n            slash(proposerId, msg.sender);\n        } else {\n            revert(\"Proposed Alternate block is identical to proposed block\");\n        }\n    }\n\n    // WARNING TODO FOR TESTING ONLY. REMOVE IN PROD\n    function setEpoch (uint256 epoch) public { EPOCH = epoch;}\n\n    function setState (uint256 state) public { STATE = state;}\n\n    // dummy function to forcibly increase block number in ganache\n    function dum () public {true;}\n    // END TESTING FUNCTIONS\n\n    function getEpoch () public view returns(uint256) {\n        return(EPOCH);\n        return(block.number.div(Constants.epochLength()));\n    }\n\n    function getState () public view returns(uint256) {\n        return (STATE);\n        uint256 state = (block.number.div(Constants.epochLength()/Constants.numStates()));\n        return (state.mod(Constants.numStates()));\n    }\n\n    //return price from last epoch\n    function getPrice(uint256 assetId) public view returns (uint256) {\n        uint256 epoch = getEpoch();\n        return(blocks[epoch-1].medians[assetId]);\n    }\n\n    //executed in state 0\n    function calculateInactivityPenalties(uint256 epochs, uint256 stakeValue) public view returns(uint256) {\n\n        if (epochs < 2) {\n            return(stakeValue);\n        }\n        uint256 penalty = (epochs.sub(1)).mul((stakeValue.mul(Constants.penaltyNotRevealNum())).div(\n        Constants.penaltyNotRevealDenom()));\n        if (penalty < stakeValue) {\n            return(stakeValue.sub(penalty));\n        } else {\n            return(0);\n        }\n    }\n    //\n    // //executed in state 1\n    // function giveRewards (Node storage thisStaker, uint256 epoch) internal {\n    //     if (epoch > 1 && stakeGettingReward > 0) {\n    //         uint256 epochLastRevealed = thisStaker.epochLastRevealed;\n    //         uint256 voteLastEpoch = votes[epochLastRevealed][thisStaker.id].value;\n    //         uint256 medianLastEpoch = blocks[epochLastRevealed].median;\n    //\n    //     //rewardpool*stake*multiplier/stakeGettingReward\n    //         // uint256 y =  ((((medianLastEpoch.sub(voteLastEpoch)).mul(medianLastEpoch.sub(\n    //         //         voteLastEpoch))).div(medianLastEpoch.mul(medianLastEpoch))).mul(\n    //         //         uint256(10000)));\n    //         //give rewards if voted in zone\n    //         if ((voteLastEpoch * 100 < (99 * medianLastEpoch) || (voteLastEpoch * 100 > (101 * medianLastEpoch)))) {\n    //             thisStaker.stake = thisStaker.stake + (thisStaker.stake*rewardPool)/stakeGettingReward;\n    //         }\n    //     }\n    // }\n    //proposedblocks[epoch] = [Block.iteration]\n\n    function insertAppropriately(uint256 epoch, Block memory _block) internal returns(uint256) {\n        // uint256 iteration = _block.iteration;\n        if (proposedBlocks[epoch].length == 0) {\n            proposedBlocks[epoch].push(_block);\n            return(0);\n        }\n        // Block[] memory temp = proposedBlocks[epoch];\n        // delete (proposedBlocks[epoch]);\n        // bool pushed = false;\n        // bool empty = true;\n        uint256 pushAt = proposedBlocks[epoch].length;\n        for (uint256 i = 0; i < proposedBlocks[epoch].length; i++) {\n            if (proposedBlocks[epoch][i].biggestStake < _block.biggestStake) {\n                pushAt = i;\n                break;\n            }\n            if (proposedBlocks[epoch][i].iteration > _block.iteration) {\n                pushAt = i;\n                break;\n            }\n        }\n\n        proposedBlocks[epoch].push(_block);\n        for (uint256 j = proposedBlocks[epoch].length - 1; j > (pushAt); j--) {\n            proposedBlocks[epoch][j] = proposedBlocks[epoch][j - 1];\n        }\n        // if (pushAt < proposedBlocks[epoch].length) {\n\n        proposedBlocks[epoch][pushAt] = _block;\n        // }\n        // if (pushed == false && temp.length < Constants.maxAltBlocks()) {\n        //     proposedBlocks[epoch].push(_block);\n        // }\n        if (proposedBlocks[epoch].length > Constants.maxAltBlocks()) {\n            delete (proposedBlocks[epoch][proposedBlocks[epoch].length - 1]);\n        }\n        return(pushAt);\n    }\n\n    // internal functions vvvvvvvv\n    //gives penalties for:\n    // 2. not committing\n    // 3. not revealing\n    // 1. giving vting outside consensus\n    function givePenalties (Node storage thisStaker, uint256 epoch) internal returns(uint256) {\n        uint256 epochLastRevealed = thisStaker.epochLastRevealed;\n        if (epoch > 1 && epochLastRevealed > 0) {\n            uint256 epochLastActive = thisStaker.epochStaked < thisStaker.epochLastRevealed ?\n                                    thisStaker.epochLastRevealed :\n                                    thisStaker.epochStaked;\n            // penalize or reward if last active more than epoch - 1\n            uint256 penalizeEpochs = epoch.sub(epochLastActive);\n            uint256 previousStake = thisStaker.stake;\n            thisStaker.stake = calculateInactivityPenalties(penalizeEpochs, previousStake);\n            // return(0);\n\n            uint256[] memory mediansLastEpoch = blocks[epochLastRevealed].medians;\n            if (mediansLastEpoch.length > 0) {\n\n                uint256 y;\n                for (uint256 i = 0; i < mediansLastEpoch.length; i++) {\n                    uint256 voteLastEpoch = votes[epochLastRevealed][thisStaker.id][i].value;\n                    uint256 medianLastEpoch = mediansLastEpoch[i];\n\n                    if (voteLastEpoch > (medianLastEpoch.mul(2))) {\n                        thisStaker.stake = 0;\n                        rewardPool = rewardPool.add(previousStake);\n                        return(0);\n                    } else if (voteLastEpoch > 0 &&\n                        (voteLastEpoch < (medianLastEpoch.mul(Constants.safetyMarginLower())).div(100) ||\n                        voteLastEpoch > (medianLastEpoch.mul(uint256(200).sub(\n                                        Constants.safetyMarginLower()))).div(100))) {\n\n                        if (medianLastEpoch > voteLastEpoch) {\n                            y = y + (100 * (medianLastEpoch - voteLastEpoch))/medianLastEpoch;\n                        } else {\n                            y = y + (100 * (voteLastEpoch - medianLastEpoch))/medianLastEpoch;\n                        }\n                    }\n                }\n\n                if (y > 0) {\n                    thisStaker.stake = previousStake.sub(((y - 1).mul(previousStake)).div(100*mediansLastEpoch.length));\n                // thisStaker.stake = previousStake.sub(((y.sub(1)).mul(previousStake)).div(10000));\n\n                    rewardPool = rewardPool.add(previousStake.sub(thisStaker.stake));\n                    return(y);\n                } else {\n                //no penalty. only reward??\n                    stakeGettingReward = stakeGettingReward.add(previousStake);//*(1 - y);\n                }\n            }\n        }\n    }\n\n    function slash (uint256 id, address bountyHunter) internal {\n        SimpleToken sch = SimpleToken(schAddress);\n        uint256 halfStake = nodes[id].stake.div(2);\n        nodes[id].stake = 0;\n        if (halfStake > 1) {\n            totalStake = totalStake.sub(halfStake);\n            require(sch.transfer(bountyHunter, halfStake), \"failed to transfer bounty\");\n        }\n    }\n    // function stakeTransfer(uint256 fromId, address to, uint256 amount) internal{\n    //     // uint256 fromId = nodeIds[from];\n    //     require(fromId!=0);\n    //     require(nodes[fromId].stake >= amount);\n    //     uint256 toId = nodeIds[to];\n    //     nodes[fromId].stake = nodes[fromId].stake - amount;\n    //     if (toId == 0) {\n    //         numNodes = numNodes + 1;\n    //         nodes[numNodes] = Node(numNodes, amount, 0, 0, 0);\n    //         nodeIds[to] = numNodes;\n    //     } else {\n    //         nodes[toId].stake = nodes[toId].stake + amount;\n    //     }\n    // }\n\n}\n",
  "sourcePath": "/home/hrishi/contracts/contracts/Schelling3.sol",
  "compiler": {
    "name": "solc",
    "version": "0.5.10+commit.5a6ea5b1.Emscripten.clang"
  },
  "schemaVersion": "3.0.11",
  "updatedAt": "2019-08-10T15:38:17.975Z",
  "devdoc": {
    "methods": {}
  },
  "userdoc": {
    "methods": {}
  }
}