{
  "contractName": "Schelling2",
  "abi": [
    {
      "constant": true,
      "inputs": [],
      "name": "stakeGettingReward",
      "outputs": [
        {
          "name": "",
          "type": "uint256"
        }
      ],
      "payable": false,
      "stateMutability": "view",
      "type": "function"
    },
    {
      "constant": true,
      "inputs": [
        {
          "name": "",
          "type": "uint256"
        }
      ],
      "name": "nodes",
      "outputs": [
        {
          "name": "id",
          "type": "uint256"
        },
        {
          "name": "stake",
          "type": "uint256"
        },
        {
          "name": "epochStaked",
          "type": "uint256"
        },
        {
          "name": "epochLastCommitted",
          "type": "uint256"
        },
        {
          "name": "epochLastRevealed",
          "type": "uint256"
        },
        {
          "name": "unstakeAfter",
          "type": "uint256"
        },
        {
          "name": "withdrawAfter",
          "type": "uint256"
        }
      ],
      "payable": false,
      "stateMutability": "view",
      "type": "function"
    },
    {
      "constant": true,
      "inputs": [
        {
          "name": "",
          "type": "address"
        }
      ],
      "name": "nodeIds",
      "outputs": [
        {
          "name": "",
          "type": "uint256"
        }
      ],
      "payable": false,
      "stateMutability": "view",
      "type": "function"
    },
    {
      "constant": true,
      "inputs": [],
      "name": "rewardPool",
      "outputs": [
        {
          "name": "",
          "type": "uint256"
        }
      ],
      "payable": false,
      "stateMutability": "view",
      "type": "function"
    },
    {
      "constant": true,
      "inputs": [
        {
          "name": "",
          "type": "uint256"
        },
        {
          "name": "",
          "type": "address"
        }
      ],
      "name": "disputes",
      "outputs": [
        {
          "name": "accWeight",
          "type": "uint256"
        },
        {
          "name": "median",
          "type": "uint256"
        },
        {
          "name": "lastVisited",
          "type": "uint256"
        }
      ],
      "payable": false,
      "stateMutability": "view",
      "type": "function"
    },
    {
      "constant": true,
      "inputs": [],
      "name": "totalStake",
      "outputs": [
        {
          "name": "",
          "type": "uint256"
        }
      ],
      "payable": false,
      "stateMutability": "view",
      "type": "function"
    },
    {
      "constant": true,
      "inputs": [],
      "name": "schAddress",
      "outputs": [
        {
          "name": "",
          "type": "address"
        }
      ],
      "payable": false,
      "stateMutability": "view",
      "type": "function"
    },
    {
      "constant": true,
      "inputs": [
        {
          "name": "",
          "type": "uint256"
        },
        {
          "name": "",
          "type": "uint256"
        }
      ],
      "name": "voteWeights",
      "outputs": [
        {
          "name": "",
          "type": "uint256"
        }
      ],
      "payable": false,
      "stateMutability": "view",
      "type": "function"
    },
    {
      "constant": true,
      "inputs": [],
      "name": "numNodes",
      "outputs": [
        {
          "name": "",
          "type": "uint256"
        }
      ],
      "payable": false,
      "stateMutability": "view",
      "type": "function"
    },
    {
      "constant": true,
      "inputs": [],
      "name": "EPOCH",
      "outputs": [
        {
          "name": "",
          "type": "uint256"
        }
      ],
      "payable": false,
      "stateMutability": "view",
      "type": "function"
    },
    {
      "constant": true,
      "inputs": [
        {
          "name": "",
          "type": "uint256"
        }
      ],
      "name": "totalStakeRevealed",
      "outputs": [
        {
          "name": "",
          "type": "uint256"
        }
      ],
      "payable": false,
      "stateMutability": "view",
      "type": "function"
    },
    {
      "constant": true,
      "inputs": [],
      "name": "c",
      "outputs": [
        {
          "name": "COMMIT",
          "type": "uint8"
        },
        {
          "name": "REVEAL",
          "type": "uint8"
        },
        {
          "name": "PROPOSE",
          "type": "uint8"
        },
        {
          "name": "DISPUTE",
          "type": "uint8"
        },
        {
          "name": "PENALTY_NOT_REVEAL_NUM",
          "type": "uint256"
        },
        {
          "name": "PENALTY_NOT_REVEAL_DENOM",
          "type": "uint256"
        },
        {
          "name": "PENALTY_NOT_IN_ZONE_NUM",
          "type": "uint256"
        },
        {
          "name": "PENALTY_NOT_IN_ZONE_DENOM",
          "type": "uint256"
        },
        {
          "name": "MIN_STAKE",
          "type": "uint256"
        },
        {
          "name": "BLOCK_REWARD",
          "type": "uint256"
        },
        {
          "name": "REVEAL_REWARD",
          "type": "uint256"
        },
        {
          "name": "SAFETY_MARGIN_LOWER",
          "type": "uint256"
        },
        {
          "name": "UNSTAKE_LOCK_PERIOD",
          "type": "uint256"
        },
        {
          "name": "WITHDRAW_LOCK_PERIOD",
          "type": "uint256"
        }
      ],
      "payable": false,
      "stateMutability": "view",
      "type": "function"
    },
    {
      "constant": true,
      "inputs": [],
      "name": "STATE",
      "outputs": [
        {
          "name": "",
          "type": "uint256"
        }
      ],
      "payable": false,
      "stateMutability": "view",
      "type": "function"
    },
    {
      "constant": true,
      "inputs": [
        {
          "name": "",
          "type": "uint256"
        },
        {
          "name": "",
          "type": "uint256"
        }
      ],
      "name": "votes",
      "outputs": [
        {
          "name": "value",
          "type": "uint256"
        },
        {
          "name": "weight",
          "type": "uint256"
        }
      ],
      "payable": false,
      "stateMutability": "view",
      "type": "function"
    },
    {
      "constant": true,
      "inputs": [
        {
          "name": "",
          "type": "uint256"
        },
        {
          "name": "",
          "type": "uint256"
        }
      ],
      "name": "commitments",
      "outputs": [
        {
          "name": "",
          "type": "bytes32"
        }
      ],
      "payable": false,
      "stateMutability": "view",
      "type": "function"
    },
    {
      "constant": true,
      "inputs": [
        {
          "name": "",
          "type": "uint256"
        }
      ],
      "name": "blocks",
      "outputs": [
        {
          "name": "proposerId",
          "type": "uint256"
        },
        {
          "name": "median",
          "type": "uint256"
        },
        {
          "name": "iteration",
          "type": "uint256"
        },
        {
          "name": "biggestStake",
          "type": "uint256"
        }
      ],
      "payable": false,
      "stateMutability": "view",
      "type": "function"
    },
    {
      "inputs": [
        {
          "name": "_schAddress",
          "type": "address"
        }
      ],
      "payable": false,
      "stateMutability": "nonpayable",
      "type": "constructor"
    },
    {
      "anonymous": false,
      "inputs": [
        {
          "indexed": false,
          "name": "nodeId",
          "type": "uint256"
        },
        {
          "indexed": false,
          "name": "amount",
          "type": "uint256"
        }
      ],
      "name": "Staked",
      "type": "event"
    },
    {
      "anonymous": false,
      "inputs": [
        {
          "indexed": false,
          "name": "nodeId",
          "type": "uint256"
        }
      ],
      "name": "Unstaked",
      "type": "event"
    },
    {
      "anonymous": false,
      "inputs": [
        {
          "indexed": false,
          "name": "nodeId",
          "type": "uint256"
        },
        {
          "indexed": false,
          "name": "amount",
          "type": "uint256"
        }
      ],
      "name": "Withdrew",
      "type": "event"
    },
    {
      "anonymous": false,
      "inputs": [
        {
          "indexed": false,
          "name": "epoch",
          "type": "uint256"
        },
        {
          "indexed": false,
          "name": "nodeId",
          "type": "uint256"
        },
        {
          "indexed": false,
          "name": "commitment",
          "type": "bytes32"
        }
      ],
      "name": "Committed",
      "type": "event"
    },
    {
      "anonymous": false,
      "inputs": [
        {
          "indexed": false,
          "name": "y",
          "type": "uint256"
        }
      ],
      "name": "Y",
      "type": "event"
    },
    {
      "anonymous": false,
      "inputs": [
        {
          "indexed": false,
          "name": "epoch",
          "type": "uint256"
        },
        {
          "indexed": false,
          "name": "nodeId",
          "type": "uint256"
        },
        {
          "indexed": false,
          "name": "value",
          "type": "uint256"
        },
        {
          "indexed": false,
          "name": "stake",
          "type": "uint256"
        }
      ],
      "name": "Revealed",
      "type": "event"
    },
    {
      "anonymous": false,
      "inputs": [
        {
          "indexed": false,
          "name": "epoch",
          "type": "uint256"
        },
        {
          "indexed": false,
          "name": "nodeId",
          "type": "uint256"
        },
        {
          "indexed": false,
          "name": "median",
          "type": "uint256"
        },
        {
          "indexed": false,
          "name": "iteration",
          "type": "uint256"
        },
        {
          "indexed": false,
          "name": "biggestStakerId",
          "type": "uint256"
        }
      ],
      "name": "Proposed",
      "type": "event"
    },
    {
      "constant": false,
      "inputs": [
        {
          "name": "epoch",
          "type": "uint256"
        },
        {
          "name": "amount",
          "type": "uint256"
        }
      ],
      "name": "stake",
      "outputs": [],
      "payable": false,
      "stateMutability": "nonpayable",
      "type": "function"
    },
    {
      "constant": false,
      "inputs": [
        {
          "name": "epoch",
          "type": "uint256"
        }
      ],
      "name": "unstake",
      "outputs": [],
      "payable": false,
      "stateMutability": "nonpayable",
      "type": "function"
    },
    {
      "constant": false,
      "inputs": [
        {
          "name": "epoch",
          "type": "uint256"
        }
      ],
      "name": "withdraw",
      "outputs": [],
      "payable": false,
      "stateMutability": "nonpayable",
      "type": "function"
    },
    {
      "constant": false,
      "inputs": [
        {
          "name": "epoch",
          "type": "uint256"
        },
        {
          "name": "commitment",
          "type": "bytes32"
        }
      ],
      "name": "commit",
      "outputs": [],
      "payable": false,
      "stateMutability": "nonpayable",
      "type": "function"
    },
    {
      "constant": false,
      "inputs": [
        {
          "name": "epoch",
          "type": "uint256"
        },
        {
          "name": "value",
          "type": "uint256"
        },
        {
          "name": "secret",
          "type": "bytes32"
        },
        {
          "name": "stakerAddress",
          "type": "address"
        }
      ],
      "name": "reveal",
      "outputs": [],
      "payable": false,
      "stateMutability": "nonpayable",
      "type": "function"
    },
    {
      "constant": true,
      "inputs": [
        {
          "name": "iteration",
          "type": "uint256"
        },
        {
          "name": "biggestStakerId",
          "type": "uint256"
        },
        {
          "name": "nodeId",
          "type": "uint256"
        }
      ],
      "name": "isElectedProposer",
      "outputs": [
        {
          "name": "",
          "type": "bool"
        }
      ],
      "payable": false,
      "stateMutability": "view",
      "type": "function"
    },
    {
      "constant": false,
      "inputs": [
        {
          "name": "epoch",
          "type": "uint256"
        },
        {
          "name": "median",
          "type": "uint256"
        },
        {
          "name": "iteration",
          "type": "uint256"
        },
        {
          "name": "biggestStakerId",
          "type": "uint256"
        }
      ],
      "name": "propose",
      "outputs": [],
      "payable": false,
      "stateMutability": "nonpayable",
      "type": "function"
    },
    {
      "constant": false,
      "inputs": [
        {
          "name": "epoch",
          "type": "uint256"
        },
        {
          "name": "sorted",
          "type": "uint256[]"
        }
      ],
      "name": "giveSorted",
      "outputs": [],
      "payable": false,
      "stateMutability": "nonpayable",
      "type": "function"
    },
    {
      "constant": false,
      "inputs": [
        {
          "name": "epoch",
          "type": "uint256"
        }
      ],
      "name": "resetDispute",
      "outputs": [],
      "payable": false,
      "stateMutability": "nonpayable",
      "type": "function"
    },
    {
      "constant": false,
      "inputs": [
        {
          "name": "epoch",
          "type": "uint256"
        }
      ],
      "name": "proposeAlt",
      "outputs": [],
      "payable": false,
      "stateMutability": "nonpayable",
      "type": "function"
    },
    {
      "constant": true,
      "inputs": [],
      "name": "getEpoch",
      "outputs": [
        {
          "name": "",
          "type": "uint256"
        }
      ],
      "payable": false,
      "stateMutability": "view",
      "type": "function"
    },
    {
      "constant": true,
      "inputs": [],
      "name": "getState",
      "outputs": [
        {
          "name": "",
          "type": "uint256"
        }
      ],
      "payable": false,
      "stateMutability": "view",
      "type": "function"
    },
    {
      "constant": true,
      "inputs": [],
      "name": "getPrice",
      "outputs": [
        {
          "name": "",
          "type": "uint256"
        }
      ],
      "payable": false,
      "stateMutability": "view",
      "type": "function"
    },
    {
      "constant": true,
      "inputs": [
        {
          "name": "numBlocks",
          "type": "uint8"
        },
        {
          "name": "max",
          "type": "uint256"
        },
        {
          "name": "seed",
          "type": "bytes32"
        }
      ],
      "name": "prng",
      "outputs": [
        {
          "name": "",
          "type": "uint256"
        }
      ],
      "payable": false,
      "stateMutability": "view",
      "type": "function"
    },
    {
      "constant": true,
      "inputs": [
        {
          "name": "numBlocks",
          "type": "uint8"
        },
        {
          "name": "seed",
          "type": "bytes32"
        }
      ],
      "name": "prngHash",
      "outputs": [
        {
          "name": "",
          "type": "bytes32"
        }
      ],
      "payable": false,
      "stateMutability": "view",
      "type": "function"
    }
  ],
  "bytecode": "0x608060405260006009556000600a556000600d556000600e55604051806101c00160405280600060ff168152602001600160ff168152602001600260ff168152602001600360ff168152602001605f81526020016064815260200160638152602001606481526020016103e88152602001600581526020016005815260200160638152602001600181526020016001815250600f60008201518160000160006101000a81548160ff021916908360ff16021790555060208201518160000160016101000a81548160ff021916908360ff16021790555060408201518160000160026101000a81548160ff021916908360ff16021790555060608201518160000160036101000a81548160ff021916908360ff1602179055506080820151816001015560a0820151816002015560c0820151816003015560e08201518160040155610100820151816005015561012082015181600601556101408201518160070155610160820151816008015561018082015181600901556101a082015181600a0155505034801561018f57600080fd5b50604051602080620042f6833981018060405260208110156101b057600080fd5b810190808051906020019092919050505080600860006101000a81548173ffffffffffffffffffffffffffffffffffffffff021916908373ffffffffffffffffffffffffffffffffffffffff160217905550506140e380620002136000396000f3fe608060405234801561001057600080fd5b50600436106101e55760003560e01c8063828496d61161010f578063ab944638116100a2578063c6e36a3211610071578063c6e36a32146108f7578063d13e2e601461094a578063f25b3f9914610996578063f2f03877146109ed576101e5565b8063ab944638146107b7578063b07ceab8146107f9578063c3da42b814610848578063c486456c146108d9576101e5565b806394ca304b116100de57806394ca304b1461069b57806398d5fdca146106b9578063a0dc2758146106d7578063ab45c6b5146106f5576101e5565b8063828496d6146105775780638b0e9f3f146105e75780638d0e52c0146106055780638f37d0b41461064f576101e5565b80632e17de781161018757806366666aa91161015657806366666aa9146104a15780636aadffa8146104bf578063757991a8146105215780637b0472f01461053f576101e5565b80632e17de78146103be5780632e1a7d4d146103ec5780635075dbfb1461041a5780635ce8772f14610473576101e5565b80631d69ff9b116101c35780631d69ff9b146102925780631e8fcfe5146102ec5780632b3c9efd1461031a5780632c3b4f2714610372576101e5565b80630ec88d3f146101ea5780631865c57d146102085780631c53c28014610226575b600080fd5b6101f2610a25565b6040518082815260200191505060405180910390f35b610210610a2b565b6040518082815260200191505060405180910390f35b6102526004803603602081101561023c57600080fd5b8101908080359060200190929190505050610a5e565b6040518088815260200187815260200186815260200185815260200184815260200183815260200182815260200197505050505050505060405180910390f35b6102d2600480360360608110156102a857600080fd5b81019080803590602001909291908035906020019092919080359060200190929190505050610aa0565b604051808215151515815260200191505060405180910390f35b6103186004803603602081101561030257600080fd5b8101908080359060200190929190505050610bd1565b005b61035c6004803603602081101561033057600080fd5b81019080803573ffffffffffffffffffffffffffffffffffffffff169060200190929190505050610f53565b6040518082815260200191505060405180910390f35b6103bc6004803603608081101561038857600080fd5b8101908080359060200190929190803590602001909291908035906020019092919080359060200190929190505050610f6b565b005b6103ea600480360360208110156103d457600080fd5b81019080803590602001909291905050506115e7565b005b6104186004803603602081101561040257600080fd5b81019080803590602001909291905050506117d3565b005b61045d6004803603606081101561043057600080fd5b81019080803560ff1690602001909291908035906020019092919080359060200190929190505050611dfe565b6040518082815260200191505060405180910390f35b61049f6004803603602081101561048957600080fd5b8101908080359060200190929190505050611e33565b005b6104a9611fd6565b6040518082815260200191505060405180910390f35b61051f600480360360808110156104d557600080fd5b81019080803590602001909291908035906020019092919080359060200190929190803573ffffffffffffffffffffffffffffffffffffffff169060200190929190505050611fdc565b005b6105296126aa565b6040518082815260200191505060405180910390f35b6105756004803603604081101561055557600080fd5b8101908080359060200190929190803590602001909291905050506126c5565b005b6105c36004803603604081101561058d57600080fd5b8101908080359060200190929190803573ffffffffffffffffffffffffffffffffffffffff169060200190929190505050612c38565b60405180848152602001838152602001828152602001935050505060405180910390f35b6105ef612c6f565b6040518082815260200191505060405180910390f35b61060d612c75565b604051808273ffffffffffffffffffffffffffffffffffffffff1673ffffffffffffffffffffffffffffffffffffffff16815260200191505060405180910390f35b6106856004803603604081101561066557600080fd5b810190808035906020019092919080359060200190929190505050612c9b565b6040518082815260200191505060405180910390f35b6106a3612cc0565b6040518082815260200191505060405180910390f35b6106c1612cc6565b6040518082815260200191505060405180910390f35b6106df612cf3565b6040518082815260200191505060405180910390f35b6107b56004803603604081101561070b57600080fd5b81019080803590602001909291908035906020019064010000000081111561073257600080fd5b82018360208201111561074457600080fd5b8035906020019184602083028401116401000000008311171561076657600080fd5b919080806020026020016040519081016040528093929190818152602001838360200280828437600081840152601f19601f820116905080830192505050505050509192919290505050612cf9565b005b6107e3600480360360208110156107cd57600080fd5b8101908080359060200190929190505050613168565b6040518082815260200191505060405180910390f35b6108326004803603604081101561080f57600080fd5b81019080803560ff16906020019092919080359060200190929190505050613180565b6040518082815260200191505060405180910390f35b610850613253565b604051808f60ff1660ff1681526020018e60ff1660ff1681526020018d60ff1660ff1681526020018c60ff1660ff1681526020018b81526020018a81526020018981526020018881526020018781526020018681526020018581526020018481526020018381526020018281526020019e50505050505050505050505050505060405180910390f35b6108e16132e1565b6040518082815260200191505060405180910390f35b61092d6004803603604081101561090d57600080fd5b8101908080359060200190929190803590602001909291905050506132e7565b604051808381526020018281526020019250505060405180910390f35b6109806004803603604081101561096057600080fd5b810190808035906020019092919080359060200190929190505050613318565b6040518082815260200191505060405180910390f35b6109c2600480360360208110156109ac57600080fd5b810190808035906020019092919050505061333d565b6040518085815260200184815260200183815260200182815260200194505050505060405180910390f35b610a2360048036036040811015610a0357600080fd5b81019080803590602001909291908035906020019092919050505061336d565b005b600e5481565b600080610a4260144361364a90919063ffffffff16565b9050610a586004826136d990919063ffffffff16565b91505090565b60016020528060005260406000206000915090508060000154908060010154908060020154908060030154908060040154908060050154908060060154905087565b600081610aea6001610adc600a600954896040516020018082815260200191505060405160208183030381529060405280519060200120611dfe565b61376390919063ffffffff16565b14610af85760009050610bca565b6000610b33600a8487604051602001808381526020018281526020019250505060405160208183030381529060405280519060200120613180565b90506000610b526401000000008360001c6136d990919063ffffffff16565b9050600060016000878152602001908152602001600020600101549050610b9d64010000000060016000888152602001908152602001600020600101546137eb90919063ffffffff16565b610bb082846137eb90919063ffffffff16565b1115610bc25760009350505050610bca565b600193505050505b9392505050565b80610bda6126aa565b8114610c4e576040517f08c379a000000000000000000000000000000000000000000000000000000000815260040180806020018281038252600f8152602001807f696e636f72726563742065706f6368000000000000000000000000000000000081525060200191505060405180910390fd5b600f60000160039054906101000a900460ff16610c69610a2b565b8160ff1614610ce0576040517f08c379a000000000000000000000000000000000000000000000000000000000815260040180806020018281038252600f8152602001807f696e636f7272656374207374617465000000000000000000000000000000000081525060200191505060405180910390fd5b60046000848152602001908152602001600020546007600085815260200190815260200160002060003373ffffffffffffffffffffffffffffffffffffffff1673ffffffffffffffffffffffffffffffffffffffff1681526020019081526020016000206000015414610d5257600080fd5b60006007600085815260200190815260200160002060003373ffffffffffffffffffffffffffffffffffffffff1673ffffffffffffffffffffffffffffffffffffffff16815260200190815260200160002060010154905060008060003373ffffffffffffffffffffffffffffffffffffffff1673ffffffffffffffffffffffffffffffffffffffff16815260200190815260200160002054905060006005600087815260200190815260200160002060000154905060008311610e1557600080fd5b82600560008881526020019081526020016000206001015414610efa57604051806080016040528083815260200184815260200160008152602001600081525060056000888152602001908152602001600020600082015181600001556020820151816001015560408201518160020155606082015181600301559050507f2ad0141d9b172732f8adee7471dbfb39b9a5c8ba83c8354d5f4d364de7a40473868285600080604051808681526020018581526020018481526020018381526020018281526020019550505050505060405180910390a1610ef58133613871565b610f4b565b6040517f08c379a0000000000000000000000000000000000000000000000000000000008152600401808060200182810382526037815260200180613f8c6037913960400191505060405180910390fd5b505050505050565b60006020528060005260406000206000915090505481565b83610f746126aa565b8114610fe8576040517f08c379a000000000000000000000000000000000000000000000000000000000815260040180806020018281038252600f8152602001807f696e636f72726563742065706f6368000000000000000000000000000000000081525060200191505060405180910390fd5b600f60000160029054906101000a900460ff16611003610a2b565b8160ff161461107a576040517f08c379a000000000000000000000000000000000000000000000000000000000815260040180806020018281038252600f8152602001807f696e636f7272656374207374617465000000000000000000000000000000000081525060200191505060405180910390fd5b60008060003373ffffffffffffffffffffffffffffffffffffffff1673ffffffffffffffffffffffffffffffffffffffff1681526020019081526020016000205490506000600860009054906101000a900473ffffffffffffffffffffffffffffffffffffffff1690506110ef868684610aa0565b611161576040517f08c379a000000000000000000000000000000000000000000000000000000000815260040180806020018281038252600b8152602001807f6e6f7420656c656374656400000000000000000000000000000000000000000081525060200191505060405180910390fd5b600f60050154600160008481526020019081526020016000206001015410156111f2576040517f08c379a00000000000000000000000000000000000000000000000000000000081526004018080602001828103825260198152602001807f7374616b652062656c6f77206d696e696d756d207374616b650000000000000081525060200191505060405180910390fd5b6000600560008a815260200190815260200160002060000154146113ca5781600560008a815260200190815260200160002060000154141561129c576040517f08c379a00000000000000000000000000000000000000000000000000000000081526004018080602001828103825260108152602001807f416c72656164792050726f706f7365640000000000000000000000000000000081525060200191505060405180910390fd5b6005600089815260200190815260200160002060030154600160008781526020019081526020016000206001015414156113435785600560008a8152602001908152602001600020600201541161133e576040517f08c379a0000000000000000000000000000000000000000000000000000000008152600401808060200182810382526031815260200180613f3a6031913960400191505060405180910390fd5b6113c9565b6005600089815260200190815260200160002060030154600160008781526020019081526020016000206001015410156113c8576040517f08c379a000000000000000000000000000000000000000000000000000000000815260040180806020018281038252604d815260200180613fc3604d913960600191505060405180910390fd5b5b5b60405180608001604052808381526020018881526020018781526020016001600088815260200190815260200160002060010154815250600560008a8152602001908152602001600020600082015181600001556020820151816001015560408201518160020155606082015181600301559050506000600f6006015411156115865761147b600f60060154600160008581526020019081526020016000206001015461376390919063ffffffff16565b60016000848152602001908152602001600020600101819055506114af600f60060154600a5461376390919063ffffffff16565b600a819055508073ffffffffffffffffffffffffffffffffffffffff166340c10f1930600f600601546040518363ffffffff1660e01b8152600401808373ffffffffffffffffffffffffffffffffffffffff1673ffffffffffffffffffffffffffffffffffffffff16815260200182815260200192505050602060405180830381600087803b15801561154157600080fd5b505af1158015611555573d6000803e3d6000fd5b505050506040513d602081101561156b57600080fd5b810190808051906020019092919050505061158557600080fd5b5b7f2ad0141d9b172732f8adee7471dbfb39b9a5c8ba83c8354d5f4d364de7a404738883898989604051808681526020018581526020018481526020018381526020018281526020019550505050505060405180910390a15050505050505050565b806115f06126aa565b8114611664576040517f08c379a000000000000000000000000000000000000000000000000000000000815260040180806020018281038252600f8152602001807f696e636f72726563742065706f6368000000000000000000000000000000000081525060200191505060405180910390fd5b60008060003373ffffffffffffffffffffffffffffffffffffffff1673ffffffffffffffffffffffffffffffffffffffff16815260200190815260200160002054905060006001600083815260200190815260200160002090506000816000015414156116d057600080fd5b600081600101541161174a576040517f08c379a00000000000000000000000000000000000000000000000000000000081526004018080602001828103825260118152602001807f4e6f6e706f736974697665207374616b6500000000000000000000000000000081525060200191505060405180910390fd5b8381600501541115801561176357506000816005015414155b61176c57600080fd5b6000816005018190555061178e600f600a01548561376390919063ffffffff16565b81600601819055507f11725367022c3ff288940f4b5473aa61c2da6a24af7363a1128ee2401e8983b2826040518082815260200191505060405180910390a150505050565b806117dc6126aa565b8114611850576040517f08c379a000000000000000000000000000000000000000000000000000000000815260040180806020018281038252600f8152602001807f696e636f72726563742065706f6368000000000000000000000000000000000081525060200191505060405180910390fd5b600f60000160009054906101000a900460ff1661186b610a2b565b8160ff16146118e2576040517f08c379a000000000000000000000000000000000000000000000000000000000815260040180806020018281038252600f8152602001807f696e636f7272656374207374617465000000000000000000000000000000000081525060200191505060405180910390fd5b60008060003373ffffffffffffffffffffffffffffffffffffffff1673ffffffffffffffffffffffffffffffffffffffff16815260200190815260200160002054905060006001600083815260200190815260200160002090506000816000015414156119b7576040517f08c379a00000000000000000000000000000000000000000000000000000000081526004018080602001828103825260118152602001807f6e6f646520646f65736e7420657869737400000000000000000000000000000081525060200191505060405180910390fd5b6119cb600186613a4190919063ffffffff16565b816004015414611a43576040517f08c379a000000000000000000000000000000000000000000000000000000000815260040180806020018281038252601a8152602001807f4469646e742072657665616c20696e206c6173742065706f636800000000000081525060200191505060405180910390fd5b6000816005015414611abd576040517f08c379a000000000000000000000000000000000000000000000000000000000815260040180806020018281038252600f8152602001807f446964206e6f7420756e7374616b65000000000000000000000000000000000081525060200191505060405180910390fd5b84816006015411158015611ad657506000816006015414155b611b48576040517f08c379a000000000000000000000000000000000000000000000000000000000815260040180806020018281038252601a8152602001807f57697468647261772065706f6368206e6f74207265616368656400000000000081525060200191505060405180910390fd5b6000801b6002600087815260200190815260200160002060008481526020019081526020016000205414611bc7576040517f08c379a000000000000000000000000000000000000000000000000000000000815260040180806020018281038252602a815260200180614010602a913960400191505060405180910390fd5b611bd18186613aca565b506000816001015411611c4c576040517f08c379a00000000000000000000000000000000000000000000000000000000081526004018080602001828103825260118152602001807f4e6f6e706f736974697665205374616b6500000000000000000000000000000081525060200191505060405180910390fd5b6000600860009054906101000a900473ffffffffffffffffffffffffffffffffffffffff169050611c9e6001600085815260200190815260200160002060010154600a54613a4190919063ffffffff16565b600a81905550600060016000858152602001908152602001600020600101819055507fe30055f80fbe7b2543e52870ba638ff9e75c7471da9cb6d9eb5a97379195b1ac836001600086815260200190815260200160002060010154604051808381526020018281526020019250505060405180910390a18073ffffffffffffffffffffffffffffffffffffffff1663a9059cbb3360016000878152602001908152602001600020600101546040518363ffffffff1660e01b8152600401808373ffffffffffffffffffffffffffffffffffffffff1673ffffffffffffffffffffffffffffffffffffffff16815260200182815260200192505050602060405180830381600087803b158015611db257600080fd5b505af1158015611dc6573d6000803e3d6000fd5b505050506040513d6020811015611ddc57600080fd5b8101908080519060200190929190505050611df657600080fd5b505050505050565b600080611e0b8584613180565b905060008160001c9050611e2885826136d990919063ffffffff16565b925050509392505050565b80611e3c6126aa565b8114611eb0576040517f08c379a000000000000000000000000000000000000000000000000000000000815260040180806020018281038252600f8152602001807f696e636f72726563742065706f6368000000000000000000000000000000000081525060200191505060405180910390fd5b600f60000160039054906101000a900460ff16611ecb610a2b565b8160ff1614611f42576040517f08c379a000000000000000000000000000000000000000000000000000000000815260040180806020018281038252600f8152602001807f696e636f7272656374207374617465000000000000000000000000000000000081525060200191505060405180910390fd5b6040518060600160405280600081526020016000815260200160008152506007600085815260200190815260200160002060003373ffffffffffffffffffffffffffffffffffffffff1673ffffffffffffffffffffffffffffffffffffffff168152602001908152602001600020600082015181600001556020820151816001015560408201518160020155905050505050565b600d5481565b83611fe56126aa565b8114612059576040517f08c379a000000000000000000000000000000000000000000000000000000000815260040180806020018281038252600f8152602001807f696e636f72726563742065706f6368000000000000000000000000000000000081525060200191505060405180910390fd5b60008060008473ffffffffffffffffffffffffffffffffffffffff1673ffffffffffffffffffffffffffffffffffffffff16815260200190815260200160002054905060008111612112576040517f08c379a00000000000000000000000000000000000000000000000000000000081526004018080602001828103825260138152602001807f4e6f646520646f6573206e6f742065786973740000000000000000000000000081525060200191505060405180910390fd5b60006001600083815260200190815260200160002090506000801b6002600089815260200190815260200160002060008481526020019081526020016000205414156121c6576040517f08c379a00000000000000000000000000000000000000000000000000000000081526004018080602001828103825260208152602001807f6e6f7420636f6d6d69746564206f7220616c72656164792072657665616c656481525060200191505060405180910390fd5b6000861161223c576040517f08c379a00000000000000000000000000000000000000000000000000000000081526004018080602001828103825260188152602001807f766f746564206e6f6e20706f7369746976652076616c7565000000000000000081525060200191505060405180910390fd5b60026000888152602001908152602001600020600083815260200190815260200160002054878787604051602001808481526020018381526020018281526020019350505050604051602081830303815290604052805190602001201461230b576040517f08c379a00000000000000000000000000000000000000000000000000000000081526004018080602001828103825260168152602001807f696e636f7272656374207365637265742f76616c75650000000000000000000081525060200191505060405180910390fd5b8373ffffffffffffffffffffffffffffffffffffffff163373ffffffffffffffffffffffffffffffffffffffff1614156125d957600f60000160019054906101000a900460ff1660ff1661235d610a2b565b146123d0576040517f08c379a00000000000000000000000000000000000000000000000000000000081526004018080602001828103825260108152602001807f4e6f742072657665616c2073746174650000000000000000000000000000000081525060200191505060405180910390fd5b600081600101541161244a576040517f08c379a00000000000000000000000000000000000000000000000000000000081526004018080602001828103825260118152602001807f6e6f6e706f736974697665207374616b6500000000000000000000000000000081525060200191505060405180910390fd5b6124548188613e5c565b6040518060400160405280878152602001826001015481525060036000898152602001908152602001600020600084815260200190815260200160002060008201518160000155602082015181600101559050506000801b600260008981526020019081526020016000206000848152602001908152602001600020819055506124fe8160010154600460008a81526020019081526020016000205461376390919063ffffffff16565b60046000898152602001908152602001600020819055506125508160010154600660008a815260200190815260200160002060008981526020019081526020016000205461376390919063ffffffff16565b600660008981526020019081526020016000206000888152602001908152602001600020819055508681600401819055507fa02957988806bd9d30dcd2845b047aa4f45bede519fbd15ebafe428505b0900f87838884600101546040518085815260200184815260200183815260200182815260200194505050505060405180910390a16126a1565b600f60000160009054906101000a900460ff1660ff166125f7610a2b565b1461266a576040517f08c379a00000000000000000000000000000000000000000000000000000000081526004018080602001828103825260108152602001807f4e6f7420636f6d6d69742073746174650000000000000000000000000000000081525060200191505060405180910390fd5b6000801b600260008981526020019081526020016000206000848152602001908152602001600020819055506126a08233613871565b5b50505050505050565b60006126c060504361364a90919063ffffffff16565b905090565b816126ce6126aa565b8114612742576040517f08c379a000000000000000000000000000000000000000000000000000000000815260040180806020018281038252600f8152602001807f696e636f72726563742065706f6368000000000000000000000000000000000081525060200191505060405180910390fd5b600f60000160009054906101000a900460ff1661275d610a2b565b8160ff16146127d4576040517f08c379a000000000000000000000000000000000000000000000000000000000815260040180806020018281038252600f8152602001807f696e636f7272656374207374617465000000000000000000000000000000000081525060200191505060405180910390fd5b6000600860009054906101000a900473ffffffffffffffffffffffffffffffffffffffff169050600f60050154841015612859576040517f08c379a00000000000000000000000000000000000000000000000000000000081526004018080602001828103825260318152602001806140876031913960400191505060405180910390fd5b8073ffffffffffffffffffffffffffffffffffffffff166323b872dd3330876040518463ffffffff1660e01b8152600401808473ffffffffffffffffffffffffffffffffffffffff1673ffffffffffffffffffffffffffffffffffffffff1681526020018373ffffffffffffffffffffffffffffffffffffffff1673ffffffffffffffffffffffffffffffffffffffff1681526020018281526020019350505050602060405180830381600087803b15801561291457600080fd5b505af1158015612928573d6000803e3d6000fd5b505050506040513d602081101561293e57600080fd5b81019080805190602001909291905050506129c1576040517f08c379a00000000000000000000000000000000000000000000000000000000081526004018080602001828103825260138152602001807f736368207472616e73666572206661696c65640000000000000000000000000081525060200191505060405180910390fd5b60008060003373ffffffffffffffffffffffffffffffffffffffff1673ffffffffffffffffffffffffffffffffffffffff1681526020019081526020016000205490506000811415612b2357612a23600160095461376390919063ffffffff16565b6009819055506040518060e0016040528060095481526020018681526020018781526020016000815260200160008152602001612a6e600f600901548961376390919063ffffffff16565b81526020016000815250600160006009548152602001908152602001600020600082015181600001556020820151816001015560408201518160020155606082015181600301556080820151816004015560a0820151816005015560c082015181600601559050506009549050806000803373ffffffffffffffffffffffffffffffffffffffff1673ffffffffffffffffffffffffffffffffffffffff16815260200190815260200160002081905550612bd6565b6000600160008381526020019081526020016000206001015411612b92576040517f08c379a000000000000000000000000000000000000000000000000000000000815260040180806020018281038252604d81526020018061403a604d913960600191505060405180910390fd5b612bbb85600160008481526020019081526020016000206001015461376390919063ffffffff16565b60016000838152602001908152602001600020600101819055505b612beb85600a5461376390919063ffffffff16565b600a819055507f925435fa7e37e5d9555bb18ce0d62bb9627d0846942e58e5291e9a2dded462ed8186604051808381526020018281526020019250505060405180910390a1505050505050565b6007602052816000526040600020602052806000526040600020600091509150508060000154908060010154908060020154905083565b600a5481565b600860009054906101000a900473ffffffffffffffffffffffffffffffffffffffff1681565b6006602052816000526040600020602052806000526040600020600091509150505481565b60095481565b600080612cd16126aa565b9050600560006001830381526020019081526020016000206001015491505090565b600b5481565b81612d026126aa565b8114612d76576040517f08c379a000000000000000000000000000000000000000000000000000000000815260040180806020018281038252600f8152602001807f696e636f72726563742065706f6368000000000000000000000000000000000081525060200191505060405180910390fd5b600f60000160039054906101000a900460ff16612d91610a2b565b8160ff1614612e08576040517f08c379a000000000000000000000000000000000000000000000000000000000815260040180806020018281038252600f8152602001807f696e636f7272656374207374617465000000000000000000000000000000000081525060200191505060405180910390fd5b6000612e316002600460008881526020019081526020016000205461364a90919063ffffffff16565b905060006007600087815260200190815260200160002060003373ffffffffffffffffffffffffffffffffffffffff1673ffffffffffffffffffffffffffffffffffffffff16815260200190815260200160002060000154905060006007600088815260200190815260200160002060003373ffffffffffffffffffffffffffffffffffffffff1673ffffffffffffffffffffffffffffffffffffffff16815260200190815260200160002060020154905060008090505b86518110156130ae5781878281518110612eff57fe5b602002602001015111612f5d576040517f08c379a0000000000000000000000000000000000000000000000000000000008152600401808060200182810382526029815260200180613f116029913960400191505060405180910390fd5b868181518110612f6957fe5b60200260200101519150612fbd600660008a81526020019081526020016000206000898481518110612f9757fe5b60200260200101518152602001908152602001600020548461376390919063ffffffff16565b92506000600760008a815260200190815260200160002060003373ffffffffffffffffffffffffffffffffffffffff1673ffffffffffffffffffffffffffffffffffffffff1681526020019081526020016000206001015414801561302157508383115b156130925786818151811061303257fe5b6020026020010151600760008a815260200190815260200160002060003373ffffffffffffffffffffffffffffffffffffffff1673ffffffffffffffffffffffffffffffffffffffff168152602001908152602001600020600101819055505b6127105a10156130a1576130ae565b8080600101915050612ee9565b50806007600089815260200190815260200160002060003373ffffffffffffffffffffffffffffffffffffffff1673ffffffffffffffffffffffffffffffffffffffff16815260200190815260200160002060020181905550816007600089815260200190815260200160002060003373ffffffffffffffffffffffffffffffffffffffff1673ffffffffffffffffffffffffffffffffffffffff1681526020019081526020016000206000018190555050505050505050565b60046020528060005260406000206000915090505481565b60008060006131ac601061319e60104361364a90919063ffffffff16565b6137eb90919063ffffffff16565b90506000600190505b8560ff168160ff161161321657826131d98260ff1684613a4190919063ffffffff16565b40604051602001808381526020018281526020019250505060405160208183030381529060405280519060200120925080806001019150506131b5565b5081846040516020018083815260200182815260200192505050604051602081830303815290604052805190602001209150819250505092915050565b600f8060000160009054906101000a900460ff16908060000160019054906101000a900460ff16908060000160029054906101000a900460ff16908060000160039054906101000a900460ff169080600101549080600201549080600301549080600401549080600501549080600601549080600701549080600801549080600901549080600a015490508e565b600c5481565b6003602052816000526040600020602052806000526040600020600091509150508060000154908060010154905082565b6002602052816000526040600020602052806000526040600020600091509150505481565b60056020528060005260406000206000915090508060000154908060010154908060020154908060030154905084565b816133766126aa565b81146133ea576040517f08c379a000000000000000000000000000000000000000000000000000000000815260040180806020018281038252600f8152602001807f696e636f72726563742065706f6368000000000000000000000000000000000081525060200191505060405180910390fd5b600f60000160009054906101000a900460ff16613405610a2b565b8160ff161461347c576040517f08c379a000000000000000000000000000000000000000000000000000000000815260040180806020018281038252600f8152602001807f696e636f7272656374207374617465000000000000000000000000000000000081525060200191505060405180910390fd5b60008060003373ffffffffffffffffffffffffffffffffffffffff1673ffffffffffffffffffffffffffffffffffffffff1681526020019081526020016000205490506000801b600260008781526020019081526020016000206000838152602001908152602001600020541461355b576040517f08c379a00000000000000000000000000000000000000000000000000000000081526004018080602001828103825260108152602001807f616c726561647920636f6d6d697465640000000000000000000000000000000081525060200191505060405180910390fd5b6000600160008381526020019081526020016000209050600061357e8288613aca565b90507fa63f6e5f3b8cca289dfc8649ede8fbf4eeb9991f44d7bc70c3fb53b128521a58816040518082815260200191505060405180910390a1600f600501548260010154106136415785600260008981526020019081526020016000206000858152602001908152602001600020819055508682600301819055507fdad4a6987898eb6021100d7006409b112ed5ba7b73761d6867ea5d02cd85c49987848860405180848152602001838152602001828152602001935050505060405180910390a15b50505050505050565b60008082116136c1576040517f08c379a000000000000000000000000000000000000000000000000000000000815260040180806020018281038252601a8152602001807f536166654d6174683a206469766973696f6e206279207a65726f00000000000081525060200191505060405180910390fd5b60008284816136cc57fe5b0490508091505092915050565b600080821415613751576040517f08c379a00000000000000000000000000000000000000000000000000000000081526004018080602001828103825260188152602001807f536166654d6174683a206d6f64756c6f206279207a65726f000000000000000081525060200191505060405180910390fd5b81838161375a57fe5b06905092915050565b6000808284019050838110156137e1576040517f08c379a000000000000000000000000000000000000000000000000000000000815260040180806020018281038252601b8152602001807f536166654d6174683a206164646974696f6e206f766572666c6f77000000000081525060200191505060405180910390fd5b8091505092915050565b6000808314156137fe576000905061386b565b600082840290508284828161380f57fe5b0414613866576040517f08c379a0000000000000000000000000000000000000000000000000000000008152600401808060200182810382526021815260200180613f6b6021913960400191505060405180910390fd5b809150505b92915050565b6000600860009054906101000a900473ffffffffffffffffffffffffffffffffffffffff16905060006138c46002600160008781526020019081526020016000206001015461364a90919063ffffffff16565b9050600060016000868152602001908152602001600020600101819055506001811115613a3b5761390081600a54613a4190919063ffffffff16565b600a819055508173ffffffffffffffffffffffffffffffffffffffff1663a9059cbb84836040518363ffffffff1660e01b8152600401808373ffffffffffffffffffffffffffffffffffffffff1673ffffffffffffffffffffffffffffffffffffffff16815260200182815260200192505050602060405180830381600087803b15801561398d57600080fd5b505af11580156139a1573d6000803e3d6000fd5b505050506040513d60208110156139b757600080fd5b8101908080519060200190929190505050613a3a576040517f08c379a00000000000000000000000000000000000000000000000000000000081526004018080602001828103825260198152602001807f6661696c656420746f207472616e7366657220626f756e74790000000000000081525060200191505060405180910390fd5b5b50505050565b600082821115613ab9576040517f08c379a000000000000000000000000000000000000000000000000000000000815260040180806020018281038252601e8152602001807f536166654d6174683a207375627472616374696f6e206f766572666c6f77000081525060200191505060405180910390fd5b600082840390508091505092915050565b60008083600401549050600183118015613ae45750600081115b15613e555760008460040154856002015410613b04578460020154613b0a565b84600401545b90506000613b218286613a4190919063ffffffff16565b90506000866001015490506001821115613b9b57613b92613b4c600184613a4190919063ffffffff16565b600f600201540a613b84613b6a600186613a4190919063ffffffff16565b600f600101540a8a600101546137eb90919063ffffffff16565b61364a90919063ffffffff16565b87600101819055505b60006005600086815260200190815260200160002060010154905060006003600087815260200190815260200160002060008a600001548152602001908152602001600020600001549050600082118015613bf65750600081115b15613e4f576000613ca3613c1384856137eb90919063ffffffff16565b613c95612710613c87613c42613c336002896137eb90919063ffffffff16565b896137eb90919063ffffffff16565b613c79613c58898a6137eb90919063ffffffff16565b613c6b8b8c6137eb90919063ffffffff16565b61376390919063ffffffff16565b613a4190919063ffffffff16565b6137eb90919063ffffffff16565b61364a90919063ffffffff16565b90507fa63f6e5f3b8cca289dfc8649ede8fbf4eeb9991f44d7bc70c3fb53b128521a58816040518082815260200191505060405180910390a1613cf06002846137eb90919063ffffffff16565b821115613d215760008a60010181905550613d1684600d5461376390919063ffffffff16565b600d81905550613e4d565b600082118015613da15750613d576064613d49600f60080154866137eb90919063ffffffff16565b61364a90919063ffffffff16565b821080613da05750613d9d6064613d8f613d80600f6008015460c8613a4190919063ffffffff16565b866137eb90919063ffffffff16565b61364a90919063ffffffff16565b82115b5b15613e3057613df2613de3612710613dd587613dc7600187613a4190919063ffffffff16565b6137eb90919063ffffffff16565b61364a90919063ffffffff16565b85613a4190919063ffffffff16565b8a60010181905550613e25613e148b6001015486613a4190919063ffffffff16565b600d5461376390919063ffffffff16565b600d81905550613e4c565b613e4584600e5461376390919063ffffffff16565b600e819055505b5b505b50505050505b5092915050565b600181118015613e6e57506000600e54115b15613f0c5760008260040154905060006003600083815260200190815260200160002060008560000154815260200190815260200160002060000154905060006005600084815260200190815260200160002060010154905080606302606483021080613ee057508060650260648302115b15613f0857600e54600d5486600101540281613ef857fe5b0485600101540185600101819055505b5050505b505056fe736f727465645b695d206973206e6f742067726561746572207468616e206c61737456697369746564697465726174696f6e206e6f7420626967676572207468616e206578697374696e6720656c6563746564207374616b6572536166654d6174683a206d756c7469706c69636174696f6e206f766572666c6f7750726f706f73656420416c7465726e61746520626c6f636b206173206964656e746963616c20746f2070726f706f73656420626c6f636b62696767657374207374616b657273207374616b65206e6f7420626967676572207468616e2061732070726f706f736564206279206578697374696e6720656c6563746564207374616b657220616c726561647920636f6d6d6974656420746869732065706f63682e2043616e74207769746864726177616464696e67207374616b65206973206e6f7420706f737369626c65206166746572207769746864726177616c2f736c6173682e20506c65617365207573652061206e657720616464726573737374616b656420616d6f756e74206973206c657373207468616e206d696e696d756d207374616b65207265717569726564a165627a7a723058206a9f3ff10bb85318b4e2ccd037a9de4c38008ab01239577ac774cd9cf4af96770029",
  "source": "pragma solidity 0.5.7;\nimport \"./SimpleToken.sol\";\nimport \"openzeppelin-solidity/contracts/math/SafeMath.sol\";\n\n// WARNING IN development\n// Must Vote price rounded to 2 decimals *100 and must be above 0\n// e.g. if ethusd is 169.99 vote 16999\n// invalid vote cannot be revealed and you will get penalty\n// node == staker\n// TODO Priority list\n// nobody proposes, nobody disputes, extending dispute period\n// staker wants to vote but cant because below minimum. how to handle? should he be penalized? how much waiting time?\n\n// new algo\n//give reward and penalty in state 1 not state 2. because someone may defect in state 2 and leave in next epoch state 1\n//calculate penalty in state 1 and distribute reward in state 2\n//state 2 divide reward to those who committed in state 1 and distribute. if they dont participate, too bad.\n// newvariables. global rewardpool.\ncontract Schelling2 {\n    using SafeMath for uint256;\n\n    struct Vote {\n        uint256 value;\n        uint256 weight;\n    }\n\n    struct Node {\n        uint256 id;\n        uint256 stake;\n        uint256 epochStaked;\n        uint256 epochLastCommitted;\n        uint256 epochLastRevealed;\n        uint256 unstakeAfter;\n        uint256 withdrawAfter;\n    }\n\n    struct Block {\n        uint256 proposerId;\n        uint256 median;\n        uint256 iteration;\n        uint256 biggestStake;\n    }\n\n    struct Dispute {\n        uint256 accWeight;\n        uint256 median;\n        uint256 lastVisited;\n    }\n\n    mapping (address => uint256) public nodeIds;\n    mapping (uint256 => Node) public nodes;\n    mapping (uint256 => mapping (uint256 => bytes32)) public commitments;\n    mapping (uint256 => mapping (uint256 => Vote)) public votes;\n    mapping (uint256 => uint256) public totalStakeRevealed;\n    mapping (uint256 => Block) public blocks;\n\n    mapping (uint256 => mapping (uint256 => uint256)) public voteWeights;\n\n    mapping(uint256 => mapping(address => Dispute)) public disputes;\n    address public schAddress;\n\n    uint256 public numNodes = 0;\n    uint256 public totalStake = 0;\n\n    struct Constants {\n        uint8 COMMIT;\n        uint8 REVEAL;\n        uint8 PROPOSE;\n        uint8 DISPUTE;\n        uint256 PENALTY_NOT_REVEAL_NUM;\n        uint256 PENALTY_NOT_REVEAL_DENOM;\n        uint256 PENALTY_NOT_IN_ZONE_NUM;\n        uint256 PENALTY_NOT_IN_ZONE_DENOM;\n        uint256 MIN_STAKE;\n        uint256 BLOCK_REWARD;\n        uint256 REVEAL_REWARD;\n        uint256 SAFETY_MARGIN_LOWER;\n        // uint256 SAFETY_MARGIN_UPPER;\n        uint256 UNSTAKE_LOCK_PERIOD;\n        uint256 WITHDRAW_LOCK_PERIOD;\n    }\n\n    uint256 public EPOCH;\n    uint256 public STATE;\n    uint256 public rewardPool = 0;\n    uint256 public stakeGettingReward = 0;\n\n    Constants public c = Constants(0, 1, 2, 3, 95, 100, 99, 100, 1000, 5, 5, 99, 1, 1);\n\n    constructor (address _schAddress) public {\n        schAddress = _schAddress;\n    }\n\n    modifier checkEpoch (uint256 epoch) {\n        require(epoch == getEpoch(), \"incorrect epoch\");\n        _;\n    }\n\n    modifier checkState (uint8 state) {\n        require(state == getState(), \"incorrect state\");\n        _;\n    }\n\n    event Staked(uint256 nodeId, uint256 amount);\n\n    // stake during commit state only\n    // we check epoch during every transaction to avoid withholding and rebroadcasting attacks\n    function stake (uint256 epoch, uint256 amount) public checkEpoch(epoch) checkState(c.COMMIT) {\n        SimpleToken sch = SimpleToken(schAddress);\n         //not allowed during reveal period\n        //require(getState() != c.REVEAL);\n        require(amount >= c.MIN_STAKE, \"staked amount is less than minimum stake required\");\n        require(sch.transferFrom(msg.sender, address(this), amount), \"sch transfer failed\");\n        uint256 nodeId = nodeIds[msg.sender];\n        if (nodeId == 0) {\n            numNodes = numNodes.add(1);\n            nodes[numNodes] = Node(numNodes, amount, epoch, 0, 0, epoch.add(c.UNSTAKE_LOCK_PERIOD), 0);\n            nodeId = numNodes;\n            nodeIds[msg.sender] = nodeId;\n        } else {\n            require(nodes[nodeId].stake > 0,\n                    \"adding stake is not possible after withdrawal/slash. Please use a new address\");\n            nodes[nodeId].stake = nodes[nodeId].stake.add(amount);\n        }\n        totalStake = totalStake.add(amount);\n        emit Staked(nodeId, amount);\n    }\n\n    event Unstaked(uint256 nodeId);\n\n    // staker must call unstake() and continue voting for c.WITHDRAW_LOCK_PERIOD\n    //after which she can call withdraw() to finally Withdraw\n    function unstake (uint256 epoch) public checkEpoch(epoch) {\n        // require(getState()!= 1); //not allowed during reveal period\n        uint256 nodeId = nodeIds[msg.sender];\n        Node storage node = nodes[nodeId];\n        require(node.id != 0);\n        require(node.stake > 0, \"Nonpositive stake\");\n        require(node.unstakeAfter <= epoch && node.unstakeAfter != 0);\n        node.unstakeAfter = 0;\n        node.withdrawAfter = epoch.add(c.WITHDRAW_LOCK_PERIOD);\n        emit Unstaked(nodeId);\n    }\n\n    event Withdrew(uint256 nodeId, uint256 amount);\n\n    function withdraw (uint256 epoch) public checkEpoch(epoch) checkState(c.COMMIT) {\n        uint256 nodeId = nodeIds[msg.sender];\n        Node storage node = nodes[nodeId];\n        require(node.id != 0, \"node doesnt exist\");\n        require(node.epochLastRevealed == epoch.sub(1), \"Didnt reveal in last epoch\");\n        require(node.unstakeAfter == 0, \"Did not unstake\");\n        require((node.withdrawAfter <= epoch) && node.withdrawAfter != 0, \"Withdraw epoch not reached\");\n        require(commitments[epoch][nodeId] == 0x0, \"already commited this epoch. Cant withdraw\");\n        givePenalties(node, epoch);\n        require(node.stake > 0, \"Nonpositive Stake\");\n        SimpleToken sch = SimpleToken(schAddress);\n        totalStake = totalStake.sub(nodes[nodeId].stake);\n        nodes[nodeId].stake = 0;\n        emit Withdrew(nodeId, nodes[nodeId].stake);\n        require(sch.transfer(msg.sender, nodes[nodeId].stake));\n    }\n\n    event Committed(uint256 epoch, uint256 nodeId, bytes32 commitment);\n\n    event Y(uint256 y);\n\n    // what was the eth/usd rate at the beginning of this epoch?\n    function commit (uint256 epoch, bytes32 commitment) public checkEpoch(epoch) checkState(c.COMMIT) {\n        uint256 nodeId = nodeIds[msg.sender];\n        require(commitments[epoch][nodeId] == 0x0, \"already commited\");\n        Node storage thisStaker = nodes[nodeId];\n        uint256 y = givePenalties(thisStaker, epoch);\n        emit Y(y);\n        if (thisStaker.stake >= c.MIN_STAKE) {\n            commitments[epoch][nodeId] = commitment;\n            thisStaker.epochLastCommitted = epoch;\n            emit Committed(epoch, nodeId, commitment);\n        }\n    }\n\n    event Revealed(uint256 epoch, uint256 nodeId, uint256 value, uint256 stake);\n\n    function reveal (uint256 epoch, uint256 value, bytes32 secret, address stakerAddress)\n    public\n    checkEpoch(epoch) {\n        uint256 thisNodeId = nodeIds[stakerAddress];\n        require(thisNodeId > 0, \"Node does not exist\");\n        Node storage thisStaker = nodes[thisNodeId];\n        require(commitments[epoch][thisNodeId] != 0x0, \"not commited or already revealed\");\n        require(value > 0, \"voted non positive value\");\n        require(keccak256(abi.encodePacked(epoch, value, secret)) == commitments[epoch][thisNodeId],\n                \"incorrect secret/value\");\n        //if revealing self\n        if (msg.sender == stakerAddress) {\n            require(getState() == c.REVEAL, \"Not reveal state\");\n            require(thisStaker.stake > 0, \"nonpositive stake\");\n            giveRewards(thisStaker, epoch);\n            votes[epoch][thisNodeId] = Vote(value, thisStaker.stake);\n            commitments[epoch][thisNodeId] = 0x0;\n            totalStakeRevealed[epoch] = totalStakeRevealed[epoch].add(thisStaker.stake);\n            voteWeights[epoch][value] = voteWeights[epoch][value].add(thisStaker.stake);\n            thisStaker.epochLastRevealed = epoch;\n            emit Revealed(epoch, thisNodeId, value, thisStaker.stake);\n        } else {\n            //bounty hunter revealing someone else's secret in commit state\n            require(getState() == c.COMMIT, \"Not commit state\");\n            commitments[epoch][thisNodeId] = 0x0;\n            slash(thisNodeId, msg.sender);\n        }\n    }\n\n    function isElectedProposer(uint256 iteration, uint256 biggestStakerId, uint256 nodeId) public view returns(bool) {\n        // rand = 0 -> totalStake-1\n        //add +1 since prng returns 0 to max-1 and node start from 1\n        if ((prng(10, numNodes, keccak256(abi.encode(iteration))).add(1)) != nodeId) return(false);\n        bytes32 randHash = prngHash(10, keccak256(abi.encode(nodeId, iteration)));\n        uint256 rand = uint256(randHash).mod(2**32);\n        uint256 biggestStake = nodes[biggestStakerId].stake;\n        if (rand.mul(biggestStake) > nodes[nodeId].stake.mul(2**32)) return(false);\n        return(true);\n    }\n\n    event Proposed(uint256 epoch,\n                    uint256 nodeId,\n                    uint256 median,\n                    uint256 iteration,\n                    uint256 biggestStakerId);\n\n    // elected proposer proposes block. we use a probabilistic method to elect stakers weighted by stake\n    // protocol works like this. select a staker pseudorandomly (not weighted by anything)\n    // (todo what if it is below min stake)\n    // that staker then tosses a biased coin. bias = hisStake/biggestStake. if its heads, he can propose block\n    // end of iteration. try next iteration\n    // note that only one staker or no stakers selected in each iteration.\n    // stakers elected in higher iterations can also propose hoping that\n    // stakers with lower iteration do not propose for some reason\n    function propose (uint256 epoch,\n                    uint256 median,\n                    uint256 iteration,\n                    uint256 biggestStakerId) public checkEpoch(epoch) checkState(c.PROPOSE) {\n        uint256 proposerId = nodeIds[msg.sender];\n        SimpleToken sch = SimpleToken(schAddress);\n        require(isElectedProposer(iteration, biggestStakerId, proposerId), \"not elected\");\n        require(nodes[proposerId].stake >= c.MIN_STAKE, \"stake below minimum stake\");\n\n        //check if someone already proposed\n        if (blocks[epoch].proposerId != 0) {\n            if (blocks[epoch].proposerId == proposerId) {\n                revert(\"Already Proposed\");\n            }\n            if (nodes[biggestStakerId].stake == blocks[epoch].biggestStake) {\n                require(blocks[epoch].iteration > iteration, \"iteration not bigger than existing elected staker\");\n            } else if (nodes[biggestStakerId].stake < blocks[epoch].biggestStake) {\n                revert(\"biggest stakers stake not bigger than as proposed by existing elected staker \");\n            }\n        }\n        //median can be zero if no one committed\n        // require(median > 0);\n        blocks[epoch] = Block(proposerId,\n                                median,\n                                iteration,\n                                nodes[biggestStakerId].stake);\n        if (c.BLOCK_REWARD > 0) {\n            nodes[proposerId].stake = nodes[proposerId].stake.add(c.BLOCK_REWARD);\n            totalStake = totalStake.add(c.BLOCK_REWARD);\n            require(sch.mint(address(this), c.BLOCK_REWARD));\n        }\n        emit Proposed(epoch, proposerId, median, iteration, biggestStakerId);\n    }\n\n    //anyone can give sorted votes in batches in dispute state\n    function giveSorted (uint256 epoch, uint256[] memory sorted) public checkEpoch(epoch) checkState(c.DISPUTE) {\n        uint256 medianWeight = totalStakeRevealed[epoch].div(2);\n        //accWeight = accumulatedWeight\n        uint256 accWeight = disputes[epoch][msg.sender].accWeight;\n        uint256 lastVisited = disputes[epoch][msg.sender].lastVisited;\n        for (uint256 i = 0; i < sorted.length; i++) {\n            require(sorted[i] > lastVisited, \"sorted[i] is not greater than lastVisited\");\n            lastVisited = sorted[i];\n            accWeight = accWeight.add(voteWeights[epoch][sorted[i]]);\n            //set  median, if conditions meet\n            if (disputes[epoch][msg.sender].median == 0 && accWeight > medianWeight) {\n                disputes[epoch][msg.sender].median = sorted[i];\n            }\n            //TODO verify how much gas required for below operations and update this value\n            if (gasleft() < 10000) break;\n        }\n        disputes[epoch][msg.sender].lastVisited = lastVisited;\n        disputes[epoch][msg.sender].accWeight = accWeight;\n    }\n\n    //todo test\n    //if any mistake made during giveSorted, resetDispute and start again\n    function resetDispute (uint256 epoch) public checkEpoch(epoch) checkState(c.DISPUTE) {\n        disputes[epoch][msg.sender] = Dispute(0, 0, 0);\n    }\n\n    //propose alternate block in dispute phase\n    //if no one votes, skip giveSorted and proposeAlt directly.\n    function proposeAlt (uint256 epoch) public checkEpoch(epoch) checkState(c.DISPUTE) {\n        require(disputes[epoch][msg.sender].accWeight == totalStakeRevealed[epoch]);\n        uint256 median = disputes[epoch][msg.sender].median;\n        uint256 bountyHunterId = nodeIds[msg.sender];\n        uint256 proposerId = blocks[epoch].proposerId;\n\n        require(median > 0);\n        if (blocks[epoch].median != median) {\n            blocks[epoch] = Block(bountyHunterId, median,\n                                    0, 0);\n            emit Proposed(epoch, proposerId, median, 0, 0);\n            slash(proposerId, msg.sender);\n        } else {\n            revert(\"Proposed Alternate block as identical to proposed block\");\n        }\n    }\n\n    function getEpoch () public view returns(uint256) {\n        // return(EPOCH);\n        return(block.number.div(80));\n    }\n\n    function getState () public view returns(uint256) {\n        // return (STATE);\n        uint256 state = (block.number.div(20));\n        return (state.mod(4));\n    }\n\n    //return price from last epoch\n    function getPrice() public view returns (uint256) {\n        uint256 epoch = getEpoch();\n        return(blocks[epoch-1].median);\n    }\n\n    // pseudo random number generator based on block hashes. returns 0 -> max-1\n    function prng (uint8 numBlocks, uint256 max, bytes32 seed) public view returns (uint256) {\n        bytes32 hashh = prngHash(numBlocks, seed);\n        uint256 sum = uint256(hashh);\n        return(sum.mod(max));\n    }\n\n    // pseudo random hash generator based on block hashes.\n    function prngHash (uint8 numBlocks, bytes32 seed) public view returns(bytes32) {\n        bytes32 sum;\n        uint256 blockNumberEpochStart = (block.number.div(16)).mul(16);\n        for (uint8 i = 1; i <= numBlocks; i++) {\n            sum = keccak256(abi.encodePacked(sum, blockhash(blockNumberEpochStart.sub(i))));\n        }\n        sum = keccak256(abi.encodePacked(sum, seed));\n        return(sum);\n    }\n\n    // WARNING TODO FOR TESTING ONLY. REMOVE IN PROD\n    // function setEpoch (uint256 epoch) public { EPOCH = epoch;}\n    //\n    // function setState (uint256 state) public { STATE = state;}\n    //\n    // // dummy function to forcibly increase block number in ganache\n    // function dum () public {true;}\n    // END TESTING FUNCTIONS\n    // internal functions vvvvvvvv\n    //executed in state 0\n\n    function givePenalties (Node storage thisStaker, uint256 epoch) internal returns(uint256) {\n        uint256 epochLastRevealed = thisStaker.epochLastRevealed;\n        if (epoch > 1 && epochLastRevealed > 0) {\n            uint256 epochLastActive = thisStaker.epochStaked < thisStaker.epochLastRevealed ?\n                                    thisStaker.epochLastRevealed :\n                                    thisStaker.epochStaked;\n            // penalize or reward if last active more than epoch - 1\n            uint256 penalizeEpochs = epoch.sub(epochLastActive);\n            uint256 previousStake = thisStaker.stake;\n            if (penalizeEpochs > 1) {\n                thisStaker.stake = (thisStaker.stake.mul(c.PENALTY_NOT_REVEAL_NUM**(penalizeEpochs.sub(1)))).div(\n                c.PENALTY_NOT_REVEAL_DENOM**(penalizeEpochs.sub(1)));\n            }\n            uint256 medianLastEpoch = blocks[epochLastRevealed].median;\n            uint256 voteLastEpoch = votes[epochLastRevealed][thisStaker.id].value;\n            if (medianLastEpoch > 0 && voteLastEpoch > 0) {\n              // //penalty for out of zone for in zone\n              // // (y= ((M - x)^2/M^2))- 0.0001\n              // // (10000((M-x)(M-x)/M*M) - 1)/10000\n              //for M = 160, x = 10\n              //\n              // uint256 y =  ((((medianLastEpoch.sub(voteLastEpoch)).mul(medianLastEpoch.sub(\n              //             voteLastEpoch))).div(medianLastEpoch.mul(medianLastEpoch))).mul(\n              //             uint256(10000)));\n\n              // should probably simplify this curve to a linear curve\n              // cut stake by 100% if vote is 0 or >2*M where M is weighted median\n                uint256 y = (((medianLastEpoch.mul(medianLastEpoch)).add(voteLastEpoch.mul(voteLastEpoch)))\n                            .sub(medianLastEpoch.mul(voteLastEpoch.mul(2)))).mul(10000)\n                            .div(medianLastEpoch.mul(medianLastEpoch));\n                emit Y(y);\n\n                           // uint256 y = (10000*(medianLastEpoch*medianLastEpoch + voteLastEpoch*voteLastEpoch\n                           //            -2*medianLastEpoch*voteLastEpoch))/(\n                           //              medianLastEpoch*medianLastEpoch);\n                if (voteLastEpoch > (medianLastEpoch.mul(2))) {\n                    thisStaker.stake = 0;\n                    rewardPool = rewardPool.add(previousStake);\n                } else if (voteLastEpoch > 0 &&\n                    (voteLastEpoch < (medianLastEpoch.mul(c.SAFETY_MARGIN_LOWER)).div(100) ||\n                    voteLastEpoch > (medianLastEpoch.mul(uint256(200).sub(\n                                    c.SAFETY_MARGIN_LOWER))).div(100))) {\n                                        // return(y);\n                  //stake = y*stake\n                  // thisStaker.stake = ((y.sub(uint256(1))).mul(thisStaker.stake)).div(uint256(10000));\n                  // thisStaker.stake = thisStaker.stake.sub(((y.sub(uint256(1)))\n                  //.mul(thisStaker.stake)).div(uint256(10000)));\n                  // thisStaker.stake = stakeBefore-(((y-1)*stakeBefore)/10000);\n\n                    thisStaker.stake = previousStake.sub(((y.sub(1)).mul(previousStake)).div(10000));\n\n                    rewardPool = rewardPool.add(previousStake.sub(thisStaker.stake));\n                } else {\n                // reward += stake*(0.0001-y)\n                // = stake*(1-10000y)/10000\n                // = stake*()\n                  // stakeGettingReward = stakeGettingReward.add((thisStaker.stake.mul(\n                  //                     uint256(1).sub(uint256(10000).mul(y)))).div(10000));\n                    stakeGettingReward = stakeGettingReward.add(previousStake);//*(1 - y);\n                }\n            }\n        }\n    }\n\n    //executed in state 1\n    function giveRewards (Node storage thisStaker, uint256 epoch) internal {\n        if (epoch > 1 && stakeGettingReward > 0) {\n            uint256 epochLastRevealed = thisStaker.epochLastRevealed;\n            uint256 voteLastEpoch = votes[epochLastRevealed][thisStaker.id].value;\n            uint256 medianLastEpoch = blocks[epochLastRevealed].median;\n\n        //rewardpool*stake*multiplier/stakeGettingReward\n            // uint256 y =  ((((medianLastEpoch.sub(voteLastEpoch)).mul(medianLastEpoch.sub(\n            //         voteLastEpoch))).div(medianLastEpoch.mul(medianLastEpoch))).mul(\n            //         uint256(10000)));\n            //give rewards if voted in zone\n            if ((voteLastEpoch * 100 < (99 * medianLastEpoch) || (voteLastEpoch * 100 > (101 * medianLastEpoch)))) {\n                thisStaker.stake = thisStaker.stake + (thisStaker.stake*rewardPool)/stakeGettingReward;\n            }\n        }\n    }\n\n    function slash (uint256 id, address bountyHunter) internal {\n        SimpleToken sch = SimpleToken(schAddress);\n        uint256 halfStake = nodes[id].stake.div(2);\n        nodes[id].stake = 0;\n        if (halfStake > 1) {\n            totalStake = totalStake.sub(halfStake);\n            require(sch.transfer(bountyHunter, halfStake), \"failed to transfer bounty\");\n        }\n    }\n    // function stakeTransfer(uint256 fromId, address to, uint256 amount) internal{\n    //     // uint256 fromId = nodeIds[from];\n    //     require(fromId!=0);\n    //     require(nodes[fromId].stake >= amount);\n    //     uint256 toId = nodeIds[to];\n    //     nodes[fromId].stake = nodes[fromId].stake - amount;\n    //     if (toId == 0) {\n    //         numNodes = numNodes + 1;\n    //         nodes[numNodes] = Node(numNodes, amount, 0, 0, 0);\n    //         nodeIds[to] = numNodes;\n    //     } else {\n    //         nodes[toId].stake = nodes[toId].stake + amount;\n    //     }\n    // }\n\n}\n",
  "sourcePath": "/home/hrishi/contracts/contracts/Schelling2.sol",
  "compiler": {
    "name": "solc",
    "version": "0.5.7+commit.6da8b019.Emscripten.clang"
  },
  "schemaVersion": "3.0.11",
  "updatedAt": "2019-07-02T16:53:08.888Z",
  "devdoc": {
    "methods": {}
  },
  "userdoc": {
    "methods": {}
  }
}