{
  "contractName": "Schelling2",
  "abi": [
    {
      "constant": true,
      "inputs": [],
      "name": "stakeGettingReward",
      "outputs": [
        {
          "name": "",
          "type": "uint256"
        }
      ],
      "payable": false,
      "stateMutability": "view",
      "type": "function"
    },
    {
      "constant": true,
      "inputs": [
        {
          "name": "",
          "type": "uint256"
        }
      ],
      "name": "nodes",
      "outputs": [
        {
          "name": "id",
          "type": "uint256"
        },
        {
          "name": "stake",
          "type": "uint256"
        },
        {
          "name": "epochStaked",
          "type": "uint256"
        },
        {
          "name": "epochLastCommitted",
          "type": "uint256"
        },
        {
          "name": "epochLastRevealed",
          "type": "uint256"
        },
        {
          "name": "unstakeAfter",
          "type": "uint256"
        },
        {
          "name": "withdrawAfter",
          "type": "uint256"
        }
      ],
      "payable": false,
      "stateMutability": "view",
      "type": "function"
    },
    {
      "constant": true,
      "inputs": [
        {
          "name": "",
          "type": "address"
        }
      ],
      "name": "nodeIds",
      "outputs": [
        {
          "name": "",
          "type": "uint256"
        }
      ],
      "payable": false,
      "stateMutability": "view",
      "type": "function"
    },
    {
      "constant": true,
      "inputs": [],
      "name": "rewardPool",
      "outputs": [
        {
          "name": "",
          "type": "uint256"
        }
      ],
      "payable": false,
      "stateMutability": "view",
      "type": "function"
    },
    {
      "constant": true,
      "inputs": [
        {
          "name": "",
          "type": "uint256"
        },
        {
          "name": "",
          "type": "address"
        }
      ],
      "name": "disputes",
      "outputs": [
        {
          "name": "accWeight",
          "type": "uint256"
        },
        {
          "name": "median",
          "type": "uint256"
        },
        {
          "name": "lastVisited",
          "type": "uint256"
        }
      ],
      "payable": false,
      "stateMutability": "view",
      "type": "function"
    },
    {
      "constant": true,
      "inputs": [],
      "name": "totalStake",
      "outputs": [
        {
          "name": "",
          "type": "uint256"
        }
      ],
      "payable": false,
      "stateMutability": "view",
      "type": "function"
    },
    {
      "constant": true,
      "inputs": [],
      "name": "schAddress",
      "outputs": [
        {
          "name": "",
          "type": "address"
        }
      ],
      "payable": false,
      "stateMutability": "view",
      "type": "function"
    },
    {
      "constant": true,
      "inputs": [
        {
          "name": "",
          "type": "uint256"
        },
        {
          "name": "",
          "type": "uint256"
        }
      ],
      "name": "voteWeights",
      "outputs": [
        {
          "name": "",
          "type": "uint256"
        }
      ],
      "payable": false,
      "stateMutability": "view",
      "type": "function"
    },
    {
      "constant": true,
      "inputs": [],
      "name": "numNodes",
      "outputs": [
        {
          "name": "",
          "type": "uint256"
        }
      ],
      "payable": false,
      "stateMutability": "view",
      "type": "function"
    },
    {
      "constant": true,
      "inputs": [],
      "name": "EPOCH",
      "outputs": [
        {
          "name": "",
          "type": "uint256"
        }
      ],
      "payable": false,
      "stateMutability": "view",
      "type": "function"
    },
    {
      "constant": true,
      "inputs": [
        {
          "name": "",
          "type": "uint256"
        }
      ],
      "name": "totalStakeRevealed",
      "outputs": [
        {
          "name": "",
          "type": "uint256"
        }
      ],
      "payable": false,
      "stateMutability": "view",
      "type": "function"
    },
    {
      "constant": true,
      "inputs": [],
      "name": "c",
      "outputs": [
        {
          "name": "COMMIT",
          "type": "uint8"
        },
        {
          "name": "REVEAL",
          "type": "uint8"
        },
        {
          "name": "PROPOSE",
          "type": "uint8"
        },
        {
          "name": "DISPUTE",
          "type": "uint8"
        },
        {
          "name": "PENALTY_NOT_REVEAL_NUM",
          "type": "uint256"
        },
        {
          "name": "PENALTY_NOT_REVEAL_DENOM",
          "type": "uint256"
        },
        {
          "name": "PENALTY_NOT_IN_ZONE_NUM",
          "type": "uint256"
        },
        {
          "name": "PENALTY_NOT_IN_ZONE_DENOM",
          "type": "uint256"
        },
        {
          "name": "MIN_STAKE",
          "type": "uint256"
        },
        {
          "name": "BLOCK_REWARD",
          "type": "uint256"
        },
        {
          "name": "REVEAL_REWARD",
          "type": "uint256"
        },
        {
          "name": "SAFETY_MARGIN_LOWER",
          "type": "uint256"
        },
        {
          "name": "UNSTAKE_LOCK_PERIOD",
          "type": "uint256"
        },
        {
          "name": "WITHDRAW_LOCK_PERIOD",
          "type": "uint256"
        }
      ],
      "payable": false,
      "stateMutability": "view",
      "type": "function"
    },
    {
      "constant": true,
      "inputs": [],
      "name": "STATE",
      "outputs": [
        {
          "name": "",
          "type": "uint256"
        }
      ],
      "payable": false,
      "stateMutability": "view",
      "type": "function"
    },
    {
      "constant": true,
      "inputs": [
        {
          "name": "",
          "type": "uint256"
        },
        {
          "name": "",
          "type": "uint256"
        }
      ],
      "name": "votes",
      "outputs": [
        {
          "name": "value",
          "type": "uint256"
        },
        {
          "name": "weight",
          "type": "uint256"
        }
      ],
      "payable": false,
      "stateMutability": "view",
      "type": "function"
    },
    {
      "constant": true,
      "inputs": [
        {
          "name": "",
          "type": "uint256"
        },
        {
          "name": "",
          "type": "uint256"
        }
      ],
      "name": "commitments",
      "outputs": [
        {
          "name": "",
          "type": "bytes32"
        }
      ],
      "payable": false,
      "stateMutability": "view",
      "type": "function"
    },
    {
      "constant": true,
      "inputs": [
        {
          "name": "",
          "type": "uint256"
        }
      ],
      "name": "blocks",
      "outputs": [
        {
          "name": "proposerId",
          "type": "uint256"
        },
        {
          "name": "median",
          "type": "uint256"
        },
        {
          "name": "iteration",
          "type": "uint256"
        },
        {
          "name": "biggestStake",
          "type": "uint256"
        }
      ],
      "payable": false,
      "stateMutability": "view",
      "type": "function"
    },
    {
      "inputs": [
        {
          "name": "_schAddress",
          "type": "address"
        }
      ],
      "payable": false,
      "stateMutability": "nonpayable",
      "type": "constructor"
    },
    {
      "anonymous": false,
      "inputs": [
        {
          "indexed": false,
          "name": "nodeId",
          "type": "uint256"
        },
        {
          "indexed": false,
          "name": "amount",
          "type": "uint256"
        }
      ],
      "name": "Staked",
      "type": "event"
    },
    {
      "anonymous": false,
      "inputs": [
        {
          "indexed": false,
          "name": "nodeId",
          "type": "uint256"
        }
      ],
      "name": "Unstaked",
      "type": "event"
    },
    {
      "anonymous": false,
      "inputs": [
        {
          "indexed": false,
          "name": "nodeId",
          "type": "uint256"
        },
        {
          "indexed": false,
          "name": "amount",
          "type": "uint256"
        }
      ],
      "name": "Withdrew",
      "type": "event"
    },
    {
      "anonymous": false,
      "inputs": [
        {
          "indexed": false,
          "name": "epoch",
          "type": "uint256"
        },
        {
          "indexed": false,
          "name": "nodeId",
          "type": "uint256"
        },
        {
          "indexed": false,
          "name": "commitment",
          "type": "bytes32"
        }
      ],
      "name": "Committed",
      "type": "event"
    },
    {
      "anonymous": false,
      "inputs": [
        {
          "indexed": false,
          "name": "y",
          "type": "uint256"
        }
      ],
      "name": "Y",
      "type": "event"
    },
    {
      "anonymous": false,
      "inputs": [
        {
          "indexed": false,
          "name": "epoch",
          "type": "uint256"
        },
        {
          "indexed": false,
          "name": "nodeId",
          "type": "uint256"
        },
        {
          "indexed": false,
          "name": "value",
          "type": "uint256"
        },
        {
          "indexed": false,
          "name": "stake",
          "type": "uint256"
        }
      ],
      "name": "Revealed",
      "type": "event"
    },
    {
      "anonymous": false,
      "inputs": [
        {
          "indexed": false,
          "name": "epoch",
          "type": "uint256"
        },
        {
          "indexed": false,
          "name": "nodeId",
          "type": "uint256"
        },
        {
          "indexed": false,
          "name": "median",
          "type": "uint256"
        },
        {
          "indexed": false,
          "name": "iteration",
          "type": "uint256"
        },
        {
          "indexed": false,
          "name": "biggestStakerId",
          "type": "uint256"
        }
      ],
      "name": "Proposed",
      "type": "event"
    },
    {
      "constant": false,
      "inputs": [
        {
          "name": "epoch",
          "type": "uint256"
        },
        {
          "name": "amount",
          "type": "uint256"
        }
      ],
      "name": "stake",
      "outputs": [],
      "payable": false,
      "stateMutability": "nonpayable",
      "type": "function"
    },
    {
      "constant": false,
      "inputs": [
        {
          "name": "epoch",
          "type": "uint256"
        }
      ],
      "name": "unstake",
      "outputs": [],
      "payable": false,
      "stateMutability": "nonpayable",
      "type": "function"
    },
    {
      "constant": false,
      "inputs": [
        {
          "name": "epoch",
          "type": "uint256"
        }
      ],
      "name": "withdraw",
      "outputs": [],
      "payable": false,
      "stateMutability": "nonpayable",
      "type": "function"
    },
    {
      "constant": false,
      "inputs": [
        {
          "name": "epoch",
          "type": "uint256"
        },
        {
          "name": "commitment",
          "type": "bytes32"
        }
      ],
      "name": "commit",
      "outputs": [],
      "payable": false,
      "stateMutability": "nonpayable",
      "type": "function"
    },
    {
      "constant": false,
      "inputs": [
        {
          "name": "epoch",
          "type": "uint256"
        },
        {
          "name": "value",
          "type": "uint256"
        },
        {
          "name": "secret",
          "type": "bytes32"
        },
        {
          "name": "stakerAddress",
          "type": "address"
        }
      ],
      "name": "reveal",
      "outputs": [],
      "payable": false,
      "stateMutability": "nonpayable",
      "type": "function"
    },
    {
      "constant": true,
      "inputs": [
        {
          "name": "iteration",
          "type": "uint256"
        },
        {
          "name": "biggestStakerId",
          "type": "uint256"
        },
        {
          "name": "nodeId",
          "type": "uint256"
        }
      ],
      "name": "isElectedProposer",
      "outputs": [
        {
          "name": "",
          "type": "bool"
        }
      ],
      "payable": false,
      "stateMutability": "view",
      "type": "function"
    },
    {
      "constant": false,
      "inputs": [
        {
          "name": "epoch",
          "type": "uint256"
        },
        {
          "name": "median",
          "type": "uint256"
        },
        {
          "name": "iteration",
          "type": "uint256"
        },
        {
          "name": "biggestStakerId",
          "type": "uint256"
        }
      ],
      "name": "propose",
      "outputs": [],
      "payable": false,
      "stateMutability": "nonpayable",
      "type": "function"
    },
    {
      "constant": false,
      "inputs": [
        {
          "name": "epoch",
          "type": "uint256"
        },
        {
          "name": "sorted",
          "type": "uint256[]"
        }
      ],
      "name": "giveSorted",
      "outputs": [],
      "payable": false,
      "stateMutability": "nonpayable",
      "type": "function"
    },
    {
      "constant": false,
      "inputs": [
        {
          "name": "epoch",
          "type": "uint256"
        }
      ],
      "name": "resetDispute",
      "outputs": [],
      "payable": false,
      "stateMutability": "nonpayable",
      "type": "function"
    },
    {
      "constant": false,
      "inputs": [
        {
          "name": "epoch",
          "type": "uint256"
        }
      ],
      "name": "proposeAlt",
      "outputs": [],
      "payable": false,
      "stateMutability": "nonpayable",
      "type": "function"
    },
    {
      "constant": true,
      "inputs": [],
      "name": "getEpoch",
      "outputs": [
        {
          "name": "",
          "type": "uint256"
        }
      ],
      "payable": false,
      "stateMutability": "view",
      "type": "function"
    },
    {
      "constant": true,
      "inputs": [],
      "name": "getState",
      "outputs": [
        {
          "name": "",
          "type": "uint256"
        }
      ],
      "payable": false,
      "stateMutability": "view",
      "type": "function"
    },
    {
      "constant": true,
      "inputs": [],
      "name": "getPrice",
      "outputs": [
        {
          "name": "",
          "type": "uint256"
        }
      ],
      "payable": false,
      "stateMutability": "view",
      "type": "function"
    },
    {
      "constant": true,
      "inputs": [
        {
          "name": "numBlocks",
          "type": "uint8"
        },
        {
          "name": "max",
          "type": "uint256"
        },
        {
          "name": "seed",
          "type": "bytes32"
        }
      ],
      "name": "prng",
      "outputs": [
        {
          "name": "",
          "type": "uint256"
        }
      ],
      "payable": false,
      "stateMutability": "view",
      "type": "function"
    },
    {
      "constant": true,
      "inputs": [
        {
          "name": "numBlocks",
          "type": "uint8"
        },
        {
          "name": "seed",
          "type": "bytes32"
        }
      ],
      "name": "prngHash",
      "outputs": [
        {
          "name": "",
          "type": "bytes32"
        }
      ],
      "payable": false,
      "stateMutability": "view",
      "type": "function"
    },
    {
      "constant": true,
      "inputs": [
        {
          "name": "epochs",
          "type": "uint256"
        },
        {
          "name": "stake",
          "type": "uint256"
        }
      ],
      "name": "calculateInactivityPenalties",
      "outputs": [
        {
          "name": "",
          "type": "uint256"
        }
      ],
      "payable": false,
      "stateMutability": "view",
      "type": "function"
    }
  ],
  "bytecode": "0x608060405260006009556000600a556000600d556000600e55604051806101c00160405280600060ff168152602001600160ff168152602001600260ff168152602001600360ff16815260200160018152602001612710815260200160638152602001606481526020016103e88152602001600581526020016005815260200160638152602001600181526020016001815250600f60008201518160000160006101000a81548160ff021916908360ff16021790555060208201518160000160016101000a81548160ff021916908360ff16021790555060408201518160000160026101000a81548160ff021916908360ff16021790555060608201518160000160036101000a81548160ff021916908360ff1602179055506080820151816001015560a0820151816002015560c0820151816003015560e08201518160040155610100820151816005015561012082015181600601556101408201518160070155610160820151816008015561018082015181600901556101a082015181600a0155505034801561019057600080fd5b506040516200439838038062004398833981810160405260208110156101b557600080fd5b810190808051906020019092919050505080600860006101000a81548173ffffffffffffffffffffffffffffffffffffffff021916908373ffffffffffffffffffffffffffffffffffffffff1602179055505061418080620002186000396000f3fe608060405234801561001057600080fd5b50600436106101f05760003560e01c8063828496d61161010f578063ab944638116100a2578063c6e36a3211610071578063c6e36a321461094e578063d13e2e60146109a1578063f25b3f99146109ed578063f2f0387714610a44576101f0565b8063ab9446381461080e578063b07ceab814610850578063c3da42b81461089f578063c486456c14610930576101f0565b806394ca304b116100de57806394ca304b146106f257806398d5fdca14610710578063a0dc27581461072e578063ab45c6b51461074c576101f0565b8063828496d6146105ce5780638b0e9f3f1461063e5780638d0e52c01461065c5780638f37d0b4146106a6576101f0565b80632e17de781161018757806366666aa91161015657806366666aa9146104f85780636aadffa814610516578063757991a8146105785780637b0472f014610596576101f0565b80632e17de78146104155780632e1a7d4d146104435780635075dbfb146104715780635ce8772f146104ca576101f0565b80631d69ff9b116101c35780631d69ff9b146102e95780631e8fcfe5146103435780632b3c9efd146103715780632c3b4f27146103c9576101f0565b80630ec88d3f146101f55780631865c57d146102135780631a69f008146102315780631c53c2801461027d575b600080fd5b6101fd610a7c565b6040518082815260200191505060405180910390f35b61021b610a82565b6040518082815260200191505060405180910390f35b6102676004803603604081101561024757600080fd5b810190808035906020019092919080359060200190929190505050610ab5565b6040518082815260200191505060405180910390f35b6102a96004803603602081101561029357600080fd5b8101908080359060200190929190505050610b4f565b6040518088815260200187815260200186815260200185815260200184815260200183815260200182815260200197505050505050505060405180910390f35b610329600480360360608110156102ff57600080fd5b81019080803590602001909291908035906020019092919080359060200190929190505050610b91565b604051808215151515815260200191505060405180910390f35b61036f6004803603602081101561035957600080fd5b8101908080359060200190929190505050610cc2565b005b6103b36004803603602081101561038757600080fd5b81019080803573ffffffffffffffffffffffffffffffffffffffff169060200190929190505050611044565b6040518082815260200191505060405180910390f35b610413600480360360808110156103df57600080fd5b810190808035906020019092919080359060200190929190803590602001909291908035906020019092919050505061105c565b005b6104416004803603602081101561042b57600080fd5b81019080803590602001909291905050506116d8565b005b61046f6004803603602081101561045957600080fd5b81019080803590602001909291905050506118c4565b005b6104b46004803603606081101561048757600080fd5b81019080803560ff1690602001909291908035906020019092919080359060200190929190505050611eef565b6040518082815260200191505060405180910390f35b6104f6600480360360208110156104e057600080fd5b8101908080359060200190929190505050611f24565b005b6105006120c7565b6040518082815260200191505060405180910390f35b6105766004803603608081101561052c57600080fd5b81019080803590602001909291908035906020019092919080359060200190929190803573ffffffffffffffffffffffffffffffffffffffff1690602001909291905050506120cd565b005b61058061279b565b6040518082815260200191505060405180910390f35b6105cc600480360360408110156105ac57600080fd5b8101908080359060200190929190803590602001909291905050506127b6565b005b61061a600480360360408110156105e457600080fd5b8101908080359060200190929190803573ffffffffffffffffffffffffffffffffffffffff169060200190929190505050612d29565b60405180848152602001838152602001828152602001935050505060405180910390f35b610646612d60565b6040518082815260200191505060405180910390f35b610664612d66565b604051808273ffffffffffffffffffffffffffffffffffffffff1673ffffffffffffffffffffffffffffffffffffffff16815260200191505060405180910390f35b6106dc600480360360408110156106bc57600080fd5b810190808035906020019092919080359060200190929190505050612d8c565b6040518082815260200191505060405180910390f35b6106fa612db1565b6040518082815260200191505060405180910390f35b610718612db7565b6040518082815260200191505060405180910390f35b610736612de4565b6040518082815260200191505060405180910390f35b61080c6004803603604081101561076257600080fd5b81019080803590602001909291908035906020019064010000000081111561078957600080fd5b82018360208201111561079b57600080fd5b803590602001918460208302840111640100000000831117156107bd57600080fd5b919080806020026020016040519081016040528093929190818152602001838360200280828437600081840152601f19601f820116905080830192505050505050509192919290505050612dea565b005b61083a6004803603602081101561082457600080fd5b8101908080359060200190929190505050613259565b6040518082815260200191505060405180910390f35b6108896004803603604081101561086657600080fd5b81019080803560ff16906020019092919080359060200190929190505050613271565b6040518082815260200191505060405180910390f35b6108a7613344565b604051808f60ff1660ff1681526020018e60ff1660ff1681526020018d60ff1660ff1681526020018c60ff1660ff1681526020018b81526020018a81526020018981526020018881526020018781526020018681526020018581526020018481526020018381526020018281526020019e50505050505050505050505050505060405180910390f35b6109386133d2565b6040518082815260200191505060405180910390f35b6109846004803603604081101561096457600080fd5b8101908080359060200190929190803590602001909291905050506133d8565b604051808381526020018281526020019250505060405180910390f35b6109d7600480360360408110156109b757600080fd5b810190808035906020019092919080359060200190929190505050613409565b6040518082815260200191505060405180910390f35b610a1960048036036020811015610a0357600080fd5b810190808035906020019092919050505061342e565b6040518085815260200184815260200183815260200182815260200194505050505060405180910390f35b610a7a60048036036040811015610a5a57600080fd5b81019080803590602001909291908035906020019092919050505061345e565b005b600e5481565b600080610a99600a4361373b90919063ffffffff16565b9050610aaf6004826137ca90919063ffffffff16565b91505090565b60006002831015610ac857819050610b49565b6000610b1e610afc600f60020154610aee600f600101548761385490919063ffffffff16565b61373b90919063ffffffff16565b610b106001876138da90919063ffffffff16565b61385490919063ffffffff16565b905082811015610b4357610b3b81846138da90919063ffffffff16565b915050610b49565b60009150505b92915050565b60016020528060005260406000206000915090508060000154908060010154908060020154908060030154908060040154908060050154908060060154905087565b600081610bdb6001610bcd600a600954896040516020018082815260200191505060405160208183030381529060405280519060200120611eef565b61396390919063ffffffff16565b14610be95760009050610cbb565b6000610c24600a8487604051602001808381526020018281526020019250505060405160208183030381529060405280519060200120613271565b90506000610c436401000000008360001c6137ca90919063ffffffff16565b9050600060016000878152602001908152602001600020600101549050610c8e640100000000600160008881526020019081526020016000206001015461385490919063ffffffff16565b610ca1828461385490919063ffffffff16565b1115610cb35760009350505050610cbb565b600193505050505b9392505050565b80610ccb61279b565b8114610d3f576040517f08c379a000000000000000000000000000000000000000000000000000000000815260040180806020018281038252600f8152602001807f696e636f72726563742065706f6368000000000000000000000000000000000081525060200191505060405180910390fd5b600f60000160039054906101000a900460ff16610d5a610a82565b8160ff1614610dd1576040517f08c379a000000000000000000000000000000000000000000000000000000000815260040180806020018281038252600f8152602001807f696e636f7272656374207374617465000000000000000000000000000000000081525060200191505060405180910390fd5b60046000848152602001908152602001600020546007600085815260200190815260200160002060003373ffffffffffffffffffffffffffffffffffffffff1673ffffffffffffffffffffffffffffffffffffffff1681526020019081526020016000206000015414610e4357600080fd5b60006007600085815260200190815260200160002060003373ffffffffffffffffffffffffffffffffffffffff1673ffffffffffffffffffffffffffffffffffffffff16815260200190815260200160002060010154905060008060003373ffffffffffffffffffffffffffffffffffffffff1673ffffffffffffffffffffffffffffffffffffffff16815260200190815260200160002054905060006005600087815260200190815260200160002060000154905060008311610f0657600080fd5b82600560008881526020019081526020016000206001015414610feb57604051806080016040528083815260200184815260200160008152602001600081525060056000888152602001908152602001600020600082015181600001556020820151816001015560408201518160020155606082015181600301559050507f2ad0141d9b172732f8adee7471dbfb39b9a5c8ba83c8354d5f4d364de7a40473868285600080604051808681526020018581526020018481526020018381526020018281526020019550505050505060405180910390a1610fe681336139eb565b61103c565b6040517f08c379a00000000000000000000000000000000000000000000000000000000081526004018080602001828103825260378152602001806140206037913960400191505060405180910390fd5b505050505050565b60006020528060005260406000206000915090505481565b8361106561279b565b81146110d9576040517f08c379a000000000000000000000000000000000000000000000000000000000815260040180806020018281038252600f8152602001807f696e636f72726563742065706f6368000000000000000000000000000000000081525060200191505060405180910390fd5b600f60000160029054906101000a900460ff166110f4610a82565b8160ff161461116b576040517f08c379a000000000000000000000000000000000000000000000000000000000815260040180806020018281038252600f8152602001807f696e636f7272656374207374617465000000000000000000000000000000000081525060200191505060405180910390fd5b60008060003373ffffffffffffffffffffffffffffffffffffffff1673ffffffffffffffffffffffffffffffffffffffff1681526020019081526020016000205490506000600860009054906101000a900473ffffffffffffffffffffffffffffffffffffffff1690506111e0868684610b91565b611252576040517f08c379a000000000000000000000000000000000000000000000000000000000815260040180806020018281038252600b8152602001807f6e6f7420656c656374656400000000000000000000000000000000000000000081525060200191505060405180910390fd5b600f60050154600160008481526020019081526020016000206001015410156112e3576040517f08c379a00000000000000000000000000000000000000000000000000000000081526004018080602001828103825260198152602001807f7374616b652062656c6f77206d696e696d756d207374616b650000000000000081525060200191505060405180910390fd5b6000600560008a815260200190815260200160002060000154146114bb5781600560008a815260200190815260200160002060000154141561138d576040517f08c379a00000000000000000000000000000000000000000000000000000000081526004018080602001828103825260108152602001807f416c72656164792050726f706f7365640000000000000000000000000000000081525060200191505060405180910390fd5b6005600089815260200190815260200160002060030154600160008781526020019081526020016000206001015414156114345785600560008a8152602001908152602001600020600201541161142f576040517f08c379a0000000000000000000000000000000000000000000000000000000008152600401808060200182810382526031815260200180613fce6031913960400191505060405180910390fd5b6114ba565b6005600089815260200190815260200160002060030154600160008781526020019081526020016000206001015410156114b9576040517f08c379a000000000000000000000000000000000000000000000000000000000815260040180806020018281038252604d815260200180614057604d913960600191505060405180910390fd5b5b5b60405180608001604052808381526020018881526020018781526020016001600088815260200190815260200160002060010154815250600560008a8152602001908152602001600020600082015181600001556020820151816001015560408201518160020155606082015181600301559050506000600f6006015411156116775761156c600f60060154600160008581526020019081526020016000206001015461396390919063ffffffff16565b60016000848152602001908152602001600020600101819055506115a0600f60060154600a5461396390919063ffffffff16565b600a819055508073ffffffffffffffffffffffffffffffffffffffff166340c10f1930600f600601546040518363ffffffff1660e01b8152600401808373ffffffffffffffffffffffffffffffffffffffff1673ffffffffffffffffffffffffffffffffffffffff16815260200182815260200192505050602060405180830381600087803b15801561163257600080fd5b505af1158015611646573d6000803e3d6000fd5b505050506040513d602081101561165c57600080fd5b810190808051906020019092919050505061167657600080fd5b5b7f2ad0141d9b172732f8adee7471dbfb39b9a5c8ba83c8354d5f4d364de7a404738883898989604051808681526020018581526020018481526020018381526020018281526020019550505050505060405180910390a15050505050505050565b806116e161279b565b8114611755576040517f08c379a000000000000000000000000000000000000000000000000000000000815260040180806020018281038252600f8152602001807f696e636f72726563742065706f6368000000000000000000000000000000000081525060200191505060405180910390fd5b60008060003373ffffffffffffffffffffffffffffffffffffffff1673ffffffffffffffffffffffffffffffffffffffff16815260200190815260200160002054905060006001600083815260200190815260200160002090506000816000015414156117c157600080fd5b600081600101541161183b576040517f08c379a00000000000000000000000000000000000000000000000000000000081526004018080602001828103825260118152602001807f4e6f6e706f736974697665207374616b6500000000000000000000000000000081525060200191505060405180910390fd5b8381600501541115801561185457506000816005015414155b61185d57600080fd5b6000816005018190555061187f600f600a01548561396390919063ffffffff16565b81600601819055507f11725367022c3ff288940f4b5473aa61c2da6a24af7363a1128ee2401e8983b2826040518082815260200191505060405180910390a150505050565b806118cd61279b565b8114611941576040517f08c379a000000000000000000000000000000000000000000000000000000000815260040180806020018281038252600f8152602001807f696e636f72726563742065706f6368000000000000000000000000000000000081525060200191505060405180910390fd5b600f60000160009054906101000a900460ff1661195c610a82565b8160ff16146119d3576040517f08c379a000000000000000000000000000000000000000000000000000000000815260040180806020018281038252600f8152602001807f696e636f7272656374207374617465000000000000000000000000000000000081525060200191505060405180910390fd5b60008060003373ffffffffffffffffffffffffffffffffffffffff1673ffffffffffffffffffffffffffffffffffffffff1681526020019081526020016000205490506000600160008381526020019081526020016000209050600081600001541415611aa8576040517f08c379a00000000000000000000000000000000000000000000000000000000081526004018080602001828103825260118152602001807f6e6f646520646f65736e7420657869737400000000000000000000000000000081525060200191505060405180910390fd5b611abc6001866138da90919063ffffffff16565b816004015414611b34576040517f08c379a000000000000000000000000000000000000000000000000000000000815260040180806020018281038252601a8152602001807f4469646e742072657665616c20696e206c6173742065706f636800000000000081525060200191505060405180910390fd5b6000816005015414611bae576040517f08c379a000000000000000000000000000000000000000000000000000000000815260040180806020018281038252600f8152602001807f446964206e6f7420756e7374616b65000000000000000000000000000000000081525060200191505060405180910390fd5b84816006015411158015611bc757506000816006015414155b611c39576040517f08c379a000000000000000000000000000000000000000000000000000000000815260040180806020018281038252601a8152602001807f57697468647261772065706f6368206e6f74207265616368656400000000000081525060200191505060405180910390fd5b6000801b6002600087815260200190815260200160002060008481526020019081526020016000205414611cb8576040517f08c379a000000000000000000000000000000000000000000000000000000000815260040180806020018281038252602a8152602001806140a4602a913960400191505060405180910390fd5b611cc28186613bbb565b506000816001015411611d3d576040517f08c379a00000000000000000000000000000000000000000000000000000000081526004018080602001828103825260118152602001807f4e6f6e706f736974697665205374616b6500000000000000000000000000000081525060200191505060405180910390fd5b6000600860009054906101000a900473ffffffffffffffffffffffffffffffffffffffff169050611d8f6001600085815260200190815260200160002060010154600a546138da90919063ffffffff16565b600a81905550600060016000858152602001908152602001600020600101819055507fe30055f80fbe7b2543e52870ba638ff9e75c7471da9cb6d9eb5a97379195b1ac836001600086815260200190815260200160002060010154604051808381526020018281526020019250505060405180910390a18073ffffffffffffffffffffffffffffffffffffffff1663a9059cbb3360016000878152602001908152602001600020600101546040518363ffffffff1660e01b8152600401808373ffffffffffffffffffffffffffffffffffffffff1673ffffffffffffffffffffffffffffffffffffffff16815260200182815260200192505050602060405180830381600087803b158015611ea357600080fd5b505af1158015611eb7573d6000803e3d6000fd5b505050506040513d6020811015611ecd57600080fd5b8101908080519060200190929190505050611ee757600080fd5b505050505050565b600080611efc8584613271565b905060008160001c9050611f1985826137ca90919063ffffffff16565b925050509392505050565b80611f2d61279b565b8114611fa1576040517f08c379a000000000000000000000000000000000000000000000000000000000815260040180806020018281038252600f8152602001807f696e636f72726563742065706f6368000000000000000000000000000000000081525060200191505060405180910390fd5b600f60000160039054906101000a900460ff16611fbc610a82565b8160ff1614612033576040517f08c379a000000000000000000000000000000000000000000000000000000000815260040180806020018281038252600f8152602001807f696e636f7272656374207374617465000000000000000000000000000000000081525060200191505060405180910390fd5b6040518060600160405280600081526020016000815260200160008152506007600085815260200190815260200160002060003373ffffffffffffffffffffffffffffffffffffffff1673ffffffffffffffffffffffffffffffffffffffff168152602001908152602001600020600082015181600001556020820151816001015560408201518160020155905050505050565b600d5481565b836120d661279b565b811461214a576040517f08c379a000000000000000000000000000000000000000000000000000000000815260040180806020018281038252600f8152602001807f696e636f72726563742065706f6368000000000000000000000000000000000081525060200191505060405180910390fd5b60008060008473ffffffffffffffffffffffffffffffffffffffff1673ffffffffffffffffffffffffffffffffffffffff16815260200190815260200160002054905060008111612203576040517f08c379a00000000000000000000000000000000000000000000000000000000081526004018080602001828103825260138152602001807f4e6f646520646f6573206e6f742065786973740000000000000000000000000081525060200191505060405180910390fd5b60006001600083815260200190815260200160002090506000801b6002600089815260200190815260200160002060008481526020019081526020016000205414156122b7576040517f08c379a00000000000000000000000000000000000000000000000000000000081526004018080602001828103825260208152602001807f6e6f7420636f6d6d69746564206f7220616c72656164792072657665616c656481525060200191505060405180910390fd5b6000861161232d576040517f08c379a00000000000000000000000000000000000000000000000000000000081526004018080602001828103825260188152602001807f766f746564206e6f6e20706f7369746976652076616c7565000000000000000081525060200191505060405180910390fd5b6002600088815260200190815260200160002060008381526020019081526020016000205487878760405160200180848152602001838152602001828152602001935050505060405160208183030381529060405280519060200120146123fc576040517f08c379a00000000000000000000000000000000000000000000000000000000081526004018080602001828103825260168152602001807f696e636f7272656374207365637265742f76616c75650000000000000000000081525060200191505060405180910390fd5b8373ffffffffffffffffffffffffffffffffffffffff163373ffffffffffffffffffffffffffffffffffffffff1614156126ca57600f60000160019054906101000a900460ff1660ff1661244e610a82565b146124c1576040517f08c379a00000000000000000000000000000000000000000000000000000000081526004018080602001828103825260108152602001807f4e6f742072657665616c2073746174650000000000000000000000000000000081525060200191505060405180910390fd5b600081600101541161253b576040517f08c379a00000000000000000000000000000000000000000000000000000000081526004018080602001828103825260118152602001807f6e6f6e706f736974697665207374616b6500000000000000000000000000000081525060200191505060405180910390fd5b6125458188613ef0565b6040518060400160405280878152602001826001015481525060036000898152602001908152602001600020600084815260200190815260200160002060008201518160000155602082015181600101559050506000801b600260008981526020019081526020016000206000848152602001908152602001600020819055506125ef8160010154600460008a81526020019081526020016000205461396390919063ffffffff16565b60046000898152602001908152602001600020819055506126418160010154600660008a815260200190815260200160002060008981526020019081526020016000205461396390919063ffffffff16565b600660008981526020019081526020016000206000888152602001908152602001600020819055508681600401819055507fa02957988806bd9d30dcd2845b047aa4f45bede519fbd15ebafe428505b0900f87838884600101546040518085815260200184815260200183815260200182815260200194505050505060405180910390a1612792565b600f60000160009054906101000a900460ff1660ff166126e8610a82565b1461275b576040517f08c379a00000000000000000000000000000000000000000000000000000000081526004018080602001828103825260108152602001807f4e6f7420636f6d6d69742073746174650000000000000000000000000000000081525060200191505060405180910390fd5b6000801b6002600089815260200190815260200160002060008481526020019081526020016000208190555061279182336139eb565b5b50505050505050565b60006127b160284361373b90919063ffffffff16565b905090565b816127bf61279b565b8114612833576040517f08c379a000000000000000000000000000000000000000000000000000000000815260040180806020018281038252600f8152602001807f696e636f72726563742065706f6368000000000000000000000000000000000081525060200191505060405180910390fd5b600f60000160009054906101000a900460ff1661284e610a82565b8160ff16146128c5576040517f08c379a000000000000000000000000000000000000000000000000000000000815260040180806020018281038252600f8152602001807f696e636f7272656374207374617465000000000000000000000000000000000081525060200191505060405180910390fd5b6000600860009054906101000a900473ffffffffffffffffffffffffffffffffffffffff169050600f6005015484101561294a576040517f08c379a000000000000000000000000000000000000000000000000000000000815260040180806020018281038252603181526020018061411b6031913960400191505060405180910390fd5b8073ffffffffffffffffffffffffffffffffffffffff166323b872dd3330876040518463ffffffff1660e01b8152600401808473ffffffffffffffffffffffffffffffffffffffff1673ffffffffffffffffffffffffffffffffffffffff1681526020018373ffffffffffffffffffffffffffffffffffffffff1673ffffffffffffffffffffffffffffffffffffffff1681526020018281526020019350505050602060405180830381600087803b158015612a0557600080fd5b505af1158015612a19573d6000803e3d6000fd5b505050506040513d6020811015612a2f57600080fd5b8101908080519060200190929190505050612ab2576040517f08c379a00000000000000000000000000000000000000000000000000000000081526004018080602001828103825260138152602001807f736368207472616e73666572206661696c65640000000000000000000000000081525060200191505060405180910390fd5b60008060003373ffffffffffffffffffffffffffffffffffffffff1673ffffffffffffffffffffffffffffffffffffffff1681526020019081526020016000205490506000811415612c1457612b14600160095461396390919063ffffffff16565b6009819055506040518060e0016040528060095481526020018681526020018781526020016000815260200160008152602001612b5f600f600901548961396390919063ffffffff16565b81526020016000815250600160006009548152602001908152602001600020600082015181600001556020820151816001015560408201518160020155606082015181600301556080820151816004015560a0820151816005015560c082015181600601559050506009549050806000803373ffffffffffffffffffffffffffffffffffffffff1673ffffffffffffffffffffffffffffffffffffffff16815260200190815260200160002081905550612cc7565b6000600160008381526020019081526020016000206001015411612c83576040517f08c379a000000000000000000000000000000000000000000000000000000000815260040180806020018281038252604d8152602001806140ce604d913960600191505060405180910390fd5b612cac85600160008481526020019081526020016000206001015461396390919063ffffffff16565b60016000838152602001908152602001600020600101819055505b612cdc85600a5461396390919063ffffffff16565b600a819055507f925435fa7e37e5d9555bb18ce0d62bb9627d0846942e58e5291e9a2dded462ed8186604051808381526020018281526020019250505060405180910390a1505050505050565b6007602052816000526040600020602052806000526040600020600091509150508060000154908060010154908060020154905083565b600a5481565b600860009054906101000a900473ffffffffffffffffffffffffffffffffffffffff1681565b6006602052816000526040600020602052806000526040600020600091509150505481565b60095481565b600080612dc261279b565b9050600560006001830381526020019081526020016000206001015491505090565b600b5481565b81612df361279b565b8114612e67576040517f08c379a000000000000000000000000000000000000000000000000000000000815260040180806020018281038252600f8152602001807f696e636f72726563742065706f6368000000000000000000000000000000000081525060200191505060405180910390fd5b600f60000160039054906101000a900460ff16612e82610a82565b8160ff1614612ef9576040517f08c379a000000000000000000000000000000000000000000000000000000000815260040180806020018281038252600f8152602001807f696e636f7272656374207374617465000000000000000000000000000000000081525060200191505060405180910390fd5b6000612f226002600460008881526020019081526020016000205461373b90919063ffffffff16565b905060006007600087815260200190815260200160002060003373ffffffffffffffffffffffffffffffffffffffff1673ffffffffffffffffffffffffffffffffffffffff16815260200190815260200160002060000154905060006007600088815260200190815260200160002060003373ffffffffffffffffffffffffffffffffffffffff1673ffffffffffffffffffffffffffffffffffffffff16815260200190815260200160002060020154905060008090505b865181101561319f5781878281518110612ff057fe5b60200260200101511161304e576040517f08c379a0000000000000000000000000000000000000000000000000000000008152600401808060200182810382526029815260200180613fa56029913960400191505060405180910390fd5b86818151811061305a57fe5b602002602001015191506130ae600660008a8152602001908152602001600020600089848151811061308857fe5b60200260200101518152602001908152602001600020548461396390919063ffffffff16565b92506000600760008a815260200190815260200160002060003373ffffffffffffffffffffffffffffffffffffffff1673ffffffffffffffffffffffffffffffffffffffff1681526020019081526020016000206001015414801561311257508383115b156131835786818151811061312357fe5b6020026020010151600760008a815260200190815260200160002060003373ffffffffffffffffffffffffffffffffffffffff1673ffffffffffffffffffffffffffffffffffffffff168152602001908152602001600020600101819055505b6127105a10156131925761319f565b8080600101915050612fda565b50806007600089815260200190815260200160002060003373ffffffffffffffffffffffffffffffffffffffff1673ffffffffffffffffffffffffffffffffffffffff16815260200190815260200160002060020181905550816007600089815260200190815260200160002060003373ffffffffffffffffffffffffffffffffffffffff1673ffffffffffffffffffffffffffffffffffffffff1681526020019081526020016000206000018190555050505050505050565b60046020528060005260406000206000915090505481565b600080600061329d601061328f60104361373b90919063ffffffff16565b61385490919063ffffffff16565b90506000600190505b8560ff168160ff161161330757826132ca8260ff16846138da90919063ffffffff16565b40604051602001808381526020018281526020019250505060405160208183030381529060405280519060200120925080806001019150506132a6565b5081846040516020018083815260200182815260200192505050604051602081830303815290604052805190602001209150819250505092915050565b600f8060000160009054906101000a900460ff16908060000160019054906101000a900460ff16908060000160029054906101000a900460ff16908060000160039054906101000a900460ff169080600101549080600201549080600301549080600401549080600501549080600601549080600701549080600801549080600901549080600a015490508e565b600c5481565b6003602052816000526040600020602052806000526040600020600091509150508060000154908060010154905082565b6002602052816000526040600020602052806000526040600020600091509150505481565b60056020528060005260406000206000915090508060000154908060010154908060020154908060030154905084565b8161346761279b565b81146134db576040517f08c379a000000000000000000000000000000000000000000000000000000000815260040180806020018281038252600f8152602001807f696e636f72726563742065706f6368000000000000000000000000000000000081525060200191505060405180910390fd5b600f60000160009054906101000a900460ff166134f6610a82565b8160ff161461356d576040517f08c379a000000000000000000000000000000000000000000000000000000000815260040180806020018281038252600f8152602001807f696e636f7272656374207374617465000000000000000000000000000000000081525060200191505060405180910390fd5b60008060003373ffffffffffffffffffffffffffffffffffffffff1673ffffffffffffffffffffffffffffffffffffffff1681526020019081526020016000205490506000801b600260008781526020019081526020016000206000838152602001908152602001600020541461364c576040517f08c379a00000000000000000000000000000000000000000000000000000000081526004018080602001828103825260108152602001807f616c726561647920636f6d6d697465640000000000000000000000000000000081525060200191505060405180910390fd5b6000600160008381526020019081526020016000209050600061366f8288613bbb565b90507fa63f6e5f3b8cca289dfc8649ede8fbf4eeb9991f44d7bc70c3fb53b128521a58816040518082815260200191505060405180910390a1600f600501548260010154106137325785600260008981526020019081526020016000206000858152602001908152602001600020819055508682600301819055507fdad4a6987898eb6021100d7006409b112ed5ba7b73761d6867ea5d02cd85c49987848860405180848152602001838152602001828152602001935050505060405180910390a15b50505050505050565b60008082116137b2576040517f08c379a000000000000000000000000000000000000000000000000000000000815260040180806020018281038252601a8152602001807f536166654d6174683a206469766973696f6e206279207a65726f00000000000081525060200191505060405180910390fd5b60008284816137bd57fe5b0490508091505092915050565b600080821415613842576040517f08c379a00000000000000000000000000000000000000000000000000000000081526004018080602001828103825260188152602001807f536166654d6174683a206d6f64756c6f206279207a65726f000000000000000081525060200191505060405180910390fd5b81838161384b57fe5b06905092915050565b60008083141561386757600090506138d4565b600082840290508284828161387857fe5b04146138cf576040517f08c379a0000000000000000000000000000000000000000000000000000000008152600401808060200182810382526021815260200180613fff6021913960400191505060405180910390fd5b809150505b92915050565b600082821115613952576040517f08c379a000000000000000000000000000000000000000000000000000000000815260040180806020018281038252601e8152602001807f536166654d6174683a207375627472616374696f6e206f766572666c6f77000081525060200191505060405180910390fd5b600082840390508091505092915050565b6000808284019050838110156139e1576040517f08c379a000000000000000000000000000000000000000000000000000000000815260040180806020018281038252601b8152602001807f536166654d6174683a206164646974696f6e206f766572666c6f77000000000081525060200191505060405180910390fd5b8091505092915050565b6000600860009054906101000a900473ffffffffffffffffffffffffffffffffffffffff1690506000613a3e6002600160008781526020019081526020016000206001015461373b90919063ffffffff16565b9050600060016000868152602001908152602001600020600101819055506001811115613bb557613a7a81600a546138da90919063ffffffff16565b600a819055508173ffffffffffffffffffffffffffffffffffffffff1663a9059cbb84836040518363ffffffff1660e01b8152600401808373ffffffffffffffffffffffffffffffffffffffff1673ffffffffffffffffffffffffffffffffffffffff16815260200182815260200192505050602060405180830381600087803b158015613b0757600080fd5b505af1158015613b1b573d6000803e3d6000fd5b505050506040513d6020811015613b3157600080fd5b8101908080519060200190929190505050613bb4576040517f08c379a00000000000000000000000000000000000000000000000000000000081526004018080602001828103825260198152602001807f6661696c656420746f207472616e7366657220626f756e74790000000000000081525060200191505060405180910390fd5b5b50505050565b60008083600401549050600183118015613bd55750600081115b15613ee95760008460040154856002015410613bf5578460020154613bfb565b84600401545b90506000613c1282866138da90919063ffffffff16565b9050600086600101549050613c278282610ab5565b876001018190555060006005600086815260200190815260200160002060010154905060006003600087815260200190815260200160002060008a600001548152602001908152602001600020600001549050600082118015613c8a5750600081115b15613ee3576000613d37613ca7848561385490919063ffffffff16565b613d29612710613d1b613cd6613cc760028961385490919063ffffffff16565b8961385490919063ffffffff16565b613d0d613cec898a61385490919063ffffffff16565b613cff8b8c61385490919063ffffffff16565b61396390919063ffffffff16565b6138da90919063ffffffff16565b61385490919063ffffffff16565b61373b90919063ffffffff16565b90507fa63f6e5f3b8cca289dfc8649ede8fbf4eeb9991f44d7bc70c3fb53b128521a58816040518082815260200191505060405180910390a1613d8460028461385490919063ffffffff16565b821115613db55760008a60010181905550613daa84600d5461396390919063ffffffff16565b600d81905550613ee1565b600082118015613e355750613deb6064613ddd600f600801548661385490919063ffffffff16565b61373b90919063ffffffff16565b821080613e345750613e316064613e23613e14600f6008015460c86138da90919063ffffffff16565b8661385490919063ffffffff16565b61373b90919063ffffffff16565b82115b5b15613ec457613e86613e77612710613e6987613e5b6001876138da90919063ffffffff16565b61385490919063ffffffff16565b61373b90919063ffffffff16565b856138da90919063ffffffff16565b8a60010181905550613eb9613ea88b60010154866138da90919063ffffffff16565b600d5461396390919063ffffffff16565b600d81905550613ee0565b613ed984600e5461396390919063ffffffff16565b600e819055505b5b505b50505050505b5092915050565b600181118015613f0257506000600e54115b15613fa05760008260040154905060006003600083815260200190815260200160002060008560000154815260200190815260200160002060000154905060006005600084815260200190815260200160002060010154905080606302606483021080613f7457508060650260648302115b15613f9c57600e54600d5486600101540281613f8c57fe5b0485600101540185600101819055505b5050505b505056fe736f727465645b695d206973206e6f742067726561746572207468616e206c61737456697369746564697465726174696f6e206e6f7420626967676572207468616e206578697374696e6720656c6563746564207374616b6572536166654d6174683a206d756c7469706c69636174696f6e206f766572666c6f7750726f706f73656420416c7465726e61746520626c6f636b206173206964656e746963616c20746f2070726f706f73656420626c6f636b62696767657374207374616b657273207374616b65206e6f7420626967676572207468616e2061732070726f706f736564206279206578697374696e6720656c6563746564207374616b657220616c726561647920636f6d6d6974656420746869732065706f63682e2043616e74207769746864726177616464696e67207374616b65206973206e6f7420706f737369626c65206166746572207769746864726177616c2f736c6173682e20506c65617365207573652061206e657720616464726573737374616b656420616d6f756e74206973206c657373207468616e206d696e696d756d207374616b65207265717569726564a265627a7a7230582096f3ba3b345d3c7dd93eb6fd1e8d81dad8ddc69238351f7e96c8527643df001664736f6c634300050a0032",
  "source": "pragma solidity 0.5.10;\nimport \"./SimpleToken.sol\";\nimport \"openzeppelin-solidity/contracts/math/SafeMath.sol\";\n\n// WARNING IN development\n// Must Vote price rounded to 2 decimals *100 and must be above 0\n// e.g. if ethusd is 169.99 vote 16999\n// invalid vote cannot be revealed and you will get penalty\n// node == staker\n// TODO Priority list\n// nobody proposes, nobody disputes, extending dispute period\n// staker wants to vote but cant because below minimum. how to handle? should he be penalized? how much waiting time?\n\n// new algo\n//give reward and penalty in state 1 not state 2. because someone may defect in state 2 and leave in next epoch state 1\n//calculate penalty in state 1 and distribute reward in state 2\n//state 2 divide reward to those who committed in state 1 and distribute. if they dont participate, too bad.\n// newvariables. global rewardpool.\ncontract Schelling2 {\n    using SafeMath for uint256;\n\n    struct Vote {\n        uint256 value;\n        uint256 weight;\n    }\n\n    struct Node {\n        uint256 id;\n        uint256 stake;\n        uint256 epochStaked;\n        uint256 epochLastCommitted;\n        uint256 epochLastRevealed;\n        uint256 unstakeAfter;\n        uint256 withdrawAfter;\n    }\n\n    struct Block {\n        uint256 proposerId;\n        uint256 median;\n        uint256 iteration;\n        uint256 biggestStake;\n    }\n\n    struct Dispute {\n        uint256 accWeight;\n        uint256 median;\n        uint256 lastVisited;\n    }\n\n    mapping (address => uint256) public nodeIds;\n    mapping (uint256 => Node) public nodes;\n    mapping (uint256 => mapping (uint256 => bytes32)) public commitments;\n    mapping (uint256 => mapping (uint256 => Vote)) public votes;\n    mapping (uint256 => uint256) public totalStakeRevealed;\n    mapping (uint256 => Block) public blocks;\n\n    mapping (uint256 => mapping (uint256 => uint256)) public voteWeights;\n\n    mapping(uint256 => mapping(address => Dispute)) public disputes;\n    address public schAddress;\n\n    uint256 public numNodes = 0;\n    uint256 public totalStake = 0;\n\n    struct Constants {\n        uint8 COMMIT;\n        uint8 REVEAL;\n        uint8 PROPOSE;\n        uint8 DISPUTE;\n        uint256 PENALTY_NOT_REVEAL_NUM;\n        uint256 PENALTY_NOT_REVEAL_DENOM;\n        uint256 PENALTY_NOT_IN_ZONE_NUM;\n        uint256 PENALTY_NOT_IN_ZONE_DENOM;\n        uint256 MIN_STAKE;\n        uint256 BLOCK_REWARD;\n        uint256 REVEAL_REWARD;\n        uint256 SAFETY_MARGIN_LOWER;\n        // uint256 SAFETY_MARGIN_UPPER;\n        uint256 UNSTAKE_LOCK_PERIOD;\n        uint256 WITHDRAW_LOCK_PERIOD;\n    }\n\n    uint256 public EPOCH;\n    uint256 public STATE;\n    uint256 public rewardPool = 0;\n    uint256 public stakeGettingReward = 0;\n\n    Constants public c = Constants(0, 1, 2, 3, 1, 10000, 99, 100, 1000, 5, 5, 99, 1, 1);\n\n    constructor (address _schAddress) public {\n        schAddress = _schAddress;\n    }\n\n    modifier checkEpoch (uint256 epoch) {\n        require(epoch == getEpoch(), \"incorrect epoch\");\n        _;\n    }\n\n    modifier checkState (uint8 state) {\n        require(state == getState(), \"incorrect state\");\n        _;\n    }\n\n    event Staked(uint256 nodeId, uint256 amount);\n\n    // stake during commit state only\n    // we check epoch during every transaction to avoid withholding and rebroadcasting attacks\n    function stake (uint256 epoch, uint256 amount) public checkEpoch(epoch) checkState(c.COMMIT) {\n        SimpleToken sch = SimpleToken(schAddress);\n         //not allowed during reveal period\n        //require(getState() != c.REVEAL);\n        require(amount >= c.MIN_STAKE, \"staked amount is less than minimum stake required\");\n        require(sch.transferFrom(msg.sender, address(this), amount), \"sch transfer failed\");\n        uint256 nodeId = nodeIds[msg.sender];\n        if (nodeId == 0) {\n            numNodes = numNodes.add(1);\n            nodes[numNodes] = Node(numNodes, amount, epoch, 0, 0, epoch.add(c.UNSTAKE_LOCK_PERIOD), 0);\n            nodeId = numNodes;\n            nodeIds[msg.sender] = nodeId;\n        } else {\n            require(nodes[nodeId].stake > 0,\n                    \"adding stake is not possible after withdrawal/slash. Please use a new address\");\n            nodes[nodeId].stake = nodes[nodeId].stake.add(amount);\n        }\n        totalStake = totalStake.add(amount);\n        emit Staked(nodeId, amount);\n    }\n\n    event Unstaked(uint256 nodeId);\n\n    // staker must call unstake() and continue voting for c.WITHDRAW_LOCK_PERIOD\n    //after which she can call withdraw() to finally Withdraw\n    function unstake (uint256 epoch) public checkEpoch(epoch) {\n        // require(getState()!= 1); //not allowed during reveal period\n        uint256 nodeId = nodeIds[msg.sender];\n        Node storage node = nodes[nodeId];\n        require(node.id != 0);\n        require(node.stake > 0, \"Nonpositive stake\");\n        require(node.unstakeAfter <= epoch && node.unstakeAfter != 0);\n        node.unstakeAfter = 0;\n        node.withdrawAfter = epoch.add(c.WITHDRAW_LOCK_PERIOD);\n        emit Unstaked(nodeId);\n    }\n\n    event Withdrew(uint256 nodeId, uint256 amount);\n\n    function withdraw (uint256 epoch) public checkEpoch(epoch) checkState(c.COMMIT) {\n        uint256 nodeId = nodeIds[msg.sender];\n        Node storage node = nodes[nodeId];\n        require(node.id != 0, \"node doesnt exist\");\n        require(node.epochLastRevealed == epoch.sub(1), \"Didnt reveal in last epoch\");\n        require(node.unstakeAfter == 0, \"Did not unstake\");\n        require((node.withdrawAfter <= epoch) && node.withdrawAfter != 0, \"Withdraw epoch not reached\");\n        require(commitments[epoch][nodeId] == 0x0, \"already commited this epoch. Cant withdraw\");\n        givePenalties(node, epoch);\n        require(node.stake > 0, \"Nonpositive Stake\");\n        SimpleToken sch = SimpleToken(schAddress);\n        totalStake = totalStake.sub(nodes[nodeId].stake);\n        nodes[nodeId].stake = 0;\n        emit Withdrew(nodeId, nodes[nodeId].stake);\n        require(sch.transfer(msg.sender, nodes[nodeId].stake));\n    }\n\n    event Committed(uint256 epoch, uint256 nodeId, bytes32 commitment);\n\n    event Y(uint256 y);\n\n    // what was the eth/usd rate at the beginning of this epoch?\n    function commit (uint256 epoch, bytes32 commitment) public checkEpoch(epoch) checkState(c.COMMIT) {\n        uint256 nodeId = nodeIds[msg.sender];\n        require(commitments[epoch][nodeId] == 0x0, \"already commited\");\n        Node storage thisStaker = nodes[nodeId];\n        uint256 y = givePenalties(thisStaker, epoch);\n        emit Y(y);\n        if (thisStaker.stake >= c.MIN_STAKE) {\n            commitments[epoch][nodeId] = commitment;\n            thisStaker.epochLastCommitted = epoch;\n            emit Committed(epoch, nodeId, commitment);\n        }\n    }\n\n    event Revealed(uint256 epoch, uint256 nodeId, uint256 value, uint256 stake);\n\n    function reveal (uint256 epoch, uint256 value, bytes32 secret, address stakerAddress)\n    public\n    checkEpoch(epoch) {\n        uint256 thisNodeId = nodeIds[stakerAddress];\n        require(thisNodeId > 0, \"Node does not exist\");\n        Node storage thisStaker = nodes[thisNodeId];\n        require(commitments[epoch][thisNodeId] != 0x0, \"not commited or already revealed\");\n        require(value > 0, \"voted non positive value\");\n        require(keccak256(abi.encodePacked(epoch, value, secret)) == commitments[epoch][thisNodeId],\n                \"incorrect secret/value\");\n        //if revealing self\n        if (msg.sender == stakerAddress) {\n            require(getState() == c.REVEAL, \"Not reveal state\");\n            require(thisStaker.stake > 0, \"nonpositive stake\");\n            giveRewards(thisStaker, epoch);\n            votes[epoch][thisNodeId] = Vote(value, thisStaker.stake);\n            commitments[epoch][thisNodeId] = 0x0;\n            totalStakeRevealed[epoch] = totalStakeRevealed[epoch].add(thisStaker.stake);\n            voteWeights[epoch][value] = voteWeights[epoch][value].add(thisStaker.stake);\n            thisStaker.epochLastRevealed = epoch;\n            emit Revealed(epoch, thisNodeId, value, thisStaker.stake);\n        } else {\n            //bounty hunter revealing someone else's secret in commit state\n            require(getState() == c.COMMIT, \"Not commit state\");\n            commitments[epoch][thisNodeId] = 0x0;\n            slash(thisNodeId, msg.sender);\n        }\n    }\n\n    function isElectedProposer(uint256 iteration, uint256 biggestStakerId, uint256 nodeId) public view returns(bool) {\n        // rand = 0 -> totalStake-1\n        //add +1 since prng returns 0 to max-1 and node start from 1\n        if ((prng(10, numNodes, keccak256(abi.encode(iteration))).add(1)) != nodeId) return(false);\n        bytes32 randHash = prngHash(10, keccak256(abi.encode(nodeId, iteration)));\n        uint256 rand = uint256(randHash).mod(2**32);\n        uint256 biggestStake = nodes[biggestStakerId].stake;\n        if (rand.mul(biggestStake) > nodes[nodeId].stake.mul(2**32)) return(false);\n        return(true);\n    }\n\n    event Proposed(uint256 epoch,\n                    uint256 nodeId,\n                    uint256 median,\n                    uint256 iteration,\n                    uint256 biggestStakerId);\n\n    // elected proposer proposes block. we use a probabilistic method to elect stakers weighted by stake\n    // protocol works like this. select a staker pseudorandomly (not weighted by anything)\n    // (todo what if it is below min stake)\n    // that staker then tosses a biased coin. bias = hisStake/biggestStake. if its heads, he can propose block\n    // end of iteration. try next iteration\n    // note that only one staker or no stakers selected in each iteration.\n    // stakers elected in higher iterations can also propose hoping that\n    // stakers with lower iteration do not propose for some reason\n    function propose (uint256 epoch,\n                    uint256 median,\n                    uint256 iteration,\n                    uint256 biggestStakerId) public checkEpoch(epoch) checkState(c.PROPOSE) {\n        uint256 proposerId = nodeIds[msg.sender];\n        SimpleToken sch = SimpleToken(schAddress);\n        require(isElectedProposer(iteration, biggestStakerId, proposerId), \"not elected\");\n        require(nodes[proposerId].stake >= c.MIN_STAKE, \"stake below minimum stake\");\n\n        //check if someone already proposed\n        if (blocks[epoch].proposerId != 0) {\n            if (blocks[epoch].proposerId == proposerId) {\n                revert(\"Already Proposed\");\n            }\n            if (nodes[biggestStakerId].stake == blocks[epoch].biggestStake) {\n                require(blocks[epoch].iteration > iteration, \"iteration not bigger than existing elected staker\");\n            } else if (nodes[biggestStakerId].stake < blocks[epoch].biggestStake) {\n                revert(\"biggest stakers stake not bigger than as proposed by existing elected staker \");\n            }\n        }\n        //median can be zero if no one committed\n        // require(median > 0);\n        blocks[epoch] = Block(proposerId,\n                                median,\n                                iteration,\n                                nodes[biggestStakerId].stake);\n        if (c.BLOCK_REWARD > 0) {\n            nodes[proposerId].stake = nodes[proposerId].stake.add(c.BLOCK_REWARD);\n            totalStake = totalStake.add(c.BLOCK_REWARD);\n            require(sch.mint(address(this), c.BLOCK_REWARD));\n        }\n        emit Proposed(epoch, proposerId, median, iteration, biggestStakerId);\n    }\n\n    //anyone can give sorted votes in batches in dispute state\n    function giveSorted (uint256 epoch, uint256[] memory sorted) public checkEpoch(epoch) checkState(c.DISPUTE) {\n        uint256 medianWeight = totalStakeRevealed[epoch].div(2);\n        //accWeight = accumulatedWeight\n        uint256 accWeight = disputes[epoch][msg.sender].accWeight;\n        uint256 lastVisited = disputes[epoch][msg.sender].lastVisited;\n        for (uint256 i = 0; i < sorted.length; i++) {\n            require(sorted[i] > lastVisited, \"sorted[i] is not greater than lastVisited\");\n            lastVisited = sorted[i];\n            accWeight = accWeight.add(voteWeights[epoch][sorted[i]]);\n            //set  median, if conditions meet\n            if (disputes[epoch][msg.sender].median == 0 && accWeight > medianWeight) {\n                disputes[epoch][msg.sender].median = sorted[i];\n            }\n            //TODO verify how much gas required for below operations and update this value\n            if (gasleft() < 10000) break;\n        }\n        disputes[epoch][msg.sender].lastVisited = lastVisited;\n        disputes[epoch][msg.sender].accWeight = accWeight;\n    }\n\n    //todo test\n    //if any mistake made during giveSorted, resetDispute and start again\n    function resetDispute (uint256 epoch) public checkEpoch(epoch) checkState(c.DISPUTE) {\n        disputes[epoch][msg.sender] = Dispute(0, 0, 0);\n    }\n\n    //propose alternate block in dispute phase\n    //if no one votes, skip giveSorted and proposeAlt directly.\n    function proposeAlt (uint256 epoch) public checkEpoch(epoch) checkState(c.DISPUTE) {\n        require(disputes[epoch][msg.sender].accWeight == totalStakeRevealed[epoch]);\n        uint256 median = disputes[epoch][msg.sender].median;\n        uint256 bountyHunterId = nodeIds[msg.sender];\n        uint256 proposerId = blocks[epoch].proposerId;\n\n        require(median > 0);\n        if (blocks[epoch].median != median) {\n            blocks[epoch] = Block(bountyHunterId, median,\n                                    0, 0);\n            emit Proposed(epoch, proposerId, median, 0, 0);\n            slash(proposerId, msg.sender);\n        } else {\n            revert(\"Proposed Alternate block as identical to proposed block\");\n        }\n    }\n\n    // WARNING TODO FOR TESTING ONLY. REMOVE IN PROD\n    // function setEpoch (uint256 epoch) public { EPOCH = epoch;}\n\n    // function setState (uint256 state) public { STATE = state;}\n\n    // dummy function to forcibly increase block number in ganache\n    // function dum () public {true;}\n    // END TESTING FUNCTIONS\n\n    function getEpoch () public view returns(uint256) {\n        // return(EPOCH);\n        return(block.number.div(40));\n    }\n\n    function getState () public view returns(uint256) {\n        // return (STATE);\n        uint256 state = (block.number.div(10));\n        return (state.mod(4));\n    }\n\n    //return price from last epoch\n    function getPrice() public view returns (uint256) {\n        uint256 epoch = getEpoch();\n        return(blocks[epoch-1].median);\n    }\n\n    // pseudo random number generator based on block hashes. returns 0 -> max-1\n    function prng (uint8 numBlocks, uint256 max, bytes32 seed) public view returns (uint256) {\n        bytes32 hashh = prngHash(numBlocks, seed);\n        uint256 sum = uint256(hashh);\n        return(sum.mod(max));\n    }\n\n    // pseudo random hash generator based on block hashes.\n    function prngHash (uint8 numBlocks, bytes32 seed) public view returns(bytes32) {\n        bytes32 sum;\n        uint256 blockNumberEpochStart = (block.number.div(16)).mul(16);\n        for (uint8 i = 1; i <= numBlocks; i++) {\n            sum = keccak256(abi.encodePacked(sum, blockhash(blockNumberEpochStart.sub(i))));\n        }\n        sum = keccak256(abi.encodePacked(sum, seed));\n        return(sum);\n    }\n\n    // internal functions vvvvvvvv\n    //executed in state 0\n    function calculateInactivityPenalties(uint256 epochs, uint256 stake) public view returns(uint256) {\n      // this is problematic\n      // anything to the power of N grows too fast\n      // stake = stake * 99**e/100**e\n      // alternative, calculate penalty for 1 epoch * pe\n\n        // thisStaker.stake = (thisStaker.stake.mul(c.PENALTY_NOT_REVEAL_NUM**(penalizeEpochs.sub(1)))).div(\n        // c.PENALTY_NOT_REVEAL_DENOM**(penalizeEpochs.sub(1)));\n        if (epochs < 2) {\n            return(stake);\n        }\n        uint256 penalty = (epochs.sub(1)).mul((stake.mul(c.PENALTY_NOT_REVEAL_NUM)).div(\n        c.PENALTY_NOT_REVEAL_DENOM));\n        if (penalty < stake) {\n            return(stake.sub(penalty));\n        } else {\n            return(0);\n        }\n    }\n\n    function givePenalties (Node storage thisStaker, uint256 epoch) internal returns(uint256) {\n        uint256 epochLastRevealed = thisStaker.epochLastRevealed;\n        if (epoch > 1 && epochLastRevealed > 0) {\n            uint256 epochLastActive = thisStaker.epochStaked < thisStaker.epochLastRevealed ?\n                                    thisStaker.epochLastRevealed :\n                                    thisStaker.epochStaked;\n            // penalize or reward if last active more than epoch - 1\n            uint256 penalizeEpochs = epoch.sub(epochLastActive);\n            uint256 previousStake = thisStaker.stake;\n            thisStaker.stake = calculateInactivityPenalties(penalizeEpochs, previousStake);\n\n\n\n            uint256 medianLastEpoch = blocks[epochLastRevealed].median;\n            uint256 voteLastEpoch = votes[epochLastRevealed][thisStaker.id].value;\n            if (medianLastEpoch > 0 && voteLastEpoch > 0) {\n              // //penalty for out of zone for in zone\n              // // (y= ((M - x)^2/M^2))- 0.0001\n              // // (10000((M-x)(M-x)/M*M) - 1)/10000\n              //for M = 160, x = 10\n              //\n              // uint256 y =  ((((medianLastEpoch.sub(voteLastEpoch)).mul(medianLastEpoch.sub(\n              //             voteLastEpoch))).div(medianLastEpoch.mul(medianLastEpoch))).mul(\n              //             uint256(10000)));\n\n              // should probably simplify this curve to a linear curve\n              // cut stake by 100% if vote is 0 or >2*M where M is weighted median\n                uint256 y = (((medianLastEpoch.mul(medianLastEpoch)).add(voteLastEpoch.mul(voteLastEpoch)))\n                            .sub(medianLastEpoch.mul(voteLastEpoch.mul(2)))).mul(10000)\n                            .div(medianLastEpoch.mul(medianLastEpoch));\n                emit Y(y);\n\n                           // uint256 y = (10000*(medianLastEpoch*medianLastEpoch + voteLastEpoch*voteLastEpoch\n                           //            -2*medianLastEpoch*voteLastEpoch))/(\n                           //              medianLastEpoch*medianLastEpoch);\n                if (voteLastEpoch > (medianLastEpoch.mul(2))) {\n                    thisStaker.stake = 0;\n                    rewardPool = rewardPool.add(previousStake);\n                } else if (voteLastEpoch > 0 &&\n                    (voteLastEpoch < (medianLastEpoch.mul(c.SAFETY_MARGIN_LOWER)).div(100) ||\n                    voteLastEpoch > (medianLastEpoch.mul(uint256(200).sub(\n                                    c.SAFETY_MARGIN_LOWER))).div(100))) {\n                                        // return(y);\n                  //stake = y*stake\n                  // thisStaker.stake = ((y.sub(uint256(1))).mul(thisStaker.stake)).div(uint256(10000));\n                  // thisStaker.stake = thisStaker.stake.sub(((y.sub(uint256(1)))\n                  //.mul(thisStaker.stake)).div(uint256(10000)));\n                  // thisStaker.stake = stakeBefore-(((y-1)*stakeBefore)/10000);\n\n                    thisStaker.stake = previousStake.sub(((y.sub(1)).mul(previousStake)).div(10000));\n\n                    rewardPool = rewardPool.add(previousStake.sub(thisStaker.stake));\n                } else {\n                // reward += stake*(0.0001-y)\n                // = stake*(1-10000y)/10000\n                // = stake*()\n                  // stakeGettingReward = stakeGettingReward.add((thisStaker.stake.mul(\n                  //                     uint256(1).sub(uint256(10000).mul(y)))).div(10000));\n                    stakeGettingReward = stakeGettingReward.add(previousStake);//*(1 - y);\n                }\n            }\n        }\n    }\n\n    //executed in state 1\n    function giveRewards (Node storage thisStaker, uint256 epoch) internal {\n        if (epoch > 1 && stakeGettingReward > 0) {\n            uint256 epochLastRevealed = thisStaker.epochLastRevealed;\n            uint256 voteLastEpoch = votes[epochLastRevealed][thisStaker.id].value;\n            uint256 medianLastEpoch = blocks[epochLastRevealed].median;\n\n        //rewardpool*stake*multiplier/stakeGettingReward\n            // uint256 y =  ((((medianLastEpoch.sub(voteLastEpoch)).mul(medianLastEpoch.sub(\n            //         voteLastEpoch))).div(medianLastEpoch.mul(medianLastEpoch))).mul(\n            //         uint256(10000)));\n            //give rewards if voted in zone\n            if ((voteLastEpoch * 100 < (99 * medianLastEpoch) || (voteLastEpoch * 100 > (101 * medianLastEpoch)))) {\n                thisStaker.stake = thisStaker.stake + (thisStaker.stake*rewardPool)/stakeGettingReward;\n            }\n        }\n    }\n\n    function slash (uint256 id, address bountyHunter) internal {\n        SimpleToken sch = SimpleToken(schAddress);\n        uint256 halfStake = nodes[id].stake.div(2);\n        nodes[id].stake = 0;\n        if (halfStake > 1) {\n            totalStake = totalStake.sub(halfStake);\n            require(sch.transfer(bountyHunter, halfStake), \"failed to transfer bounty\");\n        }\n    }\n    // function stakeTransfer(uint256 fromId, address to, uint256 amount) internal{\n    //     // uint256 fromId = nodeIds[from];\n    //     require(fromId!=0);\n    //     require(nodes[fromId].stake >= amount);\n    //     uint256 toId = nodeIds[to];\n    //     nodes[fromId].stake = nodes[fromId].stake - amount;\n    //     if (toId == 0) {\n    //         numNodes = numNodes + 1;\n    //         nodes[numNodes] = Node(numNodes, amount, 0, 0, 0);\n    //         nodeIds[to] = numNodes;\n    //     } else {\n    //         nodes[toId].stake = nodes[toId].stake + amount;\n    //     }\n    // }\n\n}\n",
  "sourcePath": "/home/hrishi/contracts/contracts/Schelling2.sol",
  "compiler": {
    "name": "solc",
    "version": "0.5.10+commit.5a6ea5b1.Emscripten.clang"
  },
  "schemaVersion": "3.0.11",
  "updatedAt": "2019-08-10T15:38:14.960Z",
  "devdoc": {
    "methods": {}
  },
  "userdoc": {
    "methods": {}
  }
}