{
  "_format": "hh-sol-artifact-1",
  "contractName": "StakeManager",
  "sourceName": "contracts/Core/StakeManager.sol",
  "abi": [
    {
      "inputs": [
        {
          "internalType": "uint256",
          "name": "_blockReward",
          "type": "uint256"
        }
      ],
      "stateMutability": "nonpayable",
      "type": "constructor"
    },
    {
      "anonymous": false,
      "inputs": [
        {
          "indexed": false,
          "internalType": "uint256",
          "name": "a",
          "type": "uint256"
        }
      ],
      "name": "DebugUint256",
      "type": "event"
    },
    {
      "anonymous": false,
      "inputs": [
        {
          "indexed": false,
          "internalType": "uint256",
          "name": "epoch",
          "type": "uint256"
        },
        {
          "indexed": false,
          "internalType": "uint256",
          "name": "prevRewardPool",
          "type": "uint256"
        },
        {
          "indexed": false,
          "internalType": "uint256",
          "name": "rewardPool",
          "type": "uint256"
        },
        {
          "indexed": false,
          "internalType": "uint256",
          "name": "timestamp",
          "type": "uint256"
        }
      ],
      "name": "RewardPoolChange",
      "type": "event"
    },
    {
      "anonymous": false,
      "inputs": [
        {
          "indexed": true,
          "internalType": "bytes32",
          "name": "role",
          "type": "bytes32"
        },
        {
          "indexed": true,
          "internalType": "bytes32",
          "name": "previousAdminRole",
          "type": "bytes32"
        },
        {
          "indexed": true,
          "internalType": "bytes32",
          "name": "newAdminRole",
          "type": "bytes32"
        }
      ],
      "name": "RoleAdminChanged",
      "type": "event"
    },
    {
      "anonymous": false,
      "inputs": [
        {
          "indexed": true,
          "internalType": "bytes32",
          "name": "role",
          "type": "bytes32"
        },
        {
          "indexed": true,
          "internalType": "address",
          "name": "account",
          "type": "address"
        },
        {
          "indexed": true,
          "internalType": "address",
          "name": "sender",
          "type": "address"
        }
      ],
      "name": "RoleGranted",
      "type": "event"
    },
    {
      "anonymous": false,
      "inputs": [
        {
          "indexed": true,
          "internalType": "bytes32",
          "name": "role",
          "type": "bytes32"
        },
        {
          "indexed": true,
          "internalType": "address",
          "name": "account",
          "type": "address"
        },
        {
          "indexed": true,
          "internalType": "address",
          "name": "sender",
          "type": "address"
        }
      ],
      "name": "RoleRevoked",
      "type": "event"
    },
    {
      "anonymous": false,
      "inputs": [
        {
          "indexed": true,
          "internalType": "uint256",
          "name": "stakerId",
          "type": "uint256"
        },
        {
          "indexed": false,
          "internalType": "uint256",
          "name": "previousStake",
          "type": "uint256"
        },
        {
          "indexed": false,
          "internalType": "uint256",
          "name": "newStake",
          "type": "uint256"
        },
        {
          "indexed": false,
          "internalType": "string",
          "name": "reason",
          "type": "string"
        },
        {
          "indexed": false,
          "internalType": "uint256",
          "name": "epoch",
          "type": "uint256"
        },
        {
          "indexed": false,
          "internalType": "uint256",
          "name": "timestamp",
          "type": "uint256"
        }
      ],
      "name": "StakeChange",
      "type": "event"
    },
    {
      "anonymous": false,
      "inputs": [
        {
          "indexed": false,
          "internalType": "uint256",
          "name": "epoch",
          "type": "uint256"
        },
        {
          "indexed": false,
          "internalType": "uint256",
          "name": "prevStakeGettingReward",
          "type": "uint256"
        },
        {
          "indexed": false,
          "internalType": "uint256",
          "name": "stakeGettingReward",
          "type": "uint256"
        },
        {
          "indexed": false,
          "internalType": "uint256",
          "name": "timestamp",
          "type": "uint256"
        }
      ],
      "name": "StakeGettingRewardChange",
      "type": "event"
    },
    {
      "anonymous": false,
      "inputs": [
        {
          "indexed": false,
          "internalType": "uint256",
          "name": "epoch",
          "type": "uint256"
        },
        {
          "indexed": true,
          "internalType": "uint256",
          "name": "stakerId",
          "type": "uint256"
        },
        {
          "indexed": false,
          "internalType": "uint256",
          "name": "previousStake",
          "type": "uint256"
        },
        {
          "indexed": false,
          "internalType": "uint256",
          "name": "newStake",
          "type": "uint256"
        },
        {
          "indexed": false,
          "internalType": "uint256",
          "name": "timestamp",
          "type": "uint256"
        }
      ],
      "name": "Staked",
      "type": "event"
    },
    {
      "anonymous": false,
      "inputs": [
        {
          "indexed": false,
          "internalType": "uint256",
          "name": "epoch",
          "type": "uint256"
        },
        {
          "indexed": true,
          "internalType": "uint256",
          "name": "stakerId",
          "type": "uint256"
        },
        {
          "indexed": false,
          "internalType": "uint256",
          "name": "amount",
          "type": "uint256"
        },
        {
          "indexed": false,
          "internalType": "uint256",
          "name": "newStake",
          "type": "uint256"
        },
        {
          "indexed": false,
          "internalType": "uint256",
          "name": "timestamp",
          "type": "uint256"
        }
      ],
      "name": "Unstaked",
      "type": "event"
    },
    {
      "anonymous": false,
      "inputs": [
        {
          "indexed": false,
          "internalType": "uint256",
          "name": "epoch",
          "type": "uint256"
        },
        {
          "indexed": true,
          "internalType": "uint256",
          "name": "stakerId",
          "type": "uint256"
        },
        {
          "indexed": false,
          "internalType": "uint256",
          "name": "amount",
          "type": "uint256"
        },
        {
          "indexed": false,
          "internalType": "uint256",
          "name": "newStake",
          "type": "uint256"
        },
        {
          "indexed": false,
          "internalType": "uint256",
          "name": "timestamp",
          "type": "uint256"
        }
      ],
      "name": "Withdrew",
      "type": "event"
    },
    {
      "inputs": [],
      "name": "DEFAULT_ADMIN_ROLE",
      "outputs": [
        {
          "internalType": "bytes32",
          "name": "",
          "type": "bytes32"
        }
      ],
      "stateMutability": "view",
      "type": "function"
    },
    {
      "inputs": [],
      "name": "blockManager",
      "outputs": [
        {
          "internalType": "contract IBlockManager",
          "name": "",
          "type": "address"
        }
      ],
      "stateMutability": "view",
      "type": "function"
    },
    {
      "inputs": [],
      "name": "blockReward",
      "outputs": [
        {
          "internalType": "uint256",
          "name": "",
          "type": "uint256"
        }
      ],
      "stateMutability": "view",
      "type": "function"
    },
    {
      "inputs": [
        {
          "internalType": "uint256",
          "name": "epochs",
          "type": "uint256"
        },
        {
          "internalType": "uint256",
          "name": "stakeValue",
          "type": "uint256"
        }
      ],
      "name": "calculateInactivityPenalties",
      "outputs": [
        {
          "internalType": "uint256",
          "name": "",
          "type": "uint256"
        }
      ],
      "stateMutability": "pure",
      "type": "function"
    },
    {
      "inputs": [],
      "name": "getNumStakers",
      "outputs": [
        {
          "internalType": "uint256",
          "name": "",
          "type": "uint256"
        }
      ],
      "stateMutability": "view",
      "type": "function"
    },
    {
      "inputs": [],
      "name": "getRewardPool",
      "outputs": [
        {
          "internalType": "uint256",
          "name": "",
          "type": "uint256"
        }
      ],
      "stateMutability": "view",
      "type": "function"
    },
    {
      "inputs": [
        {
          "internalType": "bytes32",
          "name": "role",
          "type": "bytes32"
        }
      ],
      "name": "getRoleAdmin",
      "outputs": [
        {
          "internalType": "bytes32",
          "name": "",
          "type": "bytes32"
        }
      ],
      "stateMutability": "view",
      "type": "function"
    },
    {
      "inputs": [],
      "name": "getStakeGettingReward",
      "outputs": [
        {
          "internalType": "uint256",
          "name": "",
          "type": "uint256"
        }
      ],
      "stateMutability": "view",
      "type": "function"
    },
    {
      "inputs": [
        {
          "internalType": "uint256",
          "name": "_id",
          "type": "uint256"
        }
      ],
      "name": "getStaker",
      "outputs": [
        {
          "components": [
            {
              "internalType": "uint256",
              "name": "id",
              "type": "uint256"
            },
            {
              "internalType": "address",
              "name": "_address",
              "type": "address"
            },
            {
              "internalType": "uint256",
              "name": "stake",
              "type": "uint256"
            },
            {
              "internalType": "uint256",
              "name": "epochStaked",
              "type": "uint256"
            },
            {
              "internalType": "uint256",
              "name": "epochLastCommitted",
              "type": "uint256"
            },
            {
              "internalType": "uint256",
              "name": "epochLastRevealed",
              "type": "uint256"
            },
            {
              "internalType": "uint256",
              "name": "unstakeAfter",
              "type": "uint256"
            },
            {
              "internalType": "uint256",
              "name": "withdrawAfter",
              "type": "uint256"
            }
          ],
          "internalType": "struct Structs.Staker",
          "name": "staker",
          "type": "tuple"
        }
      ],
      "stateMutability": "view",
      "type": "function"
    },
    {
      "inputs": [
        {
          "internalType": "address",
          "name": "_address",
          "type": "address"
        }
      ],
      "name": "getStakerId",
      "outputs": [
        {
          "internalType": "uint256",
          "name": "",
          "type": "uint256"
        }
      ],
      "stateMutability": "view",
      "type": "function"
    },
    {
      "inputs": [
        {
          "internalType": "uint256",
          "name": "stakerId",
          "type": "uint256"
        },
        {
          "internalType": "uint256",
          "name": "epoch",
          "type": "uint256"
        }
      ],
      "name": "giveBlockReward",
      "outputs": [],
      "stateMutability": "nonpayable",
      "type": "function"
    },
    {
      "inputs": [
        {
          "internalType": "uint256",
          "name": "stakerId",
          "type": "uint256"
        },
        {
          "internalType": "uint256",
          "name": "epoch",
          "type": "uint256"
        }
      ],
      "name": "givePenalties",
      "outputs": [],
      "stateMutability": "nonpayable",
      "type": "function"
    },
    {
      "inputs": [
        {
          "internalType": "uint256",
          "name": "stakerId",
          "type": "uint256"
        },
        {
          "internalType": "uint256",
          "name": "epoch",
          "type": "uint256"
        }
      ],
      "name": "giveRewards",
      "outputs": [],
      "stateMutability": "nonpayable",
      "type": "function"
    },
    {
      "inputs": [
        {
          "internalType": "bytes32",
          "name": "role",
          "type": "bytes32"
        },
        {
          "internalType": "address",
          "name": "account",
          "type": "address"
        }
      ],
      "name": "grantRole",
      "outputs": [],
      "stateMutability": "nonpayable",
      "type": "function"
    },
    {
      "inputs": [
        {
          "internalType": "bytes32",
          "name": "role",
          "type": "bytes32"
        },
        {
          "internalType": "address",
          "name": "account",
          "type": "address"
        }
      ],
      "name": "hasRole",
      "outputs": [
        {
          "internalType": "bool",
          "name": "",
          "type": "bool"
        }
      ],
      "stateMutability": "view",
      "type": "function"
    },
    {
      "inputs": [
        {
          "internalType": "address",
          "name": "_schAddress",
          "type": "address"
        },
        {
          "internalType": "address",
          "name": "_voteManagerAddress",
          "type": "address"
        },
        {
          "internalType": "address",
          "name": "_blockManagerAddress",
          "type": "address"
        },
        {
          "internalType": "address",
          "name": "_stateManagerAddress",
          "type": "address"
        }
      ],
      "name": "init",
      "outputs": [],
      "stateMutability": "nonpayable",
      "type": "function"
    },
    {
      "inputs": [],
      "name": "numStakers",
      "outputs": [
        {
          "internalType": "uint256",
          "name": "",
          "type": "uint256"
        }
      ],
      "stateMutability": "view",
      "type": "function"
    },
    {
      "inputs": [
        {
          "internalType": "bytes32",
          "name": "role",
          "type": "bytes32"
        },
        {
          "internalType": "address",
          "name": "account",
          "type": "address"
        }
      ],
      "name": "renounceRole",
      "outputs": [],
      "stateMutability": "nonpayable",
      "type": "function"
    },
    {
      "inputs": [
        {
          "internalType": "bytes32",
          "name": "role",
          "type": "bytes32"
        },
        {
          "internalType": "address",
          "name": "account",
          "type": "address"
        }
      ],
      "name": "revokeRole",
      "outputs": [],
      "stateMutability": "nonpayable",
      "type": "function"
    },
    {
      "inputs": [],
      "name": "rewardPool",
      "outputs": [
        {
          "internalType": "uint256",
          "name": "",
          "type": "uint256"
        }
      ],
      "stateMutability": "view",
      "type": "function"
    },
    {
      "inputs": [],
      "name": "sch",
      "outputs": [
        {
          "internalType": "contract SchellingCoin",
          "name": "",
          "type": "address"
        }
      ],
      "stateMutability": "view",
      "type": "function"
    },
    {
      "inputs": [
        {
          "internalType": "uint256",
          "name": "_id",
          "type": "uint256"
        },
        {
          "internalType": "uint256",
          "name": "_epochLastRevealed",
          "type": "uint256"
        }
      ],
      "name": "setStakerEpochLastRevealed",
      "outputs": [],
      "stateMutability": "nonpayable",
      "type": "function"
    },
    {
      "inputs": [
        {
          "internalType": "uint256",
          "name": "id",
          "type": "uint256"
        },
        {
          "internalType": "address",
          "name": "bountyHunter",
          "type": "address"
        },
        {
          "internalType": "uint256",
          "name": "epoch",
          "type": "uint256"
        }
      ],
      "name": "slash",
      "outputs": [],
      "stateMutability": "nonpayable",
      "type": "function"
    },
    {
      "inputs": [
        {
          "internalType": "uint256",
          "name": "epoch",
          "type": "uint256"
        },
        {
          "internalType": "uint256",
          "name": "amount",
          "type": "uint256"
        }
      ],
      "name": "stake",
      "outputs": [],
      "stateMutability": "nonpayable",
      "type": "function"
    },
    {
      "inputs": [],
      "name": "stakeGettingReward",
      "outputs": [
        {
          "internalType": "uint256",
          "name": "",
          "type": "uint256"
        }
      ],
      "stateMutability": "view",
      "type": "function"
    },
    {
      "inputs": [
        {
          "internalType": "address",
          "name": "",
          "type": "address"
        }
      ],
      "name": "stakerIds",
      "outputs": [
        {
          "internalType": "uint256",
          "name": "",
          "type": "uint256"
        }
      ],
      "stateMutability": "view",
      "type": "function"
    },
    {
      "inputs": [
        {
          "internalType": "uint256",
          "name": "",
          "type": "uint256"
        }
      ],
      "name": "stakers",
      "outputs": [
        {
          "internalType": "uint256",
          "name": "id",
          "type": "uint256"
        },
        {
          "internalType": "address",
          "name": "_address",
          "type": "address"
        },
        {
          "internalType": "uint256",
          "name": "stake",
          "type": "uint256"
        },
        {
          "internalType": "uint256",
          "name": "epochStaked",
          "type": "uint256"
        },
        {
          "internalType": "uint256",
          "name": "epochLastCommitted",
          "type": "uint256"
        },
        {
          "internalType": "uint256",
          "name": "epochLastRevealed",
          "type": "uint256"
        },
        {
          "internalType": "uint256",
          "name": "unstakeAfter",
          "type": "uint256"
        },
        {
          "internalType": "uint256",
          "name": "withdrawAfter",
          "type": "uint256"
        }
      ],
      "stateMutability": "view",
      "type": "function"
    },
    {
      "inputs": [],
      "name": "stateManager",
      "outputs": [
        {
          "internalType": "contract IStateManager",
          "name": "",
          "type": "address"
        }
      ],
      "stateMutability": "view",
      "type": "function"
    },
    {
      "inputs": [
        {
          "internalType": "bytes4",
          "name": "interfaceId",
          "type": "bytes4"
        }
      ],
      "name": "supportsInterface",
      "outputs": [
        {
          "internalType": "bool",
          "name": "",
          "type": "bool"
        }
      ],
      "stateMutability": "view",
      "type": "function"
    },
    {
      "inputs": [
        {
          "internalType": "uint256",
          "name": "epoch",
          "type": "uint256"
        }
      ],
      "name": "unstake",
      "outputs": [],
      "stateMutability": "nonpayable",
      "type": "function"
    },
    {
      "inputs": [
        {
          "internalType": "uint256",
          "name": "_blockReward",
          "type": "uint256"
        }
      ],
      "name": "updateBlockReward",
      "outputs": [],
      "stateMutability": "nonpayable",
      "type": "function"
    },
    {
      "inputs": [
        {
          "internalType": "uint256",
          "name": "stakerId",
          "type": "uint256"
        }
      ],
      "name": "updateCommitmentEpoch",
      "outputs": [],
      "stateMutability": "nonpayable",
      "type": "function"
    },
    {
      "inputs": [],
      "name": "voteManager",
      "outputs": [
        {
          "internalType": "contract IVoteManager",
          "name": "",
          "type": "address"
        }
      ],
      "stateMutability": "view",
      "type": "function"
    },
    {
      "inputs": [
        {
          "internalType": "uint256",
          "name": "epoch",
          "type": "uint256"
        }
      ],
      "name": "withdraw",
      "outputs": [],
      "stateMutability": "nonpayable",
      "type": "function"
    }
  ],
  "bytecode": "0x60806040526000600455600060055560006006553480156200002057600080fd5b506040516200394638038062003946833981016040819052620000439162000120565b6200005060003362000059565b60015562000139565b62000065828262000069565b5050565b620000758282620000f3565b62000065576000828152602081815260408083206001600160a01b03851684529091529020805460ff19166001179055620000af6200011c565b6001600160a01b0316816001600160a01b0316837f2f8788117e7eff1d82e926ec794901d17c78024a50270940304540a733656f0d60405160405180910390a45050565b6000918252602082815260408084206001600160a01b0393909316845291905290205460ff1690565b3390565b60006020828403121562000132578081fd5b5051919050565b6137fd80620001496000396000f3fe608060405234801561001057600080fd5b50600436106102265760003560e01c80636022a4851161012a578063bc788d46116100bd578063d9169b321161008c578063f580ffcb11610071578063f580ffcb14610433578063fabb989014610446578063fd5e6dd11461045957610226565b8063d9169b321461040b578063e3c998fe1461041357610226565b8063bc788d46146103d5578063c584bb9f146103dd578063c8ae0d7d146103e5578063d547741f146103f857610226565b80637b0472f0116100f95780637b0472f01461039457806391d14854146103a75780639864f70a146103ba578063a217fddf146103cd57610226565b80636022a4851461035e57806366666aa9146103715780636c8b052a14610379578063746c8b651461038157610226565b80631b8b13a7116101bd5780632e716fb11161018c57806336568abe1161017157806336568abe1461033057806342c1e5871461034357806354eae15e1461034b57610226565b80632e716fb1146103085780632f2ff15d1461031d57610226565b80631b8b13a7146102c7578063248a9ca3146102cf5780632e17de78146102e25780632e1a7d4d146102f557610226565b80630f91ce19116101f95780630f91ce1914610286578063188dc83b146102995780631a69f008146102ac5780631ad54991146102bf57610226565b806301ffc9a71461022b57806306552ff3146102545780630ac168a1146102695780630ec88d3f1461027e575b600080fd5b61023e610239366004612dd1565b610480565b60405161024b9190613019565b60405180910390f35b610267610262366004612cce565b6104de565b005b610271610546565b60405161024b9190613024565b61027161054c565b610267610294366004612f66565b610552565b6102676102a7366004612d76565b61070f565b6102716102ba366004612f9a565b610850565b6102716109ad565b6102716109b3565b6102716102dd366004612d76565b6109b9565b6102676102f0366004612d76565b6109ce565b610267610303366004612d76565b610cfd565b6103106111d5565b60405161024b919061302d565b61026761032b366004612da6565b6111e4565b61026761033e366004612da6565b611222565b610310611264565b610267610359366004612f9a565b611273565b61027161036c366004612cad565b611324565b61027161133f565b610271611345565b61026761038f366004612f9a565b61134b565b6102676103a2366004612f9a565b611551565b61023e6103b5366004612da6565b611c70565b6102676103c8366004612f9a565b611c99565b610271611d51565b610271611d56565b610310611d5c565b6102716103f3366004612cad565b611d6b565b610267610406366004612da6565b611d7d565b610310611da5565b610426610421366004612d76565b611db4565b60405161024b9190613597565b610267610441366004612d76565b611e32565b610267610454366004612f9a565b611eda565b61046c610467366004612d76565b6124c1565b60405161024b9897969594939291906135f9565b60007fffffffff0000000000000000000000000000000000000000000000000000000082167f7965db0b0000000000000000000000000000000000000000000000000000000014806104d657506104d682612511565b90505b919050565b600780546001600160a01b039586167fffffffffffffffffffffffff00000000000000000000000000000000000000009182161790915560088054948616948216949094179093556009805492851692841692909217909155600a8054919093169116179055565b60015481565b60065481565b73__$cb76aa8097a3c0beaf107a478aa049bae7$__6380638d426040518163ffffffff1660e01b815260040160206040518083038186803b15801561059657600080fd5b505af41580156105aa573d6000803e3d6000fd5b505050506040513d601f19601f820116820180604052508101906105ce9190612d8e565b6105d88133611c70565b6105fd5760405162461bcd60e51b81526004016105f4906130d5565b60405180910390fd5b600084815260036020526040812060029081015461061b919061372a565b905061065f8560006040518060400160405280600781526020017f536c6173686564000000000000000000000000000000000000000000000000008152508661255b565b60018111156107085760075460405163a9059cbb60e01b81526001600160a01b039091169063a9059cbb9061069a9087908590600401613000565b602060405180830381600087803b1580156106b457600080fd5b505af11580156106c8573d6000803e3d6000fd5b505050506040513d601f19601f820116820180604052508101906106ec9190612d5c565b6107085760405162461bcd60e51b81526004016105f490613132565b5050505050565b73__$cb76aa8097a3c0beaf107a478aa049bae7$__639cec6f8a6040518163ffffffff1660e01b815260040160206040518083038186803b15801561075357600080fd5b505af4158015610767573d6000803e3d6000fd5b505050506040513d601f19601f8201168201806040525081019061078b9190612d8e565b6107958133611c70565b6107b15760405162461bcd60e51b81526004016105f4906130d5565b600a60009054906101000a90046001600160a01b03166001600160a01b031663757991a86040518163ffffffff1660e01b815260040160206040518083038186803b1580156107ff57600080fd5b505afa158015610813573d6000803e3d6000fd5b505050506040513d601f19601f820116820180604052508101906108379190612d8e565b6000928352600360205260409092206004019190915550565b6000600a8310156108625750806109a7565b600073__$cb76aa8097a3c0beaf107a478aa049bae7$__63b1cc45006040518163ffffffff1660e01b815260040160206040518083038186803b1580156108a857600080fd5b505af41580156108bc573d6000803e3d6000fd5b505050506040513d601f19601f820116820180604052508101906108e09190612d8e565b73__$cb76aa8097a3c0beaf107a478aa049bae7$__63a86f5a3f6040518163ffffffff1660e01b815260040160206040518083038186803b15801561092457600080fd5b505af4158015610938573d6000803e3d6000fd5b505050506040513d601f19601f8201168201806040525081019061095c9190612d8e565b610966908561374a565b610970919061372a565b61097b600186613769565b610985919061374a565b9050828110156109a1576109998184613769565b9150506109a7565b60009150505b92915050565b60065490565b60055490565b60009081526020819052604090206001015490565b600a5460408051630eaf323560e31b8152905183926001600160a01b03169163757991a8916004808301926020929190829003018186803b158015610a1257600080fd5b505afa158015610a26573d6000803e3d6000fd5b505050506040513d601f19601f82011682018060405250810190610a4a9190612d8e565b8114610a685760405162461bcd60e51b81526004016105f4906132c8565b73__$cb76aa8097a3c0beaf107a478aa049bae7$__633c7a3aff6040518163ffffffff1660e01b815260040160206040518083038186803b158015610aac57600080fd5b505af4158015610ac0573d6000803e3d6000fd5b505050506040513d601f19601f82011682018060405250810190610ae49190612fbb565b60ff16600a60009054906101000a90046001600160a01b03166001600160a01b0316631865c57d6040518163ffffffff1660e01b815260040160206040518083038186803b158015610b3557600080fd5b505afa158015610b49573d6000803e3d6000fd5b505050506040513d601f19601f82011682018060405250810190610b6d9190612d8e565b8114610b8b5760405162461bcd60e51b81526004016105f49061346f565b3360009081526002602090815260408083205480845260039092529091208054610bc75760405162461bcd60e51b81526004016105f49061336d565b6000816002015411610beb5760405162461bcd60e51b81526004016105f4906131c6565b84816006015411158015610c025750600681015415155b610c1e5760405162461bcd60e51b81526004016105f490613336565b6000816006018190555073__$cb76aa8097a3c0beaf107a478aa049bae7$__632628490f6040518163ffffffff1660e01b815260040160206040518083038186803b158015610c6c57600080fd5b505af4158015610c80573d6000803e3d6000fd5b505050506040513d601f19601f82011682018060405250810190610ca49190612d8e565b610cae9086613712565b6007820155600281015460405183917f0cfbc484edc798d2584502ca0d64e7e9514b8dd091d96a2a5b4deb58478da19e91610cee91899181904290613646565b60405180910390a25050505050565b600a5460408051630eaf323560e31b8152905183926001600160a01b03169163757991a8916004808301926020929190829003018186803b158015610d4157600080fd5b505afa158015610d55573d6000803e3d6000fd5b505050506040513d601f19601f82011682018060405250810190610d799190612d8e565b8114610d975760405162461bcd60e51b81526004016105f4906132c8565b73__$cb76aa8097a3c0beaf107a478aa049bae7$__633c7a3aff6040518163ffffffff1660e01b815260040160206040518083038186803b158015610ddb57600080fd5b505af4158015610def573d6000803e3d6000fd5b505050506040513d601f19601f82011682018060405250810190610e139190612fbb565b60ff16600a60009054906101000a90046001600160a01b03166001600160a01b0316631865c57d6040518163ffffffff1660e01b815260040160206040518083038186803b158015610e6457600080fd5b505afa158015610e78573d6000803e3d6000fd5b505050506040513d601f19601f82011682018060405250810190610e9c9190612d8e565b8114610eba5760405162461bcd60e51b81526004016105f49061346f565b3360009081526002602090815260408083205480845260039092529091208054610ef65760405162461bcd60e51b81526004016105f4906132ff565b600681015415610f185760405162461bcd60e51b81526004016105f490613438565b84816007015411158015610f2f5750600781015415155b610f4b5760405162461bcd60e51b81526004016105f49061309e565b806005015473__$cb76aa8097a3c0beaf107a478aa049bae7$__632628490f6040518163ffffffff1660e01b815260040160206040518083038186803b158015610f9457600080fd5b505af4158015610fa8573d6000803e3d6000fd5b505050506040513d601f19601f82011682018060405250810190610fcc9190612d8e565b8260070154610fdb9190613769565b1015610ff95760405162461bcd60e51b81526004016105f49061326b565b6008546040517f7164f0d60000000000000000000000000000000000000000000000000000000081526001600160a01b0390911690637164f0d6906110449088908690600401613638565b60206040518083038186803b15801561105c57600080fd5b505afa158015611070573d6000803e3d6000fd5b505050506040513d601f19601f820116820180604052508101906110949190612d8e565b156110b15760405162461bcd60e51b81526004016105f4906133db565b60008160020154116110d55760405162461bcd60e51b81526004016105f4906134a6565b6000828152600360205260408082206002018054908390559051909184917f0a6fecee2c95fc6b4c7f291e3435a3a832bcd700c2a7ffdedd8c909d56dfa49f91611125918a919081904290613646565b60405180910390a260075460405163a9059cbb60e01b81526001600160a01b039091169063a9059cbb9061115f9033908590600401613000565b602060405180830381600087803b15801561117957600080fd5b505af115801561118d573d6000803e3d6000fd5b505050506040513d601f19601f820116820180604052508101906111b19190612d5c565b6111cd5760405162461bcd60e51b81526004016105f490613234565b505050505050565b600a546001600160a01b031681565b6111f86111f0836109b9565b6103b56125ad565b6112145760405162461bcd60e51b81526004016105f490613041565b61121e82826125b1565b5050565b61122a6125ad565b6001600160a01b0316816001600160a01b03161461125a5760405162461bcd60e51b81526004016105f4906134dd565b61121e8282612636565b6008546001600160a01b031681565b73__$cb76aa8097a3c0beaf107a478aa049bae7$__6380638d426040518163ffffffff1660e01b815260040160206040518083038186803b1580156112b757600080fd5b505af41580156112cb573d6000803e3d6000fd5b505050506040513d601f19601f820116820180604052508101906112ef9190612d8e565b6112f98133611c70565b6113155760405162461bcd60e51b81526004016105f4906130d5565b61131f83836126b9565b505050565b6001600160a01b031660009081526002602052604090205490565b60055481565b60045481565b73__$cb76aa8097a3c0beaf107a478aa049bae7$__6380638d426040518163ffffffff1660e01b815260040160206040518083038186803b15801561138f57600080fd5b505af41580156113a3573d6000803e3d6000fd5b505050506040513d601f19601f820116820180604052508101906113c79190612d8e565b6113d18133611c70565b6113ed5760405162461bcd60e51b81526004016105f4906130d5565b6001541561150257600154600084815260036020526040812060020154909161141591613712565b905061145884826040518060400160405280600c81526020017f426c6f636b2052657761726400000000000000000000000000000000000000008152508661255b565b6007546001546040517f40c10f190000000000000000000000000000000000000000000000000000000081526001600160a01b03909216916340c10f19916114a591309190600401613000565b602060405180830381600087803b1580156114bf57600080fd5b505af11580156114d3573d6000803e3d6000fd5b505050506040513d601f19601f820116820180604052508101906114f79190612d5c565b61150057600080fd5b505b6006805460009182905560405190917feee26d3c1e406e24904d3748e49da85096c92ac1a6ad38f3fe8a404f85212dd1916115439186918591904290613646565b60405180910390a150505050565b600a5460408051630eaf323560e31b8152905184926001600160a01b03169163757991a8916004808301926020929190829003018186803b15801561159557600080fd5b505afa1580156115a9573d6000803e3d6000fd5b505050506040513d601f19601f820116820180604052508101906115cd9190612d8e565b81146115eb5760405162461bcd60e51b81526004016105f4906132c8565b73__$cb76aa8097a3c0beaf107a478aa049bae7$__633c7a3aff6040518163ffffffff1660e01b815260040160206040518083038186803b15801561162f57600080fd5b505af4158015611643573d6000803e3d6000fd5b505050506040513d601f19601f820116820180604052508101906116679190612fbb565b60ff16600a60009054906101000a90046001600160a01b03166001600160a01b0316631865c57d6040518163ffffffff1660e01b815260040160206040518083038186803b1580156116b857600080fd5b505afa1580156116cc573d6000803e3d6000fd5b505050506040513d601f19601f820116820180604052508101906116f09190612d8e565b811461170e5760405162461bcd60e51b81526004016105f49061346f565b73__$cb76aa8097a3c0beaf107a478aa049bae7$__63a475b5dd6040518163ffffffff1660e01b815260040160206040518083038186803b15801561175257600080fd5b505af4158015611766573d6000803e3d6000fd5b505050506040513d601f19601f8201168201806040525081019061178a9190612fbb565b60ff16600a60009054906101000a90046001600160a01b03166001600160a01b0316631865c57d6040518163ffffffff1660e01b815260040160206040518083038186803b1580156117db57600080fd5b505afa1580156117ef573d6000803e3d6000fd5b505050506040513d601f19601f820116820180604052508101906118139190612d8e565b14156118315760405162461bcd60e51b81526004016105f4906133a4565b73__$cb76aa8097a3c0beaf107a478aa049bae7$__63375b3c0a6040518163ffffffff1660e01b815260040160206040518083038186803b15801561187557600080fd5b505af4158015611889573d6000803e3d6000fd5b505050506040513d601f19601f820116820180604052508101906118ad9190612d8e565b8310156118cc5760405162461bcd60e51b81526004016105f49061353a565b6007546040517f23b872dd0000000000000000000000000000000000000000000000000000000081526001600160a01b03909116906323b872dd9061191990339030908890600401612fdc565b602060405180830381600087803b15801561193357600080fd5b505af1158015611947573d6000803e3d6000fd5b505050506040513d601f19601f8201168201806040525081019061196b9190612d5c565b6119875760405162461bcd60e51b81526004016105f4906131fd565b336000908152600260208181526040808420548085526003909252909220015481611b3a576004546119ba906001613712565b6004819055506040518061010001604052806004548152602001336001600160a01b03168152602001868152602001878152602001600081526020016000815260200173__$cb76aa8097a3c0beaf107a478aa049bae7$__6326bf1c036040518163ffffffff1660e01b815260040160206040518083038186803b158015611a4157600080fd5b505af4158015611a55573d6000803e3d6000fd5b505050506040513d601f19601f82011682018060405250810190611a799190612d8e565b611a839089613712565b8152600060209182018190526004805482526003808452604080842086518155868601516001820180547fffffffffffffffffffffffff0000000000000000000000000000000000000000166001600160a01b039092169190911790558682015160028083019190915560608801519382019390935560808701518185015560a0870151600582015560c0870151600682015560e09096015160079096019590955590543383529252919091208190559150611c14565b600082815260036020526040902060020154611b57908690613712565b600360008481526020019081526020016000206002018190555073__$cb76aa8097a3c0beaf107a478aa049bae7$__6326bf1c036040518163ffffffff1660e01b815260040160206040518083038186803b158015611bb557600080fd5b505af4158015611bc9573d6000803e3d6000fd5b505050506040513d601f19601f82011682018060405250810190611bed9190612d8e565b611bf79087613712565b600083815260036020526040812060068101929092556007909101555b817f52d3b6bf695a499d39fcdb47e3b450c09f2f6aa091ca8809cc51c00e705996cc8783600360008781526020019081526020016000206002015442604051611c609493929190613646565b60405180910390a2505050505050565b6000918252602082815260408084206001600160a01b0393909316845291905290205460ff1690565b73__$cb76aa8097a3c0beaf107a478aa049bae7$__639cec6f8a6040518163ffffffff1660e01b815260040160206040518083038186803b158015611cdd57600080fd5b505af4158015611cf1573d6000803e3d6000fd5b505050506040513d601f19601f82011682018060405250810190611d159190612d8e565b611d1f8133611c70565b611d3b5760405162461bcd60e51b81526004016105f4906130d5565b5060009182526003602052604090912060050155565b600081565b60045490565b6007546001600160a01b031681565b60026020526000908152604090205481565b611d896111f0836109b9565b61125a5760405162461bcd60e51b81526004016105f490613169565b6009546001600160a01b031681565b611dbc612bb6565b506000908152600360208181526040928390208351610100810185528154815260018201546001600160a01b03169281019290925260028101549382019390935290820154606082015260048201546080820152600582015460a0820152600682015460c082015260079091015460e082015290565b73__$cb76aa8097a3c0beaf107a478aa049bae7$__63b1a627816040518163ffffffff1660e01b815260040160206040518083038186803b158015611e7657600080fd5b505af4158015611e8a573d6000803e3d6000fd5b505050506040513d601f19601f82011682018060405250810190611eae9190612d8e565b611eb88133611c70565b611ed45760405162461bcd60e51b81526004016105f4906130d5565b50600155565b73__$cb76aa8097a3c0beaf107a478aa049bae7$__6380638d426040518163ffffffff1660e01b815260040160206040518083038186803b158015611f1e57600080fd5b505af4158015611f32573d6000803e3d6000fd5b505050506040513d601f19601f82011682018060405250810190611f569190612d8e565b611f608133611c70565b611f7c5760405162461bcd60e51b81526004016105f4906130d5565b600654611f885761131f565b6000838152600360208181526040928390208351610100810185528154815260018201546001600160a01b03169281019290925260028101549382019390935290820154606082015260048201546080820152600582015460a08201819052600683015460c083015260079092015460e0820152906120078185613769565b60011461201557505061131f565b6009546040517f378ab9a90000000000000000000000000000000000000000000000000000000081526000916001600160a01b03169063378ab9a99061205f908590600401613024565b60006040518083038186803b15801561207757600080fd5b505afa15801561208b573d6000803e3d6000fd5b505050506040513d6000823e601f3d908101601f191682016040526120b39190810190612d21565b6009546040517fd2a4669a0000000000000000000000000000000000000000000000000000000081529192506000916001600160a01b039091169063d2a4669a90612102908690600401613024565b60006040518083038186803b15801561211a57600080fd5b505afa15801561212e573d6000803e3d6000fd5b505050506040513d6000823e601f3d908101601f191682016040526121569190810190612d21565b6009546040517ffae4425d0000000000000000000000000000000000000000000000000000000081529192506000916001600160a01b039091169063fae4425d906121a5908790600401613024565b60006040518083038186803b1580156121bd57600080fd5b505afa1580156121d1573d6000803e3d6000fd5b505050506040513d6000823e601f3d908101601f191682016040526121f99190810190612d21565b8251909150156124b7576000805b835181101561235e576008548751604051634673ffa560e11b81526000926001600160a01b031691638ce7ff4a91612245918b9187906004016136d2565b604080518083038186803b15801561225c57600080fd5b505afa158015612270573d6000803e3d6000fd5b505050506040513d601f19601f820116820180604052508101906122949190612f18565b60000151905060008683815181106122bc57634e487b7160e01b600052603260045260246000fd5b6020026020010151905060008684815181106122e857634e487b7160e01b600052603260045260246000fd5b60200260200101519050600086858151811061231457634e487b7160e01b600052603260045260246000fd5b602002602001015190508284148061233457508184118061233457508084105b1561234757612344866001613712565b95505b50505050808061235690613780565b915050612207565b5060008351600654612370919061374a565b826005548960400151612383919061374a565b61238d919061374a565b612397919061372a565b905080156124b45760065460408801518110156123b55760006123c7565b87604001516006546123c79190613769565b60068190556040517feee26d3c1e406e24904d3748e49da85096c92ac1a6ad38f3fe8a404f85212dd191612400918d9185914290613646565b60405180910390a1600082896040015161241a9190613712565b60055490915061242a8482613769565b60058190556040517ff7157643fd549e213a0105625da6b3bf58c86068ccb954a4449e18bf9427bff491612463918f9185914290613646565b60405180910390a16124b08a60000151836040518060400160405280600e81526020017f566f74696e6720526577617264730000000000000000000000000000000000008152508f61255b565b5050505b50505b5050505050505050565b60036020819052600091825260409091208054600182015460028301549383015460048401546005850154600686015460079096015494966001600160a01b039094169593949293919290919088565b7fffffffff0000000000000000000000000000000000000000000000000000000081167f01ffc9a70000000000000000000000000000000000000000000000000000000014919050565b60008481526003602052604090819020600201805490859055905185907fab9982d99de79485b3cd6d1e72c881fd0342f42f1cbc7d220d4f373b97c4f36390610cee9084908890889088904290613661565b3390565b6125bb8282611c70565b61121e576000828152602081815260408083206001600160a01b03851684529091529020805460ff191660011790556125f26125ad565b6001600160a01b0316816001600160a01b0316837f2f8788117e7eff1d82e926ec794901d17c78024a50270940304540a733656f0d60405160405180910390a45050565b6126408282611c70565b1561121e576000828152602081815260408083206001600160a01b03851684529091529020805460ff191690556126756125ad565b6001600160a01b0316816001600160a01b0316837ff6391f5c32d9c69d2a47ea670b442974b53935d1edc7fd64eb21e047a839171b60405160405180910390a45050565b6126c38282612a52565b6000828152600360205260408082206002810154600582015460095493517f04c075690000000000000000000000000000000000000000000000000000000081529294919390926001600160a01b03909116906304c075699061272a908590600401613024565b60006040518083038186803b15801561274257600080fd5b505afa158015612756573d6000803e3d6000fd5b505050506040513d6000823e601f3d908101601f1916820160405261277e9190810190612e11565b6060810151608082015181519293509091156124b7576000805b835181101561293e576008548854604051634673ffa560e11b81526000926001600160a01b031691638ce7ff4a916127d6918b9187906004016136d2565b604080518083038186803b1580156127ed57600080fd5b505afa158015612801573d6000803e3d6000fd5b505050506040513d601f19601f820116820180604052508101906128259190612f18565b600001519050600085838151811061284d57634e487b7160e01b600052603260045260246000fd5b60200260200101519050600085848151811061287957634e487b7160e01b600052603260045260246000fd5b602002602001015190508183108061289057508083115b156129285773__$cb76aa8097a3c0beaf107a478aa049bae7$__633002c9ac6040518163ffffffff1660e01b815260040160206040518083038186803b1580156128d957600080fd5b505af41580156128ed573d6000803e3d6000fd5b505050506040513d601f19601f820116820180604052508101906129119190612d8e565b61291b908b61372a565b6129259086613712565b94505b505050808061293690613780565b915050612798565b5080156129f7578581116129525780612954565b855b87549091506129a3906129678389613769565b6040518060400160405280600e81526020017f566f74696e672050656e616c74790000000000000000000000000000000000008152508b61255b565b6005546129b08282613712565b60058190556040517ff7157643fd549e213a0105625da6b3bf58c86068ccb954a4449e18bf9427bff4916129e9918c9185914290613646565b60405180910390a150612a47565b600654612a048782613712565b60068190556040517feee26d3c1e406e24904d3748e49da85096c92ac1a6ad38f3fe8a404f85212dd191612a3d918c9185914290613646565b60405180910390a1505b505050505050505050565b60008281526003602081815260408084208151610100810183528154815260018201546001600160a01b031693810193909352600281015491830191909152918201546060820181905260048301546080830152600583015460a08301819052600684015460c084015260079093015460e083015290929111612ad9578160600151612adf565b8160a001515b90506000612aed8285613769565b60408401519091506000612b018383610850565b905081811015612bad57612b508560000151826040518060400160405280601281526020017f496e61637469766974792050656e616c747900000000000000000000000000008152508961255b565b600554612b5d8284613769565b600554612b6a9190613712565b60058190556040517ff7157643fd549e213a0105625da6b3bf58c86068ccb954a4449e18bf9427bff491612ba3918a9185914290613646565b60405180910390a1505b50505050505050565b6040518061010001604052806000815260200160006001600160a01b031681526020016000815260200160008152602001600081526020016000815260200160008152602001600081525090565b80356001600160a01b03811681146104d957600080fd5b600082601f830112612c2b578081fd5b8151602067ffffffffffffffff821115612c4757612c476137b1565b808202612c558282016136e8565b838152828101908684018388018501891015612c6f578687fd5b8693505b85841015612c91578051835260019390930192918401918401612c73565b50979650505050505050565b805180151581146104d957600080fd5b600060208284031215612cbe578081fd5b612cc782612c04565b9392505050565b60008060008060808587031215612ce3578283fd5b612cec85612c04565b9350612cfa60208601612c04565b9250612d0860408601612c04565b9150612d1660608601612c04565b905092959194509250565b600060208284031215612d32578081fd5b815167ffffffffffffffff811115612d48578182fd5b612d5484828501612c1b565b949350505050565b600060208284031215612d6d578081fd5b612cc782612c9d565b600060208284031215612d87578081fd5b5035919050565b600060208284031215612d9f578081fd5b5051919050565b60008060408385031215612db8578182fd5b82359150612dc860208401612c04565b90509250929050565b600060208284031215612de2578081fd5b81357fffffffff0000000000000000000000000000000000000000000000000000000081168114612cc7578182fd5b600060208284031215612e22578081fd5b815167ffffffffffffffff80821115612e39578283fd5b8184019150610100808387031215612e4f578384fd5b612e58816136e8565b905082518152602083015182811115612e6f578485fd5b612e7b87828601612c1b565b602083015250604083015182811115612e92578485fd5b612e9e87828601612c1b565b604083015250606083015182811115612eb5578485fd5b612ec187828601612c1b565b606083015250608083015182811115612ed8578485fd5b612ee487828601612c1b565b60808301525060a083015160a082015260c083015160c0820152612f0a60e08401612c9d565b60e082015295945050505050565b600060408284031215612f29578081fd5b6040516040810181811067ffffffffffffffff82111715612f4c57612f4c6137b1565b604052825181526020928301519281019290925250919050565b600080600060608486031215612f7a578283fd5b83359250612f8a60208501612c04565b9150604084013590509250925092565b60008060408385031215612fac578182fd5b50508035926020909101359150565b600060208284031215612fcc578081fd5b815160ff81168114612cc7578182fd5b6001600160a01b039384168152919092166020820152604081019190915260600190565b6001600160a01b03929092168252602082015260400190565b901515815260200190565b90815260200190565b6001600160a01b0391909116815260200190565b6020808252602f908201527f416363657373436f6e74726f6c3a2073656e646572206d75737420626520616e60408201527f2061646d696e20746f206772616e740000000000000000000000000000000000606082015260800190565b6020808252601a908201527f57697468647261772065706f6368206e6f742072656163686564000000000000604082015260600190565b60208082526032908201527f416363657373436f6e74726f6c3a2073656e64657220646f65736e742068617660408201527f6520617070726f70726961746520726f6c650000000000000000000000000000606082015260800190565b60208082526019908201527f6661696c656420746f207472616e7366657220626f756e747900000000000000604082015260600190565b60208082526030908201527f416363657373436f6e74726f6c3a2073656e646572206d75737420626520616e60408201527f2061646d696e20746f207265766f6b6500000000000000000000000000000000606082015260800190565b60208082526011908201527f4e6f6e706f736974697665207374616b65000000000000000000000000000000604082015260600190565b60208082526013908201527f736368207472616e73666572206661696c656400000000000000000000000000604082015260600190565b60208082526010908201527f636f756c646e74207472616e7366657200000000000000000000000000000000604082015260600190565b60208082526033908201527f50617274696369706174656420696e205769746864726177206c6f636b20706560408201527f72696f642c2043616e7420776974686472617700000000000000000000000000606082015260800190565b6020808252600f908201527f696e636f72726563742065706f63680000000000000000000000000000000000604082015260600190565b60208082526013908201527f7374616b657220646f65736e7420657869737400000000000000000000000000604082015260600190565b60208082526006908201527f6c6f636b65640000000000000000000000000000000000000000000000000000604082015260600190565b6020808252600d908201527f7374616b65722e6964203d203000000000000000000000000000000000000000604082015260600190565b6020808252600f908201527f496e636f72726563742073746174650000000000000000000000000000000000604082015260600190565b6020808252602a908201527f616c726561647920636f6d6d6974656420746869732065706f63682e2043616e60408201527f7420776974686472617700000000000000000000000000000000000000000000606082015260800190565b6020808252600f908201527f446964206e6f7420756e7374616b650000000000000000000000000000000000604082015260600190565b6020808252600f908201527f696e636f72726563742073746174650000000000000000000000000000000000604082015260600190565b60208082526011908201527f4e6f6e706f736974697665205374616b65000000000000000000000000000000604082015260600190565b6020808252602f908201527f416363657373436f6e74726f6c3a2063616e206f6e6c792072656e6f756e636560408201527f20726f6c657320666f722073656c660000000000000000000000000000000000606082015260800190565b60208082526031908201527f7374616b656420616d6f756e74206973206c657373207468616e206d696e696d60408201527f756d207374616b65207265717569726564000000000000000000000000000000606082015260800190565b600061010082019050825182526001600160a01b03602084015116602083015260408301516040830152606083015160608301526080830151608083015260a083015160a083015260c083015160c083015260e083015160e083015292915050565b9788526001600160a01b0396909616602088015260408701949094526060860192909252608085015260a084015260c083015260e08201526101000190565b918252602082015260400190565b93845260208401929092526040830152606082015260800190565b60008682526020868184015260a0604084015285518060a0850152825b8181101561369a5787810183015185820160c00152820161367e565b818111156136ab578360c083870101525b5060608401959095525050608081019190915260c0601f909201601f191601019392505050565b9283526020830191909152604082015260600190565b60405181810167ffffffffffffffff8111828210171561370a5761370a6137b1565b604052919050565b600082198211156137255761372561379b565b500190565b60008261374557634e487b7160e01b81526012600452602481fd5b500490565b60008160001904831182151516156137645761376461379b565b500290565b60008282101561377b5761377b61379b565b500390565b60006000198214156137945761379461379b565b5060010190565b634e487b7160e01b600052601160045260246000fd5b634e487b7160e01b600052604160045260246000fdfea2646970667358221220b9661ed187971fc1747209fa83469bced0be0abfa89ac7fdfea39d2c7db9429964736f6c63430008000033",
  "linkReferences": {
    "contracts/lib/Constants.sol": {
      "Constants": [
        {
          "length": 20,
          "start": 1693
        },
        {
          "length": 20,
          "start": 2138
        },
        {
          "length": 20,
          "start": 2479
        },
        {
          "length": 20,
          "start": 2603
        },
        {
          "length": 20,
          "start": 2995
        },
        {
          "length": 20,
          "start": 3443
        },
        {
          "length": 20,
          "start": 3810
        },
        {
          "length": 20,
          "start": 4251
        },
        {
          "length": 20,
          "start": 5054
        },
        {
          "length": 20,
          "start": 5270
        },
        {
          "length": 20,
          "start": 5942
        },
        {
          "length": 20,
          "start": 6233
        },
        {
          "length": 20,
          "start": 6524
        },
        {
          "length": 20,
          "start": 6984
        },
        {
          "length": 20,
          "start": 7356
        },
        {
          "length": 20,
          "start": 7652
        },
        {
          "length": 20,
          "start": 8061
        },
        {
          "length": 20,
          "start": 8229
        },
        {
          "length": 20,
          "start": 10720
        }
      ]
    }
  },
  "deployedLinkReferences": {
    "contracts/lib/Constants.sol": {
      "Constants": [
        {
          "length": 20,
          "start": 1364
        },
        {
          "length": 20,
          "start": 1809
        },
        {
          "length": 20,
          "start": 2150
        },
        {
          "length": 20,
          "start": 2274
        },
        {
          "length": 20,
          "start": 2666
        },
        {
          "length": 20,
          "start": 3114
        },
        {
          "length": 20,
          "start": 3481
        },
        {
          "length": 20,
          "start": 3922
        },
        {
          "length": 20,
          "start": 4725
        },
        {
          "length": 20,
          "start": 4941
        },
        {
          "length": 20,
          "start": 5613
        },
        {
          "length": 20,
          "start": 5904
        },
        {
          "length": 20,
          "start": 6195
        },
        {
          "length": 20,
          "start": 6655
        },
        {
          "length": 20,
          "start": 7027
        },
        {
          "length": 20,
          "start": 7323
        },
        {
          "length": 20,
          "start": 7732
        },
        {
          "length": 20,
          "start": 7900
        },
        {
          "length": 20,
          "start": 10391
        }
      ]
    }
  }
}