{
  "contractName": "StakeManager",
  "abi": [
    {
      "constant": true,
      "inputs": [],
      "name": "stakeGettingReward",
      "outputs": [
        {
          "name": "",
          "type": "uint256"
        }
      ],
      "payable": false,
      "stateMutability": "view",
      "type": "function"
    },
    {
      "constant": true,
      "inputs": [
        {
          "name": "account",
          "type": "address"
        }
      ],
      "name": "isWriter",
      "outputs": [
        {
          "name": "",
          "type": "bool"
        }
      ],
      "payable": false,
      "stateMutability": "view",
      "type": "function"
    },
    {
      "constant": true,
      "inputs": [],
      "name": "stateManager",
      "outputs": [
        {
          "name": "",
          "type": "address"
        }
      ],
      "payable": false,
      "stateMutability": "view",
      "type": "function"
    },
    {
      "constant": true,
      "inputs": [],
      "name": "voteManager",
      "outputs": [
        {
          "name": "",
          "type": "address"
        }
      ],
      "payable": false,
      "stateMutability": "view",
      "type": "function"
    },
    {
      "constant": true,
      "inputs": [],
      "name": "rewardPool",
      "outputs": [
        {
          "name": "",
          "type": "uint256"
        }
      ],
      "payable": false,
      "stateMutability": "view",
      "type": "function"
    },
    {
      "constant": true,
      "inputs": [],
      "name": "numStakers",
      "outputs": [
        {
          "name": "",
          "type": "uint256"
        }
      ],
      "payable": false,
      "stateMutability": "view",
      "type": "function"
    },
    {
      "constant": true,
      "inputs": [],
      "name": "sch",
      "outputs": [
        {
          "name": "",
          "type": "address"
        }
      ],
      "payable": false,
      "stateMutability": "view",
      "type": "function"
    },
    {
      "constant": true,
      "inputs": [
        {
          "name": "",
          "type": "address"
        }
      ],
      "name": "stakerIds",
      "outputs": [
        {
          "name": "",
          "type": "uint256"
        }
      ],
      "payable": false,
      "stateMutability": "view",
      "type": "function"
    },
    {
      "constant": true,
      "inputs": [],
      "name": "blockManager",
      "outputs": [
        {
          "name": "",
          "type": "address"
        }
      ],
      "payable": false,
      "stateMutability": "view",
      "type": "function"
    },
    {
      "constant": false,
      "inputs": [
        {
          "name": "account",
          "type": "address"
        }
      ],
      "name": "addWriter",
      "outputs": [],
      "payable": false,
      "stateMutability": "nonpayable",
      "type": "function"
    },
    {
      "constant": false,
      "inputs": [],
      "name": "renounceWriter",
      "outputs": [],
      "payable": false,
      "stateMutability": "nonpayable",
      "type": "function"
    },
    {
      "constant": true,
      "inputs": [
        {
          "name": "",
          "type": "uint256"
        }
      ],
      "name": "stakers",
      "outputs": [
        {
          "name": "id",
          "type": "uint256"
        },
        {
          "name": "_address",
          "type": "address"
        },
        {
          "name": "stake",
          "type": "uint256"
        },
        {
          "name": "epochStaked",
          "type": "uint256"
        },
        {
          "name": "epochLastCommitted",
          "type": "uint256"
        },
        {
          "name": "epochLastRevealed",
          "type": "uint256"
        },
        {
          "name": "unstakeAfter",
          "type": "uint256"
        },
        {
          "name": "withdrawAfter",
          "type": "uint256"
        }
      ],
      "payable": false,
      "stateMutability": "view",
      "type": "function"
    },
    {
      "anonymous": false,
      "inputs": [
        {
          "indexed": false,
          "name": "stakerId",
          "type": "uint256"
        },
        {
          "indexed": false,
          "name": "previousStake",
          "type": "uint256"
        },
        {
          "indexed": false,
          "name": "newStake",
          "type": "uint256"
        },
        {
          "indexed": false,
          "name": "reason",
          "type": "string"
        },
        {
          "indexed": false,
          "name": "epoch",
          "type": "uint256"
        },
        {
          "indexed": false,
          "name": "timestamp",
          "type": "uint256"
        }
      ],
      "name": "StakeChange",
      "type": "event"
    },
    {
      "anonymous": false,
      "inputs": [
        {
          "indexed": false,
          "name": "epoch",
          "type": "uint256"
        },
        {
          "indexed": false,
          "name": "value",
          "type": "uint256"
        },
        {
          "indexed": false,
          "name": "timestamp",
          "type": "uint256"
        }
      ],
      "name": "RewardPoolChange",
      "type": "event"
    },
    {
      "anonymous": false,
      "inputs": [
        {
          "indexed": false,
          "name": "epoch",
          "type": "uint256"
        },
        {
          "indexed": false,
          "name": "value",
          "type": "uint256"
        },
        {
          "indexed": false,
          "name": "timestamp",
          "type": "uint256"
        }
      ],
      "name": "StakeGettingRewardChange",
      "type": "event"
    },
    {
      "anonymous": false,
      "inputs": [
        {
          "indexed": false,
          "name": "epoch",
          "type": "uint256"
        },
        {
          "indexed": false,
          "name": "stakerId",
          "type": "uint256"
        },
        {
          "indexed": false,
          "name": "previousStake",
          "type": "uint256"
        },
        {
          "indexed": false,
          "name": "newStake",
          "type": "uint256"
        },
        {
          "indexed": false,
          "name": "timestamp",
          "type": "uint256"
        }
      ],
      "name": "Staked",
      "type": "event"
    },
    {
      "anonymous": false,
      "inputs": [
        {
          "indexed": false,
          "name": "epoch",
          "type": "uint256"
        },
        {
          "indexed": false,
          "name": "stakerId",
          "type": "uint256"
        },
        {
          "indexed": false,
          "name": "amount",
          "type": "uint256"
        },
        {
          "indexed": false,
          "name": "newStake",
          "type": "uint256"
        },
        {
          "indexed": false,
          "name": "timestamp",
          "type": "uint256"
        }
      ],
      "name": "Unstaked",
      "type": "event"
    },
    {
      "anonymous": false,
      "inputs": [
        {
          "indexed": false,
          "name": "epoch",
          "type": "uint256"
        },
        {
          "indexed": false,
          "name": "stakerId",
          "type": "uint256"
        },
        {
          "indexed": false,
          "name": "amount",
          "type": "uint256"
        },
        {
          "indexed": false,
          "name": "newStake",
          "type": "uint256"
        },
        {
          "indexed": false,
          "name": "timestamp",
          "type": "uint256"
        }
      ],
      "name": "Withdrew",
      "type": "event"
    },
    {
      "anonymous": false,
      "inputs": [
        {
          "indexed": true,
          "name": "account",
          "type": "address"
        }
      ],
      "name": "WriterAdded",
      "type": "event"
    },
    {
      "anonymous": false,
      "inputs": [
        {
          "indexed": true,
          "name": "account",
          "type": "address"
        }
      ],
      "name": "WriterRemoved",
      "type": "event"
    },
    {
      "anonymous": false,
      "inputs": [
        {
          "indexed": false,
          "name": "a",
          "type": "uint256"
        }
      ],
      "name": "DebugUint256",
      "type": "event"
    },
    {
      "constant": false,
      "inputs": [
        {
          "name": "_schAddress",
          "type": "address"
        },
        {
          "name": "_voteManagerAddress",
          "type": "address"
        },
        {
          "name": "_blockManagerAddress",
          "type": "address"
        },
        {
          "name": "_stateManagerAddress",
          "type": "address"
        }
      ],
      "name": "init",
      "outputs": [],
      "payable": false,
      "stateMutability": "nonpayable",
      "type": "function"
    },
    {
      "constant": false,
      "inputs": [
        {
          "name": "_id",
          "type": "uint256"
        },
        {
          "name": "_stake",
          "type": "uint256"
        },
        {
          "name": "_reason",
          "type": "string"
        },
        {
          "name": "_epoch",
          "type": "uint256"
        }
      ],
      "name": "setStakerStake",
      "outputs": [],
      "payable": false,
      "stateMutability": "nonpayable",
      "type": "function"
    },
    {
      "constant": false,
      "inputs": [
        {
          "name": "_id",
          "type": "uint256"
        },
        {
          "name": "_epochLastRevealed",
          "type": "uint256"
        }
      ],
      "name": "setStakerEpochLastRevealed",
      "outputs": [],
      "payable": false,
      "stateMutability": "nonpayable",
      "type": "function"
    },
    {
      "constant": false,
      "inputs": [
        {
          "name": "stakerId",
          "type": "uint256"
        }
      ],
      "name": "updateCommitmentEpoch",
      "outputs": [],
      "payable": false,
      "stateMutability": "nonpayable",
      "type": "function"
    },
    {
      "constant": false,
      "inputs": [
        {
          "name": "epoch",
          "type": "uint256"
        },
        {
          "name": "amount",
          "type": "uint256"
        }
      ],
      "name": "stake",
      "outputs": [],
      "payable": false,
      "stateMutability": "nonpayable",
      "type": "function"
    },
    {
      "constant": false,
      "inputs": [
        {
          "name": "epoch",
          "type": "uint256"
        }
      ],
      "name": "unstake",
      "outputs": [],
      "payable": false,
      "stateMutability": "nonpayable",
      "type": "function"
    },
    {
      "constant": false,
      "inputs": [
        {
          "name": "epoch",
          "type": "uint256"
        }
      ],
      "name": "withdraw",
      "outputs": [],
      "payable": false,
      "stateMutability": "nonpayable",
      "type": "function"
    },
    {
      "constant": false,
      "inputs": [
        {
          "components": [
            {
              "name": "id",
              "type": "uint256"
            },
            {
              "name": "_address",
              "type": "address"
            },
            {
              "name": "stake",
              "type": "uint256"
            },
            {
              "name": "epochStaked",
              "type": "uint256"
            },
            {
              "name": "epochLastCommitted",
              "type": "uint256"
            },
            {
              "name": "epochLastRevealed",
              "type": "uint256"
            },
            {
              "name": "unstakeAfter",
              "type": "uint256"
            },
            {
              "name": "withdrawAfter",
              "type": "uint256"
            }
          ],
          "name": "thisStaker",
          "type": "tuple"
        },
        {
          "name": "epoch",
          "type": "uint256"
        }
      ],
      "name": "givePenalties",
      "outputs": [],
      "payable": false,
      "stateMutability": "nonpayable",
      "type": "function"
    },
    {
      "constant": false,
      "inputs": [
        {
          "name": "stakerId",
          "type": "uint256"
        },
        {
          "name": "epoch",
          "type": "uint256"
        }
      ],
      "name": "giveBlockReward",
      "outputs": [],
      "payable": false,
      "stateMutability": "nonpayable",
      "type": "function"
    },
    {
      "constant": false,
      "inputs": [
        {
          "components": [
            {
              "name": "id",
              "type": "uint256"
            },
            {
              "name": "_address",
              "type": "address"
            },
            {
              "name": "stake",
              "type": "uint256"
            },
            {
              "name": "epochStaked",
              "type": "uint256"
            },
            {
              "name": "epochLastCommitted",
              "type": "uint256"
            },
            {
              "name": "epochLastRevealed",
              "type": "uint256"
            },
            {
              "name": "unstakeAfter",
              "type": "uint256"
            },
            {
              "name": "withdrawAfter",
              "type": "uint256"
            }
          ],
          "name": "thisStaker",
          "type": "tuple"
        },
        {
          "name": "epoch",
          "type": "uint256"
        }
      ],
      "name": "giveRewards",
      "outputs": [],
      "payable": false,
      "stateMutability": "nonpayable",
      "type": "function"
    },
    {
      "constant": false,
      "inputs": [
        {
          "name": "id",
          "type": "uint256"
        },
        {
          "name": "bountyHunter",
          "type": "address"
        }
      ],
      "name": "slash",
      "outputs": [],
      "payable": false,
      "stateMutability": "nonpayable",
      "type": "function"
    },
    {
      "constant": true,
      "inputs": [
        {
          "name": "_address",
          "type": "address"
        }
      ],
      "name": "getStakerId",
      "outputs": [
        {
          "name": "",
          "type": "uint256"
        }
      ],
      "payable": false,
      "stateMutability": "view",
      "type": "function"
    },
    {
      "constant": true,
      "inputs": [
        {
          "name": "_id",
          "type": "uint256"
        }
      ],
      "name": "getStaker",
      "outputs": [
        {
          "components": [
            {
              "name": "id",
              "type": "uint256"
            },
            {
              "name": "_address",
              "type": "address"
            },
            {
              "name": "stake",
              "type": "uint256"
            },
            {
              "name": "epochStaked",
              "type": "uint256"
            },
            {
              "name": "epochLastCommitted",
              "type": "uint256"
            },
            {
              "name": "epochLastRevealed",
              "type": "uint256"
            },
            {
              "name": "unstakeAfter",
              "type": "uint256"
            },
            {
              "name": "withdrawAfter",
              "type": "uint256"
            }
          ],
          "name": "staker",
          "type": "tuple"
        }
      ],
      "payable": false,
      "stateMutability": "view",
      "type": "function"
    },
    {
      "constant": true,
      "inputs": [],
      "name": "getNumStakers",
      "outputs": [
        {
          "name": "",
          "type": "uint256"
        }
      ],
      "payable": false,
      "stateMutability": "view",
      "type": "function"
    },
    {
      "constant": true,
      "inputs": [],
      "name": "getRewardPool",
      "outputs": [
        {
          "name": "",
          "type": "uint256"
        }
      ],
      "payable": false,
      "stateMutability": "view",
      "type": "function"
    },
    {
      "constant": true,
      "inputs": [],
      "name": "getStakeGettingReward",
      "outputs": [
        {
          "name": "",
          "type": "uint256"
        }
      ],
      "payable": false,
      "stateMutability": "view",
      "type": "function"
    },
    {
      "constant": true,
      "inputs": [
        {
          "name": "epochs",
          "type": "uint256"
        },
        {
          "name": "stakeValue",
          "type": "uint256"
        }
      ],
      "name": "calculateInactivityPenalties",
      "outputs": [
        {
          "name": "",
          "type": "uint256"
        }
      ],
      "payable": false,
      "stateMutability": "pure",
      "type": "function"
    }
  ],
  "bytecode": "0x608060405260006003556000600455600060055562000024336200002a60201b60201c565b62000308565b620000458160006200008b60201b620034091790919060201c565b8073ffffffffffffffffffffffffffffffffffffffff167f6ff3aa2ea7b53070f6d9d07a445d338d89e8edef44250ffa8be19f53910d4a2e60405160405180910390a250565b6200009d82826200013e60201b60201c565b15620000e0576040517f08c379a0000000000000000000000000000000000000000000000000000000008152600401620000d790620002b3565b60405180910390fd5b60018260000160008373ffffffffffffffffffffffffffffffffffffffff1673ffffffffffffffffffffffffffffffffffffffff16815260200190815260200160002060006101000a81548160ff0219169083151502179055505050565b60008073ffffffffffffffffffffffffffffffffffffffff168273ffffffffffffffffffffffffffffffffffffffff161415620001b2576040517f08c379a0000000000000000000000000000000000000000000000000000000008152600401620001a990620002d5565b60405180910390fd5b8260000160008373ffffffffffffffffffffffffffffffffffffffff1673ffffffffffffffffffffffffffffffffffffffff16815260200190815260200160002060009054906101000a900460ff16905092915050565b600062000218601f83620002f7565b91507f526f6c65733a206163636f756e7420616c72656164792068617320726f6c65006000830152602082019050919050565b60006200025a602283620002f7565b91507f526f6c65733a206163636f756e7420697320746865207a65726f20616464726560008301527f73730000000000000000000000000000000000000000000000000000000000006020830152604082019050919050565b60006020820190508181036000830152620002ce8162000209565b9050919050565b60006020820190508181036000830152620002f0816200024b565b9050919050565b600082825260208201905092915050565b614d7e80620003186000396000f3fe608060405234801561001057600080fd5b50600436106101cf5760003560e01c80636c8b052a11610104578063c584bb9f116100a2578063df4eb59c11610071578063df4eb59c146104f4578063e3c998fe146104fe578063fa3aa14c1461052e578063fd5e6dd11461054a576101cf565b8063c584bb9f1461046c578063c8ae0d7d1461048a578063d9169b32146104ba578063da2824a8146104d8576101cf565b80639864f70a116100de5780639864f70a146103fa578063a8a3e96f14610416578063bc788d4614610432578063c477699314610450576101cf565b80636c8b052a146103a4578063746c8b65146103c25780637b0472f0146103de576101cf565b80632e17de78116101715780633d82e3c11161014b5780633d82e3c11461031c57806342c1e587146103385780636022a4851461035657806366666aa914610386576101cf565b80632e17de78146102c65780632e1a7d4d146102e25780632e716fb1146102fe576101cf565b80631a69f008116101ad5780631a69f0081461022a5780631ad549911461025a5780631b8b13a7146102785780632b29ba2314610296576101cf565b806306552ff3146101d45780630ec88d3f146101f0578063188dc83b1461020e575b600080fd5b6101ee60048036036101e99190810190613855565b610581565b005b6101f861068b565b60405161020591906148c3565b60405180910390f35b610228600480360361022391908101906139dc565b610691565b005b610244600480360361023f9190810190613a6a565b610796565b60405161025191906148c3565b60405180910390f35b61026261091c565b60405161026f91906148c3565b60405180910390f35b610280610926565b60405161028d91906148c3565b60405180910390f35b6102b060048036036102ab919081019061382c565b610930565b6040516102bd9190614500565b60405180910390f35b6102e060048036036102db91908101906139dc565b61094d565b005b6102fc60048036036102f791908101906139dc565b610dbf565b005b610306611509565b6040516103139190614536565b60405180910390f35b61033660048036036103319190810190613a2e565b61152f565b005b6103406116bd565b60405161034d9190614551565b60405180910390f35b610370600480360361036b919081019061382c565b6116e3565b60405161037d91906148c3565b60405180910390f35b61038e61172c565b60405161039b91906148c3565b60405180910390f35b6103ac611732565b6040516103b991906148c3565b60405180910390f35b6103dc60048036036103d79190810190613a6a565b611738565b005b6103f860048036036103f39190810190613a6a565b611a2c565b005b610414600480360361040f9190810190613a6a565b6122d2565b005b610430600480360361042b9190810190613aa6565b612339565b005b61043a6123d8565b60405161044791906148c3565b60405180910390f35b61046a6004803603610465919081019061394b565b6123e2565b005b6104746127e6565b604051610481919061456c565b60405180910390f35b6104a4600480360361049f919081019061382c565b61280c565b6040516104b191906148c3565b60405180910390f35b6104c2612824565b6040516104cf919061451b565b60405180910390f35b6104f260048036036104ed919081019061382c565b61284a565b005b6104fc61289e565b005b610518600480360361051391908101906139dc565b6128a9565b60405161052591906148a7565b60405180910390f35b6105486004803603610543919081019061394b565b612973565b005b610564600480360361055f91908101906139dc565b6129d9565b6040516105789897969594939291906148de565b60405180910390f35b83600660006101000a81548173ffffffffffffffffffffffffffffffffffffffff021916908373ffffffffffffffffffffffffffffffffffffffff16021790555082600760006101000a81548173ffffffffffffffffffffffffffffffffffffffff021916908373ffffffffffffffffffffffffffffffffffffffff16021790555081600860006101000a81548173ffffffffffffffffffffffffffffffffffffffff021916908373ffffffffffffffffffffffffffffffffffffffff16021790555080600960006101000a81548173ffffffffffffffffffffffffffffffffffffffff021916908373ffffffffffffffffffffffffffffffffffffffff16021790555050505050565b60055481565b61069a33610930565b6106d9576040517f08c379a00000000000000000000000000000000000000000000000000000000081526004016106d090614847565b60405180910390fd5b600960009054906101000a900473ffffffffffffffffffffffffffffffffffffffff1673ffffffffffffffffffffffffffffffffffffffff1663757991a86040518163ffffffff1660e01b815260040160206040518083038186803b15801561074157600080fd5b505afa158015610755573d6000803e3d6000fd5b505050506040513d601f19601f820116820180604052506107799190810190613a05565b600260008381526020019081526020016000206004018190555050565b600060028310156107a957819050610916565b60006108eb6108c973__Constants_____________________________63b1cc45006040518163ffffffff1660e01b815260040160206040518083038186803b1580156107f557600080fd5b505af4158015610809573d6000803e3d6000fd5b505050506040513d601f19601f8201168201806040525061082d9190810190613a05565b6108bb73__Constants_____________________________63a86f5a3f6040518163ffffffff1660e01b815260040160206040518083038186803b15801561087457600080fd5b505af4158015610888573d6000803e3d6000fd5b505050506040513d601f19601f820116820180604052506108ac9190810190613a05565b87612a4190919063ffffffff16565b612ab190919063ffffffff16565b6108dd600187612b0d90919063ffffffff16565b612a4190919063ffffffff16565b905082811015610910576109088184612b0d90919063ffffffff16565b915050610916565b60009150505b92915050565b6000600554905090565b6000600454905090565b6000610946826000612b6390919063ffffffff16565b9050919050565b80600960009054906101000a900473ffffffffffffffffffffffffffffffffffffffff1673ffffffffffffffffffffffffffffffffffffffff1663757991a86040518163ffffffff1660e01b815260040160206040518083038186803b1580156109b657600080fd5b505afa1580156109ca573d6000803e3d6000fd5b505050506040513d601f19601f820116820180604052506109ee9190810190613a05565b8114610a2f576040517f08c379a0000000000000000000000000000000000000000000000000000000008152600401610a26906146e7565b60405180910390fd5b73__Constants_____________________________633c7a3aff6040518163ffffffff1660e01b815260040160206040518083038186803b158015610a7357600080fd5b505af4158015610a87573d6000803e3d6000fd5b505050506040513d601f19601f82011682018060405250610aab9190810190613b26565b60ff16600960009054906101000a900473ffffffffffffffffffffffffffffffffffffffff1673ffffffffffffffffffffffffffffffffffffffff16631865c57d6040518163ffffffff1660e01b815260040160206040518083038186803b158015610b1657600080fd5b505afa158015610b2a573d6000803e3d6000fd5b505050506040513d601f19601f82011682018060405250610b4e9190810190613a05565b8114610b8f576040517f08c379a0000000000000000000000000000000000000000000000000000000008152600401610b8690614807565b60405180910390fd5b6000600160003373ffffffffffffffffffffffffffffffffffffffff1673ffffffffffffffffffffffffffffffffffffffff1681526020019081526020016000205490506000600260008381526020019081526020016000209050600081600001541415610c32576040517f08c379a0000000000000000000000000000000000000000000000000000000008152600401610c2990614787565b60405180910390fd5b6000816002015411610c79576040517f08c379a0000000000000000000000000000000000000000000000000000000008152600401610c7090614647565b60405180910390fd5b84816006015411158015610c9257506000816006015414155b610cd1576040517f08c379a0000000000000000000000000000000000000000000000000000000008152600401610cc890614767565b60405180910390fd5b60008160060181905550610d6973__Constants_____________________________632628490f6040518163ffffffff1660e01b815260040160206040518083038186803b158015610d2257600080fd5b505af4158015610d36573d6000803e3d6000fd5b505050506040513d601f19601f82011682018060405250610d5a9190810190613a05565b86612c2b90919063ffffffff16565b81600701819055507f0cfbc484edc798d2584502ca0d64e7e9514b8dd091d96a2a5b4deb58478da19e85838360020154846002015442604051610db0959493929190614a77565b60405180910390a15050505050565b80600960009054906101000a900473ffffffffffffffffffffffffffffffffffffffff1673ffffffffffffffffffffffffffffffffffffffff1663757991a86040518163ffffffff1660e01b815260040160206040518083038186803b158015610e2857600080fd5b505afa158015610e3c573d6000803e3d6000fd5b505050506040513d601f19601f82011682018060405250610e609190810190613a05565b8114610ea1576040517f08c379a0000000000000000000000000000000000000000000000000000000008152600401610e98906146e7565b60405180910390fd5b73__Constants_____________________________633c7a3aff6040518163ffffffff1660e01b815260040160206040518083038186803b158015610ee557600080fd5b505af4158015610ef9573d6000803e3d6000fd5b505050506040513d601f19601f82011682018060405250610f1d9190810190613b26565b60ff16600960009054906101000a900473ffffffffffffffffffffffffffffffffffffffff1673ffffffffffffffffffffffffffffffffffffffff16631865c57d6040518163ffffffff1660e01b815260040160206040518083038186803b158015610f8857600080fd5b505afa158015610f9c573d6000803e3d6000fd5b505050506040513d601f19601f82011682018060405250610fc09190810190613a05565b8114611001576040517f08c379a0000000000000000000000000000000000000000000000000000000008152600401610ff890614807565b60405180910390fd5b6000600160003373ffffffffffffffffffffffffffffffffffffffff1673ffffffffffffffffffffffffffffffffffffffff16815260200190815260200160002054905060006002600083815260200190815260200160002090506000816000015414156110a4576040517f08c379a000000000000000000000000000000000000000000000000000000000815260040161109b90614747565b60405180910390fd5b6110b8600186612b0d90919063ffffffff16565b8160050154146110fd576040517f08c379a00000000000000000000000000000000000000000000000000000000081526004016110f490614727565b60405180910390fd5b6000816006015414611144576040517f08c379a000000000000000000000000000000000000000000000000000000000815260040161113b906147e7565b60405180910390fd5b8481600701541115801561115d57506000816007015414155b61119c576040517f08c379a0000000000000000000000000000000000000000000000000000000008152600401611193906145a7565b60405180910390fd5b6000801b600760009054906101000a900473ffffffffffffffffffffffffffffffffffffffff1673ffffffffffffffffffffffffffffffffffffffff16637164f0d687856040518363ffffffff1660e01b81526004016111fd92919061495c565b60206040518083038186803b15801561121557600080fd5b505afa158015611229573d6000803e3d6000fd5b505050506040513d601f19601f8201168201806040525061124d9190810190613922565b1461128d576040517f08c379a0000000000000000000000000000000000000000000000000000000008152600401611284906147c7565b60405180910390fd5b61133f8160405180610100016040529081600082015481526020016001820160009054906101000a900473ffffffffffffffffffffffffffffffffffffffff1673ffffffffffffffffffffffffffffffffffffffff1673ffffffffffffffffffffffffffffffffffffffff168152602001600282015481526020016003820154815260200160048201548152602001600582015481526020016006820154815260200160078201548152505086612c80565b6000816002015411611386576040517f08c379a000000000000000000000000000000000000000000000000000000000815260040161137d90614867565b60405180910390fd5b600060026000848152602001908152602001600020600201549050600060026000858152602001908152602001600020600201819055507f0a6fecee2c95fc6b4c7f291e3435a3a832bcd700c2a7ffdedd8c909d56dfa49f8684600260008781526020019081526020016000206002015460004260405161140b9594939291906149bc565b60405180910390a1600660009054906101000a900473ffffffffffffffffffffffffffffffffffffffff1673ffffffffffffffffffffffffffffffffffffffff1663a9059cbb33836040518363ffffffff1660e01b8152600401611470929190614485565b602060405180830381600087803b15801561148a57600080fd5b505af115801561149e573d6000803e3d6000fd5b505050506040513d601f19601f820116820180604052506114c291908101906138f9565b611501576040517f08c379a00000000000000000000000000000000000000000000000000000000081526004016114f8906146a7565b60405180910390fd5b505050505050565b600960009054906101000a900473ffffffffffffffffffffffffffffffffffffffff1681565b61153833610930565b611577576040517f08c379a000000000000000000000000000000000000000000000000000000000815260040161156e90614847565b60405180910390fd5b60006115a2600280600086815260200190815260200160002060020154612ab190919063ffffffff16565b90506000600260008581526020019081526020016000206002018190555060018111156116b857600660009054906101000a900473ffffffffffffffffffffffffffffffffffffffff1673ffffffffffffffffffffffffffffffffffffffff1663a9059cbb83836040518363ffffffff1660e01b81526004016116269291906144ae565b602060405180830381600087803b15801561164057600080fd5b505af1158015611654573d6000803e3d6000fd5b505050506040513d601f19601f8201168201806040525061167891908101906138f9565b6116b7576040517f08c379a00000000000000000000000000000000000000000000000000000000081526004016116ae906145e7565b60405180910390fd5b5b505050565b600760009054906101000a900473ffffffffffffffffffffffffffffffffffffffff1681565b6000600160008373ffffffffffffffffffffffffffffffffffffffff1673ffffffffffffffffffffffffffffffffffffffff168152602001908152602001600020549050919050565b60045481565b60035481565b61174133610930565b611780576040517f08c379a000000000000000000000000000000000000000000000000000000000815260040161177790614847565b60405180910390fd5b600073__Constants_____________________________630ac168a16040518163ffffffff1660e01b815260040160206040518083038186803b1580156117c657600080fd5b505af41580156117da573d6000803e3d6000fd5b505050506040513d601f19601f820116820180604052506117fe9190810190613b26565b60ff161115611a285760006118b073__Constants_____________________________630ac168a16040518163ffffffff1660e01b815260040160206040518083038186803b15801561185057600080fd5b505af4158015611864573d6000803e3d6000fd5b505050506040513d601f19601f820116820180604052506118889190810190613b26565b60ff166002600086815260200190815260200160002060020154612c2b90919063ffffffff16565b90506118f383826040518060400160405280600c81526020017f426c6f636b205265776172640000000000000000000000000000000000000000815250856132d7565b600660009054906101000a900473ffffffffffffffffffffffffffffffffffffffff1673ffffffffffffffffffffffffffffffffffffffff166340c10f193073__Constants_____________________________630ac168a16040518163ffffffff1660e01b815260040160206040518083038186803b15801561197657600080fd5b505af415801561198a573d6000803e3d6000fd5b505050506040513d601f19601f820116820180604052506119ae9190810190613b26565b6040518363ffffffff1660e01b81526004016119cb9291906144d7565b602060405180830381600087803b1580156119e557600080fd5b505af11580156119f9573d6000803e3d6000fd5b505050506040513d601f19601f82011682018060405250611a1d91908101906138f9565b611a2657600080fd5b505b5050565b81600960009054906101000a900473ffffffffffffffffffffffffffffffffffffffff1673ffffffffffffffffffffffffffffffffffffffff1663757991a86040518163ffffffff1660e01b815260040160206040518083038186803b158015611a9557600080fd5b505afa158015611aa9573d6000803e3d6000fd5b505050506040513d601f19601f82011682018060405250611acd9190810190613a05565b8114611b0e576040517f08c379a0000000000000000000000000000000000000000000000000000000008152600401611b05906146e7565b60405180910390fd5b73__Constants_____________________________633c7a3aff6040518163ffffffff1660e01b815260040160206040518083038186803b158015611b5257600080fd5b505af4158015611b66573d6000803e3d6000fd5b505050506040513d601f19601f82011682018060405250611b8a9190810190613b26565b60ff16600960009054906101000a900473ffffffffffffffffffffffffffffffffffffffff1673ffffffffffffffffffffffffffffffffffffffff16631865c57d6040518163ffffffff1660e01b815260040160206040518083038186803b158015611bf557600080fd5b505afa158015611c09573d6000803e3d6000fd5b505050506040513d601f19601f82011682018060405250611c2d9190810190613a05565b8114611c6e576040517f08c379a0000000000000000000000000000000000000000000000000000000008152600401611c6590614807565b60405180910390fd5b73__Constants_____________________________63a475b5dd6040518163ffffffff1660e01b815260040160206040518083038186803b158015611cb257600080fd5b505af4158015611cc6573d6000803e3d6000fd5b505050506040513d601f19601f82011682018060405250611cea9190810190613b26565b60ff16600960009054906101000a900473ffffffffffffffffffffffffffffffffffffffff1673ffffffffffffffffffffffffffffffffffffffff16631865c57d6040518163ffffffff1660e01b815260040160206040518083038186803b158015611d5557600080fd5b505afa158015611d69573d6000803e3d6000fd5b505050506040513d601f19601f82011682018060405250611d8d9190810190613a05565b1415611dce576040517f08c379a0000000000000000000000000000000000000000000000000000000008152600401611dc5906147a7565b60405180910390fd5b73__Constants_____________________________63375b3c0a6040518163ffffffff1660e01b815260040160206040518083038186803b158015611e1257600080fd5b505af4158015611e26573d6000803e3d6000fd5b505050506040513d601f19601f82011682018060405250611e4a9190810190613a05565b831015611e8c576040517f08c379a0000000000000000000000000000000000000000000000000000000008152600401611e8390614887565b60405180910390fd5b600660009054906101000a900473ffffffffffffffffffffffffffffffffffffffff1673ffffffffffffffffffffffffffffffffffffffff166323b872dd3330866040518463ffffffff1660e01b8152600401611eeb9392919061444e565b602060405180830381600087803b158015611f0557600080fd5b505af1158015611f19573d6000803e3d6000fd5b505050506040513d601f19601f82011682018060405250611f3d91908101906138f9565b611f7c576040517f08c379a0000000000000000000000000000000000000000000000000000000008152600401611f7390614667565b60405180910390fd5b6000600160003373ffffffffffffffffffffffffffffffffffffffff1673ffffffffffffffffffffffffffffffffffffffff168152602001908152602001600020549050600080905060008214156121bf57611fe46001600354612c2b90919063ffffffff16565b60038190555060405180610100016040528060035481526020013373ffffffffffffffffffffffffffffffffffffffff16815260200186815260200187815260200160008152602001600081526020016120c273__Constants_____________________________6326bf1c036040518163ffffffff1660e01b815260040160206040518083038186803b15801561207b57600080fd5b505af415801561208f573d6000803e3d6000fd5b505050506040513d601f19601f820116820180604052506120b39190810190613a05565b89612c2b90919063ffffffff16565b815260200160008152506002600060035481526020019081526020016000206000820151816000015560208201518160010160006101000a81548173ffffffffffffffffffffffffffffffffffffffff021916908373ffffffffffffffffffffffffffffffffffffffff16021790555060408201518160020155606082015181600301556080820151816004015560a0820151816005015560c0820151816006015560e08201518160070155905050600354915081600160003373ffffffffffffffffffffffffffffffffffffffff1673ffffffffffffffffffffffffffffffffffffffff16815260200190815260200160002081905550612275565b6000600260008481526020019081526020016000206002015411612218576040517f08c379a000000000000000000000000000000000000000000000000000000000815260040161220f90614827565b60405180910390fd5b6002600083815260200190815260200160002060020154905061225a856002600085815260200190815260200160002060020154612c2b90919063ffffffff16565b60026000848152602001908152602001600020600201819055505b7f52d3b6bf695a499d39fcdb47e3b450c09f2f6aa091ca8809cc51c00e705996cc8683836002600087815260200190815260200160002060020154426040516122c2959493929190614a77565b60405180910390a1505050505050565b6122db33610930565b61231a576040517f08c379a000000000000000000000000000000000000000000000000000000000815260040161231190614847565b60405180910390fd5b8060026000848152602001908152602001600020600501819055505050565b61234233610930565b612381576040517f08c379a000000000000000000000000000000000000000000000000000000000815260040161237890614847565b60405180910390fd5b6123d1858585858080601f016020809104026020016040519081016040528093929190818152602001838380828437600081840152601f19601f82011690508083019250505050505050846132d7565b5050505050565b6000600354905090565b6123eb33610930565b61242a576040517f08c379a000000000000000000000000000000000000000000000000000000000815260040161242190614847565b60405180910390fd5b60018111801561243c57506000600554115b156127e25760008260a0013590506060600860009054906101000a900473ffffffffffffffffffffffffffffffffffffffff1673ffffffffffffffffffffffffffffffffffffffff1663378ab9a9836040518263ffffffff1660e01b81526004016124a791906148c3565b60006040518083038186803b1580156124bf57600080fd5b505afa1580156124d3573d6000803e3d6000fd5b505050506040513d6000823e3d601f19601f820116820180604052506124fc91908101906138b8565b90506000815111156127df57600080905060008090505b825181101561271b576000600760009054906101000a900473ffffffffffffffffffffffffffffffffffffffff1673ffffffffffffffffffffffffffffffffffffffff16638ce7ff4a868960000135856040518463ffffffff1660e01b815260040161258193929190614985565b604080518083038186803b15801561259857600080fd5b505afa1580156125ac573d6000803e3d6000fd5b505050506040513d601f19601f820116820180604052506125d091908101906139b3565b60000151905060008483815181106125e457fe5b602002602001015190508073__Constants_____________________________632e7d68576040518163ffffffff1660e01b815260040160206040518083038186803b15801561263357600080fd5b505af4158015612647573d6000803e3d6000fd5b505050506040513d601f19601f8201168201806040525061266b9190810190613a05565b026064830210158061270057508073__Constants_____________________________632e7d68576040518163ffffffff1660e01b815260040160206040518083038186803b1580156126bd57600080fd5b505af41580156126d1573d6000803e3d6000fd5b505050506040513d601f19601f820116820180604052506126f59190810190613a05565b60c803026064830211155b1561270c576001840193505b50508080600101915050612513565b50600082516005540282600454886040013502028161273657fe5b04905060008111156127dc5780600554036005819055507fd9b864bf9a9cf5f60b16400a3b8d53bee1db7145545445c521beeff6ade77a28856005544260405161278293929190614985565b60405180910390a160008187604001350190506127da8760000135826040518060400160405280600e81526020017f566f74696e672052657761726473000000000000000000000000000000000000815250896132d7565b505b50505b50505b5050565b600660009054906101000a900473ffffffffffffffffffffffffffffffffffffffff1681565b60016020528060005260406000206000915090505481565b600860009054906101000a900473ffffffffffffffffffffffffffffffffffffffff1681565b61285333610930565b612892576040517f08c379a000000000000000000000000000000000000000000000000000000000815260040161288990614847565b60405180910390fd5b61289b81613355565b50565b6128a7336133af565b565b6128b1613558565b6002600083815260200190815260200160002060405180610100016040529081600082015481526020016001820160009054906101000a900473ffffffffffffffffffffffffffffffffffffffff1673ffffffffffffffffffffffffffffffffffffffff1673ffffffffffffffffffffffffffffffffffffffff16815260200160028201548152602001600382015481526020016004820154815260200160058201548152602001600682015481526020016007820154815250509050919050565b61297c33610930565b6129bb576040517f08c379a00000000000000000000000000000000000000000000000000000000081526004016129b290614847565b60405180910390fd5b6129d5828036036129cf9190810190613989565b82612c80565b5050565b60026020528060005260406000206000915090508060000154908060010160009054906101000a900473ffffffffffffffffffffffffffffffffffffffff16908060020154908060030154908060040154908060050154908060060154908060070154905088565b600080831415612a545760009050612aab565b6000828402905082848281612a6557fe5b0414612aa6576040517f08c379a0000000000000000000000000000000000000000000000000000000008152600401612a9d906146c7565b60405180910390fd5b809150505b92915050565b6000808211612af5576040517f08c379a0000000000000000000000000000000000000000000000000000000008152600401612aec90614627565b60405180910390fd5b6000828481612b0057fe5b0490508091505092915050565b600082821115612b52576040517f08c379a0000000000000000000000000000000000000000000000000000000008152600401612b4990614607565b60405180910390fd5b600082840390508091505092915050565b60008073ffffffffffffffffffffffffffffffffffffffff168273ffffffffffffffffffffffffffffffffffffffff161415612bd4576040517f08c379a0000000000000000000000000000000000000000000000000000000008152600401612bcb90614707565b60405180910390fd5b8260000160008373ffffffffffffffffffffffffffffffffffffffff1673ffffffffffffffffffffffffffffffffffffffff16815260200190815260200160002060009054906101000a900460ff16905092915050565b600080828401905083811015612c76576040517f08c379a0000000000000000000000000000000000000000000000000000000008152600401612c6d906145c7565b60405180910390fd5b8091505092915050565b60008260a001519050600182118015612c995750600081115b156132d15760008360a00151846060015110612cb9578360600151612cbf565b8360a001515b90506000612cd68285612b0d90919063ffffffff16565b905060008560400151905060008190506000612cf28484610796565b905082811015612d4557612d418860000151826040518060400160405280601281526020017f496e61637469766974792050656e616c747900000000000000000000000000008152508a6132d7565b8091505b6060600860009054906101000a900473ffffffffffffffffffffffffffffffffffffffff1673ffffffffffffffffffffffffffffffffffffffff1663378ab9a9886040518263ffffffff1660e01b8152600401612da291906148c3565b60006040518083038186803b158015612dba57600080fd5b505afa158015612dce573d6000803e3d6000fd5b505050506040513d6000823e3d601f19601f82011682018060405250612df791908101906138b8565b90506000815111156132ca57600080600090505b8251811015613168576000600760009054906101000a900473ffffffffffffffffffffffffffffffffffffffff1673ffffffffffffffffffffffffffffffffffffffff16638ce7ff4a8b8e60000151856040518463ffffffff1660e01b8152600401612e7993929190614985565b604080518083038186803b158015612e9057600080fd5b505afa158015612ea4573d6000803e3d6000fd5b505050506040513d601f19601f82011682018060405250612ec891908101906139b3565b6000015190506000848381518110612edc57fe5b60200260200101519050612efa600282612a4190919063ffffffff16565b821115612fb357612f478d6000015160006040518060400160405280600e81526020017f566f74696e672050656e616c74790000000000000000000000000000000000008152508f6132d7565b60009550612f6088600454612c2b90919063ffffffff16565b6004819055507fca2f8b10bba1b995ad8dae1673c792a2260e2cf74c8c1a89565c27b2119c63278c60045442604051612f9b93929190614985565b60405180910390a150505050505050505050506132d3565b60008211801561311f575061305f606461305173__Constants_____________________________632e7d68576040518163ffffffff1660e01b815260040160206040518083038186803b15801561300a57600080fd5b505af415801561301e573d6000803e3d6000fd5b505050506040513d601f19601f820116820180604052506130429190810190613a05565b84612a4190919063ffffffff16565b612ab190919063ffffffff16565b82108061311e575061311b606461310d6130fe73__Constants_____________________________632e7d68576040518163ffffffff1660e01b815260040160206040518083038186803b1580156130b657600080fd5b505af41580156130ca573d6000803e3d6000fd5b505050506040513d601f19601f820116820180604052506130ee9190810190613a05565b60c8612b0d90919063ffffffff16565b84612a4190919063ffffffff16565b612ab190919063ffffffff16565b82115b5b15613159578181111561314457808282036064028161313a57fe5b0484019350613158565b808183036064028161315257fe5b04840193505b5b50508080600101915050612e0b565b506000811115613266576131b06131a183516064026131938760018603612a4190919063ffffffff16565b612ab190919063ffffffff16565b85612b0d90919063ffffffff16565b92506131f78a60000151846040518060400160405280600e81526020017f566f74696e672050656e616c74790000000000000000000000000000000000008152508c6132d7565b61321e61320d8487612b0d90919063ffffffff16565b600454612c2b90919063ffffffff16565b6004819055507fca2f8b10bba1b995ad8dae1673c792a2260e2cf74c8c1a89565c27b2119c6327896004544260405161325993929190614985565b60405180910390a16132c8565b828514156132c75761328385600554612c2b90919063ffffffff16565b6005819055507fd9b864bf9a9cf5f60b16400a3b8d53bee1db7145545445c521beeff6ade77a2889600554426040516132be93929190614985565b60405180910390a15b5b505b5050505050505b505b5050565b6000600260008681526020019081526020016000206002015490508360026000878152602001908152602001600020600201819055507fab9982d99de79485b3cd6d1e72c881fd0342f42f1cbc7d220d4f373b97c4f36385828686864260405161334696959493929190614a0f565b60405180910390a15050505050565b61336981600061340990919063ffffffff16565b8073ffffffffffffffffffffffffffffffffffffffff167f6ff3aa2ea7b53070f6d9d07a445d338d89e8edef44250ffa8be19f53910d4a2e60405160405180910390a250565b6133c38160006134b190919063ffffffff16565b8073ffffffffffffffffffffffffffffffffffffffff167f86e5bbceda94081c32220d685f37cc4e3ea7bb0be2dfbf0cb703579505a5390e60405160405180910390a250565b6134138282612b63565b15613453576040517f08c379a000000000000000000000000000000000000000000000000000000000815260040161344a90614587565b60405180910390fd5b60018260000160008373ffffffffffffffffffffffffffffffffffffffff1673ffffffffffffffffffffffffffffffffffffffff16815260200190815260200160002060006101000a81548160ff0219169083151502179055505050565b6134bb8282612b63565b6134fa576040517f08c379a00000000000000000000000000000000000000000000000000000000081526004016134f190614687565b60405180910390fd5b60008260000160008373ffffffffffffffffffffffffffffffffffffffff1673ffffffffffffffffffffffffffffffffffffffff16815260200190815260200160002060006101000a81548160ff0219169083151502179055505050565b60405180610100016040528060008152602001600073ffffffffffffffffffffffffffffffffffffffff1681526020016000815260200160008152602001600081526020016000815260200160008152602001600081525090565b6000813590506135c281614cc8565b92915050565b600082601f8301126135d957600080fd5b81516135ec6135e782614af7565b614aca565b9150818183526020840193506020810190508385602084028201111561361157600080fd5b60005b8381101561364157816136278882613802565b845260208401935060208301925050600181019050613614565b5050505092915050565b60008151905061365a81614cdf565b92915050565b60008151905061366f81614cf6565b92915050565b60008083601f84011261368757600080fd5b8235905067ffffffffffffffff8111156136a057600080fd5b6020830191508360018202830111156136b857600080fd5b9250929050565b600061010082840312156136d257600080fd5b81905092915050565b600061010082840312156136ee57600080fd5b6136f9610100614aca565b90506000613709848285016137ed565b600083015250602061371d848285016135b3565b6020830152506040613731848285016137ed565b6040830152506060613745848285016137ed565b6060830152506080613759848285016137ed565b60808301525060a061376d848285016137ed565b60a08301525060c0613781848285016137ed565b60c08301525060e0613795848285016137ed565b60e08301525092915050565b6000604082840312156137b357600080fd5b6137bd6040614aca565b905060006137cd84828501613802565b60008301525060206137e184828501613802565b60208301525092915050565b6000813590506137fc81614d0d565b92915050565b60008151905061381181614d0d565b92915050565b60008151905061382681614d24565b92915050565b60006020828403121561383e57600080fd5b600061384c848285016135b3565b91505092915050565b6000806000806080858703121561386b57600080fd5b6000613879878288016135b3565b945050602061388a878288016135b3565b935050604061389b878288016135b3565b92505060606138ac878288016135b3565b91505092959194509250565b6000602082840312156138ca57600080fd5b600082015167ffffffffffffffff8111156138e457600080fd5b6138f0848285016135c8565b91505092915050565b60006020828403121561390b57600080fd5b60006139198482850161364b565b91505092915050565b60006020828403121561393457600080fd5b600061394284828501613660565b91505092915050565b600080610120838503121561395f57600080fd5b600061396d858286016136bf565b92505061010061397f858286016137ed565b9150509250929050565b6000610100828403121561399c57600080fd5b60006139aa848285016136db565b91505092915050565b6000604082840312156139c557600080fd5b60006139d3848285016137a1565b91505092915050565b6000602082840312156139ee57600080fd5b60006139fc848285016137ed565b91505092915050565b600060208284031215613a1757600080fd5b6000613a2584828501613802565b91505092915050565b60008060408385031215613a4157600080fd5b6000613a4f858286016137ed565b9250506020613a60858286016135b3565b9150509250929050565b60008060408385031215613a7d57600080fd5b6000613a8b858286016137ed565b9250506020613a9c858286016137ed565b9150509250929050565b600080600080600060808688031215613abe57600080fd5b6000613acc888289016137ed565b9550506020613add888289016137ed565b945050604086013567ffffffffffffffff811115613afa57600080fd5b613b0688828901613675565b93509350506060613b19888289016137ed565b9150509295509295909350565b600060208284031215613b3857600080fd5b6000613b4684828501613817565b91505092915050565b613b5881614b9a565b82525050565b613b6781614b3b565b82525050565b613b7681614b3b565b82525050565b613b8581614b4d565b82525050565b613b9481614bac565b82525050565b613ba381614bd0565b82525050565b613bb281614bf4565b82525050565b613bc181614c18565b82525050565b613bd081614c3c565b82525050565b6000613be182614b1f565b613beb8185614b2a565b9350613bfb818560208601614c84565b613c0481614cb7565b840191505092915050565b6000613c1c601f83614b2a565b91507f526f6c65733a206163636f756e7420616c72656164792068617320726f6c65006000830152602082019050919050565b6000613c5c601a83614b2a565b91507f57697468647261772065706f6368206e6f7420726561636865640000000000006000830152602082019050919050565b6000613c9c601b83614b2a565b91507f536166654d6174683a206164646974696f6e206f766572666c6f7700000000006000830152602082019050919050565b6000613cdc601983614b2a565b91507f6661696c656420746f207472616e7366657220626f756e7479000000000000006000830152602082019050919050565b6000613d1c601e83614b2a565b91507f536166654d6174683a207375627472616374696f6e206f766572666c6f7700006000830152602082019050919050565b6000613d5c601a83614b2a565b91507f536166654d6174683a206469766973696f6e206279207a65726f0000000000006000830152602082019050919050565b6000613d9c601183614b2a565b91507f4e6f6e706f736974697665207374616b650000000000000000000000000000006000830152602082019050919050565b6000613ddc601383614b2a565b91507f736368207472616e73666572206661696c6564000000000000000000000000006000830152602082019050919050565b6000613e1c602183614b2a565b91507f526f6c65733a206163636f756e7420646f6573206e6f74206861766520726f6c60008301527f65000000000000000000000000000000000000000000000000000000000000006020830152604082019050919050565b6000613e82601083614b2a565b91507f636f756c646e74207472616e73666572000000000000000000000000000000006000830152602082019050919050565b6000613ec2602183614b2a565b91507f536166654d6174683a206d756c7469706c69636174696f6e206f766572666c6f60008301527f77000000000000000000000000000000000000000000000000000000000000006020830152604082019050919050565b6000613f28600f83614b2a565b91507f696e636f72726563742065706f636800000000000000000000000000000000006000830152602082019050919050565b6000613f68602283614b2a565b91507f526f6c65733a206163636f756e7420697320746865207a65726f20616464726560008301527f73730000000000000000000000000000000000000000000000000000000000006020830152604082019050919050565b6000613fce601a83614b2a565b91507f4469646e742072657665616c20696e206c6173742065706f63680000000000006000830152602082019050919050565b600061400e601383614b2a565b91507f7374616b657220646f65736e74206578697374000000000000000000000000006000830152602082019050919050565b600061404e600683614b2a565b91507f6c6f636b656400000000000000000000000000000000000000000000000000006000830152602082019050919050565b600061408e600d83614b2a565b91507f7374616b65722e6964203d2030000000000000000000000000000000000000006000830152602082019050919050565b60006140ce600f83614b2a565b91507f496e636f727265637420737461746500000000000000000000000000000000006000830152602082019050919050565b600061410e602a83614b2a565b91507f616c726561647920636f6d6d6974656420746869732065706f63682e2043616e60008301527f74207769746864726177000000000000000000000000000000000000000000006020830152604082019050919050565b6000614174600f83614b2a565b91507f446964206e6f7420756e7374616b6500000000000000000000000000000000006000830152602082019050919050565b60006141b4600f83614b2a565b91507f696e636f727265637420737461746500000000000000000000000000000000006000830152602082019050919050565b60006141f4604d83614b2a565b91507f616464696e67207374616b65206973206e6f7420706f737369626c652061667460008301527f6572207769746864726177616c2f736c6173682e20506c65617365207573652060208301527f61206e65772061646472657373000000000000000000000000000000000000006040830152606082019050919050565b6000614280603083614b2a565b91507f577269746572526f6c653a2063616c6c657220646f6573206e6f74206861766560008301527f207468652057726974657220726f6c65000000000000000000000000000000006020830152604082019050919050565b60006142e6601183614b2a565b91507f4e6f6e706f736974697665205374616b650000000000000000000000000000006000830152602082019050919050565b6000614326603183614b2a565b91507f7374616b656420616d6f756e74206973206c657373207468616e206d696e696d60008301527f756d207374616b652072657175697265640000000000000000000000000000006020830152604082019050919050565b610100820160008201516143966000850182614421565b5060208201516143a96020850182613b5e565b5060408201516143bc6040850182614421565b5060608201516143cf6060850182614421565b5060808201516143e26080850182614421565b5060a08201516143f560a0850182614421565b5060c082015161440860c0850182614421565b5060e082015161441b60e0850182614421565b50505050565b61442a81614b83565b82525050565b61443981614b83565b82525050565b61444881614c72565b82525050565b60006060820190506144636000830186613b4f565b6144706020830185613b6d565b61447d6040830184614430565b949350505050565b600060408201905061449a6000830185613b4f565b6144a76020830184614430565b9392505050565b60006040820190506144c36000830185613b6d565b6144d06020830184614430565b9392505050565b60006040820190506144ec6000830185613b6d565b6144f9602083018461443f565b9392505050565b60006020820190506145156000830184613b7c565b92915050565b60006020820190506145306000830184613b8b565b92915050565b600060208201905061454b6000830184613b9a565b92915050565b60006020820190506145666000830184613ba9565b92915050565b60006020820190506145816000830184613bb8565b92915050565b600060208201905081810360008301526145a081613c0f565b9050919050565b600060208201905081810360008301526145c081613c4f565b9050919050565b600060208201905081810360008301526145e081613c8f565b9050919050565b6000602082019050818103600083015261460081613ccf565b9050919050565b6000602082019050818103600083015261462081613d0f565b9050919050565b6000602082019050818103600083015261464081613d4f565b9050919050565b6000602082019050818103600083015261466081613d8f565b9050919050565b6000602082019050818103600083015261468081613dcf565b9050919050565b600060208201905081810360008301526146a081613e0f565b9050919050565b600060208201905081810360008301526146c081613e75565b9050919050565b600060208201905081810360008301526146e081613eb5565b9050919050565b6000602082019050818103600083015261470081613f1b565b9050919050565b6000602082019050818103600083015261472081613f5b565b9050919050565b6000602082019050818103600083015261474081613fc1565b9050919050565b6000602082019050818103600083015261476081614001565b9050919050565b6000602082019050818103600083015261478081614041565b9050919050565b600060208201905081810360008301526147a081614081565b9050919050565b600060208201905081810360008301526147c0816140c1565b9050919050565b600060208201905081810360008301526147e081614101565b9050919050565b6000602082019050818103600083015261480081614167565b9050919050565b60006020820190508181036000830152614820816141a7565b9050919050565b60006020820190508181036000830152614840816141e7565b9050919050565b6000602082019050818103600083015261486081614273565b9050919050565b60006020820190508181036000830152614880816142d9565b9050919050565b600060208201905081810360008301526148a081614319565b9050919050565b6000610100820190506148bd600083018461437f565b92915050565b60006020820190506148d86000830184614430565b92915050565b6000610100820190506148f4600083018b614430565b614901602083018a613b6d565b61490e6040830189614430565b61491b6060830188614430565b6149286080830187614430565b61493560a0830186614430565b61494260c0830185614430565b61494f60e0830184614430565b9998505050505050505050565b60006040820190506149716000830185614430565b61497e6020830184614430565b9392505050565b600060608201905061499a6000830186614430565b6149a76020830185614430565b6149b46040830184614430565b949350505050565b600060a0820190506149d16000830188614430565b6149de6020830187614430565b6149eb6040830186614430565b6149f86060830185613bc7565b614a056080830184614430565b9695505050505050565b600060c082019050614a246000830189614430565b614a316020830188614430565b614a3e6040830187614430565b8181036060830152614a508186613bd6565b9050614a5f6080830185614430565b614a6c60a0830184614430565b979650505050505050565b600060a082019050614a8c6000830188614430565b614a996020830187614430565b614aa66040830186614430565b614ab36060830185614430565b614ac06080830184614430565b9695505050505050565b6000604051905081810181811067ffffffffffffffff82111715614aed57600080fd5b8060405250919050565b600067ffffffffffffffff821115614b0e57600080fd5b602082029050602081019050919050565b600081519050919050565b600082825260208201905092915050565b6000614b4682614b63565b9050919050565b60008115159050919050565b6000819050919050565b600073ffffffffffffffffffffffffffffffffffffffff82169050919050565b6000819050919050565b600060ff82169050919050565b6000614ba582614c4e565b9050919050565b6000614bb782614bbe565b9050919050565b6000614bc982614b63565b9050919050565b6000614bdb82614be2565b9050919050565b6000614bed82614b63565b9050919050565b6000614bff82614c06565b9050919050565b6000614c1182614b63565b9050919050565b6000614c2382614c2a565b9050919050565b6000614c3582614b63565b9050919050565b6000614c4782614b83565b9050919050565b6000614c5982614c60565b9050919050565b6000614c6b82614b63565b9050919050565b6000614c7d82614b8d565b9050919050565b60005b83811015614ca2578082015181840152602081019050614c87565b83811115614cb1576000848401525b50505050565b6000601f19601f8301169050919050565b614cd181614b3b565b8114614cdc57600080fd5b50565b614ce881614b4d565b8114614cf357600080fd5b50565b614cff81614b59565b8114614d0a57600080fd5b50565b614d1681614b83565b8114614d2157600080fd5b50565b614d2d81614b8d565b8114614d3857600080fd5b5056fea365627a7a72305820e8c77999a1bcca7a73616f992f4ccd941fe544510bc84ba0bf463b5f60cf5d896c6578706572696d656e74616cf564736f6c634300050a0040",
  "source": "pragma solidity 0.5.10;\npragma experimental ABIEncoderV2;\nimport \"../SimpleToken.sol\";\nimport \"./Utils.sol\";\nimport \"./WriterRole.sol\";\nimport \"./StakeStorage.sol\";\nimport \"./IStateManager.sol\";\nimport \"./IBlockManager.sol\";\nimport \"./IVoteManager.sol\";\nimport \"../lib/Constants.sol\";\nimport \"openzeppelin-solidity/contracts/math/SafeMath.sol\";\n\n/// @title StakeManager\n/// @notice StakeManager handles stake, unstake, withdraw, reward, functions\n/// for stakers\n\ncontract StakeManager is Utils, WriterRole, StakeStorage {\n    using SafeMath for uint256;\n    SimpleToken public sch;\n    IVoteManager public voteManager;\n    IBlockManager public blockManager;\n    IStateManager public stateManager;\n\n    modifier checkEpoch (uint256 epoch) {\n        require(epoch == stateManager.getEpoch(), \"incorrect epoch\");\n        _;\n    }\n\n    modifier checkState (uint256 state) {\n        require(state == stateManager.getState(), \"incorrect state\");\n        _;\n    }\n\n    /// @param _schAddress The address of the Schelling token ERC20 contract\n    /// @param _voteManagerAddress The address of the VoteManager contract\n    /// @param _blockManagerAddress The address of the BlockManager contract\n    /// @param _stateManagerAddress The address of the StateManager contract\n    /// todo disable after init\n    function init (address _schAddress, address _voteManagerAddress,\n        address _blockManagerAddress, address _stateManagerAddress) external {\n        sch = SimpleToken(_schAddress);\n        voteManager = IVoteManager(_voteManagerAddress);\n        blockManager = IBlockManager(_blockManagerAddress);\n        stateManager = IStateManager(_stateManagerAddress);\n    }\n\n    event StakeChange(uint256 stakerId, uint256 previousStake, uint256 newStake,\n                    string reason, uint256 epoch, uint256 timestamp);\n\n    event RewardPoolChange(uint256 epoch, uint256 value, uint256 timestamp);\n    event StakeGettingRewardChange(uint256 epoch, uint256 value, uint256 timestamp);\n\n    /// @param _id The ID of the staker\n    /// @param _stake The amount of schelling tokens that staker stakes\n    function setStakerStake(uint256 _id, uint256 _stake, string calldata _reason, uint256 _epoch) external onlyWriter {\n        _setStakerStake(_id, _stake, _reason, _epoch);\n    }\n\n    /// @param _id The ID of the staker\n    /// @param _epochLastRevealed The number of epoch that staker revealed asset values\n    function setStakerEpochLastRevealed(uint256 _id, uint256 _epochLastRevealed) external onlyWriter {\n        stakers[_id].epochLastRevealed = _epochLastRevealed;\n    }\n\n    /// @param stakerId The ID of the staker\n    function updateCommitmentEpoch(uint256 stakerId) external onlyWriter {\n        stakers[stakerId].epochLastCommitted = stateManager.getEpoch();\n    }\n\n    event Staked(uint256 epoch, uint256 stakerId, uint256 previousStake, uint256 newStake, uint256 timestamp);\n\n    /// @notice stake during commit state only\n    /// we check epoch during every transaction to avoid withholding and rebroadcasting attacks\n    /// @param epoch The Epoch value for which staker is requesting to stake\n    /// @param amount The amount of schelling tokens Staker stakes\n    function stake (uint256 epoch, uint256 amount) external checkEpoch(epoch) checkState(Constants.commit()) {\n        // not allowed during reveal period\n        require(stateManager.getState() != Constants.reveal(), \"Incorrect state\");\n        require(amount >= Constants.minStake(), \"staked amount is less than minimum stake required\");\n        require(sch.transferFrom(msg.sender, address(this), amount), \"sch transfer failed\");\n        uint256 stakerId = stakerIds[msg.sender];\n        uint256 previousStake = 0;\n        if (stakerId == 0) {\n            numStakers = numStakers.add(1);\n            stakers[numStakers] = Structs.Staker(numStakers, msg.sender, amount, epoch, 0, 0,\n            epoch.add(Constants.unstakeLockPeriod()), 0);\n            stakerId = numStakers;\n            stakerIds[msg.sender] = stakerId;\n        } else {\n            require(stakers[stakerId].stake > 0,\n                    \"adding stake is not possible after withdrawal/slash. Please use a new address\");\n            previousStake = stakers[stakerId].stake;\n            stakers[stakerId].stake = stakers[stakerId].stake.add(amount);\n        }\n        // totalStake = totalStake.add(amount);\n        emit Staked(epoch, stakerId, previousStake, stakers[stakerId].stake, now);\n    }\n\n    event Unstaked(uint256 epoch, uint256 stakerId, uint256 amount, uint256 newStake, uint256 timestamp);\n\n    /// @notice staker must call unstake() and continue voting for Constants.WITHDRAW_LOCK_PERIOD\n    /// after which she can call withdraw() to finally Withdraw\n    /// @param epoch The Epoch value for which staker is requesting to unstake\n    function unstake (uint256 epoch) external checkEpoch(epoch)  checkState(Constants.commit()) {\n        uint256 stakerId = stakerIds[msg.sender];\n        Structs.Staker storage staker = stakers[stakerId];\n        require(staker.id != 0, \"staker.id = 0\");\n        require(staker.stake > 0, \"Nonpositive stake\");\n        require(staker.unstakeAfter <= epoch && staker.unstakeAfter != 0, \"locked\");\n        staker.unstakeAfter = 0;\n        staker.withdrawAfter = epoch.add(Constants.withdrawLockPeriod());\n        emit Unstaked(epoch, stakerId, staker.stake, staker.stake, now);\n    }\n\n    event Withdrew(uint256 epoch, uint256 stakerId, uint256 amount, uint256 newStake, uint256 timestamp);\n\n    /// @notice Helps stakers withdraw their stake if previously unstaked\n    /// @param epoch The Epoch value for which staker is requesting a withdraw\n    function withdraw (uint256 epoch) external checkEpoch(epoch) checkState(Constants.commit()) {\n        uint256 stakerId = stakerIds[msg.sender];\n        Structs.Staker storage staker = stakers[stakerId];\n        require(staker.id != 0, \"staker doesnt exist\");\n        require(staker.epochLastRevealed == epoch.sub(1), \"Didnt reveal in last epoch\");\n        require(staker.unstakeAfter == 0, \"Did not unstake\");\n        require((staker.withdrawAfter <= epoch) && staker.withdrawAfter != 0, \"Withdraw epoch not reached\");\n        require(voteManager.getCommitment(epoch, stakerId) == 0x0, \"already commited this epoch. Cant withdraw\");\n        _givePenalties(staker, epoch);\n        require(staker.stake > 0, \"Nonpositive Stake\");\n        // SimpleToken sch = SimpleToken(schAddress);\n        // totalStake = totalStake.sub(stakers[stakerId].stake);\n        uint256 toTransfer = stakers[stakerId].stake;\n        stakers[stakerId].stake = 0;\n        emit Withdrew(epoch, stakerId, stakers[stakerId].stake, 0, now);\n        require(sch.transfer(msg.sender, toTransfer), \"couldnt transfer\");\n    }\n\n    /// @notice gives penalty to stakers for failing to reveal or\n    /// reveal value deviations\n    /// @param thisStaker The information of staker currently in consideration\n    /// @param epoch the epoch value\n    /// todo reduce complexity\n    function givePenalties (Structs.Staker calldata thisStaker, uint256 epoch) external onlyWriter {\n        _givePenalties(thisStaker, epoch);\n    }\n\n    /// @notice The function gives block reward for one valid proposer in the\n    /// previous epoch by minting new tokens from the schelling token contract\n    /// called from confirmBlock function of BlockManager contract\n    /// @param stakerId The ID of the staker\n    function giveBlockReward(uint256 stakerId, uint256 epoch) external onlyWriter {\n        if (Constants.blockReward() > 0) {\n            uint256 newStake = stakers[stakerId].stake.add(Constants.blockReward());\n            _setStakerStake(stakerId, newStake, \"Block Reward\", epoch);\n            // stakers[proposerId].stake = stakers[proposerId].stake.add(Constants.blockReward());\n            // totalStake = totalStake.add(Constants.blockReward());\n            require(sch.mint(address(this), Constants.blockReward()));\n        }\n    }\n\n    /// @notice This function is called in VoteManager reveal function to give\n    /// rewards to all the stakers who have correctly staked, committed, revealed\n    /// the Values of assets according to the razor protocol rules.\n    /// @param thisStaker The staker struct with staker info\n    /// @param epoch The epoch number for which reveal has been called\n    function giveRewards (Structs.Staker calldata thisStaker, uint256 epoch) external onlyWriter {\n        if (epoch > 1 && stakeGettingReward > 0) {\n            uint256 epochLastRevealed = thisStaker.epochLastRevealed;\n            uint256[] memory mediansLastEpoch = blockManager.getBlockMedians(epochLastRevealed);\n            // require(mediansLastEpoch.length > 0);\n            if (mediansLastEpoch.length > 0) {\n                //epoch->stakerid->assetid->vote\n                // mapping (uint256 => mapping (uint256 =>  mapping (uint256 => Structs.Vote))) public votes;\n                uint256 rewardable = 0;\n                for (uint256 i = 0; i < mediansLastEpoch.length; i++) {\n                    uint256 voteLastEpoch = voteManager.getVote(epochLastRevealed, thisStaker.id, i).value;\n                    uint256 medianLastEpoch = mediansLastEpoch[i];\n\n                    //give rewards if voted in zone\n                    if ((voteLastEpoch * 100 >= (Constants.safetyMarginLower() * medianLastEpoch) ||\n                        (voteLastEpoch * 100 <= ((200-Constants.safetyMarginLower()) * medianLastEpoch)))) {\n                        rewardable = rewardable + 1;\n                    }\n                }\n                // emit DebugUint256(rewardable);\n                // emit DebugUint256(rewardPool);\n                uint256 reward = (thisStaker.stake*rewardPool*rewardable)/\n                (stakeGettingReward*mediansLastEpoch.length);\n                if (reward > 0) {\n                    stakeGettingReward = stakeGettingReward - reward;\n                    emit StakeGettingRewardChange(epoch, stakeGettingReward, now);\n\n                    uint256 newStake = thisStaker.stake + reward;\n                    _setStakerStake(thisStaker.id, newStake, \"Voting Rewards\", epoch);\n                }\n            }\n        }\n    }\n\n    /// @notice The function is used by the Votemanager reveal function\n    /// to penalise the staker who lost his secret and make his stake zero and\n    /// transfer to bounty hunter half the schelling tokens of the stakers stake\n    /// @param id The ID of the staker who is penalised\n    /// @param bountyHunter The address of the bounty hunter\n    function slash (uint256 id, address bountyHunter) external onlyWriter {\n        // SimpleToken sch = SimpleToken(schAddress);\n        uint256 halfStake = stakers[id].stake.div(2);\n        stakers[id].stake = 0;\n        if (halfStake > 1) {\n            // totalStake = totalStake.sub(halfStake);\n            require(sch.transfer(bountyHunter, halfStake), \"failed to transfer bounty\");\n        }\n    }\n\n    /// @param _address Address of the staker\n    /// @return The staker ID\n    function getStakerId(address _address) external view returns(uint256) {\n        return(stakerIds[_address]);\n    }\n\n    /// @param _id The staker ID\n    /// @return The Struct of staker information\n    function getStaker(uint256 _id) external view returns(Structs.Staker memory staker) {\n        return(stakers[_id]);\n    }\n\n    /// @return The number of stakers in the razor network\n    function getNumStakers() external view returns(uint256) {\n        return(numStakers);\n    }\n\n    /// @return The rewardpool\n    function getRewardPool() external view returns(uint256) {\n        return(rewardPool);\n    }\n\n    /// @return The stakeGettingReward value\n    function getStakeGettingReward() external view returns(uint256) {\n        return(stakeGettingReward);\n    }\n\n    /// @notice Calculates the inactivity penalties of the staker\n    /// @param epochs The difference of epochs where the staker was inactive\n    /// @param stakeValue The Stake that staker had in last epoch\n    function calculateInactivityPenalties(uint256 epochs, uint256 stakeValue) public pure returns(uint256) {\n        if (epochs < 2) {\n            return(stakeValue);\n        }\n        // penalty =( epochs -1)*stakeValue*penNum/penDiv\n        uint256 penalty = (epochs.sub(1)).mul((stakeValue.mul(Constants.penaltyNotRevealNum())).div(\n        Constants.penaltyNotRevealDenom()));\n        if (penalty < stakeValue) {\n            return(stakeValue.sub(penalty));\n        } else {\n            return(0);\n        }\n    }\n\n    /// @notice internal function for setting stake of the staker\n    /// called in the giveRewards function\n    /// @param _id of the staker\n    /// @param _stake the amount of schelling tokens staked\n    function _setStakerStake(uint256 _id, uint256 _stake, string memory _reason, uint256 _epoch) internal {\n        uint256 previousStake = stakers[_id].stake;\n        stakers[_id].stake = _stake;\n        emit StakeChange(_id, previousStake, _stake, _reason, _epoch, now);\n    }\n\n    /// @notice The function gives out penalties to stakers during withdraw\n    /// and commit. The penalties are given for inactivity, failing to reveal\n    /// even though unstaked, deviation from the median value of particular asset\n    /// @param thisStaker The staker information\n    /// @param epoch The Epoch value in consideration\n    function _givePenalties (Structs.Staker memory thisStaker, uint256 epoch) internal {\n        uint256 epochLastRevealed = thisStaker.epochLastRevealed;\n        if (epoch > 1 && epochLastRevealed > 0) {\n            uint256 epochLastActive = thisStaker.epochStaked < thisStaker.epochLastRevealed ?\n                                    thisStaker.epochLastRevealed :\n                                    thisStaker.epochStaked;\n            // penalize or reward if last active more than epoch - 1\n            uint256 penalizeEpochs = epoch.sub(epochLastActive);\n            uint256 previousStake = thisStaker.stake;\n            uint256 currentStake = previousStake;\n            uint256 newStake = calculateInactivityPenalties(penalizeEpochs, previousStake);\n            if (newStake < previousStake) {\n                _setStakerStake(thisStaker.id, newStake, \"Inactivity Penalty\", epoch);\n                currentStake = newStake;\n            }\n\n            // return(0);\n\n            uint256[] memory mediansLastEpoch = blockManager.getBlockMedians(epochLastRevealed);\n            if (mediansLastEpoch.length > 0) {\n\n                uint256 y;\n                for (uint256 i = 0; i < mediansLastEpoch.length; i++) {\n                    uint256 voteLastEpoch = voteManager.getVote(epochLastRevealed, thisStaker.id, i).value;\n                    uint256 medianLastEpoch = mediansLastEpoch[i];\n\n                    if (voteLastEpoch > (medianLastEpoch.mul(2))) {\n                        _setStakerStake(thisStaker.id, 0, \"Voting Penalty\", epoch);\n                        newStake = 0;\n                        rewardPool = rewardPool.add(previousStake);\n                        emit RewardPoolChange(epoch, rewardPool, now);\n                        return;\n                        // return(0);\n                    } else if (voteLastEpoch > 0 &&\n                        (voteLastEpoch < (medianLastEpoch.mul(Constants.safetyMarginLower())).div(100) ||\n                        voteLastEpoch > (medianLastEpoch.mul(uint256(200).sub(\n                                        Constants.safetyMarginLower()))).div(100))) {\n\n                        if (medianLastEpoch > voteLastEpoch) {\n                            y = y + (100 * (medianLastEpoch - voteLastEpoch))/medianLastEpoch;\n                        } else {\n                            y = y + (100 * (voteLastEpoch - medianLastEpoch))/medianLastEpoch;\n                        }\n                    }\n                }\n\n                if (y > 0) {\n                    newStake = currentStake.sub(((y - 1).mul(currentStake)).div(100*mediansLastEpoch.length));\n                    _setStakerStake(thisStaker.id, newStake, \"Voting Penalty\", epoch);\n                // thisStaker.stake = previousStake.sub(((y.sub(1)).mul(previousStake)).div(10000));\n\n                    rewardPool = rewardPool.add(previousStake.sub(newStake));\n                    emit RewardPoolChange(epoch, rewardPool, now);\n                    // return(y);\n                } else if (previousStake == newStake) {\n                //no penalty. only reward??\n                    stakeGettingReward = stakeGettingReward.add(previousStake);//*(1 - y);\n                    emit StakeGettingRewardChange(epoch, stakeGettingReward, now);\n\n                }\n            }\n        }\n    }\n\n    // function stakeTransfer(uint256 fromId, address to, uint256 amount) internal{\n    //     // uint256 fromId = stakerIds[from];\n    //     require(fromId!=0);\n    //     require(stakers[fromId].stake >= amount);\n    //     uint256 toId = stakerIds[to];\n    //     stakers[fromId].stake = stakers[fromId].stake - amount;\n    //     if (toId == 0) {\n    //         numStakers = numStakers + 1;\n    //         stakers[numStakers] = Structs.Staker(numStakers, amount, 0, 0, 0);\n    //         stakerIds[to] = numStakers;\n    //     } else {\n    //         stakers[toId].stake = stakers[toId].stake + amount;\n    //     }\n    // }\n\n}\n",
  "sourcePath": "/Users/hrishi/contracts/contracts/Schelling4/StakeManager.sol",
  "compiler": {
    "name": "solc",
    "version": "0.5.10+commit.5a6ea5b1.Emscripten.clang"
  },
  "schemaVersion": "3.0.11",
  "updatedAt": "2019-09-23T11:43:40.316Z",
  "devdoc": {
    "methods": {
      "calculateInactivityPenalties(uint256,uint256)": {
        "params": {
          "epochs": "The difference of epochs where the staker was inactive",
          "stakeValue": "The Stake that staker had in last epoch"
        }
      },
      "getNumStakers()": {
        "return": "The number of stakers in the razor network"
      },
      "getRewardPool()": {
        "return": "The rewardpool"
      },
      "getStakeGettingReward()": {
        "return": "The stakeGettingReward value"
      },
      "getStaker(uint256)": {
        "params": {
          "_id": "The staker ID"
        },
        "return": "The Struct of staker information"
      },
      "getStakerId(address)": {
        "params": {
          "_address": "Address of the staker"
        },
        "return": "The staker ID"
      },
      "giveBlockReward(uint256,uint256)": {
        "params": {
          "stakerId": "The ID of the staker"
        }
      },
      "givePenalties((uint256,address,uint256,uint256,uint256,uint256,uint256,uint256),uint256)": {
        "params": {
          "epoch": "the epoch value todo reduce complexity",
          "thisStaker": "The information of staker currently in consideration"
        }
      },
      "giveRewards((uint256,address,uint256,uint256,uint256,uint256,uint256,uint256),uint256)": {
        "params": {
          "epoch": "The epoch number for which reveal has been called",
          "thisStaker": "The staker struct with staker info"
        }
      },
      "init(address,address,address,address)": {
        "params": {
          "_blockManagerAddress": "The address of the BlockManager contract",
          "_schAddress": "The address of the Schelling token ERC20 contract",
          "_stateManagerAddress": "The address of the StateManager contract todo disable after init",
          "_voteManagerAddress": "The address of the VoteManager contract"
        }
      },
      "setStakerEpochLastRevealed(uint256,uint256)": {
        "params": {
          "_epochLastRevealed": "The number of epoch that staker revealed asset values",
          "_id": "The ID of the staker"
        }
      },
      "setStakerStake(uint256,uint256,string,uint256)": {
        "params": {
          "_id": "The ID of the staker",
          "_stake": "The amount of schelling tokens that staker stakes"
        }
      },
      "slash(uint256,address)": {
        "params": {
          "bountyHunter": "The address of the bounty hunter",
          "id": "The ID of the staker who is penalised"
        }
      },
      "stake(uint256,uint256)": {
        "params": {
          "amount": "The amount of schelling tokens Staker stakes",
          "epoch": "The Epoch value for which staker is requesting to stake"
        }
      },
      "unstake(uint256)": {
        "params": {
          "epoch": "The Epoch value for which staker is requesting to unstake"
        }
      },
      "updateCommitmentEpoch(uint256)": {
        "params": {
          "stakerId": "The ID of the staker"
        }
      },
      "withdraw(uint256)": {
        "params": {
          "epoch": "The Epoch value for which staker is requesting a withdraw"
        }
      }
    },
    "title": "StakeManager"
  },
  "userdoc": {
    "methods": {
      "calculateInactivityPenalties(uint256,uint256)": {
        "notice": "Calculates the inactivity penalties of the staker"
      },
      "giveBlockReward(uint256,uint256)": {
        "notice": "The function gives block reward for one valid proposer in the previous epoch by minting new tokens from the schelling token contract called from confirmBlock function of BlockManager contract"
      },
      "givePenalties((uint256,address,uint256,uint256,uint256,uint256,uint256,uint256),uint256)": {
        "notice": "gives penalty to stakers for failing to reveal or reveal value deviations"
      },
      "giveRewards((uint256,address,uint256,uint256,uint256,uint256,uint256,uint256),uint256)": {
        "notice": "This function is called in VoteManager reveal function to give rewards to all the stakers who have correctly staked, committed, revealed the Values of assets according to the razor protocol rules."
      },
      "slash(uint256,address)": {
        "notice": "The function is used by the Votemanager reveal function to penalise the staker who lost his secret and make his stake zero and transfer to bounty hunter half the schelling tokens of the stakers stake"
      },
      "stake(uint256,uint256)": {
        "notice": "stake during commit state only we check epoch during every transaction to avoid withholding and rebroadcasting attacks"
      },
      "unstake(uint256)": {
        "notice": "staker must call unstake() and continue voting for Constants.WITHDRAW_LOCK_PERIOD after which she can call withdraw() to finally Withdraw"
      },
      "withdraw(uint256)": {
        "notice": "Helps stakers withdraw their stake if previously unstaked"
      }
    },
    "notice": "StakeManager handles stake, unstake, withdraw, reward, functions for stakers"
  }
}