{
  "contractName": "StakeStorage",
  "abi": [
    {
      "inputs": [],
      "name": "genesisBlock",
      "outputs": [
        {
          "internalType": "uint256",
          "name": "",
          "type": "uint256"
        }
      ],
      "stateMutability": "view",
      "type": "function"
    },
    {
      "inputs": [],
      "name": "lastBlockRewards",
      "outputs": [
        {
          "internalType": "uint256",
          "name": "",
          "type": "uint256"
        }
      ],
      "stateMutability": "view",
      "type": "function"
    },
    {
      "inputs": [],
      "name": "lastHalvings",
      "outputs": [
        {
          "internalType": "uint256",
          "name": "",
          "type": "uint256"
        }
      ],
      "stateMutability": "view",
      "type": "function"
    },
    {
      "inputs": [],
      "name": "numStakers",
      "outputs": [
        {
          "internalType": "uint256",
          "name": "",
          "type": "uint256"
        }
      ],
      "stateMutability": "view",
      "type": "function"
    },
    {
      "inputs": [],
      "name": "rewardPool",
      "outputs": [
        {
          "internalType": "uint256",
          "name": "",
          "type": "uint256"
        }
      ],
      "stateMutability": "view",
      "type": "function"
    },
    {
      "inputs": [],
      "name": "stakeGettingReward",
      "outputs": [
        {
          "internalType": "uint256",
          "name": "",
          "type": "uint256"
        }
      ],
      "stateMutability": "view",
      "type": "function"
    },
    {
      "inputs": [
        {
          "internalType": "address",
          "name": "",
          "type": "address"
        }
      ],
      "name": "stakerIds",
      "outputs": [
        {
          "internalType": "uint256",
          "name": "",
          "type": "uint256"
        }
      ],
      "stateMutability": "view",
      "type": "function"
    },
    {
      "inputs": [
        {
          "internalType": "uint256",
          "name": "",
          "type": "uint256"
        }
      ],
      "name": "stakers",
      "outputs": [
        {
          "internalType": "uint256",
          "name": "id",
          "type": "uint256"
        },
        {
          "internalType": "address",
          "name": "_address",
          "type": "address"
        },
        {
          "internalType": "uint256",
          "name": "stake",
          "type": "uint256"
        },
        {
          "internalType": "uint256",
          "name": "epochStaked",
          "type": "uint256"
        },
        {
          "internalType": "uint256",
          "name": "epochLastCommitted",
          "type": "uint256"
        },
        {
          "internalType": "uint256",
          "name": "epochLastRevealed",
          "type": "uint256"
        },
        {
          "internalType": "uint256",
          "name": "unstakeAfter",
          "type": "uint256"
        },
        {
          "internalType": "uint256",
          "name": "withdrawAfter",
          "type": "uint256"
        }
      ],
      "stateMutability": "view",
      "type": "function"
    }
  ],
  "bytecode": "0x608060405260006005556000600655600060075534801561001f57600080fd5b506102148061002f6000396000f3fe608060405234801561001057600080fd5b50600436106100885760003560e01c80636c8b052a1161005b5780636c8b052a146100bf578063a8264f99146100c7578063c8ae0d7d146100cf578063fd5e6dd1146100f557610088565b80630ec88d3f1461008d5780632f594949146100a75780634cdc9c63146100af57806366666aa9146100b7575b600080fd5b61009561015b565b60408051918252519081900360200190f35b610095610161565b610095610167565b61009561016d565b610095610173565b610095610179565b610095600480360360208110156100e557600080fd5b50356001600160a01b031661017f565b6101126004803603602081101561010b57600080fd5b5035610191565b604080519889526001600160a01b039097166020890152878701959095526060870193909352608086019190915260a085015260c084015260e083015251908190036101000190f35b60075481565b60025481565b60005481565b60065481565b60055481565b60015481565b60036020526000908152604090205481565b60046020819052600091825260409091208054600182015460028301546003840154948401546005850154600686015460079096015494966001600160a01b03909416959294919290918856fea26469706673582212204a6dac3180dd8ca05281b0246b3a4f40578b943c8d4bb6a57bf3bb306d1bdb3a64736f6c634300060b0033",
  "immutableReferences": {},
  "source": "pragma solidity 0.6.11;\nimport \"../lib/Structs.sol\";\n\n\ncontract StakeStorage {\n\n    uint256 public genesisBlock;\n    uint256 public lastHalvings;\n    uint256 public lastBlockRewards;\n\n    // Constants public constants;\n    mapping (address => uint256) public stakerIds;\n    mapping (uint256 => Structs.Staker) public stakers;\n    uint256 public numStakers = 0;\n    // SchellingCoin public sch;\n    uint256 public rewardPool = 0;\n    uint256 public stakeGettingReward = 0;\n}\n",
  "sourcePath": "/Users/skanda/Projects/contracts/contracts/Core/StakeStorage.sol",
  "compiler": {
    "name": "solc",
    "version": "0.6.11+commit.5ef660b1.Emscripten.clang"
  },
  "schemaVersion": "3.3.4",
  "updatedAt": "2021-04-04T21:06:03.466Z",
  "devdoc": {
    "kind": "dev",
    "methods": {},
    "version": 1
  },
  "userdoc": {
    "kind": "user",
    "methods": {},
    "version": 1
  }
}