{
  "contractName": "StakeManager",
  "abi": [
    {
      "constant": true,
      "inputs": [],
      "name": "stakeGettingReward",
      "outputs": [
        {
          "name": "",
          "type": "uint256"
        }
      ],
      "payable": false,
      "stateMutability": "view",
      "type": "function"
    },
    {
      "constant": true,
      "inputs": [
        {
          "name": "account",
          "type": "address"
        }
      ],
      "name": "isWriter",
      "outputs": [
        {
          "name": "",
          "type": "bool"
        }
      ],
      "payable": false,
      "stateMutability": "view",
      "type": "function"
    },
    {
      "constant": true,
      "inputs": [],
      "name": "stateManager",
      "outputs": [
        {
          "name": "",
          "type": "address"
        }
      ],
      "payable": false,
      "stateMutability": "view",
      "type": "function"
    },
    {
      "constant": true,
      "inputs": [],
      "name": "voteManager",
      "outputs": [
        {
          "name": "",
          "type": "address"
        }
      ],
      "payable": false,
      "stateMutability": "view",
      "type": "function"
    },
    {
      "constant": true,
      "inputs": [],
      "name": "rewardPool",
      "outputs": [
        {
          "name": "",
          "type": "uint256"
        }
      ],
      "payable": false,
      "stateMutability": "view",
      "type": "function"
    },
    {
      "constant": true,
      "inputs": [],
      "name": "numStakers",
      "outputs": [
        {
          "name": "",
          "type": "uint256"
        }
      ],
      "payable": false,
      "stateMutability": "view",
      "type": "function"
    },
    {
      "constant": true,
      "inputs": [],
      "name": "sch",
      "outputs": [
        {
          "name": "",
          "type": "address"
        }
      ],
      "payable": false,
      "stateMutability": "view",
      "type": "function"
    },
    {
      "constant": true,
      "inputs": [
        {
          "name": "",
          "type": "address"
        }
      ],
      "name": "stakerIds",
      "outputs": [
        {
          "name": "",
          "type": "uint256"
        }
      ],
      "payable": false,
      "stateMutability": "view",
      "type": "function"
    },
    {
      "constant": true,
      "inputs": [],
      "name": "blockManager",
      "outputs": [
        {
          "name": "",
          "type": "address"
        }
      ],
      "payable": false,
      "stateMutability": "view",
      "type": "function"
    },
    {
      "constant": false,
      "inputs": [
        {
          "name": "account",
          "type": "address"
        }
      ],
      "name": "addWriter",
      "outputs": [],
      "payable": false,
      "stateMutability": "nonpayable",
      "type": "function"
    },
    {
      "constant": false,
      "inputs": [],
      "name": "renounceWriter",
      "outputs": [],
      "payable": false,
      "stateMutability": "nonpayable",
      "type": "function"
    },
    {
      "constant": true,
      "inputs": [
        {
          "name": "",
          "type": "uint256"
        }
      ],
      "name": "stakers",
      "outputs": [
        {
          "name": "id",
          "type": "uint256"
        },
        {
          "name": "stake",
          "type": "uint256"
        },
        {
          "name": "epochStaked",
          "type": "uint256"
        },
        {
          "name": "epochLastCommitted",
          "type": "uint256"
        },
        {
          "name": "epochLastRevealed",
          "type": "uint256"
        },
        {
          "name": "unstakeAfter",
          "type": "uint256"
        },
        {
          "name": "withdrawAfter",
          "type": "uint256"
        }
      ],
      "payable": false,
      "stateMutability": "view",
      "type": "function"
    },
    {
      "anonymous": false,
      "inputs": [
        {
          "indexed": false,
          "name": "stakerId",
          "type": "uint256"
        },
        {
          "indexed": false,
          "name": "amount",
          "type": "uint256"
        }
      ],
      "name": "Staked",
      "type": "event"
    },
    {
      "anonymous": false,
      "inputs": [
        {
          "indexed": false,
          "name": "stakerId",
          "type": "uint256"
        }
      ],
      "name": "Unstaked",
      "type": "event"
    },
    {
      "anonymous": false,
      "inputs": [
        {
          "indexed": false,
          "name": "stakerId",
          "type": "uint256"
        },
        {
          "indexed": false,
          "name": "amount",
          "type": "uint256"
        }
      ],
      "name": "Withdrew",
      "type": "event"
    },
    {
      "anonymous": false,
      "inputs": [
        {
          "indexed": true,
          "name": "account",
          "type": "address"
        }
      ],
      "name": "WriterAdded",
      "type": "event"
    },
    {
      "anonymous": false,
      "inputs": [
        {
          "indexed": true,
          "name": "account",
          "type": "address"
        }
      ],
      "name": "WriterRemoved",
      "type": "event"
    },
    {
      "anonymous": false,
      "inputs": [
        {
          "indexed": false,
          "name": "a",
          "type": "uint256"
        }
      ],
      "name": "DebugUint256",
      "type": "event"
    },
    {
      "constant": false,
      "inputs": [
        {
          "name": "_schAddress",
          "type": "address"
        },
        {
          "name": "_voteManagerAddress",
          "type": "address"
        },
        {
          "name": "_blockManagerAddress",
          "type": "address"
        },
        {
          "name": "_stateManagerAddress",
          "type": "address"
        }
      ],
      "name": "init",
      "outputs": [],
      "payable": false,
      "stateMutability": "nonpayable",
      "type": "function"
    },
    {
      "constant": false,
      "inputs": [
        {
          "name": "_id",
          "type": "uint256"
        },
        {
          "name": "_stake",
          "type": "uint256"
        }
      ],
      "name": "setStakerStake",
      "outputs": [],
      "payable": false,
      "stateMutability": "nonpayable",
      "type": "function"
    },
    {
      "constant": false,
      "inputs": [
        {
          "name": "_id",
          "type": "uint256"
        },
        {
          "name": "_epochLastRevealed",
          "type": "uint256"
        }
      ],
      "name": "setStakerEpochLastRevealed",
      "outputs": [],
      "payable": false,
      "stateMutability": "nonpayable",
      "type": "function"
    },
    {
      "constant": false,
      "inputs": [
        {
          "name": "stakerId",
          "type": "uint256"
        }
      ],
      "name": "updateCommitmentEpoch",
      "outputs": [],
      "payable": false,
      "stateMutability": "nonpayable",
      "type": "function"
    },
    {
      "constant": false,
      "inputs": [
        {
          "name": "epoch",
          "type": "uint256"
        },
        {
          "name": "amount",
          "type": "uint256"
        }
      ],
      "name": "stake",
      "outputs": [],
      "payable": false,
      "stateMutability": "nonpayable",
      "type": "function"
    },
    {
      "constant": false,
      "inputs": [
        {
          "name": "epoch",
          "type": "uint256"
        }
      ],
      "name": "unstake",
      "outputs": [],
      "payable": false,
      "stateMutability": "nonpayable",
      "type": "function"
    },
    {
      "constant": false,
      "inputs": [
        {
          "name": "epoch",
          "type": "uint256"
        }
      ],
      "name": "withdraw",
      "outputs": [],
      "payable": false,
      "stateMutability": "nonpayable",
      "type": "function"
    },
    {
      "constant": false,
      "inputs": [
        {
          "components": [
            {
              "name": "id",
              "type": "uint256"
            },
            {
              "name": "stake",
              "type": "uint256"
            },
            {
              "name": "epochStaked",
              "type": "uint256"
            },
            {
              "name": "epochLastCommitted",
              "type": "uint256"
            },
            {
              "name": "epochLastRevealed",
              "type": "uint256"
            },
            {
              "name": "unstakeAfter",
              "type": "uint256"
            },
            {
              "name": "withdrawAfter",
              "type": "uint256"
            }
          ],
          "name": "thisStaker",
          "type": "tuple"
        },
        {
          "name": "epoch",
          "type": "uint256"
        }
      ],
      "name": "givePenalties",
      "outputs": [],
      "payable": false,
      "stateMutability": "nonpayable",
      "type": "function"
    },
    {
      "constant": false,
      "inputs": [
        {
          "components": [
            {
              "name": "id",
              "type": "uint256"
            },
            {
              "name": "stake",
              "type": "uint256"
            },
            {
              "name": "epochStaked",
              "type": "uint256"
            },
            {
              "name": "epochLastCommitted",
              "type": "uint256"
            },
            {
              "name": "epochLastRevealed",
              "type": "uint256"
            },
            {
              "name": "unstakeAfter",
              "type": "uint256"
            },
            {
              "name": "withdrawAfter",
              "type": "uint256"
            }
          ],
          "name": "thisStaker",
          "type": "tuple"
        },
        {
          "name": "epoch",
          "type": "uint256"
        }
      ],
      "name": "giveRewards",
      "outputs": [],
      "payable": false,
      "stateMutability": "nonpayable",
      "type": "function"
    },
    {
      "constant": false,
      "inputs": [
        {
          "name": "id",
          "type": "uint256"
        },
        {
          "name": "bountyHunter",
          "type": "address"
        }
      ],
      "name": "slash",
      "outputs": [],
      "payable": false,
      "stateMutability": "nonpayable",
      "type": "function"
    },
    {
      "constant": true,
      "inputs": [
        {
          "name": "_address",
          "type": "address"
        }
      ],
      "name": "getStakerId",
      "outputs": [
        {
          "name": "",
          "type": "uint256"
        }
      ],
      "payable": false,
      "stateMutability": "view",
      "type": "function"
    },
    {
      "constant": true,
      "inputs": [
        {
          "name": "_id",
          "type": "uint256"
        }
      ],
      "name": "getStaker",
      "outputs": [
        {
          "components": [
            {
              "name": "id",
              "type": "uint256"
            },
            {
              "name": "stake",
              "type": "uint256"
            },
            {
              "name": "epochStaked",
              "type": "uint256"
            },
            {
              "name": "epochLastCommitted",
              "type": "uint256"
            },
            {
              "name": "epochLastRevealed",
              "type": "uint256"
            },
            {
              "name": "unstakeAfter",
              "type": "uint256"
            },
            {
              "name": "withdrawAfter",
              "type": "uint256"
            }
          ],
          "name": "staker",
          "type": "tuple"
        }
      ],
      "payable": false,
      "stateMutability": "view",
      "type": "function"
    },
    {
      "constant": true,
      "inputs": [],
      "name": "getNumStakers",
      "outputs": [
        {
          "name": "",
          "type": "uint256"
        }
      ],
      "payable": false,
      "stateMutability": "view",
      "type": "function"
    },
    {
      "constant": true,
      "inputs": [],
      "name": "getRewardPool",
      "outputs": [
        {
          "name": "",
          "type": "uint256"
        }
      ],
      "payable": false,
      "stateMutability": "view",
      "type": "function"
    },
    {
      "constant": true,
      "inputs": [],
      "name": "getStakeGettingReward",
      "outputs": [
        {
          "name": "",
          "type": "uint256"
        }
      ],
      "payable": false,
      "stateMutability": "view",
      "type": "function"
    },
    {
      "constant": true,
      "inputs": [
        {
          "name": "epochs",
          "type": "uint256"
        },
        {
          "name": "stakeValue",
          "type": "uint256"
        }
      ],
      "name": "calculateInactivityPenalties",
      "outputs": [
        {
          "name": "",
          "type": "uint256"
        }
      ],
      "payable": false,
      "stateMutability": "pure",
      "type": "function"
    }
  ],
  "bytecode": "0x608060405260006003556000600455600060055562000024336200002a60201b60201c565b62000308565b620000458160006200008b60201b62002ba11790919060201c565b8073ffffffffffffffffffffffffffffffffffffffff167f6ff3aa2ea7b53070f6d9d07a445d338d89e8edef44250ffa8be19f53910d4a2e60405160405180910390a250565b6200009d82826200013e60201b60201c565b15620000e0576040517f08c379a0000000000000000000000000000000000000000000000000000000008152600401620000d790620002b3565b60405180910390fd5b60018260000160008373ffffffffffffffffffffffffffffffffffffffff1673ffffffffffffffffffffffffffffffffffffffff16815260200190815260200160002060006101000a81548160ff0219169083151502179055505050565b60008073ffffffffffffffffffffffffffffffffffffffff168273ffffffffffffffffffffffffffffffffffffffff161415620001b2576040517f08c379a0000000000000000000000000000000000000000000000000000000008152600401620001a990620002d5565b60405180910390fd5b8260000160008373ffffffffffffffffffffffffffffffffffffffff1673ffffffffffffffffffffffffffffffffffffffff16815260200190815260200160002060009054906101000a900460ff16905092915050565b600062000218601f83620002f7565b91507f526f6c65733a206163636f756e7420616c72656164792068617320726f6c65006000830152602082019050919050565b60006200025a602283620002f7565b91507f526f6c65733a206163636f756e7420697320746865207a65726f20616464726560008301527f73730000000000000000000000000000000000000000000000000000000000006020830152604082019050919050565b60006020820190508181036000830152620002ce8162000209565b9050919050565b60006020820190508181036000830152620002f0816200024b565b9050919050565b600082825260208201905092915050565b6141e180620003186000396000f3fe608060405234801561001057600080fd5b50600436106101c45760003560e01c80636022a485116100f9578063c8ae0d7d11610097578063df4eb59c11610071578063df4eb59c146104cd578063e3c998fe146104d7578063ed5c78b114610507578063fd5e6dd114610523576101c4565b8063c8ae0d7d14610463578063d9169b3214610493578063da2824a8146104b1576101c4565b80637b0472f0116100d35780637b0472f0146103ef5780639864f70a1461040b578063bc788d4614610427578063c584bb9f14610445576101c4565b80636022a4851461038357806366666aa9146103b35780636c8b052a146103d1576101c4565b80632b29ba23116101665780632e716fb1116101405780632e716fb11461030f5780633d82e3c11461032d57806342c1e5871461034957806354ca1b7a14610367576101c4565b80632b29ba23146102a75780632e17de78146102d75780632e1a7d4d146102f3576101c4565b8063188dc83b116101a2578063188dc83b1461021f5780631a69f0081461023b5780631ad549911461026b5780631b8b13a714610289576101c4565b806306552ff3146101c95780630ec88d3f146101e55780630f98eb6014610203575b600080fd5b6101e360048036036101de9190810190612f6e565b610559565b005b6101ed610663565b6040516101fa9190613eb6565b60405180910390f35b61021d60048036036102189190810190613064565b610669565b005b610239600480360361023491908101906130f3565b6106cf565b005b61025560048036036102509190810190613181565b6107d4565b6040516102629190613eb6565b60405180910390f35b61027361095a565b6040516102809190613eb6565b60405180910390f35b610291610964565b60405161029e9190613eb6565b60405180910390f35b6102c160048036036102bc9190810190612f45565b61096e565b6040516102ce9190613af4565b60405180910390f35b6102f160048036036102ec91908101906130f3565b61098b565b005b61030d600480360361030891908101906130f3565b610ded565b005b6103176114d9565b6040516103249190613b2a565b60405180910390f35b61034760048036036103429190810190613145565b6114ff565b005b61035161168d565b60405161035e9190613b45565b60405180910390f35b610381600480360361037c9190810190613064565b6116b3565b005b61039d60048036036103989190810190612f45565b611934565b6040516103aa9190613eb6565b60405180910390f35b6103bb61197d565b6040516103c89190613eb6565b60405180910390f35b6103d9611983565b6040516103e69190613eb6565b60405180910390f35b61040960048036036104049190810190613181565b611989565b005b61042560048036036104209190810190613181565b612190565b005b61042f6121f7565b60405161043c9190613eb6565b60405180910390f35b61044d612201565b60405161045a9190613b60565b60405180910390f35b61047d60048036036104789190810190612f45565b612227565b60405161048a9190613eb6565b60405180910390f35b61049b61223f565b6040516104a89190613b0f565b60405180910390f35b6104cb60048036036104c69190810190612f45565b612265565b005b6104d56122b9565b005b6104f160048036036104ec91908101906130f3565b6122c4565b6040516104fe9190613e9b565b60405180910390f35b610521600480360361051c9190810190613181565b612337565b005b61053d600480360361053891908101906130f3565b61238d565b6040516105509796959493929190613f31565b60405180910390f35b83600660006101000a81548173ffffffffffffffffffffffffffffffffffffffff021916908373ffffffffffffffffffffffffffffffffffffffff16021790555082600760006101000a81548173ffffffffffffffffffffffffffffffffffffffff021916908373ffffffffffffffffffffffffffffffffffffffff16021790555081600860006101000a81548173ffffffffffffffffffffffffffffffffffffffff021916908373ffffffffffffffffffffffffffffffffffffffff16021790555080600960006101000a81548173ffffffffffffffffffffffffffffffffffffffff021916908373ffffffffffffffffffffffffffffffffffffffff16021790555050505050565b60055481565b6106723361096e565b6106b1576040517f08c379a00000000000000000000000000000000000000000000000000000000081526004016106a890613e3b565b60405180910390fd5b6106cb828036036106c591908101906130a1565b826123cf565b5050565b6106d83361096e565b610717576040517f08c379a000000000000000000000000000000000000000000000000000000000815260040161070e90613e3b565b60405180910390fd5b600960009054906101000a900473ffffffffffffffffffffffffffffffffffffffff1673ffffffffffffffffffffffffffffffffffffffff1663757991a86040518163ffffffff1660e01b815260040160206040518083038186803b15801561077f57600080fd5b505afa158015610793573d6000803e3d6000fd5b505050506040513d601f19601f820116820180604052506107b7919081019061311c565b600260008381526020019081526020016000206003018190555050565b600060028310156107e757819050610954565b600061092961090773__Constants_____________________________63b1cc45006040518163ffffffff1660e01b815260040160206040518083038186803b15801561083357600080fd5b505af4158015610847573d6000803e3d6000fd5b505050506040513d601f19601f8201168201806040525061086b919081019061311c565b6108f973__Constants_____________________________63a86f5a3f6040518163ffffffff1660e01b815260040160206040518083038186803b1580156108b257600080fd5b505af41580156108c6573d6000803e3d6000fd5b505050506040513d601f19601f820116820180604052506108ea919081019061311c565b8761288f90919063ffffffff16565b6128ff90919063ffffffff16565b61091b60018761295b90919063ffffffff16565b61288f90919063ffffffff16565b90508281101561094e57610946818461295b90919063ffffffff16565b915050610954565b60009150505b92915050565b6000600554905090565b6000600454905090565b60006109848260006129b190919063ffffffff16565b9050919050565b80600960009054906101000a900473ffffffffffffffffffffffffffffffffffffffff1673ffffffffffffffffffffffffffffffffffffffff1663757991a86040518163ffffffff1660e01b815260040160206040518083038186803b1580156109f457600080fd5b505afa158015610a08573d6000803e3d6000fd5b505050506040513d601f19601f82011682018060405250610a2c919081019061311c565b8114610a6d576040517f08c379a0000000000000000000000000000000000000000000000000000000008152600401610a6490613cdb565b60405180910390fd5b73__Constants_____________________________633c7a3aff6040518163ffffffff1660e01b815260040160206040518083038186803b158015610ab157600080fd5b505af4158015610ac5573d6000803e3d6000fd5b505050506040513d601f19601f82011682018060405250610ae991908101906131bd565b60ff16600960009054906101000a900473ffffffffffffffffffffffffffffffffffffffff1673ffffffffffffffffffffffffffffffffffffffff16631865c57d6040518163ffffffff1660e01b815260040160206040518083038186803b158015610b5457600080fd5b505afa158015610b68573d6000803e3d6000fd5b505050506040513d601f19601f82011682018060405250610b8c919081019061311c565b8114610bcd576040517f08c379a0000000000000000000000000000000000000000000000000000000008152600401610bc490613dfb565b60405180910390fd5b6000600160003373ffffffffffffffffffffffffffffffffffffffff1673ffffffffffffffffffffffffffffffffffffffff1681526020019081526020016000205490506000600260008381526020019081526020016000209050600081600001541415610c70576040517f08c379a0000000000000000000000000000000000000000000000000000000008152600401610c6790613d7b565b60405180910390fd5b6000816001015411610cb7576040517f08c379a0000000000000000000000000000000000000000000000000000000008152600401610cae90613c3b565b60405180910390fd5b84816005015411158015610cd057506000816005015414155b610d0f576040517f08c379a0000000000000000000000000000000000000000000000000000000008152600401610d0690613d5b565b60405180910390fd5b60008160050181905550610da773__Constants_____________________________632628490f6040518163ffffffff1660e01b815260040160206040518083038186803b158015610d6057600080fd5b505af4158015610d74573d6000803e3d6000fd5b505050506040513d601f19601f82011682018060405250610d98919081019061311c565b86612a7990919063ffffffff16565b81600601819055507f11725367022c3ff288940f4b5473aa61c2da6a24af7363a1128ee2401e8983b282604051610dde9190613eb6565b60405180910390a15050505050565b80600960009054906101000a900473ffffffffffffffffffffffffffffffffffffffff1673ffffffffffffffffffffffffffffffffffffffff1663757991a86040518163ffffffff1660e01b815260040160206040518083038186803b158015610e5657600080fd5b505afa158015610e6a573d6000803e3d6000fd5b505050506040513d601f19601f82011682018060405250610e8e919081019061311c565b8114610ecf576040517f08c379a0000000000000000000000000000000000000000000000000000000008152600401610ec690613cdb565b60405180910390fd5b73__Constants_____________________________633c7a3aff6040518163ffffffff1660e01b815260040160206040518083038186803b158015610f1357600080fd5b505af4158015610f27573d6000803e3d6000fd5b505050506040513d601f19601f82011682018060405250610f4b91908101906131bd565b60ff16600960009054906101000a900473ffffffffffffffffffffffffffffffffffffffff1673ffffffffffffffffffffffffffffffffffffffff16631865c57d6040518163ffffffff1660e01b815260040160206040518083038186803b158015610fb657600080fd5b505afa158015610fca573d6000803e3d6000fd5b505050506040513d601f19601f82011682018060405250610fee919081019061311c565b811461102f576040517f08c379a000000000000000000000000000000000000000000000000000000000815260040161102690613dfb565b60405180910390fd5b6000600160003373ffffffffffffffffffffffffffffffffffffffff1673ffffffffffffffffffffffffffffffffffffffff16815260200190815260200160002054905060006002600083815260200190815260200160002090506000816000015414156110d2576040517f08c379a00000000000000000000000000000000000000000000000000000000081526004016110c990613d3b565b60405180910390fd5b6110e660018661295b90919063ffffffff16565b81600401541461112b576040517f08c379a000000000000000000000000000000000000000000000000000000000815260040161112290613d1b565b60405180910390fd5b6000816005015414611172576040517f08c379a000000000000000000000000000000000000000000000000000000000815260040161116990613ddb565b60405180910390fd5b8481600601541115801561118b57506000816006015414155b6111ca576040517f08c379a00000000000000000000000000000000000000000000000000000000081526004016111c190613b9b565b60405180910390fd5b6000801b600760009054906101000a900473ffffffffffffffffffffffffffffffffffffffff1673ffffffffffffffffffffffffffffffffffffffff16637164f0d687856040518363ffffffff1660e01b815260040161122b929190613ed1565b60206040518083038186803b15801561124357600080fd5b505afa158015611257573d6000803e3d6000fd5b505050506040513d601f19601f8201168201806040525061127b919081019061303b565b146112bb576040517f08c379a00000000000000000000000000000000000000000000000000000000081526004016112b290613dbb565b60405180910390fd5b611316816040518060e0016040529081600082015481526020016001820154815260200160028201548152602001600382015481526020016004820154815260200160058201548152602001600682015481525050866123cf565b600081600101541161135d576040517f08c379a000000000000000000000000000000000000000000000000000000000815260040161135490613e5b565b60405180910390fd5b600060026000848152602001908152602001600020600101549050600060026000858152602001908152602001600020600101819055507fe30055f80fbe7b2543e52870ba638ff9e75c7471da9cb6d9eb5a97379195b1ac8360026000868152602001908152602001600020600101546040516113db929190613ed1565b60405180910390a1600660009054906101000a900473ffffffffffffffffffffffffffffffffffffffff1673ffffffffffffffffffffffffffffffffffffffff1663a9059cbb33836040518363ffffffff1660e01b8152600401611440929190613aa2565b602060405180830381600087803b15801561145a57600080fd5b505af115801561146e573d6000803e3d6000fd5b505050506040513d601f19601f820116820180604052506114929190810190613012565b6114d1576040517f08c379a00000000000000000000000000000000000000000000000000000000081526004016114c890613c9b565b60405180910390fd5b505050505050565b600960009054906101000a900473ffffffffffffffffffffffffffffffffffffffff1681565b6115083361096e565b611547576040517f08c379a000000000000000000000000000000000000000000000000000000000815260040161153e90613e3b565b60405180910390fd5b60006115726002806000868152602001908152602001600020600101546128ff90919063ffffffff16565b905060006002600085815260200190815260200160002060010181905550600181111561168857600660009054906101000a900473ffffffffffffffffffffffffffffffffffffffff1673ffffffffffffffffffffffffffffffffffffffff1663a9059cbb83836040518363ffffffff1660e01b81526004016115f6929190613acb565b602060405180830381600087803b15801561161057600080fd5b505af1158015611624573d6000803e3d6000fd5b505050506040513d601f19601f820116820180604052506116489190810190613012565b611687576040517f08c379a000000000000000000000000000000000000000000000000000000000815260040161167e90613bdb565b60405180910390fd5b5b505050565b600760009054906101000a900473ffffffffffffffffffffffffffffffffffffffff1681565b6116bc3361096e565b6116fb576040517f08c379a00000000000000000000000000000000000000000000000000000000081526004016116f290613e3b565b60405180910390fd5b60018111801561170d57506000600554115b15611930576000826080013590506060600860009054906101000a900473ffffffffffffffffffffffffffffffffffffffff1673ffffffffffffffffffffffffffffffffffffffff1663378ab9a9836040518263ffffffff1660e01b81526004016117789190613eb6565b60006040518083038186803b15801561179057600080fd5b505afa1580156117a4573d6000803e3d6000fd5b505050506040513d6000823e3d601f19601f820116820180604052506117cd9190810190612fd1565b905060008151116117dd57600080fd5b600080905060008090505b82518110156118f9576000600760009054906101000a900473ffffffffffffffffffffffffffffffffffffffff1673ffffffffffffffffffffffffffffffffffffffff16638ce7ff4a868960000135856040518463ffffffff1660e01b815260040161185693929190613efa565b604080518083038186803b15801561186d57600080fd5b505afa158015611881573d6000803e3d6000fd5b505050506040513d601f19601f820116820180604052506118a591908101906130ca565b60000151905060008483815181106118b957fe5b6020026020010151905080606302606483021015806118de5750806065026064830211155b156118ea576001840193505b505080806001019150506117e8565b50600082516005540282600454886020013502028161191457fe5b04866020013501905061192b866000013582612ace565b505050505b5050565b6000600160008373ffffffffffffffffffffffffffffffffffffffff1673ffffffffffffffffffffffffffffffffffffffff168152602001908152602001600020549050919050565b60045481565b60035481565b81600960009054906101000a900473ffffffffffffffffffffffffffffffffffffffff1673ffffffffffffffffffffffffffffffffffffffff1663757991a86040518163ffffffff1660e01b815260040160206040518083038186803b1580156119f257600080fd5b505afa158015611a06573d6000803e3d6000fd5b505050506040513d601f19601f82011682018060405250611a2a919081019061311c565b8114611a6b576040517f08c379a0000000000000000000000000000000000000000000000000000000008152600401611a6290613cdb565b60405180910390fd5b73__Constants_____________________________633c7a3aff6040518163ffffffff1660e01b815260040160206040518083038186803b158015611aaf57600080fd5b505af4158015611ac3573d6000803e3d6000fd5b505050506040513d601f19601f82011682018060405250611ae791908101906131bd565b60ff16600960009054906101000a900473ffffffffffffffffffffffffffffffffffffffff1673ffffffffffffffffffffffffffffffffffffffff16631865c57d6040518163ffffffff1660e01b815260040160206040518083038186803b158015611b5257600080fd5b505afa158015611b66573d6000803e3d6000fd5b505050506040513d601f19601f82011682018060405250611b8a919081019061311c565b8114611bcb576040517f08c379a0000000000000000000000000000000000000000000000000000000008152600401611bc290613dfb565b60405180910390fd5b73__Constants_____________________________63a475b5dd6040518163ffffffff1660e01b815260040160206040518083038186803b158015611c0f57600080fd5b505af4158015611c23573d6000803e3d6000fd5b505050506040513d601f19601f82011682018060405250611c4791908101906131bd565b60ff16600960009054906101000a900473ffffffffffffffffffffffffffffffffffffffff1673ffffffffffffffffffffffffffffffffffffffff16631865c57d6040518163ffffffff1660e01b815260040160206040518083038186803b158015611cb257600080fd5b505afa158015611cc6573d6000803e3d6000fd5b505050506040513d601f19601f82011682018060405250611cea919081019061311c565b1415611d2b576040517f08c379a0000000000000000000000000000000000000000000000000000000008152600401611d2290613d9b565b60405180910390fd5b73__Constants_____________________________63375b3c0a6040518163ffffffff1660e01b815260040160206040518083038186803b158015611d6f57600080fd5b505af4158015611d83573d6000803e3d6000fd5b505050506040513d601f19601f82011682018060405250611da7919081019061311c565b831015611de9576040517f08c379a0000000000000000000000000000000000000000000000000000000008152600401611de090613e7b565b60405180910390fd5b600660009054906101000a900473ffffffffffffffffffffffffffffffffffffffff1673ffffffffffffffffffffffffffffffffffffffff166323b872dd3330866040518463ffffffff1660e01b8152600401611e4893929190613a6b565b602060405180830381600087803b158015611e6257600080fd5b505af1158015611e76573d6000803e3d6000fd5b505050506040513d601f19601f82011682018060405250611e9a9190810190613012565b611ed9576040517f08c379a0000000000000000000000000000000000000000000000000000000008152600401611ed090613c5b565b60405180910390fd5b6000600160003373ffffffffffffffffffffffffffffffffffffffff1673ffffffffffffffffffffffffffffffffffffffff16815260200190815260200160002054905060008114156120b357611f3c6001600354612a7990919063ffffffff16565b6003819055506040518060e0016040528060035481526020018581526020018681526020016000815260200160008152602001611ffd73__Constants_____________________________6326bf1c036040518163ffffffff1660e01b815260040160206040518083038186803b158015611fb657600080fd5b505af4158015611fca573d6000803e3d6000fd5b505050506040513d601f19601f82011682018060405250611fee919081019061311c565b88612a7990919063ffffffff16565b81526020016000815250600260006003548152602001908152602001600020600082015181600001556020820151816001015560408201518160020155606082015181600301556080820151816004015560a0820151816005015560c08201518160060155905050600354905080600160003373ffffffffffffffffffffffffffffffffffffffff1673ffffffffffffffffffffffffffffffffffffffff16815260200190815260200160002081905550612150565b600060026000838152602001908152602001600020600101541161210c576040517f08c379a000000000000000000000000000000000000000000000000000000000815260040161210390613e1b565b60405180910390fd5b612135846002600084815260200190815260200160002060010154612a7990919063ffffffff16565b60026000838152602001908152602001600020600101819055505b7f925435fa7e37e5d9555bb18ce0d62bb9627d0846942e58e5291e9a2dded462ed8185604051612181929190613ed1565b60405180910390a15050505050565b6121993361096e565b6121d8576040517f08c379a00000000000000000000000000000000000000000000000000000000081526004016121cf90613e3b565b60405180910390fd5b8060026000848152602001908152602001600020600401819055505050565b6000600354905090565b600660009054906101000a900473ffffffffffffffffffffffffffffffffffffffff1681565b60016020528060005260406000206000915090505481565b600860009054906101000a900473ffffffffffffffffffffffffffffffffffffffff1681565b61226e3361096e565b6122ad576040517f08c379a00000000000000000000000000000000000000000000000000000000081526004016122a490613e3b565b60405180910390fd5b6122b681612aed565b50565b6122c233612b47565b565b6122cc612cf0565b600260008381526020019081526020016000206040518060e00160405290816000820154815260200160018201548152602001600282015481526020016003820154815260200160048201548152602001600582015481526020016006820154815250509050919050565b6123403361096e565b61237f576040517f08c379a000000000000000000000000000000000000000000000000000000000815260040161237690613e3b565b60405180910390fd5b6123898282612ace565b5050565b60026020528060005260406000206000915090508060000154908060010154908060020154908060030154908060040154908060050154908060060154905087565b6000826080015190506001821180156123e85750600081115b1561288a576000836080015184604001511061240857836040015161240e565b83608001515b90506000612425828561295b90919063ffffffff16565b905060008560200151905061243a82826107d4565b8660200181815250506060600860009054906101000a900473ffffffffffffffffffffffffffffffffffffffff1673ffffffffffffffffffffffffffffffffffffffff1663378ab9a9866040518263ffffffff1660e01b81526004016124a09190613eb6565b60006040518083038186803b1580156124b857600080fd5b505afa1580156124cc573d6000803e3d6000fd5b505050506040513d6000823e3d601f19601f820116820180604052506124f59190810190612fd1565b905060008151111561288557600080600090505b82518110156127e0576000600760009054906101000a900473ffffffffffffffffffffffffffffffffffffffff1673ffffffffffffffffffffffffffffffffffffffff16638ce7ff4a898c60000151856040518463ffffffff1660e01b815260040161257793929190613efa565b604080518083038186803b15801561258e57600080fd5b505afa1580156125a2573d6000803e3d6000fd5b505050506040513d601f19601f820116820180604052506125c691908101906130ca565b60000151905060008483815181106125da57fe5b602002602001015190506125f860028261288f90919063ffffffff16565b82111561262a5760008b602001818152505061261f86600454612a7990919063ffffffff16565b6004819055506127d1565b60008211801561279657506126d660646126c873__Constants_____________________________632e7d68576040518163ffffffff1660e01b815260040160206040518083038186803b15801561268157600080fd5b505af4158015612695573d6000803e3d6000fd5b505050506040513d601f19601f820116820180604052506126b9919081019061311c565b8461288f90919063ffffffff16565b6128ff90919063ffffffff16565b8210806127955750612792606461278461277573__Constants_____________________________632e7d68576040518163ffffffff1660e01b815260040160206040518083038186803b15801561272d57600080fd5b505af4158015612741573d6000803e3d6000fd5b505050506040513d601f19601f82011682018060405250612765919081019061311c565b60c861295b90919063ffffffff16565b8461288f90919063ffffffff16565b6128ff90919063ffffffff16565b82115b5b156127d057818111156127bb5780828203606402816127b157fe5b04840193506127cf565b80818303606402816127c957fe5b04840193505b5b5b50508080600101915050612509565b50600081111561286757612828612819835160640261280b866001860361288f90919063ffffffff16565b6128ff90919063ffffffff16565b8461295b90919063ffffffff16565b88602001818152505061285c61284b89602001518561295b90919063ffffffff16565b600454612a7990919063ffffffff16565b600481905550612883565b61287c83600554612a7990919063ffffffff16565b6005819055505b505b505050505b505050565b6000808314156128a257600090506128f9565b60008284029050828482816128b357fe5b04146128f4576040517f08c379a00000000000000000000000000000000000000000000000000000000081526004016128eb90613cbb565b60405180910390fd5b809150505b92915050565b6000808211612943576040517f08c379a000000000000000000000000000000000000000000000000000000000815260040161293a90613c1b565b60405180910390fd5b600082848161294e57fe5b0490508091505092915050565b6000828211156129a0576040517f08c379a000000000000000000000000000000000000000000000000000000000815260040161299790613bfb565b60405180910390fd5b600082840390508091505092915050565b60008073ffffffffffffffffffffffffffffffffffffffff168273ffffffffffffffffffffffffffffffffffffffff161415612a22576040517f08c379a0000000000000000000000000000000000000000000000000000000008152600401612a1990613cfb565b60405180910390fd5b8260000160008373ffffffffffffffffffffffffffffffffffffffff1673ffffffffffffffffffffffffffffffffffffffff16815260200190815260200160002060009054906101000a900460ff16905092915050565b600080828401905083811015612ac4576040517f08c379a0000000000000000000000000000000000000000000000000000000008152600401612abb90613bbb565b60405180910390fd5b8091505092915050565b8060026000848152602001908152602001600020600101819055505050565b612b01816000612ba190919063ffffffff16565b8073ffffffffffffffffffffffffffffffffffffffff167f6ff3aa2ea7b53070f6d9d07a445d338d89e8edef44250ffa8be19f53910d4a2e60405160405180910390a250565b612b5b816000612c4990919063ffffffff16565b8073ffffffffffffffffffffffffffffffffffffffff167f86e5bbceda94081c32220d685f37cc4e3ea7bb0be2dfbf0cb703579505a5390e60405160405180910390a250565b612bab82826129b1565b15612beb576040517f08c379a0000000000000000000000000000000000000000000000000000000008152600401612be290613b7b565b60405180910390fd5b60018260000160008373ffffffffffffffffffffffffffffffffffffffff1673ffffffffffffffffffffffffffffffffffffffff16815260200190815260200160002060006101000a81548160ff0219169083151502179055505050565b612c5382826129b1565b612c92576040517f08c379a0000000000000000000000000000000000000000000000000000000008152600401612c8990613c7b565b60405180910390fd5b60008260000160008373ffffffffffffffffffffffffffffffffffffffff1673ffffffffffffffffffffffffffffffffffffffff16815260200190815260200160002060006101000a81548160ff0219169083151502179055505050565b6040518060e00160405280600081526020016000815260200160008152602001600081526020016000815260200160008152602001600081525090565b600081359050612d3c8161412b565b92915050565b600082601f830112612d5357600080fd5b8151612d66612d6182613fcd565b613fa0565b91508181835260208401935060208101905083856020840282011115612d8b57600080fd5b60005b83811015612dbb5781612da18882612f1b565b845260208401935060208301925050600181019050612d8e565b5050505092915050565b600081519050612dd481614142565b92915050565b600081519050612de981614159565b92915050565b600060e08284031215612e0157600080fd5b81905092915050565b600060e08284031215612e1c57600080fd5b612e2660e0613fa0565b90506000612e3684828501612f06565b6000830152506020612e4a84828501612f06565b6020830152506040612e5e84828501612f06565b6040830152506060612e7284828501612f06565b6060830152506080612e8684828501612f06565b60808301525060a0612e9a84828501612f06565b60a08301525060c0612eae84828501612f06565b60c08301525092915050565b600060408284031215612ecc57600080fd5b612ed66040613fa0565b90506000612ee684828501612f1b565b6000830152506020612efa84828501612f1b565b60208301525092915050565b600081359050612f1581614170565b92915050565b600081519050612f2a81614170565b92915050565b600081519050612f3f81614187565b92915050565b600060208284031215612f5757600080fd5b6000612f6584828501612d2d565b91505092915050565b60008060008060808587031215612f8457600080fd5b6000612f9287828801612d2d565b9450506020612fa387828801612d2d565b9350506040612fb487828801612d2d565b9250506060612fc587828801612d2d565b91505092959194509250565b600060208284031215612fe357600080fd5b600082015167ffffffffffffffff811115612ffd57600080fd5b61300984828501612d42565b91505092915050565b60006020828403121561302457600080fd5b600061303284828501612dc5565b91505092915050565b60006020828403121561304d57600080fd5b600061305b84828501612dda565b91505092915050565b600080610100838503121561307857600080fd5b600061308685828601612def565b92505060e061309785828601612f06565b9150509250929050565b600060e082840312156130b357600080fd5b60006130c184828501612e0a565b91505092915050565b6000604082840312156130dc57600080fd5b60006130ea84828501612eba565b91505092915050565b60006020828403121561310557600080fd5b600061311384828501612f06565b91505092915050565b60006020828403121561312e57600080fd5b600061313c84828501612f1b565b91505092915050565b6000806040838503121561315857600080fd5b600061316685828601612f06565b925050602061317785828601612d2d565b9150509250929050565b6000806040838503121561319457600080fd5b60006131a285828601612f06565b92505060206131b385828601612f06565b9150509250929050565b6000602082840312156131cf57600080fd5b60006131dd84828501612f30565b91505092915050565b6131ef81614065565b82525050565b6131fe81614006565b82525050565b61320d81614018565b82525050565b61321c81614077565b82525050565b61322b8161409b565b82525050565b61323a816140bf565b82525050565b613249816140e3565b82525050565b600061325c601f83613ff5565b91507f526f6c65733a206163636f756e7420616c72656164792068617320726f6c65006000830152602082019050919050565b600061329c601a83613ff5565b91507f57697468647261772065706f6368206e6f7420726561636865640000000000006000830152602082019050919050565b60006132dc601b83613ff5565b91507f536166654d6174683a206164646974696f6e206f766572666c6f7700000000006000830152602082019050919050565b600061331c601983613ff5565b91507f6661696c656420746f207472616e7366657220626f756e7479000000000000006000830152602082019050919050565b600061335c601e83613ff5565b91507f536166654d6174683a207375627472616374696f6e206f766572666c6f7700006000830152602082019050919050565b600061339c601a83613ff5565b91507f536166654d6174683a206469766973696f6e206279207a65726f0000000000006000830152602082019050919050565b60006133dc601183613ff5565b91507f4e6f6e706f736974697665207374616b650000000000000000000000000000006000830152602082019050919050565b600061341c601383613ff5565b91507f736368207472616e73666572206661696c6564000000000000000000000000006000830152602082019050919050565b600061345c602183613ff5565b91507f526f6c65733a206163636f756e7420646f6573206e6f74206861766520726f6c60008301527f65000000000000000000000000000000000000000000000000000000000000006020830152604082019050919050565b60006134c2601083613ff5565b91507f636f756c646e74207472616e73666572000000000000000000000000000000006000830152602082019050919050565b6000613502602183613ff5565b91507f536166654d6174683a206d756c7469706c69636174696f6e206f766572666c6f60008301527f77000000000000000000000000000000000000000000000000000000000000006020830152604082019050919050565b6000613568600f83613ff5565b91507f696e636f72726563742065706f636800000000000000000000000000000000006000830152602082019050919050565b60006135a8602283613ff5565b91507f526f6c65733a206163636f756e7420697320746865207a65726f20616464726560008301527f73730000000000000000000000000000000000000000000000000000000000006020830152604082019050919050565b600061360e601a83613ff5565b91507f4469646e742072657665616c20696e206c6173742065706f63680000000000006000830152602082019050919050565b600061364e601383613ff5565b91507f7374616b657220646f65736e74206578697374000000000000000000000000006000830152602082019050919050565b600061368e600683613ff5565b91507f6c6f636b656400000000000000000000000000000000000000000000000000006000830152602082019050919050565b60006136ce600d83613ff5565b91507f7374616b65722e6964203d2030000000000000000000000000000000000000006000830152602082019050919050565b600061370e600f83613ff5565b91507f496e636f727265637420737461746500000000000000000000000000000000006000830152602082019050919050565b600061374e602a83613ff5565b91507f616c726561647920636f6d6d6974656420746869732065706f63682e2043616e60008301527f74207769746864726177000000000000000000000000000000000000000000006020830152604082019050919050565b60006137b4600f83613ff5565b91507f446964206e6f7420756e7374616b6500000000000000000000000000000000006000830152602082019050919050565b60006137f4600f83613ff5565b91507f696e636f727265637420737461746500000000000000000000000000000000006000830152602082019050919050565b6000613834604d83613ff5565b91507f616464696e67207374616b65206973206e6f7420706f737369626c652061667460008301527f6572207769746864726177616c2f736c6173682e20506c65617365207573652060208301527f61206e65772061646472657373000000000000000000000000000000000000006040830152606082019050919050565b60006138c0603083613ff5565b91507f577269746572526f6c653a2063616c6c657220646f6573206e6f74206861766560008301527f207468652057726974657220726f6c65000000000000000000000000000000006020830152604082019050919050565b6000613926601183613ff5565b91507f4e6f6e706f736974697665205374616b650000000000000000000000000000006000830152602082019050919050565b6000613966603183613ff5565b91507f7374616b656420616d6f756e74206973206c657373207468616e206d696e696d60008301527f756d207374616b652072657175697265640000000000000000000000000000006020830152604082019050919050565b60e0820160008201516139d56000850182613a4d565b5060208201516139e86020850182613a4d565b5060408201516139fb6040850182613a4d565b506060820151613a0e6060850182613a4d565b506080820151613a216080850182613a4d565b5060a0820151613a3460a0850182613a4d565b5060c0820151613a4760c0850182613a4d565b50505050565b613a568161404e565b82525050565b613a658161404e565b82525050565b6000606082019050613a8060008301866131e6565b613a8d60208301856131f5565b613a9a6040830184613a5c565b949350505050565b6000604082019050613ab760008301856131e6565b613ac46020830184613a5c565b9392505050565b6000604082019050613ae060008301856131f5565b613aed6020830184613a5c565b9392505050565b6000602082019050613b096000830184613204565b92915050565b6000602082019050613b246000830184613213565b92915050565b6000602082019050613b3f6000830184613222565b92915050565b6000602082019050613b5a6000830184613231565b92915050565b6000602082019050613b756000830184613240565b92915050565b60006020820190508181036000830152613b948161324f565b9050919050565b60006020820190508181036000830152613bb48161328f565b9050919050565b60006020820190508181036000830152613bd4816132cf565b9050919050565b60006020820190508181036000830152613bf48161330f565b9050919050565b60006020820190508181036000830152613c148161334f565b9050919050565b60006020820190508181036000830152613c348161338f565b9050919050565b60006020820190508181036000830152613c54816133cf565b9050919050565b60006020820190508181036000830152613c748161340f565b9050919050565b60006020820190508181036000830152613c948161344f565b9050919050565b60006020820190508181036000830152613cb4816134b5565b9050919050565b60006020820190508181036000830152613cd4816134f5565b9050919050565b60006020820190508181036000830152613cf48161355b565b9050919050565b60006020820190508181036000830152613d148161359b565b9050919050565b60006020820190508181036000830152613d3481613601565b9050919050565b60006020820190508181036000830152613d5481613641565b9050919050565b60006020820190508181036000830152613d7481613681565b9050919050565b60006020820190508181036000830152613d94816136c1565b9050919050565b60006020820190508181036000830152613db481613701565b9050919050565b60006020820190508181036000830152613dd481613741565b9050919050565b60006020820190508181036000830152613df4816137a7565b9050919050565b60006020820190508181036000830152613e14816137e7565b9050919050565b60006020820190508181036000830152613e3481613827565b9050919050565b60006020820190508181036000830152613e54816138b3565b9050919050565b60006020820190508181036000830152613e7481613919565b9050919050565b60006020820190508181036000830152613e9481613959565b9050919050565b600060e082019050613eb060008301846139bf565b92915050565b6000602082019050613ecb6000830184613a5c565b92915050565b6000604082019050613ee66000830185613a5c565b613ef36020830184613a5c565b9392505050565b6000606082019050613f0f6000830186613a5c565b613f1c6020830185613a5c565b613f296040830184613a5c565b949350505050565b600060e082019050613f46600083018a613a5c565b613f536020830189613a5c565b613f606040830188613a5c565b613f6d6060830187613a5c565b613f7a6080830186613a5c565b613f8760a0830185613a5c565b613f9460c0830184613a5c565b98975050505050505050565b6000604051905081810181811067ffffffffffffffff82111715613fc357600080fd5b8060405250919050565b600067ffffffffffffffff821115613fe457600080fd5b602082029050602081019050919050565b600082825260208201905092915050565b60006140118261402e565b9050919050565b60008115159050919050565b6000819050919050565b600073ffffffffffffffffffffffffffffffffffffffff82169050919050565b6000819050919050565b600060ff82169050919050565b600061407082614107565b9050919050565b600061408282614089565b9050919050565b60006140948261402e565b9050919050565b60006140a6826140ad565b9050919050565b60006140b88261402e565b9050919050565b60006140ca826140d1565b9050919050565b60006140dc8261402e565b9050919050565b60006140ee826140f5565b9050919050565b60006141008261402e565b9050919050565b600061411282614119565b9050919050565b60006141248261402e565b9050919050565b61413481614006565b811461413f57600080fd5b50565b61414b81614018565b811461415657600080fd5b50565b61416281614024565b811461416d57600080fd5b50565b6141798161404e565b811461418457600080fd5b50565b61419081614058565b811461419b57600080fd5b5056fea365627a7a7230582006ae46546812e6ed5b3fe5c28d25a670fbbfa4a008a131747b545a11640bbc436c6578706572696d656e74616cf564736f6c634300050a0040",
  "source": "pragma solidity 0.5.10;\npragma experimental ABIEncoderV2;\nimport \"../SimpleToken.sol\";\nimport \"./Utils.sol\";\nimport \"./WriterRole.sol\";\nimport \"./StakeStorage.sol\";\nimport \"./IStateManager.sol\";\nimport \"./IBlockManager.sol\";\nimport \"./IVoteManager.sol\";\nimport \"../lib/Constants.sol\";\nimport \"openzeppelin-solidity/contracts/math/SafeMath.sol\";\n\n\ncontract StakeManager is Utils, WriterRole, StakeStorage {\n    using SafeMath for uint256;\n    event Staked(uint256 stakerId, uint256 amount);\n    SimpleToken public sch;\n    IVoteManager public voteManager;\n    IBlockManager public blockManager;\n    IStateManager public stateManager;\n\n    modifier checkEpoch (uint256 epoch) {\n        require(epoch == stateManager.getEpoch(), \"incorrect epoch\");\n        _;\n    }\n\n    modifier checkState (uint256 state) {\n        require(state == stateManager.getState(), \"incorrect state\");\n        _;\n    }\n\n    // todo disable after init\n    function init (address _schAddress, address _voteManagerAddress,\n        address _blockManagerAddress, address _stateManagerAddress) external {\n        sch = SimpleToken(_schAddress);\n        voteManager = IVoteManager(_voteManagerAddress);\n        blockManager = IBlockManager(_blockManagerAddress);\n        stateManager = IStateManager(_stateManagerAddress);\n    }\n\n    function setStakerStake(uint256 _id, uint256 _stake) external onlyWriter {\n        _setStakerStake(_id, _stake);\n    }\n\n    function setStakerEpochLastRevealed(uint256 _id, uint256 _epochLastRevealed) external onlyWriter {\n        stakers[_id].epochLastRevealed = _epochLastRevealed;\n    }\n\n    function updateCommitmentEpoch(uint256 stakerId) external onlyWriter {\n        stakers[stakerId].epochLastCommitted = stateManager.getEpoch();\n    }\n\n    // stake during commit state only\n    // we check epoch during every transaction to avoid withholding and rebroadcasting attacks\n    function stake (uint256 epoch, uint256 amount) external checkEpoch(epoch) checkState(Constants.commit()) {\n        // not allowed during reveal period\n        require(stateManager.getState() != Constants.reveal(), \"Incorrect state\");\n        require(amount >= Constants.minStake(), \"staked amount is less than minimum stake required\");\n        require(sch.transferFrom(msg.sender, address(this), amount), \"sch transfer failed\");\n        uint256 stakerId = stakerIds[msg.sender];\n        if (stakerId == 0) {\n            numStakers = numStakers.add(1);\n            stakers[numStakers] = Structs.Staker(numStakers, amount, epoch, 0, 0,\n            epoch.add(Constants.unstakeLockPeriod()), 0);\n            stakerId = numStakers;\n            stakerIds[msg.sender] = stakerId;\n        } else {\n            require(stakers[stakerId].stake > 0,\n                    \"adding stake is not possible after withdrawal/slash. Please use a new address\");\n            stakers[stakerId].stake = stakers[stakerId].stake.add(amount);\n        }\n        // totalStake = totalStake.add(amount);\n        emit Staked(stakerId, amount);\n    }\n\n    event Unstaked(uint256 stakerId);\n\n    // staker must call unstake() and continue voting for Constants.WITHDRAW_LOCK_PERIOD\n    //after which she can call withdraw() to finally Withdraw\n    function unstake (uint256 epoch) external checkEpoch(epoch)  checkState(Constants.commit()) {\n        uint256 stakerId = stakerIds[msg.sender];\n        Structs.Staker storage staker = stakers[stakerId];\n        require(staker.id != 0, \"staker.id = 0\");\n        require(staker.stake > 0, \"Nonpositive stake\");\n        require(staker.unstakeAfter <= epoch && staker.unstakeAfter != 0, \"locked\");\n        staker.unstakeAfter = 0;\n        staker.withdrawAfter = epoch.add(Constants.withdrawLockPeriod());\n        emit Unstaked(stakerId);\n    }\n\n    event Withdrew(uint256 stakerId, uint256 amount);\n\n    function withdraw (uint256 epoch) external checkEpoch(epoch) checkState(Constants.commit()) {\n        uint256 stakerId = stakerIds[msg.sender];\n        Structs.Staker storage staker = stakers[stakerId];\n        require(staker.id != 0, \"staker doesnt exist\");\n        require(staker.epochLastRevealed == epoch.sub(1), \"Didnt reveal in last epoch\");\n        require(staker.unstakeAfter == 0, \"Did not unstake\");\n        require((staker.withdrawAfter <= epoch) && staker.withdrawAfter != 0, \"Withdraw epoch not reached\");\n        require(voteManager.getCommitment(epoch, stakerId) == 0x0, \"already commited this epoch. Cant withdraw\");\n        _givePenalties(staker, epoch);\n        require(staker.stake > 0, \"Nonpositive Stake\");\n        // SimpleToken sch = SimpleToken(schAddress);\n        // totalStake = totalStake.sub(stakers[stakerId].stake);\n        uint256 toTransfer = stakers[stakerId].stake;\n        stakers[stakerId].stake = 0;\n        emit Withdrew(stakerId, stakers[stakerId].stake);\n        require(sch.transfer(msg.sender, toTransfer), \"couldnt transfer\");\n    }\n\n    // todo reduce complexity\n    function givePenalties (Structs.Staker calldata thisStaker, uint256 epoch) external onlyWriter {\n        _givePenalties(thisStaker, epoch);\n    }\n\n    function giveRewards (Structs.Staker calldata thisStaker, uint256 epoch) external onlyWriter {\n        if (epoch > 1 && stakeGettingReward > 0) {\n            uint256 epochLastRevealed = thisStaker.epochLastRevealed;\n            uint256[] memory mediansLastEpoch = blockManager.getBlockMedians(epochLastRevealed);\n            require(mediansLastEpoch.length > 0);\n            //epoch->stakerid->assetid->vote\n            // mapping (uint256 => mapping (uint256 =>  mapping (uint256 => Structs.Vote))) public votes;\n            uint256 rewardable = 0;\n            for (uint256 i = 0; i < mediansLastEpoch.length; i++) {\n                uint256 voteLastEpoch = voteManager.getVote(epochLastRevealed, thisStaker.id, i).value;\n                uint256 medianLastEpoch = mediansLastEpoch[i];\n\n        //rewardpool*stake*multiplier/stakeGettingReward\n            // uint256 y =  ((((medianLastEpoch.sub(voteLastEpoch)).mul(medianLastEpoch.sub(\n            //         voteLastEpoch))).div(medianLastEpoch.mul(medianLastEpoch))).mul(\n            //         uint256(10000)));\n            //give rewards if voted in zone\n                if ((voteLastEpoch * 100 >= (99 * medianLastEpoch) ||\n                    (voteLastEpoch * 100 <= (101 * medianLastEpoch)))) {\n                    rewardable = rewardable + 1;\n                }\n            }\n            // emit DebugUint256(rewardable);\n            // emit DebugUint256(rewardPool);\n            uint256 newStake = thisStaker.stake + (thisStaker.stake*rewardPool*rewardable)/\n            (stakeGettingReward*mediansLastEpoch.length);\n            _setStakerStake(thisStaker.id, newStake);\n        }\n    }\n\n    function slash (uint256 id, address bountyHunter) external onlyWriter {\n        // SimpleToken sch = SimpleToken(schAddress);\n        uint256 halfStake = stakers[id].stake.div(2);\n        stakers[id].stake = 0;\n        if (halfStake > 1) {\n            // totalStake = totalStake.sub(halfStake);\n            require(sch.transfer(bountyHunter, halfStake), \"failed to transfer bounty\");\n        }\n    }\n\n    function getStakerId(address _address) external view returns(uint256) {\n        return(stakerIds[_address]);\n    }\n\n    function getStaker(uint256 _id) external view returns(Structs.Staker memory staker) {\n        return(stakers[_id]);\n    }\n\n    function getNumStakers() external view returns(uint256) {\n        return(numStakers);\n    }\n\n    function getRewardPool() external view returns(uint256) {\n        return(rewardPool);\n    }\n\n    function getStakeGettingReward() external view returns(uint256) {\n        return(stakeGettingReward);\n    }\n\n    function calculateInactivityPenalties(uint256 epochs, uint256 stakeValue) public pure returns(uint256) {\n        if (epochs < 2) {\n            return(stakeValue);\n        }\n        uint256 penalty = (epochs.sub(1)).mul((stakeValue.mul(Constants.penaltyNotRevealNum())).div(\n        Constants.penaltyNotRevealDenom()));\n        if (penalty < stakeValue) {\n            return(stakeValue.sub(penalty));\n        } else {\n            return(0);\n        }\n    }\n\n    // function getTotalStakeRevealed(uint256 epoch, uint256 assetId) public view returns(uint256) {\n    //     return(totalStakeRevealed[epoch][assetId]);\n    // }\n\n    function _setStakerStake(uint256 _id, uint256 _stake) internal {\n        stakers[_id].stake = _stake;\n    }\n\n    function _givePenalties (Structs.Staker memory thisStaker, uint256 epoch) internal {\n        uint256 epochLastRevealed = thisStaker.epochLastRevealed;\n        if (epoch > 1 && epochLastRevealed > 0) {\n            uint256 epochLastActive = thisStaker.epochStaked < thisStaker.epochLastRevealed ?\n                                    thisStaker.epochLastRevealed :\n                                    thisStaker.epochStaked;\n            // penalize or reward if last active more than epoch - 1\n            uint256 penalizeEpochs = epoch.sub(epochLastActive);\n            uint256 previousStake = thisStaker.stake;\n            thisStaker.stake = calculateInactivityPenalties(penalizeEpochs, previousStake);\n            // return(0);\n\n            uint256[] memory mediansLastEpoch = blockManager.getBlockMedians(epochLastRevealed);\n            if (mediansLastEpoch.length > 0) {\n\n                uint256 y;\n                for (uint256 i = 0; i < mediansLastEpoch.length; i++) {\n                    uint256 voteLastEpoch = voteManager.getVote(epochLastRevealed, thisStaker.id, i).value;\n                    uint256 medianLastEpoch = mediansLastEpoch[i];\n\n                    if (voteLastEpoch > (medianLastEpoch.mul(2))) {\n                        thisStaker.stake = 0;\n                        rewardPool = rewardPool.add(previousStake);\n                        // return(0);\n                    } else if (voteLastEpoch > 0 &&\n                        (voteLastEpoch < (medianLastEpoch.mul(Constants.safetyMarginLower())).div(100) ||\n                        voteLastEpoch > (medianLastEpoch.mul(uint256(200).sub(\n                                        Constants.safetyMarginLower()))).div(100))) {\n\n                        if (medianLastEpoch > voteLastEpoch) {\n                            y = y + (100 * (medianLastEpoch - voteLastEpoch))/medianLastEpoch;\n                        } else {\n                            y = y + (100 * (voteLastEpoch - medianLastEpoch))/medianLastEpoch;\n                        }\n                    }\n                }\n\n                if (y > 0) {\n                    thisStaker.stake = previousStake.sub(((y - 1).mul(previousStake)).div(100*mediansLastEpoch.length));\n                // thisStaker.stake = previousStake.sub(((y.sub(1)).mul(previousStake)).div(10000));\n\n                    rewardPool = rewardPool.add(previousStake.sub(thisStaker.stake));\n                    // return(y);\n                } else {\n                //no penalty. only reward??\n                    stakeGettingReward = stakeGettingReward.add(previousStake);//*(1 - y);\n                }\n            }\n        }\n    }\n\n    // function stakeTransfer(uint256 fromId, address to, uint256 amount) internal{\n    //     // uint256 fromId = stakerIds[from];\n    //     require(fromId!=0);\n    //     require(stakers[fromId].stake >= amount);\n    //     uint256 toId = stakerIds[to];\n    //     stakers[fromId].stake = stakers[fromId].stake - amount;\n    //     if (toId == 0) {\n    //         numStakers = numStakers + 1;\n    //         stakers[numStakers] = Structs.Staker(numStakers, amount, 0, 0, 0);\n    //         stakerIds[to] = numStakers;\n    //     } else {\n    //         stakers[toId].stake = stakers[toId].stake + amount;\n    //     }\n    // }\n\n}\n",
  "sourcePath": "/Users/hrishi/contracts/contracts/Schelling4/StakeManager.sol",
  "compiler": {
    "name": "solc",
    "version": "0.5.10+commit.5a6ea5b1.Emscripten.clang"
  },
  "schemaVersion": "3.0.11",
  "updatedAt": "2019-08-13T12:26:01.541Z",
  "devdoc": {
    "methods": {}
  },
  "userdoc": {
    "methods": {}
  }
}