{
  "contractName": "StakeStorage",
  "abi": [
    {
      "constant": true,
      "inputs": [],
      "name": "stakeGettingReward",
      "outputs": [
        {
          "name": "",
          "type": "uint256"
        }
      ],
      "payable": false,
      "stateMutability": "view",
      "type": "function"
    },
    {
      "constant": true,
      "inputs": [],
      "name": "rewardPool",
      "outputs": [
        {
          "name": "",
          "type": "uint256"
        }
      ],
      "payable": false,
      "stateMutability": "view",
      "type": "function"
    },
    {
      "constant": true,
      "inputs": [],
      "name": "numStakers",
      "outputs": [
        {
          "name": "",
          "type": "uint256"
        }
      ],
      "payable": false,
      "stateMutability": "view",
      "type": "function"
    },
    {
      "constant": true,
      "inputs": [
        {
          "name": "",
          "type": "address"
        }
      ],
      "name": "stakerIds",
      "outputs": [
        {
          "name": "",
          "type": "uint256"
        }
      ],
      "payable": false,
      "stateMutability": "view",
      "type": "function"
    },
    {
      "constant": true,
      "inputs": [
        {
          "name": "",
          "type": "uint256"
        }
      ],
      "name": "stakers",
      "outputs": [
        {
          "name": "id",
          "type": "uint256"
        },
        {
          "name": "stake",
          "type": "uint256"
        },
        {
          "name": "epochStaked",
          "type": "uint256"
        },
        {
          "name": "epochLastCommitted",
          "type": "uint256"
        },
        {
          "name": "epochLastRevealed",
          "type": "uint256"
        },
        {
          "name": "unstakeAfter",
          "type": "uint256"
        },
        {
          "name": "withdrawAfter",
          "type": "uint256"
        }
      ],
      "payable": false,
      "stateMutability": "view",
      "type": "function"
    }
  ],
  "bytecode": "0x608060405260006002556000600355600060045534801561001f57600080fd5b5061021b8061002f6000396000f3fe608060405234801561001057600080fd5b50600436106100575760003560e01c80630ec88d3f1461005c57806366666aa91461007a5780636c8b052a14610098578063c8ae0d7d146100b6578063fd5e6dd11461010e575b600080fd5b61006461017a565b6040518082815260200191505060405180910390f35b610082610180565b6040518082815260200191505060405180910390f35b6100a0610186565b6040518082815260200191505060405180910390f35b6100f8600480360360208110156100cc57600080fd5b81019080803573ffffffffffffffffffffffffffffffffffffffff16906020019092919050505061018c565b6040518082815260200191505060405180910390f35b61013a6004803603602081101561012457600080fd5b81019080803590602001909291905050506101a4565b6040518088815260200187815260200186815260200185815260200184815260200183815260200182815260200197505050505050505060405180910390f35b60045481565b60035481565b60025481565b60006020528060005260406000206000915090505481565b6001602052806000526040600020600091509050806000015490806001015490806002015490806003015490806004015490806005015490806006015490508756fea265627a7a72305820ee74f9d8bcd020841a7a85299a6b09ff6b5773a87be88fd3d696ac7a497cb0d564736f6c634300050a0032",
  "source": "pragma solidity 0.5.10;\nimport \"../lib/Structs.sol\";\n\n\ncontract StakeStorage {\n\n    // Constants public constants;\n    mapping (address => uint256) public stakerIds;\n    mapping (uint256 => Structs.Staker) public stakers;\n    uint256 public numStakers = 0;\n    // SimpleToken public sch;\n    uint256 public rewardPool = 0;\n    uint256 public stakeGettingReward = 0;\n\n       // uint256 public totalStake = 0;\n}\n",
  "sourcePath": "/Users/hrishi/contracts/contracts/Schelling4/StakeStorage.sol",
  "compiler": {
    "name": "solc",
    "version": "0.5.10+commit.5a6ea5b1.Emscripten.clang"
  },
  "schemaVersion": "3.0.11",
  "updatedAt": "2019-09-10T13:20:44.051Z",
  "devdoc": {
    "methods": {}
  },
  "userdoc": {
    "methods": {}
  }
}