{
  "contractName": "StateManager",
  "abi": [
    {
      "constant": true,
      "inputs": [],
      "name": "getEpoch",
      "outputs": [
        {
          "name": "",
          "type": "uint256"
        }
      ],
      "payable": false,
      "stateMutability": "view",
      "type": "function"
    },
    {
      "constant": true,
      "inputs": [],
      "name": "getState",
      "outputs": [
        {
          "name": "",
          "type": "uint256"
        }
      ],
      "payable": false,
      "stateMutability": "view",
      "type": "function"
    }
  ],
  "bytecode": "0x608060405234801561001057600080fd5b50610507806100206000396000f3fe608060405234801561001057600080fd5b50600436106100365760003560e01c80631865c57d1461003b578063757991a814610059575b600080fd5b610043610077565b6040516100509190610477565b60405180910390f35b610061610222565b60405161006e9190610477565b60405180910390f35b60008061018c73__Constants_____________________________63f4f29c5b6040518163ffffffff1660e01b815260040160206040518083038186803b1580156100c157600080fd5b505af41580156100d5573d6000803e3d6000fd5b505050506040513d601f19601f820116820180604052506100f9919081019061037f565b73__Constants_____________________________6357d775f86040518163ffffffff1660e01b815260040160206040518083038186803b15801561013d57600080fd5b505af4158015610151573d6000803e3d6000fd5b505050506040513d601f19601f82011682018060405250610175919081019061037f565b8161017c57fe5b04436102b790919063ffffffff16565b905061021c73__Constants_____________________________63f4f29c5b6040518163ffffffff1660e01b815260040160206040518083038186803b1580156101d557600080fd5b505af41580156101e9573d6000803e3d6000fd5b505050506040513d601f19601f8201168201806040525061020d919081019061037f565b8261031390919063ffffffff16565b91505090565b60006102b273__Constants_____________________________6357d775f86040518163ffffffff1660e01b815260040160206040518083038186803b15801561026b57600080fd5b505af415801561027f573d6000803e3d6000fd5b505050506040513d601f19601f820116820180604052506102a3919081019061037f565b436102b790919063ffffffff16565b905090565b60008082116102fb576040517f08c379a00000000000000000000000000000000000000000000000000000000081526004016102f290610437565b60405180910390fd5b600082848161030657fe5b0490508091505092915050565b600080821415610358576040517f08c379a000000000000000000000000000000000000000000000000000000000815260040161034f90610457565b60405180910390fd5b81838161036157fe5b06905092915050565b600081519050610379816104ad565b92915050565b60006020828403121561039157600080fd5b600061039f8482850161036a565b91505092915050565b60006103b5601a83610492565b91507f536166654d6174683a206469766973696f6e206279207a65726f0000000000006000830152602082019050919050565b60006103f5601883610492565b91507f536166654d6174683a206d6f64756c6f206279207a65726f00000000000000006000830152602082019050919050565b610431816104a3565b82525050565b60006020820190508181036000830152610450816103a8565b9050919050565b60006020820190508181036000830152610470816103e8565b9050919050565b600060208201905061048c6000830184610428565b92915050565b600082825260208201905092915050565b6000819050919050565b6104b6816104a3565b81146104c157600080fd5b5056fea365627a7a72305820603c5a3768056405cefcd895b1b4f4991a0f3eee768525c623510c025322be3a6c6578706572696d656e74616cf564736f6c634300050a0040",
  "source": "pragma solidity 0.5.10;\npragma experimental ABIEncoderV2;\nimport \"../lib/Constants.sol\";\n\nimport \"openzeppelin-solidity/contracts/math/SafeMath.sol\";\n\n\ncontract StateManager {\n    using SafeMath for uint256;\n    // for testing only. diable in prod\n    // uint256 public EPOCH;\n    // uint256 public STATE;\n    //\n    // function setEpoch (uint256 epoch) external { EPOCH = epoch;}\n    //\n    // function setState (uint256 state) external { STATE = state;}\n\n    function getEpoch () external view returns(uint256) {\n        // return(EPOCH);\n        return(block.number.div(Constants.epochLength()));\n    }\n\n    function getState () external view returns(uint256) {\n        // return (STATE);\n        uint256 state = (block.number.div(Constants.epochLength()/Constants.numStates()));\n        return (state.mod(Constants.numStates()));\n    }\n}\n",
  "sourcePath": "/home/hrishi/contracts/contracts/Schelling4/StateManager.sol",
  "compiler": {
    "name": "solc",
    "version": "0.5.10+commit.5a6ea5b1.Emscripten.clang"
  },
  "schemaVersion": "3.0.11",
  "updatedAt": "2019-09-25T08:31:55.543Z",
  "devdoc": {
    "methods": {}
  },
  "userdoc": {
    "methods": {}
  }
}