{
  "contractName": "StateManager",
  "abi": [
    {
      "constant": true,
      "inputs": [],
      "name": "EPOCH",
      "outputs": [
        {
          "name": "",
          "type": "uint256"
        }
      ],
      "payable": false,
      "stateMutability": "view",
      "type": "function"
    },
    {
      "constant": true,
      "inputs": [],
      "name": "STATE",
      "outputs": [
        {
          "name": "",
          "type": "uint256"
        }
      ],
      "payable": false,
      "stateMutability": "view",
      "type": "function"
    },
    {
      "constant": false,
      "inputs": [
        {
          "name": "epoch",
          "type": "uint256"
        }
      ],
      "name": "setEpoch",
      "outputs": [],
      "payable": false,
      "stateMutability": "nonpayable",
      "type": "function"
    },
    {
      "constant": false,
      "inputs": [
        {
          "name": "state",
          "type": "uint256"
        }
      ],
      "name": "setState",
      "outputs": [],
      "payable": false,
      "stateMutability": "nonpayable",
      "type": "function"
    },
    {
      "constant": true,
      "inputs": [],
      "name": "getEpoch",
      "outputs": [
        {
          "name": "",
          "type": "uint256"
        }
      ],
      "payable": false,
      "stateMutability": "view",
      "type": "function"
    },
    {
      "constant": true,
      "inputs": [],
      "name": "getState",
      "outputs": [
        {
          "name": "",
          "type": "uint256"
        }
      ],
      "payable": false,
      "stateMutability": "view",
      "type": "function"
    }
  ],
  "bytecode": "0x608060405234801561001057600080fd5b50610605806100206000396000f3fe608060405234801561001057600080fd5b50600436106100625760003560e01c80630ceb2cef146100675780631865c57d14610083578063757991a8146100a1578063a0dc2758146100bf578063a9e966b7146100dd578063c486456c146100f9575b600080fd5b610081600480360361007c9190810190610454565b610117565b005b61008b610121565b6040516100989190610575565b60405180910390f35b6100a96102cc565b6040516100b69190610575565b60405180910390f35b6100c7610361565b6040516100d49190610575565b60405180910390f35b6100f760048036036100f29190810190610454565b610367565b005b610101610371565b60405161010e9190610575565b60405180910390f35b8060008190555050565b60008061023673__Constants_____________________________63f4f29c5b6040518163ffffffff1660e01b815260040160206040518083038186803b15801561016b57600080fd5b505af415801561017f573d6000803e3d6000fd5b505050506040513d601f19601f820116820180604052506101a3919081019061047d565b73__Constants_____________________________6357d775f86040518163ffffffff1660e01b815260040160206040518083038186803b1580156101e757600080fd5b505af41580156101fb573d6000803e3d6000fd5b505050506040513d601f19601f8201168201806040525061021f919081019061047d565b8161022657fe5b044361037790919063ffffffff16565b90506102c673__Constants_____________________________63f4f29c5b6040518163ffffffff1660e01b815260040160206040518083038186803b15801561027f57600080fd5b505af4158015610293573d6000803e3d6000fd5b505050506040513d601f19601f820116820180604052506102b7919081019061047d565b826103d390919063ffffffff16565b91505090565b600061035c73__Constants_____________________________6357d775f86040518163ffffffff1660e01b815260040160206040518083038186803b15801561031557600080fd5b505af4158015610329573d6000803e3d6000fd5b505050506040513d601f19601f8201168201806040525061034d919081019061047d565b4361037790919063ffffffff16565b905090565b60005481565b8060018190555050565b60015481565b60008082116103bb576040517f08c379a00000000000000000000000000000000000000000000000000000000081526004016103b290610535565b60405180910390fd5b60008284816103c657fe5b0490508091505092915050565b600080821415610418576040517f08c379a000000000000000000000000000000000000000000000000000000000815260040161040f90610555565b60405180910390fd5b81838161042157fe5b06905092915050565b600081359050610439816105ab565b92915050565b60008151905061044e816105ab565b92915050565b60006020828403121561046657600080fd5b60006104748482850161042a565b91505092915050565b60006020828403121561048f57600080fd5b600061049d8482850161043f565b91505092915050565b60006104b3601a83610590565b91507f536166654d6174683a206469766973696f6e206279207a65726f0000000000006000830152602082019050919050565b60006104f3601883610590565b91507f536166654d6174683a206d6f64756c6f206279207a65726f00000000000000006000830152602082019050919050565b61052f816105a1565b82525050565b6000602082019050818103600083015261054e816104a6565b9050919050565b6000602082019050818103600083015261056e816104e6565b9050919050565b600060208201905061058a6000830184610526565b92915050565b600082825260208201905092915050565b6000819050919050565b6105b4816105a1565b81146105bf57600080fd5b5056fea365627a7a723058201c4ec230cf4d7047e31a8b8d195434e81bf406e21e8fb96b20ebd09ad50853ff6c6578706572696d656e74616cf564736f6c634300050a0040",
  "source": "pragma solidity 0.5.10;\npragma experimental ABIEncoderV2;\nimport \"../lib/Constants.sol\";\n\nimport \"openzeppelin-solidity/contracts/math/SafeMath.sol\";\n\n\ncontract StateManager {\n    using SafeMath for uint256;\n    // for testing only. diable in prod\n    uint256 public EPOCH;\n    uint256 public STATE;\n\n    function setEpoch (uint256 epoch) external { EPOCH = epoch;}\n\n    function setState (uint256 state) external { STATE = state;}\n\n    function getEpoch () external view returns(uint256) {\n        // return(EPOCH);\n        return(block.number.div(Constants.epochLength()));\n    }\n\n    function getState () external view returns(uint256) {\n        // return (STATE);\n        uint256 state = (block.number.div(Constants.epochLength()/Constants.numStates()));\n        return (state.mod(Constants.numStates()));\n    }\n}\n",
  "sourcePath": "/Users/hrishi/contracts/contracts/Schelling4/StateManager.sol",
  "compiler": {
    "name": "solc",
    "version": "0.5.10+commit.5a6ea5b1.Emscripten.clang"
  },
  "schemaVersion": "3.0.11",
  "updatedAt": "2019-09-16T18:27:29.734Z",
  "devdoc": {
    "methods": {}
  },
  "userdoc": {
    "methods": {}
  }
}