{
  "contractName": "StateManager",
  "abi": [
    {
      "inputs": [],
      "name": "getEpoch",
      "outputs": [
        {
          "internalType": "uint256",
          "name": "",
          "type": "uint256"
        }
      ],
      "stateMutability": "view",
      "type": "function",
      "constant": true
    },
    {
      "inputs": [],
      "name": "getState",
      "outputs": [
        {
          "internalType": "uint256",
          "name": "",
          "type": "uint256"
        }
      ],
      "stateMutability": "view",
      "type": "function",
      "constant": true
    }
  ],
  "bytecode": "0x608060405234801561001057600080fd5b506103ce806100206000396000f3fe608060405234801561001057600080fd5b50600436106100365760003560e01c80631865c57d1461003b578063757991a814610059575b600080fd5b610043610061565b604051610050919061038f565b60405180910390f35b610043610209565b60008061017573__Constants_____________________________63f4f29c5b6040518163ffffffff1660e01b815260040160206040518083038186803b1580156100ab57600080fd5b505af41580156100bf573d6000803e3d6000fd5b505050506040513d601f19601f820116820180604052508101906100e39190610309565b73__Constants_____________________________6357d775f86040518163ffffffff1660e01b815260040160206040518083038186803b15801561012757600080fd5b505af415801561013b573d6000803e3d6000fd5b505050506040513d601f19601f8201168201806040525081019061015f9190610309565b8161016657fe5b4391900463ffffffff61029c16565b905061020373__Constants_____________________________63f4f29c5b6040518163ffffffff1660e01b815260040160206040518083038186803b1580156101be57600080fd5b505af41580156101d2573d6000803e3d6000fd5b505050506040513d601f19601f820116820180604052508101906101f69190610309565b829063ffffffff6102d716565b91505090565b600061029773__Constants_____________________________6357d775f86040518163ffffffff1660e01b815260040160206040518083038186803b15801561025257600080fd5b505af4158015610266573d6000803e3d6000fd5b505050506040513d601f19601f8201168201806040525081019061028a9190610309565b439063ffffffff61029c16565b905090565b60008082116102c65760405162461bcd60e51b81526004016102bd90610321565b60405180910390fd5b8183816102cf57fe5b049392505050565b60008082116102f85760405162461bcd60e51b81526004016102bd90610358565b81838161030157fe5b069392505050565b60006020828403121561031a578081fd5b5051919050565b6020808252601a908201527f536166654d6174683a206469766973696f6e206279207a65726f000000000000604082015260600190565b60208082526018908201527f536166654d6174683a206d6f64756c6f206279207a65726f0000000000000000604082015260600190565b9081526020019056fea2646970667358221220a229fed4344ade8b9798c811f4b5a0b2d4c58cc913e69f93f5ffd192faf3302364736f6c634300060b0033",
  "immutableReferences": {},
  "source": "pragma solidity 0.6.11;\npragma experimental ABIEncoderV2;\nimport \"../lib/Constants.sol\";\n\nimport \"openzeppelin-solidity/contracts/math/SafeMath.sol\";\n\n\ncontract StateManager {\n    using SafeMath for uint256;\n    // for testing only. diable in prod\n    // uint256 public EPOCH;\n    // uint256 public STATE;\n    //\n    // function setEpoch (uint256 epoch) external { EPOCH = epoch;}\n    //\n    // function setState (uint256 state) external { STATE = state;}\n\n    function getEpoch () external view returns(uint256) {\n        // return(EPOCH);\n        return(block.number.div(Constants.epochLength()));\n    }\n\n    function getState () external view returns(uint256) {\n        // return (STATE);\n        uint256 state = (block.number.div(Constants.epochLength()/Constants.numStates()));\n        return (state.mod(Constants.numStates()));\n    }\n}\n",
  "sourcePath": "/Users/skanda/Projects/contracts/contracts/Core/StateManager.sol",
  "compiler": {
    "name": "solc",
    "version": "0.6.11+commit.5ef660b1.Emscripten.clang"
  },
  "schemaVersion": "3.3.4",
  "updatedAt": "2021-04-04T21:18:47.177Z",
  "networkType": "ethereum",
  "devdoc": {
    "kind": "dev",
    "methods": {},
    "version": 1
  },
  "userdoc": {
    "kind": "user",
    "methods": {},
    "version": 1
  }
}