{
  "contractName": "VoteManager",
  "abi": [
    {
      "constant": true,
      "inputs": [
        {
          "name": "",
          "type": "uint256"
        },
        {
          "name": "",
          "type": "uint256"
        },
        {
          "name": "",
          "type": "uint256"
        }
      ],
      "name": "votes",
      "outputs": [
        {
          "name": "value",
          "type": "uint256"
        },
        {
          "name": "weight",
          "type": "uint256"
        }
      ],
      "payable": false,
      "stateMutability": "view",
      "type": "function"
    },
    {
      "constant": true,
      "inputs": [],
      "name": "stateManager",
      "outputs": [
        {
          "name": "",
          "type": "address"
        }
      ],
      "payable": false,
      "stateMutability": "view",
      "type": "function"
    },
    {
      "constant": true,
      "inputs": [],
      "name": "stakeManager",
      "outputs": [
        {
          "name": "",
          "type": "address"
        }
      ],
      "payable": false,
      "stateMutability": "view",
      "type": "function"
    },
    {
      "constant": true,
      "inputs": [
        {
          "name": "",
          "type": "uint256"
        },
        {
          "name": "",
          "type": "uint256"
        }
      ],
      "name": "totalStakeRevealed",
      "outputs": [
        {
          "name": "",
          "type": "uint256"
        }
      ],
      "payable": false,
      "stateMutability": "view",
      "type": "function"
    },
    {
      "constant": true,
      "inputs": [
        {
          "name": "",
          "type": "uint256"
        },
        {
          "name": "",
          "type": "uint256"
        },
        {
          "name": "",
          "type": "uint256"
        }
      ],
      "name": "voteWeights",
      "outputs": [
        {
          "name": "",
          "type": "uint256"
        }
      ],
      "payable": false,
      "stateMutability": "view",
      "type": "function"
    },
    {
      "constant": true,
      "inputs": [
        {
          "name": "",
          "type": "uint256"
        },
        {
          "name": "",
          "type": "uint256"
        }
      ],
      "name": "commitments",
      "outputs": [
        {
          "name": "",
          "type": "bytes32"
        }
      ],
      "payable": false,
      "stateMutability": "view",
      "type": "function"
    },
    {
      "constant": true,
      "inputs": [],
      "name": "blockManager",
      "outputs": [
        {
          "name": "",
          "type": "address"
        }
      ],
      "payable": false,
      "stateMutability": "view",
      "type": "function"
    },
    {
      "anonymous": false,
      "inputs": [
        {
          "indexed": false,
          "name": "epoch",
          "type": "uint256"
        },
        {
          "indexed": false,
          "name": "stakerId",
          "type": "uint256"
        },
        {
          "indexed": false,
          "name": "commitment",
          "type": "bytes32"
        },
        {
          "indexed": false,
          "name": "timestamp",
          "type": "uint256"
        }
      ],
      "name": "Committed",
      "type": "event"
    },
    {
      "anonymous": false,
      "inputs": [
        {
          "indexed": false,
          "name": "epoch",
          "type": "uint256"
        },
        {
          "indexed": false,
          "name": "stakerId",
          "type": "uint256"
        },
        {
          "indexed": false,
          "name": "stake",
          "type": "uint256"
        },
        {
          "indexed": false,
          "name": "values",
          "type": "uint256[]"
        },
        {
          "indexed": false,
          "name": "timestamp",
          "type": "uint256"
        }
      ],
      "name": "Revealed",
      "type": "event"
    },
    {
      "anonymous": false,
      "inputs": [
        {
          "indexed": false,
          "name": "a",
          "type": "uint256"
        }
      ],
      "name": "DebugUint256",
      "type": "event"
    },
    {
      "constant": false,
      "inputs": [
        {
          "name": "_stakeManagerAddress",
          "type": "address"
        },
        {
          "name": "_stateManagerAddress",
          "type": "address"
        },
        {
          "name": "_blockManagerAddress",
          "type": "address"
        }
      ],
      "name": "init",
      "outputs": [],
      "payable": false,
      "stateMutability": "nonpayable",
      "type": "function"
    },
    {
      "constant": true,
      "inputs": [
        {
          "name": "epoch",
          "type": "uint256"
        },
        {
          "name": "stakerId",
          "type": "uint256"
        }
      ],
      "name": "getCommitment",
      "outputs": [
        {
          "name": "",
          "type": "bytes32"
        }
      ],
      "payable": false,
      "stateMutability": "view",
      "type": "function"
    },
    {
      "constant": true,
      "inputs": [
        {
          "name": "epoch",
          "type": "uint256"
        },
        {
          "name": "stakerId",
          "type": "uint256"
        },
        {
          "name": "assetId",
          "type": "uint256"
        }
      ],
      "name": "getVote",
      "outputs": [
        {
          "components": [
            {
              "name": "value",
              "type": "uint256"
            },
            {
              "name": "weight",
              "type": "uint256"
            }
          ],
          "name": "vote",
          "type": "tuple"
        }
      ],
      "payable": false,
      "stateMutability": "view",
      "type": "function"
    },
    {
      "constant": true,
      "inputs": [
        {
          "name": "epoch",
          "type": "uint256"
        },
        {
          "name": "assetId",
          "type": "uint256"
        },
        {
          "name": "voteValue",
          "type": "uint256"
        }
      ],
      "name": "getVoteWeight",
      "outputs": [
        {
          "name": "",
          "type": "uint256"
        }
      ],
      "payable": false,
      "stateMutability": "view",
      "type": "function"
    },
    {
      "constant": true,
      "inputs": [
        {
          "name": "epoch",
          "type": "uint256"
        },
        {
          "name": "assetId",
          "type": "uint256"
        }
      ],
      "name": "getTotalStakeRevealed",
      "outputs": [
        {
          "name": "",
          "type": "uint256"
        }
      ],
      "payable": false,
      "stateMutability": "view",
      "type": "function"
    },
    {
      "constant": true,
      "inputs": [
        {
          "name": "epoch",
          "type": "uint256"
        },
        {
          "name": "assetId",
          "type": "uint256"
        },
        {
          "name": "voteValue",
          "type": "uint256"
        }
      ],
      "name": "getTotalStakeRevealed",
      "outputs": [
        {
          "name": "",
          "type": "uint256"
        }
      ],
      "payable": false,
      "stateMutability": "view",
      "type": "function"
    },
    {
      "constant": false,
      "inputs": [
        {
          "name": "epoch",
          "type": "uint256"
        },
        {
          "name": "commitment",
          "type": "bytes32"
        }
      ],
      "name": "commit",
      "outputs": [],
      "payable": false,
      "stateMutability": "nonpayable",
      "type": "function"
    },
    {
      "constant": false,
      "inputs": [
        {
          "name": "epoch",
          "type": "uint256"
        },
        {
          "name": "root",
          "type": "bytes32"
        },
        {
          "name": "values",
          "type": "uint256[]"
        },
        {
          "name": "proofs",
          "type": "bytes32[][]"
        },
        {
          "name": "secret",
          "type": "bytes32"
        },
        {
          "name": "stakerAddress",
          "type": "address"
        }
      ],
      "name": "reveal",
      "outputs": [],
      "payable": false,
      "stateMutability": "nonpayable",
      "type": "function"
    }
  ],
  "bytecode": "0x608060405234801561001057600080fd5b5061295c806100206000396000f3fe608060405234801561001057600080fd5b50600436106100f55760003560e01c80638ce7ff4a11610097578063d13e2e6011610066578063d13e2e60146102bf578063d9169b32146102ef578063f2f038771461030d578063f322bd7d14610329576100f5565b80638ce7ff4a146101ff5780638fd5ff001461022f5780639c66556f1461025f578063a6a145d91461028f576100f5565b80632e716fb1116100d35780632e716fb1146101635780637164f0d6146101815780637542ff95146101b15780638a757ecc146101cf576100f5565b8063125f68f1146100fa578063184b955914610116578063283e290514610132575b600080fd5b610114600480360361010f9190810190611d92565b610359565b005b610130600480360361012b9190810190611cb4565b610ea6565b005b61014c60048036036101479190810190611e87565b610f6e565b60405161015a9291906125fd565b60405180910390f35b61016b610fac565b6040516101789190612415565b60405180910390f35b61019b60048036036101969190810190611e4b565b610fd2565b6040516101a891906123c4565b60405180910390f35b6101b9611000565b6040516101c691906123fa565b60405180910390f35b6101e960048036036101e49190810190611e4b565b611026565b6040516101f691906125ab565b60405180910390f35b61021960048036036102149190810190611e87565b61104b565b6040516102269190612590565b60405180910390f35b61024960048036036102449190810190611e87565b6110b0565b60405161025691906125ab565b60405180910390f35b61027960048036036102749190810190611e87565b6110e2565b60405161028691906125ab565b60405180910390f35b6102a960048036036102a49190810190611e4b565b611123565b6040516102b691906125ab565b60405180910390f35b6102d960048036036102d49190810190611e4b565b611152565b6040516102e691906123c4565b60405180910390f35b6102f7611177565b60405161030491906123df565b60405180910390f35b61032760048036036103229190810190611d56565b61119d565b005b610343600480360361033e9190810190611e87565b61183e565b60405161035091906125ab565b60405180910390f35b85600560009054906101000a900473ffffffffffffffffffffffffffffffffffffffff1673ffffffffffffffffffffffffffffffffffffffff1663757991a86040518163ffffffff1660e01b815260040160206040518083038186803b1580156103c257600080fd5b505afa1580156103d6573d6000803e3d6000fd5b505050506040513d601f19601f820116820180604052506103fa9190810190611d2d565b811461043b576040517f08c379a000000000000000000000000000000000000000000000000000000000815260040161043290612510565b60405180910390fd5b6000600460009054906101000a900473ffffffffffffffffffffffffffffffffffffffff1673ffffffffffffffffffffffffffffffffffffffff16636022a485846040518263ffffffff1660e01b8152600401610498919061238e565b60206040518083038186803b1580156104b057600080fd5b505afa1580156104c4573d6000803e3d6000fd5b505050506040513d601f19601f820116820180604052506104e89190810190611d2d565b90506000811161052d576040517f08c379a0000000000000000000000000000000000000000000000000000000008152600401610524906124f0565b60405180910390fd5b610535611981565b600460009054906101000a900473ffffffffffffffffffffffffffffffffffffffff1673ffffffffffffffffffffffffffffffffffffffff1663e3c998fe836040518263ffffffff1660e01b815260040161059091906125ab565b6101006040518083038186803b1580156105a957600080fd5b505afa1580156105bd573d6000803e3d6000fd5b505050506040513d601f19601f820116820180604052506105e19190810190611d03565b90506000801b6000808b8152602001908152602001600020600084815260200190815260200160002054141561064c576040517f08c379a000000000000000000000000000000000000000000000000000000000815260040161064390612530565b60405180910390fd5b6000808a815260200190815260200160002060008381526020019081526020016000205489898760405160200161068593929190612351565b60405160208183030381529060405280519060200120146106db576040517f08c379a00000000000000000000000000000000000000000000000000000000081526004016106d290612430565b60405180910390fd5b8373ffffffffffffffffffffffffffffffffffffffff163373ffffffffffffffffffffffffffffffffffffffff161415610c7f5773__Constants_____________________________63a475b5dd6040518163ffffffff1660e01b815260040160206040518083038186803b15801561075357600080fd5b505af4158015610767573d6000803e3d6000fd5b505050506040513d601f19601f8201168201806040525061078b9190810190611ed6565b60ff16600560009054906101000a900473ffffffffffffffffffffffffffffffffffffffff1673ffffffffffffffffffffffffffffffffffffffff16631865c57d6040518163ffffffff1660e01b815260040160206040518083038186803b1580156107f657600080fd5b505afa15801561080a573d6000803e3d6000fd5b505050506040513d601f19601f8201168201806040525061082e9190810190611d2d565b1461086e576040517f08c379a000000000000000000000000000000000000000000000000000000000815260040161086590612490565b60405180910390fd5b60008160400151116108b5576040517f08c379a00000000000000000000000000000000000000000000000000000000081526004016108ac90612450565b60405180910390fd5b60008090505b8751811015610aed5761091b8782815181106108d357fe5b60200260200101518a8a84815181106108e857fe5b60200260200101516040516020016109009190612336565b6040516020818303038152906040528051906020012061187f565b61095a576040517f08c379a000000000000000000000000000000000000000000000000000000000815260040161095190612470565b60405180910390fd5b604051806040016040528089838151811061097157fe5b602002602001015181526020018360400151815250600160008c8152602001908152602001600020600085815260200190815260200160002060008381526020019081526020016000206000820151816000015560208201518160010155905050610a318260400151600360008d8152602001908152602001600020600084815260200190815260200160002060008b8581518110610a0c57fe5b602002602001015181526020019081526020016000205461192c90919063ffffffff16565b600360008c8152602001908152602001600020600083815260200190815260200160002060008a8481518110610a6357fe5b6020026020010151815260200190815260200160002081905550610ab88260400151600260008d815260200190815260200160002060008481526020019081526020016000205461192c90919063ffffffff16565b600260008c815260200190815260200160002060008381526020019081526020016000208190555080806001019150506108bb565b50600460009054906101000a900473ffffffffffffffffffffffffffffffffffffffff1673ffffffffffffffffffffffffffffffffffffffff1663fabb9890838b6040518363ffffffff1660e01b8152600401610b4b9291906125fd565b600060405180830381600087803b158015610b6557600080fd5b505af1158015610b79573d6000803e3d6000fd5b505050506000801b6000808b8152602001908152602001600020600084815260200190815260200160002081905550600460009054906101000a900473ffffffffffffffffffffffffffffffffffffffff1673ffffffffffffffffffffffffffffffffffffffff16639864f70a838b6040518363ffffffff1660e01b8152600401610c059291906125fd565b600060405180830381600087803b158015610c1f57600080fd5b505af1158015610c33573d6000803e3d6000fd5b505050507f17f4759c403dfc3fa26ab75ce82d3d090a0bdbfe9977d8ee87445d6dd83c68a1898383604001518a42604051610c7295949392919061266b565b60405180910390a1610e9b565b73__Constants_____________________________633c7a3aff6040518163ffffffff1660e01b815260040160206040518083038186803b158015610cc357600080fd5b505af4158015610cd7573d6000803e3d6000fd5b505050506040513d601f19601f82011682018060405250610cfb9190810190611ed6565b60ff16600560009054906101000a900473ffffffffffffffffffffffffffffffffffffffff1673ffffffffffffffffffffffffffffffffffffffff16631865c57d6040518163ffffffff1660e01b815260040160206040518083038186803b158015610d6657600080fd5b505afa158015610d7a573d6000803e3d6000fd5b505050506040513d601f19601f82011682018060405250610d9e9190810190611d2d565b14610dde576040517f08c379a0000000000000000000000000000000000000000000000000000000008152600401610dd5906124d0565b60405180910390fd5b6000801b6000808b8152602001908152602001600020600084815260200190815260200160002081905550600460009054906101000a900473ffffffffffffffffffffffffffffffffffffffff1673ffffffffffffffffffffffffffffffffffffffff16630f91ce1983338c6040518463ffffffff1660e01b8152600401610e68939291906125c6565b600060405180830381600087803b158015610e8257600080fd5b505af1158015610e96573d6000803e3d6000fd5b505050505b505050505050505050565b82600460006101000a81548173ffffffffffffffffffffffffffffffffffffffff021916908373ffffffffffffffffffffffffffffffffffffffff16021790555081600560006101000a81548173ffffffffffffffffffffffffffffffffffffffff021916908373ffffffffffffffffffffffffffffffffffffffff16021790555080600660006101000a81548173ffffffffffffffffffffffffffffffffffffffff021916908373ffffffffffffffffffffffffffffffffffffffff160217905550505050565b600160205282600052604060002060205281600052604060002060205280600052604060002060009250925050508060000154908060010154905082565b600560009054906101000a900473ffffffffffffffffffffffffffffffffffffffff1681565b6000806000848152602001908152602001600020600083815260200190815260200160002054905092915050565b600460009054906101000a900473ffffffffffffffffffffffffffffffffffffffff1681565b6002602052816000526040600020602052806000526040600020600091509150505481565b6110536119dc565b60016000858152602001908152602001600020600084815260200190815260200160002060008381526020019081526020016000206040518060400160405290816000820154815260200160018201548152505090509392505050565b600360205282600052604060002060205281600052604060002060205280600052604060002060009250925050505481565b600060036000858152602001908152602001600020600084815260200190815260200160002060008381526020019081526020016000205490509392505050565b600060026000848152602001908152602001600020600083815260200190815260200160002054905092915050565b6000602052816000526040600020602052806000526040600020600091509150505481565b600660009054906101000a900473ffffffffffffffffffffffffffffffffffffffff1681565b81600560009054906101000a900473ffffffffffffffffffffffffffffffffffffffff1673ffffffffffffffffffffffffffffffffffffffff1663757991a86040518163ffffffff1660e01b815260040160206040518083038186803b15801561120657600080fd5b505afa15801561121a573d6000803e3d6000fd5b505050506040513d601f19601f8201168201806040525061123e9190810190611d2d565b811461127f576040517f08c379a000000000000000000000000000000000000000000000000000000000815260040161127690612510565b60405180910390fd5b73__Constants_____________________________633c7a3aff6040518163ffffffff1660e01b815260040160206040518083038186803b1580156112c357600080fd5b505af41580156112d7573d6000803e3d6000fd5b505050506040513d601f19601f820116820180604052506112fb9190810190611ed6565b60ff16600560009054906101000a900473ffffffffffffffffffffffffffffffffffffffff1673ffffffffffffffffffffffffffffffffffffffff16631865c57d6040518163ffffffff1660e01b815260040160206040518083038186803b15801561136657600080fd5b505afa15801561137a573d6000803e3d6000fd5b505050506040513d601f19601f8201168201806040525061139e9190810190611d2d565b81146113df576040517f08c379a00000000000000000000000000000000000000000000000000000000081526004016113d690612550565b60405180910390fd5b6000600460009054906101000a900473ffffffffffffffffffffffffffffffffffffffff1673ffffffffffffffffffffffffffffffffffffffff16636022a485336040518263ffffffff1660e01b815260040161143c91906123a9565b60206040518083038186803b15801561145457600080fd5b505afa158015611468573d6000803e3d6000fd5b505050506040513d601f19601f8201168201806040525061148c9190810190611d2d565b90506000801b600080878152602001908152602001600020600083815260200190815260200160002054146114f6576040517f08c379a00000000000000000000000000000000000000000000000000000000081526004016114ed90612570565b60405180910390fd5b6114fe611981565b600460009054906101000a900473ffffffffffffffffffffffffffffffffffffffff1673ffffffffffffffffffffffffffffffffffffffff1663e3c998fe836040518263ffffffff1660e01b815260040161155991906125ab565b6101006040518083038186803b15801561157257600080fd5b505afa158015611586573d6000803e3d6000fd5b505050506040513d601f19601f820116820180604052506115aa9190810190611d03565b9050600660009054906101000a900473ffffffffffffffffffffffffffffffffffffffff1673ffffffffffffffffffffffffffffffffffffffff16639b87f6446040518163ffffffff1660e01b8152600401600060405180830381600087803b15801561161657600080fd5b505af115801561162a573d6000803e3d6000fd5b50505050600460009054906101000a900473ffffffffffffffffffffffffffffffffffffffff1673ffffffffffffffffffffffffffffffffffffffff166354eae15e83886040518363ffffffff1660e01b815260040161168b9291906125fd565b600060405180830381600087803b1580156116a557600080fd5b505af11580156116b9573d6000803e3d6000fd5b5050505073__Constants_____________________________63375b3c0a6040518163ffffffff1660e01b815260040160206040518083038186803b15801561170157600080fd5b505af4158015611715573d6000803e3d6000fd5b505050506040513d601f19601f820116820180604052506117399190810190611d2d565b8160400151106118365784600080888152602001908152602001600020600084815260200190815260200160002081905550600460009054906101000a900473ffffffffffffffffffffffffffffffffffffffff1673ffffffffffffffffffffffffffffffffffffffff1663188dc83b836040518263ffffffff1660e01b81526004016117c691906125ab565b600060405180830381600087803b1580156117e057600080fd5b505af11580156117f4573d6000803e3d6000fd5b505050507f6ad04b07dbe80ee3971460ebc13808fb6dd0fa67fbf7d7ebc4de85811d2c99288683874260405161182d9493929190612626565b60405180910390a15b505050505050565b600060036000858152602001908152602001600020600084815260200190815260200160002060008381526020019081526020016000205490509392505050565b60008082905060008090505b855181101561191e5760008682815181106118a257fe5b60200260200101519050808310156118e45782816040516020016118c792919061230a565b604051602081830303815290604052805190602001209250611910565b80836040516020016118f792919061230a565b6040516020818303038152906040528051906020012092505b50808060010191505061188b565b508381149150509392505050565b600080828401905083811015611977576040517f08c379a000000000000000000000000000000000000000000000000000000000815260040161196e906124b0565b60405180910390fd5b8091505092915050565b60405180610100016040528060008152602001600073ffffffffffffffffffffffffffffffffffffffff1681526020016000815260200160008152602001600081526020016000815260200160008152602001600081525090565b604051806040016040528060008152602001600081525090565b600081359050611a05816128bd565b92915050565b600081519050611a1a816128bd565b92915050565b600082601f830112611a3157600080fd5b8135611a44611a3f826126f2565b6126c5565b9150818183526020840193506020810190508360005b83811015611a8a5781358601611a708882611a94565b845260208401935060208301925050600181019050611a5a565b5050505092915050565b600082601f830112611aa557600080fd5b8135611ab8611ab38261271a565b6126c5565b91508181835260208401935060208101905083856020840282011115611add57600080fd5b60005b83811015611b0d5781611af38882611b9a565b845260208401935060208301925050600181019050611ae0565b5050505092915050565b600082601f830112611b2857600080fd5b8135611b3b611b3682612742565b6126c5565b91508181835260208401935060208101905083856020840282011115611b6057600080fd5b60005b83811015611b905781611b768882611c75565b845260208401935060208301925050600181019050611b63565b5050505092915050565b600081359050611ba9816128d4565b92915050565b60006101008284031215611bc257600080fd5b611bcd6101006126c5565b90506000611bdd84828501611c8a565b6000830152506020611bf184828501611a0b565b6020830152506040611c0584828501611c8a565b6040830152506060611c1984828501611c8a565b6060830152506080611c2d84828501611c8a565b60808301525060a0611c4184828501611c8a565b60a08301525060c0611c5584828501611c8a565b60c08301525060e0611c6984828501611c8a565b60e08301525092915050565b600081359050611c84816128eb565b92915050565b600081519050611c99816128eb565b92915050565b600081519050611cae81612902565b92915050565b600080600060608486031215611cc957600080fd5b6000611cd7868287016119f6565b9350506020611ce8868287016119f6565b9250506040611cf9868287016119f6565b9150509250925092565b60006101008284031215611d1657600080fd5b6000611d2484828501611baf565b91505092915050565b600060208284031215611d3f57600080fd5b6000611d4d84828501611c8a565b91505092915050565b60008060408385031215611d6957600080fd5b6000611d7785828601611c75565b9250506020611d8885828601611b9a565b9150509250929050565b60008060008060008060c08789031215611dab57600080fd5b6000611db989828a01611c75565b9650506020611dca89828a01611b9a565b955050604087013567ffffffffffffffff811115611de757600080fd5b611df389828a01611b17565b945050606087013567ffffffffffffffff811115611e1057600080fd5b611e1c89828a01611a20565b9350506080611e2d89828a01611b9a565b92505060a0611e3e89828a016119f6565b9150509295509295509295565b60008060408385031215611e5e57600080fd5b6000611e6c85828601611c75565b9250506020611e7d85828601611c75565b9150509250929050565b600080600060608486031215611e9c57600080fd5b6000611eaa86828701611c75565b9350506020611ebb86828701611c75565b9250506040611ecc86828701611c75565b9150509250925092565b600060208284031215611ee857600080fd5b6000611ef684828501611c9f565b91505092915050565b6000611f0b83836122d5565b60208301905092915050565b611f2081612807565b82525050565b611f2f816127b4565b82525050565b6000611f408261277a565b611f4a8185612792565b9350611f558361276a565b8060005b83811015611f86578151611f6d8882611eff565b9750611f7883612785565b925050600181019050611f59565b5085935050505092915050565b611f9c816127c6565b82525050565b611fb3611fae826127c6565b6128a9565b82525050565b611fc281612819565b82525050565b611fd18161283d565b82525050565b611fe081612861565b82525050565b6000611ff36016836127a3565b91507f696e636f7272656374207365637265742f76616c7565000000000000000000006000830152602082019050919050565b60006120336011836127a3565b91507f6e6f6e706f736974697665207374616b650000000000000000000000000000006000830152602082019050919050565b60006120736014836127a3565b91507f696e76616c6964206d65726b6c652070726f6f660000000000000000000000006000830152602082019050919050565b60006120b36010836127a3565b91507f4e6f742072657665616c207374617465000000000000000000000000000000006000830152602082019050919050565b60006120f3601b836127a3565b91507f536166654d6174683a206164646974696f6e206f766572666c6f7700000000006000830152602082019050919050565b60006121336010836127a3565b91507f4e6f7420636f6d6d6974207374617465000000000000000000000000000000006000830152602082019050919050565b6000612173601d836127a3565b91507f537472756374732e5374616b657220646f6573206e6f742065786973740000006000830152602082019050919050565b60006121b3600f836127a3565b91507f696e636f72726563742065706f636800000000000000000000000000000000006000830152602082019050919050565b60006121f36020836127a3565b91507f6e6f7420636f6d6d69746564206f7220616c72656164792072657665616c65646000830152602082019050919050565b6000612233600f836127a3565b91507f696e636f727265637420737461746500000000000000000000000000000000006000830152602082019050919050565b60006122736010836127a3565b91507f616c726561647920636f6d6d69746564000000000000000000000000000000006000830152602082019050919050565b6040820160008201516122bc60008501826122d5565b5060208201516122cf60208501826122d5565b50505050565b6122de816127f0565b82525050565b6122ed816127f0565b82525050565b6123046122ff826127f0565b6128b3565b82525050565b60006123168285611fa2565b6020820191506123268284611fa2565b6020820191508190509392505050565b600061234282846122f3565b60208201915081905092915050565b600061235d82866122f3565b60208201915061236d8285611fa2565b60208201915061237d8284611fa2565b602082019150819050949350505050565b60006020820190506123a36000830184611f26565b92915050565b60006020820190506123be6000830184611f17565b92915050565b60006020820190506123d96000830184611f93565b92915050565b60006020820190506123f46000830184611fb9565b92915050565b600060208201905061240f6000830184611fc8565b92915050565b600060208201905061242a6000830184611fd7565b92915050565b6000602082019050818103600083015261244981611fe6565b9050919050565b6000602082019050818103600083015261246981612026565b9050919050565b6000602082019050818103600083015261248981612066565b9050919050565b600060208201905081810360008301526124a9816120a6565b9050919050565b600060208201905081810360008301526124c9816120e6565b9050919050565b600060208201905081810360008301526124e981612126565b9050919050565b6000602082019050818103600083015261250981612166565b9050919050565b60006020820190508181036000830152612529816121a6565b9050919050565b60006020820190508181036000830152612549816121e6565b9050919050565b6000602082019050818103600083015261256981612226565b9050919050565b6000602082019050818103600083015261258981612266565b9050919050565b60006040820190506125a560008301846122a6565b92915050565b60006020820190506125c060008301846122e4565b92915050565b60006060820190506125db60008301866122e4565b6125e86020830185611f17565b6125f560408301846122e4565b949350505050565b600060408201905061261260008301856122e4565b61261f60208301846122e4565b9392505050565b600060808201905061263b60008301876122e4565b61264860208301866122e4565b6126556040830185611f93565b61266260608301846122e4565b95945050505050565b600060a08201905061268060008301886122e4565b61268d60208301876122e4565b61269a60408301866122e4565b81810360608301526126ac8185611f35565b90506126bb60808301846122e4565b9695505050505050565b6000604051905081810181811067ffffffffffffffff821117156126e857600080fd5b8060405250919050565b600067ffffffffffffffff82111561270957600080fd5b602082029050602081019050919050565b600067ffffffffffffffff82111561273157600080fd5b602082029050602081019050919050565b600067ffffffffffffffff82111561275957600080fd5b602082029050602081019050919050565b6000819050602082019050919050565b600081519050919050565b6000602082019050919050565b600082825260208201905092915050565b600082825260208201905092915050565b60006127bf826127d0565b9050919050565b6000819050919050565b600073ffffffffffffffffffffffffffffffffffffffff82169050919050565b6000819050919050565b600060ff82169050919050565b600061281282612885565b9050919050565b60006128248261282b565b9050919050565b6000612836826127d0565b9050919050565b60006128488261284f565b9050919050565b600061285a826127d0565b9050919050565b600061286c82612873565b9050919050565b600061287e826127d0565b9050919050565b600061289082612897565b9050919050565b60006128a2826127d0565b9050919050565b6000819050919050565b6000819050919050565b6128c6816127b4565b81146128d157600080fd5b50565b6128dd816127c6565b81146128e857600080fd5b50565b6128f4816127f0565b81146128ff57600080fd5b50565b61290b816127fa565b811461291657600080fd5b5056fea365627a7a723058200c7f16838fc8c226d381c04a6572042b02d612e08745c26153ac7c131a1c24156c6578706572696d656e74616cf564736f6c634300050a0040",
  "source": "pragma solidity 0.5.10;\npragma experimental ABIEncoderV2;\n// import \"../SimpleToken.sol\";\nimport \"./Utils.sol\";\n// import \"../lib/Random.sol\";\nimport \"openzeppelin-solidity/contracts/math/SafeMath.sol\";\n// import \"../lib/Structs.sol\";\nimport \"./IStakeManager.sol\";\nimport \"./IStateManager.sol\";\nimport \"./IBlockManager.sol\";\nimport \"./VoteStorage.sol\";\nimport \"openzeppelin-solidity/contracts/cryptography/MerkleProof.sol\";\n// import \"openzeppelin-solidity/contracts/ownership/Ownable.sol\";\n\n\ncontract VoteManager is  Utils, VoteStorage {\n    using SafeMath for uint256;\n    IStakeManager public stakeManager;\n    IStateManager public stateManager;\n    IBlockManager public blockManager;\n\n    modifier checkEpoch (uint256 epoch) {\n        require(epoch == stateManager.getEpoch(), \"incorrect epoch\");\n        _;\n    }\n\n    modifier checkState (uint256 state) {\n        require(state == stateManager.getState(), \"incorrect state\");\n        _;\n    }\n\n    function init (address _stakeManagerAddress, address _stateManagerAddress, address _blockManagerAddress) public {\n        stakeManager = IStakeManager(_stakeManagerAddress);\n        stateManager = IStateManager(_stateManagerAddress);\n        blockManager = IBlockManager(_blockManagerAddress);\n    }\n\n    event Committed(uint256 epoch, uint256 stakerId, bytes32 commitment, uint256 timestamp);\n\n    function getCommitment(uint256 epoch, uint256 stakerId) public view returns(bytes32) {\n        //epoch->stakerid->commitment\n        // mapping (uint256 => mapping (uint256 => bytes32)) public commitments;\n        return(commitments[epoch][stakerId]);\n    }\n\n    function getVote(uint256 epoch, uint256 stakerId, uint256 assetId) public view returns(Structs.Vote memory vote) {\n        //epoch->stakerid->assetid->vote\n        // mapping (uint256 => mapping (uint256 =>  mapping (uint256 => Structs.Vote))) public votes;\n        return(votes[epoch][stakerId][assetId]);\n    }\n\n    function getVoteWeight(uint256 epoch, uint256 assetId, uint256 voteValue)\n    public view returns(uint256) {\n        //epoch->assetid->voteValue->weight\n        // mapping (uint256 => mapping (uint256 =>  mapping (uint256 => uint256))) public voteWeights;\n        return(voteWeights[epoch][assetId][voteValue]);\n    }\n\n    function getTotalStakeRevealed(uint256 epoch, uint256 assetId) public view returns(uint256) {\n        // epoch -> asset -> stakeWeight\n        // mapping (uint256 =>  mapping (uint256 => uint256)) public totalStakeRevealed;\n        return(totalStakeRevealed[epoch][assetId]);\n    }\n\n    function getTotalStakeRevealed(uint256 epoch, uint256 assetId, uint256 voteValue) public view returns(uint256) {\n        //epoch->assetid->voteValue->weight\n        // mapping (uint256 => mapping (uint256 =>  mapping (uint256 => uint256))) public voteWeights;\n        return(voteWeights[epoch][assetId][voteValue]);\n    }\n\n    function commit (uint256 epoch, bytes32 commitment) public checkEpoch(epoch) checkState(Constants.commit()) {\n        uint256 stakerId = stakeManager.getStakerId(msg.sender);\n        require(commitments[epoch][stakerId] == 0x0, \"already commited\");\n        Structs.Staker memory thisStaker = stakeManager.getStaker(stakerId);\n        blockManager.confirmBlock();\n\n        stakeManager.givePenalties(stakerId, epoch);\n        // emit DebugUint256(y);\n        if (thisStaker.stake >= Constants.minStake()) {\n            commitments[epoch][stakerId] = commitment;\n            stakeManager.updateCommitmentEpoch(stakerId);\n            // thisStaker.epochLastCommitted = epoch;\n            emit Committed(epoch, stakerId, commitment, now);\n        }\n    }\n\n    event Revealed(uint256 epoch, uint256 stakerId, uint256 stake, uint256[] values, uint256 timestamp);\n\n    function reveal (uint256 epoch, bytes32 root, uint256[] memory values,\n                    bytes32[][] memory proofs, bytes32 secret, address stakerAddress)\n    public\n    checkEpoch(epoch) {\n        uint256 thisStakerId = stakeManager.getStakerId(stakerAddress);\n        require(thisStakerId > 0, \"Structs.Staker does not exist\");\n        Structs.Staker memory thisStaker = stakeManager.getStaker(thisStakerId);\n        require(commitments[epoch][thisStakerId] != 0x0, \"not commited or already revealed\");\n        // require(value > 0, \"voted non positive value\");\n        require(keccak256(abi.encodePacked(epoch, root, secret)) == commitments[epoch][thisStakerId],\n                \"incorrect secret/value\");\n        //if revealing self\n        if (msg.sender == stakerAddress) {\n            require(stateManager.getState() == Constants.reveal(), \"Not reveal state\");\n            require(thisStaker.stake > 0, \"nonpositive stake\");\n            for (uint256 i = 0; i < values.length; i++) {\n                require(MerkleProof.verify(proofs[i], root, keccak256(abi.encodePacked(values[i]))),\n                \"invalid merkle proof\");\n                votes[epoch][thisStakerId][i] = Structs.Vote(values[i], thisStaker.stake);\n                voteWeights[epoch][i][values[i]] = voteWeights[epoch][i][values[i]].add(thisStaker.stake);\n                totalStakeRevealed[epoch][i] = totalStakeRevealed[epoch][i].add(thisStaker.stake);\n            }\n\n            stakeManager.giveRewards(thisStakerId, epoch);\n\n            commitments[epoch][thisStakerId] = 0x0;\n            // thisStaker.epochLastRevealed = epoch;\n            // stakeManager.setStakerStake(thisStakerId, thisStaker.stake);\n            stakeManager.setStakerEpochLastRevealed(thisStakerId, epoch);\n\n            emit Revealed(epoch, thisStakerId, thisStaker.stake, values, now);\n        } else {\n            //bounty hunter revealing someone else's secret in commit state\n            require(stateManager.getState() == Constants.commit(), \"Not commit state\");\n            commitments[epoch][thisStakerId] = 0x0;\n            stakeManager.slash(thisStakerId, msg.sender, epoch);\n        }\n    }\n}\n",
  "sourcePath": "/Users/hrishi/contracts/contracts/Core/VoteManager.sol",
  "compiler": {
    "name": "solc",
    "version": "0.5.10+commit.5a6ea5b1.Emscripten.clang"
  },
  "schemaVersion": "3.0.16",
  "updatedAt": "2019-10-07T07:53:47.627Z",
  "devdoc": {
    "methods": {}
  },
  "userdoc": {
    "methods": {}
  }
}