{
  "contractName": "VoteManager",
  "abi": [
    {
      "constant": true,
      "inputs": [
        {
          "name": "",
          "type": "uint256"
        },
        {
          "name": "",
          "type": "uint256"
        },
        {
          "name": "",
          "type": "uint256"
        }
      ],
      "name": "votes",
      "outputs": [
        {
          "name": "value",
          "type": "uint256"
        },
        {
          "name": "weight",
          "type": "uint256"
        }
      ],
      "payable": false,
      "stateMutability": "view",
      "type": "function"
    },
    {
      "constant": true,
      "inputs": [],
      "name": "stateManager",
      "outputs": [
        {
          "name": "",
          "type": "address"
        }
      ],
      "payable": false,
      "stateMutability": "view",
      "type": "function"
    },
    {
      "constant": true,
      "inputs": [],
      "name": "stakeManager",
      "outputs": [
        {
          "name": "",
          "type": "address"
        }
      ],
      "payable": false,
      "stateMutability": "view",
      "type": "function"
    },
    {
      "constant": true,
      "inputs": [
        {
          "name": "",
          "type": "uint256"
        },
        {
          "name": "",
          "type": "uint256"
        }
      ],
      "name": "totalStakeRevealed",
      "outputs": [
        {
          "name": "",
          "type": "uint256"
        }
      ],
      "payable": false,
      "stateMutability": "view",
      "type": "function"
    },
    {
      "constant": true,
      "inputs": [
        {
          "name": "",
          "type": "uint256"
        },
        {
          "name": "",
          "type": "uint256"
        },
        {
          "name": "",
          "type": "uint256"
        }
      ],
      "name": "voteWeights",
      "outputs": [
        {
          "name": "",
          "type": "uint256"
        }
      ],
      "payable": false,
      "stateMutability": "view",
      "type": "function"
    },
    {
      "constant": true,
      "inputs": [
        {
          "name": "",
          "type": "uint256"
        },
        {
          "name": "",
          "type": "uint256"
        }
      ],
      "name": "commitments",
      "outputs": [
        {
          "name": "",
          "type": "bytes32"
        }
      ],
      "payable": false,
      "stateMutability": "view",
      "type": "function"
    },
    {
      "constant": true,
      "inputs": [],
      "name": "blockManager",
      "outputs": [
        {
          "name": "",
          "type": "address"
        }
      ],
      "payable": false,
      "stateMutability": "view",
      "type": "function"
    },
    {
      "anonymous": false,
      "inputs": [
        {
          "indexed": false,
          "name": "epoch",
          "type": "uint256"
        },
        {
          "indexed": false,
          "name": "stakerId",
          "type": "uint256"
        },
        {
          "indexed": false,
          "name": "commitment",
          "type": "bytes32"
        }
      ],
      "name": "Committed",
      "type": "event"
    },
    {
      "anonymous": false,
      "inputs": [
        {
          "indexed": false,
          "name": "epoch",
          "type": "uint256"
        },
        {
          "indexed": false,
          "name": "stakerId",
          "type": "uint256"
        },
        {
          "indexed": false,
          "name": "stake",
          "type": "uint256"
        }
      ],
      "name": "Revealed",
      "type": "event"
    },
    {
      "anonymous": false,
      "inputs": [
        {
          "indexed": false,
          "name": "a",
          "type": "uint256"
        }
      ],
      "name": "DebugUint256",
      "type": "event"
    },
    {
      "constant": false,
      "inputs": [
        {
          "name": "_stakeManagerAddress",
          "type": "address"
        },
        {
          "name": "_stateManagerAddress",
          "type": "address"
        },
        {
          "name": "_blockManagerAddress",
          "type": "address"
        }
      ],
      "name": "init",
      "outputs": [],
      "payable": false,
      "stateMutability": "nonpayable",
      "type": "function"
    },
    {
      "constant": true,
      "inputs": [
        {
          "name": "epoch",
          "type": "uint256"
        },
        {
          "name": "stakerId",
          "type": "uint256"
        }
      ],
      "name": "getCommitment",
      "outputs": [
        {
          "name": "",
          "type": "bytes32"
        }
      ],
      "payable": false,
      "stateMutability": "view",
      "type": "function"
    },
    {
      "constant": true,
      "inputs": [
        {
          "name": "epoch",
          "type": "uint256"
        },
        {
          "name": "stakerId",
          "type": "uint256"
        },
        {
          "name": "assetId",
          "type": "uint256"
        }
      ],
      "name": "getVote",
      "outputs": [
        {
          "components": [
            {
              "name": "value",
              "type": "uint256"
            },
            {
              "name": "weight",
              "type": "uint256"
            }
          ],
          "name": "vote",
          "type": "tuple"
        }
      ],
      "payable": false,
      "stateMutability": "view",
      "type": "function"
    },
    {
      "constant": true,
      "inputs": [
        {
          "name": "epoch",
          "type": "uint256"
        },
        {
          "name": "assetId",
          "type": "uint256"
        },
        {
          "name": "voteValue",
          "type": "uint256"
        }
      ],
      "name": "getVoteWeight",
      "outputs": [
        {
          "name": "",
          "type": "uint256"
        }
      ],
      "payable": false,
      "stateMutability": "view",
      "type": "function"
    },
    {
      "constant": true,
      "inputs": [
        {
          "name": "epoch",
          "type": "uint256"
        },
        {
          "name": "assetId",
          "type": "uint256"
        }
      ],
      "name": "getTotalStakeRevealed",
      "outputs": [
        {
          "name": "",
          "type": "uint256"
        }
      ],
      "payable": false,
      "stateMutability": "view",
      "type": "function"
    },
    {
      "constant": true,
      "inputs": [
        {
          "name": "epoch",
          "type": "uint256"
        },
        {
          "name": "assetId",
          "type": "uint256"
        },
        {
          "name": "voteValue",
          "type": "uint256"
        }
      ],
      "name": "getTotalStakeRevealed",
      "outputs": [
        {
          "name": "",
          "type": "uint256"
        }
      ],
      "payable": false,
      "stateMutability": "view",
      "type": "function"
    },
    {
      "constant": false,
      "inputs": [
        {
          "name": "epoch",
          "type": "uint256"
        },
        {
          "name": "commitment",
          "type": "bytes32"
        }
      ],
      "name": "commit",
      "outputs": [],
      "payable": false,
      "stateMutability": "nonpayable",
      "type": "function"
    },
    {
      "constant": false,
      "inputs": [
        {
          "name": "epoch",
          "type": "uint256"
        },
        {
          "name": "root",
          "type": "bytes32"
        },
        {
          "name": "values",
          "type": "uint256[]"
        },
        {
          "name": "proofs",
          "type": "bytes32[][]"
        },
        {
          "name": "secret",
          "type": "bytes32"
        },
        {
          "name": "stakerAddress",
          "type": "address"
        }
      ],
      "name": "reveal",
      "outputs": [],
      "payable": false,
      "stateMutability": "nonpayable",
      "type": "function"
    }
  ],
  "bytecode": "0x608060405234801561001057600080fd5b506128d2806100206000396000f3fe608060405234801561001057600080fd5b50600436106100f55760003560e01c80638ce7ff4a11610097578063d13e2e6011610066578063d13e2e60146102bf578063d9169b32146102ef578063f2f038771461030d578063f322bd7d14610329576100f5565b80638ce7ff4a146101ff5780638fd5ff001461022f5780639c66556f1461025f578063a6a145d91461028f576100f5565b80632e716fb1116100d35780632e716fb1146101635780637164f0d6146101815780637542ff95146101b15780638a757ecc146101cf576100f5565b8063125f68f1146100fa578063184b955914610116578063283e290514610132575b600080fd5b610114600480360361010f9190810190611d3e565b610359565b005b610130600480360361012b9190810190611c61565b610e9f565b005b61014c60048036036101479190810190611e33565b610f67565b60405161015a9291906125dd565b60405180910390f35b61016b610fa5565b60405161017891906123d9565b60405180910390f35b61019b60048036036101969190810190611df7565b610fcb565b6040516101a89190612388565b60405180910390f35b6101b9610ff9565b6040516101c691906123be565b60405180910390f35b6101e960048036036101e49190810190611df7565b61101f565b6040516101f69190612599565b60405180910390f35b61021960048036036102149190810190611e33565b611044565b604051610226919061257e565b60405180910390f35b61024960048036036102449190810190611e33565b6110a9565b6040516102569190612599565b60405180910390f35b61027960048036036102749190810190611e33565b6110db565b6040516102869190612599565b60405180910390f35b6102a960048036036102a49190810190611df7565b61111c565b6040516102b69190612599565b60405180910390f35b6102d960048036036102d49190810190611df7565b61114b565b6040516102e69190612388565b60405180910390f35b6102f7611170565b60405161030491906123a3565b60405180910390f35b61032760048036036103229190810190611d02565b611196565b005b610343600480360361033e9190810190611e33565b611834565b6040516103509190612599565b60405180910390f35b85600560009054906101000a900473ffffffffffffffffffffffffffffffffffffffff1673ffffffffffffffffffffffffffffffffffffffff1663757991a86040518163ffffffff1660e01b815260040160206040518083038186803b1580156103c257600080fd5b505afa1580156103d6573d6000803e3d6000fd5b505050506040513d601f19601f820116820180604052506103fa9190810190611cd9565b811461043b576040517f08c379a0000000000000000000000000000000000000000000000000000000008152600401610432906124d4565b60405180910390fd5b6000600460009054906101000a900473ffffffffffffffffffffffffffffffffffffffff1673ffffffffffffffffffffffffffffffffffffffff16636022a485846040518263ffffffff1660e01b81526004016104989190612352565b60206040518083038186803b1580156104b057600080fd5b505afa1580156104c4573d6000803e3d6000fd5b505050506040513d601f19601f820116820180604052506104e89190810190611cd9565b90506000811161052d576040517f08c379a0000000000000000000000000000000000000000000000000000000008152600401610524906124b4565b60405180910390fd5b610535611977565b600460009054906101000a900473ffffffffffffffffffffffffffffffffffffffff1673ffffffffffffffffffffffffffffffffffffffff1663e3c998fe836040518263ffffffff1660e01b81526004016105909190612599565b60e06040518083038186803b1580156105a857600080fd5b505afa1580156105bc573d6000803e3d6000fd5b505050506040513d601f19601f820116820180604052506105e09190810190611cb0565b90506000801b6000808b8152602001908152602001600020600084815260200190815260200160002054141561064b576040517f08c379a0000000000000000000000000000000000000000000000000000000008152600401610642906124f4565b60405180910390fd5b6000808a815260200190815260200160002060008381526020019081526020016000205489898760405160200161068493929190612315565b60405160208183030381529060405280519060200120146106da576040517f08c379a00000000000000000000000000000000000000000000000000000000081526004016106d1906123f4565b60405180910390fd5b8373ffffffffffffffffffffffffffffffffffffffff163373ffffffffffffffffffffffffffffffffffffffff161415610c7a5773__Constants_____________________________63a475b5dd6040518163ffffffff1660e01b815260040160206040518083038186803b15801561075257600080fd5b505af4158015610766573d6000803e3d6000fd5b505050506040513d601f19601f8201168201806040525061078a9190810190611e82565b60ff16600560009054906101000a900473ffffffffffffffffffffffffffffffffffffffff1673ffffffffffffffffffffffffffffffffffffffff16631865c57d6040518163ffffffff1660e01b815260040160206040518083038186803b1580156107f557600080fd5b505afa158015610809573d6000803e3d6000fd5b505050506040513d601f19601f8201168201806040525061082d9190810190611cd9565b1461086d576040517f08c379a000000000000000000000000000000000000000000000000000000000815260040161086490612454565b60405180910390fd5b60008160200151116108b4576040517f08c379a00000000000000000000000000000000000000000000000000000000081526004016108ab90612414565b60405180910390fd5b60008090505b8751811015610aec5761091a8782815181106108d257fe5b60200260200101518a8a84815181106108e757fe5b60200260200101516040516020016108ff91906122fa565b60405160208183030381529060405280519060200120611875565b610959576040517f08c379a000000000000000000000000000000000000000000000000000000000815260040161095090612434565b60405180910390fd5b604051806040016040528089838151811061097057fe5b602002602001015181526020018360200151815250600160008c8152602001908152602001600020600085815260200190815260200160002060008381526020019081526020016000206000820151816000015560208201518160010155905050610a308260200151600360008d8152602001908152602001600020600084815260200190815260200160002060008b8581518110610a0b57fe5b602002602001015181526020019081526020016000205461192290919063ffffffff16565b600360008c8152602001908152602001600020600083815260200190815260200160002060008a8481518110610a6257fe5b6020026020010151815260200190815260200160002081905550610ab78260200151600260008d815260200190815260200160002060008481526020019081526020016000205461192290919063ffffffff16565b600260008c815260200190815260200160002060008381526020019081526020016000208190555080806001019150506108ba565b50600460009054906101000a900473ffffffffffffffffffffffffffffffffffffffff1673ffffffffffffffffffffffffffffffffffffffff166354ca1b7a828b6040518363ffffffff1660e01b8152600401610b4a929190612554565b600060405180830381600087803b158015610b6457600080fd5b505af1158015610b78573d6000803e3d6000fd5b505050506000801b6000808b8152602001908152602001600020600084815260200190815260200160002081905550600460009054906101000a900473ffffffffffffffffffffffffffffffffffffffff1673ffffffffffffffffffffffffffffffffffffffff16639864f70a838b6040518363ffffffff1660e01b8152600401610c049291906125dd565b600060405180830381600087803b158015610c1e57600080fd5b505af1158015610c32573d6000803e3d6000fd5b505050507f7162321ecace9c982905ec8d8000eb292887b6befedc98e18dbb27fa95e752d789838360200151604051610c6d9392919061263d565b60405180910390a1610e94565b73__Constants_____________________________633c7a3aff6040518163ffffffff1660e01b815260040160206040518083038186803b158015610cbe57600080fd5b505af4158015610cd2573d6000803e3d6000fd5b505050506040513d601f19601f82011682018060405250610cf69190810190611e82565b60ff16600560009054906101000a900473ffffffffffffffffffffffffffffffffffffffff1673ffffffffffffffffffffffffffffffffffffffff16631865c57d6040518163ffffffff1660e01b815260040160206040518083038186803b158015610d6157600080fd5b505afa158015610d75573d6000803e3d6000fd5b505050506040513d601f19601f82011682018060405250610d999190810190611cd9565b14610dd9576040517f08c379a0000000000000000000000000000000000000000000000000000000008152600401610dd090612494565b60405180910390fd5b6000801b6000808b8152602001908152602001600020600084815260200190815260200160002081905550600460009054906101000a900473ffffffffffffffffffffffffffffffffffffffff1673ffffffffffffffffffffffffffffffffffffffff16633d82e3c183336040518363ffffffff1660e01b8152600401610e619291906125b4565b600060405180830381600087803b158015610e7b57600080fd5b505af1158015610e8f573d6000803e3d6000fd5b505050505b505050505050505050565b82600460006101000a81548173ffffffffffffffffffffffffffffffffffffffff021916908373ffffffffffffffffffffffffffffffffffffffff16021790555081600560006101000a81548173ffffffffffffffffffffffffffffffffffffffff021916908373ffffffffffffffffffffffffffffffffffffffff16021790555080600660006101000a81548173ffffffffffffffffffffffffffffffffffffffff021916908373ffffffffffffffffffffffffffffffffffffffff160217905550505050565b600160205282600052604060002060205281600052604060002060205280600052604060002060009250925050508060000154908060010154905082565b600560009054906101000a900473ffffffffffffffffffffffffffffffffffffffff1681565b6000806000848152602001908152602001600020600083815260200190815260200160002054905092915050565b600460009054906101000a900473ffffffffffffffffffffffffffffffffffffffff1681565b6002602052816000526040600020602052806000526040600020600091509150505481565b61104c6119b4565b60016000858152602001908152602001600020600084815260200190815260200160002060008381526020019081526020016000206040518060400160405290816000820154815260200160018201548152505090509392505050565b600360205282600052604060002060205281600052604060002060205280600052604060002060009250925050505481565b600060036000858152602001908152602001600020600084815260200190815260200160002060008381526020019081526020016000205490509392505050565b600060026000848152602001908152602001600020600083815260200190815260200160002054905092915050565b6000602052816000526040600020602052806000526040600020600091509150505481565b600660009054906101000a900473ffffffffffffffffffffffffffffffffffffffff1681565b81600560009054906101000a900473ffffffffffffffffffffffffffffffffffffffff1673ffffffffffffffffffffffffffffffffffffffff1663757991a86040518163ffffffff1660e01b815260040160206040518083038186803b1580156111ff57600080fd5b505afa158015611213573d6000803e3d6000fd5b505050506040513d601f19601f820116820180604052506112379190810190611cd9565b8114611278576040517f08c379a000000000000000000000000000000000000000000000000000000000815260040161126f906124d4565b60405180910390fd5b73__Constants_____________________________633c7a3aff6040518163ffffffff1660e01b815260040160206040518083038186803b1580156112bc57600080fd5b505af41580156112d0573d6000803e3d6000fd5b505050506040513d601f19601f820116820180604052506112f49190810190611e82565b60ff16600560009054906101000a900473ffffffffffffffffffffffffffffffffffffffff1673ffffffffffffffffffffffffffffffffffffffff16631865c57d6040518163ffffffff1660e01b815260040160206040518083038186803b15801561135f57600080fd5b505afa158015611373573d6000803e3d6000fd5b505050506040513d601f19601f820116820180604052506113979190810190611cd9565b81146113d8576040517f08c379a00000000000000000000000000000000000000000000000000000000081526004016113cf90612514565b60405180910390fd5b6000600460009054906101000a900473ffffffffffffffffffffffffffffffffffffffff1673ffffffffffffffffffffffffffffffffffffffff16636022a485336040518263ffffffff1660e01b8152600401611435919061236d565b60206040518083038186803b15801561144d57600080fd5b505afa158015611461573d6000803e3d6000fd5b505050506040513d601f19601f820116820180604052506114859190810190611cd9565b90506000801b600080878152602001908152602001600020600083815260200190815260200160002054146114ef576040517f08c379a00000000000000000000000000000000000000000000000000000000081526004016114e690612534565b60405180910390fd5b6114f7611977565b600460009054906101000a900473ffffffffffffffffffffffffffffffffffffffff1673ffffffffffffffffffffffffffffffffffffffff1663e3c998fe836040518263ffffffff1660e01b81526004016115529190612599565b60e06040518083038186803b15801561156a57600080fd5b505afa15801561157e573d6000803e3d6000fd5b505050506040513d601f19601f820116820180604052506115a29190810190611cb0565b9050600660009054906101000a900473ffffffffffffffffffffffffffffffffffffffff1673ffffffffffffffffffffffffffffffffffffffff16639b87f6446040518163ffffffff1660e01b8152600401600060405180830381600087803b15801561160e57600080fd5b505af1158015611622573d6000803e3d6000fd5b50505050600460009054906101000a900473ffffffffffffffffffffffffffffffffffffffff1673ffffffffffffffffffffffffffffffffffffffff16630f98eb6082886040518363ffffffff1660e01b8152600401611683929190612554565b600060405180830381600087803b15801561169d57600080fd5b505af11580156116b1573d6000803e3d6000fd5b5050505073__Constants_____________________________63375b3c0a6040518163ffffffff1660e01b815260040160206040518083038186803b1580156116f957600080fd5b505af415801561170d573d6000803e3d6000fd5b505050506040513d601f19601f820116820180604052506117319190810190611cd9565b81602001511061182c5784600080888152602001908152602001600020600084815260200190815260200160002081905550600460009054906101000a900473ffffffffffffffffffffffffffffffffffffffff1673ffffffffffffffffffffffffffffffffffffffff1663188dc83b836040518263ffffffff1660e01b81526004016117be9190612599565b600060405180830381600087803b1580156117d857600080fd5b505af11580156117ec573d6000803e3d6000fd5b505050507fdad4a6987898eb6021100d7006409b112ed5ba7b73761d6867ea5d02cd85c49986838760405161182393929190612606565b60405180910390a15b505050505050565b600060036000858152602001908152602001600020600084815260200190815260200160002060008381526020019081526020016000205490509392505050565b60008082905060008090505b855181101561191457600086828151811061189857fe5b60200260200101519050808310156118da5782816040516020016118bd9291906122ce565b604051602081830303815290604052805190602001209250611906565b80836040516020016118ed9291906122ce565b6040516020818303038152906040528051906020012092505b508080600101915050611881565b508381149150509392505050565b60008082840190508381101561196d576040517f08c379a000000000000000000000000000000000000000000000000000000000815260040161196490612474565b60405180910390fd5b8091505092915050565b6040518060e00160405280600081526020016000815260200160008152602001600081526020016000815260200160008152602001600081525090565b604051806040016040528060008152602001600081525090565b6000813590506119dd81612833565b92915050565b600082601f8301126119f457600080fd5b8135611a07611a02826126a1565b612674565b9150818183526020840193506020810190508360005b83811015611a4d5781358601611a338882611a57565b845260208401935060208301925050600181019050611a1d565b5050505092915050565b600082601f830112611a6857600080fd5b8135611a7b611a76826126c9565b612674565b91508181835260208401935060208101905083856020840282011115611aa057600080fd5b60005b83811015611ad05781611ab68882611b5d565b845260208401935060208301925050600181019050611aa3565b5050505092915050565b600082601f830112611aeb57600080fd5b8135611afe611af9826126f1565b612674565b91508181835260208401935060208101905083856020840282011115611b2357600080fd5b60005b83811015611b535781611b398882611c22565b845260208401935060208301925050600181019050611b26565b5050505092915050565b600081359050611b6c8161284a565b92915050565b600060e08284031215611b8457600080fd5b611b8e60e0612674565b90506000611b9e84828501611c37565b6000830152506020611bb284828501611c37565b6020830152506040611bc684828501611c37565b6040830152506060611bda84828501611c37565b6060830152506080611bee84828501611c37565b60808301525060a0611c0284828501611c37565b60a08301525060c0611c1684828501611c37565b60c08301525092915050565b600081359050611c3181612861565b92915050565b600081519050611c4681612861565b92915050565b600081519050611c5b81612878565b92915050565b600080600060608486031215611c7657600080fd5b6000611c84868287016119ce565b9350506020611c95868287016119ce565b9250506040611ca6868287016119ce565b9150509250925092565b600060e08284031215611cc257600080fd5b6000611cd084828501611b72565b91505092915050565b600060208284031215611ceb57600080fd5b6000611cf984828501611c37565b91505092915050565b60008060408385031215611d1557600080fd5b6000611d2385828601611c22565b9250506020611d3485828601611b5d565b9150509250929050565b60008060008060008060c08789031215611d5757600080fd5b6000611d6589828a01611c22565b9650506020611d7689828a01611b5d565b955050604087013567ffffffffffffffff811115611d9357600080fd5b611d9f89828a01611ada565b945050606087013567ffffffffffffffff811115611dbc57600080fd5b611dc889828a016119e3565b9350506080611dd989828a01611b5d565b92505060a0611dea89828a016119ce565b9150509295509295509295565b60008060408385031215611e0a57600080fd5b6000611e1885828601611c22565b9250506020611e2985828601611c22565b9150509250929050565b600080600060608486031215611e4857600080fd5b6000611e5686828701611c22565b9350506020611e6786828701611c22565b9250506040611e7886828701611c22565b9150509250925092565b600060208284031215611e9457600080fd5b6000611ea284828501611c4c565b91505092915050565b611eb48161277d565b82525050565b611ec38161272a565b82525050565b611ed28161273c565b82525050565b611ee9611ee48261273c565b61281f565b82525050565b611ef88161278f565b82525050565b611f07816127b3565b82525050565b611f16816127d7565b82525050565b6000611f29601683612719565b91507f696e636f7272656374207365637265742f76616c7565000000000000000000006000830152602082019050919050565b6000611f69601183612719565b91507f6e6f6e706f736974697665207374616b650000000000000000000000000000006000830152602082019050919050565b6000611fa9601483612719565b91507f696e76616c6964206d65726b6c652070726f6f660000000000000000000000006000830152602082019050919050565b6000611fe9601083612719565b91507f4e6f742072657665616c207374617465000000000000000000000000000000006000830152602082019050919050565b6000612029601b83612719565b91507f536166654d6174683a206164646974696f6e206f766572666c6f7700000000006000830152602082019050919050565b6000612069601083612719565b91507f4e6f7420636f6d6d6974207374617465000000000000000000000000000000006000830152602082019050919050565b60006120a9601d83612719565b91507f537472756374732e5374616b657220646f6573206e6f742065786973740000006000830152602082019050919050565b60006120e9600f83612719565b91507f696e636f72726563742065706f636800000000000000000000000000000000006000830152602082019050919050565b6000612129602083612719565b91507f6e6f7420636f6d6d69746564206f7220616c72656164792072657665616c65646000830152602082019050919050565b6000612169600f83612719565b91507f696e636f727265637420737461746500000000000000000000000000000000006000830152602082019050919050565b60006121a9601083612719565b91507f616c726561647920636f6d6d69746564000000000000000000000000000000006000830152602082019050919050565b60e0820160008201516121f26000850182612299565b5060208201516122056020850182612299565b5060408201516122186040850182612299565b50606082015161222b6060850182612299565b50608082015161223e6080850182612299565b5060a082015161225160a0850182612299565b5060c082015161226460c0850182612299565b50505050565b6040820160008201516122806000850182612299565b5060208201516122936020850182612299565b50505050565b6122a281612766565b82525050565b6122b181612766565b82525050565b6122c86122c382612766565b612829565b82525050565b60006122da8285611ed8565b6020820191506122ea8284611ed8565b6020820191508190509392505050565b600061230682846122b7565b60208201915081905092915050565b600061232182866122b7565b6020820191506123318285611ed8565b6020820191506123418284611ed8565b602082019150819050949350505050565b60006020820190506123676000830184611eba565b92915050565b60006020820190506123826000830184611eab565b92915050565b600060208201905061239d6000830184611ec9565b92915050565b60006020820190506123b86000830184611eef565b92915050565b60006020820190506123d36000830184611efe565b92915050565b60006020820190506123ee6000830184611f0d565b92915050565b6000602082019050818103600083015261240d81611f1c565b9050919050565b6000602082019050818103600083015261242d81611f5c565b9050919050565b6000602082019050818103600083015261244d81611f9c565b9050919050565b6000602082019050818103600083015261246d81611fdc565b9050919050565b6000602082019050818103600083015261248d8161201c565b9050919050565b600060208201905081810360008301526124ad8161205c565b9050919050565b600060208201905081810360008301526124cd8161209c565b9050919050565b600060208201905081810360008301526124ed816120dc565b9050919050565b6000602082019050818103600083015261250d8161211c565b9050919050565b6000602082019050818103600083015261252d8161215c565b9050919050565b6000602082019050818103600083015261254d8161219c565b9050919050565b60006101008201905061256a60008301856121dc565b61257760e08301846122a8565b9392505050565b6000604082019050612593600083018461226a565b92915050565b60006020820190506125ae60008301846122a8565b92915050565b60006040820190506125c960008301856122a8565b6125d66020830184611eab565b9392505050565b60006040820190506125f260008301856122a8565b6125ff60208301846122a8565b9392505050565b600060608201905061261b60008301866122a8565b61262860208301856122a8565b6126356040830184611ec9565b949350505050565b600060608201905061265260008301866122a8565b61265f60208301856122a8565b61266c60408301846122a8565b949350505050565b6000604051905081810181811067ffffffffffffffff8211171561269757600080fd5b8060405250919050565b600067ffffffffffffffff8211156126b857600080fd5b602082029050602081019050919050565b600067ffffffffffffffff8211156126e057600080fd5b602082029050602081019050919050565b600067ffffffffffffffff82111561270857600080fd5b602082029050602081019050919050565b600082825260208201905092915050565b600061273582612746565b9050919050565b6000819050919050565b600073ffffffffffffffffffffffffffffffffffffffff82169050919050565b6000819050919050565b600060ff82169050919050565b6000612788826127fb565b9050919050565b600061279a826127a1565b9050919050565b60006127ac82612746565b9050919050565b60006127be826127c5565b9050919050565b60006127d082612746565b9050919050565b60006127e2826127e9565b9050919050565b60006127f482612746565b9050919050565b60006128068261280d565b9050919050565b600061281882612746565b9050919050565b6000819050919050565b6000819050919050565b61283c8161272a565b811461284757600080fd5b50565b6128538161273c565b811461285e57600080fd5b50565b61286a81612766565b811461287557600080fd5b50565b61288181612770565b811461288c57600080fd5b5056fea365627a7a72305820d75c54e3f8125d5ed12c376889623c4479ef94114333914674e7c67ed62bf44d6c6578706572696d656e74616cf564736f6c634300050a0040",
  "source": "pragma solidity 0.5.10;\npragma experimental ABIEncoderV2;\n// import \"../SimpleToken.sol\";\nimport \"./Utils.sol\";\n// import \"../lib/Random.sol\";\nimport \"openzeppelin-solidity/contracts/math/SafeMath.sol\";\n// import \"../lib/Structs.sol\";\nimport \"./IStakeManager.sol\";\nimport \"./IStateManager.sol\";\nimport \"./IBlockManager.sol\";\nimport \"./VoteStorage.sol\";\nimport \"openzeppelin-solidity/contracts/cryptography/MerkleProof.sol\";\n// import \"openzeppelin-solidity/contracts/ownership/Ownable.sol\";\n\n\ncontract VoteManager is  Utils, VoteStorage {\n    using SafeMath for uint256;\n    IStakeManager public stakeManager;\n    IStateManager public stateManager;\n    IBlockManager public blockManager;\n\n    modifier checkEpoch (uint256 epoch) {\n        require(epoch == stateManager.getEpoch(), \"incorrect epoch\");\n        _;\n    }\n\n    modifier checkState (uint256 state) {\n        require(state == stateManager.getState(), \"incorrect state\");\n        _;\n    }\n\n    function init (address _stakeManagerAddress, address _stateManagerAddress, address _blockManagerAddress) public {\n        stakeManager = IStakeManager(_stakeManagerAddress);\n        stateManager = IStateManager(_stateManagerAddress);\n        blockManager = IBlockManager(_blockManagerAddress);\n    }\n\n    event Committed(uint256 epoch, uint256 stakerId, bytes32 commitment);\n\n    function getCommitment(uint256 epoch, uint256 stakerId) public view returns(bytes32) {\n        //epoch->stakerid->commitment\n        // mapping (uint256 => mapping (uint256 => bytes32)) public commitments;\n        return(commitments[epoch][stakerId]);\n    }\n\n    function getVote(uint256 epoch, uint256 stakerId, uint256 assetId) public view returns(Structs.Vote memory vote) {\n        //epoch->stakerid->assetid->vote\n        // mapping (uint256 => mapping (uint256 =>  mapping (uint256 => Structs.Vote))) public votes;\n        return(votes[epoch][stakerId][assetId]);\n    }\n\n    function getVoteWeight(uint256 epoch, uint256 assetId, uint256 voteValue)\n    public view returns(uint256) {\n        //epoch->assetid->voteValue->weight\n        // mapping (uint256 => mapping (uint256 =>  mapping (uint256 => uint256))) public voteWeights;\n        return(voteWeights[epoch][assetId][voteValue]);\n    }\n\n    function getTotalStakeRevealed(uint256 epoch, uint256 assetId) public view returns(uint256) {\n        // epoch -> asset -> stakeWeight\n        // mapping (uint256 =>  mapping (uint256 => uint256)) public totalStakeRevealed;\n        return(totalStakeRevealed[epoch][assetId]);\n    }\n\n    function getTotalStakeRevealed(uint256 epoch, uint256 assetId, uint256 voteValue) public view returns(uint256) {\n        //epoch->assetid->voteValue->weight\n        // mapping (uint256 => mapping (uint256 =>  mapping (uint256 => uint256))) public voteWeights;\n        return(voteWeights[epoch][assetId][voteValue]);\n    }\n\n    function commit (uint256 epoch, bytes32 commitment) public checkEpoch(epoch) checkState(Constants.commit()) {\n        uint256 stakerId = stakeManager.getStakerId(msg.sender);\n        require(commitments[epoch][stakerId] == 0x0, \"already commited\");\n        Structs.Staker memory thisStaker = stakeManager.getStaker(stakerId);\n        blockManager.confirmBlock();\n\n        stakeManager.givePenalties(thisStaker, epoch);\n        // emit DebugUint256(y);\n        if (thisStaker.stake >= Constants.minStake()) {\n            commitments[epoch][stakerId] = commitment;\n            stakeManager.updateCommitmentEpoch(stakerId);\n            // thisStaker.epochLastCommitted = epoch;\n            emit Committed(epoch, stakerId, commitment);\n        }\n    }\n\n    event Revealed(uint256 epoch, uint256 stakerId, uint256 stake);\n\n    function reveal (uint256 epoch, bytes32 root, uint256[] memory values,\n                    bytes32[][] memory proofs, bytes32 secret, address stakerAddress)\n    public\n    checkEpoch(epoch) {\n        uint256 thisStakerId = stakeManager.getStakerId(stakerAddress);\n        require(thisStakerId > 0, \"Structs.Staker does not exist\");\n        Structs.Staker memory thisStaker = stakeManager.getStaker(thisStakerId);\n        require(commitments[epoch][thisStakerId] != 0x0, \"not commited or already revealed\");\n        // require(value > 0, \"voted non positive value\");\n        require(keccak256(abi.encodePacked(epoch, root, secret)) == commitments[epoch][thisStakerId],\n                \"incorrect secret/value\");\n        //if revealing self\n        if (msg.sender == stakerAddress) {\n            require(stateManager.getState() == Constants.reveal(), \"Not reveal state\");\n            require(thisStaker.stake > 0, \"nonpositive stake\");\n            for (uint256 i = 0; i < values.length; i++) {\n                require(MerkleProof.verify(proofs[i], root, keccak256(abi.encodePacked(values[i]))),\n                \"invalid merkle proof\");\n                votes[epoch][thisStakerId][i] = Structs.Vote(values[i], thisStaker.stake);\n                voteWeights[epoch][i][values[i]] = voteWeights[epoch][i][values[i]].add(thisStaker.stake);\n                totalStakeRevealed[epoch][i] = totalStakeRevealed[epoch][i].add(thisStaker.stake);\n            }\n\n            stakeManager.giveRewards(thisStaker, epoch);\n\n            commitments[epoch][thisStakerId] = 0x0;\n            // thisStaker.epochLastRevealed = epoch;\n            // stakeManager.setStakerStake(thisStakerId, thisStaker.stake);\n            stakeManager.setStakerEpochLastRevealed(thisStakerId, epoch);\n\n            emit Revealed(epoch, thisStakerId, thisStaker.stake);\n        } else {\n            //bounty hunter revealing someone else's secret in commit state\n            require(stateManager.getState() == Constants.commit(), \"Not commit state\");\n            commitments[epoch][thisStakerId] = 0x0;\n            stakeManager.slash(thisStakerId, msg.sender);\n        }\n    }\n}\n",
  "sourcePath": "/Users/hrishi/contracts/contracts/Schelling4/VoteManager.sol",
  "compiler": {
    "name": "solc",
    "version": "0.5.10+commit.5a6ea5b1.Emscripten.clang"
  },
  "schemaVersion": "3.0.11",
  "updatedAt": "2019-09-15T18:14:44.291Z",
  "devdoc": {
    "methods": {}
  },
  "userdoc": {
    "methods": {}
  }
}