{
  "contractName": "VoteStorage",
  "abi": [
    {
      "constant": true,
      "inputs": [
        {
          "name": "",
          "type": "uint256"
        },
        {
          "name": "",
          "type": "uint256"
        },
        {
          "name": "",
          "type": "uint256"
        }
      ],
      "name": "votes",
      "outputs": [
        {
          "name": "value",
          "type": "uint256"
        },
        {
          "name": "weight",
          "type": "uint256"
        }
      ],
      "payable": false,
      "stateMutability": "view",
      "type": "function"
    },
    {
      "constant": true,
      "inputs": [
        {
          "name": "",
          "type": "uint256"
        },
        {
          "name": "",
          "type": "uint256"
        }
      ],
      "name": "totalStakeRevealed",
      "outputs": [
        {
          "name": "",
          "type": "uint256"
        }
      ],
      "payable": false,
      "stateMutability": "view",
      "type": "function"
    },
    {
      "constant": true,
      "inputs": [
        {
          "name": "",
          "type": "uint256"
        },
        {
          "name": "",
          "type": "uint256"
        },
        {
          "name": "",
          "type": "uint256"
        }
      ],
      "name": "voteWeights",
      "outputs": [
        {
          "name": "",
          "type": "uint256"
        }
      ],
      "payable": false,
      "stateMutability": "view",
      "type": "function"
    },
    {
      "constant": true,
      "inputs": [
        {
          "name": "",
          "type": "uint256"
        },
        {
          "name": "",
          "type": "uint256"
        }
      ],
      "name": "commitments",
      "outputs": [
        {
          "name": "",
          "type": "bytes32"
        }
      ],
      "payable": false,
      "stateMutability": "view",
      "type": "function"
    }
  ],
  "bytecode": "0x608060405234801561001057600080fd5b5061028b806100206000396000f3fe608060405234801561001057600080fd5b506004361061004c5760003560e01c8063283e2905146100515780638a757ecc146100ae5780638fd5ff00146100fa578063d13e2e6014610150575b600080fd5b6100916004803603606081101561006757600080fd5b8101908080359060200190929190803590602001909291908035906020019092919050505061019c565b604051808381526020018281526020019250505060405180910390f35b6100e4600480360360408110156100c457600080fd5b8101908080359060200190929190803590602001909291905050506101da565b6040518082815260200191505060405180910390f35b61013a6004803603606081101561011057600080fd5b810190808035906020019092919080359060200190929190803590602001909291905050506101ff565b6040518082815260200191505060405180910390f35b6101866004803603604081101561016657600080fd5b810190808035906020019092919080359060200190929190505050610231565b6040518082815260200191505060405180910390f35b600160205282600052604060002060205281600052604060002060205280600052604060002060009250925050508060000154908060010154905082565b6002602052816000526040600020602052806000526040600020600091509150505481565b600360205282600052604060002060205281600052604060002060205280600052604060002060009250925050505481565b600060205281600052604060002060205280600052604060002060009150915050548156fea265627a7a72305820c49a1347add79eed2956438e3306b6972d04720b6b7e1654aa6e6986a006251464736f6c634300050a0032",
  "source": "pragma solidity 0.5.10;\n\nimport \"../lib/Structs.sol\";\n\n\ncontract VoteStorage {\n    //epoch->stakerid->commitment\n    mapping (uint256 => mapping (uint256 => bytes32)) public commitments;\n    //epoch->stakerid->assetid->vote\n    mapping (uint256 => mapping (uint256 =>  mapping (uint256 => Structs.Vote))) public votes;\n    // epoch -> asset -> stakeWeight\n    mapping (uint256 =>  mapping (uint256 => uint256)) public totalStakeRevealed;\n    //epoch->assetid->voteValue->weight\n    mapping (uint256 => mapping (uint256 =>  mapping (uint256 => uint256))) public voteWeights;\n\n}\n",
  "sourcePath": "/Users/hrishi/contracts/contracts/Schelling4/VoteStorage.sol",
  "compiler": {
    "name": "solc",
    "version": "0.5.10+commit.5a6ea5b1.Emscripten.clang"
  },
  "schemaVersion": "3.0.11",
  "updatedAt": "2019-08-13T06:24:05.429Z",
  "devdoc": {
    "methods": {}
  },
  "userdoc": {
    "methods": {}
  }
}